{
  "_format": "hh-sol-artifact-1",
  "contractName": "Organization",
  "sourceName": "contracts/Organization.sol",
  "abi": [
    {
      "inputs": [
        {
          "internalType": "address",
          "name": "_paymaster",
          "type": "address"
        },
        {
          "internalType": "address",
          "name": "_admin",
          "type": "address"
        }
      ],
      "stateMutability": "nonpayable",
      "type": "constructor"
    },
    {
      "anonymous": false,
      "inputs": [
        {
          "indexed": true,
          "internalType": "bytes32",
          "name": "role",
          "type": "bytes32"
        },
        {
          "indexed": true,
          "internalType": "bytes32",
          "name": "previousAdminRole",
          "type": "bytes32"
        },
        {
          "indexed": true,
          "internalType": "bytes32",
          "name": "newAdminRole",
          "type": "bytes32"
        }
      ],
      "name": "RoleAdminChanged",
      "type": "event"
    },
    {
      "anonymous": false,
      "inputs": [
        {
          "indexed": true,
          "internalType": "bytes32",
          "name": "role",
          "type": "bytes32"
        },
        {
          "indexed": true,
          "internalType": "address",
          "name": "account",
          "type": "address"
        },
        {
          "indexed": true,
          "internalType": "address",
          "name": "sender",
          "type": "address"
        }
      ],
      "name": "RoleGranted",
      "type": "event"
    },
    {
      "anonymous": false,
      "inputs": [
        {
          "indexed": true,
          "internalType": "bytes32",
          "name": "role",
          "type": "bytes32"
        },
        {
          "indexed": true,
          "internalType": "address",
          "name": "account",
          "type": "address"
        },
        {
          "indexed": true,
          "internalType": "address",
          "name": "sender",
          "type": "address"
        }
      ],
      "name": "RoleRevoked",
      "type": "event"
    },
    {
      "inputs": [],
      "name": "ADMIN_ROLE",
      "outputs": [
        {
          "internalType": "bytes32",
          "name": "",
          "type": "bytes32"
        }
      ],
      "stateMutability": "view",
      "type": "function"
    },
    {
      "inputs": [],
      "name": "DEFAULT_ADMIN_ROLE",
      "outputs": [
        {
          "internalType": "bytes32",
          "name": "",
          "type": "bytes32"
        }
      ],
      "stateMutability": "view",
      "type": "function"
    },
    {
      "inputs": [],
      "name": "PayMaster",
      "outputs": [
        {
          "internalType": "address",
          "name": "",
          "type": "address"
        }
      ],
      "stateMutability": "view",
      "type": "function"
    },
    {
      "inputs": [],
      "name": "TRANSFER_ROLE",
      "outputs": [
        {
          "internalType": "bytes32",
          "name": "",
          "type": "bytes32"
        }
      ],
      "stateMutability": "view",
      "type": "function"
    },
    {
      "inputs": [
        {
          "internalType": "address",
          "name": "account",
          "type": "address"
        },
        {
          "internalType": "uint256",
          "name": "tokenId",
          "type": "uint256"
        }
      ],
      "name": "canRead",
      "outputs": [
        {
          "internalType": "bool",
          "name": "",
          "type": "bool"
        }
      ],
      "stateMutability": "view",
      "type": "function"
    },
    {
      "inputs": [
        {
          "internalType": "address",
          "name": "account",
          "type": "address"
        },
        {
          "internalType": "uint256",
          "name": "tokenId",
          "type": "uint256"
        }
      ],
      "name": "canWrite",
      "outputs": [
        {
          "internalType": "bool",
          "name": "",
          "type": "bool"
        }
      ],
      "stateMutability": "view",
      "type": "function"
    },
    {
      "inputs": [
        {
          "internalType": "address",
          "name": "",
          "type": "address"
        }
      ],
      "name": "defaultPermissions",
      "outputs": [
        {
          "internalType": "enum Organization.Permission",
          "name": "",
          "type": "uint8"
        }
      ],
      "stateMutability": "view",
      "type": "function"
    },
    {
      "inputs": [
        {
          "internalType": "address",
          "name": "account",
          "type": "address"
        },
        {
          "internalType": "uint256",
          "name": "tokenId",
          "type": "uint256"
        }
      ],
      "name": "getEffectivePermission",
      "outputs": [
        {
          "internalType": "enum Organization.Permission",
          "name": "",
          "type": "uint8"
        }
      ],
      "stateMutability": "view",
      "type": "function"
    },
    {
      "inputs": [
        {
          "internalType": "bytes32",
          "name": "role",
          "type": "bytes32"
        }
      ],
      "name": "getRoleAdmin",
      "outputs": [
        {
          "internalType": "bytes32",
          "name": "",
          "type": "bytes32"
        }
      ],
      "stateMutability": "view",
      "type": "function"
    },
    {
      "inputs": [
        {
          "internalType": "bytes32",
          "name": "role",
          "type": "bytes32"
        },
        {
          "internalType": "address",
          "name": "account",
          "type": "address"
        }
      ],
      "name": "grantRole",
      "outputs": [],
      "stateMutability": "nonpayable",
      "type": "function"
    },
    {
      "inputs": [
        {
          "components": [
            {
              "internalType": "bytes",
              "name": "encodedMessage",
              "type": "bytes"
            },
            {
              "internalType": "bytes32",
              "name": "messageHash",
              "type": "bytes32"
            },
            {
              "internalType": "bytes",
              "name": "signature",
              "type": "bytes"
            },
            {
              "internalType": "address",
              "name": "signer",
              "type": "address"
            }
          ],
          "internalType": "struct SignatureVerifier.Signature",
          "name": "signature",
          "type": "tuple"
        },
        {
          "internalType": "bytes32",
          "name": "role",
          "type": "bytes32"
        },
        {
          "internalType": "address",
          "name": "account",
          "type": "address"
        }
      ],
      "name": "grantRolebySignature",
      "outputs": [],
      "stateMutability": "nonpayable",
      "type": "function"
    },
    {
      "inputs": [
        {
          "internalType": "bytes32",
          "name": "role",
          "type": "bytes32"
        },
        {
          "internalType": "address",
          "name": "account",
          "type": "address"
        }
      ],
      "name": "hasRole",
      "outputs": [
        {
          "internalType": "bool",
          "name": "",
          "type": "bool"
        }
      ],
      "stateMutability": "view",
      "type": "function"
    },
    {
      "inputs": [
        {
          "internalType": "address",
          "name": "account",
          "type": "address"
        },
        {
          "internalType": "uint256",
          "name": "tokenId",
          "type": "uint256"
        }
      ],
      "name": "isAdmin",
      "outputs": [
        {
          "internalType": "bool",
          "name": "",
          "type": "bool"
        }
      ],
      "stateMutability": "view",
      "type": "function"
    },
    {
      "inputs": [
        {
          "internalType": "address",
          "name": "",
          "type": "address"
        },
        {
          "internalType": "uint256",
          "name": "",
          "type": "uint256"
        }
      ],
      "name": "permissions",
      "outputs": [
        {
          "internalType": "enum Organization.Permission",
          "name": "",
          "type": "uint8"
        }
      ],
      "stateMutability": "view",
      "type": "function"
    },
    {
      "inputs": [
        {
          "internalType": "bytes32",
          "name": "role",
          "type": "bytes32"
        },
        {
          "internalType": "address",
          "name": "account",
          "type": "address"
        }
      ],
      "name": "renounceRole",
      "outputs": [],
      "stateMutability": "nonpayable",
      "type": "function"
    },
    {
      "inputs": [
        {
          "internalType": "bytes32",
          "name": "role",
          "type": "bytes32"
        },
        {
          "internalType": "address",
          "name": "account",
          "type": "address"
        }
      ],
      "name": "revokeRole",
      "outputs": [],
      "stateMutability": "nonpayable",
      "type": "function"
    },
    {
      "inputs": [
        {
          "components": [
            {
              "internalType": "bytes",
              "name": "encodedMessage",
              "type": "bytes"
            },
            {
              "internalType": "bytes32",
              "name": "messageHash",
              "type": "bytes32"
            },
            {
              "internalType": "bytes",
              "name": "signature",
              "type": "bytes"
            },
            {
              "internalType": "address",
              "name": "signer",
              "type": "address"
            }
          ],
          "internalType": "struct SignatureVerifier.Signature",
          "name": "signature",
          "type": "tuple"
        },
        {
          "internalType": "bytes32",
          "name": "role",
          "type": "bytes32"
        },
        {
          "internalType": "address",
          "name": "account",
          "type": "address"
        }
      ],
      "name": "revokeRolebySignature",
      "outputs": [],
      "stateMutability": "nonpayable",
      "type": "function"
    },
    {
      "inputs": [
        {
          "components": [
            {
              "internalType": "bytes",
              "name": "encodedMessage",
              "type": "bytes"
            },
            {
              "internalType": "bytes32",
              "name": "messageHash",
              "type": "bytes32"
            },
            {
              "internalType": "bytes",
              "name": "signature",
              "type": "bytes"
            },
            {
              "internalType": "address",
              "name": "signer",
              "type": "address"
            }
          ],
          "internalType": "struct SignatureVerifier.Signature",
          "name": "signature",
          "type": "tuple"
        },
        {
          "internalType": "address",
          "name": "account",
          "type": "address"
        },
        {
          "internalType": "enum Organization.Permission",
          "name": "perm",
          "type": "uint8"
        }
      ],
      "name": "setDefaultPermission",
      "outputs": [],
      "stateMutability": "nonpayable",
      "type": "function"
    },
    {
      "inputs": [
        {
          "components": [
            {
              "internalType": "bytes",
              "name": "encodedMessage",
              "type": "bytes"
            },
            {
              "internalType": "bytes32",
              "name": "messageHash",
              "type": "bytes32"
            },
            {
              "internalType": "bytes",
              "name": "signature",
              "type": "bytes"
            },
            {
              "internalType": "address",
              "name": "signer",
              "type": "address"
            }
          ],
          "internalType": "struct SignatureVerifier.Signature",
          "name": "signature",
          "type": "tuple"
        },
        {
          "internalType": "address",
          "name": "_paymaster",
          "type": "address"
        }
      ],
      "name": "setPayMaster",
      "outputs": [],
      "stateMutability": "nonpayable",
      "type": "function"
    },
    {
      "inputs": [
        {
          "components": [
            {
              "internalType": "bytes",
              "name": "encodedMessage",
              "type": "bytes"
            },
            {
              "internalType": "bytes32",
              "name": "messageHash",
              "type": "bytes32"
            },
            {
              "internalType": "bytes",
              "name": "signature",
              "type": "bytes"
            },
            {
              "internalType": "address",
              "name": "signer",
              "type": "address"
            }
          ],
          "internalType": "struct SignatureVerifier.Signature",
          "name": "signature",
          "type": "tuple"
        },
        {
          "internalType": "address",
          "name": "account",
          "type": "address"
        },
        {
          "internalType": "uint256",
          "name": "tokenId",
          "type": "uint256"
        },
        {
          "internalType": "enum Organization.Permission",
          "name": "perm",
          "type": "uint8"
        }
      ],
      "name": "setPermission",
      "outputs": [],
      "stateMutability": "nonpayable",
      "type": "function"
    },
    {
      "inputs": [
        {
          "internalType": "bytes4",
          "name": "interfaceId",
          "type": "bytes4"
        }
      ],
      "name": "supportsInterface",
      "outputs": [
        {
          "internalType": "bool",
          "name": "",
          "type": "bool"
        }
      ],
      "stateMutability": "view",
      "type": "function"
    },
    {
      "inputs": [
        {
          "components": [
            {
              "internalType": "bytes",
              "name": "encodedMessage",
              "type": "bytes"
            },
            {
              "internalType": "bytes32",
              "name": "messageHash",
              "type": "bytes32"
            },
            {
              "internalType": "bytes",
              "name": "signature",
              "type": "bytes"
            },
            {
              "internalType": "address",
              "name": "signer",
              "type": "address"
            }
          ],
          "internalType": "struct SignatureVerifier.Signature",
          "name": "signature",
          "type": "tuple"
        },
        {
          "internalType": "contract IERC1155",
          "name": "nft",
          "type": "address"
        },
        {
          "internalType": "address",
          "name": "from",
          "type": "address"
        },
        {
          "internalType": "address",
          "name": "to",
          "type": "address"
        },
        {
          "internalType": "uint256",
          "name": "tokenId",
          "type": "uint256"
        },
        {
          "internalType": "uint256",
          "name": "amount",
          "type": "uint256"
        }
      ],
      "name": "transferEtch",
      "outputs": [],
      "stateMutability": "nonpayable",
      "type": "function"
    }
  ],
  "bytecode": "0x60806040523480156200001157600080fd5b5060405162002435380380620024358339810160408190526200003491620001fe565b600180546001600160a01b0319166001600160a01b0384161790556200005c600082620000e6565b620000776000805160206200241583398151915282620000e6565b620000a37f8502233096d909befbda0999bb8ea2f3a6be3c138b9fbf003752a4c8bce86f6c82620000e6565b620000de7f8502233096d909befbda0999bb8ea2f3a6be3c138b9fbf003752a4c8bce86f6c60008051602062002415833981519152620000f6565b505062000236565b620000f2828262000141565b5050565b600082815260208190526040808220600101805490849055905190918391839186917fbd79b86ffe0ab8e8776151514217cd7cacd52c909f66475c3af44e129f0b00ff9190a4505050565b6000828152602081815260408083206001600160a01b038516845290915290205460ff16620000f2576000828152602081815260408083206001600160a01b03851684529091529020805460ff191660011790556200019d3390565b6001600160a01b0316816001600160a01b0316837f2f8788117e7eff1d82e926ec794901d17c78024a50270940304540a733656f0d60405160405180910390a45050565b80516001600160a01b0381168114620001f957600080fd5b919050565b600080604083850312156200021257600080fd5b6200021d83620001e1565b91506200022d60208401620001e1565b90509250929050565b6121cf80620002466000396000f3fe608060405234801561001057600080fd5b50600436106101825760003560e01c8063a0f07c0e116100d8578063e2556b5a1161008c578063f4d8e6ec11610066578063f4d8e6ec146103b6578063ff2ff6c9146103c9578063ffad9950146103dc57600080fd5b8063e2556b5a14610362578063e62092be14610375578063e9d79b0e1461038857600080fd5b8063c0eb89b2116100bd578063c0eb89b214610329578063c1ddc1241461033c578063d547741f1461034f57600080fd5b8063a0f07c0e146102f6578063a217fddf1461032157600080fd5b806336568abe1161013a5780638f28f50e116101145780638f28f50e1461027c57806390000c79146102ac57806391d14854146102bf57600080fd5b806336568abe1461022f57806375b238fc1461024257806376db0fe51461026957600080fd5b8063206b60f91161016b578063206b60f9146101c4578063248a9ca3146101f95780632f2ff15d1461021c57600080fd5b806301ffc9a7146101875780630a8a99b4146101af575b600080fd5b61019a610195366004611b83565b6103ef565b60405190151581526020015b60405180910390f35b6101c26101bd366004611d25565b610488565b005b6101eb7f8502233096d909befbda0999bb8ea2f3a6be3c138b9fbf003752a4c8bce86f6c81565b6040519081526020016101a6565b6101eb610207366004611d80565b60009081526020819052604090206001015490565b6101c261022a366004611d99565b6106b5565b6101c261023d366004611d99565b6106df565b6101eb7fa49807205ce4d355092ef5a8a18f56e8913cf4a201fbe287825b095693c2177581565b6101c2610277366004611ddd565b61076b565b61029f61028a366004611e47565b60036020526000908152604090205460ff1681565b6040516101a69190611e7a565b6101c26102ba366004611ea2565b6109ee565b61019a6102cd366004611d99565b6000918252602082815260408084206001600160a01b0393909316845291905290205460ff1690565b600154610309906001600160a01b031681565b6040516001600160a01b0390911681526020016101a6565b6101eb600081565b61029f610337366004611f02565b610c4b565b6101c261034a366004611f2e565b610cb2565b6101c261035d366004611d99565b610f8a565b6101c2610370366004611d25565b610faf565b61019a610383366004611f02565b6111cd565b61029f610396366004611f02565b600260209081526000928352604080842090915290825290205460ff1681565b6101c26103c4366004611fb5565b6111f5565b61019a6103d7366004611f02565b611471565b61019a6103ea366004611f02565b61147a565b60007fffffffff0000000000000000000000000000000000000000000000000000000082167f7965db0b00000000000000000000000000000000000000000000000000000000148061048257507f01ffc9a7000000000000000000000000000000000000000000000000000000007fffffffff000000000000000000000000000000000000000000000000000000008316145b92915050565b6020830151835160009185916104a390805160209091012090565b1461050a5760405162461bcd60e51b815260206004820152602c60248201527f546865206d657373616765206861736820646f65736e2774206d61746368207460448201526b6865206f726967696e616c2160a01b60648201526084015b60405180910390fd5b602080820151604080517f19457468657265756d205369676e6564204d6573736167653a0a33320000000081850152603c8082019390935281518082039093018352605c019052805191012060006105668284604001516114a2565b905082606001516001600160a01b0316816001600160a01b0316146105be5760405162461bcd60e51b815260206004820152600e60248201526d24b73b30b634b21039b4b3b732b960911b6044820152606401610501565b336001600160a01b03821614806105df57506001546001600160a01b031633145b61061c5760405162461bcd60e51b815260206004820152600e60248201526d24b73b30b634b21039b2b73232b960911b6044820152606401610501565b6000848152602081815260408083206001600160a01b038516845290915290205460ff1661067b5760405162461bcd60e51b815260206004820152600c60248201526b155b985d5d1a1bdc9a5e995960a21b6044820152606401610501565b600083600001518060200190518101906106959190611ffc565b90506106a0816114c6565b506106ab878761157e565b5050505050505050565b6000828152602081905260409020600101546106d08161161c565b6106da838361157e565b505050565b6001600160a01b038116331461075d5760405162461bcd60e51b815260206004820152602f60248201527f416363657373436f6e74726f6c3a2063616e206f6e6c792072656e6f756e636560448201527f20726f6c657320666f722073656c6600000000000000000000000000000000006064820152608401610501565b6107678282611629565b5050565b7fa49807205ce4d355092ef5a8a18f56e8913cf4a201fbe287825b095693c217758480602001516107a58260000151805160209091012090565b146108075760405162461bcd60e51b815260206004820152602c60248201527f546865206d657373616765206861736820646f65736e2774206d61746368207460448201526b6865206f726967696e616c2160a01b6064820152608401610501565b602080820151604080517f19457468657265756d205369676e6564204d6573736167653a0a33320000000081850152603c8082019390935281518082039093018352605c019052805191012060006108638284604001516114a2565b905082606001516001600160a01b0316816001600160a01b0316146108bb5760405162461bcd60e51b815260206004820152600e60248201526d24b73b30b634b21039b4b3b732b960911b6044820152606401610501565b336001600160a01b03821614806108dc57506001546001600160a01b031633145b6109195760405162461bcd60e51b815260206004820152600e60248201526d24b73b30b634b21039b2b73232b960911b6044820152606401610501565b6000848152602081815260408083206001600160a01b038516845290915290205460ff166109785760405162461bcd60e51b815260206004820152600c60248201526b155b985d5d1a1bdc9a5e995960a21b6044820152606401610501565b600083600001518060200190518101906109929190611ffc565b905061099d816114c6565b506001600160a01b03881660009081526002602090815260408083208a84529091529020805487919060ff191660018360038111156109de576109de611e64565b0217905550505050505050505050565b602083015183516000918591610a0990805160209091012090565b14610a6b5760405162461bcd60e51b815260206004820152602c60248201527f546865206d657373616765206861736820646f65736e2774206d61746368207460448201526b6865206f726967696e616c2160a01b6064820152608401610501565b602080820151604080517f19457468657265756d205369676e6564204d6573736167653a0a33320000000081850152603c8082019390935281518082039093018352605c01905280519101206000610ac78284604001516114a2565b905082606001516001600160a01b0316816001600160a01b031614610b1f5760405162461bcd60e51b815260206004820152600e60248201526d24b73b30b634b21039b4b3b732b960911b6044820152606401610501565b336001600160a01b0382161480610b4057506001546001600160a01b031633145b610b7d5760405162461bcd60e51b815260206004820152600e60248201526d24b73b30b634b21039b2b73232b960911b6044820152606401610501565b6000848152602081815260408083206001600160a01b038516845290915290205460ff16610bdc5760405162461bcd60e51b815260206004820152600c60248201526b155b985d5d1a1bdc9a5e995960a21b6044820152606401610501565b60008360000151806020019051810190610bf69190611ffc565b9050610c01816114c6565b506001600160a01b03871660009081526003602081905260409091208054889260ff19909116906001908490811115610c3c57610c3c611e64565b02179055505050505050505050565b6001600160a01b038216600090815260026020908152604080832084845290915281205460ff1681816003811115610c8557610c85611e64565b14610c91579050610482565b5050506001600160a01b031660009081526003602052604090205460ff1690565b7f8502233096d909befbda0999bb8ea2f3a6be3c138b9fbf003752a4c8bce86f6c868060200151610cec8260000151805160209091012090565b14610d4e5760405162461bcd60e51b815260206004820152602c60248201527f546865206d657373616765206861736820646f65736e2774206d61746368207460448201526b6865206f726967696e616c2160a01b6064820152608401610501565b602080820151604080517f19457468657265756d205369676e6564204d6573736167653a0a33320000000081850152603c8082019390935281518082039093018352605c01905280519101206000610daa8284604001516114a2565b905082606001516001600160a01b0316816001600160a01b031614610e025760405162461bcd60e51b815260206004820152600e60248201526d24b73b30b634b21039b4b3b732b960911b6044820152606401610501565b336001600160a01b0382161480610e2357506001546001600160a01b031633145b610e605760405162461bcd60e51b815260206004820152600e60248201526d24b73b30b634b21039b2b73232b960911b6044820152606401610501565b6000848152602081815260408083206001600160a01b038516845290915290205460ff16610ebf5760405162461bcd60e51b815260206004820152600c60248201526b155b985d5d1a1bdc9a5e995960a21b6044820152606401610501565b60008360000151806020019051810190610ed99190611ffc565b9050610ee4816114c6565b506040517ff242432a0000000000000000000000000000000000000000000000000000000081526001600160a01b038a811660048301528981166024830152604482018990526064820188905260a06084830152600060a48301528b169063f242432a9060c401600060405180830381600087803b158015610f6557600080fd5b505af1158015610f79573d6000803e3d6000fd5b505050505050505050505050505050565b600082815260208190526040902060010154610fa58161161c565b6106da8383611629565b602083015183516000918591610fca90805160209091012090565b1461102c5760405162461bcd60e51b815260206004820152602c60248201527f546865206d657373616765206861736820646f65736e2774206d61746368207460448201526b6865206f726967696e616c2160a01b6064820152608401610501565b602080820151604080517f19457468657265756d205369676e6564204d6573736167653a0a33320000000081850152603c8082019390935281518082039093018352605c019052805191012060006110888284604001516114a2565b905082606001516001600160a01b0316816001600160a01b0316146110e05760405162461bcd60e51b815260206004820152600e60248201526d24b73b30b634b21039b4b3b732b960911b6044820152606401610501565b336001600160a01b038216148061110157506001546001600160a01b031633145b61113e5760405162461bcd60e51b815260206004820152600e60248201526d24b73b30b634b21039b2b73232b960911b6044820152606401610501565b6000848152602081815260408083206001600160a01b038516845290915290205460ff1661119d5760405162461bcd60e51b815260206004820152600c60248201526b155b985d5d1a1bdc9a5e995960a21b6044820152606401610501565b600083600001518060200190518101906111b79190611ffc565b90506111c2816114c6565b506106ab8787611629565b600060035b6111dc8484610c4b565b60038111156111ed576111ed611e64565b149392505050565b60208201518251600091849161121090805160209091012090565b146112725760405162461bcd60e51b815260206004820152602c60248201527f546865206d657373616765206861736820646f65736e2774206d61746368207460448201526b6865206f726967696e616c2160a01b6064820152608401610501565b602080820151604080517f19457468657265756d205369676e6564204d6573736167653a0a33320000000081850152603c8082019390935281518082039093018352605c019052805191012060006112ce8284604001516114a2565b905082606001516001600160a01b0316816001600160a01b0316146113265760405162461bcd60e51b815260206004820152600e60248201526d24b73b30b634b21039b4b3b732b960911b6044820152606401610501565b336001600160a01b038216148061134757506001546001600160a01b031633145b6113845760405162461bcd60e51b815260206004820152600e60248201526d24b73b30b634b21039b2b73232b960911b6044820152606401610501565b6000848152602081815260408083206001600160a01b038516845290915290205460ff166113e35760405162461bcd60e51b815260206004820152600c60248201526b155b985d5d1a1bdc9a5e995960a21b6044820152606401610501565b600083600001518060200190518101906113fd9190611ffc565b9050611408816114c6565b50600087600001518060200190518101906114239190611ffc565b905061142e816114c6565b5050600180547fffffffffffffffffffffffff0000000000000000000000000000000000000000166001600160a01b039790971696909617909555505050505050565b600060026111d2565b600060016114888484610c4b565b600381111561149957611499611e64565b10159392505050565b60008060006114b185856116a8565b915091506114be816116ed565b509392505050565b80516000906001600160a01b031630146115225760405162461bcd60e51b815260206004820152601c60248201527f546172676574206164647265737320646f65736e2774206d61746368000000006044820152606401610501565b43826020015110156115765760405162461bcd60e51b815260206004820152601260248201527f4d657373616765206973206578706972656400000000000000000000000000006044820152606401610501565b506001919050565b6000828152602081815260408083206001600160a01b038516845290915290205460ff16610767576000828152602081815260408083206001600160a01b03851684529091529020805460ff191660011790556115d83390565b6001600160a01b0316816001600160a01b0316837f2f8788117e7eff1d82e926ec794901d17c78024a50270940304540a733656f0d60405160405180910390a45050565b6116268133611852565b50565b6000828152602081815260408083206001600160a01b038516845290915290205460ff1615610767576000828152602081815260408083206001600160a01b0385168085529252808320805460ff1916905551339285917ff6391f5c32d9c69d2a47ea670b442974b53935d1edc7fd64eb21e047a839171b9190a45050565b60008082516041036116de5760208301516040840151606085015160001a6116d2878285856118c5565b945094505050506116e6565b506000905060025b9250929050565b600081600481111561170157611701611e64565b036117095750565b600181600481111561171d5761171d611e64565b0361176a5760405162461bcd60e51b815260206004820152601860248201527f45434453413a20696e76616c6964207369676e617475726500000000000000006044820152606401610501565b600281600481111561177e5761177e611e64565b036117cb5760405162461bcd60e51b815260206004820152601f60248201527f45434453413a20696e76616c6964207369676e6174757265206c656e677468006044820152606401610501565b60038160048111156117df576117df611e64565b036116265760405162461bcd60e51b815260206004820152602260248201527f45434453413a20696e76616c6964207369676e6174757265202773272076616c60448201527f75650000000000000000000000000000000000000000000000000000000000006064820152608401610501565b6000828152602081815260408083206001600160a01b038516845290915290205460ff166107675761188381611989565b61188e83602061199b565b60405160200161189f929190612078565b60408051601f198184030181529082905262461bcd60e51b8252610501916004016120f9565b6000807f7fffffffffffffffffffffffffffffff5d576e7357a4501ddfe92f46681b20a08311156118fc5750600090506003611980565b6040805160008082526020820180845289905260ff881692820192909252606081018690526080810185905260019060a0016020604051602081039080840390855afa158015611950573d6000803e3d6000fd5b5050604051601f1901519150506001600160a01b03811661197957600060019250925050611980565b9150600090505b94509492505050565b60606104826001600160a01b03831660145b606060006119aa836002612142565b6119b5906002612159565b67ffffffffffffffff8111156119cd576119cd611bc5565b6040519080825280601f01601f1916602001820160405280156119f7576020820181803683370190505b5090507f300000000000000000000000000000000000000000000000000000000000000081600081518110611a2e57611a2e61216c565b60200101906001600160f81b031916908160001a9053507f780000000000000000000000000000000000000000000000000000000000000081600181518110611a7957611a7961216c565b60200101906001600160f81b031916908160001a9053506000611a9d846002612142565b611aa8906001612159565b90505b6001811115611b2d577f303132333435363738396162636465660000000000000000000000000000000085600f1660108110611ae957611ae961216c565b1a60f81b828281518110611aff57611aff61216c565b60200101906001600160f81b031916908160001a90535060049490941c93611b2681612182565b9050611aab565b508315611b7c5760405162461bcd60e51b815260206004820181905260248201527f537472696e67733a20686578206c656e67746820696e73756666696369656e746044820152606401610501565b9392505050565b600060208284031215611b9557600080fd5b81357fffffffff0000000000000000000000000000000000000000000000000000000081168114611b7c57600080fd5b634e487b7160e01b600052604160045260246000fd5b600082601f830112611bec57600080fd5b813567ffffffffffffffff80821115611c0757611c07611bc5565b604051601f8301601f19908116603f01168101908282118183101715611c2f57611c2f611bc5565b81604052838152866020858801011115611c4857600080fd5b836020870160208301376000602085830101528094505050505092915050565b6001600160a01b038116811461162657600080fd5b600060808284031215611c8f57600080fd5b6040516080810167ffffffffffffffff8282108183111715611cb357611cb3611bc5565b816040528293508435915080821115611ccb57600080fd5b611cd786838701611bdb565b8352602085013560208401526040850135915080821115611cf757600080fd5b50611d0485828601611bdb565b6040830152506060830135611d1881611c68565b6060919091015292915050565b600080600060608486031215611d3a57600080fd5b833567ffffffffffffffff811115611d5157600080fd5b611d5d86828701611c7d565b935050602084013591506040840135611d7581611c68565b809150509250925092565b600060208284031215611d9257600080fd5b5035919050565b60008060408385031215611dac57600080fd5b823591506020830135611dbe81611c68565b809150509250929050565b803560048110611dd857600080fd5b919050565b60008060008060808587031215611df357600080fd5b843567ffffffffffffffff811115611e0a57600080fd5b611e1687828801611c7d565b9450506020850135611e2781611c68565b925060408501359150611e3c60608601611dc9565b905092959194509250565b600060208284031215611e5957600080fd5b8135611b7c81611c68565b634e487b7160e01b600052602160045260246000fd5b6020810160048310611e9c57634e487b7160e01b600052602160045260246000fd5b91905290565b600080600060608486031215611eb757600080fd5b833567ffffffffffffffff811115611ece57600080fd5b611eda86828701611c7d565b9350506020840135611eeb81611c68565b9150611ef960408501611dc9565b90509250925092565b60008060408385031215611f1557600080fd5b8235611f2081611c68565b946020939093013593505050565b60008060008060008060c08789031215611f4757600080fd5b863567ffffffffffffffff811115611f5e57600080fd5b611f6a89828a01611c7d565b9650506020870135611f7b81611c68565b94506040870135611f8b81611c68565b93506060870135611f9b81611c68565b9598949750929560808101359460a0909101359350915050565b60008060408385031215611fc857600080fd5b823567ffffffffffffffff811115611fdf57600080fd5b611feb85828601611c7d565b9250506020830135611dbe81611c68565b60006040828403121561200e57600080fd5b6040516040810181811067ffffffffffffffff8211171561203157612031611bc5565b604052825161203f81611c68565b81526020928301519281019290925250919050565b60005b8381101561206f578181015183820152602001612057565b50506000910152565b7f416363657373436f6e74726f6c3a206163636f756e74200000000000000000008152600083516120b0816017850160208801612054565b7f206973206d697373696e6720726f6c652000000000000000000000000000000060179184019182015283516120ed816028840160208801612054565b01602801949350505050565b6020815260008251806020840152612118816040850160208701612054565b601f01601f19169190910160400192915050565b634e487b7160e01b600052601160045260246000fd5b80820281158282048414176104825761048261212c565b808201808211156104825761048261212c565b634e487b7160e01b600052603260045260246000fd5b6000816121915761219161212c565b50600019019056fea2646970667358221220bc377ec4f92509545ab9f370912c0fa825724011cbeb859822a9e1bcfe56e59964736f6c63430008130033a49807205ce4d355092ef5a8a18f56e8913cf4a201fbe287825b095693c21775",
  "linkReferences": {},
  "deployedLinkReferences": {}
}