{"contracts/Organization.sol":{"Organization":{"abi":[{"inputs":[{"internalType":"address","name":"_admin","type":"address"}],"stateMutability":"nonpayable","type":"constructor"},{"anonymous":false,"inputs":[{"indexed":true,"internalType":"bytes32","name":"role","type":"bytes32"},{"indexed":true,"internalType":"bytes32","name":"previousAdminRole","type":"bytes32"},{"indexed":true,"internalType":"bytes32","name":"newAdminRole","type":"bytes32"}],"name":"RoleAdminChanged","type":"event"},{"anonymous":false,"inputs":[{"indexed":true,"internalType":"bytes32","name":"role","type":"bytes32"},{"indexed":true,"internalType":"address","name":"account","type":"address"},{"indexed":true,"internalType":"address","name":"sender","type":"address"}],"name":"RoleGranted","type":"event"},{"anonymous":false,"inputs":[{"indexed":true,"internalType":"bytes32","name":"role","type":"bytes32"},{"indexed":true,"internalType":"address","name":"account","type":"address"},{"indexed":true,"internalType":"address","name":"sender","type":"address"}],"name":"RoleRevoked","type":"event"},{"inputs":[],"name":"ADMIN_ROLE","outputs":[{"internalType":"bytes32","name":"","type":"bytes32"}],"stateMutability":"view","type":"function"},{"inputs":[],"name":"DEFAULT_ADMIN_ROLE","outputs":[{"internalType":"bytes32","name":"","type":"bytes32"}],"stateMutability":"view","type":"function"},{"inputs":[],"name":"TRANSFER_ROLE","outputs":[{"internalType":"bytes32","name":"","type":"bytes32"}],"stateMutability":"view","type":"function"},{"inputs":[{"internalType":"address","name":"account","type":"address"},{"internalType":"uint256","name":"tokenId","type":"uint256"}],"name":"canRead","outputs":[{"internalType":"bool","name":"","type":"bool"}],"stateMutability":"view","type":"function"},{"inputs":[{"internalType":"address","name":"account","type":"address"},{"internalType":"uint256","name":"tokenId","type":"uint256"}],"name":"canWrite","outputs":[{"internalType":"bool","name":"","type":"bool"}],"stateMutability":"view","type":"function"},{"inputs":[{"internalType":"address","name":"","type":"address"}],"name":"defaultPermissions","outputs":[{"internalType":"enum Organization.Permission","name":"","type":"uint8"}],"stateMutability":"view","type":"function"},{"inputs":[{"internalType":"address","name":"account","type":"address"},{"internalType":"uint256","name":"tokenId","type":"uint256"}],"name":"getEffectivePermission","outputs":[{"internalType":"enum Organization.Permission","name":"","type":"uint8"}],"stateMutability":"view","type":"function"},{"inputs":[{"internalType":"bytes32","name":"role","type":"bytes32"}],"name":"getRoleAdmin","outputs":[{"internalType":"bytes32","name":"","type":"bytes32"}],"stateMutability":"view","type":"function"},{"inputs":[{"internalType":"bytes32","name":"role","type":"bytes32"},{"internalType":"address","name":"account","type":"address"}],"name":"grantRole","outputs":[],"stateMutability":"nonpayable","type":"function"},{"inputs":[{"internalType":"bytes32","name":"role","type":"bytes32"},{"internalType":"address","name":"account","type":"address"},{"internalType":"bytes","name":"signature","type":"bytes"},{"internalType":"uint256","name":"blockNumber","type":"uint256"}],"name":"grantRole","outputs":[],"stateMutability":"nonpayable","type":"function"},{"inputs":[{"internalType":"bytes32","name":"role","type":"bytes32"},{"internalType":"address","name":"account","type":"address"}],"name":"hasRole","outputs":[{"internalType":"bool","name":"","type":"bool"}],"stateMutability":"view","type":"function"},{"inputs":[{"internalType":"address","name":"account","type":"address"},{"internalType":"uint256","name":"tokenId","type":"uint256"}],"name":"isAdmin","outputs":[{"internalType":"bool","name":"","type":"bool"}],"stateMutability":"view","type":"function"},{"inputs":[{"internalType":"address","name":"","type":"address"},{"internalType":"uint256","name":"","type":"uint256"}],"name":"permissions","outputs":[{"internalType":"enum Organization.Permission","name":"","type":"uint8"}],"stateMutability":"view","type":"function"},{"inputs":[{"internalType":"bytes32","name":"role","type":"bytes32"},{"internalType":"address","name":"account","type":"address"}],"name":"renounceRole","outputs":[],"stateMutability":"nonpayable","type":"function"},{"inputs":[{"internalType":"bytes32","name":"role","type":"bytes32"},{"internalType":"address","name":"account","type":"address"}],"name":"revokeRole","outputs":[],"stateMutability":"nonpayable","type":"function"},{"inputs":[{"internalType":"bytes32","name":"role","type":"bytes32"},{"internalType":"address","name":"account","type":"address"},{"internalType":"bytes","name":"signature","type":"bytes"},{"internalType":"uint256","name":"blockNumber","type":"uint256"}],"name":"revokeRole","outputs":[],"stateMutability":"nonpayable","type":"function"},{"inputs":[{"internalType":"address","name":"account","type":"address"},{"internalType":"enum Organization.Permission","name":"perm","type":"uint8"},{"internalType":"bytes","name":"signature","type":"bytes"},{"internalType":"uint256","name":"blockNumber","type":"uint256"}],"name":"setDefaultPermission","outputs":[],"stateMutability":"nonpayable","type":"function"},{"inputs":[{"internalType":"address","name":"account","type":"address"},{"internalType":"uint256","name":"tokenId","type":"uint256"},{"internalType":"enum Organization.Permission","name":"perm","type":"uint8"},{"internalType":"bytes","name":"signature","type":"bytes"},{"internalType":"uint256","name":"blockNumber","type":"uint256"}],"name":"setPermission","outputs":[],"stateMutability":"nonpayable","type":"function"},{"inputs":[{"internalType":"bytes4","name":"interfaceId","type":"bytes4"}],"name":"supportsInterface","outputs":[{"internalType":"bool","name":"","type":"bool"}],"stateMutability":"view","type":"function"},{"inputs":[{"internalType":"contract IERC1155","name":"nft","type":"address"},{"internalType":"address","name":"from","type":"address"},{"internalType":"address","name":"to","type":"address"},{"internalType":"uint256","name":"tokenId","type":"uint256"},{"internalType":"uint256","name":"amount","type":"uint256"},{"internalType":"bytes","name":"signature","type":"bytes"},{"internalType":"uint256","name":"blockNumber","type":"uint256"}],"name":"transferNFT","outputs":[],"stateMutability":"nonpayable","type":"function"}],"evm":{"bytecode":{"linkReferences":{},"object":"60806040523480156200001157600080fd5b50604051620029fd380380620029fd83398181016040528101906200003791906200029a565b6200004c6000801b82620000b760201b60201c565b6200007e7fa49807205ce4d355092ef5a8a18f56e8913cf4a201fbe287825b095693c2177582620000b760201b60201c565b620000b07f8502233096d909befbda0999bb8ea2f3a6be3c138b9fbf003752a4c8bce86f6c82620000b760201b60201c565b50620002cc565b620000c98282620000cd60201b60201c565b5050565b620000df8282620001be60201b60201c565b620001ba57600160008084815260200190815260200160002060000160008373ffffffffffffffffffffffffffffffffffffffff1673ffffffffffffffffffffffffffffffffffffffff16815260200190815260200160002060006101000a81548160ff0219169083151502179055506200015f6200022860201b60201c565b73ffffffffffffffffffffffffffffffffffffffff168173ffffffffffffffffffffffffffffffffffffffff16837f2f8788117e7eff1d82e926ec794901d17c78024a50270940304540a733656f0d60405160405180910390a45b5050565b600080600084815260200190815260200160002060000160008373ffffffffffffffffffffffffffffffffffffffff1673ffffffffffffffffffffffffffffffffffffffff16815260200190815260200160002060009054906101000a900460ff16905092915050565b600033905090565b600080fd5b600073ffffffffffffffffffffffffffffffffffffffff82169050919050565b6000620002628262000235565b9050919050565b620002748162000255565b81146200028057600080fd5b50565b600081519050620002948162000269565b92915050565b600060208284031215620002b357620002b262000230565b5b6000620002c38482850162000283565b91505092915050565b61272180620002dc6000396000f3fe608060405234801561001057600080fd5b506004361061012c5760003560e01c806391d14854116100ad578063e62092be11610071578063e62092be1461033f578063e9d79b0e1461036f578063f555e0201461039f578063ff2ff6c9146103bb578063ffad9950146103eb5761012c565b806391d1485414610289578063a217fddf146102b9578063c0eb89b2146102d7578063d547741f14610307578063e4968695146103235761012c565b8063589b21c0116100f4578063589b21c0146101e757806362567a1a1461020357806375b238fc1461021f578063806c87af1461023d5780638f28f50e146102595761012c565b806301ffc9a714610131578063206b60f914610161578063248a9ca31461017f5780632f2ff15d146101af57806336568abe146101cb575b600080fd5b61014b60048036038101906101469190611667565b61041b565b60405161015891906116af565b60405180910390f35b610169610495565b60405161017691906116e3565b60405180910390f35b6101996004803603810190610194919061172a565b6104b9565b6040516101a691906116e3565b60405180910390f35b6101c960048036038101906101c491906117b5565b6104d8565b005b6101e560048036038101906101e091906117b5565b6104f9565b005b61020160048036038101906101fc9190611971565b61057c565b005b61021d60048036038101906102189190611a19565b610637565b005b610227610780565b60405161023491906116e3565b60405180910390f35b61025760048036038101906102529190611aee565b6107a4565b005b610273600480360381019061026e9190611bac565b6108ec565b6040516102809190611c50565b60405180910390f35b6102a3600480360381019061029e91906117b5565b61090c565b6040516102b091906116af565b60405180910390f35b6102c1610976565b6040516102ce91906116e3565b60405180910390f35b6102f160048036038101906102ec9190611c6b565b61097d565b6040516102fe9190611c50565b60405180910390f35b610321600480360381019061031c91906117b5565b610a6c565b005b61033d60048036038101906103389190611971565b610a8d565b005b61035960048036038101906103549190611c6b565b610b48565b60405161036691906116af565b60405180910390f35b61038960048036038101906103849190611c6b565b610b82565b6040516103969190611c50565b60405180910390f35b6103b960048036038101906103b49190611cab565b610bb1565b005b6103d560048036038101906103d09190611c6b565b610cc9565b6040516103e291906116af565b60405180910390f35b61040560048036038101906104009190611c6b565b610d04565b60405161041291906116af565b60405180910390f35b60007f7965db0b000000000000000000000000000000000000000000000000000000007bffffffffffffffffffffffffffffffffffffffffffffffffffffffff1916827bffffffffffffffffffffffffffffffffffffffffffffffffffffffff1916148061048e575061048d82610d40565b5b9050919050565b7f8502233096d909befbda0999bb8ea2f3a6be3c138b9fbf003752a4c8bce86f6c81565b6000806000838152602001908152602001600020600101549050919050565b6104e1826104b9565b6104ea81610daa565b6104f48383610dbe565b505050565b610501610e9e565b73ffffffffffffffffffffffffffffffffffffffff168173ffffffffffffffffffffffffffffffffffffffff161461056e576040517f08c379a000000000000000000000000000000000000000000000000000000000815260040161056590611db1565b60405180910390fd5b6105788282610ea6565b5050565b60008484604051602001610591929190611de0565b60405160208183030381529060405290506105e76000801b84846040518060400160405280600981526020017f6772616e74526f6c65000000000000000000000000000000000000000000000081525085610f87565b610626576040517f08c379a000000000000000000000000000000000000000000000000000000000815260040161061d90611e7b565b60405180910390fd5b6106308585610dbe565b5050505050565b600085858560405160200161064e93929190611eaa565b60405160208183030381529060405290506106c17fa49807205ce4d355092ef5a8a18f56e8913cf4a201fbe287825b095693c2177584846040518060400160405280600d81526020017f7365745065726d697373696f6e0000000000000000000000000000000000000081525085610f87565b610700576040517f08c379a00000000000000000000000000000000000000000000000000000000081526004016106f790611f2d565b60405180910390fd5b83600160008873ffffffffffffffffffffffffffffffffffffffff1673ffffffffffffffffffffffffffffffffffffffff168152602001908152602001600020600087815260200190815260200160002060006101000a81548160ff0219169083600381111561077357610772611bd9565b5b0217905550505050505050565b7fa49807205ce4d355092ef5a8a18f56e8913cf4a201fbe287825b095693c2177581565b600087878787876040516020016107bf959493929190611fac565b60405160208183030381529060405290506108327f8502233096d909befbda0999bb8ea2f3a6be3c138b9fbf003752a4c8bce86f6c84846040518060400160405280600b81526020017f7472616e736665724e465400000000000000000000000000000000000000000081525085610f87565b610871576040517f08c379a000000000000000000000000000000000000000000000000000000000815260040161086890611f2d565b60405180910390fd5b8773ffffffffffffffffffffffffffffffffffffffff1663f242432a888888886040518563ffffffff1660e01b81526004016108b09493929190612036565b600060405180830381600087803b1580156108ca57600080fd5b505af11580156108de573d6000803e3d6000fd5b505050505050505050505050565b60026020528060005260406000206000915054906101000a900460ff1681565b600080600084815260200190815260200160002060000160008373ffffffffffffffffffffffffffffffffffffffff1673ffffffffffffffffffffffffffffffffffffffff16815260200190815260200160002060009054906101000a900460ff16905092915050565b6000801b81565b600080600160008573ffffffffffffffffffffffffffffffffffffffff1673ffffffffffffffffffffffffffffffffffffffff168152602001908152602001600020600084815260200190815260200160002060009054906101000a900460ff169050600060038111156109f4576109f3611bd9565b5b816003811115610a0757610a06611bd9565b5b14610a155780915050610a66565b600260008573ffffffffffffffffffffffffffffffffffffffff1673ffffffffffffffffffffffffffffffffffffffff16815260200190815260200160002060009054906101000a900460ff169150505b92915050565b610a75826104b9565b610a7e81610daa565b610a888383610ea6565b505050565b60008484604051602001610aa2929190611de0565b6040516020818303038152906040529050610af86000801b84846040518060400160405280600a81526020017f7265766f6b65526f6c650000000000000000000000000000000000000000000081525085610f87565b610b37576040517f08c379a0000000000000000000000000000000000000000000000000000000008152600401610b2e90611e7b565b60405180910390fd5b610b418585610ea6565b5050505050565b6000600380811115610b5d57610b5c611bd9565b5b610b67848461097d565b6003811115610b7957610b78611bd9565b5b14905092915050565b60016020528160005260406000206020528060005260406000206000915091509054906101000a900460ff1681565b60008484604051602001610bc692919061208e565b6040516020818303038152906040529050610c1c6000801b84846040518060400160405280601481526020017f73657444656661756c745065726d697373696f6e00000000000000000000000081525085610f87565b610c5b576040517f08c379a0000000000000000000000000000000000000000000000000000000008152600401610c5290611f2d565b60405180910390fd5b83600260008773ffffffffffffffffffffffffffffffffffffffff1673ffffffffffffffffffffffffffffffffffffffff16815260200190815260200160002060006101000a81548160ff02191690836003811115610cbd57610cbc611bd9565b5b02179055505050505050565b600060026003811115610cdf57610cde611bd9565b5b610ce9848461097d565b6003811115610cfb57610cfa611bd9565b5b14905092915050565b600060016003811115610d1a57610d19611bd9565b5b610d24848461097d565b6003811115610d3657610d35611bd9565b5b1015905092915050565b60007f01ffc9a7000000000000000000000000000000000000000000000000000000007bffffffffffffffffffffffffffffffffffffffffffffffffffffffff1916827bffffffffffffffffffffffffffffffffffffffffffffffffffffffff1916149050919050565b610dbb81610db6610e9e565b610fb2565b50565b610dc8828261090c565b610e9a57600160008084815260200190815260200160002060000160008373ffffffffffffffffffffffffffffffffffffffff1673ffffffffffffffffffffffffffffffffffffffff16815260200190815260200160002060006101000a81548160ff021916908315150217905550610e3f610e9e565b73ffffffffffffffffffffffffffffffffffffffff168173ffffffffffffffffffffffffffffffffffffffff16837f2f8788117e7eff1d82e926ec794901d17c78024a50270940304540a733656f0d60405160405180910390a45b5050565b600033905090565b610eb0828261090c565b15610f8357600080600084815260200190815260200160002060000160008373ffffffffffffffffffffffffffffffffffffffff1673ffffffffffffffffffffffffffffffffffffffff16815260200190815260200160002060006101000a81548160ff021916908315150217905550610f28610e9e565b73ffffffffffffffffffffffffffffffffffffffff168173ffffffffffffffffffffffffffffffffffffffff16837ff6391f5c32d9c69d2a47ea670b442974b53935d1edc7fd64eb21e047a839171b60405160405180910390a45b5050565b6000610f93863361090c565b80610fa75750610fa68686868686611037565b5b905095945050505050565b610fbc828261090c565b61103357610fc9816110d2565b610fd78360001c60206110ff565b604051602001610fe89291906121c0565b6040516020818303038152906040526040517f08c379a000000000000000000000000000000000000000000000000000000000815260040161102a9190612233565b60405180910390fd5b5050565b60008343111561107c576040517f08c379a0000000000000000000000000000000000000000000000000000000008152600401611073906122a1565b60405180910390fd5b6000308585856040516020016110959493929190612371565b60405160208183030381529060405280519060200120905060006110b9828861133b565b90506110c5888261090c565b9250505095945050505050565b60606110f88273ffffffffffffffffffffffffffffffffffffffff16601460ff166110ff565b9050919050565b60606000600283600261111291906123e6565b61111c9190612428565b67ffffffffffffffff81111561113557611134611810565b5b6040519080825280601f01601f1916602001820160405280156111675781602001600182028036833780820191505090505b5090507f30000000000000000000000000000000000000000000000000000000000000008160008151811061119f5761119e61245c565b5b60200101907effffffffffffffffffffffffffffffffffffffffffffffffffffffffffffff1916908160001a9053507f7800000000000000000000000000000000000000000000000000000000000000816001815181106112035761120261245c565b5b60200101907effffffffffffffffffffffffffffffffffffffffffffffffffffffffffffff1916908160001a9053506000600184600261124391906123e6565b61124d9190612428565b90505b60018111156112ed577f3031323334353637383961626364656600000000000000000000000000000000600f86166010811061128f5761128e61245c565b5b1a60f81b8282815181106112a6576112a561245c565b5b60200101907effffffffffffffffffffffffffffffffffffffffffffffffffffffffffffff1916908160001a905350600485901c9450806112e69061248b565b9050611250565b5060008414611331576040517f08c379a000000000000000000000000000000000000000000000000000000000815260040161132890612500565b60405180910390fd5b8091505092915050565b600080600061134a8585611362565b91509150611357816113b3565b819250505092915050565b60008060418351036113a35760008060006020860151925060408601519150606086015160001a905061139787828585611519565b945094505050506113ac565b60006002915091505b9250929050565b600060048111156113c7576113c6611bd9565b5b8160048111156113da576113d9611bd9565b5b031561151657600160048111156113f4576113f3611bd9565b5b81600481111561140757611406611bd9565b5b03611447576040517f08c379a000000000000000000000000000000000000000000000000000000000815260040161143e9061256c565b60405180910390fd5b6002600481111561145b5761145a611bd9565b5b81600481111561146e5761146d611bd9565b5b036114ae576040517f08c379a00000000000000000000000000000000000000000000000000000000081526004016114a5906125d8565b60405180910390fd5b600360048111156114c2576114c1611bd9565b5b8160048111156114d5576114d4611bd9565b5b03611515576040517f08c379a000000000000000000000000000000000000000000000000000000000815260040161150c9061266a565b60405180910390fd5b5b50565b6000807f7fffffffffffffffffffffffffffffff5d576e7357a4501ddfe92f46681b20a08360001c11156115545760006003915091506115f2565b60006001878787876040516000815260200160405260405161157994939291906126a6565b6020604051602081039080840390855afa15801561159b573d6000803e3d6000fd5b505050602060405103519050600073ffffffffffffffffffffffffffffffffffffffff168173ffffffffffffffffffffffffffffffffffffffff16036115e9576000600192509250506115f2565b80600092509250505b94509492505050565b6000604051905090565b600080fd5b600080fd5b60007fffffffff0000000000000000000000000000000000000000000000000000000082169050919050565b6116448161160f565b811461164f57600080fd5b50565b6000813590506116618161163b565b92915050565b60006020828403121561167d5761167c611605565b5b600061168b84828501611652565b91505092915050565b60008115159050919050565b6116a981611694565b82525050565b60006020820190506116c460008301846116a0565b92915050565b6000819050919050565b6116dd816116ca565b82525050565b60006020820190506116f860008301846116d4565b92915050565b611707816116ca565b811461171257600080fd5b50565b600081359050611724816116fe565b92915050565b6000602082840312156117405761173f611605565b5b600061174e84828501611715565b91505092915050565b600073ffffffffffffffffffffffffffffffffffffffff82169050919050565b600061178282611757565b9050919050565b61179281611777565b811461179d57600080fd5b50565b6000813590506117af81611789565b92915050565b600080604083850312156117cc576117cb611605565b5b60006117da85828601611715565b92505060206117eb858286016117a0565b9150509250929050565b600080fd5b600080fd5b6000601f19601f8301169050919050565b7f4e487b7100000000000000000000000000000000000000000000000000000000600052604160045260246000fd5b611848826117ff565b810181811067ffffffffffffffff8211171561186757611866611810565b5b80604052505050565b600061187a6115fb565b9050611886828261183f565b919050565b600067ffffffffffffffff8211156118a6576118a5611810565b5b6118af826117ff565b9050602081019050919050565b82818337600083830152505050565b60006118de6118d98461188b565b611870565b9050828152602081018484840111156118fa576118f96117fa565b5b6119058482856118bc565b509392505050565b600082601f830112611922576119216117f5565b5b81356119328482602086016118cb565b91505092915050565b6000819050919050565b61194e8161193b565b811461195957600080fd5b50565b60008135905061196b81611945565b92915050565b6000806000806080858703121561198b5761198a611605565b5b600061199987828801611715565b94505060206119aa878288016117a0565b935050604085013567ffffffffffffffff8111156119cb576119ca61160a565b5b6119d78782880161190d565b92505060606119e88782880161195c565b91505092959194509250565b60048110611a0157600080fd5b50565b600081359050611a13816119f4565b92915050565b600080600080600060a08688031215611a3557611a34611605565b5b6000611a43888289016117a0565b9550506020611a548882890161195c565b9450506040611a6588828901611a04565b935050606086013567ffffffffffffffff811115611a8657611a8561160a565b5b611a928882890161190d565b9250506080611aa38882890161195c565b9150509295509295909350565b6000611abb82611777565b9050919050565b611acb81611ab0565b8114611ad657600080fd5b50565b600081359050611ae881611ac2565b92915050565b600080600080600080600060e0888a031215611b0d57611b0c611605565b5b6000611b1b8a828b01611ad9565b9750506020611b2c8a828b016117a0565b9650506040611b3d8a828b016117a0565b9550506060611b4e8a828b0161195c565b9450506080611b5f8a828b0161195c565b93505060a088013567ffffffffffffffff811115611b8057611b7f61160a565b5b611b8c8a828b0161190d565b92505060c0611b9d8a828b0161195c565b91505092959891949750929550565b600060208284031215611bc257611bc1611605565b5b6000611bd0848285016117a0565b91505092915050565b7f4e487b7100000000000000000000000000000000000000000000000000000000600052602160045260246000fd5b60048110611c1957611c18611bd9565b5b50565b6000819050611c2a82611c08565b919050565b6000611c3a82611c1c565b9050919050565b611c4a81611c2f565b82525050565b6000602082019050611c656000830184611c41565b92915050565b60008060408385031215611c8257611c81611605565b5b6000611c90858286016117a0565b9250506020611ca18582860161195c565b9150509250929050565b60008060008060808587031215611cc557611cc4611605565b5b6000611cd3878288016117a0565b9450506020611ce487828801611a04565b935050604085013567ffffffffffffffff811115611d0557611d0461160a565b5b611d118782880161190d565b9250506060611d228782880161195c565b91505092959194509250565b600082825260208201905092915050565b7f416363657373436f6e74726f6c3a2063616e206f6e6c792072656e6f756e636560008201527f20726f6c657320666f722073656c660000000000000000000000000000000000602082015250565b6000611d9b602f83611d2e565b9150611da682611d3f565b604082019050919050565b60006020820190508181036000830152611dca81611d8e565b9050919050565b611dda81611777565b82525050565b6000604082019050611df560008301856116d4565b611e026020830184611dd1565b9392505050565b7f416363657373436f6e74726f6c3a2063616c6c6572206973206e6f7420616e2060008201527f61646d696e000000000000000000000000000000000000000000000000000000602082015250565b6000611e65602583611d2e565b9150611e7082611e09565b604082019050919050565b60006020820190508181036000830152611e9481611e58565b9050919050565b611ea48161193b565b82525050565b6000606082019050611ebf6000830186611dd1565b611ecc6020830185611e9b565b611ed96040830184611c41565b949350505050565b7f556e617574686f72697a65640000000000000000000000000000000000000000600082015250565b6000611f17600c83611d2e565b9150611f2282611ee1565b602082019050919050565b60006020820190508181036000830152611f4681611f0a565b9050919050565b6000819050919050565b6000611f72611f6d611f6884611757565b611f4d565b611757565b9050919050565b6000611f8482611f57565b9050919050565b6000611f9682611f79565b9050919050565b611fa681611f8b565b82525050565b600060a082019050611fc16000830188611f9d565b611fce6020830187611dd1565b611fdb6040830186611dd1565b611fe86060830185611e9b565b611ff56080830184611e9b565b9695505050505050565b600082825260208201905092915050565b50565b6000612020600083611fff565b915061202b82612010565b600082019050919050565b600060a08201905061204b6000830187611dd1565b6120586020830186611dd1565b6120656040830185611e9b565b6120726060830184611e9b565b818103608083015261208381612013565b905095945050505050565b60006040820190506120a36000830185611dd1565b6120b06020830184611c41565b9392505050565b600081905092915050565b7f416363657373436f6e74726f6c3a206163636f756e7420000000000000000000600082015250565b60006120f86017836120b7565b9150612103826120c2565b601782019050919050565b600081519050919050565b60005b8381101561213757808201518184015260208101905061211c565b60008484015250505050565b600061214e8261210e565b61215881856120b7565b9350612168818560208601612119565b80840191505092915050565b7f206973206d697373696e6720726f6c6520000000000000000000000000000000600082015250565b60006121aa6011836120b7565b91506121b582612174565b601182019050919050565b60006121cb826120eb565b91506121d78285612143565b91506121e28261219d565b91506121ee8284612143565b91508190509392505050565b60006122058261210e565b61220f8185611d2e565b935061221f818560208601612119565b612228816117ff565b840191505092915050565b6000602082019050818103600083015261224d81846121fa565b905092915050565b7f5369676e61747572652068617320657870697265640000000000000000000000600082015250565b600061228b601583611d2e565b915061229682612255565b602082019050919050565b600060208201905081810360008301526122ba8161227e565b9050919050565b60008160601b9050919050565b60006122d9826122c1565b9050919050565b60006122eb826122ce565b9050919050565b6123036122fe82611777565b6122e0565b82525050565b6000819050919050565b61232461231f8261193b565b612309565b82525050565b600081519050919050565b600081905092915050565b600061234b8261232a565b6123558185612335565b9350612365818560208601612119565b80840191505092915050565b600061237d82876122f2565b60148201915061238d8286612313565b60208201915061239d8285612143565b91506123a98284612340565b915081905095945050505050565b7f4e487b7100000000000000000000000000000000000000000000000000000000600052601160045260246000fd5b60006123f18261193b565b91506123fc8361193b565b925082820261240a8161193b565b91508282048414831517612421576124206123b7565b5b5092915050565b60006124338261193b565b915061243e8361193b565b9250828201905080821115612456576124556123b7565b5b92915050565b7f4e487b7100000000000000000000000000000000000000000000000000000000600052603260045260246000fd5b60006124968261193b565b9150600082036124a9576124a86123b7565b5b600182039050919050565b7f537472696e67733a20686578206c656e67746820696e73756666696369656e74600082015250565b60006124ea602083611d2e565b91506124f5826124b4565b602082019050919050565b60006020820190508181036000830152612519816124dd565b9050919050565b7f45434453413a20696e76616c6964207369676e61747572650000000000000000600082015250565b6000612556601883611d2e565b915061256182612520565b602082019050919050565b6000602082019050818103600083015261258581612549565b9050919050565b7f45434453413a20696e76616c6964207369676e6174757265206c656e67746800600082015250565b60006125c2601f83611d2e565b91506125cd8261258c565b602082019050919050565b600060208201905081810360008301526125f1816125b5565b9050919050565b7f45434453413a20696e76616c6964207369676e6174757265202773272076616c60008201527f7565000000000000000000000000000000000000000000000000000000000000602082015250565b6000612654602283611d2e565b915061265f826125f8565b604082019050919050565b6000602082019050818103600083015261268381612647565b9050919050565b600060ff82169050919050565b6126a08161268a565b82525050565b60006080820190506126bb60008301876116d4565b6126c86020830186612697565b6126d560408301856116d4565b6126e260608301846116d4565b9594505050505056fea26469706673582212202fe73f07ea95e9b0e5bfdddc963d55cf63ac87ce0a36f380579972a2aefeda3e64736f6c63430008110033","opcodes":"PUSH1 0x80 PUSH1 0x40 MSTORE CALLVALUE DUP1 ISZERO PUSH3 0x11 JUMPI PUSH1 0x0 DUP1 REVERT JUMPDEST POP PUSH1 0x40 MLOAD PUSH3 0x29FD CODESIZE SUB DUP1 PUSH3 0x29FD DUP4 CODECOPY DUP2 DUP2 ADD PUSH1 0x40 MSTORE DUP2 ADD SWAP1 PUSH3 0x37 SWAP2 SWAP1 PUSH3 0x29A JUMP JUMPDEST PUSH3 0x4C PUSH1 0x0 DUP1 SHL DUP3 PUSH3 0xB7 PUSH1 0x20 SHL PUSH1 0x20 SHR JUMP JUMPDEST PUSH3 0x7E PUSH32 0xA49807205CE4D355092EF5A8A18F56E8913CF4A201FBE287825B095693C21775 DUP3 PUSH3 0xB7 PUSH1 0x20 SHL PUSH1 0x20 SHR JUMP JUMPDEST PUSH3 0xB0 PUSH32 0x8502233096D909BEFBDA0999BB8EA2F3A6BE3C138B9FBF003752A4C8BCE86F6C DUP3 PUSH3 0xB7 PUSH1 0x20 SHL PUSH1 0x20 SHR JUMP JUMPDEST POP PUSH3 0x2CC JUMP JUMPDEST PUSH3 0xC9 DUP3 DUP3 PUSH3 0xCD PUSH1 0x20 SHL PUSH1 0x20 SHR JUMP JUMPDEST POP POP JUMP JUMPDEST PUSH3 0xDF DUP3 DUP3 PUSH3 0x1BE PUSH1 0x20 SHL PUSH1 0x20 SHR JUMP JUMPDEST PUSH3 0x1BA JUMPI PUSH1 0x1 PUSH1 0x0 DUP1 DUP5 DUP2 MSTORE PUSH1 0x20 ADD SWAP1 DUP2 MSTORE PUSH1 0x20 ADD PUSH1 0x0 KECCAK256 PUSH1 0x0 ADD PUSH1 0x0 DUP4 PUSH20 0xFFFFFFFFFFFFFFFFFFFFFFFFFFFFFFFFFFFFFFFF AND PUSH20 0xFFFFFFFFFFFFFFFFFFFFFFFFFFFFFFFFFFFFFFFF AND DUP2 MSTORE PUSH1 0x20 ADD SWAP1 DUP2 MSTORE PUSH1 0x20 ADD PUSH1 0x0 KECCAK256 PUSH1 0x0 PUSH2 0x100 EXP DUP2 SLOAD DUP2 PUSH1 0xFF MUL NOT AND SWAP1 DUP4 ISZERO ISZERO MUL OR SWAP1 SSTORE POP PUSH3 0x15F PUSH3 0x228 PUSH1 0x20 SHL PUSH1 0x20 SHR JUMP JUMPDEST PUSH20 0xFFFFFFFFFFFFFFFFFFFFFFFFFFFFFFFFFFFFFFFF AND DUP2 PUSH20 0xFFFFFFFFFFFFFFFFFFFFFFFFFFFFFFFFFFFFFFFF AND DUP4 PUSH32 0x2F8788117E7EFF1D82E926EC794901D17C78024A50270940304540A733656F0D PUSH1 0x40 MLOAD PUSH1 0x40 MLOAD DUP1 SWAP2 SUB SWAP1 LOG4 JUMPDEST POP POP JUMP JUMPDEST PUSH1 0x0 DUP1 PUSH1 0x0 DUP5 DUP2 MSTORE PUSH1 0x20 ADD SWAP1 DUP2 MSTORE PUSH1 0x20 ADD PUSH1 0x0 KECCAK256 PUSH1 0x0 ADD PUSH1 0x0 DUP4 PUSH20 0xFFFFFFFFFFFFFFFFFFFFFFFFFFFFFFFFFFFFFFFF AND PUSH20 0xFFFFFFFFFFFFFFFFFFFFFFFFFFFFFFFFFFFFFFFF AND DUP2 MSTORE PUSH1 0x20 ADD SWAP1 DUP2 MSTORE PUSH1 0x20 ADD PUSH1 0x0 KECCAK256 PUSH1 0x0 SWAP1 SLOAD SWAP1 PUSH2 0x100 EXP SWAP1 DIV PUSH1 0xFF AND SWAP1 POP SWAP3 SWAP2 POP POP JUMP JUMPDEST PUSH1 0x0 CALLER SWAP1 POP SWAP1 JUMP JUMPDEST PUSH1 0x0 DUP1 REVERT JUMPDEST PUSH1 0x0 PUSH20 0xFFFFFFFFFFFFFFFFFFFFFFFFFFFFFFFFFFFFFFFF DUP3 AND SWAP1 POP SWAP2 SWAP1 POP JUMP JUMPDEST PUSH1 0x0 PUSH3 0x262 DUP3 PUSH3 0x235 JUMP JUMPDEST SWAP1 POP SWAP2 SWAP1 POP JUMP JUMPDEST PUSH3 0x274 DUP2 PUSH3 0x255 JUMP JUMPDEST DUP2 EQ PUSH3 0x280 JUMPI PUSH1 0x0 DUP1 REVERT JUMPDEST POP JUMP JUMPDEST PUSH1 0x0 DUP2 MLOAD SWAP1 POP PUSH3 0x294 DUP2 PUSH3 0x269 JUMP JUMPDEST SWAP3 SWAP2 POP POP JUMP JUMPDEST PUSH1 0x0 PUSH1 0x20 DUP3 DUP5 SUB SLT ISZERO PUSH3 0x2B3 JUMPI PUSH3 0x2B2 PUSH3 0x230 JUMP JUMPDEST JUMPDEST PUSH1 0x0 PUSH3 0x2C3 DUP5 DUP3 DUP6 ADD PUSH3 0x283 JUMP JUMPDEST SWAP2 POP POP SWAP3 SWAP2 POP POP JUMP JUMPDEST PUSH2 0x2721 DUP1 PUSH3 0x2DC PUSH1 0x0 CODECOPY PUSH1 0x0 RETURN INVALID PUSH1 0x80 PUSH1 0x40 MSTORE CALLVALUE DUP1 ISZERO PUSH2 0x10 JUMPI PUSH1 0x0 DUP1 REVERT JUMPDEST POP PUSH1 0x4 CALLDATASIZE LT PUSH2 0x12C JUMPI PUSH1 0x0 CALLDATALOAD PUSH1 0xE0 SHR DUP1 PUSH4 0x91D14854 GT PUSH2 0xAD JUMPI DUP1 PUSH4 0xE62092BE GT PUSH2 0x71 JUMPI DUP1 PUSH4 0xE62092BE EQ PUSH2 0x33F JUMPI DUP1 PUSH4 0xE9D79B0E EQ PUSH2 0x36F JUMPI DUP1 PUSH4 0xF555E020 EQ PUSH2 0x39F JUMPI DUP1 PUSH4 0xFF2FF6C9 EQ PUSH2 0x3BB JUMPI DUP1 PUSH4 0xFFAD9950 EQ PUSH2 0x3EB JUMPI PUSH2 0x12C JUMP JUMPDEST DUP1 PUSH4 0x91D14854 EQ PUSH2 0x289 JUMPI DUP1 PUSH4 0xA217FDDF EQ PUSH2 0x2B9 JUMPI DUP1 PUSH4 0xC0EB89B2 EQ PUSH2 0x2D7 JUMPI DUP1 PUSH4 0xD547741F EQ PUSH2 0x307 JUMPI DUP1 PUSH4 0xE4968695 EQ PUSH2 0x323 JUMPI PUSH2 0x12C JUMP JUMPDEST DUP1 PUSH4 0x589B21C0 GT PUSH2 0xF4 JUMPI DUP1 PUSH4 0x589B21C0 EQ PUSH2 0x1E7 JUMPI DUP1 PUSH4 0x62567A1A EQ PUSH2 0x203 JUMPI DUP1 PUSH4 0x75B238FC EQ PUSH2 0x21F JUMPI DUP1 PUSH4 0x806C87AF EQ PUSH2 0x23D JUMPI DUP1 PUSH4 0x8F28F50E EQ PUSH2 0x259 JUMPI PUSH2 0x12C JUMP JUMPDEST DUP1 PUSH4 0x1FFC9A7 EQ PUSH2 0x131 JUMPI DUP1 PUSH4 0x206B60F9 EQ PUSH2 0x161 JUMPI DUP1 PUSH4 0x248A9CA3 EQ PUSH2 0x17F JUMPI DUP1 PUSH4 0x2F2FF15D EQ PUSH2 0x1AF JUMPI DUP1 PUSH4 0x36568ABE EQ PUSH2 0x1CB JUMPI JUMPDEST PUSH1 0x0 DUP1 REVERT JUMPDEST PUSH2 0x14B PUSH1 0x4 DUP1 CALLDATASIZE SUB DUP2 ADD SWAP1 PUSH2 0x146 SWAP2 SWAP1 PUSH2 0x1667 JUMP JUMPDEST PUSH2 0x41B JUMP JUMPDEST PUSH1 0x40 MLOAD PUSH2 0x158 SWAP2 SWAP1 PUSH2 0x16AF JUMP JUMPDEST PUSH1 0x40 MLOAD DUP1 SWAP2 SUB SWAP1 RETURN JUMPDEST PUSH2 0x169 PUSH2 0x495 JUMP JUMPDEST PUSH1 0x40 MLOAD PUSH2 0x176 SWAP2 SWAP1 PUSH2 0x16E3 JUMP JUMPDEST PUSH1 0x40 MLOAD DUP1 SWAP2 SUB SWAP1 RETURN JUMPDEST PUSH2 0x199 PUSH1 0x4 DUP1 CALLDATASIZE SUB DUP2 ADD SWAP1 PUSH2 0x194 SWAP2 SWAP1 PUSH2 0x172A JUMP JUMPDEST PUSH2 0x4B9 JUMP JUMPDEST PUSH1 0x40 MLOAD PUSH2 0x1A6 SWAP2 SWAP1 PUSH2 0x16E3 JUMP JUMPDEST PUSH1 0x40 MLOAD DUP1 SWAP2 SUB SWAP1 RETURN JUMPDEST PUSH2 0x1C9 PUSH1 0x4 DUP1 CALLDATASIZE SUB DUP2 ADD SWAP1 PUSH2 0x1C4 SWAP2 SWAP1 PUSH2 0x17B5 JUMP JUMPDEST PUSH2 0x4D8 JUMP JUMPDEST STOP JUMPDEST PUSH2 0x1E5 PUSH1 0x4 DUP1 CALLDATASIZE SUB DUP2 ADD SWAP1 PUSH2 0x1E0 SWAP2 SWAP1 PUSH2 0x17B5 JUMP JUMPDEST PUSH2 0x4F9 JUMP JUMPDEST STOP JUMPDEST PUSH2 0x201 PUSH1 0x4 DUP1 CALLDATASIZE SUB DUP2 ADD SWAP1 PUSH2 0x1FC SWAP2 SWAP1 PUSH2 0x1971 JUMP JUMPDEST PUSH2 0x57C JUMP JUMPDEST STOP JUMPDEST PUSH2 0x21D PUSH1 0x4 DUP1 CALLDATASIZE SUB DUP2 ADD SWAP1 PUSH2 0x218 SWAP2 SWAP1 PUSH2 0x1A19 JUMP JUMPDEST PUSH2 0x637 JUMP JUMPDEST STOP JUMPDEST PUSH2 0x227 PUSH2 0x780 JUMP JUMPDEST PUSH1 0x40 MLOAD PUSH2 0x234 SWAP2 SWAP1 PUSH2 0x16E3 JUMP JUMPDEST PUSH1 0x40 MLOAD DUP1 SWAP2 SUB SWAP1 RETURN JUMPDEST PUSH2 0x257 PUSH1 0x4 DUP1 CALLDATASIZE SUB DUP2 ADD SWAP1 PUSH2 0x252 SWAP2 SWAP1 PUSH2 0x1AEE JUMP JUMPDEST PUSH2 0x7A4 JUMP JUMPDEST STOP JUMPDEST PUSH2 0x273 PUSH1 0x4 DUP1 CALLDATASIZE SUB DUP2 ADD SWAP1 PUSH2 0x26E SWAP2 SWAP1 PUSH2 0x1BAC JUMP JUMPDEST PUSH2 0x8EC JUMP JUMPDEST PUSH1 0x40 MLOAD PUSH2 0x280 SWAP2 SWAP1 PUSH2 0x1C50 JUMP JUMPDEST PUSH1 0x40 MLOAD DUP1 SWAP2 SUB SWAP1 RETURN JUMPDEST PUSH2 0x2A3 PUSH1 0x4 DUP1 CALLDATASIZE SUB DUP2 ADD SWAP1 PUSH2 0x29E SWAP2 SWAP1 PUSH2 0x17B5 JUMP JUMPDEST PUSH2 0x90C JUMP JUMPDEST PUSH1 0x40 MLOAD PUSH2 0x2B0 SWAP2 SWAP1 PUSH2 0x16AF JUMP JUMPDEST PUSH1 0x40 MLOAD DUP1 SWAP2 SUB SWAP1 RETURN JUMPDEST PUSH2 0x2C1 PUSH2 0x976 JUMP JUMPDEST PUSH1 0x40 MLOAD PUSH2 0x2CE SWAP2 SWAP1 PUSH2 0x16E3 JUMP JUMPDEST PUSH1 0x40 MLOAD DUP1 SWAP2 SUB SWAP1 RETURN JUMPDEST PUSH2 0x2F1 PUSH1 0x4 DUP1 CALLDATASIZE SUB DUP2 ADD SWAP1 PUSH2 0x2EC SWAP2 SWAP1 PUSH2 0x1C6B JUMP JUMPDEST PUSH2 0x97D JUMP JUMPDEST PUSH1 0x40 MLOAD PUSH2 0x2FE SWAP2 SWAP1 PUSH2 0x1C50 JUMP JUMPDEST PUSH1 0x40 MLOAD DUP1 SWAP2 SUB SWAP1 RETURN JUMPDEST PUSH2 0x321 PUSH1 0x4 DUP1 CALLDATASIZE SUB DUP2 ADD SWAP1 PUSH2 0x31C SWAP2 SWAP1 PUSH2 0x17B5 JUMP JUMPDEST PUSH2 0xA6C JUMP JUMPDEST STOP JUMPDEST PUSH2 0x33D PUSH1 0x4 DUP1 CALLDATASIZE SUB DUP2 ADD SWAP1 PUSH2 0x338 SWAP2 SWAP1 PUSH2 0x1971 JUMP JUMPDEST PUSH2 0xA8D JUMP JUMPDEST STOP JUMPDEST PUSH2 0x359 PUSH1 0x4 DUP1 CALLDATASIZE SUB DUP2 ADD SWAP1 PUSH2 0x354 SWAP2 SWAP1 PUSH2 0x1C6B JUMP JUMPDEST PUSH2 0xB48 JUMP JUMPDEST PUSH1 0x40 MLOAD PUSH2 0x366 SWAP2 SWAP1 PUSH2 0x16AF JUMP JUMPDEST PUSH1 0x40 MLOAD DUP1 SWAP2 SUB SWAP1 RETURN JUMPDEST PUSH2 0x389 PUSH1 0x4 DUP1 CALLDATASIZE SUB DUP2 ADD SWAP1 PUSH2 0x384 SWAP2 SWAP1 PUSH2 0x1C6B JUMP JUMPDEST PUSH2 0xB82 JUMP JUMPDEST PUSH1 0x40 MLOAD PUSH2 0x396 SWAP2 SWAP1 PUSH2 0x1C50 JUMP JUMPDEST PUSH1 0x40 MLOAD DUP1 SWAP2 SUB SWAP1 RETURN JUMPDEST PUSH2 0x3B9 PUSH1 0x4 DUP1 CALLDATASIZE SUB DUP2 ADD SWAP1 PUSH2 0x3B4 SWAP2 SWAP1 PUSH2 0x1CAB JUMP JUMPDEST PUSH2 0xBB1 JUMP JUMPDEST STOP JUMPDEST PUSH2 0x3D5 PUSH1 0x4 DUP1 CALLDATASIZE SUB DUP2 ADD SWAP1 PUSH2 0x3D0 SWAP2 SWAP1 PUSH2 0x1C6B JUMP JUMPDEST PUSH2 0xCC9 JUMP JUMPDEST PUSH1 0x40 MLOAD PUSH2 0x3E2 SWAP2 SWAP1 PUSH2 0x16AF JUMP JUMPDEST PUSH1 0x40 MLOAD DUP1 SWAP2 SUB SWAP1 RETURN JUMPDEST PUSH2 0x405 PUSH1 0x4 DUP1 CALLDATASIZE SUB DUP2 ADD SWAP1 PUSH2 0x400 SWAP2 SWAP1 PUSH2 0x1C6B JUMP JUMPDEST PUSH2 0xD04 JUMP JUMPDEST PUSH1 0x40 MLOAD PUSH2 0x412 SWAP2 SWAP1 PUSH2 0x16AF JUMP JUMPDEST PUSH1 0x40 MLOAD DUP1 SWAP2 SUB SWAP1 RETURN JUMPDEST PUSH1 0x0 PUSH32 0x7965DB0B00000000000000000000000000000000000000000000000000000000 PUSH28 0xFFFFFFFFFFFFFFFFFFFFFFFFFFFFFFFFFFFFFFFFFFFFFFFFFFFFFFFF NOT AND DUP3 PUSH28 0xFFFFFFFFFFFFFFFFFFFFFFFFFFFFFFFFFFFFFFFFFFFFFFFFFFFFFFFF NOT AND EQ DUP1 PUSH2 0x48E JUMPI POP PUSH2 0x48D DUP3 PUSH2 0xD40 JUMP JUMPDEST JUMPDEST SWAP1 POP SWAP2 SWAP1 POP JUMP JUMPDEST PUSH32 0x8502233096D909BEFBDA0999BB8EA2F3A6BE3C138B9FBF003752A4C8BCE86F6C DUP2 JUMP JUMPDEST PUSH1 0x0 DUP1 PUSH1 0x0 DUP4 DUP2 MSTORE PUSH1 0x20 ADD SWAP1 DUP2 MSTORE PUSH1 0x20 ADD PUSH1 0x0 KECCAK256 PUSH1 0x1 ADD SLOAD SWAP1 POP SWAP2 SWAP1 POP JUMP JUMPDEST PUSH2 0x4E1 DUP3 PUSH2 0x4B9 JUMP JUMPDEST PUSH2 0x4EA DUP2 PUSH2 0xDAA JUMP JUMPDEST PUSH2 0x4F4 DUP4 DUP4 PUSH2 0xDBE JUMP JUMPDEST POP POP POP JUMP JUMPDEST PUSH2 0x501 PUSH2 0xE9E JUMP JUMPDEST PUSH20 0xFFFFFFFFFFFFFFFFFFFFFFFFFFFFFFFFFFFFFFFF AND DUP2 PUSH20 0xFFFFFFFFFFFFFFFFFFFFFFFFFFFFFFFFFFFFFFFF AND EQ PUSH2 0x56E JUMPI PUSH1 0x40 MLOAD PUSH32 0x8C379A000000000000000000000000000000000000000000000000000000000 DUP2 MSTORE PUSH1 0x4 ADD PUSH2 0x565 SWAP1 PUSH2 0x1DB1 JUMP JUMPDEST PUSH1 0x40 MLOAD DUP1 SWAP2 SUB SWAP1 REVERT JUMPDEST PUSH2 0x578 DUP3 DUP3 PUSH2 0xEA6 JUMP JUMPDEST POP POP JUMP JUMPDEST PUSH1 0x0 DUP5 DUP5 PUSH1 0x40 MLOAD PUSH1 0x20 ADD PUSH2 0x591 SWAP3 SWAP2 SWAP1 PUSH2 0x1DE0 JUMP JUMPDEST PUSH1 0x40 MLOAD PUSH1 0x20 DUP2 DUP4 SUB SUB DUP2 MSTORE SWAP1 PUSH1 0x40 MSTORE SWAP1 POP PUSH2 0x5E7 PUSH1 0x0 DUP1 SHL DUP5 DUP5 PUSH1 0x40 MLOAD DUP1 PUSH1 0x40 ADD PUSH1 0x40 MSTORE DUP1 PUSH1 0x9 DUP2 MSTORE PUSH1 0x20 ADD PUSH32 0x6772616E74526F6C650000000000000000000000000000000000000000000000 DUP2 MSTORE POP DUP6 PUSH2 0xF87 JUMP JUMPDEST PUSH2 0x626 JUMPI PUSH1 0x40 MLOAD PUSH32 0x8C379A000000000000000000000000000000000000000000000000000000000 DUP2 MSTORE PUSH1 0x4 ADD PUSH2 0x61D SWAP1 PUSH2 0x1E7B JUMP JUMPDEST PUSH1 0x40 MLOAD DUP1 SWAP2 SUB SWAP1 REVERT JUMPDEST PUSH2 0x630 DUP6 DUP6 PUSH2 0xDBE JUMP JUMPDEST POP POP POP POP POP JUMP JUMPDEST PUSH1 0x0 DUP6 DUP6 DUP6 PUSH1 0x40 MLOAD PUSH1 0x20 ADD PUSH2 0x64E SWAP4 SWAP3 SWAP2 SWAP1 PUSH2 0x1EAA JUMP JUMPDEST PUSH1 0x40 MLOAD PUSH1 0x20 DUP2 DUP4 SUB SUB DUP2 MSTORE SWAP1 PUSH1 0x40 MSTORE SWAP1 POP PUSH2 0x6C1 PUSH32 0xA49807205CE4D355092EF5A8A18F56E8913CF4A201FBE287825B095693C21775 DUP5 DUP5 PUSH1 0x40 MLOAD DUP1 PUSH1 0x40 ADD PUSH1 0x40 MSTORE DUP1 PUSH1 0xD DUP2 MSTORE PUSH1 0x20 ADD PUSH32 0x7365745065726D697373696F6E00000000000000000000000000000000000000 DUP2 MSTORE POP DUP6 PUSH2 0xF87 JUMP JUMPDEST PUSH2 0x700 JUMPI PUSH1 0x40 MLOAD PUSH32 0x8C379A000000000000000000000000000000000000000000000000000000000 DUP2 MSTORE PUSH1 0x4 ADD PUSH2 0x6F7 SWAP1 PUSH2 0x1F2D JUMP JUMPDEST PUSH1 0x40 MLOAD DUP1 SWAP2 SUB SWAP1 REVERT JUMPDEST DUP4 PUSH1 0x1 PUSH1 0x0 DUP9 PUSH20 0xFFFFFFFFFFFFFFFFFFFFFFFFFFFFFFFFFFFFFFFF AND PUSH20 0xFFFFFFFFFFFFFFFFFFFFFFFFFFFFFFFFFFFFFFFF AND DUP2 MSTORE PUSH1 0x20 ADD SWAP1 DUP2 MSTORE PUSH1 0x20 ADD PUSH1 0x0 KECCAK256 PUSH1 0x0 DUP8 DUP2 MSTORE PUSH1 0x20 ADD SWAP1 DUP2 MSTORE PUSH1 0x20 ADD PUSH1 0x0 KECCAK256 PUSH1 0x0 PUSH2 0x100 EXP DUP2 SLOAD DUP2 PUSH1 0xFF MUL NOT AND SWAP1 DUP4 PUSH1 0x3 DUP2 GT ISZERO PUSH2 0x773 JUMPI PUSH2 0x772 PUSH2 0x1BD9 JUMP JUMPDEST JUMPDEST MUL OR SWAP1 SSTORE POP POP POP POP POP POP POP JUMP JUMPDEST PUSH32 0xA49807205CE4D355092EF5A8A18F56E8913CF4A201FBE287825B095693C21775 DUP2 JUMP JUMPDEST PUSH1 0x0 DUP8 DUP8 DUP8 DUP8 DUP8 PUSH1 0x40 MLOAD PUSH1 0x20 ADD PUSH2 0x7BF SWAP6 SWAP5 SWAP4 SWAP3 SWAP2 SWAP1 PUSH2 0x1FAC JUMP JUMPDEST PUSH1 0x40 MLOAD PUSH1 0x20 DUP2 DUP4 SUB SUB DUP2 MSTORE SWAP1 PUSH1 0x40 MSTORE SWAP1 POP PUSH2 0x832 PUSH32 0x8502233096D909BEFBDA0999BB8EA2F3A6BE3C138B9FBF003752A4C8BCE86F6C DUP5 DUP5 PUSH1 0x40 MLOAD DUP1 PUSH1 0x40 ADD PUSH1 0x40 MSTORE DUP1 PUSH1 0xB DUP2 MSTORE PUSH1 0x20 ADD PUSH32 0x7472616E736665724E4654000000000000000000000000000000000000000000 DUP2 MSTORE POP DUP6 PUSH2 0xF87 JUMP JUMPDEST PUSH2 0x871 JUMPI PUSH1 0x40 MLOAD PUSH32 0x8C379A000000000000000000000000000000000000000000000000000000000 DUP2 MSTORE PUSH1 0x4 ADD PUSH2 0x868 SWAP1 PUSH2 0x1F2D JUMP JUMPDEST PUSH1 0x40 MLOAD DUP1 SWAP2 SUB SWAP1 REVERT JUMPDEST DUP8 PUSH20 0xFFFFFFFFFFFFFFFFFFFFFFFFFFFFFFFFFFFFFFFF AND PUSH4 0xF242432A DUP9 DUP9 DUP9 DUP9 PUSH1 0x40 MLOAD DUP6 PUSH4 0xFFFFFFFF AND PUSH1 0xE0 SHL DUP2 MSTORE PUSH1 0x4 ADD PUSH2 0x8B0 SWAP5 SWAP4 SWAP3 SWAP2 SWAP1 PUSH2 0x2036 JUMP JUMPDEST PUSH1 0x0 PUSH1 0x40 MLOAD DUP1 DUP4 SUB DUP2 PUSH1 0x0 DUP8 DUP1 EXTCODESIZE ISZERO DUP1 ISZERO PUSH2 0x8CA JUMPI PUSH1 0x0 DUP1 REVERT JUMPDEST POP GAS CALL ISZERO DUP1 ISZERO PUSH2 0x8DE JUMPI RETURNDATASIZE PUSH1 0x0 DUP1 RETURNDATACOPY RETURNDATASIZE PUSH1 0x0 REVERT JUMPDEST POP POP POP POP POP POP POP POP POP POP POP POP JUMP JUMPDEST PUSH1 0x2 PUSH1 0x20 MSTORE DUP1 PUSH1 0x0 MSTORE PUSH1 0x40 PUSH1 0x0 KECCAK256 PUSH1 0x0 SWAP2 POP SLOAD SWAP1 PUSH2 0x100 EXP SWAP1 DIV PUSH1 0xFF AND DUP2 JUMP JUMPDEST PUSH1 0x0 DUP1 PUSH1 0x0 DUP5 DUP2 MSTORE PUSH1 0x20 ADD SWAP1 DUP2 MSTORE PUSH1 0x20 ADD PUSH1 0x0 KECCAK256 PUSH1 0x0 ADD PUSH1 0x0 DUP4 PUSH20 0xFFFFFFFFFFFFFFFFFFFFFFFFFFFFFFFFFFFFFFFF AND PUSH20 0xFFFFFFFFFFFFFFFFFFFFFFFFFFFFFFFFFFFFFFFF AND DUP2 MSTORE PUSH1 0x20 ADD SWAP1 DUP2 MSTORE PUSH1 0x20 ADD PUSH1 0x0 KECCAK256 PUSH1 0x0 SWAP1 SLOAD SWAP1 PUSH2 0x100 EXP SWAP1 DIV PUSH1 0xFF AND SWAP1 POP SWAP3 SWAP2 POP POP JUMP JUMPDEST PUSH1 0x0 DUP1 SHL DUP2 JUMP JUMPDEST PUSH1 0x0 DUP1 PUSH1 0x1 PUSH1 0x0 DUP6 PUSH20 0xFFFFFFFFFFFFFFFFFFFFFFFFFFFFFFFFFFFFFFFF AND PUSH20 0xFFFFFFFFFFFFFFFFFFFFFFFFFFFFFFFFFFFFFFFF AND DUP2 MSTORE PUSH1 0x20 ADD SWAP1 DUP2 MSTORE PUSH1 0x20 ADD PUSH1 0x0 KECCAK256 PUSH1 0x0 DUP5 DUP2 MSTORE PUSH1 0x20 ADD SWAP1 DUP2 MSTORE PUSH1 0x20 ADD PUSH1 0x0 KECCAK256 PUSH1 0x0 SWAP1 SLOAD SWAP1 PUSH2 0x100 EXP SWAP1 DIV PUSH1 0xFF AND SWAP1 POP PUSH1 0x0 PUSH1 0x3 DUP2 GT ISZERO PUSH2 0x9F4 JUMPI PUSH2 0x9F3 PUSH2 0x1BD9 JUMP JUMPDEST JUMPDEST DUP2 PUSH1 0x3 DUP2 GT ISZERO PUSH2 0xA07 JUMPI PUSH2 0xA06 PUSH2 0x1BD9 JUMP JUMPDEST JUMPDEST EQ PUSH2 0xA15 JUMPI DUP1 SWAP2 POP POP PUSH2 0xA66 JUMP JUMPDEST PUSH1 0x2 PUSH1 0x0 DUP6 PUSH20 0xFFFFFFFFFFFFFFFFFFFFFFFFFFFFFFFFFFFFFFFF AND PUSH20 0xFFFFFFFFFFFFFFFFFFFFFFFFFFFFFFFFFFFFFFFF AND DUP2 MSTORE PUSH1 0x20 ADD SWAP1 DUP2 MSTORE PUSH1 0x20 ADD PUSH1 0x0 KECCAK256 PUSH1 0x0 SWAP1 SLOAD SWAP1 PUSH2 0x100 EXP SWAP1 DIV PUSH1 0xFF AND SWAP2 POP POP JUMPDEST SWAP3 SWAP2 POP POP JUMP JUMPDEST PUSH2 0xA75 DUP3 PUSH2 0x4B9 JUMP JUMPDEST PUSH2 0xA7E DUP2 PUSH2 0xDAA JUMP JUMPDEST PUSH2 0xA88 DUP4 DUP4 PUSH2 0xEA6 JUMP JUMPDEST POP POP POP JUMP JUMPDEST PUSH1 0x0 DUP5 DUP5 PUSH1 0x40 MLOAD PUSH1 0x20 ADD PUSH2 0xAA2 SWAP3 SWAP2 SWAP1 PUSH2 0x1DE0 JUMP JUMPDEST PUSH1 0x40 MLOAD PUSH1 0x20 DUP2 DUP4 SUB SUB DUP2 MSTORE SWAP1 PUSH1 0x40 MSTORE SWAP1 POP PUSH2 0xAF8 PUSH1 0x0 DUP1 SHL DUP5 DUP5 PUSH1 0x40 MLOAD DUP1 PUSH1 0x40 ADD PUSH1 0x40 MSTORE DUP1 PUSH1 0xA DUP2 MSTORE PUSH1 0x20 ADD PUSH32 0x7265766F6B65526F6C6500000000000000000000000000000000000000000000 DUP2 MSTORE POP DUP6 PUSH2 0xF87 JUMP JUMPDEST PUSH2 0xB37 JUMPI PUSH1 0x40 MLOAD PUSH32 0x8C379A000000000000000000000000000000000000000000000000000000000 DUP2 MSTORE PUSH1 0x4 ADD PUSH2 0xB2E SWAP1 PUSH2 0x1E7B JUMP JUMPDEST PUSH1 0x40 MLOAD DUP1 SWAP2 SUB SWAP1 REVERT JUMPDEST PUSH2 0xB41 DUP6 DUP6 PUSH2 0xEA6 JUMP JUMPDEST POP POP POP POP POP JUMP JUMPDEST PUSH1 0x0 PUSH1 0x3 DUP1 DUP2 GT ISZERO PUSH2 0xB5D JUMPI PUSH2 0xB5C PUSH2 0x1BD9 JUMP JUMPDEST JUMPDEST PUSH2 0xB67 DUP5 DUP5 PUSH2 0x97D JUMP JUMPDEST PUSH1 0x3 DUP2 GT ISZERO PUSH2 0xB79 JUMPI PUSH2 0xB78 PUSH2 0x1BD9 JUMP JUMPDEST JUMPDEST EQ SWAP1 POP SWAP3 SWAP2 POP POP JUMP JUMPDEST PUSH1 0x1 PUSH1 0x20 MSTORE DUP2 PUSH1 0x0 MSTORE PUSH1 0x40 PUSH1 0x0 KECCAK256 PUSH1 0x20 MSTORE DUP1 PUSH1 0x0 MSTORE PUSH1 0x40 PUSH1 0x0 KECCAK256 PUSH1 0x0 SWAP2 POP SWAP2 POP SWAP1 SLOAD SWAP1 PUSH2 0x100 EXP SWAP1 DIV PUSH1 0xFF AND DUP2 JUMP JUMPDEST PUSH1 0x0 DUP5 DUP5 PUSH1 0x40 MLOAD PUSH1 0x20 ADD PUSH2 0xBC6 SWAP3 SWAP2 SWAP1 PUSH2 0x208E JUMP JUMPDEST PUSH1 0x40 MLOAD PUSH1 0x20 DUP2 DUP4 SUB SUB DUP2 MSTORE SWAP1 PUSH1 0x40 MSTORE SWAP1 POP PUSH2 0xC1C PUSH1 0x0 DUP1 SHL DUP5 DUP5 PUSH1 0x40 MLOAD DUP1 PUSH1 0x40 ADD PUSH1 0x40 MSTORE DUP1 PUSH1 0x14 DUP2 MSTORE PUSH1 0x20 ADD PUSH32 0x73657444656661756C745065726D697373696F6E000000000000000000000000 DUP2 MSTORE POP DUP6 PUSH2 0xF87 JUMP JUMPDEST PUSH2 0xC5B JUMPI PUSH1 0x40 MLOAD PUSH32 0x8C379A000000000000000000000000000000000000000000000000000000000 DUP2 MSTORE PUSH1 0x4 ADD PUSH2 0xC52 SWAP1 PUSH2 0x1F2D JUMP JUMPDEST PUSH1 0x40 MLOAD DUP1 SWAP2 SUB SWAP1 REVERT JUMPDEST DUP4 PUSH1 0x2 PUSH1 0x0 DUP8 PUSH20 0xFFFFFFFFFFFFFFFFFFFFFFFFFFFFFFFFFFFFFFFF AND PUSH20 0xFFFFFFFFFFFFFFFFFFFFFFFFFFFFFFFFFFFFFFFF AND DUP2 MSTORE PUSH1 0x20 ADD SWAP1 DUP2 MSTORE PUSH1 0x20 ADD PUSH1 0x0 KECCAK256 PUSH1 0x0 PUSH2 0x100 EXP DUP2 SLOAD DUP2 PUSH1 0xFF MUL NOT AND SWAP1 DUP4 PUSH1 0x3 DUP2 GT ISZERO PUSH2 0xCBD JUMPI PUSH2 0xCBC PUSH2 0x1BD9 JUMP JUMPDEST JUMPDEST MUL OR SWAP1 SSTORE POP POP POP POP POP POP JUMP JUMPDEST PUSH1 0x0 PUSH1 0x2 PUSH1 0x3 DUP2 GT ISZERO PUSH2 0xCDF JUMPI PUSH2 0xCDE PUSH2 0x1BD9 JUMP JUMPDEST JUMPDEST PUSH2 0xCE9 DUP5 DUP5 PUSH2 0x97D JUMP JUMPDEST PUSH1 0x3 DUP2 GT ISZERO PUSH2 0xCFB JUMPI PUSH2 0xCFA PUSH2 0x1BD9 JUMP JUMPDEST JUMPDEST EQ SWAP1 POP SWAP3 SWAP2 POP POP JUMP JUMPDEST PUSH1 0x0 PUSH1 0x1 PUSH1 0x3 DUP2 GT ISZERO PUSH2 0xD1A JUMPI PUSH2 0xD19 PUSH2 0x1BD9 JUMP JUMPDEST JUMPDEST PUSH2 0xD24 DUP5 DUP5 PUSH2 0x97D JUMP JUMPDEST PUSH1 0x3 DUP2 GT ISZERO PUSH2 0xD36 JUMPI PUSH2 0xD35 PUSH2 0x1BD9 JUMP JUMPDEST JUMPDEST LT ISZERO SWAP1 POP SWAP3 SWAP2 POP POP JUMP JUMPDEST PUSH1 0x0 PUSH32 0x1FFC9A700000000000000000000000000000000000000000000000000000000 PUSH28 0xFFFFFFFFFFFFFFFFFFFFFFFFFFFFFFFFFFFFFFFFFFFFFFFFFFFFFFFF NOT AND DUP3 PUSH28 0xFFFFFFFFFFFFFFFFFFFFFFFFFFFFFFFFFFFFFFFFFFFFFFFFFFFFFFFF NOT AND EQ SWAP1 POP SWAP2 SWAP1 POP JUMP JUMPDEST PUSH2 0xDBB DUP2 PUSH2 0xDB6 PUSH2 0xE9E JUMP JUMPDEST PUSH2 0xFB2 JUMP JUMPDEST POP JUMP JUMPDEST PUSH2 0xDC8 DUP3 DUP3 PUSH2 0x90C JUMP JUMPDEST PUSH2 0xE9A JUMPI PUSH1 0x1 PUSH1 0x0 DUP1 DUP5 DUP2 MSTORE PUSH1 0x20 ADD SWAP1 DUP2 MSTORE PUSH1 0x20 ADD PUSH1 0x0 KECCAK256 PUSH1 0x0 ADD PUSH1 0x0 DUP4 PUSH20 0xFFFFFFFFFFFFFFFFFFFFFFFFFFFFFFFFFFFFFFFF AND PUSH20 0xFFFFFFFFFFFFFFFFFFFFFFFFFFFFFFFFFFFFFFFF AND DUP2 MSTORE PUSH1 0x20 ADD SWAP1 DUP2 MSTORE PUSH1 0x20 ADD PUSH1 0x0 KECCAK256 PUSH1 0x0 PUSH2 0x100 EXP DUP2 SLOAD DUP2 PUSH1 0xFF MUL NOT AND SWAP1 DUP4 ISZERO ISZERO MUL OR SWAP1 SSTORE POP PUSH2 0xE3F PUSH2 0xE9E JUMP JUMPDEST PUSH20 0xFFFFFFFFFFFFFFFFFFFFFFFFFFFFFFFFFFFFFFFF AND DUP2 PUSH20 0xFFFFFFFFFFFFFFFFFFFFFFFFFFFFFFFFFFFFFFFF AND DUP4 PUSH32 0x2F8788117E7EFF1D82E926EC794901D17C78024A50270940304540A733656F0D PUSH1 0x40 MLOAD PUSH1 0x40 MLOAD DUP1 SWAP2 SUB SWAP1 LOG4 JUMPDEST POP POP JUMP JUMPDEST PUSH1 0x0 CALLER SWAP1 POP SWAP1 JUMP JUMPDEST PUSH2 0xEB0 DUP3 DUP3 PUSH2 0x90C JUMP JUMPDEST ISZERO PUSH2 0xF83 JUMPI PUSH1 0x0 DUP1 PUSH1 0x0 DUP5 DUP2 MSTORE PUSH1 0x20 ADD SWAP1 DUP2 MSTORE PUSH1 0x20 ADD PUSH1 0x0 KECCAK256 PUSH1 0x0 ADD PUSH1 0x0 DUP4 PUSH20 0xFFFFFFFFFFFFFFFFFFFFFFFFFFFFFFFFFFFFFFFF AND PUSH20 0xFFFFFFFFFFFFFFFFFFFFFFFFFFFFFFFFFFFFFFFF AND DUP2 MSTORE PUSH1 0x20 ADD SWAP1 DUP2 MSTORE PUSH1 0x20 ADD PUSH1 0x0 KECCAK256 PUSH1 0x0 PUSH2 0x100 EXP DUP2 SLOAD DUP2 PUSH1 0xFF MUL NOT AND SWAP1 DUP4 ISZERO ISZERO MUL OR SWAP1 SSTORE POP PUSH2 0xF28 PUSH2 0xE9E JUMP JUMPDEST PUSH20 0xFFFFFFFFFFFFFFFFFFFFFFFFFFFFFFFFFFFFFFFF AND DUP2 PUSH20 0xFFFFFFFFFFFFFFFFFFFFFFFFFFFFFFFFFFFFFFFF AND DUP4 PUSH32 0xF6391F5C32D9C69D2A47EA670B442974B53935D1EDC7FD64EB21E047A839171B PUSH1 0x40 MLOAD PUSH1 0x40 MLOAD DUP1 SWAP2 SUB SWAP1 LOG4 JUMPDEST POP POP JUMP JUMPDEST PUSH1 0x0 PUSH2 0xF93 DUP7 CALLER PUSH2 0x90C JUMP JUMPDEST DUP1 PUSH2 0xFA7 JUMPI POP PUSH2 0xFA6 DUP7 DUP7 DUP7 DUP7 DUP7 PUSH2 0x1037 JUMP JUMPDEST JUMPDEST SWAP1 POP SWAP6 SWAP5 POP POP POP POP POP JUMP JUMPDEST PUSH2 0xFBC DUP3 DUP3 PUSH2 0x90C JUMP JUMPDEST PUSH2 0x1033 JUMPI PUSH2 0xFC9 DUP2 PUSH2 0x10D2 JUMP JUMPDEST PUSH2 0xFD7 DUP4 PUSH1 0x0 SHR PUSH1 0x20 PUSH2 0x10FF JUMP JUMPDEST PUSH1 0x40 MLOAD PUSH1 0x20 ADD PUSH2 0xFE8 SWAP3 SWAP2 SWAP1 PUSH2 0x21C0 JUMP JUMPDEST PUSH1 0x40 MLOAD PUSH1 0x20 DUP2 DUP4 SUB SUB DUP2 MSTORE SWAP1 PUSH1 0x40 MSTORE PUSH1 0x40 MLOAD PUSH32 0x8C379A000000000000000000000000000000000000000000000000000000000 DUP2 MSTORE PUSH1 0x4 ADD PUSH2 0x102A SWAP2 SWAP1 PUSH2 0x2233 JUMP JUMPDEST PUSH1 0x40 MLOAD DUP1 SWAP2 SUB SWAP1 REVERT JUMPDEST POP POP JUMP JUMPDEST PUSH1 0x0 DUP4 NUMBER GT ISZERO PUSH2 0x107C JUMPI PUSH1 0x40 MLOAD PUSH32 0x8C379A000000000000000000000000000000000000000000000000000000000 DUP2 MSTORE PUSH1 0x4 ADD PUSH2 0x1073 SWAP1 PUSH2 0x22A1 JUMP JUMPDEST PUSH1 0x40 MLOAD DUP1 SWAP2 SUB SWAP1 REVERT JUMPDEST PUSH1 0x0 ADDRESS DUP6 DUP6 DUP6 PUSH1 0x40 MLOAD PUSH1 0x20 ADD PUSH2 0x1095 SWAP5 SWAP4 SWAP3 SWAP2 SWAP1 PUSH2 0x2371 JUMP JUMPDEST PUSH1 0x40 MLOAD PUSH1 0x20 DUP2 DUP4 SUB SUB DUP2 MSTORE SWAP1 PUSH1 0x40 MSTORE DUP1 MLOAD SWAP1 PUSH1 0x20 ADD KECCAK256 SWAP1 POP PUSH1 0x0 PUSH2 0x10B9 DUP3 DUP9 PUSH2 0x133B JUMP JUMPDEST SWAP1 POP PUSH2 0x10C5 DUP9 DUP3 PUSH2 0x90C JUMP JUMPDEST SWAP3 POP POP POP SWAP6 SWAP5 POP POP POP POP POP JUMP JUMPDEST PUSH1 0x60 PUSH2 0x10F8 DUP3 PUSH20 0xFFFFFFFFFFFFFFFFFFFFFFFFFFFFFFFFFFFFFFFF AND PUSH1 0x14 PUSH1 0xFF AND PUSH2 0x10FF JUMP JUMPDEST SWAP1 POP SWAP2 SWAP1 POP JUMP JUMPDEST PUSH1 0x60 PUSH1 0x0 PUSH1 0x2 DUP4 PUSH1 0x2 PUSH2 0x1112 SWAP2 SWAP1 PUSH2 0x23E6 JUMP JUMPDEST PUSH2 0x111C SWAP2 SWAP1 PUSH2 0x2428 JUMP JUMPDEST PUSH8 0xFFFFFFFFFFFFFFFF DUP2 GT ISZERO PUSH2 0x1135 JUMPI PUSH2 0x1134 PUSH2 0x1810 JUMP JUMPDEST JUMPDEST PUSH1 0x40 MLOAD SWAP1 DUP1 DUP3 MSTORE DUP1 PUSH1 0x1F ADD PUSH1 0x1F NOT AND PUSH1 0x20 ADD DUP3 ADD PUSH1 0x40 MSTORE DUP1 ISZERO PUSH2 0x1167 JUMPI DUP2 PUSH1 0x20 ADD PUSH1 0x1 DUP3 MUL DUP1 CALLDATASIZE DUP4 CALLDATACOPY DUP1 DUP3 ADD SWAP2 POP POP SWAP1 POP JUMPDEST POP SWAP1 POP PUSH32 0x3000000000000000000000000000000000000000000000000000000000000000 DUP2 PUSH1 0x0 DUP2 MLOAD DUP2 LT PUSH2 0x119F JUMPI PUSH2 0x119E PUSH2 0x245C JUMP JUMPDEST JUMPDEST PUSH1 0x20 ADD ADD SWAP1 PUSH31 0xFFFFFFFFFFFFFFFFFFFFFFFFFFFFFFFFFFFFFFFFFFFFFFFFFFFFFFFFFFFFFF NOT AND SWAP1 DUP2 PUSH1 0x0 BYTE SWAP1 MSTORE8 POP PUSH32 0x7800000000000000000000000000000000000000000000000000000000000000 DUP2 PUSH1 0x1 DUP2 MLOAD DUP2 LT PUSH2 0x1203 JUMPI PUSH2 0x1202 PUSH2 0x245C JUMP JUMPDEST JUMPDEST PUSH1 0x20 ADD ADD SWAP1 PUSH31 0xFFFFFFFFFFFFFFFFFFFFFFFFFFFFFFFFFFFFFFFFFFFFFFFFFFFFFFFFFFFFFF NOT AND SWAP1 DUP2 PUSH1 0x0 BYTE SWAP1 MSTORE8 POP PUSH1 0x0 PUSH1 0x1 DUP5 PUSH1 0x2 PUSH2 0x1243 SWAP2 SWAP1 PUSH2 0x23E6 JUMP JUMPDEST PUSH2 0x124D SWAP2 SWAP1 PUSH2 0x2428 JUMP JUMPDEST SWAP1 POP JUMPDEST PUSH1 0x1 DUP2 GT ISZERO PUSH2 0x12ED JUMPI PUSH32 0x3031323334353637383961626364656600000000000000000000000000000000 PUSH1 0xF DUP7 AND PUSH1 0x10 DUP2 LT PUSH2 0x128F JUMPI PUSH2 0x128E PUSH2 0x245C JUMP JUMPDEST JUMPDEST BYTE PUSH1 0xF8 SHL DUP3 DUP3 DUP2 MLOAD DUP2 LT PUSH2 0x12A6 JUMPI PUSH2 0x12A5 PUSH2 0x245C JUMP JUMPDEST JUMPDEST PUSH1 0x20 ADD ADD SWAP1 PUSH31 0xFFFFFFFFFFFFFFFFFFFFFFFFFFFFFFFFFFFFFFFFFFFFFFFFFFFFFFFFFFFFFF NOT AND SWAP1 DUP2 PUSH1 0x0 BYTE SWAP1 MSTORE8 POP PUSH1 0x4 DUP6 SWAP1 SHR SWAP5 POP DUP1 PUSH2 0x12E6 SWAP1 PUSH2 0x248B JUMP JUMPDEST SWAP1 POP PUSH2 0x1250 JUMP JUMPDEST POP PUSH1 0x0 DUP5 EQ PUSH2 0x1331 JUMPI PUSH1 0x40 MLOAD PUSH32 0x8C379A000000000000000000000000000000000000000000000000000000000 DUP2 MSTORE PUSH1 0x4 ADD PUSH2 0x1328 SWAP1 PUSH2 0x2500 JUMP JUMPDEST PUSH1 0x40 MLOAD DUP1 SWAP2 SUB SWAP1 REVERT JUMPDEST DUP1 SWAP2 POP POP SWAP3 SWAP2 POP POP JUMP JUMPDEST PUSH1 0x0 DUP1 PUSH1 0x0 PUSH2 0x134A DUP6 DUP6 PUSH2 0x1362 JUMP JUMPDEST SWAP2 POP SWAP2 POP PUSH2 0x1357 DUP2 PUSH2 0x13B3 JUMP JUMPDEST DUP2 SWAP3 POP POP POP SWAP3 SWAP2 POP POP JUMP JUMPDEST PUSH1 0x0 DUP1 PUSH1 0x41 DUP4 MLOAD SUB PUSH2 0x13A3 JUMPI PUSH1 0x0 DUP1 PUSH1 0x0 PUSH1 0x20 DUP7 ADD MLOAD SWAP3 POP PUSH1 0x40 DUP7 ADD MLOAD SWAP2 POP PUSH1 0x60 DUP7 ADD MLOAD PUSH1 0x0 BYTE SWAP1 POP PUSH2 0x1397 DUP8 DUP3 DUP6 DUP6 PUSH2 0x1519 JUMP JUMPDEST SWAP5 POP SWAP5 POP POP POP POP PUSH2 0x13AC JUMP JUMPDEST PUSH1 0x0 PUSH1 0x2 SWAP2 POP SWAP2 POP JUMPDEST SWAP3 POP SWAP3 SWAP1 POP JUMP JUMPDEST PUSH1 0x0 PUSH1 0x4 DUP2 GT ISZERO PUSH2 0x13C7 JUMPI PUSH2 0x13C6 PUSH2 0x1BD9 JUMP JUMPDEST JUMPDEST DUP2 PUSH1 0x4 DUP2 GT ISZERO PUSH2 0x13DA JUMPI PUSH2 0x13D9 PUSH2 0x1BD9 JUMP JUMPDEST JUMPDEST SUB ISZERO PUSH2 0x1516 JUMPI PUSH1 0x1 PUSH1 0x4 DUP2 GT ISZERO PUSH2 0x13F4 JUMPI PUSH2 0x13F3 PUSH2 0x1BD9 JUMP JUMPDEST JUMPDEST DUP2 PUSH1 0x4 DUP2 GT ISZERO PUSH2 0x1407 JUMPI PUSH2 0x1406 PUSH2 0x1BD9 JUMP JUMPDEST JUMPDEST SUB PUSH2 0x1447 JUMPI PUSH1 0x40 MLOAD PUSH32 0x8C379A000000000000000000000000000000000000000000000000000000000 DUP2 MSTORE PUSH1 0x4 ADD PUSH2 0x143E SWAP1 PUSH2 0x256C JUMP JUMPDEST PUSH1 0x40 MLOAD DUP1 SWAP2 SUB SWAP1 REVERT JUMPDEST PUSH1 0x2 PUSH1 0x4 DUP2 GT ISZERO PUSH2 0x145B JUMPI PUSH2 0x145A PUSH2 0x1BD9 JUMP JUMPDEST JUMPDEST DUP2 PUSH1 0x4 DUP2 GT ISZERO PUSH2 0x146E JUMPI PUSH2 0x146D PUSH2 0x1BD9 JUMP JUMPDEST JUMPDEST SUB PUSH2 0x14AE JUMPI PUSH1 0x40 MLOAD PUSH32 0x8C379A000000000000000000000000000000000000000000000000000000000 DUP2 MSTORE PUSH1 0x4 ADD PUSH2 0x14A5 SWAP1 PUSH2 0x25D8 JUMP JUMPDEST PUSH1 0x40 MLOAD DUP1 SWAP2 SUB SWAP1 REVERT JUMPDEST PUSH1 0x3 PUSH1 0x4 DUP2 GT ISZERO PUSH2 0x14C2 JUMPI PUSH2 0x14C1 PUSH2 0x1BD9 JUMP JUMPDEST JUMPDEST DUP2 PUSH1 0x4 DUP2 GT ISZERO PUSH2 0x14D5 JUMPI PUSH2 0x14D4 PUSH2 0x1BD9 JUMP JUMPDEST JUMPDEST SUB PUSH2 0x1515 JUMPI PUSH1 0x40 MLOAD PUSH32 0x8C379A000000000000000000000000000000000000000000000000000000000 DUP2 MSTORE PUSH1 0x4 ADD PUSH2 0x150C SWAP1 PUSH2 0x266A JUMP JUMPDEST PUSH1 0x40 MLOAD DUP1 SWAP2 SUB SWAP1 REVERT JUMPDEST JUMPDEST POP JUMP JUMPDEST PUSH1 0x0 DUP1 PUSH32 0x7FFFFFFFFFFFFFFFFFFFFFFFFFFFFFFF5D576E7357A4501DDFE92F46681B20A0 DUP4 PUSH1 0x0 SHR GT ISZERO PUSH2 0x1554 JUMPI PUSH1 0x0 PUSH1 0x3 SWAP2 POP SWAP2 POP PUSH2 0x15F2 JUMP JUMPDEST PUSH1 0x0 PUSH1 0x1 DUP8 DUP8 DUP8 DUP8 PUSH1 0x40 MLOAD PUSH1 0x0 DUP2 MSTORE PUSH1 0x20 ADD PUSH1 0x40 MSTORE PUSH1 0x40 MLOAD PUSH2 0x1579 SWAP5 SWAP4 SWAP3 SWAP2 SWAP1 PUSH2 0x26A6 JUMP JUMPDEST PUSH1 0x20 PUSH1 0x40 MLOAD PUSH1 0x20 DUP2 SUB SWAP1 DUP1 DUP5 SUB SWAP1 DUP6 GAS STATICCALL ISZERO DUP1 ISZERO PUSH2 0x159B JUMPI RETURNDATASIZE PUSH1 0x0 DUP1 RETURNDATACOPY RETURNDATASIZE PUSH1 0x0 REVERT JUMPDEST POP POP POP PUSH1 0x20 PUSH1 0x40 MLOAD SUB MLOAD SWAP1 POP PUSH1 0x0 PUSH20 0xFFFFFFFFFFFFFFFFFFFFFFFFFFFFFFFFFFFFFFFF AND DUP2 PUSH20 0xFFFFFFFFFFFFFFFFFFFFFFFFFFFFFFFFFFFFFFFF AND SUB PUSH2 0x15E9 JUMPI PUSH1 0x0 PUSH1 0x1 SWAP3 POP SWAP3 POP POP PUSH2 0x15F2 JUMP JUMPDEST DUP1 PUSH1 0x0 SWAP3 POP SWAP3 POP POP JUMPDEST SWAP5 POP SWAP5 SWAP3 POP POP POP JUMP JUMPDEST PUSH1 0x0 PUSH1 0x40 MLOAD SWAP1 POP SWAP1 JUMP JUMPDEST PUSH1 0x0 DUP1 REVERT JUMPDEST PUSH1 0x0 DUP1 REVERT JUMPDEST PUSH1 0x0 PUSH32 0xFFFFFFFF00000000000000000000000000000000000000000000000000000000 DUP3 AND SWAP1 POP SWAP2 SWAP1 POP JUMP JUMPDEST PUSH2 0x1644 DUP2 PUSH2 0x160F JUMP JUMPDEST DUP2 EQ PUSH2 0x164F JUMPI PUSH1 0x0 DUP1 REVERT JUMPDEST POP JUMP JUMPDEST PUSH1 0x0 DUP2 CALLDATALOAD SWAP1 POP PUSH2 0x1661 DUP2 PUSH2 0x163B JUMP JUMPDEST SWAP3 SWAP2 POP POP JUMP JUMPDEST PUSH1 0x0 PUSH1 0x20 DUP3 DUP5 SUB SLT ISZERO PUSH2 0x167D JUMPI PUSH2 0x167C PUSH2 0x1605 JUMP JUMPDEST JUMPDEST PUSH1 0x0 PUSH2 0x168B DUP5 DUP3 DUP6 ADD PUSH2 0x1652 JUMP JUMPDEST SWAP2 POP POP SWAP3 SWAP2 POP POP JUMP JUMPDEST PUSH1 0x0 DUP2 ISZERO ISZERO SWAP1 POP SWAP2 SWAP1 POP JUMP JUMPDEST PUSH2 0x16A9 DUP2 PUSH2 0x1694 JUMP JUMPDEST DUP3 MSTORE POP POP JUMP JUMPDEST PUSH1 0x0 PUSH1 0x20 DUP3 ADD SWAP1 POP PUSH2 0x16C4 PUSH1 0x0 DUP4 ADD DUP5 PUSH2 0x16A0 JUMP JUMPDEST SWAP3 SWAP2 POP POP JUMP JUMPDEST PUSH1 0x0 DUP2 SWAP1 POP SWAP2 SWAP1 POP JUMP JUMPDEST PUSH2 0x16DD DUP2 PUSH2 0x16CA JUMP JUMPDEST DUP3 MSTORE POP POP JUMP JUMPDEST PUSH1 0x0 PUSH1 0x20 DUP3 ADD SWAP1 POP PUSH2 0x16F8 PUSH1 0x0 DUP4 ADD DUP5 PUSH2 0x16D4 JUMP JUMPDEST SWAP3 SWAP2 POP POP JUMP JUMPDEST PUSH2 0x1707 DUP2 PUSH2 0x16CA JUMP JUMPDEST DUP2 EQ PUSH2 0x1712 JUMPI PUSH1 0x0 DUP1 REVERT JUMPDEST POP JUMP JUMPDEST PUSH1 0x0 DUP2 CALLDATALOAD SWAP1 POP PUSH2 0x1724 DUP2 PUSH2 0x16FE JUMP JUMPDEST SWAP3 SWAP2 POP POP JUMP JUMPDEST PUSH1 0x0 PUSH1 0x20 DUP3 DUP5 SUB SLT ISZERO PUSH2 0x1740 JUMPI PUSH2 0x173F PUSH2 0x1605 JUMP JUMPDEST JUMPDEST PUSH1 0x0 PUSH2 0x174E DUP5 DUP3 DUP6 ADD PUSH2 0x1715 JUMP JUMPDEST SWAP2 POP POP SWAP3 SWAP2 POP POP JUMP JUMPDEST PUSH1 0x0 PUSH20 0xFFFFFFFFFFFFFFFFFFFFFFFFFFFFFFFFFFFFFFFF DUP3 AND SWAP1 POP SWAP2 SWAP1 POP JUMP JUMPDEST PUSH1 0x0 PUSH2 0x1782 DUP3 PUSH2 0x1757 JUMP JUMPDEST SWAP1 POP SWAP2 SWAP1 POP JUMP JUMPDEST PUSH2 0x1792 DUP2 PUSH2 0x1777 JUMP JUMPDEST DUP2 EQ PUSH2 0x179D JUMPI PUSH1 0x0 DUP1 REVERT JUMPDEST POP JUMP JUMPDEST PUSH1 0x0 DUP2 CALLDATALOAD SWAP1 POP PUSH2 0x17AF DUP2 PUSH2 0x1789 JUMP JUMPDEST SWAP3 SWAP2 POP POP JUMP JUMPDEST PUSH1 0x0 DUP1 PUSH1 0x40 DUP4 DUP6 SUB SLT ISZERO PUSH2 0x17CC JUMPI PUSH2 0x17CB PUSH2 0x1605 JUMP JUMPDEST JUMPDEST PUSH1 0x0 PUSH2 0x17DA DUP6 DUP3 DUP7 ADD PUSH2 0x1715 JUMP JUMPDEST SWAP3 POP POP PUSH1 0x20 PUSH2 0x17EB DUP6 DUP3 DUP7 ADD PUSH2 0x17A0 JUMP JUMPDEST SWAP2 POP POP SWAP3 POP SWAP3 SWAP1 POP JUMP JUMPDEST PUSH1 0x0 DUP1 REVERT JUMPDEST PUSH1 0x0 DUP1 REVERT JUMPDEST PUSH1 0x0 PUSH1 0x1F NOT PUSH1 0x1F DUP4 ADD AND SWAP1 POP SWAP2 SWAP1 POP JUMP JUMPDEST PUSH32 0x4E487B7100000000000000000000000000000000000000000000000000000000 PUSH1 0x0 MSTORE PUSH1 0x41 PUSH1 0x4 MSTORE PUSH1 0x24 PUSH1 0x0 REVERT JUMPDEST PUSH2 0x1848 DUP3 PUSH2 0x17FF JUMP JUMPDEST DUP2 ADD DUP2 DUP2 LT PUSH8 0xFFFFFFFFFFFFFFFF DUP3 GT OR ISZERO PUSH2 0x1867 JUMPI PUSH2 0x1866 PUSH2 0x1810 JUMP JUMPDEST JUMPDEST DUP1 PUSH1 0x40 MSTORE POP POP POP JUMP JUMPDEST PUSH1 0x0 PUSH2 0x187A PUSH2 0x15FB JUMP JUMPDEST SWAP1 POP PUSH2 0x1886 DUP3 DUP3 PUSH2 0x183F JUMP JUMPDEST SWAP2 SWAP1 POP JUMP JUMPDEST PUSH1 0x0 PUSH8 0xFFFFFFFFFFFFFFFF DUP3 GT ISZERO PUSH2 0x18A6 JUMPI PUSH2 0x18A5 PUSH2 0x1810 JUMP JUMPDEST JUMPDEST PUSH2 0x18AF DUP3 PUSH2 0x17FF JUMP JUMPDEST SWAP1 POP PUSH1 0x20 DUP2 ADD SWAP1 POP SWAP2 SWAP1 POP JUMP JUMPDEST DUP3 DUP2 DUP4 CALLDATACOPY PUSH1 0x0 DUP4 DUP4 ADD MSTORE POP POP POP JUMP JUMPDEST PUSH1 0x0 PUSH2 0x18DE PUSH2 0x18D9 DUP5 PUSH2 0x188B JUMP JUMPDEST PUSH2 0x1870 JUMP JUMPDEST SWAP1 POP DUP3 DUP2 MSTORE PUSH1 0x20 DUP2 ADD DUP5 DUP5 DUP5 ADD GT ISZERO PUSH2 0x18FA JUMPI PUSH2 0x18F9 PUSH2 0x17FA JUMP JUMPDEST JUMPDEST PUSH2 0x1905 DUP5 DUP3 DUP6 PUSH2 0x18BC JUMP JUMPDEST POP SWAP4 SWAP3 POP POP POP JUMP JUMPDEST PUSH1 0x0 DUP3 PUSH1 0x1F DUP4 ADD SLT PUSH2 0x1922 JUMPI PUSH2 0x1921 PUSH2 0x17F5 JUMP JUMPDEST JUMPDEST DUP2 CALLDATALOAD PUSH2 0x1932 DUP5 DUP3 PUSH1 0x20 DUP7 ADD PUSH2 0x18CB JUMP JUMPDEST SWAP2 POP POP SWAP3 SWAP2 POP POP JUMP JUMPDEST PUSH1 0x0 DUP2 SWAP1 POP SWAP2 SWAP1 POP JUMP JUMPDEST PUSH2 0x194E DUP2 PUSH2 0x193B JUMP JUMPDEST DUP2 EQ PUSH2 0x1959 JUMPI PUSH1 0x0 DUP1 REVERT JUMPDEST POP JUMP JUMPDEST PUSH1 0x0 DUP2 CALLDATALOAD SWAP1 POP PUSH2 0x196B DUP2 PUSH2 0x1945 JUMP JUMPDEST SWAP3 SWAP2 POP POP JUMP JUMPDEST PUSH1 0x0 DUP1 PUSH1 0x0 DUP1 PUSH1 0x80 DUP6 DUP8 SUB SLT ISZERO PUSH2 0x198B JUMPI PUSH2 0x198A PUSH2 0x1605 JUMP JUMPDEST JUMPDEST PUSH1 0x0 PUSH2 0x1999 DUP8 DUP3 DUP9 ADD PUSH2 0x1715 JUMP JUMPDEST SWAP5 POP POP PUSH1 0x20 PUSH2 0x19AA DUP8 DUP3 DUP9 ADD PUSH2 0x17A0 JUMP JUMPDEST SWAP4 POP POP PUSH1 0x40 DUP6 ADD CALLDATALOAD PUSH8 0xFFFFFFFFFFFFFFFF DUP2 GT ISZERO PUSH2 0x19CB JUMPI PUSH2 0x19CA PUSH2 0x160A JUMP JUMPDEST JUMPDEST PUSH2 0x19D7 DUP8 DUP3 DUP9 ADD PUSH2 0x190D JUMP JUMPDEST SWAP3 POP POP PUSH1 0x60 PUSH2 0x19E8 DUP8 DUP3 DUP9 ADD PUSH2 0x195C JUMP JUMPDEST SWAP2 POP POP SWAP3 SWAP6 SWAP2 SWAP5 POP SWAP3 POP JUMP JUMPDEST PUSH1 0x4 DUP2 LT PUSH2 0x1A01 JUMPI PUSH1 0x0 DUP1 REVERT JUMPDEST POP JUMP JUMPDEST PUSH1 0x0 DUP2 CALLDATALOAD SWAP1 POP PUSH2 0x1A13 DUP2 PUSH2 0x19F4 JUMP JUMPDEST SWAP3 SWAP2 POP POP JUMP JUMPDEST PUSH1 0x0 DUP1 PUSH1 0x0 DUP1 PUSH1 0x0 PUSH1 0xA0 DUP7 DUP9 SUB SLT ISZERO PUSH2 0x1A35 JUMPI PUSH2 0x1A34 PUSH2 0x1605 JUMP JUMPDEST JUMPDEST PUSH1 0x0 PUSH2 0x1A43 DUP9 DUP3 DUP10 ADD PUSH2 0x17A0 JUMP JUMPDEST SWAP6 POP POP PUSH1 0x20 PUSH2 0x1A54 DUP9 DUP3 DUP10 ADD PUSH2 0x195C JUMP JUMPDEST SWAP5 POP POP PUSH1 0x40 PUSH2 0x1A65 DUP9 DUP3 DUP10 ADD PUSH2 0x1A04 JUMP JUMPDEST SWAP4 POP POP PUSH1 0x60 DUP7 ADD CALLDATALOAD PUSH8 0xFFFFFFFFFFFFFFFF DUP2 GT ISZERO PUSH2 0x1A86 JUMPI PUSH2 0x1A85 PUSH2 0x160A JUMP JUMPDEST JUMPDEST PUSH2 0x1A92 DUP9 DUP3 DUP10 ADD PUSH2 0x190D JUMP JUMPDEST SWAP3 POP POP PUSH1 0x80 PUSH2 0x1AA3 DUP9 DUP3 DUP10 ADD PUSH2 0x195C JUMP JUMPDEST SWAP2 POP POP SWAP3 SWAP6 POP SWAP3 SWAP6 SWAP1 SWAP4 POP JUMP JUMPDEST PUSH1 0x0 PUSH2 0x1ABB DUP3 PUSH2 0x1777 JUMP JUMPDEST SWAP1 POP SWAP2 SWAP1 POP JUMP JUMPDEST PUSH2 0x1ACB DUP2 PUSH2 0x1AB0 JUMP JUMPDEST DUP2 EQ PUSH2 0x1AD6 JUMPI PUSH1 0x0 DUP1 REVERT JUMPDEST POP JUMP JUMPDEST PUSH1 0x0 DUP2 CALLDATALOAD SWAP1 POP PUSH2 0x1AE8 DUP2 PUSH2 0x1AC2 JUMP JUMPDEST SWAP3 SWAP2 POP POP JUMP JUMPDEST PUSH1 0x0 DUP1 PUSH1 0x0 DUP1 PUSH1 0x0 DUP1 PUSH1 0x0 PUSH1 0xE0 DUP9 DUP11 SUB SLT ISZERO PUSH2 0x1B0D JUMPI PUSH2 0x1B0C PUSH2 0x1605 JUMP JUMPDEST JUMPDEST PUSH1 0x0 PUSH2 0x1B1B DUP11 DUP3 DUP12 ADD PUSH2 0x1AD9 JUMP JUMPDEST SWAP8 POP POP PUSH1 0x20 PUSH2 0x1B2C DUP11 DUP3 DUP12 ADD PUSH2 0x17A0 JUMP JUMPDEST SWAP7 POP POP PUSH1 0x40 PUSH2 0x1B3D DUP11 DUP3 DUP12 ADD PUSH2 0x17A0 JUMP JUMPDEST SWAP6 POP POP PUSH1 0x60 PUSH2 0x1B4E DUP11 DUP3 DUP12 ADD PUSH2 0x195C JUMP JUMPDEST SWAP5 POP POP PUSH1 0x80 PUSH2 0x1B5F DUP11 DUP3 DUP12 ADD PUSH2 0x195C JUMP JUMPDEST SWAP4 POP POP PUSH1 0xA0 DUP9 ADD CALLDATALOAD PUSH8 0xFFFFFFFFFFFFFFFF DUP2 GT ISZERO PUSH2 0x1B80 JUMPI PUSH2 0x1B7F PUSH2 0x160A JUMP JUMPDEST JUMPDEST PUSH2 0x1B8C DUP11 DUP3 DUP12 ADD PUSH2 0x190D JUMP JUMPDEST SWAP3 POP POP PUSH1 0xC0 PUSH2 0x1B9D DUP11 DUP3 DUP12 ADD PUSH2 0x195C JUMP JUMPDEST SWAP2 POP POP SWAP3 SWAP6 SWAP9 SWAP2 SWAP5 SWAP8 POP SWAP3 SWAP6 POP JUMP JUMPDEST PUSH1 0x0 PUSH1 0x20 DUP3 DUP5 SUB SLT ISZERO PUSH2 0x1BC2 JUMPI PUSH2 0x1BC1 PUSH2 0x1605 JUMP JUMPDEST JUMPDEST PUSH1 0x0 PUSH2 0x1BD0 DUP5 DUP3 DUP6 ADD PUSH2 0x17A0 JUMP JUMPDEST SWAP2 POP POP SWAP3 SWAP2 POP POP JUMP JUMPDEST PUSH32 0x4E487B7100000000000000000000000000000000000000000000000000000000 PUSH1 0x0 MSTORE PUSH1 0x21 PUSH1 0x4 MSTORE PUSH1 0x24 PUSH1 0x0 REVERT JUMPDEST PUSH1 0x4 DUP2 LT PUSH2 0x1C19 JUMPI PUSH2 0x1C18 PUSH2 0x1BD9 JUMP JUMPDEST JUMPDEST POP JUMP JUMPDEST PUSH1 0x0 DUP2 SWAP1 POP PUSH2 0x1C2A DUP3 PUSH2 0x1C08 JUMP JUMPDEST SWAP2 SWAP1 POP JUMP JUMPDEST PUSH1 0x0 PUSH2 0x1C3A DUP3 PUSH2 0x1C1C JUMP JUMPDEST SWAP1 POP SWAP2 SWAP1 POP JUMP JUMPDEST PUSH2 0x1C4A DUP2 PUSH2 0x1C2F JUMP JUMPDEST DUP3 MSTORE POP POP JUMP JUMPDEST PUSH1 0x0 PUSH1 0x20 DUP3 ADD SWAP1 POP PUSH2 0x1C65 PUSH1 0x0 DUP4 ADD DUP5 PUSH2 0x1C41 JUMP JUMPDEST SWAP3 SWAP2 POP POP JUMP JUMPDEST PUSH1 0x0 DUP1 PUSH1 0x40 DUP4 DUP6 SUB SLT ISZERO PUSH2 0x1C82 JUMPI PUSH2 0x1C81 PUSH2 0x1605 JUMP JUMPDEST JUMPDEST PUSH1 0x0 PUSH2 0x1C90 DUP6 DUP3 DUP7 ADD PUSH2 0x17A0 JUMP JUMPDEST SWAP3 POP POP PUSH1 0x20 PUSH2 0x1CA1 DUP6 DUP3 DUP7 ADD PUSH2 0x195C JUMP JUMPDEST SWAP2 POP POP SWAP3 POP SWAP3 SWAP1 POP JUMP JUMPDEST PUSH1 0x0 DUP1 PUSH1 0x0 DUP1 PUSH1 0x80 DUP6 DUP8 SUB SLT ISZERO PUSH2 0x1CC5 JUMPI PUSH2 0x1CC4 PUSH2 0x1605 JUMP JUMPDEST JUMPDEST PUSH1 0x0 PUSH2 0x1CD3 DUP8 DUP3 DUP9 ADD PUSH2 0x17A0 JUMP JUMPDEST SWAP5 POP POP PUSH1 0x20 PUSH2 0x1CE4 DUP8 DUP3 DUP9 ADD PUSH2 0x1A04 JUMP JUMPDEST SWAP4 POP POP PUSH1 0x40 DUP6 ADD CALLDATALOAD PUSH8 0xFFFFFFFFFFFFFFFF DUP2 GT ISZERO PUSH2 0x1D05 JUMPI PUSH2 0x1D04 PUSH2 0x160A JUMP JUMPDEST JUMPDEST PUSH2 0x1D11 DUP8 DUP3 DUP9 ADD PUSH2 0x190D JUMP JUMPDEST SWAP3 POP POP PUSH1 0x60 PUSH2 0x1D22 DUP8 DUP3 DUP9 ADD PUSH2 0x195C JUMP JUMPDEST SWAP2 POP POP SWAP3 SWAP6 SWAP2 SWAP5 POP SWAP3 POP JUMP JUMPDEST PUSH1 0x0 DUP3 DUP3 MSTORE PUSH1 0x20 DUP3 ADD SWAP1 POP SWAP3 SWAP2 POP POP JUMP JUMPDEST PUSH32 0x416363657373436F6E74726F6C3A2063616E206F6E6C792072656E6F756E6365 PUSH1 0x0 DUP3 ADD MSTORE PUSH32 0x20726F6C657320666F722073656C660000000000000000000000000000000000 PUSH1 0x20 DUP3 ADD MSTORE POP JUMP JUMPDEST PUSH1 0x0 PUSH2 0x1D9B PUSH1 0x2F DUP4 PUSH2 0x1D2E JUMP JUMPDEST SWAP2 POP PUSH2 0x1DA6 DUP3 PUSH2 0x1D3F JUMP JUMPDEST PUSH1 0x40 DUP3 ADD SWAP1 POP SWAP2 SWAP1 POP JUMP JUMPDEST PUSH1 0x0 PUSH1 0x20 DUP3 ADD SWAP1 POP DUP2 DUP2 SUB PUSH1 0x0 DUP4 ADD MSTORE PUSH2 0x1DCA DUP2 PUSH2 0x1D8E JUMP JUMPDEST SWAP1 POP SWAP2 SWAP1 POP JUMP JUMPDEST PUSH2 0x1DDA DUP2 PUSH2 0x1777 JUMP JUMPDEST DUP3 MSTORE POP POP JUMP JUMPDEST PUSH1 0x0 PUSH1 0x40 DUP3 ADD SWAP1 POP PUSH2 0x1DF5 PUSH1 0x0 DUP4 ADD DUP6 PUSH2 0x16D4 JUMP JUMPDEST PUSH2 0x1E02 PUSH1 0x20 DUP4 ADD DUP5 PUSH2 0x1DD1 JUMP JUMPDEST SWAP4 SWAP3 POP POP POP JUMP JUMPDEST PUSH32 0x416363657373436F6E74726F6C3A2063616C6C6572206973206E6F7420616E20 PUSH1 0x0 DUP3 ADD MSTORE PUSH32 0x61646D696E000000000000000000000000000000000000000000000000000000 PUSH1 0x20 DUP3 ADD MSTORE POP JUMP JUMPDEST PUSH1 0x0 PUSH2 0x1E65 PUSH1 0x25 DUP4 PUSH2 0x1D2E JUMP JUMPDEST SWAP2 POP PUSH2 0x1E70 DUP3 PUSH2 0x1E09 JUMP JUMPDEST PUSH1 0x40 DUP3 ADD SWAP1 POP SWAP2 SWAP1 POP JUMP JUMPDEST PUSH1 0x0 PUSH1 0x20 DUP3 ADD SWAP1 POP DUP2 DUP2 SUB PUSH1 0x0 DUP4 ADD MSTORE PUSH2 0x1E94 DUP2 PUSH2 0x1E58 JUMP JUMPDEST SWAP1 POP SWAP2 SWAP1 POP JUMP JUMPDEST PUSH2 0x1EA4 DUP2 PUSH2 0x193B JUMP JUMPDEST DUP3 MSTORE POP POP JUMP JUMPDEST PUSH1 0x0 PUSH1 0x60 DUP3 ADD SWAP1 POP PUSH2 0x1EBF PUSH1 0x0 DUP4 ADD DUP7 PUSH2 0x1DD1 JUMP JUMPDEST PUSH2 0x1ECC PUSH1 0x20 DUP4 ADD DUP6 PUSH2 0x1E9B JUMP JUMPDEST PUSH2 0x1ED9 PUSH1 0x40 DUP4 ADD DUP5 PUSH2 0x1C41 JUMP JUMPDEST SWAP5 SWAP4 POP POP POP POP JUMP JUMPDEST PUSH32 0x556E617574686F72697A65640000000000000000000000000000000000000000 PUSH1 0x0 DUP3 ADD MSTORE POP JUMP JUMPDEST PUSH1 0x0 PUSH2 0x1F17 PUSH1 0xC DUP4 PUSH2 0x1D2E JUMP JUMPDEST SWAP2 POP PUSH2 0x1F22 DUP3 PUSH2 0x1EE1 JUMP JUMPDEST PUSH1 0x20 DUP3 ADD SWAP1 POP SWAP2 SWAP1 POP JUMP JUMPDEST PUSH1 0x0 PUSH1 0x20 DUP3 ADD SWAP1 POP DUP2 DUP2 SUB PUSH1 0x0 DUP4 ADD MSTORE PUSH2 0x1F46 DUP2 PUSH2 0x1F0A JUMP JUMPDEST SWAP1 POP SWAP2 SWAP1 POP JUMP JUMPDEST PUSH1 0x0 DUP2 SWAP1 POP SWAP2 SWAP1 POP JUMP JUMPDEST PUSH1 0x0 PUSH2 0x1F72 PUSH2 0x1F6D PUSH2 0x1F68 DUP5 PUSH2 0x1757 JUMP JUMPDEST PUSH2 0x1F4D JUMP JUMPDEST PUSH2 0x1757 JUMP JUMPDEST SWAP1 POP SWAP2 SWAP1 POP JUMP JUMPDEST PUSH1 0x0 PUSH2 0x1F84 DUP3 PUSH2 0x1F57 JUMP JUMPDEST SWAP1 POP SWAP2 SWAP1 POP JUMP JUMPDEST PUSH1 0x0 PUSH2 0x1F96 DUP3 PUSH2 0x1F79 JUMP JUMPDEST SWAP1 POP SWAP2 SWAP1 POP JUMP JUMPDEST PUSH2 0x1FA6 DUP2 PUSH2 0x1F8B JUMP JUMPDEST DUP3 MSTORE POP POP JUMP JUMPDEST PUSH1 0x0 PUSH1 0xA0 DUP3 ADD SWAP1 POP PUSH2 0x1FC1 PUSH1 0x0 DUP4 ADD DUP9 PUSH2 0x1F9D JUMP JUMPDEST PUSH2 0x1FCE PUSH1 0x20 DUP4 ADD DUP8 PUSH2 0x1DD1 JUMP JUMPDEST PUSH2 0x1FDB PUSH1 0x40 DUP4 ADD DUP7 PUSH2 0x1DD1 JUMP JUMPDEST PUSH2 0x1FE8 PUSH1 0x60 DUP4 ADD DUP6 PUSH2 0x1E9B JUMP JUMPDEST PUSH2 0x1FF5 PUSH1 0x80 DUP4 ADD DUP5 PUSH2 0x1E9B JUMP JUMPDEST SWAP7 SWAP6 POP POP POP POP POP POP JUMP JUMPDEST PUSH1 0x0 DUP3 DUP3 MSTORE PUSH1 0x20 DUP3 ADD SWAP1 POP SWAP3 SWAP2 POP POP JUMP JUMPDEST POP JUMP JUMPDEST PUSH1 0x0 PUSH2 0x2020 PUSH1 0x0 DUP4 PUSH2 0x1FFF JUMP JUMPDEST SWAP2 POP PUSH2 0x202B DUP3 PUSH2 0x2010 JUMP JUMPDEST PUSH1 0x0 DUP3 ADD SWAP1 POP SWAP2 SWAP1 POP JUMP JUMPDEST PUSH1 0x0 PUSH1 0xA0 DUP3 ADD SWAP1 POP PUSH2 0x204B PUSH1 0x0 DUP4 ADD DUP8 PUSH2 0x1DD1 JUMP JUMPDEST PUSH2 0x2058 PUSH1 0x20 DUP4 ADD DUP7 PUSH2 0x1DD1 JUMP JUMPDEST PUSH2 0x2065 PUSH1 0x40 DUP4 ADD DUP6 PUSH2 0x1E9B JUMP JUMPDEST PUSH2 0x2072 PUSH1 0x60 DUP4 ADD DUP5 PUSH2 0x1E9B JUMP JUMPDEST DUP2 DUP2 SUB PUSH1 0x80 DUP4 ADD MSTORE PUSH2 0x2083 DUP2 PUSH2 0x2013 JUMP JUMPDEST SWAP1 POP SWAP6 SWAP5 POP POP POP POP POP JUMP JUMPDEST PUSH1 0x0 PUSH1 0x40 DUP3 ADD SWAP1 POP PUSH2 0x20A3 PUSH1 0x0 DUP4 ADD DUP6 PUSH2 0x1DD1 JUMP JUMPDEST PUSH2 0x20B0 PUSH1 0x20 DUP4 ADD DUP5 PUSH2 0x1C41 JUMP JUMPDEST SWAP4 SWAP3 POP POP POP JUMP JUMPDEST PUSH1 0x0 DUP2 SWAP1 POP SWAP3 SWAP2 POP POP JUMP JUMPDEST PUSH32 0x416363657373436F6E74726F6C3A206163636F756E7420000000000000000000 PUSH1 0x0 DUP3 ADD MSTORE POP JUMP JUMPDEST PUSH1 0x0 PUSH2 0x20F8 PUSH1 0x17 DUP4 PUSH2 0x20B7 JUMP JUMPDEST SWAP2 POP PUSH2 0x2103 DUP3 PUSH2 0x20C2 JUMP JUMPDEST PUSH1 0x17 DUP3 ADD SWAP1 POP SWAP2 SWAP1 POP JUMP JUMPDEST PUSH1 0x0 DUP2 MLOAD SWAP1 POP SWAP2 SWAP1 POP JUMP JUMPDEST PUSH1 0x0 JUMPDEST DUP4 DUP2 LT ISZERO PUSH2 0x2137 JUMPI DUP1 DUP3 ADD MLOAD DUP2 DUP5 ADD MSTORE PUSH1 0x20 DUP2 ADD SWAP1 POP PUSH2 0x211C JUMP JUMPDEST PUSH1 0x0 DUP5 DUP5 ADD MSTORE POP POP POP POP JUMP JUMPDEST PUSH1 0x0 PUSH2 0x214E DUP3 PUSH2 0x210E JUMP JUMPDEST PUSH2 0x2158 DUP2 DUP6 PUSH2 0x20B7 JUMP JUMPDEST SWAP4 POP PUSH2 0x2168 DUP2 DUP6 PUSH1 0x20 DUP7 ADD PUSH2 0x2119 JUMP JUMPDEST DUP1 DUP5 ADD SWAP2 POP POP SWAP3 SWAP2 POP POP JUMP JUMPDEST PUSH32 0x206973206D697373696E6720726F6C6520000000000000000000000000000000 PUSH1 0x0 DUP3 ADD MSTORE POP JUMP JUMPDEST PUSH1 0x0 PUSH2 0x21AA PUSH1 0x11 DUP4 PUSH2 0x20B7 JUMP JUMPDEST SWAP2 POP PUSH2 0x21B5 DUP3 PUSH2 0x2174 JUMP JUMPDEST PUSH1 0x11 DUP3 ADD SWAP1 POP SWAP2 SWAP1 POP JUMP JUMPDEST PUSH1 0x0 PUSH2 0x21CB DUP3 PUSH2 0x20EB JUMP JUMPDEST SWAP2 POP PUSH2 0x21D7 DUP3 DUP6 PUSH2 0x2143 JUMP JUMPDEST SWAP2 POP PUSH2 0x21E2 DUP3 PUSH2 0x219D JUMP JUMPDEST SWAP2 POP PUSH2 0x21EE DUP3 DUP5 PUSH2 0x2143 JUMP JUMPDEST SWAP2 POP DUP2 SWAP1 POP SWAP4 SWAP3 POP POP POP JUMP JUMPDEST PUSH1 0x0 PUSH2 0x2205 DUP3 PUSH2 0x210E JUMP JUMPDEST PUSH2 0x220F DUP2 DUP6 PUSH2 0x1D2E JUMP JUMPDEST SWAP4 POP PUSH2 0x221F DUP2 DUP6 PUSH1 0x20 DUP7 ADD PUSH2 0x2119 JUMP JUMPDEST PUSH2 0x2228 DUP2 PUSH2 0x17FF JUMP JUMPDEST DUP5 ADD SWAP2 POP POP SWAP3 SWAP2 POP POP JUMP JUMPDEST PUSH1 0x0 PUSH1 0x20 DUP3 ADD SWAP1 POP DUP2 DUP2 SUB PUSH1 0x0 DUP4 ADD MSTORE PUSH2 0x224D DUP2 DUP5 PUSH2 0x21FA JUMP JUMPDEST SWAP1 POP SWAP3 SWAP2 POP POP JUMP JUMPDEST PUSH32 0x5369676E61747572652068617320657870697265640000000000000000000000 PUSH1 0x0 DUP3 ADD MSTORE POP JUMP JUMPDEST PUSH1 0x0 PUSH2 0x228B PUSH1 0x15 DUP4 PUSH2 0x1D2E JUMP JUMPDEST SWAP2 POP PUSH2 0x2296 DUP3 PUSH2 0x2255 JUMP JUMPDEST PUSH1 0x20 DUP3 ADD SWAP1 POP SWAP2 SWAP1 POP JUMP JUMPDEST PUSH1 0x0 PUSH1 0x20 DUP3 ADD SWAP1 POP DUP2 DUP2 SUB PUSH1 0x0 DUP4 ADD MSTORE PUSH2 0x22BA DUP2 PUSH2 0x227E JUMP JUMPDEST SWAP1 POP SWAP2 SWAP1 POP JUMP JUMPDEST PUSH1 0x0 DUP2 PUSH1 0x60 SHL SWAP1 POP SWAP2 SWAP1 POP JUMP JUMPDEST PUSH1 0x0 PUSH2 0x22D9 DUP3 PUSH2 0x22C1 JUMP JUMPDEST SWAP1 POP SWAP2 SWAP1 POP JUMP JUMPDEST PUSH1 0x0 PUSH2 0x22EB DUP3 PUSH2 0x22CE JUMP JUMPDEST SWAP1 POP SWAP2 SWAP1 POP JUMP JUMPDEST PUSH2 0x2303 PUSH2 0x22FE DUP3 PUSH2 0x1777 JUMP JUMPDEST PUSH2 0x22E0 JUMP JUMPDEST DUP3 MSTORE POP POP JUMP JUMPDEST PUSH1 0x0 DUP2 SWAP1 POP SWAP2 SWAP1 POP JUMP JUMPDEST PUSH2 0x2324 PUSH2 0x231F DUP3 PUSH2 0x193B JUMP JUMPDEST PUSH2 0x2309 JUMP JUMPDEST DUP3 MSTORE POP POP JUMP JUMPDEST PUSH1 0x0 DUP2 MLOAD SWAP1 POP SWAP2 SWAP1 POP JUMP JUMPDEST PUSH1 0x0 DUP2 SWAP1 POP SWAP3 SWAP2 POP POP JUMP JUMPDEST PUSH1 0x0 PUSH2 0x234B DUP3 PUSH2 0x232A JUMP JUMPDEST PUSH2 0x2355 DUP2 DUP6 PUSH2 0x2335 JUMP JUMPDEST SWAP4 POP PUSH2 0x2365 DUP2 DUP6 PUSH1 0x20 DUP7 ADD PUSH2 0x2119 JUMP JUMPDEST DUP1 DUP5 ADD SWAP2 POP POP SWAP3 SWAP2 POP POP JUMP JUMPDEST PUSH1 0x0 PUSH2 0x237D DUP3 DUP8 PUSH2 0x22F2 JUMP JUMPDEST PUSH1 0x14 DUP3 ADD SWAP2 POP PUSH2 0x238D DUP3 DUP7 PUSH2 0x2313 JUMP JUMPDEST PUSH1 0x20 DUP3 ADD SWAP2 POP PUSH2 0x239D DUP3 DUP6 PUSH2 0x2143 JUMP JUMPDEST SWAP2 POP PUSH2 0x23A9 DUP3 DUP5 PUSH2 0x2340 JUMP JUMPDEST SWAP2 POP DUP2 SWAP1 POP SWAP6 SWAP5 POP POP POP POP POP JUMP JUMPDEST PUSH32 0x4E487B7100000000000000000000000000000000000000000000000000000000 PUSH1 0x0 MSTORE PUSH1 0x11 PUSH1 0x4 MSTORE PUSH1 0x24 PUSH1 0x0 REVERT JUMPDEST PUSH1 0x0 PUSH2 0x23F1 DUP3 PUSH2 0x193B JUMP JUMPDEST SWAP2 POP PUSH2 0x23FC DUP4 PUSH2 0x193B JUMP JUMPDEST SWAP3 POP DUP3 DUP3 MUL PUSH2 0x240A DUP2 PUSH2 0x193B JUMP JUMPDEST SWAP2 POP DUP3 DUP3 DIV DUP5 EQ DUP4 ISZERO OR PUSH2 0x2421 JUMPI PUSH2 0x2420 PUSH2 0x23B7 JUMP JUMPDEST JUMPDEST POP SWAP3 SWAP2 POP POP JUMP JUMPDEST PUSH1 0x0 PUSH2 0x2433 DUP3 PUSH2 0x193B JUMP JUMPDEST SWAP2 POP PUSH2 0x243E DUP4 PUSH2 0x193B JUMP JUMPDEST SWAP3 POP DUP3 DUP3 ADD SWAP1 POP DUP1 DUP3 GT ISZERO PUSH2 0x2456 JUMPI PUSH2 0x2455 PUSH2 0x23B7 JUMP JUMPDEST JUMPDEST SWAP3 SWAP2 POP POP JUMP JUMPDEST PUSH32 0x4E487B7100000000000000000000000000000000000000000000000000000000 PUSH1 0x0 MSTORE PUSH1 0x32 PUSH1 0x4 MSTORE PUSH1 0x24 PUSH1 0x0 REVERT JUMPDEST PUSH1 0x0 PUSH2 0x2496 DUP3 PUSH2 0x193B JUMP JUMPDEST SWAP2 POP PUSH1 0x0 DUP3 SUB PUSH2 0x24A9 JUMPI PUSH2 0x24A8 PUSH2 0x23B7 JUMP JUMPDEST JUMPDEST PUSH1 0x1 DUP3 SUB SWAP1 POP SWAP2 SWAP1 POP JUMP JUMPDEST PUSH32 0x537472696E67733A20686578206C656E67746820696E73756666696369656E74 PUSH1 0x0 DUP3 ADD MSTORE POP JUMP JUMPDEST PUSH1 0x0 PUSH2 0x24EA PUSH1 0x20 DUP4 PUSH2 0x1D2E JUMP JUMPDEST SWAP2 POP PUSH2 0x24F5 DUP3 PUSH2 0x24B4 JUMP JUMPDEST PUSH1 0x20 DUP3 ADD SWAP1 POP SWAP2 SWAP1 POP JUMP JUMPDEST PUSH1 0x0 PUSH1 0x20 DUP3 ADD SWAP1 POP DUP2 DUP2 SUB PUSH1 0x0 DUP4 ADD MSTORE PUSH2 0x2519 DUP2 PUSH2 0x24DD JUMP JUMPDEST SWAP1 POP SWAP2 SWAP1 POP JUMP JUMPDEST PUSH32 0x45434453413A20696E76616C6964207369676E61747572650000000000000000 PUSH1 0x0 DUP3 ADD MSTORE POP JUMP JUMPDEST PUSH1 0x0 PUSH2 0x2556 PUSH1 0x18 DUP4 PUSH2 0x1D2E JUMP JUMPDEST SWAP2 POP PUSH2 0x2561 DUP3 PUSH2 0x2520 JUMP JUMPDEST PUSH1 0x20 DUP3 ADD SWAP1 POP SWAP2 SWAP1 POP JUMP JUMPDEST PUSH1 0x0 PUSH1 0x20 DUP3 ADD SWAP1 POP DUP2 DUP2 SUB PUSH1 0x0 DUP4 ADD MSTORE PUSH2 0x2585 DUP2 PUSH2 0x2549 JUMP JUMPDEST SWAP1 POP SWAP2 SWAP1 POP JUMP JUMPDEST PUSH32 0x45434453413A20696E76616C6964207369676E6174757265206C656E67746800 PUSH1 0x0 DUP3 ADD MSTORE POP JUMP JUMPDEST PUSH1 0x0 PUSH2 0x25C2 PUSH1 0x1F DUP4 PUSH2 0x1D2E JUMP JUMPDEST SWAP2 POP PUSH2 0x25CD DUP3 PUSH2 0x258C JUMP JUMPDEST PUSH1 0x20 DUP3 ADD SWAP1 POP SWAP2 SWAP1 POP JUMP JUMPDEST PUSH1 0x0 PUSH1 0x20 DUP3 ADD SWAP1 POP DUP2 DUP2 SUB PUSH1 0x0 DUP4 ADD MSTORE PUSH2 0x25F1 DUP2 PUSH2 0x25B5 JUMP JUMPDEST SWAP1 POP SWAP2 SWAP1 POP JUMP JUMPDEST PUSH32 0x45434453413A20696E76616C6964207369676E6174757265202773272076616C PUSH1 0x0 DUP3 ADD MSTORE PUSH32 0x7565000000000000000000000000000000000000000000000000000000000000 PUSH1 0x20 DUP3 ADD MSTORE POP JUMP JUMPDEST PUSH1 0x0 PUSH2 0x2654 PUSH1 0x22 DUP4 PUSH2 0x1D2E JUMP JUMPDEST SWAP2 POP PUSH2 0x265F DUP3 PUSH2 0x25F8 JUMP JUMPDEST PUSH1 0x40 DUP3 ADD SWAP1 POP SWAP2 SWAP1 POP JUMP JUMPDEST PUSH1 0x0 PUSH1 0x20 DUP3 ADD SWAP1 POP DUP2 DUP2 SUB PUSH1 0x0 DUP4 ADD MSTORE PUSH2 0x2683 DUP2 PUSH2 0x2647 JUMP JUMPDEST SWAP1 POP SWAP2 SWAP1 POP JUMP JUMPDEST PUSH1 0x0 PUSH1 0xFF DUP3 AND SWAP1 POP SWAP2 SWAP1 POP JUMP JUMPDEST PUSH2 0x26A0 DUP2 PUSH2 0x268A JUMP JUMPDEST DUP3 MSTORE POP POP JUMP JUMPDEST PUSH1 0x0 PUSH1 0x80 DUP3 ADD SWAP1 POP PUSH2 0x26BB PUSH1 0x0 DUP4 ADD DUP8 PUSH2 0x16D4 JUMP JUMPDEST PUSH2 0x26C8 PUSH1 0x20 DUP4 ADD DUP7 PUSH2 0x2697 JUMP JUMPDEST PUSH2 0x26D5 PUSH1 0x40 DUP4 ADD DUP6 PUSH2 0x16D4 JUMP JUMPDEST PUSH2 0x26E2 PUSH1 0x60 DUP4 ADD DUP5 PUSH2 0x16D4 JUMP JUMPDEST SWAP6 SWAP5 POP POP POP POP POP JUMP INVALID LOG2 PUSH5 0x6970667358 0x22 SLT KECCAK256 0x2F 0xE7 EXTCODEHASH SMOD 0xEA SWAP6 0xE9 0xB0 0xE5 0xBF 0xDD 0xDC SWAP7 RETURNDATASIZE SSTORE 0xCF PUSH4 0xAC87CE0A CALLDATASIZE RETURN DUP1 JUMPI SWAP10 PUSH19 0xA2AEFEDA3E64736F6C63430008110033000000 "},"methodIdentifiers":{"ADMIN_ROLE()":"75b238fc","DEFAULT_ADMIN_ROLE()":"a217fddf","TRANSFER_ROLE()":"206b60f9","canRead(address,uint256)":"ffad9950","canWrite(address,uint256)":"ff2ff6c9","defaultPermissions(address)":"8f28f50e","getEffectivePermission(address,uint256)":"c0eb89b2","getRoleAdmin(bytes32)":"248a9ca3","grantRole(bytes32,address)":"2f2ff15d","grantRole(bytes32,address,bytes,uint256)":"589b21c0","hasRole(bytes32,address)":"91d14854","isAdmin(address,uint256)":"e62092be","permissions(address,uint256)":"e9d79b0e","renounceRole(bytes32,address)":"36568abe","revokeRole(bytes32,address)":"d547741f","revokeRole(bytes32,address,bytes,uint256)":"e4968695","setDefaultPermission(address,uint8,bytes,uint256)":"f555e020","setPermission(address,uint256,uint8,bytes,uint256)":"62567a1a","supportsInterface(bytes4)":"01ffc9a7","transferNFT(address,address,address,uint256,uint256,bytes,uint256)":"806c87af"}}}}}