{
  "_format": "hh-sol-artifact-1",
  "contractName": "ShareInvites",
  "sourceName": "contracts/CShareInvites.sol",
  "abi": [
    {
      "inputs": [
        {
          "internalType": "address",
          "name": "entityManagerContract",
          "type": "address"
        }
      ],
      "stateMutability": "nonpayable",
      "type": "constructor"
    },
    {
      "inputs": [
        {
          "internalType": "bytes",
          "name": "error",
          "type": "bytes"
        }
      ],
      "name": "ERC1271Revert",
      "type": "error"
    },
    {
      "inputs": [
        {
          "internalType": "bytes",
          "name": "error",
          "type": "bytes"
        }
      ],
      "name": "ERC6492DeployFailed",
      "type": "error"
    },
    {
      "anonymous": false,
      "inputs": [
        {
          "indexed": true,
          "internalType": "address",
          "name": "owner",
          "type": "address"
        },
        {
          "indexed": true,
          "internalType": "address",
          "name": "approved",
          "type": "address"
        },
        {
          "indexed": true,
          "internalType": "uint256",
          "name": "tokenId",
          "type": "uint256"
        }
      ],
      "name": "Approval",
      "type": "event"
    },
    {
      "anonymous": false,
      "inputs": [
        {
          "indexed": true,
          "internalType": "address",
          "name": "owner",
          "type": "address"
        },
        {
          "indexed": true,
          "internalType": "address",
          "name": "operator",
          "type": "address"
        },
        {
          "indexed": false,
          "internalType": "bool",
          "name": "approved",
          "type": "bool"
        }
      ],
      "name": "ApprovalForAll",
      "type": "event"
    },
    {
      "anonymous": false,
      "inputs": [
        {
          "indexed": false,
          "internalType": "uint256",
          "name": "inviteId",
          "type": "uint256"
        },
        {
          "indexed": false,
          "internalType": "address",
          "name": "acceptedBy",
          "type": "address"
        }
      ],
      "name": "InviteAccepted",
      "type": "event"
    },
    {
      "anonymous": false,
      "inputs": [
        {
          "indexed": false,
          "internalType": "uint256",
          "name": "inviteId",
          "type": "uint256"
        },
        {
          "indexed": false,
          "internalType": "address",
          "name": "declinedBy",
          "type": "address"
        }
      ],
      "name": "InviteDeclined",
      "type": "event"
    },
    {
      "anonymous": false,
      "inputs": [
        {
          "indexed": false,
          "internalType": "uint256",
          "name": "inviteId",
          "type": "uint256"
        },
        {
          "indexed": false,
          "internalType": "address",
          "name": "revokedBy",
          "type": "address"
        }
      ],
      "name": "InviteRevoked",
      "type": "event"
    },
    {
      "anonymous": false,
      "inputs": [
        {
          "indexed": false,
          "internalType": "address",
          "name": "from",
          "type": "address"
        },
        {
          "indexed": false,
          "internalType": "uint256",
          "name": "externalOrgOrTeamId",
          "type": "uint256"
        },
        {
          "indexed": false,
          "internalType": "uint256",
          "name": "sourceEntityId",
          "type": "uint256"
        },
        {
          "indexed": false,
          "internalType": "uint8",
          "name": "baseSharePerms",
          "type": "uint8"
        },
        {
          "indexed": false,
          "internalType": "enum IShareInvites.EShareInviteStatus",
          "name": "status",
          "type": "uint8"
        }
      ],
      "name": "InviteSent",
      "type": "event"
    },
    {
      "anonymous": false,
      "inputs": [
        {
          "indexed": true,
          "internalType": "address",
          "name": "previousOwner",
          "type": "address"
        },
        {
          "indexed": true,
          "internalType": "address",
          "name": "newOwner",
          "type": "address"
        }
      ],
      "name": "OwnershipTransferred",
      "type": "event"
    },
    {
      "anonymous": false,
      "inputs": [
        {
          "indexed": true,
          "internalType": "address",
          "name": "from",
          "type": "address"
        },
        {
          "indexed": true,
          "internalType": "address",
          "name": "to",
          "type": "address"
        },
        {
          "indexed": true,
          "internalType": "uint256",
          "name": "tokenId",
          "type": "uint256"
        }
      ],
      "name": "Transfer",
      "type": "event"
    },
    {
      "inputs": [
        {
          "internalType": "address",
          "name": "node",
          "type": "address"
        }
      ],
      "name": "_nodes",
      "outputs": [
        {
          "internalType": "bool",
          "name": "isNode",
          "type": "bool"
        }
      ],
      "stateMutability": "view",
      "type": "function"
    },
    {
      "inputs": [
        {
          "internalType": "uint256",
          "name": "_inviteId",
          "type": "uint256"
        }
      ],
      "name": "acceptInvite",
      "outputs": [],
      "stateMutability": "nonpayable",
      "type": "function"
    },
    {
      "inputs": [
        {
          "internalType": "address",
          "name": "node",
          "type": "address"
        }
      ],
      "name": "addNode",
      "outputs": [],
      "stateMutability": "nonpayable",
      "type": "function"
    },
    {
      "inputs": [
        {
          "internalType": "address",
          "name": "to",
          "type": "address"
        },
        {
          "internalType": "uint256",
          "name": "tokenId",
          "type": "uint256"
        }
      ],
      "name": "approve",
      "outputs": [],
      "stateMutability": "nonpayable",
      "type": "function"
    },
    {
      "inputs": [
        {
          "internalType": "address",
          "name": "owner",
          "type": "address"
        }
      ],
      "name": "balanceOf",
      "outputs": [
        {
          "internalType": "uint256",
          "name": "",
          "type": "uint256"
        }
      ],
      "stateMutability": "view",
      "type": "function"
    },
    {
      "inputs": [
        {
          "components": [
            {
              "internalType": "bytes",
              "name": "encodedMessage",
              "type": "bytes"
            },
            {
              "internalType": "bytes32",
              "name": "messageHash",
              "type": "bytes32"
            },
            {
              "internalType": "bytes",
              "name": "signature",
              "type": "bytes"
            },
            {
              "internalType": "address",
              "name": "signer",
              "type": "address"
            }
          ],
          "internalType": "struct SignatureVerifier.Signature",
          "name": "_signature",
          "type": "tuple"
        }
      ],
      "name": "checkSignature",
      "outputs": [
        {
          "components": [
            {
              "internalType": "uint256",
              "name": "blockNumber",
              "type": "uint256"
            },
            {
              "internalType": "address",
              "name": "nodeAddress",
              "type": "address"
            }
          ],
          "internalType": "struct SignatureVerifier.EncodedMessage",
          "name": "",
          "type": "tuple"
        }
      ],
      "stateMutability": "nonpayable",
      "type": "function"
    },
    {
      "inputs": [
        {
          "internalType": "uint256",
          "name": "_inviteId",
          "type": "uint256"
        }
      ],
      "name": "declineInvite",
      "outputs": [],
      "stateMutability": "nonpayable",
      "type": "function"
    },
    {
      "inputs": [
        {
          "components": [
            {
              "internalType": "bytes",
              "name": "encodedMessage",
              "type": "bytes"
            },
            {
              "internalType": "bytes32",
              "name": "messageHash",
              "type": "bytes32"
            },
            {
              "internalType": "bytes",
              "name": "signature",
              "type": "bytes"
            },
            {
              "internalType": "address",
              "name": "signer",
              "type": "address"
            }
          ],
          "internalType": "struct SignatureVerifier.Signature",
          "name": "signature",
          "type": "tuple"
        },
        {
          "internalType": "bytes[]",
          "name": "_calldata",
          "type": "bytes[]"
        }
      ],
      "name": "delegateCallsToSelf",
      "outputs": [],
      "stateMutability": "nonpayable",
      "type": "function"
    },
    {
      "inputs": [],
      "name": "entities",
      "outputs": [
        {
          "internalType": "address",
          "name": "",
          "type": "address"
        }
      ],
      "stateMutability": "view",
      "type": "function"
    },
    {
      "inputs": [
        {
          "internalType": "uint256",
          "name": "tokenId",
          "type": "uint256"
        }
      ],
      "name": "getApproved",
      "outputs": [
        {
          "internalType": "address",
          "name": "",
          "type": "address"
        }
      ],
      "stateMutability": "view",
      "type": "function"
    },
    {
      "inputs": [],
      "name": "getParent",
      "outputs": [
        {
          "internalType": "address",
          "name": "",
          "type": "address"
        }
      ],
      "stateMutability": "view",
      "type": "function"
    },
    {
      "inputs": [],
      "name": "getTotalSupply",
      "outputs": [
        {
          "internalType": "uint256",
          "name": "",
          "type": "uint256"
        }
      ],
      "stateMutability": "view",
      "type": "function"
    },
    {
      "inputs": [
        {
          "internalType": "uint256",
          "name": "invite",
          "type": "uint256"
        }
      ],
      "name": "invites",
      "outputs": [
        {
          "internalType": "uint256",
          "name": "tokenId",
          "type": "uint256"
        },
        {
          "internalType": "address",
          "name": "from",
          "type": "address"
        },
        {
          "internalType": "uint256",
          "name": "externalOrgOrTeamId",
          "type": "uint256"
        },
        {
          "internalType": "uint256",
          "name": "sourceEntityId",
          "type": "uint256"
        },
        {
          "internalType": "uint8",
          "name": "baseSharePerms",
          "type": "uint8"
        },
        {
          "internalType": "enum IShareInvites.EShareInviteStatus",
          "name": "status",
          "type": "uint8"
        }
      ],
      "stateMutability": "view",
      "type": "function"
    },
    {
      "inputs": [
        {
          "internalType": "address",
          "name": "owner",
          "type": "address"
        },
        {
          "internalType": "address",
          "name": "operator",
          "type": "address"
        }
      ],
      "name": "isApprovedForAll",
      "outputs": [
        {
          "internalType": "bool",
          "name": "",
          "type": "bool"
        }
      ],
      "stateMutability": "view",
      "type": "function"
    },
    {
      "inputs": [
        {
          "internalType": "address",
          "name": "node",
          "type": "address"
        }
      ],
      "name": "isNode",
      "outputs": [
        {
          "internalType": "bool",
          "name": "",
          "type": "bool"
        }
      ],
      "stateMutability": "view",
      "type": "function"
    },
    {
      "inputs": [],
      "name": "name",
      "outputs": [
        {
          "internalType": "string",
          "name": "",
          "type": "string"
        }
      ],
      "stateMutability": "view",
      "type": "function"
    },
    {
      "inputs": [],
      "name": "owner",
      "outputs": [
        {
          "internalType": "address",
          "name": "",
          "type": "address"
        }
      ],
      "stateMutability": "view",
      "type": "function"
    },
    {
      "inputs": [
        {
          "internalType": "uint256",
          "name": "tokenId",
          "type": "uint256"
        }
      ],
      "name": "ownerOf",
      "outputs": [
        {
          "internalType": "address",
          "name": "",
          "type": "address"
        }
      ],
      "stateMutability": "view",
      "type": "function"
    },
    {
      "inputs": [],
      "name": "renounceOwnership",
      "outputs": [],
      "stateMutability": "nonpayable",
      "type": "function"
    },
    {
      "inputs": [
        {
          "internalType": "uint256",
          "name": "_inviteId",
          "type": "uint256"
        }
      ],
      "name": "revokeInvite",
      "outputs": [],
      "stateMutability": "nonpayable",
      "type": "function"
    },
    {
      "inputs": [
        {
          "internalType": "address",
          "name": "from",
          "type": "address"
        },
        {
          "internalType": "address",
          "name": "to",
          "type": "address"
        },
        {
          "internalType": "uint256",
          "name": "tokenId",
          "type": "uint256"
        }
      ],
      "name": "safeTransferFrom",
      "outputs": [],
      "stateMutability": "nonpayable",
      "type": "function"
    },
    {
      "inputs": [
        {
          "internalType": "address",
          "name": "from",
          "type": "address"
        },
        {
          "internalType": "address",
          "name": "to",
          "type": "address"
        },
        {
          "internalType": "uint256",
          "name": "tokenId",
          "type": "uint256"
        },
        {
          "internalType": "bytes",
          "name": "data",
          "type": "bytes"
        }
      ],
      "name": "safeTransferFrom",
      "outputs": [],
      "stateMutability": "nonpayable",
      "type": "function"
    },
    {
      "inputs": [
        {
          "internalType": "uint256",
          "name": "_externalOrgOrTeamId",
          "type": "uint256"
        },
        {
          "internalType": "uint256",
          "name": "_sourceEntityId",
          "type": "uint256"
        },
        {
          "internalType": "uint8",
          "name": "_baseSharePerms",
          "type": "uint8"
        }
      ],
      "name": "sendInvite",
      "outputs": [],
      "stateMutability": "nonpayable",
      "type": "function"
    },
    {
      "inputs": [
        {
          "internalType": "address",
          "name": "_to",
          "type": "address"
        },
        {
          "internalType": "uint256",
          "name": "_sourceEntityId",
          "type": "uint256"
        },
        {
          "internalType": "uint8",
          "name": "_baseSharePerms",
          "type": "uint8"
        }
      ],
      "name": "sendInviteToIndividual",
      "outputs": [],
      "stateMutability": "nonpayable",
      "type": "function"
    },
    {
      "inputs": [
        {
          "internalType": "address",
          "name": "operator",
          "type": "address"
        },
        {
          "internalType": "bool",
          "name": "approved",
          "type": "bool"
        }
      ],
      "name": "setApprovalForAll",
      "outputs": [],
      "stateMutability": "nonpayable",
      "type": "function"
    },
    {
      "inputs": [
        {
          "internalType": "bytes4",
          "name": "interfaceId",
          "type": "bytes4"
        }
      ],
      "name": "supportsInterface",
      "outputs": [
        {
          "internalType": "bool",
          "name": "",
          "type": "bool"
        }
      ],
      "stateMutability": "view",
      "type": "function"
    },
    {
      "inputs": [],
      "name": "symbol",
      "outputs": [
        {
          "internalType": "string",
          "name": "",
          "type": "string"
        }
      ],
      "stateMutability": "view",
      "type": "function"
    },
    {
      "inputs": [
        {
          "internalType": "uint256",
          "name": "_inviteId",
          "type": "uint256"
        }
      ],
      "name": "testGrabInvite",
      "outputs": [],
      "stateMutability": "view",
      "type": "function"
    },
    {
      "inputs": [
        {
          "internalType": "uint256",
          "name": "tokenId",
          "type": "uint256"
        }
      ],
      "name": "tokenURI",
      "outputs": [
        {
          "internalType": "string",
          "name": "",
          "type": "string"
        }
      ],
      "stateMutability": "view",
      "type": "function"
    },
    {
      "inputs": [
        {
          "internalType": "address",
          "name": "from",
          "type": "address"
        },
        {
          "internalType": "address",
          "name": "to",
          "type": "address"
        },
        {
          "internalType": "uint256",
          "name": "tokenId",
          "type": "uint256"
        }
      ],
      "name": "transferFrom",
      "outputs": [],
      "stateMutability": "nonpayable",
      "type": "function"
    },
    {
      "inputs": [
        {
          "internalType": "address",
          "name": "newOwner",
          "type": "address"
        }
      ],
      "name": "transferOwnership",
      "outputs": [],
      "stateMutability": "nonpayable",
      "type": "function"
    }
  ],
  "bytecode": "0x60806040523480156200001157600080fd5b5060405162003c4038038062003c40833981016040819052620000349162000191565b806040518060400160405280600b81526020016a5368617265496e7669746560a81b81525060405180604001604052806002815260200161534960f01b815250620000866000620000f560201b60201c565b600162000094838262000268565b506002620000a3828262000268565b505050620000c0620000ba6200011760201b60201c565b6200013f565b600980546001600160a01b039283166001600160a01b031991821617909155600c805493909216921691909117905562000334565b600080546001600160a01b0319166001600160a01b0392909216919091179055565b600080546001600160a01b0316156200013a57506000546001600160a01b031690565b503390565b600880546001600160a01b038381166001600160a01b0319831681179093556040519116919082907f8be0079c531659141344cd1fd0a4f28419497f9722a3daafe3b4186f6b6457e090600090a35050565b600060208284031215620001a457600080fd5b81516001600160a01b0381168114620001bc57600080fd5b9392505050565b634e487b7160e01b600052604160045260246000fd5b600181811c90821680620001ee57607f821691505b6020821081036200020f57634e487b7160e01b600052602260045260246000fd5b50919050565b601f8211156200026357600081815260208120601f850160051c810160208610156200023e5750805b601f850160051c820191505b818110156200025f578281556001016200024a565b5050505b505050565b81516001600160401b03811115620002845762000284620001c3565b6200029c81620002958454620001d9565b8462000215565b602080601f831160018114620002d45760008415620002bb5750858301515b600019600386901b1c1916600185901b1785556200025f565b600085815260208120601f198616915b828110156200030557888601518255948401946001909101908401620002e4565b5085821015620003245787850151600019600388901b60f8161c191681555b5050505050600190811b01905550565b6138fc80620003446000396000f3fe608060405234801561001057600080fd5b50600436106101e55760003560e01c806380f760211161010f578063bf8e9176116100a2578063e293c61611610071578063e293c6161461048b578063e985e9c51461049e578063ead94b3f146104da578063f2fde38b146104ed57600080fd5b8063bf8e91761461044a578063c4e41b221461045d578063c87b56dd14610465578063e24f7f621461047857600080fd5b80639cd768b4116100de5780639cd768b4146103fe5780639d95f1cc14610411578063a22cb46514610424578063b88d4fde1461043757600080fd5b806380f76021146103b157806381fb5d4b146103c25780638da5cb5b146103e557806395d89b41146103f657600080fd5b806323b872dd116101875780634b4b98bd116101565780634b4b98bd146103625780636352211e1461037557806370a0823114610388578063715018a6146103a957600080fd5b806323b872dd146102a0578063313a9940146102b357806342842e0e146102ea57806345a1a2b8146102fd57600080fd5b8063081812fc116101c3578063081812fc1461023a578063095ea7b3146102655780630a75c0451461027a5780631615fd031461028d57600080fd5b806301750152146101ea57806301ffc9a71461021257806306fdde0314610225575b600080fd5b6101fd6101f8366004612e0e565b610500565b60405190151581526020015b60405180910390f35b6101fd610220366004612e41565b6105aa565b61022d6105fa565b6040516102099190612eae565b61024d610248366004612ec1565b61068c565b6040516001600160a01b039091168152602001610209565b610278610273366004612eda565b6106b3565b005b610278610288366004612ec1565b6107df565b600c5461024d906001600160a01b031681565b6102786102ae366004612f06565b6109a8565b6102c66102c1366004612f5f565b6109e0565b60408051825181526020928301516001600160a01b03169281019290925201610209565b6102786102f8366004612f06565b610ccd565b61035061030b366004612ec1565b6007602052600090815260409020805460018201546002830154600384015460049094015492936001600160a01b039092169290919060ff8082169161010090041686565b60405161020996959493929190612fcc565b6102786103703660046130c8565b610ce8565b61024d610383366004612ec1565b610dc8565b61039b610396366004612e0e565b610e28565b604051908152602001610209565b610278610eae565b6009546001600160a01b031661024d565b6101fd6103d0366004612e0e565b600a6020526000908152604090205460ff1681565b6008546001600160a01b031661024d565b61022d610ec2565b61027861040c366004612ec1565b610ed1565b61027861041f366004612e0e565b6110f5565b6102786104323660046131bd565b611121565b6102786104453660046131f6565b6111a2565b610278610458366004612ec1565b6111e1565b61039b61147a565b61022d610473366004612ec1565b61148a565b610278610486366004612ec1565b6114fe565b610278610499366004613273565b6116f2565b6101fd6104ac3660046132b1565b6001600160a01b03918216600090815260066020908152604080832093909416825291909152205460ff1690565b6102786104e83660046132df565b61176c565b6102786104fb366004612e0e565b611b38565b6009546000906001600160a01b031661053257506001600160a01b03166000908152600a602052604090205460ff1690565b60095460405162ba80a960e11b81526001600160a01b03848116600483015290911690630175015290602401602060405180830381865afa15801561057b573d6000803e3d6000fd5b505050506040513d601f19601f8201168201806040525081019061059f919061330b565b92915050565b919050565b60006001600160e01b031982166380ac58cd60e01b14806105db57506001600160e01b03198216635b5e139f60e01b145b8061059f57506301ffc9a760e01b6001600160e01b031983161461059f565b60606001805461060990613328565b80601f016020809104026020016040519081016040528092919081815260200182805461063590613328565b80156106825780601f1061065757610100808354040283529160200191610682565b820191906000526020600020905b81548152906001019060200180831161066557829003601f168201915b5050505050905090565b600061069782611bae565b506000908152600560205260409020546001600160a01b031690565b60006106be82610dc8565b9050806001600160a01b0316836001600160a01b0316036107305760405162461bcd60e51b815260206004820152602160248201527f4552433732313a20617070726f76616c20746f2063757272656e74206f776e656044820152603960f91b60648201526084015b60405180910390fd5b806001600160a01b0316610742611bfe565b6001600160a01b0316148061075e575061075e816104ac611bfe565b6107d05760405162461bcd60e51b815260206004820152603d60248201527f4552433732313a20617070726f76652063616c6c6572206973206e6f7420746f60448201527f6b656e206f776e6572206f7220617070726f76656420666f7220616c6c0000006064820152608401610727565b6107da8383611c25565b505050565b6107e881611c93565b6108045760405162461bcd60e51b81526004016107279061335c565b600c546000828152600760205260409020600201546001600160a01b0390911690632129ce5490610833611bfe565b60016040518463ffffffff1660e01b81526004016108539392919061338b565b602060405180830381865afa158015610870573d6000803e3d6000fd5b505050506040513d601f19601f82011682018060405250810190610894919061330b565b6108b05760405162461bcd60e51b8152600401610727906133ad565b60008082815260076020526040902060040154610100900460ff1660038111156108dc576108dc612f94565b1461093d5760405162461bcd60e51b815260206004820152602b60248201527f43616e2774206465636c696e6520616e20696e7669746520746861742069736e60448201526a27742070656e64696e672160a81b6064820152608401610727565b6000818152600760205260409020600401805461ff0019166101001790557fe0a22322556e90b3585684e60a8c8efc33436262f809f873cd8e396235689eb081610985611bfe565b604080519283526001600160a01b0390911660208301520160405180910390a150565b6109b96109b3611bfe565b82611cb0565b6109d55760405162461bcd60e51b815260040161072790613403565b6107da838383611d2f565b60408051808201909152600080825260208201526020820135610a038380613450565b604051610a11929190613497565b604051809103902014610a7b5760405162461bcd60e51b815260206004820152602c60248201527f546865206d657373616765206861736820646f65736e2774206d61746368207460448201526b6865206f726967696e616c2160a01b6064820152608401610727565b60007f6492649264926492649264926492649264926492649264926492649264926492610aab6040850185613450565b6020610aba6040880188613450565b610ac59291506134bd565b90610ad36040880188613450565b610ae19490939291506134d0565b610aea916134fa565b149050600080610b006080860160608701612e0e565b6001600160a01b03163b1190508180610b165750805b15610b8e57610b49610b2e6080860160608701612e0e565b6020860135610b406040880188613450565b60016000611e93565b610b895760405162461bcd60e51b8152602060048201526011602482015270496e76616c6964207369676e617475726560781b6044820152606401610727565b610ca0565b6000610beb85602001356040517f19457468657265756d205369676e6564204d6573736167653a0a3332000000006020820152603c8101829052600090605c01604051602081830303815290604052805190602001209050919050565b90506000610c3a82610c006040890189613450565b8080601f01602080910402602001604051908101604052809392919081815260200183838082843760009201919091525061232e92505050565b9050610c4c6080870160608801612e0e565b6001600160a01b0316816001600160a01b031614610c9d5760405162461bcd60e51b815260206004820152600e60248201526d24b73b30b634b21039b4b3b732b960911b6044820152606401610727565b50505b6000610cac8580613450565b810190610cb99190613518565b9050610cc481612352565b50949350505050565b6107da838383604051806020016040528060008152506111a2565b610cf36101f8611bfe565b610d0f5760405162461bcd60e51b81526004016107279061356e565b6000610d1a836109e0565b60208101519091506001600160a01b0316331480610d43575060208101516001600160a01b0316155b610d5f5760405162461bcd60e51b81526004016107279061356e565b610d6833610500565b80610d935750610d7e6080840160608501612e0e565b6001600160a01b0316336001600160a01b0316145b610daf5760405162461bcd60e51b81526004016107279061356e565b6107da610dc26080850160608601612e0e565b836123a5565b6000818152600360205260408120546001600160a01b03168061059f5760405162461bcd60e51b8152602060048201526018602482015277115490cdcc8c4e881a5b9d985b1a59081d1bdad95b88125160421b6044820152606401610727565b60006001600160a01b038216610e925760405162461bcd60e51b815260206004820152602960248201527f4552433732313a2061646472657373207a65726f206973206e6f7420612076616044820152683634b21037bbb732b960b91b6064820152608401610727565b506001600160a01b031660009081526004602052604090205490565b610eb66124d7565b610ec06000612550565b565b60606002805461060990613328565b610f056040518060400160405280600b81526020016a026a9a3a9a2a72222a91d160ad1b815250610f00611bfe565b6125a2565b610f4760405180604001604052806007815260200166027aba722a91d160cd1b815250610f00836000908152600360205260409020546001600160a01b031690565b610f8360405180604001604052806004815260200163024a21d160e51b81525060076000848152602001908152602001600020600001546125e7565b60408051808201825260068152650232927a69d160d51b602080830191909152600084815260079091529190912060010154610fc891906001600160a01b03166125a2565b61100d6040518060400160405280600d81526020016c022ac2a22a92720a627a9239d1609d1b81525060076000848152602001908152602001600020600201546125e7565b61104f6040518060400160405280600a815260200169029a7aaa921a2a4a21d160b51b81525060076000848152602001908152602001600020600301546125e7565b604080518082018252600c81526b02120a9a2a820a920a6a99d160a51b602080830191909152600084815260079091529190912060040154611094919060ff166125e7565b6110f260405180604001604052806008815260200167029aa20aa2aa99d160c51b8152506007600084815260200190815260200160002060040160019054906101000a900460ff1660038111156110ed576110ed612f94565b6125e7565b50565b6110fd6124d7565b6001600160a01b03166000908152600a60205260409020805460ff19166001179055565b6001600160a01b03821661118c5760405162461bcd60e51b815260206004820152602c60248201527f4552433732313a2061646472657373207a65726f206973206e6f74206120766160448201526b3634b21037b832b930ba37b960a11b6064820152608401610727565b61119e611197611bfe565b838361262c565b5050565b6111b36111ad611bfe565b83611cb0565b6111cf5760405162461bcd60e51b815260040161072790613403565b6111db848484846126fa565b50505050565b6111ea81611c93565b6112065760405162461bcd60e51b81526004016107279061335c565b61124f6040518060400160405280600e81526020016d024a72b24aa229027aba722a91d160951b815250610f00836000908152600360205260409020546001600160a01b031690565b600c546000828152600760205260409020600201546001600160a01b0390911690632129ce549061127e611bfe565b60016040518463ffffffff1660e01b815260040161129e9392919061338b565b602060405180830381865afa1580156112bb573d6000803e3d6000fd5b505050506040513d601f19601f820116820180604052508101906112df919061330b565b6112fb5760405162461bcd60e51b8152600401610727906133ad565b60008082815260076020526040902060040154610100900460ff16600381111561132757611327612f94565b146113875760405162461bcd60e51b815260206004820152602a60248201527f43616e27742061636365707420616e20696e7669746520746861742069736e27604482015269742070656e64696e672160b01b6064820152608401610727565b600c54600082815260076020526040908190206003810154600282015460049283015493516275167160e61b81526060956001600160a01b031694631d459c40946113dc94939260ff909216918891016135a5565b600060405180830381600087803b1580156113f657600080fd5b505af115801561140a573d6000803e3d6000fd5b5050506000838152600760205260409020600401805461ff001916610200179055507fea2a541d8aec9a94feec59f129de64d7d5b9a30636f0bd3b9d5be8337cb6aed282611456611bfe565b604080519283526001600160a01b0390911660208301520160405180910390a15050565b6000611485600b5490565b905090565b606061149582611bae565b60006114ac60408051602081019091526000815290565b905060008151116114cc57604051806020016040528060008152506114f7565b806114d68461272d565b6040516020016114e792919061363d565b6040516020818303038152906040525b9392505050565b61150781611c93565b6115235760405162461bcd60e51b81526004016107279061335c565b600c546000828152600760205260409020600301546001600160a01b0390911690632129ce5490611552611bfe565b60016040518463ffffffff1660e01b81526004016115729392919061338b565b602060405180830381865afa15801561158f573d6000803e3d6000fd5b505050506040513d601f19601f820116820180604052508101906115b3919061330b565b61161e5760405162461bcd60e51b815260206004820152603660248201527f596f75206c61636b2073756666696369656e74207065726d697373696f6e7320604482015275746f207265766f6b65207468697320696e766974652160501b6064820152608401610727565b60008082815260076020526040902060040154610100900460ff16600381111561164a5761164a612f94565b146116aa5760405162461bcd60e51b815260206004820152602a60248201527f43616e2774207265766f6b6520616e20696e7669746520746861742069736e27604482015269742070656e64696e672160b01b6064820152608401610727565b6000818152600760205260409020600401805461ff0019166103001790557f8aec0db50e2fb503d8ef5d554809d700e2878a7431e522a5da1d94bf356dc43881610985611bfe565b600c546040516304390faf60e51b81526001600160a01b0385811660048301526000921690638721f5e0906024016020604051808303816000875af115801561173f573d6000803e3d6000fd5b505050506040513d601f19601f82011682018060405250810190611763919061366c565b90506111db8184845b600c546001600160a01b0316632129ce5483611786611bfe565b60016040518463ffffffff1660e01b81526004016117a69392919061338b565b602060405180830381865afa1580156117c3573d6000803e3d6000fd5b505050506040513d601f19601f820116820180604052508101906117e7919061330b565b6118595760405162461bcd60e51b815260206004820152603b60248201527f596f75206d6179206f6e6c7920736861726520746f20496e646976696475616c60448201527f732c204f7267616e697a6174696f6e732c206f72205465616d732100000000006064820152608401610727565b600c546001600160a01b0316632129ce5483611873611bfe565b60016040518463ffffffff1660e01b81526004016118939392919061338b565b602060405180830381865afa1580156118b0573d6000803e3d6000fd5b505050506040513d601f19601f820116820180604052508101906118d4919061330b565b806119555750600c546001600160a01b0316632129ce54836118f4611bfe565b60086040518463ffffffff1660e01b81526004016119149392919061338b565b602060405180830381865afa158015611931573d6000803e3d6000fd5b505050506040513d601f19601f82011682018060405250810190611955919061330b565b6119b35760405162461bcd60e51b815260206004820152602960248201527f596f75206c61636b207065726d697373696f6e7320746f2073656e64207468696044820152687320696e766974652160b81b6064820152608401610727565b6119c1600b80546001019055565b60006119cc600b5490565b90506119ff6040518060400160405280600f81526020016e02722ab9024a72b24aa229024a21d1608d1b815250826125e7565b611a10611a0a611bfe565b826127c0565b6040518060c00160405280828152602001611a29611bfe565b6001600160a01b03168152602081018690526040810185905260ff841660608201526080016000905260008281526007602090815260409182902083518155908301516001820180546001600160a01b039092166001600160a01b03199092169190911790559082015160028201556060820151600380830191909155608083015160048301805460ff90921660ff1983168117825560a086015193919261ffff19161790610100908490811115611ae357611ae3612f94565b02179055509050507fbe84069be5da3deca5fa14f6918b3566846b6ff827fc4ab908809f2e8e3857d9611b14611bfe565b8585856000604051611b2a959493929190613685565b60405180910390a150505050565b611b406124d7565b6001600160a01b038116611ba55760405162461bcd60e51b815260206004820152602660248201527f4f776e61626c653a206e6577206f776e657220697320746865207a65726f206160448201526564647265737360d01b6064820152608401610727565b6110f281612550565b611bb781611c93565b6110f25760405162461bcd60e51b8152602060048201526018602482015277115490cdcc8c4e881a5b9d985b1a59081d1bdad95b88125160421b6044820152606401610727565b600080546001600160a01b031615611c2057506000546001600160a01b031690565b503390565b600081815260056020526040902080546001600160a01b0319166001600160a01b0384169081179091558190611c5a82610dc8565b6001600160a01b03167f8c5be1e5ebec7d5bd14f71427d1e84f3dd0314c0f7b2291e5b200ac8c7c3b92560405160405180910390a45050565b6000908152600360205260409020546001600160a01b0316151590565b600080611cbc83610dc8565b9050806001600160a01b0316846001600160a01b03161480611d0357506001600160a01b0380821660009081526006602090815260408083209388168352929052205460ff165b80611d275750836001600160a01b0316611d1c8461068c565b6001600160a01b0316145b949350505050565b826001600160a01b0316611d4282610dc8565b6001600160a01b031614611d685760405162461bcd60e51b8152600401610727906136b9565b6001600160a01b038216611dca5760405162461bcd60e51b8152602060048201526024808201527f4552433732313a207472616e7366657220746f20746865207a65726f206164646044820152637265737360e01b6064820152608401610727565b826001600160a01b0316611ddd82610dc8565b6001600160a01b031614611e035760405162461bcd60e51b8152600401610727906136b9565b600081815260056020908152604080832080546001600160a01b03199081169091556001600160a01b0387811680865260048552838620805460001901905590871680865283862080546001019055868652600390945282852080549092168417909155905184937fddf252ad1be2c89b69c2b068fc378daa952ba7f163c4a11628f55a4df523b3ef91a4505050565b60006001600160a01b0387163b6060827f64926492649264926492649264926492649264926492649264926492649264928888611ed16020826134bd565b611edd928b92906134d0565b611ee6916134fa565b1490508015611fbd576000606089828a611f016020826134bd565b92611f0e939291906134d0565b810190611f1b91906136fe565b95509092509050841580611f2c5750865b15611fb657600080836001600160a01b031683604051611f4c9190613774565b6000604051808303816000865af19150503d8060008114611f89576040519150601f19603f3d011682016040523d82523d6000602084013e611f8e565b606091505b509150915081611fb35780604051639d0d6e2d60e01b81526004016107279190612eae565b50505b5050611ff7565b87878080601f0160208091040260200160405190810160405280939291908181526020018383808284376000920191909152509294505050505b80806120035750600083115b1561216657604051630b135d3f60e11b81526001600160a01b038b1690631626ba7e90612036908c908690600401613790565b602060405180830381865afa92505050801561206f575060408051601f3d908101601f1916820190925261206c918101906137a9565b60015b6120eb573d80801561209d576040519150601f19603f3d011682016040523d82523d6000602084013e6120a2565b606091505b50851580156120b15750600084115b156120d0576120c58b8b8b8b8b6001611e93565b945050505050612324565b80604051636f2a959960e01b81526004016107279190612eae565b6001600160e01b03198116630b135d3f60e11b1480158161210a575086155b80156121165750600085115b156121365761212a8c8c8c8c8c6001611e93565b95505050505050612324565b841580156121415750825b801561214b575087155b1561215a57806000526001601ffd5b94506123249350505050565b604187146121dc5760405162461bcd60e51b815260206004820152603a60248201527f5369676e617475726556616c696461746f72237265636f7665725369676e657260448201527f3a20696e76616c6964207369676e6174757265206c656e6774680000000000006064820152608401610727565b60006121eb6020828a8c6134d0565b6121f4916134fa565b90506000612206604060208b8d6134d0565b61220f916134fa565b905060008a8a6040818110612226576122266137c6565b919091013560f81c915050601b811480159061224657508060ff16601c14155b156122a95760405162461bcd60e51b815260206004820152602d60248201527f5369676e617475726556616c696461746f723a20696e76616c6964207369676e60448201526c617475726520762076616c756560981b6064820152608401610727565b6040805160008152602081018083528e905260ff83169181019190915260608101849052608081018390526001600160a01b038e169060019060a0016020604051602081039080840390855afa158015612307573d6000803e3d6000fd5b505050602060405103516001600160a01b03161496505050505050505b9695505050505050565b600080600061233d85856127da565b9150915061234a8161281f565b509392505050565b6000438260000151101561239d5760405162461bcd60e51b815260206004820152601260248201527113595cdcd859d9481a5cc8195e1c1a5c995960721b6044820152606401610727565b506001919050565b816001600160a01b0381166124085760405162461bcd60e51b815260206004820152602360248201527f436f6e746578743a206e6577436f6e74657874206973207a65726f206164647260448201526265737360e81b6064820152608401610727565b61241181612969565b60005b82518110156124cc57600080306001600160a01b031685848151811061243c5761243c6137c6565b60200260200101516040516124519190613774565b600060405180830381855af49150503d806000811461248c576040519150601f19603f3d011682016040523d82523d6000602084013e612491565b606091505b50915091508181906124b65760405162461bcd60e51b81526004016107279190612eae565b50505080806124c4906137dc565b915050612414565b506107da6000612969565b6124df611bfe565b6001600160a01b03166124fa6008546001600160a01b031690565b6001600160a01b031614610ec05760405162461bcd60e51b815260206004820181905260248201527f4f776e61626c653a2063616c6c6572206973206e6f7420746865206f776e65726044820152606401610727565b600880546001600160a01b038381166001600160a01b0319831681179093556040519116919082907f8be0079c531659141344cd1fd0a4f28419497f9722a3daafe3b4186f6b6457e090600090a35050565b61119e82826040516024016125b89291906137f5565b60408051601f198184030181529190526020810180516001600160e01b031663319af33360e01b17905261298b565b61119e82826040516024016125fd92919061381f565b60408051601f198184030181529190526020810180516001600160e01b0316632d839cb360e21b17905261298b565b816001600160a01b0316836001600160a01b03160361268d5760405162461bcd60e51b815260206004820152601960248201527f4552433732313a20617070726f766520746f2063616c6c6572000000000000006044820152606401610727565b6001600160a01b03838116600081815260066020908152604080832094871680845294825291829020805460ff191686151590811790915591519182527f17307eab39ab6107e8899845ad3d59bd9653f200f220920489ca2b5937696c31910160405180910390a3505050565b612705848484611d2f565b61271184848484612994565b6111db5760405162461bcd60e51b815260040161072790613841565b6060600061273a83612a9c565b600101905060008167ffffffffffffffff81111561275a5761275a613011565b6040519080825280601f01601f191660200182016040528015612784576020820181803683370190505b5090508181016020015b600019016f181899199a1a9b1b9c1cb0b131b232b360811b600a86061a8153600a850494508461278e57509392505050565b61119e828260405180602001604052806000815250612b74565b60008082516041036128105760208301516040840151606085015160001a61280487828585612ba7565b94509450505050612818565b506000905060025b9250929050565b600081600481111561283357612833612f94565b0361283b5750565b600181600481111561284f5761284f612f94565b0361289c5760405162461bcd60e51b815260206004820152601860248201527f45434453413a20696e76616c6964207369676e617475726500000000000000006044820152606401610727565b60028160048111156128b0576128b0612f94565b036128fd5760405162461bcd60e51b815260206004820152601f60248201527f45434453413a20696e76616c6964207369676e6174757265206c656e677468006044820152606401610727565b600381600481111561291157612911612f94565b036110f25760405162461bcd60e51b815260206004820152602260248201527f45434453413a20696e76616c6964207369676e6174757265202773272076616c604482015261756560f01b6064820152608401610727565b600080546001600160a01b0319166001600160a01b0392909216919091179055565b6110f281612c6b565b60006001600160a01b0384163b15612a9157836001600160a01b031663150b7a026129bd611bfe565b8786866040518563ffffffff1660e01b81526004016129df9493929190613893565b6020604051808303816000875af1925050508015612a1a575060408051601f3d908101601f19168201909252612a17918101906137a9565b60015b612a77573d808015612a48576040519150601f19603f3d011682016040523d82523d6000602084013e612a4d565b606091505b508051600003612a6f5760405162461bcd60e51b815260040161072790613841565b805181602001fd5b6001600160e01b031916630a85bd0160e11b149050611d27565b506001949350505050565b60008072184f03e93ff9f4daa797ed6e38ed64bf6a1f0160401b8310612adb5772184f03e93ff9f4daa797ed6e38ed64bf6a1f0160401b830492506040015b6d04ee2d6d415b85acef81000000008310612b07576d04ee2d6d415b85acef8100000000830492506020015b662386f26fc100008310612b2557662386f26fc10000830492506010015b6305f5e1008310612b3d576305f5e100830492506008015b6127108310612b5157612710830492506004015b60648310612b63576064830492506002015b600a831061059f5760010192915050565b612b7e8383612c8c565b612b8b6000848484612994565b6107da5760405162461bcd60e51b815260040161072790613841565b6000807f7fffffffffffffffffffffffffffffff5d576e7357a4501ddfe92f46681b20a0831115612bde5750600090506003612c62565b6040805160008082526020820180845289905260ff881692820192909252606081018690526080810185905260019060a0016020604051602081039080840390855afa158015612c32573d6000803e3d6000fd5b5050604051601f1901519150506001600160a01b038116612c5b57600060019250925050612c62565b9150600090505b94509492505050565b60006a636f6e736f6c652e6c6f679050600080835160208501845afa505050565b6001600160a01b038216612ce25760405162461bcd60e51b815260206004820181905260248201527f4552433732313a206d696e7420746f20746865207a65726f20616464726573736044820152606401610727565b612ceb81611c93565b15612d385760405162461bcd60e51b815260206004820152601c60248201527f4552433732313a20746f6b656e20616c7265616479206d696e746564000000006044820152606401610727565b612d4181611c93565b15612d8e5760405162461bcd60e51b815260206004820152601c60248201527f4552433732313a20746f6b656e20616c7265616479206d696e746564000000006044820152606401610727565b6001600160a01b038216600081815260046020908152604080832080546001019055848352600390915280822080546001600160a01b0319168417905551839291907fddf252ad1be2c89b69c2b068fc378daa952ba7f163c4a11628f55a4df523b3ef908290a45050565b6001600160a01b03811681146110f257600080fd5b600060208284031215612e2057600080fd5b81356114f781612df9565b6001600160e01b0319811681146110f257600080fd5b600060208284031215612e5357600080fd5b81356114f781612e2b565b60005b83811015612e79578181015183820152602001612e61565b50506000910152565b60008151808452612e9a816020860160208601612e5e565b601f01601f19169290920160200192915050565b6020815260006114f76020830184612e82565b600060208284031215612ed357600080fd5b5035919050565b60008060408385031215612eed57600080fd5b8235612ef881612df9565b946020939093013593505050565b600080600060608486031215612f1b57600080fd5b8335612f2681612df9565b92506020840135612f3681612df9565b929592945050506040919091013590565b600060808284031215612f5957600080fd5b50919050565b600060208284031215612f7157600080fd5b813567ffffffffffffffff811115612f8857600080fd5b611d2784828501612f47565b634e487b7160e01b600052602160045260246000fd5b60048110612fc857634e487b7160e01b600052602160045260246000fd5b9052565b8681526001600160a01b0386166020820152604081018590526060810184905260ff8316608082015260c0810161300660a0830184612faa565b979650505050505050565b634e487b7160e01b600052604160045260246000fd5b604051601f8201601f1916810167ffffffffffffffff8111828210171561305057613050613011565b604052919050565b600082601f83011261306957600080fd5b813567ffffffffffffffff81111561308357613083613011565b613096601f8201601f1916602001613027565b8181528460208386010111156130ab57600080fd5b816020850160208301376000918101602001919091529392505050565b600080604083850312156130db57600080fd5b823567ffffffffffffffff808211156130f357600080fd5b6130ff86838701612f47565b935060209150818501358181111561311657600080fd5b8501601f8101871361312757600080fd5b80358281111561313957613139613011565b8060051b613148858201613027565b918252828101850191858101908a84111561316257600080fd5b86850192505b8383101561319e578235868111156131805760008081fd5b61318e8c8983890101613058565b8352509186019190860190613168565b809750505050505050509250929050565b80151581146110f257600080fd5b600080604083850312156131d057600080fd5b82356131db81612df9565b915060208301356131eb816131af565b809150509250929050565b6000806000806080858703121561320c57600080fd5b843561321781612df9565b9350602085013561322781612df9565b925060408501359150606085013567ffffffffffffffff81111561324a57600080fd5b61325687828801613058565b91505092959194509250565b803560ff811681146105a557600080fd5b60008060006060848603121561328857600080fd5b833561329381612df9565b9250602084013591506132a860408501613262565b90509250925092565b600080604083850312156132c457600080fd5b82356132cf81612df9565b915060208301356131eb81612df9565b6000806000606084860312156132f457600080fd5b83359250602084013591506132a860408501613262565b60006020828403121561331d57600080fd5b81516114f7816131af565b600181811c9082168061333c57607f821691505b602082108103612f5957634e487b7160e01b600052602260045260246000fd5b602080825260159082015274496e7669746520646f65736e27742065786973742160581b604082015260600190565b9283526001600160a01b0391909116602083015260ff16604082015260600190565b60208082526036908201527f596f75206c61636b2073756666696369656e74207065726d697373696f6e7320604082015275746f20616363657074207468697320696e766974652160501b606082015260800190565b6020808252602d908201527f4552433732313a2063616c6c6572206973206e6f7420746f6b656e206f776e6560408201526c1c881bdc88185c1c1c9bdd9959609a1b606082015260800190565b6000808335601e1984360301811261346757600080fd5b83018035915067ffffffffffffffff82111561348257600080fd5b60200191503681900382131561281857600080fd5b8183823760009101908152919050565b634e487b7160e01b600052601160045260246000fd5b8181038181111561059f5761059f6134a7565b600080858511156134e057600080fd5b838611156134ed57600080fd5b5050820193919092039150565b8035602083101561059f57600019602084900360031b1b1692915050565b60006040828403121561352a57600080fd5b6040516040810181811067ffffffffffffffff8211171561354d5761354d613011565b60405282358152602083013561356281612df9565b60208201529392505050565b6020808252601e908201527f4e4f444548414e444c45523a205045524d495353494f4e5f44454e4945440000604082015260600190565b8481526000602060a081840152600960a0840152684e657720536861726560b81b60c084015260e083016040878186015260ff808816606087015260e0608087015282875180855261010088019150858901945060005b8181101561362c57855180516001600160a01b0316845287015184168784015294860194918401916001016135fc565b50909b9a5050505050505050505050565b6000835161364f818460208801612e5e565b835190830190613663818360208801612e5e565b01949350505050565b60006020828403121561367e57600080fd5b5051919050565b6001600160a01b0386168152602081018590526040810184905260ff8316606082015260a081016123246080830184612faa565b60208082526025908201527f4552433732313a207472616e736665722066726f6d20696e636f72726563742060408201526437bbb732b960d91b606082015260800190565b60008060006060848603121561371357600080fd5b833561371e81612df9565b9250602084013567ffffffffffffffff8082111561373b57600080fd5b61374787838801613058565b9350604086013591508082111561375d57600080fd5b5061376a86828701613058565b9150509250925092565b60008251613786818460208701612e5e565b9190910192915050565b828152604060208201526000611d276040830184612e82565b6000602082840312156137bb57600080fd5b81516114f781612e2b565b634e487b7160e01b600052603260045260246000fd5b6000600182016137ee576137ee6134a7565b5060010190565b6040815260006138086040830185612e82565b905060018060a01b03831660208301529392505050565b6040815260006138326040830185612e82565b90508260208301529392505050565b60208082526032908201527f4552433732313a207472616e7366657220746f206e6f6e20455243373231526560408201527131b2b4bb32b91034b6b83632b6b2b73a32b960711b606082015260800190565b6001600160a01b038581168252841660208201526040810183905260806060820181905260009061232490830184612e8256fea26469706673582212209b0a979a21a124a5fbb97cc561b115d836172378820934dec9f2af79e75f380e64736f6c63430008130033",
  "linkReferences": {},
  "deployedLinkReferences": {}
}