{
  "_format": "hh-sol-artifact-1",
  "contractName": "EntityManager",
  "sourceName": "contracts/CEntityManager.sol",
  "abi": [
    {
      "inputs": [],
      "stateMutability": "nonpayable",
      "type": "constructor"
    },
    {
      "inputs": [
        {
          "internalType": "bytes",
          "name": "error",
          "type": "bytes"
        }
      ],
      "name": "ERC1271Revert",
      "type": "error"
    },
    {
      "inputs": [
        {
          "internalType": "bytes",
          "name": "error",
          "type": "bytes"
        }
      ],
      "name": "ERC6492DeployFailed",
      "type": "error"
    },
    {
      "anonymous": false,
      "inputs": [
        {
          "indexed": true,
          "internalType": "address",
          "name": "owner",
          "type": "address"
        },
        {
          "indexed": true,
          "internalType": "address",
          "name": "approved",
          "type": "address"
        },
        {
          "indexed": true,
          "internalType": "uint256",
          "name": "tokenId",
          "type": "uint256"
        }
      ],
      "name": "Approval",
      "type": "event"
    },
    {
      "anonymous": false,
      "inputs": [
        {
          "indexed": true,
          "internalType": "address",
          "name": "owner",
          "type": "address"
        },
        {
          "indexed": true,
          "internalType": "address",
          "name": "operator",
          "type": "address"
        },
        {
          "indexed": false,
          "internalType": "bool",
          "name": "approved",
          "type": "bool"
        }
      ],
      "name": "ApprovalForAll",
      "type": "event"
    },
    {
      "anonymous": false,
      "inputs": [
        {
          "indexed": false,
          "internalType": "uint256",
          "name": "_entityId",
          "type": "uint256"
        },
        {
          "indexed": false,
          "internalType": "uint256",
          "name": "_commentId",
          "type": "uint256"
        }
      ],
      "name": "CommentOnEntity",
      "type": "event"
    },
    {
      "anonymous": false,
      "inputs": [
        {
          "indexed": false,
          "internalType": "uint256",
          "name": "_entityId",
          "type": "uint256"
        },
        {
          "indexed": false,
          "internalType": "uint8",
          "name": "_newPermissions",
          "type": "uint8"
        }
      ],
      "name": "EntityBasePermissionsChanged",
      "type": "event"
    },
    {
      "anonymous": false,
      "inputs": [
        {
          "indexed": false,
          "internalType": "uint256",
          "name": "_entityId",
          "type": "uint256"
        },
        {
          "components": [
            {
              "internalType": "address",
              "name": "user",
              "type": "address"
            },
            {
              "internalType": "uint8",
              "name": "permissions",
              "type": "uint8"
            }
          ],
          "indexed": false,
          "internalType": "struct IEntityManager.SPermissions[]",
          "name": "_permissions",
          "type": "tuple[]"
        }
      ],
      "name": "EntityBulkUserPermissionsChanged",
      "type": "event"
    },
    {
      "anonymous": false,
      "inputs": [
        {
          "indexed": false,
          "internalType": "uint256",
          "name": "_entityId",
          "type": "uint256"
        },
        {
          "indexed": false,
          "internalType": "enum IEntityManager.ImmutableType",
          "name": "_type",
          "type": "uint8"
        },
        {
          "indexed": false,
          "internalType": "address",
          "name": "_to",
          "type": "address"
        }
      ],
      "name": "EntityCreated",
      "type": "event"
    },
    {
      "anonymous": false,
      "inputs": [
        {
          "indexed": false,
          "internalType": "uint256",
          "name": "_entityId",
          "type": "uint256"
        },
        {
          "indexed": false,
          "internalType": "address",
          "name": "_user",
          "type": "address"
        },
        {
          "indexed": false,
          "internalType": "uint8",
          "name": "_permissions",
          "type": "uint8"
        }
      ],
      "name": "EntityIndividualUserPermissionsChanged",
      "type": "event"
    },
    {
      "anonymous": false,
      "inputs": [
        {
          "indexed": false,
          "internalType": "uint256",
          "name": "_entityId",
          "type": "uint256"
        },
        {
          "components": [
            {
              "internalType": "address",
              "name": "creator",
              "type": "address"
            },
            {
              "internalType": "string",
              "name": "documentName",
              "type": "string"
            },
            {
              "internalType": "string",
              "name": "documentDescription",
              "type": "string"
            },
            {
              "internalType": "string",
              "name": "ipfsCid",
              "type": "string"
            },
            {
              "internalType": "uint256",
              "name": "commentsCount",
              "type": "uint256"
            },
            {
              "internalType": "uint256",
              "name": "timestamp",
              "type": "uint256"
            }
          ],
          "indexed": false,
          "internalType": "struct IEntityManager.SFileMeta",
          "name": "meta",
          "type": "tuple"
        }
      ],
      "name": "EntityMetaChanged",
      "type": "event"
    },
    {
      "anonymous": false,
      "inputs": [
        {
          "indexed": false,
          "internalType": "uint256",
          "name": "_entityId",
          "type": "uint256"
        },
        {
          "indexed": false,
          "internalType": "enum IEntityManager.ImmutableType",
          "name": "_entityType",
          "type": "uint8"
        },
        {
          "indexed": false,
          "internalType": "uint256",
          "name": "_fromParentId",
          "type": "uint256"
        },
        {
          "indexed": false,
          "internalType": "uint256",
          "name": "_toParentId",
          "type": "uint256"
        }
      ],
      "name": "EntityMoved",
      "type": "event"
    },
    {
      "anonymous": false,
      "inputs": [
        {
          "indexed": false,
          "internalType": "uint256",
          "name": "_entityId",
          "type": "uint256"
        },
        {
          "indexed": false,
          "internalType": "uint8",
          "name": "_newPermissions",
          "type": "uint8"
        }
      ],
      "name": "EntityShareMaxPermissionsChanged",
      "type": "event"
    },
    {
      "anonymous": false,
      "inputs": [
        {
          "indexed": false,
          "internalType": "uint256",
          "name": "_entityId",
          "type": "uint256"
        },
        {
          "indexed": false,
          "internalType": "uint256",
          "name": "_orgId",
          "type": "uint256"
        }
      ],
      "name": "EntityTransferredToOrganization",
      "type": "event"
    },
    {
      "anonymous": false,
      "inputs": [
        {
          "indexed": false,
          "internalType": "uint256",
          "name": "_entityId",
          "type": "uint256"
        },
        {
          "indexed": false,
          "internalType": "address",
          "name": "_userId",
          "type": "address"
        }
      ],
      "name": "OrganizationTransferredToIndividual",
      "type": "event"
    },
    {
      "anonymous": false,
      "inputs": [
        {
          "indexed": true,
          "internalType": "address",
          "name": "previousOwner",
          "type": "address"
        },
        {
          "indexed": true,
          "internalType": "address",
          "name": "newOwner",
          "type": "address"
        }
      ],
      "name": "OwnershipTransferred",
      "type": "event"
    },
    {
      "anonymous": false,
      "inputs": [
        {
          "indexed": true,
          "internalType": "address",
          "name": "from",
          "type": "address"
        },
        {
          "indexed": true,
          "internalType": "address",
          "name": "to",
          "type": "address"
        },
        {
          "indexed": true,
          "internalType": "uint256",
          "name": "tokenId",
          "type": "uint256"
        }
      ],
      "name": "Transfer",
      "type": "event"
    },
    {
      "inputs": [
        {
          "internalType": "address",
          "name": "node",
          "type": "address"
        }
      ],
      "name": "_nodes",
      "outputs": [
        {
          "internalType": "bool",
          "name": "isNode",
          "type": "bool"
        }
      ],
      "stateMutability": "view",
      "type": "function"
    },
    {
      "inputs": [
        {
          "internalType": "uint256",
          "name": "_existingEntityId",
          "type": "uint256"
        },
        {
          "internalType": "string",
          "name": "_name",
          "type": "string"
        },
        {
          "internalType": "uint256",
          "name": "_externalOrgOrTeamId",
          "type": "uint256"
        },
        {
          "internalType": "uint8",
          "name": "_filterPermissionsFromOriginalOwner",
          "type": "uint8"
        },
        {
          "components": [
            {
              "internalType": "address",
              "name": "user",
              "type": "address"
            },
            {
              "internalType": "uint8",
              "name": "permissions",
              "type": "uint8"
            }
          ],
          "internalType": "struct IEntityManager.SPermissions[]",
          "name": "_userPerms",
          "type": "tuple[]"
        }
      ],
      "name": "actOnAcceptedShare",
      "outputs": [],
      "stateMutability": "nonpayable",
      "type": "function"
    },
    {
      "inputs": [
        {
          "internalType": "uint256",
          "name": "_entityId",
          "type": "uint256"
        },
        {
          "internalType": "uint256",
          "name": "_newParentId",
          "type": "uint256"
        }
      ],
      "name": "addEntityToParent",
      "outputs": [],
      "stateMutability": "nonpayable",
      "type": "function"
    },
    {
      "inputs": [
        {
          "internalType": "address",
          "name": "node",
          "type": "address"
        }
      ],
      "name": "addNode",
      "outputs": [],
      "stateMutability": "nonpayable",
      "type": "function"
    },
    {
      "inputs": [
        {
          "internalType": "uint256",
          "name": "_entityId",
          "type": "uint256"
        },
        {
          "internalType": "uint8",
          "name": "_permissions",
          "type": "uint8"
        }
      ],
      "name": "adjustShareMaxPermissionsPerOwner",
      "outputs": [],
      "stateMutability": "nonpayable",
      "type": "function"
    },
    {
      "inputs": [
        {
          "internalType": "address",
          "name": "to",
          "type": "address"
        },
        {
          "internalType": "uint256",
          "name": "tokenId",
          "type": "uint256"
        }
      ],
      "name": "approve",
      "outputs": [],
      "stateMutability": "nonpayable",
      "type": "function"
    },
    {
      "inputs": [
        {
          "internalType": "address",
          "name": "owner",
          "type": "address"
        }
      ],
      "name": "balanceOf",
      "outputs": [
        {
          "internalType": "uint256",
          "name": "",
          "type": "uint256"
        }
      ],
      "stateMutability": "view",
      "type": "function"
    },
    {
      "inputs": [
        {
          "internalType": "uint256",
          "name": "_entityId",
          "type": "uint256"
        },
        {
          "internalType": "address",
          "name": "_user",
          "type": "address"
        },
        {
          "internalType": "uint8",
          "name": "_permissions",
          "type": "uint8"
        }
      ],
      "name": "canPerform",
      "outputs": [
        {
          "internalType": "bool",
          "name": "",
          "type": "bool"
        }
      ],
      "stateMutability": "view",
      "type": "function"
    },
    {
      "inputs": [
        {
          "components": [
            {
              "internalType": "bytes",
              "name": "encodedMessage",
              "type": "bytes"
            },
            {
              "internalType": "bytes32",
              "name": "messageHash",
              "type": "bytes32"
            },
            {
              "internalType": "bytes",
              "name": "signature",
              "type": "bytes"
            },
            {
              "internalType": "address",
              "name": "signer",
              "type": "address"
            }
          ],
          "internalType": "struct SignatureVerifier.Signature",
          "name": "_signature",
          "type": "tuple"
        }
      ],
      "name": "checkSignature",
      "outputs": [
        {
          "components": [
            {
              "internalType": "uint256",
              "name": "blockNumber",
              "type": "uint256"
            },
            {
              "internalType": "address",
              "name": "nodeAddress",
              "type": "address"
            }
          ],
          "internalType": "struct SignatureVerifier.EncodedMessage",
          "name": "",
          "type": "tuple"
        }
      ],
      "stateMutability": "nonpayable",
      "type": "function"
    },
    {
      "inputs": [
        {
          "internalType": "uint256",
          "name": "tokenId",
          "type": "uint256"
        },
        {
          "internalType": "string",
          "name": "commentIpfsCid",
          "type": "string"
        }
      ],
      "name": "commentOnEntity",
      "outputs": [],
      "stateMutability": "nonpayable",
      "type": "function"
    },
    {
      "inputs": [
        {
          "internalType": "uint256",
          "name": "entity",
          "type": "uint256"
        },
        {
          "internalType": "uint256",
          "name": "",
          "type": "uint256"
        }
      ],
      "name": "commentsOf",
      "outputs": [
        {
          "internalType": "string",
          "name": "commentIpfsCid",
          "type": "string"
        },
        {
          "internalType": "uint256",
          "name": "timestamp",
          "type": "uint256"
        }
      ],
      "stateMutability": "view",
      "type": "function"
    },
    {
      "inputs": [
        {
          "internalType": "address",
          "name": "_to",
          "type": "address"
        },
        {
          "internalType": "uint256",
          "name": "_parentId",
          "type": "uint256"
        },
        {
          "internalType": "enum IEntityManager.ImmutableType",
          "name": "_type",
          "type": "uint8"
        },
        {
          "internalType": "string",
          "name": "_name",
          "type": "string"
        },
        {
          "internalType": "uint8",
          "name": "_basePerms",
          "type": "uint8"
        },
        {
          "components": [
            {
              "internalType": "address",
              "name": "user",
              "type": "address"
            },
            {
              "internalType": "uint8",
              "name": "permissions",
              "type": "uint8"
            }
          ],
          "internalType": "struct IEntityManager.SPermissions[]",
          "name": "_userPerms",
          "type": "tuple[]"
        }
      ],
      "name": "createBaseEntity",
      "outputs": [],
      "stateMutability": "nonpayable",
      "type": "function"
    },
    {
      "inputs": [
        {
          "internalType": "address",
          "name": "_to",
          "type": "address"
        },
        {
          "internalType": "uint256",
          "name": "_parentId",
          "type": "uint256"
        },
        {
          "internalType": "string",
          "name": "_name",
          "type": "string"
        },
        {
          "internalType": "uint8",
          "name": "_basePerms",
          "type": "uint8"
        },
        {
          "components": [
            {
              "internalType": "address",
              "name": "user",
              "type": "address"
            },
            {
              "internalType": "uint8",
              "name": "permissions",
              "type": "uint8"
            }
          ],
          "internalType": "struct IEntityManager.SPermissions[]",
          "name": "_userPerms",
          "type": "tuple[]"
        },
        {
          "internalType": "string",
          "name": "_description",
          "type": "string"
        },
        {
          "internalType": "string",
          "name": "_ipfsCid",
          "type": "string"
        }
      ],
      "name": "createFile",
      "outputs": [],
      "stateMutability": "nonpayable",
      "type": "function"
    },
    {
      "inputs": [
        {
          "internalType": "address",
          "name": "_to",
          "type": "address"
        },
        {
          "internalType": "uint256",
          "name": "_parentId",
          "type": "uint256"
        },
        {
          "internalType": "string",
          "name": "_name",
          "type": "string"
        },
        {
          "internalType": "uint8",
          "name": "_basePerms",
          "type": "uint8"
        },
        {
          "components": [
            {
              "internalType": "address",
              "name": "user",
              "type": "address"
            },
            {
              "internalType": "uint8",
              "name": "permissions",
              "type": "uint8"
            }
          ],
          "internalType": "struct IEntityManager.SPermissions[]",
          "name": "_userPerms",
          "type": "tuple[]"
        }
      ],
      "name": "createFolder",
      "outputs": [],
      "stateMutability": "nonpayable",
      "type": "function"
    },
    {
      "inputs": [
        {
          "internalType": "address",
          "name": "_to",
          "type": "address"
        },
        {
          "internalType": "string",
          "name": "_name",
          "type": "string"
        },
        {
          "internalType": "uint8",
          "name": "_basePerms",
          "type": "uint8"
        },
        {
          "components": [
            {
              "internalType": "address",
              "name": "user",
              "type": "address"
            },
            {
              "internalType": "uint8",
              "name": "permissions",
              "type": "uint8"
            }
          ],
          "internalType": "struct IEntityManager.SPermissions[]",
          "name": "_userPerms",
          "type": "tuple[]"
        }
      ],
      "name": "createOrganization",
      "outputs": [],
      "stateMutability": "nonpayable",
      "type": "function"
    },
    {
      "inputs": [
        {
          "internalType": "address",
          "name": "_to",
          "type": "address"
        },
        {
          "internalType": "string",
          "name": "_name",
          "type": "string"
        },
        {
          "internalType": "uint8",
          "name": "_basePerms",
          "type": "uint8"
        },
        {
          "components": [
            {
              "internalType": "address",
              "name": "user",
              "type": "address"
            },
            {
              "internalType": "uint8",
              "name": "permissions",
              "type": "uint8"
            }
          ],
          "internalType": "struct IEntityManager.SPermissions[]",
          "name": "_userPerms",
          "type": "tuple[]"
        }
      ],
      "name": "createPersonalOrganization",
      "outputs": [],
      "stateMutability": "nonpayable",
      "type": "function"
    },
    {
      "inputs": [
        {
          "internalType": "address",
          "name": "_to",
          "type": "address"
        },
        {
          "internalType": "uint256",
          "name": "_parentId",
          "type": "uint256"
        },
        {
          "internalType": "string",
          "name": "_name",
          "type": "string"
        },
        {
          "internalType": "uint8",
          "name": "_basePerms",
          "type": "uint8"
        },
        {
          "components": [
            {
              "internalType": "address",
              "name": "user",
              "type": "address"
            },
            {
              "internalType": "uint8",
              "name": "permissions",
              "type": "uint8"
            }
          ],
          "internalType": "struct IEntityManager.SPermissions[]",
          "name": "_userPerms",
          "type": "tuple[]"
        }
      ],
      "name": "createTeam",
      "outputs": [],
      "stateMutability": "nonpayable",
      "type": "function"
    },
    {
      "inputs": [
        {
          "components": [
            {
              "internalType": "bytes",
              "name": "encodedMessage",
              "type": "bytes"
            },
            {
              "internalType": "bytes32",
              "name": "messageHash",
              "type": "bytes32"
            },
            {
              "internalType": "bytes",
              "name": "signature",
              "type": "bytes"
            },
            {
              "internalType": "address",
              "name": "signer",
              "type": "address"
            }
          ],
          "internalType": "struct SignatureVerifier.Signature",
          "name": "signature",
          "type": "tuple"
        },
        {
          "internalType": "bytes[]",
          "name": "_calldata",
          "type": "bytes[]"
        }
      ],
      "name": "delegateCallsToSelf",
      "outputs": [],
      "stateMutability": "nonpayable",
      "type": "function"
    },
    {
      "inputs": [
        {
          "internalType": "uint256",
          "name": "entity",
          "type": "uint256"
        }
      ],
      "name": "entities",
      "outputs": [
        {
          "internalType": "string",
          "name": "name",
          "type": "string"
        },
        {
          "internalType": "uint256",
          "name": "tokenId",
          "type": "uint256"
        },
        {
          "internalType": "uint256",
          "name": "parentId",
          "type": "uint256"
        },
        {
          "internalType": "uint8",
          "name": "basePermissions",
          "type": "uint8"
        },
        {
          "internalType": "enum IEntityManager.ImmutableType",
          "name": "entityType",
          "type": "uint8"
        },
        {
          "components": [
            {
              "internalType": "uint256",
              "name": "originalEntityId",
              "type": "uint256"
            },
            {
              "internalType": "uint8",
              "name": "maxPermissionsPerOwner",
              "type": "uint8"
            },
            {
              "internalType": "uint256",
              "name": "timestamp",
              "type": "uint256"
            }
          ],
          "internalType": "struct IEntityManager.SShareMeta",
          "name": "shareMeta",
          "type": "tuple"
        },
        {
          "components": [
            {
              "internalType": "address",
              "name": "creator",
              "type": "address"
            },
            {
              "internalType": "string",
              "name": "documentName",
              "type": "string"
            },
            {
              "internalType": "string",
              "name": "documentDescription",
              "type": "string"
            },
            {
              "internalType": "string",
              "name": "ipfsCid",
              "type": "string"
            },
            {
              "internalType": "uint256",
              "name": "commentsCount",
              "type": "uint256"
            },
            {
              "internalType": "uint256",
              "name": "timestamp",
              "type": "uint256"
            }
          ],
          "internalType": "struct IEntityManager.SFileMeta",
          "name": "fileMeta",
          "type": "tuple"
        }
      ],
      "stateMutability": "view",
      "type": "function"
    },
    {
      "inputs": [
        {
          "internalType": "uint256",
          "name": "_targetEntityId",
          "type": "uint256"
        }
      ],
      "name": "entityCanReceiveShare",
      "outputs": [
        {
          "internalType": "bool",
          "name": "",
          "type": "bool"
        }
      ],
      "stateMutability": "view",
      "type": "function"
    },
    {
      "inputs": [
        {
          "internalType": "uint256",
          "name": "_entityId",
          "type": "uint256"
        }
      ],
      "name": "findOwnerOfEntityOrganization",
      "outputs": [
        {
          "internalType": "address",
          "name": "",
          "type": "address"
        }
      ],
      "stateMutability": "view",
      "type": "function"
    },
    {
      "inputs": [
        {
          "internalType": "uint256",
          "name": "tokenId",
          "type": "uint256"
        }
      ],
      "name": "getApproved",
      "outputs": [
        {
          "internalType": "address",
          "name": "",
          "type": "address"
        }
      ],
      "stateMutability": "view",
      "type": "function"
    },
    {
      "inputs": [],
      "name": "getOwner",
      "outputs": [],
      "stateMutability": "nonpayable",
      "type": "function"
    },
    {
      "inputs": [],
      "name": "getParent",
      "outputs": [
        {
          "internalType": "address",
          "name": "",
          "type": "address"
        }
      ],
      "stateMutability": "view",
      "type": "function"
    },
    {
      "inputs": [
        {
          "internalType": "address",
          "name": "_to",
          "type": "address"
        }
      ],
      "name": "getPersonalOrg",
      "outputs": [
        {
          "internalType": "uint256",
          "name": "",
          "type": "uint256"
        }
      ],
      "stateMutability": "nonpayable",
      "type": "function"
    },
    {
      "inputs": [],
      "name": "getTotalSupply",
      "outputs": [
        {
          "internalType": "uint256",
          "name": "",
          "type": "uint256"
        }
      ],
      "stateMutability": "view",
      "type": "function"
    },
    {
      "inputs": [
        {
          "internalType": "uint256",
          "name": "_entityId",
          "type": "uint256"
        },
        {
          "internalType": "address",
          "name": "_user",
          "type": "address"
        },
        {
          "internalType": "bool",
          "name": "_walk",
          "type": "bool"
        }
      ],
      "name": "getUserPermissionsForEntity",
      "outputs": [
        {
          "internalType": "uint8",
          "name": "",
          "type": "uint8"
        }
      ],
      "stateMutability": "view",
      "type": "function"
    },
    {
      "inputs": [
        {
          "internalType": "address",
          "name": "owner",
          "type": "address"
        },
        {
          "internalType": "address",
          "name": "operator",
          "type": "address"
        }
      ],
      "name": "isApprovedForAll",
      "outputs": [
        {
          "internalType": "bool",
          "name": "",
          "type": "bool"
        }
      ],
      "stateMutability": "view",
      "type": "function"
    },
    {
      "inputs": [
        {
          "internalType": "address",
          "name": "node",
          "type": "address"
        }
      ],
      "name": "isNode",
      "outputs": [
        {
          "internalType": "bool",
          "name": "",
          "type": "bool"
        }
      ],
      "stateMutability": "view",
      "type": "function"
    },
    {
      "inputs": [
        {
          "internalType": "uint256",
          "name": "entity",
          "type": "uint256"
        }
      ],
      "name": "metadataOf",
      "outputs": [
        {
          "internalType": "address",
          "name": "creator",
          "type": "address"
        },
        {
          "internalType": "string",
          "name": "documentName",
          "type": "string"
        },
        {
          "internalType": "string",
          "name": "documentDescription",
          "type": "string"
        },
        {
          "internalType": "string",
          "name": "ipfsCid",
          "type": "string"
        },
        {
          "internalType": "uint256",
          "name": "commentsCount",
          "type": "uint256"
        },
        {
          "internalType": "uint256",
          "name": "timestamp",
          "type": "uint256"
        }
      ],
      "stateMutability": "view",
      "type": "function"
    },
    {
      "inputs": [
        {
          "internalType": "uint256",
          "name": "_entityId",
          "type": "uint256"
        },
        {
          "internalType": "uint256",
          "name": "_destId",
          "type": "uint256"
        }
      ],
      "name": "moveEntity",
      "outputs": [],
      "stateMutability": "nonpayable",
      "type": "function"
    },
    {
      "inputs": [
        {
          "internalType": "uint256",
          "name": "_orgId",
          "type": "uint256"
        },
        {
          "internalType": "address",
          "name": "_destId",
          "type": "address"
        }
      ],
      "name": "moveFile",
      "outputs": [],
      "stateMutability": "nonpayable",
      "type": "function"
    },
    {
      "inputs": [
        {
          "internalType": "uint256",
          "name": "_orgId",
          "type": "uint256"
        },
        {
          "internalType": "address",
          "name": "_destId",
          "type": "address"
        }
      ],
      "name": "moveFolder",
      "outputs": [],
      "stateMutability": "nonpayable",
      "type": "function"
    },
    {
      "inputs": [
        {
          "internalType": "uint256",
          "name": "_teamId",
          "type": "uint256"
        },
        {
          "internalType": "address",
          "name": "_destId",
          "type": "address"
        }
      ],
      "name": "moveTeam",
      "outputs": [],
      "stateMutability": "nonpayable",
      "type": "function"
    },
    {
      "inputs": [],
      "name": "name",
      "outputs": [
        {
          "internalType": "string",
          "name": "",
          "type": "string"
        }
      ],
      "stateMutability": "view",
      "type": "function"
    },
    {
      "inputs": [],
      "name": "owner",
      "outputs": [
        {
          "internalType": "address",
          "name": "",
          "type": "address"
        }
      ],
      "stateMutability": "view",
      "type": "function"
    },
    {
      "inputs": [
        {
          "internalType": "uint256",
          "name": "tokenId",
          "type": "uint256"
        }
      ],
      "name": "ownerOf",
      "outputs": [
        {
          "internalType": "address",
          "name": "",
          "type": "address"
        }
      ],
      "stateMutability": "view",
      "type": "function"
    },
    {
      "inputs": [
        {
          "internalType": "address",
          "name": "wallet",
          "type": "address"
        }
      ],
      "name": "personalOrgs",
      "outputs": [
        {
          "internalType": "uint256",
          "name": "personalOrgId",
          "type": "uint256"
        }
      ],
      "stateMutability": "view",
      "type": "function"
    },
    {
      "inputs": [
        {
          "internalType": "uint256",
          "name": "_entityId",
          "type": "uint256"
        },
        {
          "internalType": "uint256",
          "name": "_oldParentId",
          "type": "uint256"
        }
      ],
      "name": "removeEntityFromParent",
      "outputs": [],
      "stateMutability": "nonpayable",
      "type": "function"
    },
    {
      "inputs": [],
      "name": "renounceOwnership",
      "outputs": [],
      "stateMutability": "nonpayable",
      "type": "function"
    },
    {
      "inputs": [
        {
          "internalType": "address",
          "name": "from",
          "type": "address"
        },
        {
          "internalType": "address",
          "name": "to",
          "type": "address"
        },
        {
          "internalType": "uint256",
          "name": "tokenId",
          "type": "uint256"
        }
      ],
      "name": "safeTransferFrom",
      "outputs": [],
      "stateMutability": "nonpayable",
      "type": "function"
    },
    {
      "inputs": [
        {
          "internalType": "address",
          "name": "from",
          "type": "address"
        },
        {
          "internalType": "address",
          "name": "to",
          "type": "address"
        },
        {
          "internalType": "uint256",
          "name": "tokenId",
          "type": "uint256"
        },
        {
          "internalType": "bytes",
          "name": "data",
          "type": "bytes"
        }
      ],
      "name": "safeTransferFrom",
      "outputs": [],
      "stateMutability": "nonpayable",
      "type": "function"
    },
    {
      "inputs": [
        {
          "internalType": "address",
          "name": "operator",
          "type": "address"
        },
        {
          "internalType": "bool",
          "name": "approved",
          "type": "bool"
        }
      ],
      "name": "setApprovalForAll",
      "outputs": [],
      "stateMutability": "nonpayable",
      "type": "function"
    },
    {
      "inputs": [
        {
          "internalType": "uint256",
          "name": "_entityId",
          "type": "uint256"
        },
        {
          "internalType": "uint8",
          "name": "_permissions",
          "type": "uint8"
        }
      ],
      "name": "setBasePermissionsForEntity",
      "outputs": [],
      "stateMutability": "nonpayable",
      "type": "function"
    },
    {
      "inputs": [
        {
          "internalType": "uint256",
          "name": "_entityId",
          "type": "uint256"
        },
        {
          "internalType": "string",
          "name": "_documentName",
          "type": "string"
        },
        {
          "internalType": "string",
          "name": "_documentDescription",
          "type": "string"
        },
        {
          "internalType": "string",
          "name": "_ipfsCid",
          "type": "string"
        }
      ],
      "name": "setMetadata",
      "outputs": [],
      "stateMutability": "nonpayable",
      "type": "function"
    },
    {
      "inputs": [
        {
          "internalType": "address",
          "name": "_shareContract",
          "type": "address"
        }
      ],
      "name": "setShareContract",
      "outputs": [],
      "stateMutability": "nonpayable",
      "type": "function"
    },
    {
      "inputs": [
        {
          "internalType": "uint256",
          "name": "_entityId",
          "type": "uint256"
        },
        {
          "internalType": "address",
          "name": "_user",
          "type": "address"
        },
        {
          "internalType": "uint8",
          "name": "_permissions",
          "type": "uint8"
        }
      ],
      "name": "setUserPermissionsForEntity",
      "outputs": [],
      "stateMutability": "nonpayable",
      "type": "function"
    },
    {
      "inputs": [
        {
          "internalType": "bytes4",
          "name": "interfaceId",
          "type": "bytes4"
        }
      ],
      "name": "supportsInterface",
      "outputs": [
        {
          "internalType": "bool",
          "name": "",
          "type": "bool"
        }
      ],
      "stateMutability": "view",
      "type": "function"
    },
    {
      "inputs": [],
      "name": "symbol",
      "outputs": [
        {
          "internalType": "string",
          "name": "",
          "type": "string"
        }
      ],
      "stateMutability": "view",
      "type": "function"
    },
    {
      "inputs": [
        {
          "internalType": "uint256",
          "name": "tokenId",
          "type": "uint256"
        }
      ],
      "name": "tokenURI",
      "outputs": [
        {
          "internalType": "string",
          "name": "",
          "type": "string"
        }
      ],
      "stateMutability": "view",
      "type": "function"
    },
    {
      "inputs": [
        {
          "internalType": "uint256",
          "name": "_entityId",
          "type": "uint256"
        },
        {
          "internalType": "address",
          "name": "_user",
          "type": "address"
        }
      ],
      "name": "transferEntity",
      "outputs": [],
      "stateMutability": "nonpayable",
      "type": "function"
    },
    {
      "inputs": [
        {
          "internalType": "address",
          "name": "from",
          "type": "address"
        },
        {
          "internalType": "address",
          "name": "to",
          "type": "address"
        },
        {
          "internalType": "uint256",
          "name": "tokenId",
          "type": "uint256"
        }
      ],
      "name": "transferFrom",
      "outputs": [],
      "stateMutability": "nonpayable",
      "type": "function"
    },
    {
      "inputs": [
        {
          "internalType": "uint256",
          "name": "_entityId",
          "type": "uint256"
        },
        {
          "internalType": "uint256",
          "name": "_destOrgId",
          "type": "uint256"
        }
      ],
      "name": "transferItemToOrganization",
      "outputs": [],
      "stateMutability": "nonpayable",
      "type": "function"
    },
    {
      "inputs": [
        {
          "internalType": "uint256",
          "name": "_orgId",
          "type": "uint256"
        },
        {
          "internalType": "address",
          "name": "_newOwner",
          "type": "address"
        }
      ],
      "name": "transferOrganizationOwnership",
      "outputs": [],
      "stateMutability": "nonpayable",
      "type": "function"
    },
    {
      "inputs": [
        {
          "internalType": "address",
          "name": "newOwner",
          "type": "address"
        }
      ],
      "name": "transferOwnership",
      "outputs": [],
      "stateMutability": "nonpayable",
      "type": "function"
    },
    {
      "inputs": [
        {
          "internalType": "uint256",
          "name": "_entityId",
          "type": "uint256"
        },
        {
          "internalType": "address",
          "name": "_user",
          "type": "address"
        }
      ],
      "name": "walkParentsForOwnerMatch",
      "outputs": [
        {
          "internalType": "bool",
          "name": "",
          "type": "bool"
        }
      ],
      "stateMutability": "view",
      "type": "function"
    },
    {
      "inputs": [
        {
          "internalType": "uint256",
          "name": "_entityId",
          "type": "uint256"
        },
        {
          "internalType": "address",
          "name": "_user",
          "type": "address"
        },
        {
          "internalType": "uint8",
          "name": "_tPerms",
          "type": "uint8"
        }
      ],
      "name": "walkUpPermissionsUint",
      "outputs": [
        {
          "internalType": "uint8",
          "name": "",
          "type": "uint8"
        }
      ],
      "stateMutability": "view",
      "type": "function"
    }
  ],
  "bytecode": "0x60806040523480156200001157600080fd5b5060006040518060400160405280600c81526020016b456e7469747953797374656d60a01b81525060405180604001604052806002815260200161455360f01b815250620000666000620000c660201b60201c565b600162000074838262000207565b50600262000083828262000207565b505050620000a06200009a620000e860201b60201c565b62000110565b600c80546001600160a01b0319166001600160a01b0392909216919091179055620002d3565b600080546001600160a01b0319166001600160a01b0392909216919091179055565b600080546001600160a01b0316156200010b57506000546001600160a01b031690565b503390565b600b80546001600160a01b038381166001600160a01b0319831681179093556040519116919082907f8be0079c531659141344cd1fd0a4f28419497f9722a3daafe3b4186f6b6457e090600090a35050565b634e487b7160e01b600052604160045260246000fd5b600181811c908216806200018d57607f821691505b602082108103620001ae57634e487b7160e01b600052602260045260246000fd5b50919050565b601f8211156200020257600081815260208120601f850160051c81016020861015620001dd5750805b601f850160051c820191505b81811015620001fe57828155600101620001e9565b5050505b505050565b81516001600160401b0381111562000223576200022362000162565b6200023b8162000234845462000178565b84620001b4565b602080601f8311600181146200027357600084156200025a5750858301515b600019600386901b1c1916600185901b178555620001fe565b600085815260208120601f198616915b82811015620002a45788860151825594840194600190910190840162000283565b5085821015620002c35787850151600019600388901b60f8161c191681555b5050505050600190811b01905550565b61576280620002e36000396000f3fe608060405234801561001057600080fd5b50600436106103835760003560e01c806381fb5d4b116101de578063c87b56dd1161010f578063db994479116100ad578063e985e9c51161007c578063e985e9c5146107f5578063ef2bdabb14610831578063f2fde38b14610844578063f31180271461085757600080fd5b8063db994479146107cf578063dc34ce2614610418578063de7979cd14610418578063e8fca677146107e257600080fd5b8063cc42c360116100e9578063cc42c36014610769578063d32b01ad1461077c578063d7375a461461079c578063d88f990f146107aa57600080fd5b8063c87b56dd14610700578063c970c89c14610713578063cb511cd21461075657600080fd5b80639d95f1cc1161017c578063b88d4fde11610156578063b88d4fde146106bf578063c0b6f515146106d2578063c2104f80146106e5578063c4e41b22146106f857600080fd5b80639d95f1cc14610686578063a220e27214610699578063a22cb465146106ac57600080fd5b8063893d20e8116101b8578063893d20e8146104165780638da5cb5b1461065a57806395d89b411461066b5780639b11cd171461067357600080fd5b806381fb5d4b1461061157806383c18437146106345780638721f5e01461064757600080fd5b8063313a9940116102b85780636331883b1161025657806370a082311161023057806370a08231146105b6578063715018a6146105d75780637b70fbf0146105df57806380f760211461060057600080fd5b80636331883b1461056a5780636352211e146105905780636d9958b8146105a357600080fd5b80634b4b98bd116102925780634b4b98bd1461051e5780634c3924b5146105315780634cb9ca49146105445780635f3ad37e1461055757600080fd5b8063313a9940146104c1578063361691db146104f857806342842e0e1461050b57600080fd5b80630ef7cc8e116103255780631d459c40116102ff5780631d459c40146104755780632129ce541461048857806323b872dd1461049b5780632f87a0c7146104ae57600080fd5b80630ef7cc8e1461043d578063100f0ce114610418578063166fbbf21461046257600080fd5b8063081812fc11610361578063081812fc146103d8578063095ea7b314610403578063099fca3d146104185780630edf3bee1461042a57600080fd5b8063017501521461038857806301ffc9a7146103b057806306fdde03146103c3575b600080fd5b61039b6103963660046144da565b61086a565b60405190151581526020015b60405180910390f35b61039b6103be36600461450d565b610914565b6103cb610964565b6040516103a7919061457a565b6103eb6103e636600461458d565b6109f6565b6040516001600160a01b0390911681526020016103a7565b6104166104113660046145a6565b610a1d565b005b6104166104263660046145d2565b5050565b6104166104383660046147b2565b610b49565b61045061044b36600461458d565b610c3d565b6040516103a796959493929190614842565b6104166104703660046148a0565b610e14565b610416610483366004614931565b610fa6565b61039b610496366004614988565b611257565b6104166104a93660046149c6565b6112a8565b6104166104bc366004614a07565b6112e0565b6104d46104cf366004614a41565b6113ef565b60408051825181526020928301516001600160a01b031692810192909252016103a7565b6104166105063660046147b2565b6116dc565b6104166105193660046149c6565b6117c8565b61041661052c366004614a75565b6117e3565b6103eb61053f36600461458d565b611953565b610416610552366004614988565b611991565b610416610565366004614b49565b611ad4565b61057d61057836600461458d565b611bc8565b6040516103a79796959493929190614bad565b6103eb61059e36600461458d565b611ea3565b6104166105b1366004614c8d565b611f03565b6105c96105c43660046144da565b611f19565b6040519081526020016103a7565b610416611f9f565b6105f26105ed366004614a07565b611fb3565b6040516103a7929190614d07565b600c546001600160a01b03166103eb565b61039b61061f3660046144da565b600d6020526000908152604090205460ff1681565b610416610642366004614b49565b61207c565b6105c96106553660046144da565b61211f565b600b546001600160a01b03166103eb565b6103cb6121ee565b610416610681366004614d29565b6121fd565b6104166106943660046144da565b61254b565b6104166106a73660046144da565b612577565b6104166106ba366004614ddc565b6125a1565b6104166106cd366004614e0a565b61261e565b61039b6106e03660046145d2565b612657565b6104166106f3366004614a07565b6126fc565b6105c9612aed565b6103cb61070e36600461458d565b612afd565b610416610721366004614a07565b600081815260096020908152604080832060030180546001810182559084529183209091018490559281529190912060020155565b61039b61076436600461458d565b612b70565b610416610777366004614e69565b612bff565b6105c961078a3660046144da565b600a6020526000908152604090205481565b610416610426366004614a07565b6107bd6107b8366004614f40565b612d2c565b60405160ff90911681526020016103a7565b6107bd6107dd366004614988565b612d9d565b6104166107f0366004614c8d565b612fad565b61039b610803366004614f82565b6001600160a01b03918216600090815260066020908152604080832093909416825291909152205460ff1690565b61041661083f3660046145d2565b613027565b6104166108523660046144da565b613112565b610416610865366004614fb0565b61318b565b600c546000906001600160a01b031661089c57506001600160a01b03166000908152600d602052604090205460ff1690565b600c5460405162ba80a960e11b81526001600160a01b03848116600483015290911690630175015290602401602060405180830381865afa1580156108e5573d6000803e3d6000fd5b505050506040513d601f19601f820116820180604052508101906109099190614ff6565b92915050565b919050565b60006001600160e01b031982166380ac58cd60e01b148061094557506001600160e01b03198216635b5e139f60e01b145b8061090957506301ffc9a760e01b6001600160e01b0319831614610909565b60606001805461097390615013565b80601f016020809104026020016040519081016040528092919081815260200182805461099f90615013565b80156109ec5780601f106109c1576101008083540402835291602001916109ec565b820191906000526020600020905b8154815290600101906020018083116109cf57829003601f168201915b5050505050905090565b6000610a0182613203565b506000908152600560205260409020546001600160a01b031690565b6000610a2882611ea3565b9050806001600160a01b0316836001600160a01b031603610a9a5760405162461bcd60e51b815260206004820152602160248201527f4552433732313a20617070726f76616c20746f2063757272656e74206f776e656044820152603960f91b60648201526084015b60405180910390fd5b806001600160a01b0316610aac613253565b6001600160a01b03161480610ac85750610ac881610803613253565b610b3a5760405162461bcd60e51b815260206004820152603d60248201527f4552433732313a20617070726f76652063616c6c6572206973206e6f7420746f60448201527f6b656e206f776e6572206f7220617070726f76656420666f7220616c6c0000006064820152608401610a91565b610b44838361327a565b505050565b610b52846132e8565b610b9e5760405162461bcd60e51b815260206004820152601c60248201527f506172656e7420666f6c64657220646f6573206e6f74206578697374000000006044820152606401610a91565b600160008581526009602052604090206007015460ff166005811115610bc657610bc6614b75565b14610c275760405162461bcd60e51b815260206004820152602b60248201527f596f75206d6179206f6e6c79206164642061205465616d20746f20616e204f7260448201526a67616e697a6174696f6e2160a81b6064820152608401610a91565b610c36858560028686866121fd565b5050505050565b600760205260009081526040902080546001820180546001600160a01b039092169291610c6990615013565b80601f0160208091040260200160405190810160405280929190818152602001828054610c9590615013565b8015610ce25780601f10610cb757610100808354040283529160200191610ce2565b820191906000526020600020905b815481529060010190602001808311610cc557829003601f168201915b505050505090806002018054610cf790615013565b80601f0160208091040260200160405190810160405280929190818152602001828054610d2390615013565b8015610d705780601f10610d4557610100808354040283529160200191610d70565b820191906000526020600020905b815481529060010190602001808311610d5357829003601f168201915b505050505090806003018054610d8590615013565b80601f0160208091040260200160405190810160405280929190818152602001828054610db190615013565b8015610dfe5780601f10610dd357610100808354040283529160200191610dfe565b820191906000526020600020905b815481529060010190602001808311610de157829003601f168201915b5050505050908060040154908060050154905086565b610e2784610e20613253565b6001611257565b80610e405750610e4084610e39613253565b6004611257565b610e9a5760405162461bcd60e51b815260206004820152602560248201527f46494c453a204e6f7420616c6c6f77656420746f2077726974652074686973206044820152642324a6229760d91b6064820152608401610a91565b6040518060c00160405280610ead613253565b6001600160a01b03908116825260208083018790526040808401879052606084018690526000608085018190524260a09095019490945288845260078252909220835181546001600160a01b0319169216919091178155908201516001820190610f179082615095565b5060408201516002820190610f2c9082615095565b5060608201516003820190610f419082615095565b506080820151600482015560a0909101516005909101556000848152600760205260409081902090517fe3387ed4fe2654dd6f9a8fc036873be594c9b9bbb394af97c3c79a77f32e683a91610f98918791906151d1565b60405180910390a150505050565b610faf856132e8565b610ffb5760405162461bcd60e51b815260206004820152601b60248201527f536861726520736f7572636520646f65736e27742065786973742100000000006044820152606401610a91565b600360008681526009602052604090206007015460ff16600581111561102357611023614b75565b14806110545750600460008681526009602052604090206007015460ff16600581111561105257611052614b75565b145b6110b95760405162461bcd60e51b815260206004820152603060248201527f596f75206d6179206f6e6c79206372656174652053686172657320666f72206660448201526f34b632b99037b9103337b63232b9399760811b6064820152608401610a91565b6110c2836132e8565b8015611150575060008381526009602052604081206007015460ff1660058111156110ef576110ef614b75565b14806111205750600160008481526009602052604090206007015460ff16600581111561111e5761111e614b75565b145b806111505750600260008481526009602052604090206007015460ff16600581111561114e5761114e614b75565b145b6111b45760405162461bcd60e51b815260206004820152602f60248201527f596f75206d6179206f6e6c792073686172652077697468204f7267616e697a6160448201526e74696f6e73206f72205465616d732160881b6064820152608401610a91565b60006111bf84611953565b90506111d181856005886002876121fd565b60006111dc600e5490565b6040805160608101825289815260ff96871660208083019182524283850190815260008681526009808452868220955160088701559351938501805460ff191694909b16939093179099559751600a909201919091559889528820600401805460018101825590895294909720909301959095555050505050565b60006112638484612657565b1515600103611274575060016112a1565b600061128285856000612d9d565b90508260ff1681841660ff161015801561129d575060108116155b9150505b9392505050565b6112b96112b3613253565b82613305565b6112d55760405162461bcd60e51b8152600401610a919061525a565b610b44838383613383565b60005b600082815260096020526040902060030154811015610b44576000828152600960205260409020600301805484919083908110611322576113226152a7565b9060005260206000200154036113dd5760008281526009602052604090206003018054611351906001906152d3565b81548110611361576113616152a7565b9060005260206000200154600960008481526020019081526020016000206003018281548110611393576113936152a7565b9060005260206000200181905550600960008381526020019081526020016000206003018054806113c6576113c66152e6565b600190038181906000526020600020016000905590555b806113e7816152fc565b9150506112e3565b604080518082019091526000808252602082015260208201356114128380615315565b60405161142092919061535b565b60405180910390201461148a5760405162461bcd60e51b815260206004820152602c60248201527f546865206d657373616765206861736820646f65736e2774206d61746368207460448201526b6865206f726967696e616c2160a01b6064820152608401610a91565b60007f64926492649264926492649264926492649264926492649264926492649264926114ba6040850185615315565b60206114c96040880188615315565b6114d49291506152d3565b906114e26040880188615315565b6114f094909392915061536b565b6114f991615395565b14905060008061150f60808601606087016144da565b6001600160a01b03163b11905081806115255750805b1561159d5761155861153d60808601606087016144da565b602086013561154f6040880188615315565b600160006134f4565b6115985760405162461bcd60e51b8152602060048201526011602482015270496e76616c6964207369676e617475726560781b6044820152606401610a91565b6116af565b60006115fa85602001356040517f19457468657265756d205369676e6564204d6573736167653a0a3332000000006020820152603c8101829052600090605c01604051602081830303815290604052805190602001209050919050565b905060006116498261160f6040890189615315565b8080601f01602080910402602001604051908101604052809392919081815260200183838082843760009201919091525061398f92505050565b905061165b60808701606088016144da565b6001600160a01b0316816001600160a01b0316146116ac5760405162461bcd60e51b815260206004820152600e60248201526d24b73b30b634b21039b4b3b732b960911b6044820152606401610a91565b50505b60006116bb8580615315565b8101906116c891906153b3565b90506116d3816139b3565b50949350505050565b60008411806116ef57506116ef846132e8565b6117345760405162461bcd60e51b8152602060048201526016602482015275506172656e7420646f6573206e6f742065786973742160501b6044820152606401610a91565b600460008581526009602052604090206007015460ff16600581111561175c5761175c614b75565b036117b95760405162461bcd60e51b815260206004820152602760248201527f596f752063616e27742073746f7265206120666f6c64657220696e7369646520604482015266612066696c652160c81b6064820152608401610a91565b610c36858560038686866121fd565b610b448383836040518060200160405280600081525061261e565b6117ee610396613253565b61183a5760405162461bcd60e51b815260206004820152601e60248201527f4e4f444548414e444c45523a205045524d495353494f4e5f44454e49454400006044820152606401610a91565b6000611845836113ef565b60208101519091506001600160a01b031633148061186e575060208101516001600160a01b0316155b6118ba5760405162461bcd60e51b815260206004820152601e60248201527f4e4f444548414e444c45523a205045524d495353494f4e5f44454e49454400006044820152606401610a91565b6118c33361086a565b806118ee57506118d960808401606085016144da565b6001600160a01b0316336001600160a01b0316145b61193a5760405162461bcd60e51b815260206004820152601e60248201527f4e4f444548414e444c45523a205045524d495353494f4e5f44454e49454400006044820152606401610a91565b610b4461194d60808501606086016144da565b83613a06565b6000818152600960205260408120600201548015611974576112a181611953565b6000838152600360205260409020546001600160a01b03166112a1565b61199a836132e8565b6119b65760405162461bcd60e51b8152600401610a91906153eb565b6000838152600360205260409020546001600160a01b03838116911603611a2e5760405162461bcd60e51b815260206004820152602660248201527f596f75206d6179206e6f74206564697420796f7572206f776e207065726d697360448201526573696f6e732160d01b6064820152608401610a91565b611a3a83610e20613253565b611a565760405162461bcd60e51b8152600401610a9190615414565b60008381526009602090815260408083206001600160a01b0386168085526006909101835292819020805460ff191660ff86169081179091558151878152928301939093528101919091527f806f3d73b27608e9c28175a095edf664ba057b78c87b1109fede7148a987e8fa906060015b60405180910390a1505050565b611add826132e8565b611af95760405162461bcd60e51b8152600401610a91906153eb565b600082815260096020526040902060080154611b14906132e8565b611b305760405162461bcd60e51b8152600401610a91906153eb565b600082815260096020526040902060080154611b4e90610e20613253565b611b6a5760405162461bcd60e51b8152600401610a9190615414565b600082815260096020818152604092839020909101805460ff191660ff85169081179091558251858152918201527f0e93916aae1d2249ca9446caa01e4518920ef6b1bf2a425b85a136568a65202191015b60405180910390a15050565b600960205260009081526040902080548190611be390615013565b80601f0160208091040260200160405190810160405280929190818152602001828054611c0f90615013565b8015611c5c5780601f10611c3157610100808354040283529160200191611c5c565b820191906000526020600020905b815481529060010190602001808311611c3f57829003601f168201915b5050505060018301546002840154600585015460078601546040805160608101825260088901548152600989015460ff908116602080840191909152600a8b015483850152835160c08101909452600b8b0180546001600160a01b03168552600c8c0180549b9c999b989a5096831698929095169692959194929084019190611ce490615013565b80601f0160208091040260200160405190810160405280929190818152602001828054611d1090615013565b8015611d5d5780601f10611d3257610100808354040283529160200191611d5d565b820191906000526020600020905b815481529060010190602001808311611d4057829003601f168201915b50505050508152602001600282018054611d7690615013565b80601f0160208091040260200160405190810160405280929190818152602001828054611da290615013565b8015611def5780601f10611dc457610100808354040283529160200191611def565b820191906000526020600020905b815481529060010190602001808311611dd257829003601f168201915b50505050508152602001600382018054611e0890615013565b80601f0160208091040260200160405190810160405280929190818152602001828054611e3490615013565b8015611e815780601f10611e5657610100808354040283529160200191611e81565b820191906000526020600020905b815481529060010190602001808311611e6457829003601f168201915b5050505050815260200160048201548152602001600582015481525050905087565b6000818152600360205260408120546001600160a01b0316806109095760405162461bcd60e51b8152602060048201526018602482015277115490cdcc8c4e881a5b9d985b1a59081d1bdad95b88125160421b6044820152606401610a91565b611f1384600060018686866121fd565b50505050565b60006001600160a01b038216611f835760405162461bcd60e51b815260206004820152602960248201527f4552433732313a2061646472657373207a65726f206973206e6f7420612076616044820152683634b21037bbb732b960b91b6064820152608401610a91565b506001600160a01b031660009081526004602052604090205490565b611fa7613b55565b611fb16000613bce565b565b60086020528160005260406000208181548110611fcf57600080fd5b906000526020600020906002020160009150915050806000018054611ff390615013565b80601f016020809104026020016040519081016040528092919081815260200182805461201f90615013565b801561206c5780601f106120415761010080835404028352916020019161206c565b820191906000526020600020905b81548152906001019060200180831161204f57829003601f168201915b5050505050908060010154905082565b612085826132e8565b6120a15760405162461bcd60e51b8152600401610a91906153eb565b6120ad82610e20613253565b6120c95760405162461bcd60e51b8152600401610a9190615414565b600082815260096020908152604091829020600501805460ff191660ff85169081179091558251858152918201527fea90c34fc17937b7dd7f5d1d80096eab8f8628cac50de460e26e1290e5b0ae9f9101611bbc565b6000606061215d83604051806040016040528060158152602001742832b939b7b730b61027b933b0b734bd30ba34b7b760591b815250600284612fad565b6001600160a01b0383166000908152600a60205260409020546121d15760405162461bcd60e51b815260206004820152602660248201527f4572726f7220616371756972696e6720706572736f6e616c206f7267616e697a6044820152656174696f6e2160d01b6064820152608401610a91565b50506001600160a01b03166000908152600a602052604090205490565b60606002805461097390615013565b600f546000906001600160a01b0316612214613253565b6001600160a01b03161490508061230a57851561230a57600086118061223e575061223e866132e8565b6122835760405162461bcd60e51b8152602060048201526016602482015275506172656e7420646f6573206e6f742065786973742160501b6044820152606401610a91565b61229b8661228f613253565b61049660046002615471565b806122ad57506122ad86610e20613253565b61230a5760405162461bcd60e51b815260206004820152602860248201527f55736572206d6179206e6f7420706572666f726d207468697320454e5449545960448201526720616374696f6e2160c01b6064820152608401610a91565b612318600e80546001019055565b6000612323600e5490565b905061232f8882613c20565b60008181526009602052604090206002810188905561234e8682615095565b50600081815260096020526040902060018082018390556005808301805460ff891660ff1991821617909155600790930180548a949193911691849081111561239957612399614b75565b02179055507fc7a717cc3e4afb2ce34b63ea0f6a1894cbd31feea96df1be5085c541fc8b834981878a6040516123d19392919061548a565b60405180910390a160005b8351811015612515578381815181106123f7576123f76152a7565b60200260200101516020015160096000848152602001908152602001600020600601600086848151811061242d5761242d6152a7565b6020026020010151600001516001600160a01b03166001600160a01b0316815260200190815260200160002060006101000a81548160ff021916908360ff1602179055507f806f3d73b27608e9c28175a095edf664ba057b78c87b1109fede7148a987e8fa828583815181106124a5576124a56152a7565b6020026020010151600001518684815181106124c3576124c36152a7565b6020026020010151602001516040516124fb939291909283526001600160a01b0391909116602083015260ff16604082015260600190565b60405180910390a18061250d816152fc565b9150506123dc565b508615612541576000878152600960209081526040822060030180546001810182559083529120018190555b5050505050505050565b612553613b55565b6001600160a01b03166000908152600d60205260409020805460ff19166001179055565b61257f613b55565b600f80546001600160a01b0319166001600160a01b0392909216919091179055565b6001600160a01b03821661260c5760405162461bcd60e51b815260206004820152602c60248201527f4552433732313a2061646472657373207a65726f206973206e6f74206120766160448201526b3634b21037b832b930ba37b960a11b6064820152608401610a91565b610426612617613253565b8383613c3a565b61262f612629613253565b83613305565b61264b5760405162461bcd60e51b8152600401610a919061525a565b611f1384848484613d08565b6000828152600360205260408120546001600160a01b0383811691160361268057506001610909565b600083815260096020526040902060020154156126f357600083815260096020908152604080832060020154835260039091529020546001600160a01b038381169116036126d057506001610909565b6000838152600960205260409020600201546126ec9083612657565b9050610909565b50600092915050565b80820361274b5760405162461bcd60e51b815260206004820152601a60248201527f43616e2774206d6f7665206974656d20746f20697473656c66210000000000006044820152606401610a91565b612754826132e8565b6127705760405162461bcd60e51b8152600401610a91906153eb565b612779816132e8565b6127bc5760405162461bcd60e51b8152602060048201526014602482015273496e76616c69642064657374696e6174696f6e2160601b6044820152606401610a91565b60008281526009602052604081206007015460ff1660058111156127e2576127e2614b75565b0361283f5760405162461bcd60e51b815260206004820152602760248201527f596f752063616e2774206d6f7665206120506572736f6e616c204f7267616e696044820152667a6174696f6e2160c81b6064820152608401610a91565b600560008281526009602052604090206007015460ff16600581111561286757612867614b75565b0361287157600080fd5b600460008281526009602052604090206007015460ff16600581111561289957612899614b75565b036128a357600080fd5b60008181526009602052604090206007015460ff1660058111156128c9576128c9614b75565b60008381526009602052604090206007015460ff1660058111156128ef576128ef614b75565b10156129555760405162461bcd60e51b815260206004820152602f60248201527f596f75206d6179206f6e6c79206d6f7665206974656d7320746f20686967686560448201526e39103a34b2b91034ba32b6b997171760891b6064820152608401610a91565b61295f8282613d3b565b156129bf5760405162461bcd60e51b815260206004820152602a60248201527f5468697320776f756c6420726573756c7420696e20612063697263756c6172206044820152697265666572656e63652160b01b6064820152608401610a91565b6129cb82610e20613253565b806129f757506129e4826129dd613253565b6002611257565b80156129f757506129f782610e39613253565b612a135760405162461bcd60e51b8152600401610a91906154b5565b612a1f81610e20613253565b80612a445750612a31816129dd613253565b8015612a445750612a4481610e39613253565b612a605760405162461bcd60e51b8152600401610a91906154b5565b600082815260096020526040902060020154612a7c83826112e0565b6000828152600960209081526040808320600301805460018101825590845291832090910185905584825290819020600281018490556007015490517f2586adc115ddfb54ef91796ba57b61193f4e4e1c5bf069e34860a722ba8f994a91611ac791869160ff1690859087906154fc565b6000612af8600e5490565b905090565b6060612b0882613203565b6000612b1f60408051602081019091526000815290565b90506000815111612b3f57604051806020016040528060008152506112a1565b80612b4984613df0565b604051602001612b5a929190615522565b6040516020818303038152906040529392505050565b60008060008381526009602052604090206007015460ff166005811115612b9957612b99614b75565b1480612bca5750600160008381526009602052604090206007015460ff166005811115612bc857612bc8614b75565b145b806109095750600260008381526009602052604090206007015460ff166005811115612bf857612bf8614b75565b1492915050565b612c08866132e8565b612c4d5760405162461bcd60e51b8152602060048201526016602482015275506172656e7420646f6573206e6f742065786973742160501b6044820152606401610a91565b600460008781526009602052604090206007015460ff166005811115612c7557612c75614b75565b03612cd05760405162461bcd60e51b815260206004820152602560248201527f596f752063616e27742073746f726520612066696c6520696e7369646520612060448201526466696c652160d81b6064820152608401610a91565b612cdf878760038888886121fd565b6000868152600960205260409020600301612cf9600e5490565b81546001810183556000928352602090922090910155612d23612d1b600e5490565b868484610e14565b50505050505050565b6000612d37846132e8565b612d535760405162461bcd60e51b8152600401610a91906153eb565b60008481526009602090815260408083206001600160a01b038716845260060190915290205460ff16821515600103612d9557612d9285856000612d9d565b90505b949350505050565b6000835b612daa816132e8565b15612e73576000818152600360205260409020546001600160a01b03858116911603612dd7576001831792505b60008181526009602090815260408083206001600160a01b038816845260060190915290205460ff16612e1e5760008181526009602052604090206005015460ff16612e48565b60008181526009602090815260408083206001600160a01b038816845260060190915290205460ff165b909217916001831615612e5c5782600f1692505b600090815260096020526040902060020154612da1565b60005b612e7f826132e8565b15612fa25760005b600083815260096020526040902060040154811015612f885760096000600960008681526020019081526020016000206004018381548110612ecb57612ecb6152a7565b6000918252602080832090910154835282019290925260400190206009015460ff81168317926001908116911617612f035781612f1e565b6004612f1160026001615471565b612f1b9190615471565b82175b9150612f7260096000600960008781526020019081526020016000206004018481548110612f4e57612f4e6152a7565b90600052602060002001548152602001908152602001600020600201548784612d9d565b9091169080612f80816152fc565b915050612e87565b506000918252600960205260409091206002015490612e76565b909217949350505050565b6001600160a01b0384166000908152600a60205260409020541580612ff157506001600160a01b0384166000908152600a6020526040902054612fef906132e8565b155b15611f1357613005846000808686866121fd565b600e546001600160a01b0385166000908152600a602052604090205550505050565b613030826132e8565b61304c5760405162461bcd60e51b8152600401610a91906153eb565b60008281526009602052604081206007015460ff16600581111561307257613072614b75565b0361308f5760405162461bcd60e51b8152600401610a9190615551565b6000828152600360205260409020546130b2906001600160a01b031682846117c8565b600082815260096020526040812060020154906130ce8361211f565b90506130da84836112e0565b600081815260096020908152604080832060030180546001810182559084529183209091018690558582529020600201819055611f13565b61311a613b55565b6001600160a01b03811661317f5760405162461bcd60e51b815260206004820152602660248201527f4f776e61626c653a206e6577206f776e657220697320746865207a65726f206160448201526564647265737360d01b6064820152608401610a91565b61318881613bce565b50565b60008281526008602090815260408083208151808301909252848252428284015280546001810182559084529190922082516002909202019081906131d09082615095565b5060209182015160019091015560008381526007909152604081206004018054916131fa836152fc565b91905055505050565b61320c816132e8565b6131885760405162461bcd60e51b8152602060048201526018602482015277115490cdcc8c4e881a5b9d985b1a59081d1bdad95b88125160421b6044820152606401610a91565b600080546001600160a01b03161561327557506000546001600160a01b031690565b503390565b600081815260056020526040902080546001600160a01b0319166001600160a01b03841690811790915581906132af82611ea3565b6001600160a01b03167f8c5be1e5ebec7d5bd14f71427d1e84f3dd0314c0f7b2291e5b200ac8c7c3b92560405160405180910390a45050565b6000908152600360205260409020546001600160a01b0316151590565b60008061331183611ea3565b9050806001600160a01b0316846001600160a01b0316148061335857506001600160a01b0380821660009081526006602090815260408083209388168352929052205460ff165b80612d955750836001600160a01b0316613371846109f6565b6001600160a01b031614949350505050565b826001600160a01b031661339682611ea3565b6001600160a01b0316146133bc5760405162461bcd60e51b8152600401610a919061559c565b6001600160a01b03821661341e5760405162461bcd60e51b8152602060048201526024808201527f4552433732313a207472616e7366657220746f20746865207a65726f206164646044820152637265737360e01b6064820152608401610a91565b61342b8383836001613e82565b826001600160a01b031661343e82611ea3565b6001600160a01b0316146134645760405162461bcd60e51b8152600401610a919061559c565b600081815260056020908152604080832080546001600160a01b03199081169091556001600160a01b0387811680865260048552838620805460001901905590871680865283862080546001019055868652600390945282852080549092168417909155905184937fddf252ad1be2c89b69c2b068fc378daa952ba7f163c4a11628f55a4df523b3ef91a4505050565b60006001600160a01b0387163b6060827f649264926492649264926492649264926492649264926492649264926492649288886135326020826152d3565b61353e928b929061536b565b61354791615395565b149050801561361e576000606089828a6135626020826152d3565b9261356f9392919061536b565b81019061357c91906155e1565b9550909250905084158061358d5750865b1561361757600080836001600160a01b0316836040516135ad9190615656565b6000604051808303816000865af19150503d80600081146135ea576040519150601f19603f3d011682016040523d82523d6000602084013e6135ef565b606091505b5091509150816136145780604051639d0d6e2d60e01b8152600401610a91919061457a565b50505b5050613658565b87878080601f0160208091040260200160405190810160405280939291908181526020018383808284376000920191909152509294505050505b80806136645750600083115b156137c757604051630b135d3f60e11b81526001600160a01b038b1690631626ba7e90613697908c908690600401615672565b602060405180830381865afa9250505080156136d0575060408051601f3d908101601f191682019092526136cd9181019061568b565b60015b61374c573d8080156136fe576040519150601f19603f3d011682016040523d82523d6000602084013e613703565b606091505b50851580156137125750600084115b15613731576137268b8b8b8b8b60016134f4565b945050505050613985565b80604051636f2a959960e01b8152600401610a91919061457a565b6001600160e01b03198116630b135d3f60e11b1480158161376b575086155b80156137775750600085115b156137975761378b8c8c8c8c8c60016134f4565b95505050505050613985565b841580156137a25750825b80156137ac575087155b156137bb57806000526001601ffd5b94506139859350505050565b6041871461383d5760405162461bcd60e51b815260206004820152603a60248201527f5369676e617475726556616c696461746f72237265636f7665725369676e657260448201527f3a20696e76616c6964207369676e6174757265206c656e6774680000000000006064820152608401610a91565b600061384c6020828a8c61536b565b61385591615395565b90506000613867604060208b8d61536b565b61387091615395565b905060008a8a6040818110613887576138876152a7565b919091013560f81c915050601b81148015906138a757508060ff16601c14155b1561390a5760405162461bcd60e51b815260206004820152602d60248201527f5369676e617475726556616c696461746f723a20696e76616c6964207369676e60448201526c617475726520762076616c756560981b6064820152608401610a91565b6040805160008152602081018083528e905260ff83169181019190915260608101849052608081018390526001600160a01b038e169060019060a0016020604051602081039080840390855afa158015613968573d6000803e3d6000fd5b505050602060405103516001600160a01b03161496505050505050505b9695505050505050565b600080600061399e8585613ed9565b915091506139ab81613f1e565b509392505050565b600043826000015110156139fe5760405162461bcd60e51b815260206004820152601260248201527113595cdcd859d9481a5cc8195e1c1a5c995960721b6044820152606401610a91565b506001919050565b816001600160a01b038116613a695760405162461bcd60e51b815260206004820152602360248201527f436f6e746578743a206e6577436f6e74657874206973207a65726f206164647260448201526265737360e81b6064820152608401610a91565b600080546001600160a01b0319166001600160a01b03831617905560005b8251811015613b3f57600080306001600160a01b0316858481518110613aaf57613aaf6152a7565b6020026020010151604051613ac49190615656565b600060405180830381855af49150503d8060008114613aff576040519150601f19603f3d011682016040523d82523d6000602084013e613b04565b606091505b5091509150818190613b295760405162461bcd60e51b8152600401610a91919061457a565b5050508080613b37906152fc565b915050613a87565b50600080546001600160a01b0319169055505050565b613b5d613253565b6001600160a01b0316613b78600b546001600160a01b031690565b6001600160a01b031614611fb15760405162461bcd60e51b815260206004820181905260248201527f4f776e61626c653a2063616c6c6572206973206e6f7420746865206f776e65726044820152606401610a91565b600b80546001600160a01b038381166001600160a01b0319831681179093556040519116919082907f8be0079c531659141344cd1fd0a4f28419497f9722a3daafe3b4186f6b6457e090600090a35050565b610426828260405180602001604052806000815250614068565b816001600160a01b0316836001600160a01b031603613c9b5760405162461bcd60e51b815260206004820152601960248201527f4552433732313a20617070726f766520746f2063616c6c6572000000000000006044820152606401610a91565b6001600160a01b03838116600081815260066020908152604080832094871680845294825291829020805460ff191686151590811790915591519182527f17307eab39ab6107e8899845ad3d59bd9653f200f220920489ca2b5937696c31910160405180910390a3505050565b613d13848484613383565b613d1f8484848461409b565b611f135760405162461bcd60e51b8152600401610a91906156a8565b6000613d46836132e8565b613d625760405162461bcd60e51b8152600401610a91906153eb565b613d6b826132e8565b613dae5760405162461bcd60e51b8152602060048201526014602482015273496e76616c69642064657374696e6174696f6e2160601b6044820152606401610a91565b815b613db9816132e8565b15613de657808403613dcf576001915050610909565b600090815260096020526040902060020154613db0565b5060009392505050565b60606000613dfd836141a3565b60010190506000816001600160401b03811115613e1c57613e1c614602565b6040519080825280601f01601f191660200182016040528015613e46576020820181803683370190505b5090508181016020015b600019016f181899199a1a9b1b9c1cb0b131b232b360811b600a86061a8153600a8504945084613e5057509392505050565b6001600160a01b03841615613ed45760008281526009602052604081206007015460ff166005811115613eb757613eb7614b75565b03613ed45760405162461bcd60e51b8152600401610a9190615551565b611f13565b6000808251604103613f0f5760208301516040840151606085015160001a613f038782858561427b565b94509450505050613f17565b506000905060025b9250929050565b6000816004811115613f3257613f32614b75565b03613f3a5750565b6001816004811115613f4e57613f4e614b75565b03613f9b5760405162461bcd60e51b815260206004820152601860248201527f45434453413a20696e76616c6964207369676e617475726500000000000000006044820152606401610a91565b6002816004811115613faf57613faf614b75565b03613ffc5760405162461bcd60e51b815260206004820152601f60248201527f45434453413a20696e76616c6964207369676e6174757265206c656e677468006044820152606401610a91565b600381600481111561401057614010614b75565b036131885760405162461bcd60e51b815260206004820152602260248201527f45434453413a20696e76616c6964207369676e6174757265202773272076616c604482015261756560f01b6064820152608401610a91565b614072838361433f565b61407f600084848461409b565b610b445760405162461bcd60e51b8152600401610a91906156a8565b60006001600160a01b0384163b1561419857836001600160a01b031663150b7a026140c4613253565b8786866040518563ffffffff1660e01b81526004016140e694939291906156fa565b6020604051808303816000875af1925050508015614121575060408051601f3d908101601f1916820190925261411e9181019061568b565b60015b61417e573d80801561414f576040519150601f19603f3d011682016040523d82523d6000602084013e614154565b606091505b5080516000036141765760405162461bcd60e51b8152600401610a91906156a8565b805181602001fd5b6001600160e01b031916630a85bd0160e11b149050612d95565b506001949350505050565b60008072184f03e93ff9f4daa797ed6e38ed64bf6a1f0160401b83106141e25772184f03e93ff9f4daa797ed6e38ed64bf6a1f0160401b830492506040015b6d04ee2d6d415b85acef8100000000831061420e576d04ee2d6d415b85acef8100000000830492506020015b662386f26fc10000831061422c57662386f26fc10000830492506010015b6305f5e1008310614244576305f5e100830492506008015b612710831061425857612710830492506004015b6064831061426a576064830492506002015b600a83106109095760010192915050565b6000807f7fffffffffffffffffffffffffffffff5d576e7357a4501ddfe92f46681b20a08311156142b25750600090506003614336565b6040805160008082526020820180845289905260ff881692820192909252606081018690526080810185905260019060a0016020604051602081039080840390855afa158015614306573d6000803e3d6000fd5b5050604051601f1901519150506001600160a01b03811661432f57600060019250925050614336565b9150600090505b94509492505050565b6001600160a01b0382166143955760405162461bcd60e51b815260206004820181905260248201527f4552433732313a206d696e7420746f20746865207a65726f20616464726573736044820152606401610a91565b61439e816132e8565b156143eb5760405162461bcd60e51b815260206004820152601c60248201527f4552433732313a20746f6b656e20616c7265616479206d696e746564000000006044820152606401610a91565b6143f9600083836001613e82565b614402816132e8565b1561444f5760405162461bcd60e51b815260206004820152601c60248201527f4552433732313a20746f6b656e20616c7265616479206d696e746564000000006044820152606401610a91565b6001600160a01b038216600081815260046020908152604080832080546001019055848352600390915280822080546001600160a01b0319168417905551839291907fddf252ad1be2c89b69c2b068fc378daa952ba7f163c4a11628f55a4df523b3ef908290a45050565b6001600160a01b038116811461318857600080fd5b803561090f816144ba565b6000602082840312156144ec57600080fd5b81356112a1816144ba565b6001600160e01b03198116811461318857600080fd5b60006020828403121561451f57600080fd5b81356112a1816144f7565b60005b8381101561454557818101518382015260200161452d565b50506000910152565b6000815180845261456681602086016020860161452a565b601f01601f19169290920160200192915050565b6020815260006112a1602083018461454e565b60006020828403121561459f57600080fd5b5035919050565b600080604083850312156145b957600080fd5b82356145c4816144ba565b946020939093013593505050565b600080604083850312156145e557600080fd5b8235915060208301356145f7816144ba565b809150509250929050565b634e487b7160e01b600052604160045260246000fd5b604080519081016001600160401b038111828210171561463a5761463a614602565b60405290565b604051601f8201601f191681016001600160401b038111828210171561466857614668614602565b604052919050565b600082601f83011261468157600080fd5b81356001600160401b0381111561469a5761469a614602565b6146ad601f8201601f1916602001614640565b8181528460208386010111156146c257600080fd5b816020850160208301376000918101602001919091529392505050565b803560ff8116811461090f57600080fd5b60006001600160401b0382111561470957614709614602565b5060051b60200190565b600082601f83011261472457600080fd5b81356020614739614734836146f0565b614640565b82815260069290921b8401810191818101908684111561475857600080fd5b8286015b848110156147a757604081890312156147755760008081fd5b61477d614618565b8135614788816144ba565b81526147958286016146df565b8186015283529183019160400161475c565b509695505050505050565b600080600080600060a086880312156147ca57600080fd5b85356147d5816144ba565b94506020860135935060408601356001600160401b03808211156147f857600080fd5b61480489838a01614670565b9450614812606089016146df565b9350608088013591508082111561482857600080fd5b5061483588828901614713565b9150509295509295909350565b6001600160a01b038716815260c06020820152600061486460c083018861454e565b8281036040840152614876818861454e565b9050828103606084015261488a818761454e565b6080840195909552505060a00152949350505050565b600080600080608085870312156148b657600080fd5b8435935060208501356001600160401b03808211156148d457600080fd5b6148e088838901614670565b945060408701359150808211156148f657600080fd5b61490288838901614670565b9350606087013591508082111561491857600080fd5b5061492587828801614670565b91505092959194509250565b600080600080600060a0868803121561494957600080fd5b8535945060208601356001600160401b038082111561496757600080fd5b61497389838a01614670565b955060408801359450614812606089016146df565b60008060006060848603121561499d57600080fd5b8335925060208401356149af816144ba565b91506149bd604085016146df565b90509250925092565b6000806000606084860312156149db57600080fd5b83356149e6816144ba565b925060208401356149f6816144ba565b929592945050506040919091013590565b60008060408385031215614a1a57600080fd5b50508035926020909101359150565b600060808284031215614a3b57600080fd5b50919050565b600060208284031215614a5357600080fd5b81356001600160401b03811115614a6957600080fd5b612d9584828501614a29565b60008060408385031215614a8857600080fd5b82356001600160401b0380821115614a9f57600080fd5b614aab86838701614a29565b9350602091508185013581811115614ac257600080fd5b8501601f81018713614ad357600080fd5b8035614ae1614734826146f0565b81815260059190911b82018401908481019089831115614b0057600080fd5b8584015b83811015614b3857803586811115614b1c5760008081fd5b614b2a8c8983890101614670565b845250918601918601614b04565b508096505050505050509250929050565b60008060408385031215614b5c57600080fd5b82359150614b6c602084016146df565b90509250929050565b634e487b7160e01b600052602160045260246000fd5b60068110614ba957634e487b7160e01b600052602160045260246000fd5b9052565b6000610120808352614bc18184018b61454e565b905088602084015287604084015260ff87166060840152614be56080840187614b8b565b845160a084015260ff60208601511660c0840152604085015160e08401528281036101008401526001600160a01b038451168152602084015160c06020830152614c3260c083018261454e565b905060408501518282036040840152614c4b828261454e565b91505060608501518282036060840152614c65828261454e565b9150506080850151608083015260a085015160a0830152809250505098975050505050505050565b60008060008060808587031215614ca357600080fd5b8435614cae816144ba565b935060208501356001600160401b0380821115614cca57600080fd5b614cd688838901614670565b9450614ce4604088016146df565b93506060870135915080821115614cfa57600080fd5b5061492587828801614713565b604081526000614d1a604083018561454e565b90508260208301529392505050565b60008060008060008060c08789031215614d4257600080fd5b8635614d4d816144ba565b955060208701359450604087013560068110614d6857600080fd5b935060608701356001600160401b0380821115614d8457600080fd5b614d908a838b01614670565b9450614d9e60808a016146df565b935060a0890135915080821115614db457600080fd5b50614dc189828a01614713565b9150509295509295509295565b801515811461318857600080fd5b60008060408385031215614def57600080fd5b8235614dfa816144ba565b915060208301356145f781614dce565b60008060008060808587031215614e2057600080fd5b8435614e2b816144ba565b93506020850135614e3b816144ba565b92506040850135915060608501356001600160401b03811115614e5d57600080fd5b61492587828801614670565b600080600080600080600060e0888a031215614e8457600080fd5b614e8d886144cf565b96506020880135955060408801356001600160401b0380821115614eb057600080fd5b614ebc8b838c01614670565b9650614eca60608b016146df565b955060808a0135915080821115614ee057600080fd5b614eec8b838c01614713565b945060a08a0135915080821115614f0257600080fd5b614f0e8b838c01614670565b935060c08a0135915080821115614f2457600080fd5b50614f318a828b01614670565b91505092959891949750929550565b600080600060608486031215614f5557600080fd5b833592506020840135614f67816144ba565b91506040840135614f7781614dce565b809150509250925092565b60008060408385031215614f9557600080fd5b8235614fa0816144ba565b915060208301356145f7816144ba565b60008060408385031215614fc357600080fd5b8235915060208301356001600160401b03811115614fe057600080fd5b614fec85828601614670565b9150509250929050565b60006020828403121561500857600080fd5b81516112a181614dce565b600181811c9082168061502757607f821691505b602082108103614a3b57634e487b7160e01b600052602260045260246000fd5b601f821115610b4457600081815260208120601f850160051c8101602086101561506e5750805b601f850160051c820191505b8181101561508d5782815560010161507a565b505050505050565b81516001600160401b038111156150ae576150ae614602565b6150c2816150bc8454615013565b84615047565b602080601f8311600181146150f757600084156150df5750858301515b600019600386901b1c1916600185901b17855561508d565b600085815260208120601f198616915b8281101561512657888601518255948401946001909101908401615107565b50858210156151445787850151600019600388901b60f8161c191681555b5050505050600190811b01905550565b6000815461516181615013565b80855260206001838116801561517e5760018114615198576151c6565b60ff1985168884015283151560051b8801830195506151c6565b866000528260002060005b858110156151be5781548a82018601529083019084016151a3565b890184019650505b505050505092915050565b828152604060208201526001600160a01b03825416604082015260c060608201526000615205610100830160018501615154565b603f198084830301608085015261521f8260028701615154565b9150808483030160a0850152506152398160038601615154565b9050600484015460c0840152600584015460e0840152809150509392505050565b6020808252602d908201527f4552433732313a2063616c6c6572206973206e6f7420746f6b656e206f776e6560408201526c1c881bdc88185c1c1c9bdd9959609a1b606082015260800190565b634e487b7160e01b600052603260045260246000fd5b634e487b7160e01b600052601160045260246000fd5b81810381811115610909576109096152bd565b634e487b7160e01b600052603160045260246000fd5b60006001820161530e5761530e6152bd565b5060010190565b6000808335601e1984360301811261532c57600080fd5b8301803591506001600160401b0382111561534657600080fd5b602001915036819003821315613f1757600080fd5b8183823760009101908152919050565b6000808585111561537b57600080fd5b8386111561538857600080fd5b5050820193919092039150565b8035602083101561090957600019602084900360031b1b1692915050565b6000604082840312156153c557600080fd5b6153cd614618565b8235815260208301356153df816144ba565b60208201529392505050565b6020808252600f908201526e496e76616c696420656e746974792160881b604082015260600190565b6020808252603a908201527f596f7520646f206e6f742068617665207065726d697373696f6e20746f206d6160408201527f6b65206368616e67657320746f207065726d697373696f6e7321000000000000606082015260800190565b60ff8181168382160190811115610909576109096152bd565b8381526060810161549e6020830185614b8b565b6001600160a01b0383166040830152949350505050565b60208082526027908201527f596f75206c61636b207065726d697373696f6e7320746f206d6f766520746869604082015266399034ba32b69760c91b606082015260800190565b848152608081016155106020830186614b8b565b60408201939093526060015292915050565b6000835161553481846020880161452a565b83519083019061554881836020880161452a565b01949350505050565b6020808252602b908201527f596f752063616e2774207472616e73666572206120506572736f6e616c204f7260408201526a67616e697a6174696f6e2160a81b606082015260800190565b60208082526025908201527f4552433732313a207472616e736665722066726f6d20696e636f72726563742060408201526437bbb732b960d91b606082015260800190565b6000806000606084860312156155f657600080fd5b8335615601816144ba565b925060208401356001600160401b038082111561561d57600080fd5b61562987838801614670565b9350604086013591508082111561563f57600080fd5b5061564c86828701614670565b9150509250925092565b6000825161566881846020870161452a565b9190910192915050565b828152604060208201526000612d95604083018461454e565b60006020828403121561569d57600080fd5b81516112a1816144f7565b60208082526032908201527f4552433732313a207472616e7366657220746f206e6f6e20455243373231526560408201527131b2b4bb32b91034b6b83632b6b2b73a32b960711b606082015260800190565b60006001600160a01b03808716835280861660208401525083604083015260806060830152613985608083018461454e56fea264697066735822122016dcb83c0ff63c9c411791555c4c15c45ce370ecd04e0d4b007ee37ab883a87d64736f6c63430008130033",
  "linkReferences": {},
  "deployedLinkReferences": {}
}