{
  "_format": "hh-sol-artifact-1",
  "contractName": "EtchENS",
  "sourceName": "contracts/CEtchedENS.sol",
  "abi": [
    {
      "inputs": [
        {
          "internalType": "address",
          "name": "organisationContract",
          "type": "address"
        }
      ],
      "stateMutability": "nonpayable",
      "type": "constructor"
    },
    {
      "inputs": [
        {
          "internalType": "bytes",
          "name": "error",
          "type": "bytes"
        }
      ],
      "name": "ERC1271Revert",
      "type": "error"
    },
    {
      "inputs": [
        {
          "internalType": "bytes",
          "name": "error",
          "type": "bytes"
        }
      ],
      "name": "ERC6492DeployFailed",
      "type": "error"
    },
    {
      "anonymous": false,
      "inputs": [
        {
          "indexed": true,
          "internalType": "address",
          "name": "owner",
          "type": "address"
        },
        {
          "indexed": true,
          "internalType": "address",
          "name": "approved",
          "type": "address"
        },
        {
          "indexed": true,
          "internalType": "uint256",
          "name": "tokenId",
          "type": "uint256"
        }
      ],
      "name": "Approval",
      "type": "event"
    },
    {
      "anonymous": false,
      "inputs": [
        {
          "indexed": true,
          "internalType": "address",
          "name": "owner",
          "type": "address"
        },
        {
          "indexed": true,
          "internalType": "address",
          "name": "operator",
          "type": "address"
        },
        {
          "indexed": false,
          "internalType": "bool",
          "name": "approved",
          "type": "bool"
        }
      ],
      "name": "ApprovalForAll",
      "type": "event"
    },
    {
      "anonymous": false,
      "inputs": [
        {
          "indexed": true,
          "internalType": "uint256",
          "name": "tokenId",
          "type": "uint256"
        },
        {
          "indexed": true,
          "internalType": "address",
          "name": "to",
          "type": "address"
        },
        {
          "indexed": false,
          "internalType": "string",
          "name": "name",
          "type": "string"
        }
      ],
      "name": "EtchENSCreated",
      "type": "event"
    },
    {
      "anonymous": false,
      "inputs": [
        {
          "indexed": true,
          "internalType": "address",
          "name": "previousOwner",
          "type": "address"
        },
        {
          "indexed": true,
          "internalType": "address",
          "name": "newOwner",
          "type": "address"
        }
      ],
      "name": "OwnershipTransferred",
      "type": "event"
    },
    {
      "anonymous": false,
      "inputs": [
        {
          "indexed": true,
          "internalType": "address",
          "name": "from",
          "type": "address"
        },
        {
          "indexed": true,
          "internalType": "address",
          "name": "to",
          "type": "address"
        },
        {
          "indexed": true,
          "internalType": "uint256",
          "name": "tokenId",
          "type": "uint256"
        }
      ],
      "name": "Transfer",
      "type": "event"
    },
    {
      "inputs": [
        {
          "internalType": "address",
          "name": "node",
          "type": "address"
        }
      ],
      "name": "_nodes",
      "outputs": [
        {
          "internalType": "bool",
          "name": "isNode",
          "type": "bool"
        }
      ],
      "stateMutability": "view",
      "type": "function"
    },
    {
      "inputs": [
        {
          "internalType": "address",
          "name": "node",
          "type": "address"
        }
      ],
      "name": "addNode",
      "outputs": [],
      "stateMutability": "nonpayable",
      "type": "function"
    },
    {
      "inputs": [
        {
          "internalType": "address",
          "name": "to",
          "type": "address"
        },
        {
          "internalType": "uint256",
          "name": "tokenId",
          "type": "uint256"
        }
      ],
      "name": "approve",
      "outputs": [],
      "stateMutability": "nonpayable",
      "type": "function"
    },
    {
      "inputs": [
        {
          "internalType": "address",
          "name": "owner",
          "type": "address"
        }
      ],
      "name": "balanceOf",
      "outputs": [
        {
          "internalType": "uint256",
          "name": "",
          "type": "uint256"
        }
      ],
      "stateMutability": "view",
      "type": "function"
    },
    {
      "inputs": [
        {
          "components": [
            {
              "internalType": "bytes",
              "name": "encodedMessage",
              "type": "bytes"
            },
            {
              "internalType": "bytes32",
              "name": "messageHash",
              "type": "bytes32"
            },
            {
              "internalType": "bytes",
              "name": "signature",
              "type": "bytes"
            },
            {
              "internalType": "address",
              "name": "signer",
              "type": "address"
            }
          ],
          "internalType": "struct SignatureVerifier.Signature",
          "name": "_signature",
          "type": "tuple"
        }
      ],
      "name": "checkSignature",
      "outputs": [
        {
          "components": [
            {
              "internalType": "uint256",
              "name": "blockNumber",
              "type": "uint256"
            },
            {
              "internalType": "address",
              "name": "nodeAddress",
              "type": "address"
            }
          ],
          "internalType": "struct SignatureVerifier.EncodedMessage",
          "name": "",
          "type": "tuple"
        }
      ],
      "stateMutability": "nonpayable",
      "type": "function"
    },
    {
      "inputs": [
        {
          "components": [
            {
              "internalType": "bytes",
              "name": "encodedMessage",
              "type": "bytes"
            },
            {
              "internalType": "bytes32",
              "name": "messageHash",
              "type": "bytes32"
            },
            {
              "internalType": "bytes",
              "name": "signature",
              "type": "bytes"
            },
            {
              "internalType": "address",
              "name": "signer",
              "type": "address"
            }
          ],
          "internalType": "struct SignatureVerifier.Signature",
          "name": "signature",
          "type": "tuple"
        },
        {
          "internalType": "bytes[]",
          "name": "_calldata",
          "type": "bytes[]"
        }
      ],
      "name": "delegateCallsToSelf",
      "outputs": [],
      "stateMutability": "nonpayable",
      "type": "function"
    },
    {
      "inputs": [
        {
          "internalType": "address",
          "name": "wallet",
          "type": "address"
        },
        {
          "internalType": "uint256",
          "name": "",
          "type": "uint256"
        }
      ],
      "name": "ensOfWallet",
      "outputs": [
        {
          "internalType": "string",
          "name": "ens",
          "type": "string"
        }
      ],
      "stateMutability": "view",
      "type": "function"
    },
    {
      "inputs": [],
      "name": "extension",
      "outputs": [
        {
          "internalType": "string",
          "name": "",
          "type": "string"
        }
      ],
      "stateMutability": "view",
      "type": "function"
    },
    {
      "inputs": [
        {
          "internalType": "uint256",
          "name": "tokenId",
          "type": "uint256"
        }
      ],
      "name": "getApproved",
      "outputs": [
        {
          "internalType": "address",
          "name": "",
          "type": "address"
        }
      ],
      "stateMutability": "view",
      "type": "function"
    },
    {
      "inputs": [
        {
          "internalType": "address",
          "name": "wallet",
          "type": "address"
        }
      ],
      "name": "getENS",
      "outputs": [
        {
          "internalType": "string[]",
          "name": "",
          "type": "string[]"
        }
      ],
      "stateMutability": "view",
      "type": "function"
    },
    {
      "inputs": [],
      "name": "getParent",
      "outputs": [
        {
          "internalType": "address",
          "name": "",
          "type": "address"
        }
      ],
      "stateMutability": "view",
      "type": "function"
    },
    {
      "inputs": [],
      "name": "getTotalSupply",
      "outputs": [
        {
          "internalType": "uint256",
          "name": "",
          "type": "uint256"
        }
      ],
      "stateMutability": "view",
      "type": "function"
    },
    {
      "inputs": [
        {
          "internalType": "address",
          "name": "owner",
          "type": "address"
        },
        {
          "internalType": "address",
          "name": "operator",
          "type": "address"
        }
      ],
      "name": "isApprovedForAll",
      "outputs": [
        {
          "internalType": "bool",
          "name": "",
          "type": "bool"
        }
      ],
      "stateMutability": "view",
      "type": "function"
    },
    {
      "inputs": [
        {
          "internalType": "address",
          "name": "node",
          "type": "address"
        }
      ],
      "name": "isNode",
      "outputs": [
        {
          "internalType": "bool",
          "name": "",
          "type": "bool"
        }
      ],
      "stateMutability": "view",
      "type": "function"
    },
    {
      "inputs": [
        {
          "internalType": "string",
          "name": "ens",
          "type": "string"
        }
      ],
      "name": "metadataOf",
      "outputs": [
        {
          "internalType": "address",
          "name": "creator",
          "type": "address"
        },
        {
          "internalType": "uint256",
          "name": "timestamp",
          "type": "uint256"
        }
      ],
      "stateMutability": "view",
      "type": "function"
    },
    {
      "inputs": [],
      "name": "name",
      "outputs": [
        {
          "internalType": "string",
          "name": "",
          "type": "string"
        }
      ],
      "stateMutability": "view",
      "type": "function"
    },
    {
      "inputs": [],
      "name": "owner",
      "outputs": [
        {
          "internalType": "address",
          "name": "",
          "type": "address"
        }
      ],
      "stateMutability": "view",
      "type": "function"
    },
    {
      "inputs": [
        {
          "internalType": "uint256",
          "name": "tokenId",
          "type": "uint256"
        }
      ],
      "name": "ownerOf",
      "outputs": [
        {
          "internalType": "address",
          "name": "",
          "type": "address"
        }
      ],
      "stateMutability": "view",
      "type": "function"
    },
    {
      "inputs": [],
      "name": "renounceOwnership",
      "outputs": [],
      "stateMutability": "nonpayable",
      "type": "function"
    },
    {
      "inputs": [
        {
          "internalType": "address",
          "name": "to",
          "type": "address"
        },
        {
          "internalType": "string",
          "name": "name",
          "type": "string"
        }
      ],
      "name": "safeMint",
      "outputs": [],
      "stateMutability": "nonpayable",
      "type": "function"
    },
    {
      "inputs": [
        {
          "internalType": "address",
          "name": "from",
          "type": "address"
        },
        {
          "internalType": "address",
          "name": "to",
          "type": "address"
        },
        {
          "internalType": "uint256",
          "name": "tokenId",
          "type": "uint256"
        }
      ],
      "name": "safeTransferFrom",
      "outputs": [],
      "stateMutability": "nonpayable",
      "type": "function"
    },
    {
      "inputs": [
        {
          "internalType": "address",
          "name": "from",
          "type": "address"
        },
        {
          "internalType": "address",
          "name": "to",
          "type": "address"
        },
        {
          "internalType": "uint256",
          "name": "tokenId",
          "type": "uint256"
        },
        {
          "internalType": "bytes",
          "name": "data",
          "type": "bytes"
        }
      ],
      "name": "safeTransferFrom",
      "outputs": [],
      "stateMutability": "nonpayable",
      "type": "function"
    },
    {
      "inputs": [
        {
          "internalType": "address",
          "name": "operator",
          "type": "address"
        },
        {
          "internalType": "bool",
          "name": "approved",
          "type": "bool"
        }
      ],
      "name": "setApprovalForAll",
      "outputs": [],
      "stateMutability": "nonpayable",
      "type": "function"
    },
    {
      "inputs": [
        {
          "internalType": "bytes4",
          "name": "interfaceId",
          "type": "bytes4"
        }
      ],
      "name": "supportsInterface",
      "outputs": [
        {
          "internalType": "bool",
          "name": "",
          "type": "bool"
        }
      ],
      "stateMutability": "view",
      "type": "function"
    },
    {
      "inputs": [],
      "name": "symbol",
      "outputs": [
        {
          "internalType": "string",
          "name": "",
          "type": "string"
        }
      ],
      "stateMutability": "view",
      "type": "function"
    },
    {
      "inputs": [
        {
          "internalType": "uint256",
          "name": "tokenId",
          "type": "uint256"
        }
      ],
      "name": "tokenURI",
      "outputs": [
        {
          "internalType": "string",
          "name": "",
          "type": "string"
        }
      ],
      "stateMutability": "view",
      "type": "function"
    },
    {
      "inputs": [
        {
          "internalType": "address",
          "name": "from",
          "type": "address"
        },
        {
          "internalType": "address",
          "name": "to",
          "type": "address"
        },
        {
          "internalType": "uint256",
          "name": "tokenId",
          "type": "uint256"
        }
      ],
      "name": "transferFrom",
      "outputs": [],
      "stateMutability": "nonpayable",
      "type": "function"
    },
    {
      "inputs": [
        {
          "internalType": "address",
          "name": "newOwner",
          "type": "address"
        }
      ],
      "name": "transferOwnership",
      "outputs": [],
      "stateMutability": "nonpayable",
      "type": "function"
    },
    {
      "inputs": [
        {
          "internalType": "string",
          "name": "ens",
          "type": "string"
        }
      ],
      "name": "walletOf",
      "outputs": [
        {
          "internalType": "address",
          "name": "wallet",
          "type": "address"
        }
      ],
      "stateMutability": "view",
      "type": "function"
    }
  ],
  "bytecode": "0x60806040523480156200001157600080fd5b506040516200361438038062003614833981016040819052620000349162000185565b80604051806040016040528060078152602001662e65746368657360c81b815250604051806040016040528060088152602001670cadce65a8aa886960c31b815250620000886000620000e960201b60201c565b60016200009683826200025c565b506002620000a582826200025c565b505050620000c2620000bc6200010b60201b60201c565b62000133565b600880546001600160a01b0319166001600160a01b03929092169190911790555062000328565b600080546001600160a01b0319166001600160a01b0392909216919091179055565b600080546001600160a01b0316156200012e57506000546001600160a01b031690565b503390565b600780546001600160a01b038381166001600160a01b0319831681179093556040519116919082907f8be0079c531659141344cd1fd0a4f28419497f9722a3daafe3b4186f6b6457e090600090a35050565b6000602082840312156200019857600080fd5b81516001600160a01b0381168114620001b057600080fd5b9392505050565b634e487b7160e01b600052604160045260246000fd5b600181811c90821680620001e257607f821691505b6020821081036200020357634e487b7160e01b600052602260045260246000fd5b50919050565b601f8211156200025757600081815260208120601f850160051c81016020861015620002325750805b601f850160051c820191505b8181101562000253578281556001016200023e565b5050505b505050565b81516001600160401b03811115620002785762000278620001b7565b6200029081620002898454620001cd565b8462000209565b602080601f831160018114620002c85760008415620002af5750858301515b600019600386901b1c1916600185901b17855562000253565b600085815260208120601f198616915b82811015620002f957888601518255948401946001909101908401620002d8565b5085821015620003185787850151600019600388901b60f8161c191681555b5050505050600190811b01905550565b6132dc80620003386000396000f3fe608060405234801561001057600080fd5b50600436106101cf5760003560e01c806381fb5d4b11610104578063b88d4fde116100a2578063df5eaa3d11610071578063df5eaa3d14610431578063e985e9c51461048e578063f2fde38b146104ca578063f387b302146104dd57600080fd5b8063b88d4fde146103f0578063c4e41b2214610403578063c87b56dd1461040b578063d204c45e1461041e57600080fd5b806395d89b41116100de57806395d89b41146103af5780639d95f1cc146103b7578063a22cb465146103ca578063a7ea49f2146103dd57600080fd5b806381fb5d4b146103475780638da5cb5b1461036a5780639453f89d1461037b57600080fd5b8063313a9940116101715780636352211e1161014b5780636352211e146102fa57806370a082311461030d578063715018a61461032e57806380f760211461033657600080fd5b8063313a99401461029d57806342842e0e146102d45780634b4b98bd146102e757600080fd5b8063081812fc116101ad578063081812fc14610224578063095ea7b31461024f57806323b872dd146102645780632d5537b01461027757600080fd5b806301750152146101d457806301ffc9a7146101fc57806306fdde031461020f575b600080fd5b6101e76101e2366004612888565b6104fd565b60405190151581526020015b60405180910390f35b6101e761020a3660046128bb565b6105a2565b6102176105f2565b6040516101f39190612928565b61023761023236600461293b565b610684565b6040516001600160a01b0390911681526020016101f3565b61026261025d366004612954565b6106ab565b005b610262610272366004612980565b6107d7565b610217604051806040016040528060078152602001660b995d18da195960ca1b81525081565b6102b06102ab3660046129d9565b61080f565b60408051825181526020928301516001600160a01b031692810192909252016101f3565b6102626102e2366004612980565b610afc565b6102626102f5366004612ac5565b610b17565b61023761030836600461293b565b610bf7565b61032061031b366004612888565b610c57565b6040519081526020016101f3565b610262610cdd565b6008546001600160a01b0316610237565b6101e7610355366004612888565b60096020526000908152604090205460ff1681565b6007546001600160a01b0316610237565b610237610389366004612bac565b8051602081830181018051600b825292820191909301209152546001600160a01b031681565b610217610cf1565b6102626103c5366004612888565b610d00565b6102626103d8366004612bef565b610d2c565b6102176103eb366004612954565b610dad565b6102626103fe366004612c28565b610e66565b610320610ea5565b61021761041936600461293b565b610eb5565b61026261042c366004612c94565b610f29565b61046f61043f366004612bac565b8051602081830181018051600c82529282019190930120915280546001909101546001600160a01b039091169082565b604080516001600160a01b0390931683526020830191909152016101f3565b6101e761049c366004612ce4565b6001600160a01b03918216600090815260066020908152604080832093909416825291909152205460ff1690565b6102626104d8366004612888565b61111e565b6104f06104eb366004612888565b611197565b6040516101f39190612d12565b6008546000906001600160a01b031661052f57506001600160a01b031660009081526009602052604090205460ff1690565b60085460405162ba80a960e11b81526001600160a01b03848116600483015290911690630175015290602401602060405180830381865afa158015610578573d6000803e3d6000fd5b505050506040513d601f19601f8201168201806040525081019061059c9190612d74565b92915050565b60006001600160e01b031982166380ac58cd60e01b14806105d357506001600160e01b03198216635b5e139f60e01b145b8061059c57506301ffc9a760e01b6001600160e01b031983161461059c565b60606001805461060190612d91565b80601f016020809104026020016040519081016040528092919081815260200182805461062d90612d91565b801561067a5780601f1061064f5761010080835404028352916020019161067a565b820191906000526020600020905b81548152906001019060200180831161065d57829003601f168201915b5050505050905090565b600061068f82611286565b506000908152600560205260409020546001600160a01b031690565b60006106b682610bf7565b9050806001600160a01b0316836001600160a01b0316036107285760405162461bcd60e51b815260206004820152602160248201527f4552433732313a20617070726f76616c20746f2063757272656e74206f776e656044820152603960f91b60648201526084015b60405180910390fd5b806001600160a01b031661073a6112e5565b6001600160a01b0316148061075657506107568161049c6112e5565b6107c85760405162461bcd60e51b815260206004820152603d60248201527f4552433732313a20617070726f76652063616c6c6572206973206e6f7420746f60448201527f6b656e206f776e6572206f7220617070726f76656420666f7220616c6c000000606482015260840161071f565b6107d2838361130c565b505050565b6107e86107e26112e5565b8261137a565b6108045760405162461bcd60e51b815260040161071f90612dc5565b6107d28383836113f9565b604080518082019091526000808252602082015260208201356108328380612e12565b604051610840929190612e59565b6040518091039020146108aa5760405162461bcd60e51b815260206004820152602c60248201527f546865206d657373616765206861736820646f65736e2774206d61746368207460448201526b6865206f726967696e616c2160a01b606482015260840161071f565b60007f64926492649264926492649264926492649264926492649264926492649264926108da6040850185612e12565b60206108e96040880188612e12565b6108f4929150612e7f565b906109026040880188612e12565b610910949093929150612e92565b61091991612ebc565b14905060008061092f6080860160608701612888565b6001600160a01b03163b11905081806109455750805b156109bd5761097861095d6080860160608701612888565b602086013561096f6040880188612e12565b6001600061155d565b6109b85760405162461bcd60e51b8152602060048201526011602482015270496e76616c6964207369676e617475726560781b604482015260640161071f565b610acf565b6000610a1a85602001356040517f19457468657265756d205369676e6564204d6573736167653a0a3332000000006020820152603c8101829052600090605c01604051602081830303815290604052805190602001209050919050565b90506000610a6982610a2f6040890189612e12565b8080601f0160208091040260200160405190810160405280939291908181526020018383808284376000920191909152506119f892505050565b9050610a7b6080870160608801612888565b6001600160a01b0316816001600160a01b031614610acc5760405162461bcd60e51b815260206004820152600e60248201526d24b73b30b634b21039b4b3b732b960911b604482015260640161071f565b50505b6000610adb8580612e12565b810190610ae89190612eda565b9050610af381611a1c565b50949350505050565b6107d283838360405180602001604052806000815250610e66565b610b226101e26112e5565b610b3e5760405162461bcd60e51b815260040161071f90612f30565b6000610b498361080f565b60208101519091506001600160a01b0316331480610b72575060208101516001600160a01b0316155b610b8e5760405162461bcd60e51b815260040161071f90612f30565b610b97336104fd565b80610bc25750610bad6080840160608501612888565b6001600160a01b0316336001600160a01b0316145b610bde5760405162461bcd60e51b815260040161071f90612f30565b6107d2610bf16080850160608601612888565b83611a6f565b6000818152600360205260408120546001600160a01b03168061059c5760405162461bcd60e51b8152602060048201526018602482015277115490cdcc8c4e881a5b9d985b1a59081d1bdad95b88125160421b604482015260640161071f565b60006001600160a01b038216610cc15760405162461bcd60e51b815260206004820152602960248201527f4552433732313a2061646472657373207a65726f206973206e6f7420612076616044820152683634b21037bbb732b960b91b606482015260840161071f565b506001600160a01b031660009081526004602052604090205490565b610ce5611bbe565b610cef6000611c37565b565b60606002805461060190612d91565b610d08611bbe565b6001600160a01b03166000908152600960205260409020805460ff19166001179055565b6001600160a01b038216610d975760405162461bcd60e51b815260206004820152602c60248201527f4552433732313a2061646472657373207a65726f206973206e6f74206120766160448201526b3634b21037b832b930ba37b960a11b606482015260840161071f565b610da9610da26112e5565b8383611c89565b5050565b600d6020528160005260406000208181548110610dc957600080fd5b90600052602060002001600091509150508054610de590612d91565b80601f0160208091040260200160405190810160405280929190818152602001828054610e1190612d91565b8015610e5e5780601f10610e3357610100808354040283529160200191610e5e565b820191906000526020600020905b815481529060010190602001808311610e4157829003601f168201915b505050505081565b610e77610e716112e5565b8361137a565b610e935760405162461bcd60e51b815260040161071f90612dc5565b610e9f84848484611d4f565b50505050565b6000610eb0600a5490565b905090565b6060610ec082611286565b6000610ed760408051602081019091526000815290565b90506000815111610ef75760405180602001604052806000815250610f22565b80610f0184611d82565b604051602001610f12929190612f67565b6040516020818303038152906040525b9392505050565b610f346101e26112e5565b610f505760405162461bcd60e51b815260040161071f90612f30565b610f5981611e15565b905060006001600160a01b0316600b82604051610f769190612f96565b908152604051908190036020019020546001600160a01b031614610fdc5760405162461bcd60e51b815260206004820152601a60248201527f4574636865733a20454e5320616c726561647920657869737473000000000000604482015260640161071f565b610fe581611f98565b50610ff4600a80546001019055565b6000610fff600a5490565b905061100b8382612270565b82600b8360405161101c9190612f96565b908152604080516020928190038301902080546001600160a01b0319166001600160a01b039485161790559185166000908152600d8252918220805460018101825590835291200161106e8382613000565b5060405180604001604052806110826112e5565b6001600160a01b0316815260200142815250600c836040516110a49190612f96565b9081526040519081900360209081018220835181546001600160a01b039182166001600160a01b031990911617825593909101516001909101559084169082907f4bda451f347c60125bbc3086c6fa40845fd8882e9a0255f51833299fc3dd0ddc90611111908690612928565b60405180910390a3505050565b611126611bbe565b6001600160a01b03811661118b5760405162461bcd60e51b815260206004820152602660248201527f4f776e61626c653a206e6577206f776e657220697320746865207a65726f206160448201526564647265737360d01b606482015260840161071f565b61119481611c37565b50565b6001600160a01b0381166000908152600d60209081526040808320805482518185028101850190935280835260609492939192909184015b8282101561127b5783829060005260206000200180546111ee90612d91565b80601f016020809104026020016040519081016040528092919081815260200182805461121a90612d91565b80156112675780601f1061123c57610100808354040283529160200191611267565b820191906000526020600020905b81548152906001019060200180831161124a57829003601f168201915b5050505050815260200190600101906111cf565b505050509050919050565b6000818152600360205260409020546001600160a01b03166111945760405162461bcd60e51b8152602060048201526018602482015277115490cdcc8c4e881a5b9d985b1a59081d1bdad95b88125160421b604482015260640161071f565b600080546001600160a01b03161561130757506000546001600160a01b031690565b503390565b600081815260056020526040902080546001600160a01b0319166001600160a01b038416908117909155819061134182610bf7565b6001600160a01b03167f8c5be1e5ebec7d5bd14f71427d1e84f3dd0314c0f7b2291e5b200ac8c7c3b92560405160405180910390a45050565b60008061138683610bf7565b9050806001600160a01b0316846001600160a01b031614806113cd57506001600160a01b0380821660009081526006602090815260408083209388168352929052205460ff165b806113f15750836001600160a01b03166113e684610684565b6001600160a01b0316145b949350505050565b826001600160a01b031661140c82610bf7565b6001600160a01b0316146114325760405162461bcd60e51b815260040161071f906130c0565b6001600160a01b0382166114945760405162461bcd60e51b8152602060048201526024808201527f4552433732313a207472616e7366657220746f20746865207a65726f206164646044820152637265737360e01b606482015260840161071f565b826001600160a01b03166114a782610bf7565b6001600160a01b0316146114cd5760405162461bcd60e51b815260040161071f906130c0565b600081815260056020908152604080832080546001600160a01b03199081169091556001600160a01b0387811680865260048552838620805460001901905590871680865283862080546001019055868652600390945282852080549092168417909155905184937fddf252ad1be2c89b69c2b068fc378daa952ba7f163c4a11628f55a4df523b3ef91a4505050565b60006001600160a01b0387163b6060827f6492649264926492649264926492649264926492649264926492649264926492888861159b602082612e7f565b6115a7928b9290612e92565b6115b091612ebc565b1490508015611687576000606089828a6115cb602082612e7f565b926115d893929190612e92565b8101906115e59190613105565b955090925090508415806115f65750865b1561168057600080836001600160a01b0316836040516116169190612f96565b6000604051808303816000865af19150503d8060008114611653576040519150601f19603f3d011682016040523d82523d6000602084013e611658565b606091505b50915091508161167d5780604051639d0d6e2d60e01b815260040161071f9190612928565b50505b50506116c1565b87878080601f0160208091040260200160405190810160405280939291908181526020018383808284376000920191909152509294505050505b80806116cd5750600083115b1561183057604051630b135d3f60e11b81526001600160a01b038b1690631626ba7e90611700908c90869060040161317b565b602060405180830381865afa925050508015611739575060408051601f3d908101601f1916820190925261173691810190613194565b60015b6117b5573d808015611767576040519150601f19603f3d011682016040523d82523d6000602084013e61176c565b606091505b508515801561177b5750600084115b1561179a5761178f8b8b8b8b8b600161155d565b9450505050506119ee565b80604051636f2a959960e01b815260040161071f9190612928565b6001600160e01b03198116630b135d3f60e11b148015816117d4575086155b80156117e05750600085115b15611800576117f48c8c8c8c8c600161155d565b955050505050506119ee565b8415801561180b5750825b8015611815575087155b1561182457806000526001601ffd5b94506119ee9350505050565b604187146118a65760405162461bcd60e51b815260206004820152603a60248201527f5369676e617475726556616c696461746f72237265636f7665725369676e657260448201527f3a20696e76616c6964207369676e6174757265206c656e677468000000000000606482015260840161071f565b60006118b56020828a8c612e92565b6118be91612ebc565b905060006118d0604060208b8d612e92565b6118d991612ebc565b905060008a8a60408181106118f0576118f06131b1565b919091013560f81c915050601b811480159061191057508060ff16601c14155b156119735760405162461bcd60e51b815260206004820152602d60248201527f5369676e617475726556616c696461746f723a20696e76616c6964207369676e60448201526c617475726520762076616c756560981b606482015260840161071f565b6040805160008152602081018083528e905260ff83169181019190915260608101849052608081018390526001600160a01b038e169060019060a0016020604051602081039080840390855afa1580156119d1573d6000803e3d6000fd5b505050602060405103516001600160a01b03161496505050505050505b9695505050505050565b6000806000611a07858561228a565b91509150611a14816122cf565b509392505050565b60004382600001511015611a675760405162461bcd60e51b815260206004820152601260248201527113595cdcd859d9481a5cc8195e1c1a5c995960721b604482015260640161071f565b506001919050565b816001600160a01b038116611ad25760405162461bcd60e51b815260206004820152602360248201527f436f6e746578743a206e6577436f6e74657874206973207a65726f206164647260448201526265737360e81b606482015260840161071f565b600080546001600160a01b0319166001600160a01b03831617905560005b8251811015611ba857600080306001600160a01b0316858481518110611b1857611b186131b1565b6020026020010151604051611b2d9190612f96565b600060405180830381855af49150503d8060008114611b68576040519150601f19603f3d011682016040523d82523d6000602084013e611b6d565b606091505b5091509150818190611b925760405162461bcd60e51b815260040161071f9190612928565b5050508080611ba0906131c7565b915050611af0565b50600080546001600160a01b0319169055505050565b611bc66112e5565b6001600160a01b0316611be16007546001600160a01b031690565b6001600160a01b031614610cef5760405162461bcd60e51b815260206004820181905260248201527f4f776e61626c653a2063616c6c6572206973206e6f7420746865206f776e6572604482015260640161071f565b600780546001600160a01b038381166001600160a01b0319831681179093556040519116919082907f8be0079c531659141344cd1fd0a4f28419497f9722a3daafe3b4186f6b6457e090600090a35050565b816001600160a01b0316836001600160a01b031603611cea5760405162461bcd60e51b815260206004820152601960248201527f4552433732313a20617070726f766520746f2063616c6c657200000000000000604482015260640161071f565b6001600160a01b03838116600081815260066020908152604080832094871680845294825291829020805460ff191686151590811790915591519182527f17307eab39ab6107e8899845ad3d59bd9653f200f220920489ca2b5937696c319101611111565b611d5a8484846113f9565b611d6684848484612419565b610e9f5760405162461bcd60e51b815260040161071f906131e0565b60606000611d8f83612519565b600101905060008167ffffffffffffffff811115611daf57611daf612a0e565b6040519080825280601f01601f191660200182016040528015611dd9576020820181803683370190505b5090508181016020015b600019016f181899199a1a9b1b9c1cb0b131b232b360811b600a86061a8153600a8504945084611de357509392505050565b606060008290506000815167ffffffffffffffff811115611e3857611e38612a0e565b6040519080825280601f01601f191660200182016040528015611e62576020820181803683370190505b50905060005b8251811015611a1457604160f81b6001600160f81b031916838281518110611e9257611e926131b1565b01602001516001600160f81b03191610801590611edd5750602d60f91b6001600160f81b031916838281518110611ecb57611ecb6131b1565b01602001516001600160f81b03191611155b15611f3f57828181518110611ef457611ef46131b1565b602001015160f81c60f81b60f81c6020611f0e9190613232565b60f81b828281518110611f2357611f236131b1565b60200101906001600160f81b031916908160001a905350611f86565b828181518110611f5157611f516131b1565b602001015160f81c60f81b828281518110611f6e57611f6e6131b1565b60200101906001600160f81b031916908160001a9053505b80611f90816131c7565b915050611e68565b6040805180820190915260078152660b995d18da195960ca1b602082015281516000918391601e10156120025760405162461bcd60e51b8152602060048201526012602482015271454e533a204e616d6520746f6f206c6f6e6760701b604482015260640161071f565b80518251101561204a5760405162461bcd60e51b8152602060048201526013602482015272115394ce8813985b59481d1bdbc81cda1bdc9d606a1b604482015260640161071f565b60005b815181101561211557818181518110612068576120686131b1565b602001015160f81c60f81b6001600160f81b03191683828451865161208d9190612e7f565b612097919061324b565b815181106120a7576120a76131b1565b01602001516001600160f81b031916146121035760405162461bcd60e51b815260206004820152601f60248201527f454e533a204e616d65206d75737420656e642077697468202e65746368656400604482015260640161071f565b8061210d816131c7565b91505061204d565b5060005b815183516121279190612e7f565b811015612265576000838281518110612142576121426131b1565b01602001516001600160f81b0319169050600360fc1b81108015906121755750603960f81b6001600160f81b0319821611155b1580156121ab5750604160f81b6001600160f81b03198216108015906121a95750602d60f91b6001600160f81b0319821611155b155b80156121e05750606160f81b6001600160f81b03198216108015906121de5750603d60f91b6001600160f81b0319821611155b155b80156121fa5750605f60f81b6001600160f81b0319821614155b156122525760405162461bcd60e51b815260206004820152602260248201527f454e533a20496e76616c69642063686172616374657220696e20454e53206e616044820152616d6560f01b606482015260840161071f565b508061225d816131c7565b915050612119565b506001949350505050565b610da98282604051806020016040528060008152506125f1565b60008082516041036122c05760208301516040840151606085015160001a6122b487828585612624565b945094505050506122c8565b506000905060025b9250929050565b60008160048111156122e3576122e361325e565b036122eb5750565b60018160048111156122ff576122ff61325e565b0361234c5760405162461bcd60e51b815260206004820152601860248201527f45434453413a20696e76616c6964207369676e61747572650000000000000000604482015260640161071f565b60028160048111156123605761236061325e565b036123ad5760405162461bcd60e51b815260206004820152601f60248201527f45434453413a20696e76616c6964207369676e6174757265206c656e67746800604482015260640161071f565b60038160048111156123c1576123c161325e565b036111945760405162461bcd60e51b815260206004820152602260248201527f45434453413a20696e76616c6964207369676e6174757265202773272076616c604482015261756560f01b606482015260840161071f565b60006001600160a01b0384163b1561226557836001600160a01b031663150b7a026124426112e5565b8786866040518563ffffffff1660e01b81526004016124649493929190613274565b6020604051808303816000875af192505050801561249f575060408051601f3d908101601f1916820190925261249c91810190613194565b60015b6124fc573d8080156124cd576040519150601f19603f3d011682016040523d82523d6000602084013e6124d2565b606091505b5080516000036124f45760405162461bcd60e51b815260040161071f906131e0565b805181602001fd5b6001600160e01b031916630a85bd0160e11b149050949350505050565b60008072184f03e93ff9f4daa797ed6e38ed64bf6a1f0160401b83106125585772184f03e93ff9f4daa797ed6e38ed64bf6a1f0160401b830492506040015b6d04ee2d6d415b85acef81000000008310612584576d04ee2d6d415b85acef8100000000830492506020015b662386f26fc1000083106125a257662386f26fc10000830492506010015b6305f5e10083106125ba576305f5e100830492506008015b61271083106125ce57612710830492506004015b606483106125e0576064830492506002015b600a831061059c5760010192915050565b6125fb83836126e8565b6126086000848484612419565b6107d25760405162461bcd60e51b815260040161071f906131e0565b6000807f7fffffffffffffffffffffffffffffff5d576e7357a4501ddfe92f46681b20a083111561265b57506000905060036126df565b6040805160008082526020820180845289905260ff881692820192909252606081018690526080810185905260019060a0016020604051602081039080840390855afa1580156126af573d6000803e3d6000fd5b5050604051601f1901519150506001600160a01b0381166126d8576000600192509250506126df565b9150600090505b94509492505050565b6001600160a01b03821661273e5760405162461bcd60e51b815260206004820181905260248201527f4552433732313a206d696e7420746f20746865207a65726f2061646472657373604482015260640161071f565b6000818152600360205260409020546001600160a01b0316156127a35760405162461bcd60e51b815260206004820152601c60248201527f4552433732313a20746f6b656e20616c7265616479206d696e74656400000000604482015260640161071f565b6000818152600360205260409020546001600160a01b0316156128085760405162461bcd60e51b815260206004820152601c60248201527f4552433732313a20746f6b656e20616c7265616479206d696e74656400000000604482015260640161071f565b6001600160a01b038216600081815260046020908152604080832080546001019055848352600390915280822080546001600160a01b0319168417905551839291907fddf252ad1be2c89b69c2b068fc378daa952ba7f163c4a11628f55a4df523b3ef908290a45050565b6001600160a01b038116811461119457600080fd5b60006020828403121561289a57600080fd5b8135610f2281612873565b6001600160e01b03198116811461119457600080fd5b6000602082840312156128cd57600080fd5b8135610f22816128a5565b60005b838110156128f35781810151838201526020016128db565b50506000910152565b600081518084526129148160208601602086016128d8565b601f01601f19169290920160200192915050565b602081526000610f2260208301846128fc565b60006020828403121561294d57600080fd5b5035919050565b6000806040838503121561296757600080fd5b823561297281612873565b946020939093013593505050565b60008060006060848603121561299557600080fd5b83356129a081612873565b925060208401356129b081612873565b929592945050506040919091013590565b6000608082840312156129d357600080fd5b50919050565b6000602082840312156129eb57600080fd5b813567ffffffffffffffff811115612a0257600080fd5b6113f1848285016129c1565b634e487b7160e01b600052604160045260246000fd5b604051601f8201601f1916810167ffffffffffffffff81118282101715612a4d57612a4d612a0e565b604052919050565b600082601f830112612a6657600080fd5b813567ffffffffffffffff811115612a8057612a80612a0e565b612a93601f8201601f1916602001612a24565b818152846020838601011115612aa857600080fd5b816020850160208301376000918101602001919091529392505050565b60008060408385031215612ad857600080fd5b823567ffffffffffffffff80821115612af057600080fd5b612afc868387016129c1565b9350602091508185013581811115612b1357600080fd5b8501601f81018713612b2457600080fd5b803582811115612b3657612b36612a0e565b8060051b612b45858201612a24565b918252828101850191858101908a841115612b5f57600080fd5b86850192505b83831015612b9b57823586811115612b7d5760008081fd5b612b8b8c8983890101612a55565b8352509186019190860190612b65565b809750505050505050509250929050565b600060208284031215612bbe57600080fd5b813567ffffffffffffffff811115612bd557600080fd5b6113f184828501612a55565b801515811461119457600080fd5b60008060408385031215612c0257600080fd5b8235612c0d81612873565b91506020830135612c1d81612be1565b809150509250929050565b60008060008060808587031215612c3e57600080fd5b8435612c4981612873565b93506020850135612c5981612873565b925060408501359150606085013567ffffffffffffffff811115612c7c57600080fd5b612c8887828801612a55565b91505092959194509250565b60008060408385031215612ca757600080fd5b8235612cb281612873565b9150602083013567ffffffffffffffff811115612cce57600080fd5b612cda85828601612a55565b9150509250929050565b60008060408385031215612cf757600080fd5b8235612d0281612873565b91506020830135612c1d81612873565b6000602080830181845280855180835260408601915060408160051b870101925083870160005b82811015612d6757603f19888603018452612d558583516128fc565b94509285019290850190600101612d39565b5092979650505050505050565b600060208284031215612d8657600080fd5b8151610f2281612be1565b600181811c90821680612da557607f821691505b6020821081036129d357634e487b7160e01b600052602260045260246000fd5b6020808252602d908201527f4552433732313a2063616c6c6572206973206e6f7420746f6b656e206f776e6560408201526c1c881bdc88185c1c1c9bdd9959609a1b606082015260800190565b6000808335601e19843603018112612e2957600080fd5b83018035915067ffffffffffffffff821115612e4457600080fd5b6020019150368190038213156122c857600080fd5b8183823760009101908152919050565b634e487b7160e01b600052601160045260246000fd5b8181038181111561059c5761059c612e69565b60008085851115612ea257600080fd5b83861115612eaf57600080fd5b5050820193919092039150565b8035602083101561059c57600019602084900360031b1b1692915050565b600060408284031215612eec57600080fd5b6040516040810181811067ffffffffffffffff82111715612f0f57612f0f612a0e565b604052823581526020830135612f2481612873565b60208201529392505050565b6020808252601e908201527f4e4f444548414e444c45523a205045524d495353494f4e5f44454e4945440000604082015260600190565b60008351612f798184602088016128d8565b835190830190612f8d8183602088016128d8565b01949350505050565b60008251612fa88184602087016128d8565b9190910192915050565b601f8211156107d257600081815260208120601f850160051c81016020861015612fd95750805b601f850160051c820191505b81811015612ff857828155600101612fe5565b505050505050565b815167ffffffffffffffff81111561301a5761301a612a0e565b61302e816130288454612d91565b84612fb2565b602080601f831160018114613063576000841561304b5750858301515b600019600386901b1c1916600185901b178555612ff8565b600085815260208120601f198616915b8281101561309257888601518255948401946001909101908401613073565b50858210156130b05787850151600019600388901b60f8161c191681555b5050505050600190811b01905550565b60208082526025908201527f4552433732313a207472616e736665722066726f6d20696e636f72726563742060408201526437bbb732b960d91b606082015260800190565b60008060006060848603121561311a57600080fd5b833561312581612873565b9250602084013567ffffffffffffffff8082111561314257600080fd5b61314e87838801612a55565b9350604086013591508082111561316457600080fd5b5061317186828701612a55565b9150509250925092565b8281526040602082015260006113f160408301846128fc565b6000602082840312156131a657600080fd5b8151610f22816128a5565b634e487b7160e01b600052603260045260246000fd5b6000600182016131d9576131d9612e69565b5060010190565b60208082526032908201527f4552433732313a207472616e7366657220746f206e6f6e20455243373231526560408201527131b2b4bb32b91034b6b83632b6b2b73a32b960711b606082015260800190565b60ff818116838216019081111561059c5761059c612e69565b8082018082111561059c5761059c612e69565b634e487b7160e01b600052602160045260246000fd5b60006001600160a01b038087168352808616602084015250836040830152608060608301526119ee60808301846128fc56fea2646970667358221220192c5398b35353d930429cf69e4d8174f2e9760326597d8d5ac2f86476d4adf764736f6c63430008130033",
  "linkReferences": {},
  "deployedLinkReferences": {}
}