{
  "_format": "hh-sol-artifact-1",
  "contractName": "Etches",
  "sourceName": "contracts/CEtches.sol",
  "abi": [
    {
      "inputs": [
        {
          "internalType": "address",
          "name": "teamsContract",
          "type": "address"
        }
      ],
      "stateMutability": "nonpayable",
      "type": "constructor"
    },
    {
      "inputs": [
        {
          "internalType": "bytes",
          "name": "error",
          "type": "bytes"
        }
      ],
      "name": "ERC1271Revert",
      "type": "error"
    },
    {
      "inputs": [
        {
          "internalType": "bytes",
          "name": "error",
          "type": "bytes"
        }
      ],
      "name": "ERC6492DeployFailed",
      "type": "error"
    },
    {
      "anonymous": false,
      "inputs": [
        {
          "indexed": true,
          "internalType": "address",
          "name": "owner",
          "type": "address"
        },
        {
          "indexed": true,
          "internalType": "address",
          "name": "approved",
          "type": "address"
        },
        {
          "indexed": true,
          "internalType": "uint256",
          "name": "tokenId",
          "type": "uint256"
        }
      ],
      "name": "Approval",
      "type": "event"
    },
    {
      "anonymous": false,
      "inputs": [
        {
          "indexed": true,
          "internalType": "address",
          "name": "owner",
          "type": "address"
        },
        {
          "indexed": true,
          "internalType": "address",
          "name": "operator",
          "type": "address"
        },
        {
          "indexed": false,
          "internalType": "bool",
          "name": "approved",
          "type": "bool"
        }
      ],
      "name": "ApprovalForAll",
      "type": "event"
    },
    {
      "anonymous": false,
      "inputs": [
        {
          "indexed": true,
          "internalType": "uint256",
          "name": "tokenId",
          "type": "uint256"
        },
        {
          "indexed": true,
          "internalType": "uint256",
          "name": "commentId",
          "type": "uint256"
        },
        {
          "components": [
            {
              "internalType": "string",
              "name": "commentIpfsCid",
              "type": "string"
            },
            {
              "internalType": "uint256",
              "name": "timestamp",
              "type": "uint256"
            }
          ],
          "indexed": false,
          "internalType": "struct IEtches.SComments",
          "name": "comment",
          "type": "tuple"
        },
        {
          "indexed": true,
          "internalType": "address",
          "name": "owner",
          "type": "address"
        }
      ],
      "name": "CommentAdded",
      "type": "event"
    },
    {
      "anonymous": false,
      "inputs": [
        {
          "indexed": true,
          "internalType": "uint256",
          "name": "tokenId",
          "type": "uint256"
        },
        {
          "indexed": true,
          "internalType": "address",
          "name": "to",
          "type": "address"
        },
        {
          "indexed": false,
          "internalType": "string",
          "name": "ipfsCid",
          "type": "string"
        },
        {
          "indexed": false,
          "internalType": "string",
          "name": "documentName",
          "type": "string"
        }
      ],
      "name": "EtchCreated",
      "type": "event"
    },
    {
      "anonymous": false,
      "inputs": [
        {
          "indexed": true,
          "internalType": "uint256",
          "name": "tokenId",
          "type": "uint256"
        },
        {
          "indexed": false,
          "internalType": "string",
          "name": "ipfsCid",
          "type": "string"
        },
        {
          "indexed": false,
          "internalType": "string",
          "name": "description",
          "type": "string"
        },
        {
          "indexed": false,
          "internalType": "string",
          "name": "documentName",
          "type": "string"
        }
      ],
      "name": "EtchMetadataUpdated",
      "type": "event"
    },
    {
      "anonymous": false,
      "inputs": [
        {
          "indexed": true,
          "internalType": "uint256",
          "name": "tokenId",
          "type": "uint256"
        },
        {
          "indexed": true,
          "internalType": "address",
          "name": "from",
          "type": "address"
        },
        {
          "indexed": true,
          "internalType": "uint256",
          "name": "to",
          "type": "uint256"
        }
      ],
      "name": "EtchTransferedToTeam",
      "type": "event"
    },
    {
      "anonymous": false,
      "inputs": [
        {
          "indexed": true,
          "internalType": "uint256",
          "name": "tokenId",
          "type": "uint256"
        },
        {
          "indexed": true,
          "internalType": "address",
          "name": "account",
          "type": "address"
        },
        {
          "indexed": false,
          "internalType": "enum ITeams.EPermissions",
          "name": "newPermission",
          "type": "uint8"
        }
      ],
      "name": "InvididualPermissionsUpdated",
      "type": "event"
    },
    {
      "anonymous": false,
      "inputs": [
        {
          "indexed": true,
          "internalType": "address",
          "name": "previousOwner",
          "type": "address"
        },
        {
          "indexed": true,
          "internalType": "address",
          "name": "newOwner",
          "type": "address"
        }
      ],
      "name": "OwnershipTransferred",
      "type": "event"
    },
    {
      "anonymous": false,
      "inputs": [
        {
          "indexed": true,
          "internalType": "uint256",
          "name": "tokenId",
          "type": "uint256"
        },
        {
          "indexed": true,
          "internalType": "address",
          "name": "owner",
          "type": "address"
        },
        {
          "indexed": false,
          "internalType": "string",
          "name": "tag",
          "type": "string"
        }
      ],
      "name": "TagAdded",
      "type": "event"
    },
    {
      "anonymous": false,
      "inputs": [
        {
          "indexed": true,
          "internalType": "uint256",
          "name": "tokenId",
          "type": "uint256"
        },
        {
          "indexed": true,
          "internalType": "address",
          "name": "owner",
          "type": "address"
        },
        {
          "indexed": false,
          "internalType": "string",
          "name": "newTag",
          "type": "string"
        },
        {
          "indexed": false,
          "internalType": "string",
          "name": "oldTag",
          "type": "string"
        }
      ],
      "name": "TagModified",
      "type": "event"
    },
    {
      "anonymous": false,
      "inputs": [
        {
          "indexed": true,
          "internalType": "uint256",
          "name": "tokenId",
          "type": "uint256"
        },
        {
          "indexed": true,
          "internalType": "address",
          "name": "owner",
          "type": "address"
        },
        {
          "indexed": false,
          "internalType": "string",
          "name": "tag",
          "type": "string"
        }
      ],
      "name": "TagRemoved",
      "type": "event"
    },
    {
      "anonymous": false,
      "inputs": [
        {
          "indexed": true,
          "internalType": "uint256",
          "name": "tokenId",
          "type": "uint256"
        },
        {
          "indexed": true,
          "internalType": "uint256",
          "name": "teamId",
          "type": "uint256"
        },
        {
          "indexed": false,
          "internalType": "enum ITeams.EPermissions",
          "name": "newPermission",
          "type": "uint8"
        }
      ],
      "name": "TeamPermissionsUpdated",
      "type": "event"
    },
    {
      "anonymous": false,
      "inputs": [
        {
          "indexed": true,
          "internalType": "address",
          "name": "from",
          "type": "address"
        },
        {
          "indexed": true,
          "internalType": "address",
          "name": "to",
          "type": "address"
        },
        {
          "indexed": true,
          "internalType": "uint256",
          "name": "tokenId",
          "type": "uint256"
        }
      ],
      "name": "Transfer",
      "type": "event"
    },
    {
      "inputs": [],
      "name": "MAX_ETCHES_PER_USER",
      "outputs": [
        {
          "internalType": "uint256",
          "name": "",
          "type": "uint256"
        }
      ],
      "stateMutability": "view",
      "type": "function"
    },
    {
      "inputs": [
        {
          "internalType": "address",
          "name": "node",
          "type": "address"
        }
      ],
      "name": "_nodes",
      "outputs": [
        {
          "internalType": "bool",
          "name": "isNode",
          "type": "bool"
        }
      ],
      "stateMutability": "view",
      "type": "function"
    },
    {
      "inputs": [
        {
          "internalType": "address",
          "name": "node",
          "type": "address"
        }
      ],
      "name": "addNode",
      "outputs": [],
      "stateMutability": "nonpayable",
      "type": "function"
    },
    {
      "inputs": [
        {
          "internalType": "uint256",
          "name": "tokenId",
          "type": "uint256"
        },
        {
          "internalType": "string",
          "name": "tag",
          "type": "string"
        }
      ],
      "name": "addTag",
      "outputs": [],
      "stateMutability": "nonpayable",
      "type": "function"
    },
    {
      "inputs": [
        {
          "internalType": "address",
          "name": "to",
          "type": "address"
        },
        {
          "internalType": "uint256",
          "name": "tokenId",
          "type": "uint256"
        }
      ],
      "name": "approve",
      "outputs": [],
      "stateMutability": "nonpayable",
      "type": "function"
    },
    {
      "inputs": [
        {
          "internalType": "address",
          "name": "owner",
          "type": "address"
        }
      ],
      "name": "balanceOf",
      "outputs": [
        {
          "internalType": "uint256",
          "name": "",
          "type": "uint256"
        }
      ],
      "stateMutability": "view",
      "type": "function"
    },
    {
      "inputs": [
        {
          "components": [
            {
              "internalType": "bytes",
              "name": "encodedMessage",
              "type": "bytes"
            },
            {
              "internalType": "bytes32",
              "name": "messageHash",
              "type": "bytes32"
            },
            {
              "internalType": "bytes",
              "name": "signature",
              "type": "bytes"
            },
            {
              "internalType": "address",
              "name": "signer",
              "type": "address"
            }
          ],
          "internalType": "struct SignatureVerifier.Signature",
          "name": "_signature",
          "type": "tuple"
        }
      ],
      "name": "checkSignature",
      "outputs": [
        {
          "components": [
            {
              "internalType": "uint256",
              "name": "blockNumber",
              "type": "uint256"
            },
            {
              "internalType": "address",
              "name": "nodeAddress",
              "type": "address"
            }
          ],
          "internalType": "struct SignatureVerifier.EncodedMessage",
          "name": "",
          "type": "tuple"
        }
      ],
      "stateMutability": "nonpayable",
      "type": "function"
    },
    {
      "inputs": [
        {
          "internalType": "uint256",
          "name": "tokenId",
          "type": "uint256"
        },
        {
          "internalType": "string",
          "name": "commentIpfsCid",
          "type": "string"
        },
        {
          "internalType": "address",
          "name": "owner",
          "type": "address"
        }
      ],
      "name": "commentOnEtch",
      "outputs": [],
      "stateMutability": "nonpayable",
      "type": "function"
    },
    {
      "inputs": [
        {
          "internalType": "uint256",
          "name": "etch",
          "type": "uint256"
        }
      ],
      "name": "commentsOf",
      "outputs": [
        {
          "internalType": "string",
          "name": "commentIpfsCid",
          "type": "string"
        },
        {
          "internalType": "uint256",
          "name": "timestamp",
          "type": "uint256"
        }
      ],
      "stateMutability": "view",
      "type": "function"
    },
    {
      "inputs": [
        {
          "components": [
            {
              "internalType": "bytes",
              "name": "encodedMessage",
              "type": "bytes"
            },
            {
              "internalType": "bytes32",
              "name": "messageHash",
              "type": "bytes32"
            },
            {
              "internalType": "bytes",
              "name": "signature",
              "type": "bytes"
            },
            {
              "internalType": "address",
              "name": "signer",
              "type": "address"
            }
          ],
          "internalType": "struct SignatureVerifier.Signature",
          "name": "signature",
          "type": "tuple"
        },
        {
          "internalType": "bytes[]",
          "name": "_calldata",
          "type": "bytes[]"
        }
      ],
      "name": "delegateCallsToSelf",
      "outputs": [],
      "stateMutability": "nonpayable",
      "type": "function"
    },
    {
      "inputs": [
        {
          "internalType": "uint256",
          "name": "tokenId",
          "type": "uint256"
        }
      ],
      "name": "getApproved",
      "outputs": [
        {
          "internalType": "address",
          "name": "",
          "type": "address"
        }
      ],
      "stateMutability": "view",
      "type": "function"
    },
    {
      "inputs": [],
      "name": "getParent",
      "outputs": [
        {
          "internalType": "address",
          "name": "",
          "type": "address"
        }
      ],
      "stateMutability": "view",
      "type": "function"
    },
    {
      "inputs": [],
      "name": "getTotalSupply",
      "outputs": [
        {
          "internalType": "uint256",
          "name": "",
          "type": "uint256"
        }
      ],
      "stateMutability": "view",
      "type": "function"
    },
    {
      "inputs": [
        {
          "internalType": "address",
          "name": "account",
          "type": "address"
        },
        {
          "internalType": "uint256",
          "name": "tokenId",
          "type": "uint256"
        }
      ],
      "name": "hasReadPermission",
      "outputs": [
        {
          "internalType": "bool",
          "name": "",
          "type": "bool"
        }
      ],
      "stateMutability": "view",
      "type": "function"
    },
    {
      "inputs": [
        {
          "internalType": "address",
          "name": "account",
          "type": "address"
        },
        {
          "internalType": "uint256",
          "name": "uid",
          "type": "uint256"
        }
      ],
      "name": "hasReadPermissionUID",
      "outputs": [
        {
          "internalType": "bool",
          "name": "",
          "type": "bool"
        }
      ],
      "stateMutability": "view",
      "type": "function"
    },
    {
      "inputs": [
        {
          "internalType": "address",
          "name": "account",
          "type": "address"
        },
        {
          "internalType": "uint256",
          "name": "tokenId",
          "type": "uint256"
        }
      ],
      "name": "hasWritePermission",
      "outputs": [
        {
          "internalType": "bool",
          "name": "",
          "type": "bool"
        }
      ],
      "stateMutability": "view",
      "type": "function"
    },
    {
      "inputs": [
        {
          "internalType": "address",
          "name": "account",
          "type": "address"
        },
        {
          "internalType": "uint256",
          "name": "uid",
          "type": "uint256"
        }
      ],
      "name": "hasWritePermissionUID",
      "outputs": [
        {
          "internalType": "bool",
          "name": "",
          "type": "bool"
        }
      ],
      "stateMutability": "view",
      "type": "function"
    },
    {
      "inputs": [
        {
          "internalType": "uint256",
          "name": "etch",
          "type": "uint256"
        },
        {
          "internalType": "uint256",
          "name": "team",
          "type": "uint256"
        }
      ],
      "name": "indexOfTeamPermissionsOf",
      "outputs": [
        {
          "internalType": "uint256",
          "name": "index",
          "type": "uint256"
        }
      ],
      "stateMutability": "view",
      "type": "function"
    },
    {
      "inputs": [
        {
          "internalType": "uint256",
          "name": "etch",
          "type": "uint256"
        },
        {
          "internalType": "address",
          "name": "user",
          "type": "address"
        }
      ],
      "name": "individualPermissionsOf",
      "outputs": [
        {
          "internalType": "enum ITeams.EPermissions",
          "name": "permission",
          "type": "uint8"
        }
      ],
      "stateMutability": "view",
      "type": "function"
    },
    {
      "inputs": [
        {
          "internalType": "address",
          "name": "owner",
          "type": "address"
        },
        {
          "internalType": "address",
          "name": "operator",
          "type": "address"
        }
      ],
      "name": "isApprovedForAll",
      "outputs": [
        {
          "internalType": "bool",
          "name": "",
          "type": "bool"
        }
      ],
      "stateMutability": "view",
      "type": "function"
    },
    {
      "inputs": [
        {
          "internalType": "address",
          "name": "node",
          "type": "address"
        }
      ],
      "name": "isNode",
      "outputs": [
        {
          "internalType": "bool",
          "name": "",
          "type": "bool"
        }
      ],
      "stateMutability": "view",
      "type": "function"
    },
    {
      "inputs": [
        {
          "internalType": "uint256",
          "name": "etch",
          "type": "uint256"
        }
      ],
      "name": "metadataOf",
      "outputs": [
        {
          "internalType": "address",
          "name": "creator",
          "type": "address"
        },
        {
          "internalType": "string",
          "name": "documentName",
          "type": "string"
        },
        {
          "internalType": "string",
          "name": "ipfsCid",
          "type": "string"
        },
        {
          "internalType": "uint256",
          "name": "commentsCount",
          "type": "uint256"
        },
        {
          "internalType": "uint256",
          "name": "timestamp",
          "type": "uint256"
        }
      ],
      "stateMutability": "view",
      "type": "function"
    },
    {
      "inputs": [],
      "name": "name",
      "outputs": [
        {
          "internalType": "string",
          "name": "",
          "type": "string"
        }
      ],
      "stateMutability": "view",
      "type": "function"
    },
    {
      "inputs": [],
      "name": "owner",
      "outputs": [
        {
          "internalType": "address",
          "name": "",
          "type": "address"
        }
      ],
      "stateMutability": "view",
      "type": "function"
    },
    {
      "inputs": [
        {
          "internalType": "uint256",
          "name": "tokenId",
          "type": "uint256"
        }
      ],
      "name": "ownerOf",
      "outputs": [
        {
          "internalType": "address",
          "name": "",
          "type": "address"
        }
      ],
      "stateMutability": "view",
      "type": "function"
    },
    {
      "inputs": [
        {
          "internalType": "uint256",
          "name": "tokenId",
          "type": "uint256"
        },
        {
          "internalType": "string",
          "name": "tag",
          "type": "string"
        }
      ],
      "name": "removeTag",
      "outputs": [],
      "stateMutability": "nonpayable",
      "type": "function"
    },
    {
      "inputs": [],
      "name": "renounceOwnership",
      "outputs": [],
      "stateMutability": "nonpayable",
      "type": "function"
    },
    {
      "inputs": [
        {
          "internalType": "uint256",
          "name": "uid",
          "type": "uint256"
        },
        {
          "internalType": "address",
          "name": "to",
          "type": "address"
        },
        {
          "internalType": "string",
          "name": "documentName",
          "type": "string"
        },
        {
          "internalType": "string",
          "name": "ipfsCid",
          "type": "string"
        }
      ],
      "name": "safeMint",
      "outputs": [
        {
          "internalType": "uint256",
          "name": "",
          "type": "uint256"
        }
      ],
      "stateMutability": "nonpayable",
      "type": "function"
    },
    {
      "inputs": [
        {
          "internalType": "uint256",
          "name": "uid",
          "type": "uint256"
        },
        {
          "internalType": "uint256",
          "name": "teamId",
          "type": "uint256"
        },
        {
          "internalType": "string",
          "name": "documentName",
          "type": "string"
        },
        {
          "internalType": "string",
          "name": "ipfsCid",
          "type": "string"
        }
      ],
      "name": "safeMintForTeam",
      "outputs": [],
      "stateMutability": "nonpayable",
      "type": "function"
    },
    {
      "inputs": [
        {
          "internalType": "address",
          "name": "from",
          "type": "address"
        },
        {
          "internalType": "address",
          "name": "to",
          "type": "address"
        },
        {
          "internalType": "uint256",
          "name": "tokenId",
          "type": "uint256"
        }
      ],
      "name": "safeTransferFrom",
      "outputs": [],
      "stateMutability": "nonpayable",
      "type": "function"
    },
    {
      "inputs": [
        {
          "internalType": "address",
          "name": "from",
          "type": "address"
        },
        {
          "internalType": "address",
          "name": "to",
          "type": "address"
        },
        {
          "internalType": "uint256",
          "name": "tokenId",
          "type": "uint256"
        },
        {
          "internalType": "bytes",
          "name": "data",
          "type": "bytes"
        }
      ],
      "name": "safeTransferFrom",
      "outputs": [],
      "stateMutability": "nonpayable",
      "type": "function"
    },
    {
      "inputs": [
        {
          "internalType": "address",
          "name": "operator",
          "type": "address"
        },
        {
          "internalType": "bool",
          "name": "approved",
          "type": "bool"
        }
      ],
      "name": "setApprovalForAll",
      "outputs": [],
      "stateMutability": "nonpayable",
      "type": "function"
    },
    {
      "inputs": [
        {
          "internalType": "uint256",
          "name": "tokenId",
          "type": "uint256"
        },
        {
          "internalType": "address",
          "name": "account",
          "type": "address"
        },
        {
          "internalType": "enum ITeams.EPermissions",
          "name": "permission",
          "type": "uint8"
        }
      ],
      "name": "setIndividualPermissions",
      "outputs": [],
      "stateMutability": "nonpayable",
      "type": "function"
    },
    {
      "inputs": [
        {
          "internalType": "uint256",
          "name": "tokenId",
          "type": "uint256"
        },
        {
          "components": [
            {
              "internalType": "address",
              "name": "user",
              "type": "address"
            },
            {
              "internalType": "enum ITeams.EPermissions",
              "name": "permission",
              "type": "uint8"
            }
          ],
          "internalType": "struct ITeams.userPermissions[]",
          "name": "permissions",
          "type": "tuple[]"
        }
      ],
      "name": "setIndividualPermissionsBulk",
      "outputs": [],
      "stateMutability": "nonpayable",
      "type": "function"
    },
    {
      "inputs": [
        {
          "internalType": "uint256",
          "name": "tokenId",
          "type": "uint256"
        },
        {
          "internalType": "string",
          "name": "documentName",
          "type": "string"
        },
        {
          "internalType": "string",
          "name": "description",
          "type": "string"
        },
        {
          "internalType": "string",
          "name": "ipfsCid",
          "type": "string"
        }
      ],
      "name": "setMetadata",
      "outputs": [],
      "stateMutability": "nonpayable",
      "type": "function"
    },
    {
      "inputs": [
        {
          "internalType": "uint256",
          "name": "tokenId",
          "type": "uint256"
        },
        {
          "internalType": "string",
          "name": "oldTag",
          "type": "string"
        },
        {
          "internalType": "string",
          "name": "newTag",
          "type": "string"
        }
      ],
      "name": "setTag",
      "outputs": [],
      "stateMutability": "nonpayable",
      "type": "function"
    },
    {
      "inputs": [
        {
          "internalType": "uint256",
          "name": "tokenId",
          "type": "uint256"
        },
        {
          "internalType": "uint256",
          "name": "teamId",
          "type": "uint256"
        },
        {
          "internalType": "enum ITeams.EPermissions",
          "name": "permission",
          "type": "uint8"
        }
      ],
      "name": "setTeamPermissions",
      "outputs": [],
      "stateMutability": "nonpayable",
      "type": "function"
    },
    {
      "inputs": [
        {
          "internalType": "uint256",
          "name": "tokenId",
          "type": "uint256"
        },
        {
          "components": [
            {
              "internalType": "uint256",
              "name": "teamId",
              "type": "uint256"
            },
            {
              "internalType": "enum ITeams.EPermissions",
              "name": "permission",
              "type": "uint8"
            }
          ],
          "internalType": "struct IEtches.ExternalTeamPermission[]",
          "name": "permissions",
          "type": "tuple[]"
        }
      ],
      "name": "setTeamPermissionsBulk",
      "outputs": [],
      "stateMutability": "nonpayable",
      "type": "function"
    },
    {
      "inputs": [
        {
          "internalType": "bytes4",
          "name": "interfaceId",
          "type": "bytes4"
        }
      ],
      "name": "supportsInterface",
      "outputs": [
        {
          "internalType": "bool",
          "name": "",
          "type": "bool"
        }
      ],
      "stateMutability": "view",
      "type": "function"
    },
    {
      "inputs": [],
      "name": "symbol",
      "outputs": [
        {
          "internalType": "string",
          "name": "",
          "type": "string"
        }
      ],
      "stateMutability": "view",
      "type": "function"
    },
    {
      "inputs": [
        {
          "internalType": "uint256",
          "name": "etch",
          "type": "uint256"
        }
      ],
      "name": "teamOf",
      "outputs": [
        {
          "internalType": "uint256",
          "name": "team",
          "type": "uint256"
        }
      ],
      "stateMutability": "view",
      "type": "function"
    },
    {
      "inputs": [
        {
          "internalType": "uint256",
          "name": "etch",
          "type": "uint256"
        },
        {
          "internalType": "uint256",
          "name": "",
          "type": "uint256"
        }
      ],
      "name": "teamPermissionsOf",
      "outputs": [
        {
          "internalType": "uint256",
          "name": "teamId",
          "type": "uint256"
        },
        {
          "internalType": "enum ITeams.EPermissions",
          "name": "permission",
          "type": "uint8"
        }
      ],
      "stateMutability": "view",
      "type": "function"
    },
    {
      "inputs": [],
      "name": "teams",
      "outputs": [
        {
          "internalType": "address",
          "name": "",
          "type": "address"
        }
      ],
      "stateMutability": "view",
      "type": "function"
    },
    {
      "inputs": [
        {
          "internalType": "uint256",
          "name": "tokenId",
          "type": "uint256"
        }
      ],
      "name": "tokenURI",
      "outputs": [
        {
          "internalType": "string",
          "name": "",
          "type": "string"
        }
      ],
      "stateMutability": "view",
      "type": "function"
    },
    {
      "inputs": [
        {
          "internalType": "address",
          "name": "from",
          "type": "address"
        },
        {
          "internalType": "address",
          "name": "to",
          "type": "address"
        },
        {
          "internalType": "uint256",
          "name": "tokenId",
          "type": "uint256"
        }
      ],
      "name": "transferFrom",
      "outputs": [],
      "stateMutability": "nonpayable",
      "type": "function"
    },
    {
      "inputs": [
        {
          "internalType": "address",
          "name": "newOwner",
          "type": "address"
        }
      ],
      "name": "transferOwnership",
      "outputs": [],
      "stateMutability": "nonpayable",
      "type": "function"
    },
    {
      "inputs": [
        {
          "internalType": "uint256",
          "name": "tokenId",
          "type": "uint256"
        },
        {
          "internalType": "uint256",
          "name": "teamId",
          "type": "uint256"
        }
      ],
      "name": "transferToTeam",
      "outputs": [],
      "stateMutability": "nonpayable",
      "type": "function"
    },
    {
      "inputs": [
        {
          "internalType": "uint256",
          "name": "uid",
          "type": "uint256"
        }
      ],
      "name": "uidToEtch",
      "outputs": [
        {
          "internalType": "uint256",
          "name": "etch",
          "type": "uint256"
        }
      ],
      "stateMutability": "view",
      "type": "function"
    },
    {
      "inputs": [
        {
          "internalType": "uint256",
          "name": "tokenId",
          "type": "uint256"
        },
        {
          "internalType": "string",
          "name": "newDocumentName",
          "type": "string"
        },
        {
          "internalType": "string",
          "name": "newDescription",
          "type": "string"
        }
      ],
      "name": "updateMetadata",
      "outputs": [],
      "stateMutability": "nonpayable",
      "type": "function"
    }
  ],
  "bytecode": "0x60806040523480156200001157600080fd5b50604051620050c1380380620050c183398101604081905262000034916200018e565b806040518060400160405280600681526020016545746368657360d01b8152506040518060400160405280600481526020016308aa886960e31b815250620000836000620000f260201b60201c565b600162000091838262000265565b506002620000a0828262000265565b505050620000bd620000b76200011460201b60201c565b6200013c565b600880546001600160a01b039283166001600160a01b031991821617909155600b805493909216921691909117905562000331565b600080546001600160a01b0319166001600160a01b0392909216919091179055565b600080546001600160a01b0316156200013757506000546001600160a01b031690565b503390565b600780546001600160a01b038381166001600160a01b0319831681179093556040519116919082907f8be0079c531659141344cd1fd0a4f28419497f9722a3daafe3b4186f6b6457e090600090a35050565b600060208284031215620001a157600080fd5b81516001600160a01b0381168114620001b957600080fd5b9392505050565b634e487b7160e01b600052604160045260246000fd5b600181811c90821680620001eb57607f821691505b6020821081036200020c57634e487b7160e01b600052602260045260246000fd5b50919050565b601f8211156200026057600081815260208120601f850160051c810160208610156200023b5750805b601f850160051c820191505b818110156200025c5782815560010162000247565b5050505b505050565b81516001600160401b03811115620002815762000281620001c0565b6200029981620002928454620001d6565b8462000212565b602080601f831160018114620002d15760008415620002b85750858301515b600019600386901b1c1916600185901b1785556200025c565b600085815260208120601f198616915b828110156200030257888601518255948401946001909101908401620002e1565b5085821015620003215787850151600019600388901b60f8161c191681555b5050505050600190811b01905550565b614d8080620003416000396000f3fe608060405234801561001057600080fd5b50600436106102ba5760003560e01c806370a0823111610182578063b65729ca116100e9578063e1902c73116100a2578063f21e7d741161007c578063f21e7d74146106f4578063f2fde38b14610707578063f4d3d01c1461071a578063fbc3a0971461073a57600080fd5b8063e1902c731461066c578063e985e9c514610697578063f09d5449146106d357600080fd5b8063b65729ca146105f7578063b88d4fde1461060a578063c4e41b221461061d578063c87b56dd14610625578063d20d259114610638578063dfdeddb51461064b57600080fd5b80638eaa900c1161013b5780638eaa900c1461056857806395d89b411461057b5780639d079cd5146105835780639d95f1cc14610596578063a22cb465146105a9578063aaed1bee146105bc57600080fd5b806370a08231146104f5578063715018a61461050857806379de2a5e1461051057806380f760211461052357806381fb5d4b146105345780638da5cb5b1461055757600080fd5b80632890c2ef1161022657806349ff0eb0116101df57806349ff0eb0146104895780634b4b98bd14610496578063574f2a01146104a95780635cc5b4da146104bc5780636352211e146104cf5780636a4de4b2146104e257600080fd5b80632890c2ef146103e55780632c44639c14610406578063313a9940146104195780633d8386d41461045057806342842e0e1461046357806345590ec81461047657600080fd5b806306fdde031161027857806306fdde0314610360578063081812fc14610375578063095ea7b3146103885780630ef7cc8e1461039b578063166fbbf2146103bf57806323b872dd146103d257600080fd5b8062939d4e146102bf57806301750152146102d457806301ffc9a7146102fc578063038806231461030f57806303de3ad71461032257806305e07bdc1461034d575b600080fd5b6102d26102cd366004613c77565b61075a565b005b6102e76102e2366004613d4c565b61080b565b60405190151581526020015b60405180910390f35b6102e761030a366004613d7f565b6108b5565b6102d261031d366004613ddd565b610905565b600b54610335906001600160a01b031681565b6040516001600160a01b0390911681526020016102f3565b6102d261035b366004613ec5565b610ca6565b610368610dd5565b6040516102f39190613f6f565b610335610383366004613f82565b610e67565b6102d2610396366004613f9b565b610e8e565b6103ae6103a9366004613f82565b610fb0565b6040516102f3959493929190613fc7565b6102d26103cd366004614010565b6110f9565b6102d26103e03660046140b3565b611328565b6103f86103f33660046140f4565b611360565b6040519081526020016102f3565b6102d261041436600461417f565b611596565b61042c6104273660046141d7565b611642565b60408051825181526020928301516001600160a01b031692810192909252016102f3565b6102d261045e36600461420b565b61192f565b6102d26104713660046140b3565b61197a565b6102d261048436600461417f565b611995565b6103f865ffffffffffff81565b6102d26104a4366004614249565b611a2d565b6102d26104b736600461431d565b611b9d565b6102e76104ca366004613f9b565b611c40565b6103356104dd366004613f82565b611c55565b6102d26104f03660046143d4565b611cb4565b6103f8610503366004613d4c565b611e10565b6102d2611e96565b6102e761051e366004613f9b565b611eaa565b6008546001600160a01b0316610335565b6102e7610542366004613d4c565b60096020526000908152604090205460ff1681565b6007546001600160a01b0316610335565b6102e7610576366004613f9b565b611ecd565b610368611ee8565b6102e7610591366004613f9b565b611ef7565b6102d26105a4366004613d4c565b611f05565b6102d26105b7366004614420565b611f31565b6105ea6105ca366004614459565b600d60209081526000928352604080842090915290825290205460ff1681565b6040516102f391906144b6565b6102d26106053660046144c4565b611fb2565b6102d2610618366004614530565b612061565b6103f86120a0565b610368610633366004613f82565b6120b0565b6102d261064636600461459b565b612123565b61065e6106593660046145c7565b61216e565b6040516102f39291906145e9565b6103f861067a3660046145c7565b600f60209081526000928352604080842090915290825290205481565b6102e76106a53660046145fd565b6001600160a01b03918216600090815260066020908152604080832093909416825291909152205460ff1690565b6106e66106e1366004613f82565b6121ad565b6040516102f392919061462b565b6102d26107023660046145c7565b612251565b6102d2610715366004613d4c565b6123b8565b6103f8610728366004613f82565b60126020526000908152604090205481565b6103f8610748366004613f82565b600c6020526000908152604090205481565b610762612431565b6001600160a01b031661077483611c55565b6001600160a01b0316146107a35760405162461bcd60e51b815260040161079a9061464d565b60405180910390fd5b60005b8151811015610806576107f4838383815181106107c5576107c561469f565b6020026020010151600001518484815181106107e3576107e361469f565b602002602001015160200151612458565b806107fe816146cb565b9150506107a6565b505050565b6008546000906001600160a01b031661083d57506001600160a01b031660009081526009602052604090205460ff1690565b60085460405162ba80a960e11b81526001600160a01b03848116600483015290911690630175015290602401602060405180830381865afa158015610886573d6000803e3d6000fd5b505050506040513d601f19601f820116820180604052508101906108aa91906146e4565b92915050565b919050565b60006001600160e01b031982166380ac58cd60e01b14806108e657506001600160e01b03198216635b5e139f60e01b145b806108aa57506301ffc9a760e01b6001600160e01b03198316146108aa565b826109525760405162461bcd60e51b815260206004820152601f60248201527f455443483a20446f63756d656e74204e616d65206973206d697373696e672e00604482015260640161079a565b61096361095d612431565b86611ef7565b8061097457506109746102e2612431565b6109905760405162461bcd60e51b815260040161079a90614701565b600085815260106020526040902060020180546109ac90614745565b9050600003610a135760405162461bcd60e51b815260206004820152602d60248201527f455443483a2045746368204d657461646174612069736e277420616c7265616460448201526c1e481a5b9a5d1a585b1a5e9959609a1b606482015260840161079a565b6000858152601060209081526040808320815160a0810190925280546001600160a01b031682526001810180549293919291840191610a5190614745565b80601f0160208091040260200160405190810160405280929190818152602001828054610a7d90614745565b8015610aca5780601f10610a9f57610100808354040283529160200191610aca565b820191906000526020600020905b815481529060010190602001808311610aad57829003601f168201915b50505050508152602001600282018054610ae390614745565b80601f0160208091040260200160405190810160405280929190818152602001828054610b0f90614745565b8015610b5c5780601f10610b3157610100808354040283529160200191610b5c565b820191906000526020600020905b815481529060010190602001808311610b3f57829003601f168201915b505050505081526020016003820154815260200160048201548152505090506040518060a0016040528082600001516001600160a01b0316815260200186868080601f0160208091040260200160405190810160405280939291908181526020018383808284376000920182905250938552505050604084810151602080850191909152606080870151838601526080870151940193909352898252601083529020825181546001600160a01b0319166001600160a01b03909116178155908201516001820190610c2d90826147c7565b5060408201516002820190610c4290826147c7565b506060820151816003015560808201518160040155905050857f68510ea7a73a7f2b1b2b1c98f482be01bafbfa921c708ae63ca68836525bbbe4826040015185858989604051610c969594939291906148af565b60405180910390a2505050505050565b610cb7610cb1612431565b84611ef7565b610d0f5760405162461bcd60e51b815260206004820152602360248201527f455443483a204e6f7420616c6c6f77656420746f2072656164207468697320456044820152620e8c6d60eb1b606482015260840161079a565b60408051808201825283815242602080830191909152600086815260119091529190912081518190610d4190826147c7565b506020918201516001909101556000848152601090915260408120600301805491610d6b836146cb565b909155505060008381526010602090815260408083206003015460119092529182902091516001600160a01b0384169286917f8fdd202adc8037fe967c1ef529293eebcc405e4c1230dfc803e44e5a0694590991610dc8916148f6565b60405180910390a4505050565b606060018054610de490614745565b80601f0160208091040260200160405190810160405280929190818152602001828054610e1090614745565b8015610e5d5780601f10610e3257610100808354040283529160200191610e5d565b820191906000526020600020905b815481529060010190602001808311610e4057829003601f168201915b5050505050905090565b6000610e72826124d6565b506000908152600560205260409020546001600160a01b031690565b6000610e9982611c55565b9050806001600160a01b0316836001600160a01b031603610f065760405162461bcd60e51b815260206004820152602160248201527f4552433732313a20617070726f76616c20746f2063757272656e74206f776e656044820152603960f91b606482015260840161079a565b806001600160a01b0316610f18612431565b6001600160a01b03161480610f345750610f34816106a5612431565b610fa65760405162461bcd60e51b815260206004820152603d60248201527f4552433732313a20617070726f76652063616c6c6572206973206e6f7420746f60448201527f6b656e206f776e6572206f7220617070726f76656420666f7220616c6c000000606482015260840161079a565b6108068383612526565b601060205260009081526040902080546001820180546001600160a01b039092169291610fdc90614745565b80601f016020809104026020016040519081016040528092919081815260200182805461100890614745565b80156110555780601f1061102a57610100808354040283529160200191611055565b820191906000526020600020905b81548152906001019060200180831161103857829003601f168201915b50505050509080600201805461106a90614745565b80601f016020809104026020016040519081016040528092919081815260200182805461109690614745565b80156110e35780601f106110b8576101008083540402835291602001916110e3565b820191906000526020600020905b8154815290600101906020018083116110c657829003601f168201915b5050505050908060030154908060040154905085565b61110a611104612431565b88611ef7565b8061111b575061111b6102e2612431565b6111375760405162461bcd60e51b815260040161079a90614701565b6000878152601060205260409020600201805461115390614745565b1590506111ad5760405162461bcd60e51b815260206004820152602260248201527f455443483a204d6574616461746120616c726561647920696e697469616c697a604482015261195960f21b606482015260840161079a565b604080518082019091526006815265155b985b595960d21b6020820152851561120a5786868080601f0160208091040260200160405190810160405280939291908181526020018383808284376000920191909152509293505050505b6040518060a0016040528061121d612431565b6001600160a01b0316815260200182815260200184848080601f01602080910402602001604051908101604052809392919081815260200183838082843760009201829052509385525050506020808301829052426040938401528b825260108152919020825181546001600160a01b0319166001600160a01b039091161781559082015160018201906112b190826147c7565b50604082015160028201906112c690826147c7565b506060820151816003015560808201518160040155905050877f68510ea7a73a7f2b1b2b1c98f482be01bafbfa921c708ae63ca68836525bbbe48484888886604051611316959493929190614993565b60405180910390a25050505050505050565b611339611333612431565b82612594565b6113555760405162461bcd60e51b815260040161079a906149ce565b610806838383612612565b6000611370600a80546001019055565b600061137b600a5490565b604080518082019091526007815266155b9b985b595960ca1b60208201529091506113a58961277e565b6113fd5760405162461bcd60e51b815260206004820152602360248201527f455443483a204e6f7420616c6c6f77656420746f206d696e74207468697320456044820152620e8c6d60eb1b606482015260840161079a565b60008981526012602090815260408083208590558051918201905290815261142890899084906127fa565b85156114685786868080601f0160208091040260200160405190810160405280939291908181526020018383808284376000920191909152509293505050505b8315611542576040518060a00160405280611481612431565b6001600160a01b0316815260200182815260200186868080601f016020809104026020016040519081016040528093929190818152602001838380828437600092018290525093855250505060208083018290524260409384015285825260108152919020825181546001600160a01b0319166001600160a01b0390911617815590820151600182019061151590826147c7565b506040820151600282019061152a90826147c7565b50606082015160038201556080909101516004909101555b876001600160a01b0316827fee0e765c4f445c3017fdd1a1bed518410853d17b38f3262aaceebf0e94b320fc87878560405161158093929190614a1b565b60405180910390a35090505b9695505050505050565b6115a96115a1612431565b83600261282d565b6115f55760405162461bcd60e51b815260206004820152601f60248201527f455443483a204e6f7420616c6c6f77656420746f2072656d6f76652074616700604482015260640161079a565b6115fd612431565b6001600160a01b0316827fddefce38704f20149ee995e6cccd9a4b1ac51ea8a3d202aecde939ea45b3cd84836040516116369190613f6f565b60405180910390a35050565b604080518082019091526000808252602082015260208201356116658380614a41565b604051611673929190614a87565b6040518091039020146116dd5760405162461bcd60e51b815260206004820152602c60248201527f546865206d657373616765206861736820646f65736e2774206d61746368207460448201526b6865206f726967696e616c2160a01b606482015260840161079a565b60007f649264926492649264926492649264926492649264926492649264926492649261170d6040850185614a41565b602061171c6040880188614a41565b611727929150614a97565b906117356040880188614a41565b611743949093929150614aaa565b61174c91614ad4565b1490506000806117626080860160608701613d4c565b6001600160a01b03163b11905081806117785750805b156117f0576117ab6117906080860160608701613d4c565b60208601356117a26040880188614a41565b60016000612a9e565b6117eb5760405162461bcd60e51b8152602060048201526011602482015270496e76616c6964207369676e617475726560781b604482015260640161079a565b611902565b600061184d85602001356040517f19457468657265756d205369676e6564204d6573736167653a0a3332000000006020820152603c8101829052600090605c01604051602081830303815290604052805190602001209050919050565b9050600061189c826118626040890189614a41565b8080601f016020809104026020016040519081016040528093929190818152602001838380828437600092019190915250612f3892505050565b90506118ae6080870160608801613d4c565b6001600160a01b0316816001600160a01b0316146118ff5760405162461bcd60e51b815260206004820152600e60248201526d24b73b30b634b21039b4b3b732b960911b604482015260640161079a565b50505b600061190e8580614a41565b81019061191b9190614af2565b905061192681612f5c565b50949350505050565b611937612431565b6001600160a01b031661194984611c55565b6001600160a01b03161461196f5760405162461bcd60e51b815260040161079a9061464d565b610806838383612458565b61080683838360405180602001604052806000815250612061565b6119a06115a1612431565b6119ec5760405162461bcd60e51b815260206004820152601c60248201527f455443483a204e6f7420616c6c6f77656420746f206164642074616700000000604482015260640161079a565b6119f4612431565b6001600160a01b0316827f71116541c7147515dc8687d78bf1f7a9bc3ca090d8e9c731dc1bc9e4f2b93df7836040516116369190613f6f565b611a386102e2612431565b611a845760405162461bcd60e51b815260206004820152601e60248201527f4e4f444548414e444c45523a205045524d495353494f4e5f44454e4945440000604482015260640161079a565b6000611a8f83611642565b60208101519091506001600160a01b0316331480611ab8575060208101516001600160a01b0316155b611b045760405162461bcd60e51b815260206004820152601e60248201527f4e4f444548414e444c45523a205045524d495353494f4e5f44454e4945440000604482015260640161079a565b611b0d3361080b565b80611b385750611b236080840160608501613d4c565b6001600160a01b0316336001600160a01b0316145b611b845760405162461bcd60e51b815260206004820152601e60248201527f4e4f444548414e444c45523a205045524d495353494f4e5f44454e4945440000604482015260640161079a565b610806611b976080850160608601613d4c565b83612faf565b611ba5612431565b6001600160a01b0316611bb783611c55565b6001600160a01b031614611bdd5760405162461bcd60e51b815260040161079a9061464d565b60005b815181101561080657611c2e83838381518110611bff57611bff61469f565b602002602001015160000151848481518110611c1d57611c1d61469f565b6020026020010151602001516130fe565b80611c38816146cb565b915050611be0565b6000611c4e8383600161282d565b9392505050565b600080611c61836132ce565b90506001600160a01b0381166108aa5760405162461bcd60e51b8152602060048201526018602482015277115490cdcc8c4e881a5b9d985b1a59081d1bdad95b88125160421b604482015260640161079a565b600b546001600160a01b031663823abfd986611cce612431565b60026040518463ffffffff1660e01b8152600401611cee93929190614b2a565b602060405180830381865afa158015611d0b573d6000803e3d6000fd5b505050506040513d601f19601f82011682018060405250810190611d2f91906146e4565b611d8b5760405162461bcd60e51b815260206004820152602760248201527f455443483a204e6f7420616c6c6f77656420746f206d696e7420666f722074686044820152666973207465616d60c81b606482015260840161079a565b600b54600090611da99088906001600160a01b031687878787611360565b6000818152600c602052604090208790559050611dc8818760026130fe565b85611dd1612431565b6001600160a01b0316827f7c60b38676b30dba3b9acd6f8171f3689c3a3ddc4bece355e3709e3f2b47284b60405160405180910390a450505050505050565b60006001600160a01b038216611e7a5760405162461bcd60e51b815260206004820152602960248201527f4552433732313a2061646472657373207a65726f206973206e6f7420612076616044820152683634b21037bbb732b960b91b606482015260840161079a565b506001600160a01b031660009081526004602052604090205490565b611e9e61337c565b611ea860006133f5565b565b600081815260126020526040812054611ec58482600261282d565b949350505050565b600081815260126020526040812054611ec58482600161282d565b606060028054610de490614745565b6000611c4e8383600261282d565b611f0d61337c565b6001600160a01b03166000908152600960205260409020805460ff19166001179055565b6001600160a01b038216611f9c5760405162461bcd60e51b815260206004820152602c60248201527f4552433732313a2061646472657373207a65726f206973206e6f74206120766160448201526b3634b21037b832b930ba37b960a11b606482015260840161079a565b611fae611fa7612431565b8383613447565b5050565b611fc5611fbd612431565b84600261282d565b6120115760405162461bcd60e51b815260206004820152601c60248201527f455443483a204e6f7420616c6c6f77656420746f207365742074616700000000604482015260640161079a565b612019612431565b6001600160a01b0316837f8693a7e35a142cb2dde038b6905c0864bbd8c79580848e03e593d4766c7b66cf8385604051612054929190614b4d565b60405180910390a3505050565b61207261206c612431565b83612594565b61208e5760405162461bcd60e51b815260040161079a906149ce565b61209a8484848461350d565b50505050565b60006120ab600a5490565b905090565b60606120bb826124d6565b60006120d260408051602081019091526000815290565b905060008151116120f25760405180602001604052806000815250611c4e565b806120fc84613540565b60405160200161210d929190614b7b565b6040516020818303038152906040529392505050565b61212b612431565b6001600160a01b031661213d84611c55565b6001600160a01b0316146121635760405162461bcd60e51b815260040161079a9061464d565b6108068383836130fe565b600e602052816000526040600020818154811061218a57600080fd5b60009182526020909120600290910201805460019091015490925060ff16905082565b6011602052600090815260409020805481906121c890614745565b80601f01602080910402602001604051908101604052809291908181526020018280546121f490614745565b80156122415780601f1061221657610100808354040283529160200191612241565b820191906000526020600020905b81548152906001019060200180831161222457829003601f168201915b5050505050908060010154905082565b600b54604080516325d92e6560e11b8152905183926001600160a01b031691634bb25cca9160048083019260209291908290030181865afa15801561229a573d6000803e3d6000fd5b505050506040513d601f19601f820116820180604052508101906122be9190614baa565b101561230c5760405162461bcd60e51b815260206004820152601960248201527f455443483a205465616d20646f6573206e6f7420657869737400000000000000604482015260640161079a565b612329612317612431565b600b546001600160a01b031684612612565b6000828152600c602052604090205415612358576000828152600c6020526040812054612358918491906130fe565b6000828152600c60205260409020819055612375828260026130fe565b8061237e612431565b6001600160a01b0316837f7c60b38676b30dba3b9acd6f8171f3689c3a3ddc4bece355e3709e3f2b47284b60405160405180910390a45050565b6123c061337c565b6001600160a01b0381166124255760405162461bcd60e51b815260206004820152602660248201527f4f776e61626c653a206e6577206f776e657220697320746865207a65726f206160448201526564647265737360d01b606482015260840161079a565b61242e816133f5565b50565b600080546001600160a01b03161561245357506000546001600160a01b031690565b503390565b6000838152600d602090815260408083206001600160a01b03861684529091529020805482919060ff191660018360028111156124975761249761447e565b0217905550816001600160a01b0316837f5a94177e4221a96ea6da8f897ea25dac13f5fec1ea44a2090b70bdd6093837948360405161205491906144b6565b6124df816135d2565b61242e5760405162461bcd60e51b8152602060048201526018602482015277115490cdcc8c4e881a5b9d985b1a59081d1bdad95b88125160421b604482015260640161079a565b600081815260056020526040902080546001600160a01b0319166001600160a01b038416908117909155819061255b82611c55565b6001600160a01b03167f8c5be1e5ebec7d5bd14f71427d1e84f3dd0314c0f7b2291e5b200ac8c7c3b92560405160405180910390a45050565b6000806125a083611c55565b9050806001600160a01b0316846001600160a01b031614806125e757506001600160a01b0380821660009081526006602090815260408083209388168352929052205460ff165b80611ec55750836001600160a01b031661260084610e67565b6001600160a01b031614949350505050565b826001600160a01b031661262582611c55565b6001600160a01b03161461264b5760405162461bcd60e51b815260040161079a90614bc3565b6001600160a01b0382166126ad5760405162461bcd60e51b8152602060048201526024808201527f4552433732313a207472616e7366657220746f20746865207a65726f206164646044820152637265737360e01b606482015260840161079a565b826001600160a01b03166126c082611c55565b6001600160a01b0316146126e65760405162461bcd60e51b815260040161079a90614bc3565b600081815260056020908152604080832080546001600160a01b03199081169091556001600160a01b0387811680865260048552838620805460001901905590871680865283862080546001019055868652600390945282852080549092168417909155905184937fddf252ad1be2c89b69c2b068fc378daa952ba7f163c4a11628f55a4df523b3ef91a461080683838360016135ef565b6000816127cc61278c612431565b6040516bffffffffffffffffffffffff19606083901b16602082015260009060340160408051601f19818403018152919052805160209091012092915050565b111580156108aa575065ffffffffffff6127e761278c612431565b6127f19190614c08565b82111592915050565b6128048383613618565b612811600084848461378f565b6108065760405162461bcd60e51b815260040161079a90614c1b565b600061283883611c55565b6001600160a01b0316846001600160a01b0316148061289e57508160028111156128645761286461447e565b6000848152600d602090815260408083206001600160a01b038916845290915290205460ff16600281111561289b5761289b61447e565b10155b8061293f57506000838152600c60205260409020541580159061293f5750600b546000848152600c60205260409081902054905163823abfd960e01b81526001600160a01b039092169163823abfd9916128fe9188908790600401614b2a565b602060405180830381865afa15801561291b573d6000803e3d6000fd5b505050506040513d601f19601f8201168201806040525081019061293f91906146e4565b1561294c57506001611c4e565b6000838152600e6020526040812054905b81811015612a92578360028111156129775761297761447e565b6000868152600e602052604090208054839081106129975761299761469f565b600091825260209091206002918202016001015460ff16908111156129be576129be61447e565b10158015612a705750600b546000868152600e6020526040902080546001600160a01b039092169163823abfd99190849081106129fd576129fd61469f565b90600052602060002090600202016000015488876040518463ffffffff1660e01b8152600401612a2f93929190614b2a565b602060405180830381865afa158015612a4c573d6000803e3d6000fd5b505050506040513d601f19601f82011682018060405250810190612a7091906146e4565b15612a8057600192505050611c4e565b80612a8a816146cb565b91505061295d565b50600095945050505050565b60006001600160a01b0387163b6060827f64926492649264926492649264926492649264926492649264926492649264928888612adc602082614a97565b612ae8928b9290614aaa565b612af191614ad4565b1490508015612bc8576000606089828a612b0c602082614a97565b92612b1993929190614aaa565b810190612b269190614c6d565b95509092509050841580612b375750865b15612bc157600080836001600160a01b031683604051612b579190614ca9565b6000604051808303816000865af19150503d8060008114612b94576040519150601f19603f3d011682016040523d82523d6000602084013e612b99565b606091505b509150915081612bbe5780604051639d0d6e2d60e01b815260040161079a9190613f6f565b50505b5050612c02565b87878080601f0160208091040260200160405190810160405280939291908181526020018383808284376000920191909152509294505050505b8080612c0e5750600083115b15612d7157604051630b135d3f60e11b81526001600160a01b038b1690631626ba7e90612c41908c908690600401614cc5565b602060405180830381865afa925050508015612c7a575060408051601f3d908101601f19168201909252612c7791810190614cde565b60015b612cf6573d808015612ca8576040519150601f19603f3d011682016040523d82523d6000602084013e612cad565b606091505b5085158015612cbc5750600084115b15612cdb57612cd08b8b8b8b8b6001612a9e565b94505050505061158c565b80604051636f2a959960e01b815260040161079a9190613f6f565b6001600160e01b03198116630b135d3f60e11b14801581612d15575086155b8015612d215750600085115b15612d4157612d358c8c8c8c8c6001612a9e565b9550505050505061158c565b84158015612d4c5750825b8015612d56575087155b15612d6557806000526001601ffd5b945061158c9350505050565b60418714612de75760405162461bcd60e51b815260206004820152603a60248201527f5369676e617475726556616c696461746f72237265636f7665725369676e657260448201527f3a20696e76616c6964207369676e6174757265206c656e677468000000000000606482015260840161079a565b6000612df66020828a8c614aaa565b612dff91614ad4565b90506000612e11604060208b8d614aaa565b612e1a91614ad4565b905060008a8a6040818110612e3157612e3161469f565b919091013560f81c915050601b8114801590612e5157508060ff16601c14155b15612eb45760405162461bcd60e51b815260206004820152602d60248201527f5369676e617475726556616c696461746f723a20696e76616c6964207369676e60448201526c617475726520762076616c756560981b606482015260840161079a565b6040805160008152602081018083528e905260ff83169181019190915260608101849052608081018390526001600160a01b038e169060019060a0016020604051602081039080840390855afa158015612f12573d6000803e3d6000fd5b505050602060405103516001600160a01b03161496505050505050509695505050505050565b6000806000612f478585613897565b91509150612f54816138dc565b509392505050565b60004382600001511015612fa75760405162461bcd60e51b815260206004820152601260248201527113595cdcd859d9481a5cc8195e1c1a5c995960721b604482015260640161079a565b506001919050565b816001600160a01b0381166130125760405162461bcd60e51b815260206004820152602360248201527f436f6e746578743a206e6577436f6e74657874206973207a65726f206164647260448201526265737360e81b606482015260840161079a565b600080546001600160a01b0319166001600160a01b03831617905560005b82518110156130e857600080306001600160a01b03168584815181106130585761305861469f565b602002602001015160405161306d9190614ca9565b600060405180830381855af49150503d80600081146130a8576040519150601f19603f3d011682016040523d82523d6000602084013e6130ad565b606091505b50915091508181906130d25760405162461bcd60e51b815260040161079a9190613f6f565b50505080806130e0906146cb565b915050613030565b50600080546001600160a01b0319169055505050565b6000838152600f602090815260408083208584529091529020541561319a576000838152600e60209081526040808320600f83528184208685529092529091205482919061314e90600190614a97565b8154811061315e5761315e61469f565b906000526020600020906002020160010160006101000a81548160ff021916908360028111156131905761319061447e565b021790555061329d565b6000838152600e6020908152604090912054106131f05760405162461bcd60e51b8152602060048201526014602482015273455443483a20546f6f206d616e79207465616d7360601b604482015260640161079a565b600e600084815260200190815260200160002060405180604001604052808481526020018360028111156132265761322661447e565b90528154600181810184556000938452602093849020835160029384029091019081559383015184820180549495949193909260ff19909216919084908111156132725761327261447e565b021790555050506000838152600e6020908152604080832054600f8352818420868552909252909120555b81837f6749c1ab5a73d638660eac7240f08fc5bd1a7ab32b0b160096b1140745a1b4cd8360405161205491906144b6565b600081815260036020526040812054600b546001600160a01b03918216911681036108aa57600b546000848152600c6020526040908190205490516331a9108f60e11b81526001600160a01b0390921691636352211e916133359160040190815260200190565b602060405180830381865afa158015613352573d6000803e3d6000fd5b505050506040513d601f19601f82011682018060405250810190611c4e9190614cfb565b50919050565b613384612431565b6001600160a01b031661339f6007546001600160a01b031690565b6001600160a01b031614611ea85760405162461bcd60e51b815260206004820181905260248201527f4f776e61626c653a2063616c6c6572206973206e6f7420746865206f776e6572604482015260640161079a565b600780546001600160a01b038381166001600160a01b0319831681179093556040519116919082907f8be0079c531659141344cd1fd0a4f28419497f9722a3daafe3b4186f6b6457e090600090a35050565b816001600160a01b0316836001600160a01b0316036134a85760405162461bcd60e51b815260206004820152601960248201527f4552433732313a20617070726f766520746f2063616c6c657200000000000000604482015260640161079a565b6001600160a01b03838116600081815260066020908152604080832094871680845294825291829020805460ff191686151590811790915591519182527f17307eab39ab6107e8899845ad3d59bd9653f200f220920489ca2b5937696c319101612054565b613518848484612612565b6135248484848461378f565b61209a5760405162461bcd60e51b815260040161079a90614c1b565b6060600061354d83613a26565b60010190506000816001600160401b0381111561356c5761356c613bc2565b6040519080825280601f01601f191660200182016040528015613596576020820181803683370190505b5090508181016020015b600019016f181899199a1a9b1b9c1cb0b131b232b360811b600a86061a8153600a85049450846135a057509392505050565b6000806135de836132ce565b6001600160a01b0316141592915050565b600b546001600160a01b0384811691161461209a57506000908152600c60205260408120555050565b6001600160a01b03821661366e5760405162461bcd60e51b815260206004820181905260248201527f4552433732313a206d696e7420746f20746865207a65726f2061646472657373604482015260640161079a565b613677816135d2565b156136c45760405162461bcd60e51b815260206004820152601c60248201527f4552433732313a20746f6b656e20616c7265616479206d696e74656400000000604482015260640161079a565b6136cd816135d2565b1561371a5760405162461bcd60e51b815260206004820152601c60248201527f4552433732313a20746f6b656e20616c7265616479206d696e74656400000000604482015260640161079a565b6001600160a01b038216600081815260046020908152604080832080546001019055848352600390915280822080546001600160a01b0319168417905551839291907fddf252ad1be2c89b69c2b068fc378daa952ba7f163c4a11628f55a4df523b3ef908290a4611fae6000838360016135ef565b60006001600160a01b0384163b1561388c57836001600160a01b031663150b7a026137b8612431565b8786866040518563ffffffff1660e01b81526004016137da9493929190614d18565b6020604051808303816000875af1925050508015613815575060408051601f3d908101601f1916820190925261381291810190614cde565b60015b613872573d808015613843576040519150601f19603f3d011682016040523d82523d6000602084013e613848565b606091505b50805160000361386a5760405162461bcd60e51b815260040161079a90614c1b565b805181602001fd5b6001600160e01b031916630a85bd0160e11b149050611ec5565b506001949350505050565b60008082516041036138cd5760208301516040840151606085015160001a6138c187828585613afe565b945094505050506138d5565b506000905060025b9250929050565b60008160048111156138f0576138f061447e565b036138f85750565b600181600481111561390c5761390c61447e565b036139595760405162461bcd60e51b815260206004820152601860248201527f45434453413a20696e76616c6964207369676e61747572650000000000000000604482015260640161079a565b600281600481111561396d5761396d61447e565b036139ba5760405162461bcd60e51b815260206004820152601f60248201527f45434453413a20696e76616c6964207369676e6174757265206c656e67746800604482015260640161079a565b60038160048111156139ce576139ce61447e565b0361242e5760405162461bcd60e51b815260206004820152602260248201527f45434453413a20696e76616c6964207369676e6174757265202773272076616c604482015261756560f01b606482015260840161079a565b60008072184f03e93ff9f4daa797ed6e38ed64bf6a1f0160401b8310613a655772184f03e93ff9f4daa797ed6e38ed64bf6a1f0160401b830492506040015b6d04ee2d6d415b85acef81000000008310613a91576d04ee2d6d415b85acef8100000000830492506020015b662386f26fc100008310613aaf57662386f26fc10000830492506010015b6305f5e1008310613ac7576305f5e100830492506008015b6127108310613adb57612710830492506004015b60648310613aed576064830492506002015b600a83106108aa5760010192915050565b6000807f7fffffffffffffffffffffffffffffff5d576e7357a4501ddfe92f46681b20a0831115613b355750600090506003613bb9565b6040805160008082526020820180845289905260ff881692820192909252606081018690526080810185905260019060a0016020604051602081039080840390855afa158015613b89573d6000803e3d6000fd5b5050604051601f1901519150506001600160a01b038116613bb257600060019250925050613bb9565b9150600090505b94509492505050565b634e487b7160e01b600052604160045260246000fd5b604080519081016001600160401b0381118282101715613bfa57613bfa613bc2565b60405290565b604051601f8201601f191681016001600160401b0381118282101715613c2857613c28613bc2565b604052919050565b60006001600160401b03821115613c4957613c49613bc2565b5060051b60200190565b6001600160a01b038116811461242e57600080fd5b8035600381106108b057600080fd5b6000806040808486031215613c8b57600080fd5b833592506020808501356001600160401b03811115613ca957600080fd5b8501601f81018713613cba57600080fd5b8035613ccd613cc882613c30565b613c00565b81815260069190911b82018301908381019089831115613cec57600080fd5b928401925b82841015613d3c5785848b031215613d095760008081fd5b613d11613bd8565b8435613d1c81613c53565b8152613d29858701613c68565b8187015282529285019290840190613cf1565b8096505050505050509250929050565b600060208284031215613d5e57600080fd5b8135611c4e81613c53565b6001600160e01b03198116811461242e57600080fd5b600060208284031215613d9157600080fd5b8135611c4e81613d69565b60008083601f840112613dae57600080fd5b5081356001600160401b03811115613dc557600080fd5b6020830191508360208285010111156138d557600080fd5b600080600080600060608688031215613df557600080fd5b8535945060208601356001600160401b0380821115613e1357600080fd5b613e1f89838a01613d9c565b90965094506040880135915080821115613e3857600080fd5b50613e4588828901613d9c565b969995985093965092949392505050565b600082601f830112613e6757600080fd5b81356001600160401b03811115613e8057613e80613bc2565b613e93601f8201601f1916602001613c00565b818152846020838601011115613ea857600080fd5b816020850160208301376000918101602001919091529392505050565b600080600060608486031215613eda57600080fd5b8335925060208401356001600160401b03811115613ef757600080fd5b613f0386828701613e56565b9250506040840135613f1481613c53565b809150509250925092565b60005b83811015613f3a578181015183820152602001613f22565b50506000910152565b60008151808452613f5b816020860160208601613f1f565b601f01601f19169290920160200192915050565b602081526000611c4e6020830184613f43565b600060208284031215613f9457600080fd5b5035919050565b60008060408385031215613fae57600080fd5b8235613fb981613c53565b946020939093013593505050565b6001600160a01b038616815260a060208201526000613fe960a0830187613f43565b8281036040840152613ffb8187613f43565b60608401959095525050608001529392505050565b60008060008060008060006080888a03121561402b57600080fd5b8735965060208801356001600160401b038082111561404957600080fd5b6140558b838c01613d9c565b909850965060408a013591508082111561406e57600080fd5b61407a8b838c01613d9c565b909650945060608a013591508082111561409357600080fd5b506140a08a828b01613d9c565b989b979a50959850939692959293505050565b6000806000606084860312156140c857600080fd5b83356140d381613c53565b925060208401356140e381613c53565b929592945050506040919091013590565b6000806000806000806080878903121561410d57600080fd5b86359550602087013561411f81613c53565b945060408701356001600160401b038082111561413b57600080fd5b6141478a838b01613d9c565b9096509450606089013591508082111561416057600080fd5b5061416d89828a01613d9c565b979a9699509497509295939492505050565b6000806040838503121561419257600080fd5b8235915060208301356001600160401b038111156141af57600080fd5b6141bb85828601613e56565b9150509250929050565b60006080828403121561337657600080fd5b6000602082840312156141e957600080fd5b81356001600160401b038111156141ff57600080fd5b611ec5848285016141c5565b60008060006060848603121561422057600080fd5b83359250602084013561423281613c53565b915061424060408501613c68565b90509250925092565b6000806040838503121561425c57600080fd5b82356001600160401b038082111561427357600080fd5b61427f868387016141c5565b935060209150818501358181111561429657600080fd5b8501601f810187136142a757600080fd5b80356142b5613cc882613c30565b81815260059190911b820184019084810190898311156142d457600080fd5b8584015b8381101561430c578035868111156142f05760008081fd5b6142fe8c8983890101613e56565b8452509186019186016142d8565b508096505050505050509250929050565b600080604080848603121561433157600080fd5b833592506020808501356001600160401b0381111561434f57600080fd5b8501601f8101871361436057600080fd5b803561436e613cc882613c30565b81815260069190911b8201830190838101908983111561438d57600080fd5b928401925b82841015613d3c5785848b0312156143aa5760008081fd5b6143b2613bd8565b843581526143c1868601613c68565b8187015282529285019290840190614392565b600080600080600080608087890312156143ed57600080fd5b863595506020870135945060408701356001600160401b038082111561413b57600080fd5b801515811461242e57600080fd5b6000806040838503121561443357600080fd5b823561443e81613c53565b9150602083013561444e81614412565b809150509250929050565b6000806040838503121561446c57600080fd5b82359150602083013561444e81613c53565b634e487b7160e01b600052602160045260246000fd5b600381106144b257634e487b7160e01b600052602160045260246000fd5b9052565b602081016108aa8284614494565b6000806000606084860312156144d957600080fd5b8335925060208401356001600160401b03808211156144f757600080fd5b61450387838801613e56565b9350604086013591508082111561451957600080fd5b5061452686828701613e56565b9150509250925092565b6000806000806080858703121561454657600080fd5b843561455181613c53565b9350602085013561456181613c53565b92506040850135915060608501356001600160401b0381111561458357600080fd5b61458f87828801613e56565b91505092959194509250565b6000806000606084860312156145b057600080fd5b833592506020840135915061424060408501613c68565b600080604083850312156145da57600080fd5b50508035926020909101359150565b82815260408101611c4e6020830184614494565b6000806040838503121561461057600080fd5b823561461b81613c53565b9150602083013561444e81613c53565b60408152600061463e6040830185613f43565b90508260208301529392505050565b60208082526032908201527f455443483a204e6f7420616c6c6f77656420746f20736574207065726d6973736040820152710d2dedce640ccdee440e8d0d2e6408ae8c6d60731b606082015260800190565b634e487b7160e01b600052603260045260246000fd5b634e487b7160e01b600052601160045260246000fd5b6000600182016146dd576146dd6146b5565b5060010190565b6000602082840312156146f657600080fd5b8151611c4e81614412565b60208082526024908201527f455443483a204e6f7420616c6c6f77656420746f20777269746520746869732060408201526308ae8c6d60e31b606082015260800190565b600181811c9082168061475957607f821691505b60208210810361337657634e487b7160e01b600052602260045260246000fd5b601f82111561080657600081815260208120601f850160051c810160208610156147a05750805b601f850160051c820191505b818110156147bf578281556001016147ac565b505050505050565b81516001600160401b038111156147e0576147e0613bc2565b6147f4816147ee8454614745565b84614779565b602080601f83116001811461482957600084156148115750858301515b600019600386901b1c1916600185901b1785556147bf565b600085815260208120601f198616915b8281101561485857888601518255948401946001909101908401614839565b50858210156148765787850151600019600388901b60f8161c191681555b5050505050600190811b01905550565b81835281816020850137506000828201602090810191909152601f909101601f19169091010190565b6060815260006148c26060830188613f43565b82810360208401526148d5818789614886565b905082810360408401526148ea818587614886565b98975050505050505050565b600060208083526040818401526000845461491081614745565b8060608701526080600180841660008114614932576001811461494c5761497a565b60ff1985168984015283151560051b89018301955061497a565b896000528660002060005b858110156149725781548b8201860152908301908801614957565b8a0184019650505b5080890154604089015250505050809250505092915050565b6060815260006149a7606083018789614886565b82810360208401526149ba818688614886565b905082810360408401526148ea8185613f43565b6020808252602d908201527f4552433732313a2063616c6c6572206973206e6f7420746f6b656e206f776e6560408201526c1c881bdc88185c1c1c9bdd9959609a1b606082015260800190565b604081526000614a2f604083018587614886565b828103602084015261158c8185613f43565b6000808335601e19843603018112614a5857600080fd5b8301803591506001600160401b03821115614a7257600080fd5b6020019150368190038213156138d557600080fd5b8183823760009101908152919050565b818103818111156108aa576108aa6146b5565b60008085851115614aba57600080fd5b83861115614ac757600080fd5b5050820193919092039150565b803560208310156108aa57600019602084900360031b1b1692915050565b600060408284031215614b0457600080fd5b614b0c613bd8565b823581526020830135614b1e81613c53565b60208201529392505050565b8381526001600160a01b038316602082015260608101611ec56040830184614494565b604081526000614b606040830185613f43565b8281036020840152614b728185613f43565b95945050505050565b60008351614b8d818460208801613f1f565b835190830190614ba1818360208801613f1f565b01949350505050565b600060208284031215614bbc57600080fd5b5051919050565b60208082526025908201527f4552433732313a207472616e736665722066726f6d20696e636f72726563742060408201526437bbb732b960d91b606082015260800190565b808201808211156108aa576108aa6146b5565b60208082526032908201527f4552433732313a207472616e7366657220746f206e6f6e20455243373231526560408201527131b2b4bb32b91034b6b83632b6b2b73a32b960711b606082015260800190565b600080600060608486031215614c8257600080fd5b8335614c8d81613c53565b925060208401356001600160401b03808211156144f757600080fd5b60008251614cbb818460208701613f1f565b9190910192915050565b828152604060208201526000611ec56040830184613f43565b600060208284031215614cf057600080fd5b8151611c4e81613d69565b600060208284031215614d0d57600080fd5b8151611c4e81613c53565b60006001600160a01b0380871683528086166020840152508360408301526080606083015261158c6080830184613f4356fea26469706673582212200e296c308a6703afe7920244087151e2b3e22ebd46dc1c0beef477f465b825db64736f6c63430008130033",
  "linkReferences": {},
  "deployedLinkReferences": {}
}