{
  "_format": "hh-sol-artifact-1",
  "contractName": "Organisations",
  "sourceName": "contracts/COrganisation.sol",
  "abi": [
    {
      "inputs": [],
      "stateMutability": "nonpayable",
      "type": "constructor"
    },
    {
      "inputs": [
        {
          "internalType": "bytes",
          "name": "error",
          "type": "bytes"
        }
      ],
      "name": "ERC1271Revert",
      "type": "error"
    },
    {
      "inputs": [
        {
          "internalType": "bytes",
          "name": "error",
          "type": "bytes"
        }
      ],
      "name": "ERC6492DeployFailed",
      "type": "error"
    },
    {
      "anonymous": false,
      "inputs": [
        {
          "indexed": true,
          "internalType": "address",
          "name": "owner",
          "type": "address"
        },
        {
          "indexed": true,
          "internalType": "address",
          "name": "approved",
          "type": "address"
        },
        {
          "indexed": true,
          "internalType": "uint256",
          "name": "tokenId",
          "type": "uint256"
        }
      ],
      "name": "Approval",
      "type": "event"
    },
    {
      "anonymous": false,
      "inputs": [
        {
          "indexed": true,
          "internalType": "address",
          "name": "owner",
          "type": "address"
        },
        {
          "indexed": true,
          "internalType": "address",
          "name": "operator",
          "type": "address"
        },
        {
          "indexed": false,
          "internalType": "bool",
          "name": "approved",
          "type": "bool"
        }
      ],
      "name": "ApprovalForAll",
      "type": "event"
    },
    {
      "anonymous": false,
      "inputs": [
        {
          "indexed": true,
          "internalType": "uint256",
          "name": "orgId",
          "type": "uint256"
        },
        {
          "indexed": true,
          "internalType": "address",
          "name": "to",
          "type": "address"
        }
      ],
      "name": "OrganisationCreated",
      "type": "event"
    },
    {
      "anonymous": false,
      "inputs": [
        {
          "indexed": true,
          "internalType": "uint256",
          "name": "orgId",
          "type": "uint256"
        },
        {
          "indexed": false,
          "internalType": "string",
          "name": "newName",
          "type": "string"
        }
      ],
      "name": "OrganisationRenamed",
      "type": "event"
    },
    {
      "anonymous": false,
      "inputs": [
        {
          "indexed": true,
          "internalType": "address",
          "name": "previousOwner",
          "type": "address"
        },
        {
          "indexed": true,
          "internalType": "address",
          "name": "newOwner",
          "type": "address"
        }
      ],
      "name": "OwnershipTransferred",
      "type": "event"
    },
    {
      "anonymous": false,
      "inputs": [
        {
          "indexed": true,
          "internalType": "uint256",
          "name": "orgId",
          "type": "uint256"
        },
        {
          "indexed": true,
          "internalType": "address",
          "name": "account",
          "type": "address"
        },
        {
          "indexed": false,
          "internalType": "enum IOrganisation.EPermissions",
          "name": "newPermission",
          "type": "uint8"
        }
      ],
      "name": "PermissionsUpdated",
      "type": "event"
    },
    {
      "anonymous": false,
      "inputs": [
        {
          "indexed": true,
          "internalType": "address",
          "name": "from",
          "type": "address"
        },
        {
          "indexed": true,
          "internalType": "address",
          "name": "to",
          "type": "address"
        },
        {
          "indexed": true,
          "internalType": "uint256",
          "name": "tokenId",
          "type": "uint256"
        }
      ],
      "name": "Transfer",
      "type": "event"
    },
    {
      "inputs": [
        {
          "internalType": "address",
          "name": "node",
          "type": "address"
        }
      ],
      "name": "_nodes",
      "outputs": [
        {
          "internalType": "bool",
          "name": "isNode",
          "type": "bool"
        }
      ],
      "stateMutability": "view",
      "type": "function"
    },
    {
      "inputs": [
        {
          "internalType": "address",
          "name": "node",
          "type": "address"
        }
      ],
      "name": "addNode",
      "outputs": [],
      "stateMutability": "nonpayable",
      "type": "function"
    },
    {
      "inputs": [
        {
          "internalType": "address",
          "name": "to",
          "type": "address"
        },
        {
          "internalType": "uint256",
          "name": "tokenId",
          "type": "uint256"
        }
      ],
      "name": "approve",
      "outputs": [],
      "stateMutability": "nonpayable",
      "type": "function"
    },
    {
      "inputs": [
        {
          "internalType": "address",
          "name": "owner",
          "type": "address"
        }
      ],
      "name": "balanceOf",
      "outputs": [
        {
          "internalType": "uint256",
          "name": "",
          "type": "uint256"
        }
      ],
      "stateMutability": "view",
      "type": "function"
    },
    {
      "inputs": [
        {
          "components": [
            {
              "internalType": "bytes",
              "name": "encodedMessage",
              "type": "bytes"
            },
            {
              "internalType": "bytes32",
              "name": "messageHash",
              "type": "bytes32"
            },
            {
              "internalType": "bytes",
              "name": "signature",
              "type": "bytes"
            },
            {
              "internalType": "address",
              "name": "signer",
              "type": "address"
            }
          ],
          "internalType": "struct SignatureVerifier.Signature",
          "name": "_signature",
          "type": "tuple"
        }
      ],
      "name": "checkSignature",
      "outputs": [
        {
          "components": [
            {
              "internalType": "uint256",
              "name": "blockNumber",
              "type": "uint256"
            },
            {
              "internalType": "address",
              "name": "nodeAddress",
              "type": "address"
            }
          ],
          "internalType": "struct SignatureVerifier.EncodedMessage",
          "name": "",
          "type": "tuple"
        }
      ],
      "stateMutability": "nonpayable",
      "type": "function"
    },
    {
      "inputs": [
        {
          "internalType": "address",
          "name": "to",
          "type": "address"
        },
        {
          "internalType": "string",
          "name": "name",
          "type": "string"
        },
        {
          "components": [
            {
              "internalType": "address",
              "name": "user",
              "type": "address"
            },
            {
              "internalType": "enum IOrganisation.EPermissions",
              "name": "permission",
              "type": "uint8"
            }
          ],
          "internalType": "struct IOrganisation.userPermission[]",
          "name": "users",
          "type": "tuple[]"
        }
      ],
      "name": "createOrganisation",
      "outputs": [
        {
          "internalType": "uint256",
          "name": "newOrgId",
          "type": "uint256"
        }
      ],
      "stateMutability": "nonpayable",
      "type": "function"
    },
    {
      "inputs": [
        {
          "components": [
            {
              "internalType": "bytes",
              "name": "encodedMessage",
              "type": "bytes"
            },
            {
              "internalType": "bytes32",
              "name": "messageHash",
              "type": "bytes32"
            },
            {
              "internalType": "bytes",
              "name": "signature",
              "type": "bytes"
            },
            {
              "internalType": "address",
              "name": "signer",
              "type": "address"
            }
          ],
          "internalType": "struct SignatureVerifier.Signature",
          "name": "signature",
          "type": "tuple"
        },
        {
          "internalType": "bytes[]",
          "name": "_calldata",
          "type": "bytes[]"
        }
      ],
      "name": "delegateCallsToSelf",
      "outputs": [],
      "stateMutability": "nonpayable",
      "type": "function"
    },
    {
      "inputs": [
        {
          "internalType": "uint256",
          "name": "tokenId",
          "type": "uint256"
        }
      ],
      "name": "getApproved",
      "outputs": [
        {
          "internalType": "address",
          "name": "",
          "type": "address"
        }
      ],
      "stateMutability": "view",
      "type": "function"
    },
    {
      "inputs": [],
      "name": "getNumberOfOrganisationsCreated",
      "outputs": [
        {
          "internalType": "uint256",
          "name": "totalAmountOfOrganisations",
          "type": "uint256"
        }
      ],
      "stateMutability": "view",
      "type": "function"
    },
    {
      "inputs": [],
      "name": "getParent",
      "outputs": [
        {
          "internalType": "address",
          "name": "",
          "type": "address"
        }
      ],
      "stateMutability": "view",
      "type": "function"
    },
    {
      "inputs": [
        {
          "internalType": "uint256",
          "name": "orgId",
          "type": "uint256"
        },
        {
          "internalType": "address",
          "name": "user",
          "type": "address"
        }
      ],
      "name": "isAdmin",
      "outputs": [
        {
          "internalType": "bool",
          "name": "_isAdmin",
          "type": "bool"
        }
      ],
      "stateMutability": "view",
      "type": "function"
    },
    {
      "inputs": [
        {
          "internalType": "address",
          "name": "owner",
          "type": "address"
        },
        {
          "internalType": "address",
          "name": "operator",
          "type": "address"
        }
      ],
      "name": "isApprovedForAll",
      "outputs": [
        {
          "internalType": "bool",
          "name": "",
          "type": "bool"
        }
      ],
      "stateMutability": "view",
      "type": "function"
    },
    {
      "inputs": [
        {
          "internalType": "uint256",
          "name": "orgId",
          "type": "uint256"
        },
        {
          "internalType": "address",
          "name": "user",
          "type": "address"
        }
      ],
      "name": "isMember",
      "outputs": [
        {
          "internalType": "bool",
          "name": "_isMember",
          "type": "bool"
        }
      ],
      "stateMutability": "view",
      "type": "function"
    },
    {
      "inputs": [
        {
          "internalType": "address",
          "name": "node",
          "type": "address"
        }
      ],
      "name": "isNode",
      "outputs": [
        {
          "internalType": "bool",
          "name": "",
          "type": "bool"
        }
      ],
      "stateMutability": "view",
      "type": "function"
    },
    {
      "inputs": [],
      "name": "name",
      "outputs": [
        {
          "internalType": "string",
          "name": "",
          "type": "string"
        }
      ],
      "stateMutability": "view",
      "type": "function"
    },
    {
      "inputs": [
        {
          "internalType": "address",
          "name": "",
          "type": "address"
        },
        {
          "internalType": "address",
          "name": "",
          "type": "address"
        },
        {
          "internalType": "uint256",
          "name": "",
          "type": "uint256"
        },
        {
          "internalType": "bytes",
          "name": "",
          "type": "bytes"
        }
      ],
      "name": "onERC721Received",
      "outputs": [
        {
          "internalType": "bytes4",
          "name": "",
          "type": "bytes4"
        }
      ],
      "stateMutability": "nonpayable",
      "type": "function"
    },
    {
      "inputs": [],
      "name": "owner",
      "outputs": [
        {
          "internalType": "address",
          "name": "",
          "type": "address"
        }
      ],
      "stateMutability": "view",
      "type": "function"
    },
    {
      "inputs": [
        {
          "internalType": "uint256",
          "name": "tokenId",
          "type": "uint256"
        }
      ],
      "name": "ownerOf",
      "outputs": [
        {
          "internalType": "address",
          "name": "",
          "type": "address"
        }
      ],
      "stateMutability": "view",
      "type": "function"
    },
    {
      "inputs": [
        {
          "internalType": "uint256",
          "name": "organisation",
          "type": "uint256"
        },
        {
          "internalType": "address",
          "name": "user",
          "type": "address"
        }
      ],
      "name": "permissionOf",
      "outputs": [
        {
          "internalType": "enum IOrganisation.EPermissions",
          "name": "permission",
          "type": "uint8"
        }
      ],
      "stateMutability": "view",
      "type": "function"
    },
    {
      "inputs": [
        {
          "internalType": "uint256",
          "name": "orgId",
          "type": "uint256"
        },
        {
          "internalType": "string",
          "name": "name",
          "type": "string"
        }
      ],
      "name": "renameOrganisation",
      "outputs": [],
      "stateMutability": "nonpayable",
      "type": "function"
    },
    {
      "inputs": [],
      "name": "renounceOwnership",
      "outputs": [],
      "stateMutability": "nonpayable",
      "type": "function"
    },
    {
      "inputs": [
        {
          "internalType": "address",
          "name": "from",
          "type": "address"
        },
        {
          "internalType": "address",
          "name": "to",
          "type": "address"
        },
        {
          "internalType": "uint256",
          "name": "tokenId",
          "type": "uint256"
        }
      ],
      "name": "safeTransferFrom",
      "outputs": [],
      "stateMutability": "nonpayable",
      "type": "function"
    },
    {
      "inputs": [
        {
          "internalType": "address",
          "name": "from",
          "type": "address"
        },
        {
          "internalType": "address",
          "name": "to",
          "type": "address"
        },
        {
          "internalType": "uint256",
          "name": "tokenId",
          "type": "uint256"
        },
        {
          "internalType": "bytes",
          "name": "data",
          "type": "bytes"
        }
      ],
      "name": "safeTransferFrom",
      "outputs": [],
      "stateMutability": "nonpayable",
      "type": "function"
    },
    {
      "inputs": [
        {
          "internalType": "address",
          "name": "operator",
          "type": "address"
        },
        {
          "internalType": "bool",
          "name": "approved",
          "type": "bool"
        }
      ],
      "name": "setApprovalForAll",
      "outputs": [],
      "stateMutability": "nonpayable",
      "type": "function"
    },
    {
      "inputs": [
        {
          "internalType": "uint256",
          "name": "orgId",
          "type": "uint256"
        },
        {
          "internalType": "address",
          "name": "user",
          "type": "address"
        },
        {
          "internalType": "enum IOrganisation.EPermissions",
          "name": "permission",
          "type": "uint8"
        }
      ],
      "name": "setPermission",
      "outputs": [],
      "stateMutability": "nonpayable",
      "type": "function"
    },
    {
      "inputs": [
        {
          "internalType": "uint256",
          "name": "orgId",
          "type": "uint256"
        },
        {
          "components": [
            {
              "internalType": "address",
              "name": "user",
              "type": "address"
            },
            {
              "internalType": "enum IOrganisation.EPermissions",
              "name": "permission",
              "type": "uint8"
            }
          ],
          "internalType": "struct IOrganisation.userPermission[]",
          "name": "users",
          "type": "tuple[]"
        }
      ],
      "name": "setPermissionBulk",
      "outputs": [],
      "stateMutability": "nonpayable",
      "type": "function"
    },
    {
      "inputs": [
        {
          "internalType": "bytes4",
          "name": "interfaceId",
          "type": "bytes4"
        }
      ],
      "name": "supportsInterface",
      "outputs": [
        {
          "internalType": "bool",
          "name": "",
          "type": "bool"
        }
      ],
      "stateMutability": "view",
      "type": "function"
    },
    {
      "inputs": [],
      "name": "symbol",
      "outputs": [
        {
          "internalType": "string",
          "name": "",
          "type": "string"
        }
      ],
      "stateMutability": "view",
      "type": "function"
    },
    {
      "inputs": [
        {
          "internalType": "uint256",
          "name": "tokenId",
          "type": "uint256"
        }
      ],
      "name": "tokenURI",
      "outputs": [
        {
          "internalType": "string",
          "name": "",
          "type": "string"
        }
      ],
      "stateMutability": "view",
      "type": "function"
    },
    {
      "inputs": [
        {
          "internalType": "address",
          "name": "from",
          "type": "address"
        },
        {
          "internalType": "address",
          "name": "to",
          "type": "address"
        },
        {
          "internalType": "uint256",
          "name": "tokenId",
          "type": "uint256"
        }
      ],
      "name": "transferFrom",
      "outputs": [],
      "stateMutability": "nonpayable",
      "type": "function"
    },
    {
      "inputs": [
        {
          "internalType": "address",
          "name": "newOwner",
          "type": "address"
        }
      ],
      "name": "transferOwnership",
      "outputs": [],
      "stateMutability": "nonpayable",
      "type": "function"
    }
  ],
  "bytecode": "0x60806040523480156200001157600080fd5b5060006040518060400160405280601181526020017022ba31b41027b933b0b734b9b0ba34b7b760791b815250604051806040016040528060068152602001650de5a8aa886960d31b8152506200006f6000620000cf60201b60201c565b60016200007d838262000210565b5060026200008c828262000210565b505050620000a9620000a3620000f160201b60201c565b62000119565b600880546001600160a01b0319166001600160a01b0392909216919091179055620002dc565b600080546001600160a01b0319166001600160a01b0392909216919091179055565b600080546001600160a01b0316156200011457506000546001600160a01b031690565b503390565b600780546001600160a01b038381166001600160a01b0319831681179093556040519116919082907f8be0079c531659141344cd1fd0a4f28419497f9722a3daafe3b4186f6b6457e090600090a35050565b634e487b7160e01b600052604160045260246000fd5b600181811c908216806200019657607f821691505b602082108103620001b757634e487b7160e01b600052602260045260246000fd5b50919050565b601f8211156200020b57600081815260208120601f850160051c81016020861015620001e65750805b601f850160051c820191505b818110156200020757828155600101620001f2565b5050505b505050565b81516001600160401b038111156200022c576200022c6200016b565b62000244816200023d845462000181565b84620001bd565b602080601f8311600181146200027c5760008415620002635750858301515b600019600386901b1c1916600185901b17855562000207565b600085815260208120601f198616915b82811015620002ad578886015182559484019460019091019084016200028c565b5085821015620002cc5787850151600019600388901b60f8161c191681555b5050505050600190811b01905550565b61305b80620002ec6000396000f3fe608060405234801561001057600080fd5b50600436106101e55760003560e01c8063715018a61161010f578063999f066e116100a2578063b88d4fde11610071578063b88d4fde1461047a578063c87b56dd1461048d578063e985e9c5146104a0578063f2fde38b146104dc57600080fd5b8063999f066e1461042e5780639d73f62e146104415780639d95f1cc14610454578063a22cb4651461046757600080fd5b806381fb5d4b116100de57806381fb5d4b146103b75780638da5cb5b146103da57806395d89b41146103eb57806397d32b52146103f357600080fd5b8063715018a61461038357806373e3dc301461038b5780637d9e10f51461039357806380f76021146103a657600080fd5b806323b872dd11610187578063597b434011610156578063597b4340146103295780635e9d7a861461034a5780636352211e1461035d57806370a082311461037057600080fd5b806323b872dd146102b9578063313a9940146102cc57806342842e0e146103035780634b4b98bd1461031657600080fd5b8063081812fc116101c3578063081812fc1461023a578063095ea7b314610265578063146a29111461027a578063150b7a021461028d57600080fd5b806301750152146101ea57806301ffc9a71461021257806306fdde0314610225575b600080fd5b6101fd6101f83660046125af565b6104ef565b60405190151581526020015b60405180910390f35b6101fd6102203660046125e2565b610599565b61022d6105e9565b604051610209919061264f565b61024d610248366004612662565b61067b565b6040516001600160a01b039091168152602001610209565b61027861027336600461267b565b6106a2565b005b6101fd6102883660046126a7565b6107ce565b6102a061029b3660046127b7565b61083a565b6040516001600160e01b03199091168152602001610209565b6102786102c7366004612823565b61084b565b6102df6102da36600461287c565b610883565b60408051825181526020928301516001600160a01b03169281019290925201610209565b610278610311366004612823565b610b70565b6102786103243660046128d5565b610b8b565b61033c610337366004612a58565b610cfb565b604051908152602001610209565b610278610358366004612ace565b610d9d565b61024d61036b366004612662565b610ee7565b61033c61037e3660046125af565b610f47565b610278610fcd565b61033c610fe1565b6101fd6103a13660046126a7565b610ff1565b6008546001600160a01b031661024d565b6101fd6103c53660046125af565b60096020526000908152604090205460ff1681565b6007546001600160a01b031661024d565b61022d61105e565b6104216104013660046126a7565b600b60209081526000928352604080842090915290825290205460ff1681565b6040516102099190612b2b565b61027861043c366004612b53565b61106d565b61027861044f366004612b91565b611120565b6102786104623660046125af565b61122b565b610278610475366004612bdc565b611257565b6102786104883660046127b7565b6112d8565b61022d61049b366004612662565b611317565b6101fd6104ae366004612c0a565b6001600160a01b03918216600090815260066020908152604080832093909416825291909152205460ff1690565b6102786104ea3660046125af565b61138b565b6008546000906001600160a01b031661052157506001600160a01b031660009081526009602052604090205460ff1690565b60085460405162ba80a960e11b81526001600160a01b03848116600483015290911690630175015290602401602060405180830381865afa15801561056a573d6000803e3d6000fd5b505050506040513d601f19601f8201168201806040525081019061058e9190612c38565b92915050565b919050565b60006001600160e01b031982166380ac58cd60e01b14806105ca57506001600160e01b03198216635b5e139f60e01b145b8061058e57506301ffc9a760e01b6001600160e01b031983161461058e565b6060600180546105f890612c55565b80601f016020809104026020016040519081016040528092919081815260200182805461062490612c55565b80156106715780601f1061064657610100808354040283529160200191610671565b820191906000526020600020905b81548152906001019060200180831161065457829003601f168201915b5050505050905090565b600061068682611404565b506000908152600560205260409020546001600160a01b031690565b60006106ad82610ee7565b9050806001600160a01b0316836001600160a01b03160361071f5760405162461bcd60e51b815260206004820152602160248201527f4552433732313a20617070726f76616c20746f2063757272656e74206f776e656044820152603960f91b60648201526084015b60405180910390fd5b806001600160a01b0316610731611463565b6001600160a01b0316148061074d575061074d816104ae611463565b6107bf5760405162461bcd60e51b815260206004820152603d60248201527f4552433732313a20617070726f76652063616c6c6572206973206e6f7420746f60448201527f6b656e206f776e6572206f7220617070726f76656420666f7220616c6c0000006064820152608401610716565b6107c9838361148a565b505050565b6000816001600160a01b03166107e384610ee7565b6001600160a01b0316036107f95750600161058e565b60026000848152600b602090815260408083206001600160a01b038716845290915290205460ff16600281111561083257610832612b15565b149392505050565b630a85bd0160e11b5b949350505050565b61085c610856611463565b826114f8565b6108785760405162461bcd60e51b815260040161071690612c89565b6107c9838383611576565b604080518082019091526000808252602082015260208201356108a68380612cd6565b6040516108b4929190612d1d565b60405180910390201461091e5760405162461bcd60e51b815260206004820152602c60248201527f546865206d657373616765206861736820646f65736e2774206d61746368207460448201526b6865206f726967696e616c2160a01b6064820152608401610716565b60007f649264926492649264926492649264926492649264926492649264926492649261094e6040850185612cd6565b602061095d6040880188612cd6565b610968929150612d43565b906109766040880188612cd6565b610984949093929150612d56565b61098d91612d80565b1490506000806109a360808601606087016125af565b6001600160a01b03163b11905081806109b95750805b15610a31576109ec6109d160808601606087016125af565b60208601356109e36040880188612cd6565b600160006116da565b610a2c5760405162461bcd60e51b8152602060048201526011602482015270496e76616c6964207369676e617475726560781b6044820152606401610716565b610b43565b6000610a8e85602001356040517f19457468657265756d205369676e6564204d6573736167653a0a3332000000006020820152603c8101829052600090605c01604051602081830303815290604052805190602001209050919050565b90506000610add82610aa36040890189612cd6565b8080601f016020809104026020016040519081016040528093929190818152602001838380828437600092019190915250611b7592505050565b9050610aef60808701606088016125af565b6001600160a01b0316816001600160a01b031614610b405760405162461bcd60e51b815260206004820152600e60248201526d24b73b30b634b21039b4b3b732b960911b6044820152606401610716565b50505b6000610b4f8580612cd6565b810190610b5c9190612d9e565b9050610b6781611b99565b50949350505050565b6107c9838383604051806020016040528060008152506112d8565b610b966101f8611463565b610be25760405162461bcd60e51b815260206004820152601e60248201527f4e4f444548414e444c45523a205045524d495353494f4e5f44454e49454400006044820152606401610716565b6000610bed83610883565b60208101519091506001600160a01b0316331480610c16575060208101516001600160a01b0316155b610c625760405162461bcd60e51b815260206004820152601e60248201527f4e4f444548414e444c45523a205045524d495353494f4e5f44454e49454400006044820152606401610716565b610c6b336104ef565b80610c965750610c8160808401606085016125af565b6001600160a01b0316336001600160a01b0316145b610ce25760405162461bcd60e51b815260206004820152601e60248201527f4e4f444548414e444c45523a205045524d495353494f4e5f44454e49454400006044820152606401610716565b6107c9610cf560808501606086016125af565b83611bec565b6000610d0b600a80546001019055565b6000610d16600a5490565b9050610d228582611d3b565b6040516001600160a01b0386169082907f09402109c124efaffd270754df72c04a2bfc8c72ec2fe8bfddeffcd28b665e3890600090a3807f7a0342f6d685ee1a96605ec3537438a2391948658cc0c348852650524ac2c3a585604051610d88919061264f565b60405180910390a28251156108435761084381845b610da982610288611463565b610dc55760405162461bcd60e51b815260040161071690612dd6565b60005b81518110156107c957818181518110610de357610de3612e40565b602002602001015160200151600b60008581526020019081526020016000206000848481518110610e1657610e16612e40565b602090810291909101810151516001600160a01b03168252810191909152604001600020805460ff19166001836002811115610e5457610e54612b15565b0217905550818181518110610e6b57610e6b612e40565b6020026020010151600001516001600160a01b0316837f0faa556cadb9cafbbf015fb98b93c217a4522fc3f20548c224967adf978ffb81848481518110610eb457610eb4612e40565b602002602001015160200151604051610ecd9190612b2b565b60405180910390a380610edf81612e56565b915050610dc8565b6000818152600360205260408120546001600160a01b03168061058e5760405162461bcd60e51b8152602060048201526018602482015277115490cdcc8c4e881a5b9d985b1a59081d1bdad95b88125160421b6044820152606401610716565b60006001600160a01b038216610fb15760405162461bcd60e51b815260206004820152602960248201527f4552433732313a2061646472657373207a65726f206973206e6f7420612076616044820152683634b21037bbb732b960b91b6064820152608401610716565b506001600160a01b031660009081526004602052604090205490565b610fd5611d55565b610fdf6000611dce565b565b6000610fec600a5490565b905090565b6000816001600160a01b031661100684610ee7565b6001600160a01b03160361101c5750600161058e565b60016000848152600b602090815260408083206001600160a01b038716845290915290205460ff16600281111561105557611055612b15565b10159392505050565b6060600280546105f890612c55565b61107983610288611463565b6110955760405162461bcd60e51b815260040161071690612dd6565b6000838152600b602090815260408083206001600160a01b03861684529091529020805482919060ff191660018360028111156110d4576110d4612b15565b0217905550816001600160a01b0316837f0faa556cadb9cafbbf015fb98b93c217a4522fc3f20548c224967adf978ffb81836040516111139190612b2b565b60405180910390a3505050565b60008151116111715760405162461bcd60e51b815260206004820152601f60248201527f4f5247414e49534154494f4e3a204e616d652069732072657175697265642e006044820152606401610716565b61117d82610288611463565b6111ef5760405162461bcd60e51b815260206004820152603e60248201527f4f5247414e49534154494f4e3a204f6e6c7920616e2061646d696e206f66207460448201527f6865206f7267616e69736174696f6e2063616e2072656e616d652069742e00006064820152608401610716565b817f7a0342f6d685ee1a96605ec3537438a2391948658cc0c348852650524ac2c3a58260405161121f919061264f565b60405180910390a25050565b611233611d55565b6001600160a01b03166000908152600960205260409020805460ff19166001179055565b6001600160a01b0382166112c25760405162461bcd60e51b815260206004820152602c60248201527f4552433732313a2061646472657373207a65726f206973206e6f74206120766160448201526b3634b21037b832b930ba37b960a11b6064820152608401610716565b6112d46112cd611463565b8383611e20565b5050565b6112e96112e3611463565b836114f8565b6113055760405162461bcd60e51b815260040161071690612c89565b61131184848484611ee6565b50505050565b606061132282611404565b600061133960408051602081019091526000815290565b905060008151116113595760405180602001604052806000815250611384565b8061136384611f19565b604051602001611374929190612e6f565b6040516020818303038152906040525b9392505050565b611393611d55565b6001600160a01b0381166113f85760405162461bcd60e51b815260206004820152602660248201527f4f776e61626c653a206e6577206f776e657220697320746865207a65726f206160448201526564647265737360d01b6064820152608401610716565b61140181611dce565b50565b6000818152600360205260409020546001600160a01b03166114015760405162461bcd60e51b8152602060048201526018602482015277115490cdcc8c4e881a5b9d985b1a59081d1bdad95b88125160421b6044820152606401610716565b600080546001600160a01b03161561148557506000546001600160a01b031690565b503390565b600081815260056020526040902080546001600160a01b0319166001600160a01b03841690811790915581906114bf82610ee7565b6001600160a01b03167f8c5be1e5ebec7d5bd14f71427d1e84f3dd0314c0f7b2291e5b200ac8c7c3b92560405160405180910390a45050565b60008061150483610ee7565b9050806001600160a01b0316846001600160a01b0316148061154b57506001600160a01b0380821660009081526006602090815260408083209388168352929052205460ff165b806108435750836001600160a01b03166115648461067b565b6001600160a01b031614949350505050565b826001600160a01b031661158982610ee7565b6001600160a01b0316146115af5760405162461bcd60e51b815260040161071690612e9e565b6001600160a01b0382166116115760405162461bcd60e51b8152602060048201526024808201527f4552433732313a207472616e7366657220746f20746865207a65726f206164646044820152637265737360e01b6064820152608401610716565b826001600160a01b031661162482610ee7565b6001600160a01b03161461164a5760405162461bcd60e51b815260040161071690612e9e565b600081815260056020908152604080832080546001600160a01b03199081169091556001600160a01b0387811680865260048552838620805460001901905590871680865283862080546001019055868652600390945282852080549092168417909155905184937fddf252ad1be2c89b69c2b068fc378daa952ba7f163c4a11628f55a4df523b3ef91a4505050565b60006001600160a01b0387163b6060827f64926492649264926492649264926492649264926492649264926492649264928888611718602082612d43565b611724928b9290612d56565b61172d91612d80565b1490508015611804576000606089828a611748602082612d43565b9261175593929190612d56565b8101906117629190612ee3565b955090925090508415806117735750865b156117fd57600080836001600160a01b0316836040516117939190612f4f565b6000604051808303816000865af19150503d80600081146117d0576040519150601f19603f3d011682016040523d82523d6000602084013e6117d5565b606091505b5091509150816117fa5780604051639d0d6e2d60e01b8152600401610716919061264f565b50505b505061183e565b87878080601f0160208091040260200160405190810160405280939291908181526020018383808284376000920191909152509294505050505b808061184a5750600083115b156119ad57604051630b135d3f60e11b81526001600160a01b038b1690631626ba7e9061187d908c908690600401612f6b565b602060405180830381865afa9250505080156118b6575060408051601f3d908101601f191682019092526118b391810190612f84565b60015b611932573d8080156118e4576040519150601f19603f3d011682016040523d82523d6000602084013e6118e9565b606091505b50851580156118f85750600084115b156119175761190c8b8b8b8b8b60016116da565b945050505050611b6b565b80604051636f2a959960e01b8152600401610716919061264f565b6001600160e01b03198116630b135d3f60e11b14801581611951575086155b801561195d5750600085115b1561197d576119718c8c8c8c8c60016116da565b95505050505050611b6b565b841580156119885750825b8015611992575087155b156119a157806000526001601ffd5b9450611b6b9350505050565b60418714611a235760405162461bcd60e51b815260206004820152603a60248201527f5369676e617475726556616c696461746f72237265636f7665725369676e657260448201527f3a20696e76616c6964207369676e6174757265206c656e6774680000000000006064820152608401610716565b6000611a326020828a8c612d56565b611a3b91612d80565b90506000611a4d604060208b8d612d56565b611a5691612d80565b905060008a8a6040818110611a6d57611a6d612e40565b919091013560f81c915050601b8114801590611a8d57508060ff16601c14155b15611af05760405162461bcd60e51b815260206004820152602d60248201527f5369676e617475726556616c696461746f723a20696e76616c6964207369676e60448201526c617475726520762076616c756560981b6064820152608401610716565b6040805160008152602081018083528e905260ff83169181019190915260608101849052608081018390526001600160a01b038e169060019060a0016020604051602081039080840390855afa158015611b4e573d6000803e3d6000fd5b505050602060405103516001600160a01b03161496505050505050505b9695505050505050565b6000806000611b848585611fac565b91509150611b9181611ff1565b509392505050565b60004382600001511015611be45760405162461bcd60e51b815260206004820152601260248201527113595cdcd859d9481a5cc8195e1c1a5c995960721b6044820152606401610716565b506001919050565b816001600160a01b038116611c4f5760405162461bcd60e51b815260206004820152602360248201527f436f6e746578743a206e6577436f6e74657874206973207a65726f206164647260448201526265737360e81b6064820152608401610716565b600080546001600160a01b0319166001600160a01b03831617905560005b8251811015611d2557600080306001600160a01b0316858481518110611c9557611c95612e40565b6020026020010151604051611caa9190612f4f565b600060405180830381855af49150503d8060008114611ce5576040519150601f19603f3d011682016040523d82523d6000602084013e611cea565b606091505b5091509150818190611d0f5760405162461bcd60e51b8152600401610716919061264f565b5050508080611d1d90612e56565b915050611c6d565b50600080546001600160a01b0319169055505050565b6112d482826040518060200160405280600081525061213b565b611d5d611463565b6001600160a01b0316611d786007546001600160a01b031690565b6001600160a01b031614610fdf5760405162461bcd60e51b815260206004820181905260248201527f4f776e61626c653a2063616c6c6572206973206e6f7420746865206f776e65726044820152606401610716565b600780546001600160a01b038381166001600160a01b0319831681179093556040519116919082907f8be0079c531659141344cd1fd0a4f28419497f9722a3daafe3b4186f6b6457e090600090a35050565b816001600160a01b0316836001600160a01b031603611e815760405162461bcd60e51b815260206004820152601960248201527f4552433732313a20617070726f766520746f2063616c6c6572000000000000006044820152606401610716565b6001600160a01b03838116600081815260066020908152604080832094871680845294825291829020805460ff191686151590811790915591519182527f17307eab39ab6107e8899845ad3d59bd9653f200f220920489ca2b5937696c319101611113565b611ef1848484611576565b611efd8484848461216e565b6113115760405162461bcd60e51b815260040161071690612fa1565b60606000611f2683612273565b600101905060008167ffffffffffffffff811115611f4657611f466126d7565b6040519080825280601f01601f191660200182016040528015611f70576020820181803683370190505b5090508181016020015b600019016f181899199a1a9b1b9c1cb0b131b232b360811b600a86061a8153600a8504945084611f7a57509392505050565b6000808251604103611fe25760208301516040840151606085015160001a611fd68782858561234b565b94509450505050611fea565b506000905060025b9250929050565b600081600481111561200557612005612b15565b0361200d5750565b600181600481111561202157612021612b15565b0361206e5760405162461bcd60e51b815260206004820152601860248201527f45434453413a20696e76616c6964207369676e617475726500000000000000006044820152606401610716565b600281600481111561208257612082612b15565b036120cf5760405162461bcd60e51b815260206004820152601f60248201527f45434453413a20696e76616c6964207369676e6174757265206c656e677468006044820152606401610716565b60038160048111156120e3576120e3612b15565b036114015760405162461bcd60e51b815260206004820152602260248201527f45434453413a20696e76616c6964207369676e6174757265202773272076616c604482015261756560f01b6064820152608401610716565b612145838361240f565b612152600084848461216e565b6107c95760405162461bcd60e51b815260040161071690612fa1565b60006001600160a01b0384163b1561226b57836001600160a01b031663150b7a02612197611463565b8786866040518563ffffffff1660e01b81526004016121b99493929190612ff3565b6020604051808303816000875af19250505080156121f4575060408051601f3d908101601f191682019092526121f191810190612f84565b60015b612251573d808015612222576040519150601f19603f3d011682016040523d82523d6000602084013e612227565b606091505b5080516000036122495760405162461bcd60e51b815260040161071690612fa1565b805181602001fd5b6001600160e01b031916630a85bd0160e11b149050610843565b506001610843565b60008072184f03e93ff9f4daa797ed6e38ed64bf6a1f0160401b83106122b25772184f03e93ff9f4daa797ed6e38ed64bf6a1f0160401b830492506040015b6d04ee2d6d415b85acef810000000083106122de576d04ee2d6d415b85acef8100000000830492506020015b662386f26fc1000083106122fc57662386f26fc10000830492506010015b6305f5e1008310612314576305f5e100830492506008015b612710831061232857612710830492506004015b6064831061233a576064830492506002015b600a831061058e5760010192915050565b6000807f7fffffffffffffffffffffffffffffff5d576e7357a4501ddfe92f46681b20a08311156123825750600090506003612406565b6040805160008082526020820180845289905260ff881692820192909252606081018690526080810185905260019060a0016020604051602081039080840390855afa1580156123d6573d6000803e3d6000fd5b5050604051601f1901519150506001600160a01b0381166123ff57600060019250925050612406565b9150600090505b94509492505050565b6001600160a01b0382166124655760405162461bcd60e51b815260206004820181905260248201527f4552433732313a206d696e7420746f20746865207a65726f20616464726573736044820152606401610716565b6000818152600360205260409020546001600160a01b0316156124ca5760405162461bcd60e51b815260206004820152601c60248201527f4552433732313a20746f6b656e20616c7265616479206d696e746564000000006044820152606401610716565b6000818152600360205260409020546001600160a01b03161561252f5760405162461bcd60e51b815260206004820152601c60248201527f4552433732313a20746f6b656e20616c7265616479206d696e746564000000006044820152606401610716565b6001600160a01b038216600081815260046020908152604080832080546001019055848352600390915280822080546001600160a01b0319168417905551839291907fddf252ad1be2c89b69c2b068fc378daa952ba7f163c4a11628f55a4df523b3ef908290a45050565b6001600160a01b038116811461140157600080fd5b6000602082840312156125c157600080fd5b81356113848161259a565b6001600160e01b03198116811461140157600080fd5b6000602082840312156125f457600080fd5b8135611384816125cc565b60005b8381101561261a578181015183820152602001612602565b50506000910152565b6000815180845261263b8160208601602086016125ff565b601f01601f19169290920160200192915050565b6020815260006113846020830184612623565b60006020828403121561267457600080fd5b5035919050565b6000806040838503121561268e57600080fd5b82356126998161259a565b946020939093013593505050565b600080604083850312156126ba57600080fd5b8235915060208301356126cc8161259a565b809150509250929050565b634e487b7160e01b600052604160045260246000fd5b6040805190810167ffffffffffffffff81118282101715612710576127106126d7565b60405290565b604051601f8201601f1916810167ffffffffffffffff8111828210171561273f5761273f6126d7565b604052919050565b600082601f83011261275857600080fd5b813567ffffffffffffffff811115612772576127726126d7565b612785601f8201601f1916602001612716565b81815284602083860101111561279a57600080fd5b816020850160208301376000918101602001919091529392505050565b600080600080608085870312156127cd57600080fd5b84356127d88161259a565b935060208501356127e88161259a565b925060408501359150606085013567ffffffffffffffff81111561280b57600080fd5b61281787828801612747565b91505092959194509250565b60008060006060848603121561283857600080fd5b83356128438161259a565b925060208401356128538161259a565b929592945050506040919091013590565b60006080828403121561287657600080fd5b50919050565b60006020828403121561288e57600080fd5b813567ffffffffffffffff8111156128a557600080fd5b61084384828501612864565b600067ffffffffffffffff8211156128cb576128cb6126d7565b5060051b60200190565b600080604083850312156128e857600080fd5b823567ffffffffffffffff8082111561290057600080fd5b61290c86838701612864565b935060209150818501358181111561292357600080fd5b8501601f8101871361293457600080fd5b8035612947612942826128b1565b612716565b81815260059190911b8201840190848101908983111561296657600080fd5b8584015b8381101561299e578035868111156129825760008081fd5b6129908c8983890101612747565b84525091860191860161296a565b508096505050505050509250929050565b80356003811061059457600080fd5b600082601f8301126129cf57600080fd5b813560206129df612942836128b1565b82815260069290921b840181019181810190868411156129fe57600080fd5b8286015b84811015612a4d5760408189031215612a1b5760008081fd5b612a236126ed565b8135612a2e8161259a565b8152612a3b8286016129af565b81860152835291830191604001612a02565b509695505050505050565b600080600060608486031215612a6d57600080fd5b8335612a788161259a565b9250602084013567ffffffffffffffff80821115612a9557600080fd5b612aa187838801612747565b93506040860135915080821115612ab757600080fd5b50612ac4868287016129be565b9150509250925092565b60008060408385031215612ae157600080fd5b82359150602083013567ffffffffffffffff811115612aff57600080fd5b612b0b858286016129be565b9150509250929050565b634e487b7160e01b600052602160045260246000fd5b6020810160038310612b4d57634e487b7160e01b600052602160045260246000fd5b91905290565b600080600060608486031215612b6857600080fd5b833592506020840135612b7a8161259a565b9150612b88604085016129af565b90509250925092565b60008060408385031215612ba457600080fd5b82359150602083013567ffffffffffffffff811115612bc257600080fd5b612b0b85828601612747565b801515811461140157600080fd5b60008060408385031215612bef57600080fd5b8235612bfa8161259a565b915060208301356126cc81612bce565b60008060408385031215612c1d57600080fd5b8235612c288161259a565b915060208301356126cc8161259a565b600060208284031215612c4a57600080fd5b815161138481612bce565b600181811c90821680612c6957607f821691505b60208210810361287657634e487b7160e01b600052602260045260246000fd5b6020808252602d908201527f4552433732313a2063616c6c6572206973206e6f7420746f6b656e206f776e6560408201526c1c881bdc88185c1c1c9bdd9959609a1b606082015260800190565b6000808335601e19843603018112612ced57600080fd5b83018035915067ffffffffffffffff821115612d0857600080fd5b602001915036819003821315611fea57600080fd5b8183823760009101908152919050565b634e487b7160e01b600052601160045260246000fd5b8181038181111561058e5761058e612d2d565b60008085851115612d6657600080fd5b83861115612d7357600080fd5b5050820193919092039150565b8035602083101561058e57600019602084900360031b1b1692915050565b600060408284031215612db057600080fd5b612db86126ed565b823581526020830135612dca8161259a565b60208201529392505050565b60208082526044908201527f4f5247414e49534154494f4e3a204f6e6c7920616e2061646d696e206f66207460408201527f6865206f7267616e69736174696f6e2063616e20736574207065726d6973736960608201526337b7399760e11b608082015260a00190565b634e487b7160e01b600052603260045260246000fd5b600060018201612e6857612e68612d2d565b5060010190565b60008351612e818184602088016125ff565b835190830190612e958183602088016125ff565b01949350505050565b60208082526025908201527f4552433732313a207472616e736665722066726f6d20696e636f72726563742060408201526437bbb732b960d91b606082015260800190565b600080600060608486031215612ef857600080fd5b8335612f038161259a565b9250602084013567ffffffffffffffff80821115612f2057600080fd5b612f2c87838801612747565b93506040860135915080821115612f4257600080fd5b50612ac486828701612747565b60008251612f618184602087016125ff565b9190910192915050565b8281526040602082015260006108436040830184612623565b600060208284031215612f9657600080fd5b8151611384816125cc565b60208082526032908201527f4552433732313a207472616e7366657220746f206e6f6e20455243373231526560408201527131b2b4bb32b91034b6b83632b6b2b73a32b960711b606082015260800190565b60006001600160a01b03808716835280861660208401525083604083015260806060830152611b6b608083018461262356fea2646970667358221220cb89661bb526b24c76533adb9eee0e2a935654027e9c4e670ad5e100eade034464736f6c63430008130033",
  "linkReferences": {},
  "deployedLinkReferences": {}
}