{
  "_format": "hh-sol-artifact-1",
  "contractName": "Teams",
  "sourceName": "contracts/CTeams.sol",
  "abi": [
    {
      "inputs": [
        {
          "internalType": "address",
          "name": "organisationsContract",
          "type": "address"
        }
      ],
      "stateMutability": "nonpayable",
      "type": "constructor"
    },
    {
      "inputs": [
        {
          "internalType": "bytes",
          "name": "error",
          "type": "bytes"
        }
      ],
      "name": "ERC1271Revert",
      "type": "error"
    },
    {
      "inputs": [
        {
          "internalType": "bytes",
          "name": "error",
          "type": "bytes"
        }
      ],
      "name": "ERC6492DeployFailed",
      "type": "error"
    },
    {
      "anonymous": false,
      "inputs": [
        {
          "indexed": true,
          "internalType": "address",
          "name": "owner",
          "type": "address"
        },
        {
          "indexed": true,
          "internalType": "address",
          "name": "approved",
          "type": "address"
        },
        {
          "indexed": true,
          "internalType": "uint256",
          "name": "tokenId",
          "type": "uint256"
        }
      ],
      "name": "Approval",
      "type": "event"
    },
    {
      "anonymous": false,
      "inputs": [
        {
          "indexed": true,
          "internalType": "address",
          "name": "owner",
          "type": "address"
        },
        {
          "indexed": true,
          "internalType": "address",
          "name": "operator",
          "type": "address"
        },
        {
          "indexed": false,
          "internalType": "bool",
          "name": "approved",
          "type": "bool"
        }
      ],
      "name": "ApprovalForAll",
      "type": "event"
    },
    {
      "anonymous": false,
      "inputs": [
        {
          "indexed": true,
          "internalType": "address",
          "name": "previousOwner",
          "type": "address"
        },
        {
          "indexed": true,
          "internalType": "address",
          "name": "newOwner",
          "type": "address"
        }
      ],
      "name": "OwnershipTransferred",
      "type": "event"
    },
    {
      "anonymous": false,
      "inputs": [
        {
          "indexed": true,
          "internalType": "uint256",
          "name": "teamId",
          "type": "uint256"
        },
        {
          "indexed": true,
          "internalType": "address",
          "name": "account",
          "type": "address"
        },
        {
          "indexed": false,
          "internalType": "enum ITeams.EPermissions",
          "name": "newPermission",
          "type": "uint8"
        }
      ],
      "name": "PermissionsUpdated",
      "type": "event"
    },
    {
      "anonymous": false,
      "inputs": [
        {
          "indexed": true,
          "internalType": "uint256",
          "name": "teamId",
          "type": "uint256"
        },
        {
          "indexed": true,
          "internalType": "address",
          "name": "to",
          "type": "address"
        }
      ],
      "name": "TeamCreated",
      "type": "event"
    },
    {
      "anonymous": false,
      "inputs": [
        {
          "indexed": true,
          "internalType": "uint256",
          "name": "teamId",
          "type": "uint256"
        },
        {
          "indexed": false,
          "internalType": "string",
          "name": "newName",
          "type": "string"
        }
      ],
      "name": "TeamRenamed",
      "type": "event"
    },
    {
      "anonymous": false,
      "inputs": [
        {
          "indexed": true,
          "internalType": "address",
          "name": "from",
          "type": "address"
        },
        {
          "indexed": true,
          "internalType": "address",
          "name": "to",
          "type": "address"
        },
        {
          "indexed": true,
          "internalType": "uint256",
          "name": "tokenId",
          "type": "uint256"
        }
      ],
      "name": "Transfer",
      "type": "event"
    },
    {
      "anonymous": false,
      "inputs": [
        {
          "indexed": true,
          "internalType": "uint256",
          "name": "teamId",
          "type": "uint256"
        },
        {
          "indexed": true,
          "internalType": "uint256",
          "name": "orgId",
          "type": "uint256"
        }
      ],
      "name": "TransferToOrganisation",
      "type": "event"
    },
    {
      "inputs": [
        {
          "internalType": "address",
          "name": "node",
          "type": "address"
        }
      ],
      "name": "_nodes",
      "outputs": [
        {
          "internalType": "bool",
          "name": "isNode",
          "type": "bool"
        }
      ],
      "stateMutability": "view",
      "type": "function"
    },
    {
      "inputs": [
        {
          "internalType": "address",
          "name": "node",
          "type": "address"
        }
      ],
      "name": "addNode",
      "outputs": [],
      "stateMutability": "nonpayable",
      "type": "function"
    },
    {
      "inputs": [
        {
          "internalType": "address",
          "name": "to",
          "type": "address"
        },
        {
          "internalType": "uint256",
          "name": "tokenId",
          "type": "uint256"
        }
      ],
      "name": "approve",
      "outputs": [],
      "stateMutability": "nonpayable",
      "type": "function"
    },
    {
      "inputs": [
        {
          "internalType": "address",
          "name": "owner",
          "type": "address"
        }
      ],
      "name": "balanceOf",
      "outputs": [
        {
          "internalType": "uint256",
          "name": "",
          "type": "uint256"
        }
      ],
      "stateMutability": "view",
      "type": "function"
    },
    {
      "inputs": [
        {
          "components": [
            {
              "internalType": "bytes",
              "name": "encodedMessage",
              "type": "bytes"
            },
            {
              "internalType": "bytes32",
              "name": "messageHash",
              "type": "bytes32"
            },
            {
              "internalType": "bytes",
              "name": "signature",
              "type": "bytes"
            },
            {
              "internalType": "address",
              "name": "signer",
              "type": "address"
            }
          ],
          "internalType": "struct SignatureVerifier.Signature",
          "name": "_signature",
          "type": "tuple"
        }
      ],
      "name": "checkSignature",
      "outputs": [
        {
          "components": [
            {
              "internalType": "uint256",
              "name": "blockNumber",
              "type": "uint256"
            },
            {
              "internalType": "address",
              "name": "nodeAddress",
              "type": "address"
            }
          ],
          "internalType": "struct SignatureVerifier.EncodedMessage",
          "name": "",
          "type": "tuple"
        }
      ],
      "stateMutability": "nonpayable",
      "type": "function"
    },
    {
      "inputs": [
        {
          "internalType": "address",
          "name": "to",
          "type": "address"
        },
        {
          "internalType": "string",
          "name": "teamName",
          "type": "string"
        },
        {
          "components": [
            {
              "internalType": "address",
              "name": "user",
              "type": "address"
            },
            {
              "internalType": "enum ITeams.EPermissions",
              "name": "permission",
              "type": "uint8"
            }
          ],
          "internalType": "struct ITeams.userPermissions[]",
          "name": "users",
          "type": "tuple[]"
        }
      ],
      "name": "createTeam",
      "outputs": [
        {
          "internalType": "uint256",
          "name": "newTeamId",
          "type": "uint256"
        }
      ],
      "stateMutability": "nonpayable",
      "type": "function"
    },
    {
      "inputs": [
        {
          "internalType": "uint256",
          "name": "orgId",
          "type": "uint256"
        },
        {
          "internalType": "string",
          "name": "teamName",
          "type": "string"
        },
        {
          "components": [
            {
              "internalType": "address",
              "name": "user",
              "type": "address"
            },
            {
              "internalType": "enum ITeams.EPermissions",
              "name": "permission",
              "type": "uint8"
            }
          ],
          "internalType": "struct ITeams.userPermissions[]",
          "name": "users",
          "type": "tuple[]"
        }
      ],
      "name": "createTeamForOrganisation",
      "outputs": [
        {
          "internalType": "uint256",
          "name": "newTeamId",
          "type": "uint256"
        }
      ],
      "stateMutability": "nonpayable",
      "type": "function"
    },
    {
      "inputs": [
        {
          "components": [
            {
              "internalType": "bytes",
              "name": "encodedMessage",
              "type": "bytes"
            },
            {
              "internalType": "bytes32",
              "name": "messageHash",
              "type": "bytes32"
            },
            {
              "internalType": "bytes",
              "name": "signature",
              "type": "bytes"
            },
            {
              "internalType": "address",
              "name": "signer",
              "type": "address"
            }
          ],
          "internalType": "struct SignatureVerifier.Signature",
          "name": "signature",
          "type": "tuple"
        },
        {
          "internalType": "bytes[]",
          "name": "_calldata",
          "type": "bytes[]"
        }
      ],
      "name": "delegateCallsToSelf",
      "outputs": [],
      "stateMutability": "nonpayable",
      "type": "function"
    },
    {
      "inputs": [
        {
          "internalType": "uint256",
          "name": "tokenId",
          "type": "uint256"
        }
      ],
      "name": "getApproved",
      "outputs": [
        {
          "internalType": "address",
          "name": "",
          "type": "address"
        }
      ],
      "stateMutability": "view",
      "type": "function"
    },
    {
      "inputs": [],
      "name": "getNumberOfTeamsCreated",
      "outputs": [
        {
          "internalType": "uint256",
          "name": "totalAmountOfTeams",
          "type": "uint256"
        }
      ],
      "stateMutability": "view",
      "type": "function"
    },
    {
      "inputs": [],
      "name": "getParent",
      "outputs": [
        {
          "internalType": "address",
          "name": "",
          "type": "address"
        }
      ],
      "stateMutability": "view",
      "type": "function"
    },
    {
      "inputs": [
        {
          "internalType": "uint256",
          "name": "teamId",
          "type": "uint256"
        },
        {
          "internalType": "address",
          "name": "user",
          "type": "address"
        },
        {
          "internalType": "enum ITeams.EPermissions",
          "name": "permission",
          "type": "uint8"
        }
      ],
      "name": "hasPermission",
      "outputs": [
        {
          "internalType": "bool",
          "name": "_hasPermission",
          "type": "bool"
        }
      ],
      "stateMutability": "view",
      "type": "function"
    },
    {
      "inputs": [
        {
          "internalType": "address",
          "name": "owner",
          "type": "address"
        },
        {
          "internalType": "address",
          "name": "operator",
          "type": "address"
        }
      ],
      "name": "isApprovedForAll",
      "outputs": [
        {
          "internalType": "bool",
          "name": "",
          "type": "bool"
        }
      ],
      "stateMutability": "view",
      "type": "function"
    },
    {
      "inputs": [
        {
          "internalType": "address",
          "name": "node",
          "type": "address"
        }
      ],
      "name": "isNode",
      "outputs": [
        {
          "internalType": "bool",
          "name": "",
          "type": "bool"
        }
      ],
      "stateMutability": "view",
      "type": "function"
    },
    {
      "inputs": [],
      "name": "name",
      "outputs": [
        {
          "internalType": "string",
          "name": "",
          "type": "string"
        }
      ],
      "stateMutability": "view",
      "type": "function"
    },
    {
      "inputs": [
        {
          "internalType": "address",
          "name": "",
          "type": "address"
        },
        {
          "internalType": "address",
          "name": "",
          "type": "address"
        },
        {
          "internalType": "uint256",
          "name": "",
          "type": "uint256"
        },
        {
          "internalType": "bytes",
          "name": "",
          "type": "bytes"
        }
      ],
      "name": "onERC721Received",
      "outputs": [
        {
          "internalType": "bytes4",
          "name": "",
          "type": "bytes4"
        }
      ],
      "stateMutability": "nonpayable",
      "type": "function"
    },
    {
      "inputs": [
        {
          "internalType": "uint256",
          "name": "team",
          "type": "uint256"
        }
      ],
      "name": "organisationOf",
      "outputs": [
        {
          "internalType": "uint256",
          "name": "organisation",
          "type": "uint256"
        }
      ],
      "stateMutability": "view",
      "type": "function"
    },
    {
      "inputs": [],
      "name": "organisations",
      "outputs": [
        {
          "internalType": "address",
          "name": "",
          "type": "address"
        }
      ],
      "stateMutability": "view",
      "type": "function"
    },
    {
      "inputs": [],
      "name": "owner",
      "outputs": [
        {
          "internalType": "address",
          "name": "",
          "type": "address"
        }
      ],
      "stateMutability": "view",
      "type": "function"
    },
    {
      "inputs": [
        {
          "internalType": "uint256",
          "name": "tokenId",
          "type": "uint256"
        }
      ],
      "name": "ownerOf",
      "outputs": [
        {
          "internalType": "address",
          "name": "",
          "type": "address"
        }
      ],
      "stateMutability": "view",
      "type": "function"
    },
    {
      "inputs": [
        {
          "internalType": "uint256",
          "name": "team",
          "type": "uint256"
        },
        {
          "internalType": "address",
          "name": "user",
          "type": "address"
        }
      ],
      "name": "permissionsOfTeam",
      "outputs": [
        {
          "internalType": "enum ITeams.EPermissions",
          "name": "permission",
          "type": "uint8"
        }
      ],
      "stateMutability": "view",
      "type": "function"
    },
    {
      "inputs": [
        {
          "internalType": "uint256",
          "name": "teamId",
          "type": "uint256"
        },
        {
          "internalType": "string",
          "name": "newName",
          "type": "string"
        }
      ],
      "name": "renameTeam",
      "outputs": [],
      "stateMutability": "nonpayable",
      "type": "function"
    },
    {
      "inputs": [],
      "name": "renounceOwnership",
      "outputs": [],
      "stateMutability": "nonpayable",
      "type": "function"
    },
    {
      "inputs": [
        {
          "internalType": "address",
          "name": "from",
          "type": "address"
        },
        {
          "internalType": "address",
          "name": "to",
          "type": "address"
        },
        {
          "internalType": "uint256",
          "name": "tokenId",
          "type": "uint256"
        }
      ],
      "name": "safeTransferFrom",
      "outputs": [],
      "stateMutability": "nonpayable",
      "type": "function"
    },
    {
      "inputs": [
        {
          "internalType": "address",
          "name": "from",
          "type": "address"
        },
        {
          "internalType": "address",
          "name": "to",
          "type": "address"
        },
        {
          "internalType": "uint256",
          "name": "tokenId",
          "type": "uint256"
        },
        {
          "internalType": "bytes",
          "name": "data",
          "type": "bytes"
        }
      ],
      "name": "safeTransferFrom",
      "outputs": [],
      "stateMutability": "nonpayable",
      "type": "function"
    },
    {
      "inputs": [
        {
          "internalType": "address",
          "name": "operator",
          "type": "address"
        },
        {
          "internalType": "bool",
          "name": "approved",
          "type": "bool"
        }
      ],
      "name": "setApprovalForAll",
      "outputs": [],
      "stateMutability": "nonpayable",
      "type": "function"
    },
    {
      "inputs": [
        {
          "internalType": "uint256",
          "name": "teamId",
          "type": "uint256"
        },
        {
          "internalType": "address",
          "name": "user",
          "type": "address"
        },
        {
          "internalType": "enum ITeams.EPermissions",
          "name": "permission",
          "type": "uint8"
        }
      ],
      "name": "setPermission",
      "outputs": [],
      "stateMutability": "nonpayable",
      "type": "function"
    },
    {
      "inputs": [
        {
          "internalType": "uint256",
          "name": "teamId",
          "type": "uint256"
        },
        {
          "components": [
            {
              "internalType": "address",
              "name": "user",
              "type": "address"
            },
            {
              "internalType": "enum ITeams.EPermissions",
              "name": "permission",
              "type": "uint8"
            }
          ],
          "internalType": "struct ITeams.userPermissions[]",
          "name": "users",
          "type": "tuple[]"
        }
      ],
      "name": "setPermissionBulk",
      "outputs": [],
      "stateMutability": "nonpayable",
      "type": "function"
    },
    {
      "inputs": [
        {
          "internalType": "bytes4",
          "name": "interfaceId",
          "type": "bytes4"
        }
      ],
      "name": "supportsInterface",
      "outputs": [
        {
          "internalType": "bool",
          "name": "",
          "type": "bool"
        }
      ],
      "stateMutability": "view",
      "type": "function"
    },
    {
      "inputs": [],
      "name": "symbol",
      "outputs": [
        {
          "internalType": "string",
          "name": "",
          "type": "string"
        }
      ],
      "stateMutability": "view",
      "type": "function"
    },
    {
      "inputs": [
        {
          "internalType": "uint256",
          "name": "tokenId",
          "type": "uint256"
        }
      ],
      "name": "tokenURI",
      "outputs": [
        {
          "internalType": "string",
          "name": "",
          "type": "string"
        }
      ],
      "stateMutability": "view",
      "type": "function"
    },
    {
      "inputs": [
        {
          "internalType": "address",
          "name": "from",
          "type": "address"
        },
        {
          "internalType": "address",
          "name": "to",
          "type": "address"
        },
        {
          "internalType": "uint256",
          "name": "tokenId",
          "type": "uint256"
        }
      ],
      "name": "transferFrom",
      "outputs": [],
      "stateMutability": "nonpayable",
      "type": "function"
    },
    {
      "inputs": [
        {
          "internalType": "address",
          "name": "newOwner",
          "type": "address"
        }
      ],
      "name": "transferOwnership",
      "outputs": [],
      "stateMutability": "nonpayable",
      "type": "function"
    },
    {
      "inputs": [
        {
          "internalType": "uint256",
          "name": "teamId",
          "type": "uint256"
        },
        {
          "internalType": "uint256",
          "name": "orgId",
          "type": "uint256"
        }
      ],
      "name": "transferToOrganisation",
      "outputs": [],
      "stateMutability": "nonpayable",
      "type": "function"
    }
  ],
  "bytecode": "0x60806040523480156200001157600080fd5b506040516200385438038062003854833981016040819052620000349162000193565b806040518060400160405280600981526020016845746368205465616d60b81b815250604051806040016040528060068152602001650e85a8aa886960d31b815250620000886000620000f760201b60201c565b60016200009683826200026a565b506002620000a582826200026a565b505050620000c2620000bc6200011960201b60201c565b62000141565b600880546001600160a01b039283166001600160a01b031991821617909155600b805493909216921691909117905562000336565b600080546001600160a01b0319166001600160a01b0392909216919091179055565b600080546001600160a01b0316156200013c57506000546001600160a01b031690565b503390565b600780546001600160a01b038381166001600160a01b0319831681179093556040519116919082907f8be0079c531659141344cd1fd0a4f28419497f9722a3daafe3b4186f6b6457e090600090a35050565b600060208284031215620001a657600080fd5b81516001600160a01b0381168114620001be57600080fd5b9392505050565b634e487b7160e01b600052604160045260246000fd5b600181811c90821680620001f057607f821691505b6020821081036200021157634e487b7160e01b600052602260045260246000fd5b50919050565b601f8211156200026557600081815260208120601f850160051c81016020861015620002405750805b601f850160051c820191505b8181101562000261578281556001016200024c565b5050505b505050565b81516001600160401b03811115620002865762000286620001c5565b6200029e81620002978454620001db565b8462000217565b602080601f831160018114620002d65760008415620002bd5750858301515b600019600386901b1c1916600185901b17855562000261565b600085815260208120601f198616915b828110156200030757888601518255948401946001909101908401620002e6565b5085821015620003265787850151600019600388901b60f8161c191681555b5050505050600190811b01905550565b61350e80620003466000396000f3fe608060405234801561001057600080fd5b50600436106102065760003560e01c806370a082311161011a578063999f066e116100ad578063b88d4fde1161007c578063b88d4fde146104a6578063c87b56dd146104b9578063e5299e5c146104cc578063e985e9c514610507578063f2fde38b1461054357600080fd5b8063999f066e1461045a5780639d95f1cc1461046d578063a22cb46514610480578063abf0e71f1461049357600080fd5b806381fb5d4b116100e957806381fb5d4b1461040b578063823abfd91461042e5780638da5cb5b1461044157806395d89b411461045257600080fd5b806370a08231146103bf578063715018a6146103d257806378c7c8b4146103da57806380f76021146103fa57600080fd5b80631c89ae911161019d57806342842e0e1161016c57806342842e0e1461036b5780634b4b98bd1461037e5780634bb25cca146103915780635e9d7a86146103995780636352211e146103ac57600080fd5b80631c89ae91146102fb57806323b872dd1461030e578063313a9940146103215780633dd05d311461035857600080fd5b8063095ea7b3116101d9578063095ea7b3146102865780630ce749101461029b57806313327d96146102bc578063150b7a02146102cf57600080fd5b8063017501521461020b57806301ffc9a71461023357806306fdde0314610246578063081812fc1461025b575b600080fd5b61021e6102193660046129ef565b610556565b60405190151581526020015b60405180910390f35b61021e610241366004612a22565b610600565b61024e610650565b60405161022a9190612a8f565b61026e610269366004612aa2565b6106e2565b6040516001600160a01b03909116815260200161022a565b610299610294366004612abb565b610709565b005b6102ae6102a9366004612c99565b610835565b60405190815260200161022a565b6102996102ca366004612d0f565b6108e5565b6102e26102dd366004612d31565b6109c8565b6040516001600160e01b0319909116815260200161022a565b610299610309366004612d9d565b6109d9565b61029961031c366004612de4565b610ae9565b61033461032f366004612e3d565b610b21565b60408051825181526020928301516001600160a01b0316928101929092520161022a565b6102ae610366366004612e72565b610e0e565b610299610379366004612de4565b610f01565b61029961038c366004612ea6565b610f1c565b6102ae61108c565b6102996103a7366004612f7b565b61109c565b61026e6103ba366004612aa2565b6112a5565b6102ae6103cd3660046129ef565b611304565b61029961138a565b6102ae6103e8366004612aa2565b600d6020526000908152604090205481565b6008546001600160a01b031661026e565b61021e6104193660046129ef565b60096020526000908152604090205460ff1681565b61021e61043c366004612fb8565b61139e565b6007546001600160a01b031661026e565b61024e61141b565b610299610468366004612fb8565b61142a565b61029961047b3660046129ef565b611597565b61029961048e366004613004565b6115c3565b600b5461026e906001600160a01b031681565b6102996104b4366004612d31565b611644565b61024e6104c7366004612aa2565b61167d565b6104fa6104da36600461303d565b600c60209081526000928352604080842090915290825290205460ff1681565b60405161022a9190613078565b61021e6105153660046130a0565b6001600160a01b03918216600090815260066020908152604080832093909416825291909152205460ff1690565b6102996105513660046129ef565b6116f0565b6008546000906001600160a01b031661058857506001600160a01b031660009081526009602052604090205460ff1690565b60085460405162ba80a960e11b81526001600160a01b03848116600483015290911690630175015290602401602060405180830381865afa1580156105d1573d6000803e3d6000fd5b505050506040513d601f19601f820116820180604052508101906105f591906130ce565b92915050565b919050565b60006001600160e01b031982166380ac58cd60e01b148061063157506001600160e01b03198216635b5e139f60e01b145b806105f557506301ffc9a760e01b6001600160e01b03198316146105f5565b60606001805461065f906130eb565b80601f016020809104026020016040519081016040528092919081815260200182805461068b906130eb565b80156106d85780601f106106ad576101008083540402835291602001916106d8565b820191906000526020600020905b8154815290600101906020018083116106bb57829003601f168201915b5050505050905090565b60006106ed82611769565b506000908152600560205260409020546001600160a01b031690565b6000610714826112a5565b9050806001600160a01b0316836001600160a01b0316036107865760405162461bcd60e51b815260206004820152602160248201527f4552433732313a20617070726f76616c20746f2063757272656e74206f776e656044820152603960f91b60648201526084015b60405180910390fd5b806001600160a01b03166107986117b9565b6001600160a01b031614806107b457506107b4816105156117b9565b6108265760405162461bcd60e51b815260206004820152603d60248201527f4552433732313a20617070726f76652063616c6c6572206973206e6f7420746f60448201527f6b656e206f776e6572206f7220617070726f76656420666f7220616c6c000000606482015260840161077d565b61083083836117e0565b505050565b6000610845600a80546001019055565b6000610850600a5490565b905061085c858261184e565b6040516001600160a01b0386169082907f1c483dd823f07c903e6b78f350b4077cc066d97e34e20f9787befd74c551766390600090a3807f334c9e6b317975dc7a70a5bb55386d238cea0d2be182d3546d4d6302e8c28dcf856040516108c29190612a8f565b60405180910390a28251156108db576108db818461109c565b90505b9392505050565b6108ed6117b9565b6001600160a01b03166108ff836112a5565b6001600160a01b03161461096c5760405162461bcd60e51b815260206004820152602e60248201527f5445414d533a204f6e6c79204f776e65722063616e207472616e73666572207460448201526d379027b933b0b734b9b0ba34b7b760911b606482015260840161077d565b6109896109776117b9565b600b546001600160a01b031684611868565b6000828152600d602052604080822083905551829184917fc175b54b62e7156ecc6ffb8da5c15704f0bd44b4b973e9962f622d54f4d0e5d59190a35050565b630a85bd0160e11b5b949350505050565b6000815111610a2a5760405162461bcd60e51b815260206004820152601860248201527f5445414d533a204e616d652069732072657175697265642e0000000000000000604482015260640161077d565b610a326117b9565b6001600160a01b0316610a44836112a5565b6001600160a01b031614610aad5760405162461bcd60e51b815260206004820152602a60248201527f5445414d533a204f6e6c7920746865204f776e65722063616e2072656e616d65604482015269103a3432903a32b0b69760b11b606482015260840161077d565b817f334c9e6b317975dc7a70a5bb55386d238cea0d2be182d3546d4d6302e8c28dcf82604051610add9190612a8f565b60405180910390a25050565b610afa610af46117b9565b826119d4565b610b165760405162461bcd60e51b815260040161077d9061311f565b610830838383611868565b60408051808201909152600080825260208201526020820135610b44838061316c565b604051610b529291906131b3565b604051809103902014610bbc5760405162461bcd60e51b815260206004820152602c60248201527f546865206d657373616765206861736820646f65736e2774206d61746368207460448201526b6865206f726967696e616c2160a01b606482015260840161077d565b60007f6492649264926492649264926492649264926492649264926492649264926492610bec604085018561316c565b6020610bfb604088018861316c565b610c069291506131d9565b90610c14604088018861316c565b610c229490939291506131ec565b610c2b91613216565b149050600080610c4160808601606087016129ef565b6001600160a01b03163b1190508180610c575750805b15610ccf57610c8a610c6f60808601606087016129ef565b6020860135610c81604088018861316c565b60016000611a52565b610cca5760405162461bcd60e51b8152602060048201526011602482015270496e76616c6964207369676e617475726560781b604482015260640161077d565b610de1565b6000610d2c85602001356040517f19457468657265756d205369676e6564204d6573736167653a0a3332000000006020820152603c8101829052600090605c01604051602081830303815290604052805190602001209050919050565b90506000610d7b82610d41604089018961316c565b8080601f016020809104026020016040519081016040528093929190818152602001838380828437600092019190915250611eed92505050565b9050610d8d60808701606088016129ef565b6001600160a01b0316816001600160a01b031614610dde5760405162461bcd60e51b815260206004820152600e60248201526d24b73b30b634b21039b4b3b732b960911b604482015260640161077d565b50505b6000610ded858061316c565b810190610dfa9190613234565b9050610e0581611f11565b50949350505050565b6000610e1e600a80546001019055565b6000610e29600a5490565b600b54909150610e42906001600160a01b03168261184e565b6000818152600d6020526040808220879055600b5490516001600160a01b039091169183917f1c483dd823f07c903e6b78f350b4077cc066d97e34e20f9787befd74c55176639190a3807f334c9e6b317975dc7a70a5bb55386d238cea0d2be182d3546d4d6302e8c28dcf85604051610ebb9190612a8f565b60405180910390a2604051859082907fc175b54b62e7156ecc6ffb8da5c15704f0bd44b4b973e9962f622d54f4d0e5d590600090a38251156108db576108db818461109c565b61083083838360405180602001604052806000815250611644565b610f276102196117b9565b610f735760405162461bcd60e51b815260206004820152601e60248201527f4e4f444548414e444c45523a205045524d495353494f4e5f44454e4945440000604482015260640161077d565b6000610f7e83610b21565b60208101519091506001600160a01b0316331480610fa7575060208101516001600160a01b0316155b610ff35760405162461bcd60e51b815260206004820152601e60248201527f4e4f444548414e444c45523a205045524d495353494f4e5f44454e4945440000604482015260640161077d565b610ffc33610556565b80611027575061101260808401606085016129ef565b6001600160a01b0316336001600160a01b0316145b6110735760405162461bcd60e51b815260206004820152601e60248201527f4e4f444548414e444c45523a205045524d495353494f4e5f44454e4945440000604482015260640161077d565b61083061108660808501606086016129ef565b83611f64565b6000611097600a5490565b905090565b816110a56117b9565b6001600160a01b03166110b7826112a5565b6001600160a01b031614806111615750600b546000828152600d60205260409020546001600160a01b039091169063146a2911906110f36117b9565b6040516001600160e01b031960e085901b16815260048101929092526001600160a01b03166024820152604401602060405180830381865afa15801561113d573d6000803e3d6000fd5b505050506040513d601f19601f8201168201806040525081019061116191906130ce565b61117d5760405162461bcd60e51b815260040161077d9061326c565b60005b825181101561129f5782818151811061119b5761119b6132d6565b602002602001015160200151600c600086815260200190815260200160002060008584815181106111ce576111ce6132d6565b602090810291909101810151516001600160a01b03168252810191909152604001600020805460ff1916600183600281111561120c5761120c613062565b0217905550828181518110611223576112236132d6565b6020026020010151600001516001600160a01b0316847f0faa556cadb9cafbbf015fb98b93c217a4522fc3f20548c224967adf978ffb8185848151811061126c5761126c6132d6565b6020026020010151602001516040516112859190613078565b60405180910390a380611297816132ec565b915050611180565b50505050565b6000806112b1836120b3565b90506001600160a01b0381166105f55760405162461bcd60e51b8152602060048201526018602482015277115490cdcc8c4e881a5b9d985b1a59081d1bdad95b88125160421b604482015260640161077d565b60006001600160a01b03821661136e5760405162461bcd60e51b815260206004820152602960248201527f4552433732313a2061646472657373207a65726f206973206e6f7420612076616044820152683634b21037bbb732b960b91b606482015260840161077d565b506001600160a01b031660009081526004602052604090205490565b61139261215b565b61139c60006121d4565b565b6000826001600160a01b03166113b3856112a5565b6001600160a01b0316036113c9575060016108de565b8160028111156113db576113db613062565b6000858152600c602090815260408083206001600160a01b038816845290915290205460ff16600281111561141257611412613062565b101590506108de565b60606002805461065f906130eb565b826114336117b9565b6001600160a01b0316611445826112a5565b6001600160a01b031614806114ef5750600b546000828152600d60205260409020546001600160a01b039091169063146a2911906114816117b9565b6040516001600160e01b031960e085901b16815260048101929092526001600160a01b03166024820152604401602060405180830381865afa1580156114cb573d6000803e3d6000fd5b505050506040513d601f19601f820116820180604052508101906114ef91906130ce565b61150b5760405162461bcd60e51b815260040161077d9061326c565b6000848152600c602090815260408083206001600160a01b03871684529091529020805483919060ff1916600183600281111561154a5761154a613062565b0217905550826001600160a01b0316847f0faa556cadb9cafbbf015fb98b93c217a4522fc3f20548c224967adf978ffb81846040516115899190613078565b60405180910390a350505050565b61159f61215b565b6001600160a01b03166000908152600960205260409020805460ff19166001179055565b6001600160a01b03821661162e5760405162461bcd60e51b815260206004820152602c60248201527f4552433732313a2061646472657373207a65726f206973206e6f74206120766160448201526b3634b21037b832b930ba37b960a11b606482015260840161077d565b6116406116396117b9565b8383612226565b5050565b61165561164f6117b9565b836119d4565b6116715760405162461bcd60e51b815260040161077d9061311f565b61129f848484846122f4565b606061168882611769565b600061169f60408051602081019091526000815290565b905060008151116116bf57604051806020016040528060008152506108de565b806116c984612327565b6040516020016116da929190613305565b6040516020818303038152906040529392505050565b6116f861215b565b6001600160a01b03811661175d5760405162461bcd60e51b815260206004820152602660248201527f4f776e61626c653a206e6577206f776e657220697320746865207a65726f206160448201526564647265737360d01b606482015260840161077d565b611766816121d4565b50565b611772816123ba565b6117665760405162461bcd60e51b8152602060048201526018602482015277115490cdcc8c4e881a5b9d985b1a59081d1bdad95b88125160421b604482015260640161077d565b600080546001600160a01b0316156117db57506000546001600160a01b031690565b503390565b600081815260056020526040902080546001600160a01b0319166001600160a01b0384169081179091558190611815826112a5565b6001600160a01b03167f8c5be1e5ebec7d5bd14f71427d1e84f3dd0314c0f7b2291e5b200ac8c7c3b92560405160405180910390a45050565b6116408282604051806020016040528060008152506123d7565b826001600160a01b031661187b826112a5565b6001600160a01b0316146118a15760405162461bcd60e51b815260040161077d90613334565b6001600160a01b0382166119035760405162461bcd60e51b8152602060048201526024808201527f4552433732313a207472616e7366657220746f20746865207a65726f206164646044820152637265737360e01b606482015260840161077d565b826001600160a01b0316611916826112a5565b6001600160a01b03161461193c5760405162461bcd60e51b815260040161077d90613334565b600081815260056020908152604080832080546001600160a01b03199081169091556001600160a01b0387811680865260048552838620805460001901905590871680865283862080546001019055868652600390945282852080549092168417909155905184937fddf252ad1be2c89b69c2b068fc378daa952ba7f163c4a11628f55a4df523b3ef91a4610830838383600161240a565b6000806119e0836112a5565b9050806001600160a01b0316846001600160a01b03161480611a2757506001600160a01b0380821660009081526006602090815260408083209388168352929052205460ff165b806109d15750836001600160a01b0316611a40846106e2565b6001600160a01b031614949350505050565b60006001600160a01b0387163b6060827f64926492649264926492649264926492649264926492649264926492649264928888611a906020826131d9565b611a9c928b92906131ec565b611aa591613216565b1490508015611b7c576000606089828a611ac06020826131d9565b92611acd939291906131ec565b810190611ada9190613379565b95509092509050841580611aeb5750865b15611b7557600080836001600160a01b031683604051611b0b91906133e5565b6000604051808303816000865af19150503d8060008114611b48576040519150601f19603f3d011682016040523d82523d6000602084013e611b4d565b606091505b509150915081611b725780604051639d0d6e2d60e01b815260040161077d9190612a8f565b50505b5050611bb6565b87878080601f0160208091040260200160405190810160405280939291908181526020018383808284376000920191909152509294505050505b8080611bc25750600083115b15611d2557604051630b135d3f60e11b81526001600160a01b038b1690631626ba7e90611bf5908c908690600401613401565b602060405180830381865afa925050508015611c2e575060408051601f3d908101601f19168201909252611c2b9181019061341a565b60015b611caa573d808015611c5c576040519150601f19603f3d011682016040523d82523d6000602084013e611c61565b606091505b5085158015611c705750600084115b15611c8f57611c848b8b8b8b8b6001611a52565b945050505050611ee3565b80604051636f2a959960e01b815260040161077d9190612a8f565b6001600160e01b03198116630b135d3f60e11b14801581611cc9575086155b8015611cd55750600085115b15611cf557611ce98c8c8c8c8c6001611a52565b95505050505050611ee3565b84158015611d005750825b8015611d0a575087155b15611d1957806000526001601ffd5b9450611ee39350505050565b60418714611d9b5760405162461bcd60e51b815260206004820152603a60248201527f5369676e617475726556616c696461746f72237265636f7665725369676e657260448201527f3a20696e76616c6964207369676e6174757265206c656e677468000000000000606482015260840161077d565b6000611daa6020828a8c6131ec565b611db391613216565b90506000611dc5604060208b8d6131ec565b611dce91613216565b905060008a8a6040818110611de557611de56132d6565b919091013560f81c915050601b8114801590611e0557508060ff16601c14155b15611e685760405162461bcd60e51b815260206004820152602d60248201527f5369676e617475726556616c696461746f723a20696e76616c6964207369676e60448201526c617475726520762076616c756560981b606482015260840161077d565b6040805160008152602081018083528e905260ff83169181019190915260608101849052608081018390526001600160a01b038e169060019060a0016020604051602081039080840390855afa158015611ec6573d6000803e3d6000fd5b505050602060405103516001600160a01b03161496505050505050505b9695505050505050565b6000806000611efc8585612433565b91509150611f0981612478565b509392505050565b60004382600001511015611f5c5760405162461bcd60e51b815260206004820152601260248201527113595cdcd859d9481a5cc8195e1c1a5c995960721b604482015260640161077d565b506001919050565b816001600160a01b038116611fc75760405162461bcd60e51b815260206004820152602360248201527f436f6e746578743a206e6577436f6e74657874206973207a65726f206164647260448201526265737360e81b606482015260840161077d565b600080546001600160a01b0319166001600160a01b03831617905560005b825181101561209d57600080306001600160a01b031685848151811061200d5761200d6132d6565b602002602001015160405161202291906133e5565b600060405180830381855af49150503d806000811461205d576040519150601f19603f3d011682016040523d82523d6000602084013e612062565b606091505b50915091508181906120875760405162461bcd60e51b815260040161077d9190612a8f565b5050508080612095906132ec565b915050611fe5565b50600080546001600160a01b0319169055505050565b600081815260036020526040812054600b546001600160a01b03918216911681036105f557600b546000848152600d6020526040908190205490516331a9108f60e11b81526001600160a01b0390921691636352211e9161211a9160040190815260200190565b602060405180830381865afa158015612137573d6000803e3d6000fd5b505050506040513d601f19601f820116820180604052508101906108de9190613437565b6121636117b9565b6001600160a01b031661217e6007546001600160a01b031690565b6001600160a01b03161461139c5760405162461bcd60e51b815260206004820181905260248201527f4f776e61626c653a2063616c6c6572206973206e6f7420746865206f776e6572604482015260640161077d565b600780546001600160a01b038381166001600160a01b0319831681179093556040519116919082907f8be0079c531659141344cd1fd0a4f28419497f9722a3daafe3b4186f6b6457e090600090a35050565b816001600160a01b0316836001600160a01b0316036122875760405162461bcd60e51b815260206004820152601960248201527f4552433732313a20617070726f766520746f2063616c6c657200000000000000604482015260640161077d565b6001600160a01b03838116600081815260066020908152604080832094871680845294825291829020805460ff191686151590811790915591519182527f17307eab39ab6107e8899845ad3d59bd9653f200f220920489ca2b5937696c31910160405180910390a3505050565b6122ff848484611868565b61230b848484846125c2565b61129f5760405162461bcd60e51b815260040161077d90613454565b60606000612334836126c7565b600101905060008167ffffffffffffffff81111561235457612354612ae7565b6040519080825280601f01601f19166020018201604052801561237e576020820181803683370190505b5090508181016020015b600019016f181899199a1a9b1b9c1cb0b131b232b360811b600a86061a8153600a850494508461238857509392505050565b6000806123c6836120b3565b6001600160a01b0316141592915050565b6123e1838361279f565b6123ee60008484846125c2565b6108305760405162461bcd60e51b815260040161077d90613454565b600b546001600160a01b0384811691161461129f57506000908152600d60205260408120555050565b60008082516041036124695760208301516040840151606085015160001a61245d87828585612916565b94509450505050612471565b506000905060025b9250929050565b600081600481111561248c5761248c613062565b036124945750565b60018160048111156124a8576124a8613062565b036124f55760405162461bcd60e51b815260206004820152601860248201527f45434453413a20696e76616c6964207369676e61747572650000000000000000604482015260640161077d565b600281600481111561250957612509613062565b036125565760405162461bcd60e51b815260206004820152601f60248201527f45434453413a20696e76616c6964207369676e6174757265206c656e67746800604482015260640161077d565b600381600481111561256a5761256a613062565b036117665760405162461bcd60e51b815260206004820152602260248201527f45434453413a20696e76616c6964207369676e6174757265202773272076616c604482015261756560f01b606482015260840161077d565b60006001600160a01b0384163b156126bf57836001600160a01b031663150b7a026125eb6117b9565b8786866040518563ffffffff1660e01b815260040161260d94939291906134a6565b6020604051808303816000875af1925050508015612648575060408051601f3d908101601f191682019092526126459181019061341a565b60015b6126a5573d808015612676576040519150601f19603f3d011682016040523d82523d6000602084013e61267b565b606091505b50805160000361269d5760405162461bcd60e51b815260040161077d90613454565b805181602001fd5b6001600160e01b031916630a85bd0160e11b1490506109d1565b5060016109d1565b60008072184f03e93ff9f4daa797ed6e38ed64bf6a1f0160401b83106127065772184f03e93ff9f4daa797ed6e38ed64bf6a1f0160401b830492506040015b6d04ee2d6d415b85acef81000000008310612732576d04ee2d6d415b85acef8100000000830492506020015b662386f26fc10000831061275057662386f26fc10000830492506010015b6305f5e1008310612768576305f5e100830492506008015b612710831061277c57612710830492506004015b6064831061278e576064830492506002015b600a83106105f55760010192915050565b6001600160a01b0382166127f55760405162461bcd60e51b815260206004820181905260248201527f4552433732313a206d696e7420746f20746865207a65726f2061646472657373604482015260640161077d565b6127fe816123ba565b1561284b5760405162461bcd60e51b815260206004820152601c60248201527f4552433732313a20746f6b656e20616c7265616479206d696e74656400000000604482015260640161077d565b612854816123ba565b156128a15760405162461bcd60e51b815260206004820152601c60248201527f4552433732313a20746f6b656e20616c7265616479206d696e74656400000000604482015260640161077d565b6001600160a01b038216600081815260046020908152604080832080546001019055848352600390915280822080546001600160a01b0319168417905551839291907fddf252ad1be2c89b69c2b068fc378daa952ba7f163c4a11628f55a4df523b3ef908290a461164060008383600161240a565b6000807f7fffffffffffffffffffffffffffffff5d576e7357a4501ddfe92f46681b20a083111561294d57506000905060036129d1565b6040805160008082526020820180845289905260ff881692820192909252606081018690526080810185905260019060a0016020604051602081039080840390855afa1580156129a1573d6000803e3d6000fd5b5050604051601f1901519150506001600160a01b0381166129ca576000600192509250506129d1565b9150600090505b94509492505050565b6001600160a01b038116811461176657600080fd5b600060208284031215612a0157600080fd5b81356108de816129da565b6001600160e01b03198116811461176657600080fd5b600060208284031215612a3457600080fd5b81356108de81612a0c565b60005b83811015612a5a578181015183820152602001612a42565b50506000910152565b60008151808452612a7b816020860160208601612a3f565b601f01601f19169290920160200192915050565b6020815260006108de6020830184612a63565b600060208284031215612ab457600080fd5b5035919050565b60008060408385031215612ace57600080fd5b8235612ad9816129da565b946020939093013593505050565b634e487b7160e01b600052604160045260246000fd5b6040805190810167ffffffffffffffff81118282101715612b2057612b20612ae7565b60405290565b604051601f8201601f1916810167ffffffffffffffff81118282101715612b4f57612b4f612ae7565b604052919050565b600082601f830112612b6857600080fd5b813567ffffffffffffffff811115612b8257612b82612ae7565b612b95601f8201601f1916602001612b26565b818152846020838601011115612baa57600080fd5b816020850160208301376000918101602001919091529392505050565b600067ffffffffffffffff821115612be157612be1612ae7565b5060051b60200190565b8035600381106105fb57600080fd5b600082601f830112612c0b57600080fd5b81356020612c20612c1b83612bc7565b612b26565b82815260069290921b84018101918181019086841115612c3f57600080fd5b8286015b84811015612c8e5760408189031215612c5c5760008081fd5b612c64612afd565b8135612c6f816129da565b8152612c7c828601612beb565b81860152835291830191604001612c43565b509695505050505050565b600080600060608486031215612cae57600080fd5b8335612cb9816129da565b9250602084013567ffffffffffffffff80821115612cd657600080fd5b612ce287838801612b57565b93506040860135915080821115612cf857600080fd5b50612d0586828701612bfa565b9150509250925092565b60008060408385031215612d2257600080fd5b50508035926020909101359150565b60008060008060808587031215612d4757600080fd5b8435612d52816129da565b93506020850135612d62816129da565b925060408501359150606085013567ffffffffffffffff811115612d8557600080fd5b612d9187828801612b57565b91505092959194509250565b60008060408385031215612db057600080fd5b82359150602083013567ffffffffffffffff811115612dce57600080fd5b612dda85828601612b57565b9150509250929050565b600080600060608486031215612df957600080fd5b8335612e04816129da565b92506020840135612e14816129da565b929592945050506040919091013590565b600060808284031215612e3757600080fd5b50919050565b600060208284031215612e4f57600080fd5b813567ffffffffffffffff811115612e6657600080fd5b6109d184828501612e25565b600080600060608486031215612e8757600080fd5b83359250602084013567ffffffffffffffff80821115612cd657600080fd5b60008060408385031215612eb957600080fd5b823567ffffffffffffffff80821115612ed157600080fd5b612edd86838701612e25565b9350602091508185013581811115612ef457600080fd5b8501601f81018713612f0557600080fd5b8035612f13612c1b82612bc7565b81815260059190911b82018401908481019089831115612f3257600080fd5b8584015b83811015612f6a57803586811115612f4e5760008081fd5b612f5c8c8983890101612b57565b845250918601918601612f36565b508096505050505050509250929050565b60008060408385031215612f8e57600080fd5b82359150602083013567ffffffffffffffff811115612fac57600080fd5b612dda85828601612bfa565b600080600060608486031215612fcd57600080fd5b833592506020840135612fdf816129da565b9150612fed60408501612beb565b90509250925092565b801515811461176657600080fd5b6000806040838503121561301757600080fd5b8235613022816129da565b9150602083013561303281612ff6565b809150509250929050565b6000806040838503121561305057600080fd5b823591506020830135613032816129da565b634e487b7160e01b600052602160045260246000fd5b602081016003831061309a57634e487b7160e01b600052602160045260246000fd5b91905290565b600080604083850312156130b357600080fd5b82356130be816129da565b91506020830135613032816129da565b6000602082840312156130e057600080fd5b81516108de81612ff6565b600181811c908216806130ff57607f821691505b602082108103612e3757634e487b7160e01b600052602260045260246000fd5b6020808252602d908201527f4552433732313a2063616c6c6572206973206e6f7420746f6b656e206f776e6560408201526c1c881bdc88185c1c1c9bdd9959609a1b606082015260800190565b6000808335601e1984360301811261318357600080fd5b83018035915067ffffffffffffffff82111561319e57600080fd5b60200191503681900382131561247157600080fd5b8183823760009101908152919050565b634e487b7160e01b600052601160045260246000fd5b818103818111156105f5576105f56131c3565b600080858511156131fc57600080fd5b8386111561320957600080fd5b5050820193919092039150565b803560208310156105f557600019602084900360031b1b1692915050565b60006040828403121561324657600080fd5b61324e612afd565b823581526020830135613260816129da565b60208201529392505050565b60208082526044908201527f5445414d533a204f6e6c7920746865204f776e65722c206f7220616e204f726760408201527f616e69736174696f6e2041646d696e2063616e20736574207065726d6973736960608201526337b7399760e11b608082015260a00190565b634e487b7160e01b600052603260045260246000fd5b6000600182016132fe576132fe6131c3565b5060010190565b60008351613317818460208801612a3f565b83519083019061332b818360208801612a3f565b01949350505050565b60208082526025908201527f4552433732313a207472616e736665722066726f6d20696e636f72726563742060408201526437bbb732b960d91b606082015260800190565b60008060006060848603121561338e57600080fd5b8335613399816129da565b9250602084013567ffffffffffffffff808211156133b657600080fd5b6133c287838801612b57565b935060408601359150808211156133d857600080fd5b50612d0586828701612b57565b600082516133f7818460208701612a3f565b9190910192915050565b8281526040602082015260006109d16040830184612a63565b60006020828403121561342c57600080fd5b81516108de81612a0c565b60006020828403121561344957600080fd5b81516108de816129da565b60208082526032908201527f4552433732313a207472616e7366657220746f206e6f6e20455243373231526560408201527131b2b4bb32b91034b6b83632b6b2b73a32b960711b606082015260800190565b60006001600160a01b03808716835280861660208401525083604083015260806060830152611ee36080830184612a6356fea264697066735822122094287fdc7cb0ae4de533bab91446c8ef6c52b4685d8cffe0b5cebde55e5c978e64736f6c63430008130033",
  "linkReferences": {},
  "deployedLinkReferences": {}
}