{
  "_format": "hh-sol-artifact-1",
  "contractName": "ShareInvites",
  "sourceName": "contracts/CShareInvites.sol",
  "abi": [
    {
      "inputs": [
        {
          "internalType": "address",
          "name": "entityManagerContract",
          "type": "address"
        }
      ],
      "stateMutability": "nonpayable",
      "type": "constructor"
    },
    {
      "inputs": [
        {
          "internalType": "bytes",
          "name": "error",
          "type": "bytes"
        }
      ],
      "name": "ERC1271Revert",
      "type": "error"
    },
    {
      "inputs": [
        {
          "internalType": "bytes",
          "name": "error",
          "type": "bytes"
        }
      ],
      "name": "ERC6492DeployFailed",
      "type": "error"
    },
    {
      "anonymous": false,
      "inputs": [
        {
          "indexed": true,
          "internalType": "address",
          "name": "owner",
          "type": "address"
        },
        {
          "indexed": true,
          "internalType": "address",
          "name": "approved",
          "type": "address"
        },
        {
          "indexed": true,
          "internalType": "uint256",
          "name": "tokenId",
          "type": "uint256"
        }
      ],
      "name": "Approval",
      "type": "event"
    },
    {
      "anonymous": false,
      "inputs": [
        {
          "indexed": true,
          "internalType": "address",
          "name": "owner",
          "type": "address"
        },
        {
          "indexed": true,
          "internalType": "address",
          "name": "operator",
          "type": "address"
        },
        {
          "indexed": false,
          "internalType": "bool",
          "name": "approved",
          "type": "bool"
        }
      ],
      "name": "ApprovalForAll",
      "type": "event"
    },
    {
      "anonymous": false,
      "inputs": [
        {
          "indexed": false,
          "internalType": "uint256",
          "name": "inviteId",
          "type": "uint256"
        },
        {
          "indexed": false,
          "internalType": "address",
          "name": "acceptedBy",
          "type": "address"
        }
      ],
      "name": "InviteAccepted",
      "type": "event"
    },
    {
      "anonymous": false,
      "inputs": [
        {
          "indexed": false,
          "internalType": "uint256",
          "name": "inviteId",
          "type": "uint256"
        },
        {
          "indexed": false,
          "internalType": "address",
          "name": "declinedBy",
          "type": "address"
        }
      ],
      "name": "InviteDeclined",
      "type": "event"
    },
    {
      "anonymous": false,
      "inputs": [
        {
          "indexed": false,
          "internalType": "uint256",
          "name": "inviteId",
          "type": "uint256"
        },
        {
          "indexed": false,
          "internalType": "address",
          "name": "revokedBy",
          "type": "address"
        }
      ],
      "name": "InviteRevoked",
      "type": "event"
    },
    {
      "anonymous": false,
      "inputs": [
        {
          "indexed": false,
          "internalType": "address",
          "name": "from",
          "type": "address"
        },
        {
          "indexed": false,
          "internalType": "uint256",
          "name": "externalOrgOrTeamId",
          "type": "uint256"
        },
        {
          "indexed": false,
          "internalType": "uint256",
          "name": "sourceEntityId",
          "type": "uint256"
        },
        {
          "indexed": false,
          "internalType": "uint8",
          "name": "baseSharePerms",
          "type": "uint8"
        },
        {
          "indexed": false,
          "internalType": "enum IShareInvites.EShareInviteStatus",
          "name": "status",
          "type": "uint8"
        }
      ],
      "name": "InviteSent",
      "type": "event"
    },
    {
      "anonymous": false,
      "inputs": [
        {
          "indexed": true,
          "internalType": "address",
          "name": "previousOwner",
          "type": "address"
        },
        {
          "indexed": true,
          "internalType": "address",
          "name": "newOwner",
          "type": "address"
        }
      ],
      "name": "OwnershipTransferred",
      "type": "event"
    },
    {
      "anonymous": false,
      "inputs": [
        {
          "indexed": true,
          "internalType": "address",
          "name": "from",
          "type": "address"
        },
        {
          "indexed": true,
          "internalType": "address",
          "name": "to",
          "type": "address"
        },
        {
          "indexed": true,
          "internalType": "uint256",
          "name": "tokenId",
          "type": "uint256"
        }
      ],
      "name": "Transfer",
      "type": "event"
    },
    {
      "inputs": [
        {
          "internalType": "address",
          "name": "node",
          "type": "address"
        }
      ],
      "name": "_nodes",
      "outputs": [
        {
          "internalType": "bool",
          "name": "isNode",
          "type": "bool"
        }
      ],
      "stateMutability": "view",
      "type": "function"
    },
    {
      "inputs": [
        {
          "internalType": "uint256",
          "name": "_inviteId",
          "type": "uint256"
        }
      ],
      "name": "acceptInvite",
      "outputs": [],
      "stateMutability": "nonpayable",
      "type": "function"
    },
    {
      "inputs": [
        {
          "internalType": "address",
          "name": "node",
          "type": "address"
        }
      ],
      "name": "addNode",
      "outputs": [],
      "stateMutability": "nonpayable",
      "type": "function"
    },
    {
      "inputs": [
        {
          "internalType": "address",
          "name": "to",
          "type": "address"
        },
        {
          "internalType": "uint256",
          "name": "tokenId",
          "type": "uint256"
        }
      ],
      "name": "approve",
      "outputs": [],
      "stateMutability": "nonpayable",
      "type": "function"
    },
    {
      "inputs": [
        {
          "internalType": "address",
          "name": "owner",
          "type": "address"
        }
      ],
      "name": "balanceOf",
      "outputs": [
        {
          "internalType": "uint256",
          "name": "",
          "type": "uint256"
        }
      ],
      "stateMutability": "view",
      "type": "function"
    },
    {
      "inputs": [
        {
          "components": [
            {
              "internalType": "bytes",
              "name": "encodedMessage",
              "type": "bytes"
            },
            {
              "internalType": "bytes32",
              "name": "messageHash",
              "type": "bytes32"
            },
            {
              "internalType": "bytes",
              "name": "signature",
              "type": "bytes"
            },
            {
              "internalType": "address",
              "name": "signer",
              "type": "address"
            }
          ],
          "internalType": "struct SignatureVerifier.Signature",
          "name": "_signature",
          "type": "tuple"
        }
      ],
      "name": "checkSignature",
      "outputs": [
        {
          "components": [
            {
              "internalType": "uint256",
              "name": "blockNumber",
              "type": "uint256"
            },
            {
              "internalType": "address",
              "name": "nodeAddress",
              "type": "address"
            }
          ],
          "internalType": "struct SignatureVerifier.EncodedMessage",
          "name": "",
          "type": "tuple"
        }
      ],
      "stateMutability": "nonpayable",
      "type": "function"
    },
    {
      "inputs": [
        {
          "internalType": "uint256",
          "name": "_inviteId",
          "type": "uint256"
        }
      ],
      "name": "declineInvite",
      "outputs": [],
      "stateMutability": "nonpayable",
      "type": "function"
    },
    {
      "inputs": [
        {
          "components": [
            {
              "internalType": "bytes",
              "name": "encodedMessage",
              "type": "bytes"
            },
            {
              "internalType": "bytes32",
              "name": "messageHash",
              "type": "bytes32"
            },
            {
              "internalType": "bytes",
              "name": "signature",
              "type": "bytes"
            },
            {
              "internalType": "address",
              "name": "signer",
              "type": "address"
            }
          ],
          "internalType": "struct SignatureVerifier.Signature",
          "name": "signature",
          "type": "tuple"
        },
        {
          "internalType": "bytes[]",
          "name": "_calldata",
          "type": "bytes[]"
        }
      ],
      "name": "delegateCallsToSelf",
      "outputs": [],
      "stateMutability": "nonpayable",
      "type": "function"
    },
    {
      "inputs": [],
      "name": "entities",
      "outputs": [
        {
          "internalType": "address",
          "name": "",
          "type": "address"
        }
      ],
      "stateMutability": "view",
      "type": "function"
    },
    {
      "inputs": [
        {
          "internalType": "uint256",
          "name": "tokenId",
          "type": "uint256"
        }
      ],
      "name": "getApproved",
      "outputs": [
        {
          "internalType": "address",
          "name": "",
          "type": "address"
        }
      ],
      "stateMutability": "view",
      "type": "function"
    },
    {
      "inputs": [],
      "name": "getParent",
      "outputs": [
        {
          "internalType": "address",
          "name": "",
          "type": "address"
        }
      ],
      "stateMutability": "view",
      "type": "function"
    },
    {
      "inputs": [],
      "name": "getTotalSupply",
      "outputs": [
        {
          "internalType": "uint256",
          "name": "",
          "type": "uint256"
        }
      ],
      "stateMutability": "view",
      "type": "function"
    },
    {
      "inputs": [
        {
          "internalType": "uint256",
          "name": "invite",
          "type": "uint256"
        }
      ],
      "name": "invites",
      "outputs": [
        {
          "internalType": "uint256",
          "name": "tokenId",
          "type": "uint256"
        },
        {
          "internalType": "address",
          "name": "from",
          "type": "address"
        },
        {
          "internalType": "uint256",
          "name": "externalOrgOrTeamId",
          "type": "uint256"
        },
        {
          "internalType": "uint256",
          "name": "sourceEntityId",
          "type": "uint256"
        },
        {
          "internalType": "uint8",
          "name": "baseSharePerms",
          "type": "uint8"
        },
        {
          "internalType": "enum IShareInvites.EShareInviteStatus",
          "name": "status",
          "type": "uint8"
        }
      ],
      "stateMutability": "view",
      "type": "function"
    },
    {
      "inputs": [
        {
          "internalType": "address",
          "name": "owner",
          "type": "address"
        },
        {
          "internalType": "address",
          "name": "operator",
          "type": "address"
        }
      ],
      "name": "isApprovedForAll",
      "outputs": [
        {
          "internalType": "bool",
          "name": "",
          "type": "bool"
        }
      ],
      "stateMutability": "view",
      "type": "function"
    },
    {
      "inputs": [
        {
          "internalType": "address",
          "name": "node",
          "type": "address"
        }
      ],
      "name": "isNode",
      "outputs": [
        {
          "internalType": "bool",
          "name": "",
          "type": "bool"
        }
      ],
      "stateMutability": "view",
      "type": "function"
    },
    {
      "inputs": [],
      "name": "name",
      "outputs": [
        {
          "internalType": "string",
          "name": "",
          "type": "string"
        }
      ],
      "stateMutability": "view",
      "type": "function"
    },
    {
      "inputs": [],
      "name": "owner",
      "outputs": [
        {
          "internalType": "address",
          "name": "",
          "type": "address"
        }
      ],
      "stateMutability": "view",
      "type": "function"
    },
    {
      "inputs": [
        {
          "internalType": "uint256",
          "name": "tokenId",
          "type": "uint256"
        }
      ],
      "name": "ownerOf",
      "outputs": [
        {
          "internalType": "address",
          "name": "",
          "type": "address"
        }
      ],
      "stateMutability": "view",
      "type": "function"
    },
    {
      "inputs": [],
      "name": "renounceOwnership",
      "outputs": [],
      "stateMutability": "nonpayable",
      "type": "function"
    },
    {
      "inputs": [
        {
          "internalType": "uint256",
          "name": "_inviteId",
          "type": "uint256"
        }
      ],
      "name": "revokeInvite",
      "outputs": [],
      "stateMutability": "nonpayable",
      "type": "function"
    },
    {
      "inputs": [
        {
          "internalType": "address",
          "name": "from",
          "type": "address"
        },
        {
          "internalType": "address",
          "name": "to",
          "type": "address"
        },
        {
          "internalType": "uint256",
          "name": "tokenId",
          "type": "uint256"
        }
      ],
      "name": "safeTransferFrom",
      "outputs": [],
      "stateMutability": "nonpayable",
      "type": "function"
    },
    {
      "inputs": [
        {
          "internalType": "address",
          "name": "from",
          "type": "address"
        },
        {
          "internalType": "address",
          "name": "to",
          "type": "address"
        },
        {
          "internalType": "uint256",
          "name": "tokenId",
          "type": "uint256"
        },
        {
          "internalType": "bytes",
          "name": "data",
          "type": "bytes"
        }
      ],
      "name": "safeTransferFrom",
      "outputs": [],
      "stateMutability": "nonpayable",
      "type": "function"
    },
    {
      "inputs": [
        {
          "internalType": "uint256",
          "name": "_externalOrgOrTeamId",
          "type": "uint256"
        },
        {
          "internalType": "uint256",
          "name": "_sourceEntityId",
          "type": "uint256"
        },
        {
          "internalType": "uint8",
          "name": "_baseSharePerms",
          "type": "uint8"
        }
      ],
      "name": "sendInvite",
      "outputs": [],
      "stateMutability": "nonpayable",
      "type": "function"
    },
    {
      "inputs": [
        {
          "internalType": "address",
          "name": "_to",
          "type": "address"
        },
        {
          "internalType": "uint256",
          "name": "_sourceEntityId",
          "type": "uint256"
        },
        {
          "internalType": "uint8",
          "name": "_baseSharePerms",
          "type": "uint8"
        }
      ],
      "name": "sendInviteToIndividual",
      "outputs": [],
      "stateMutability": "nonpayable",
      "type": "function"
    },
    {
      "inputs": [
        {
          "internalType": "address",
          "name": "operator",
          "type": "address"
        },
        {
          "internalType": "bool",
          "name": "approved",
          "type": "bool"
        }
      ],
      "name": "setApprovalForAll",
      "outputs": [],
      "stateMutability": "nonpayable",
      "type": "function"
    },
    {
      "inputs": [
        {
          "internalType": "bytes4",
          "name": "interfaceId",
          "type": "bytes4"
        }
      ],
      "name": "supportsInterface",
      "outputs": [
        {
          "internalType": "bool",
          "name": "",
          "type": "bool"
        }
      ],
      "stateMutability": "view",
      "type": "function"
    },
    {
      "inputs": [],
      "name": "symbol",
      "outputs": [
        {
          "internalType": "string",
          "name": "",
          "type": "string"
        }
      ],
      "stateMutability": "view",
      "type": "function"
    },
    {
      "inputs": [
        {
          "internalType": "uint256",
          "name": "_inviteId",
          "type": "uint256"
        }
      ],
      "name": "testGrabInvite",
      "outputs": [],
      "stateMutability": "view",
      "type": "function"
    },
    {
      "inputs": [
        {
          "internalType": "uint256",
          "name": "tokenId",
          "type": "uint256"
        }
      ],
      "name": "tokenURI",
      "outputs": [
        {
          "internalType": "string",
          "name": "",
          "type": "string"
        }
      ],
      "stateMutability": "view",
      "type": "function"
    },
    {
      "inputs": [
        {
          "internalType": "address",
          "name": "from",
          "type": "address"
        },
        {
          "internalType": "address",
          "name": "to",
          "type": "address"
        },
        {
          "internalType": "uint256",
          "name": "tokenId",
          "type": "uint256"
        }
      ],
      "name": "transferFrom",
      "outputs": [],
      "stateMutability": "nonpayable",
      "type": "function"
    },
    {
      "inputs": [
        {
          "internalType": "address",
          "name": "newOwner",
          "type": "address"
        }
      ],
      "name": "transferOwnership",
      "outputs": [],
      "stateMutability": "nonpayable",
      "type": "function"
    }
  ],
  "bytecode": "0x60806040523480156200001157600080fd5b5060405162003d7e38038062003d7e833981016040819052620000349162000191565b806040518060400160405280600b81526020016a5368617265496e7669746560a81b81525060405180604001604052806002815260200161534960f01b815250620000866000620000f560201b60201c565b600162000094838262000268565b506002620000a3828262000268565b505050620000c0620000ba6200011760201b60201c565b6200013f565b600980546001600160a01b039283166001600160a01b031991821617909155600c805493909216921691909117905562000334565b600080546001600160a01b0319166001600160a01b0392909216919091179055565b600080546001600160a01b0316156200013a57506000546001600160a01b031690565b503390565b600880546001600160a01b038381166001600160a01b0319831681179093556040519116919082907f8be0079c531659141344cd1fd0a4f28419497f9722a3daafe3b4186f6b6457e090600090a35050565b600060208284031215620001a457600080fd5b81516001600160a01b0381168114620001bc57600080fd5b9392505050565b634e487b7160e01b600052604160045260246000fd5b600181811c90821680620001ee57607f821691505b6020821081036200020f57634e487b7160e01b600052602260045260246000fd5b50919050565b601f8211156200026357600081815260208120601f850160051c810160208610156200023e5750805b601f850160051c820191505b818110156200025f578281556001016200024a565b5050505b505050565b81516001600160401b03811115620002845762000284620001c3565b6200029c81620002958454620001d9565b8462000215565b602080601f831160018114620002d45760008415620002bb5750858301515b600019600386901b1c1916600185901b1785556200025f565b600085815260208120601f198616915b828110156200030557888601518255948401946001909101908401620002e4565b5085821015620003245787850151600019600388901b60f8161c191681555b5050505050600190811b01905550565b613a3a80620003446000396000f3fe608060405234801561001057600080fd5b50600436106101e55760003560e01c806380f760211161010f578063bf8e9176116100a2578063e293c61611610071578063e293c6161461048b578063e985e9c51461049e578063ead94b3f146104da578063f2fde38b146104ed57600080fd5b8063bf8e91761461044a578063c4e41b221461045d578063c87b56dd14610465578063e24f7f621461047857600080fd5b80639cd768b4116100de5780639cd768b4146103fe5780639d95f1cc14610411578063a22cb46514610424578063b88d4fde1461043757600080fd5b806380f76021146103b157806381fb5d4b146103c25780638da5cb5b146103e557806395d89b41146103f657600080fd5b806323b872dd116101875780634b4b98bd116101565780634b4b98bd146103625780636352211e1461037557806370a0823114610388578063715018a6146103a957600080fd5b806323b872dd146102a0578063313a9940146102b357806342842e0e146102ea57806345a1a2b8146102fd57600080fd5b8063081812fc116101c3578063081812fc1461023a578063095ea7b3146102655780630a75c0451461027a5780631615fd031461028d57600080fd5b806301750152146101ea57806301ffc9a71461021257806306fdde0314610225575b600080fd5b6101fd6101f8366004612fcd565b610500565b60405190151581526020015b60405180910390f35b6101fd610220366004613000565b6105aa565b61022d6105fa565b604051610209919061306d565b61024d610248366004613080565b61068c565b6040516001600160a01b039091168152602001610209565b610278610273366004613099565b6106b3565b005b610278610288366004613080565b6107df565b600c5461024d906001600160a01b031681565b6102786102ae3660046130c5565b6109f3565b6102c66102c136600461311e565b610a2b565b60408051825181526020928301516001600160a01b03169281019290925201610209565b6102786102f83660046130c5565b610d18565b61035061030b366004613080565b6007602052600090815260409020805460018201546002830154600384015460049094015492936001600160a01b039092169290919060ff8082169161010090041686565b6040516102099695949392919061318b565b610278610370366004613287565b610d33565b61024d610383366004613080565b610ea3565b61039b610396366004612fcd565b610f03565b604051908152602001610209565b610278610f89565b6009546001600160a01b031661024d565b6101fd6103d0366004612fcd565b600a6020526000908152604090205460ff1681565b6008546001600160a01b031661024d565b61022d610f9d565b61027861040c366004613080565b610fac565b61027861041f366004612fcd565b6111d0565b61027861043236600461337c565b6111fc565b6102786104453660046133b5565b61127d565b610278610458366004613080565b6112bc565b61039b6115a0565b61022d610473366004613080565b6115b0565b610278610486366004613080565b611624565b610278610499366004613432565b61186a565b6101fd6104ac366004613470565b6001600160a01b03918216600090815260066020908152604080832093909416825291909152205460ff1690565b6102786104e836600461349e565b6118e4565b6102786104fb366004612fcd565b611cec565b6009546000906001600160a01b031661053257506001600160a01b03166000908152600a602052604090205460ff1690565b60095460405162ba80a960e11b81526001600160a01b03848116600483015290911690630175015290602401602060405180830381865afa15801561057b573d6000803e3d6000fd5b505050506040513d601f19601f8201168201806040525081019061059f91906134ca565b92915050565b919050565b60006001600160e01b031982166380ac58cd60e01b14806105db57506001600160e01b03198216635b5e139f60e01b145b8061059f57506301ffc9a760e01b6001600160e01b031983161461059f565b606060018054610609906134e7565b80601f0160208091040260200160405190810160405280929190818152602001828054610635906134e7565b80156106825780601f1061065757610100808354040283529160200191610682565b820191906000526020600020905b81548152906001019060200180831161066557829003601f168201915b5050505050905090565b600061069782611d62565b506000908152600560205260409020546001600160a01b031690565b60006106be82610ea3565b9050806001600160a01b0316836001600160a01b0316036107305760405162461bcd60e51b815260206004820152602160248201527f4552433732313a20617070726f76616c20746f2063757272656e74206f776e656044820152603960f91b60648201526084015b60405180910390fd5b806001600160a01b0316610742611dc1565b6001600160a01b0316148061075e575061075e816104ac611dc1565b6107d05760405162461bcd60e51b815260206004820152603d60248201527f4552433732313a20617070726f76652063616c6c6572206973206e6f7420746f60448201527f6b656e206f776e6572206f7220617070726f76656420666f7220616c6c0000006064820152608401610727565b6107da8383611de8565b505050565b6000818152600360205260409020546001600160a01b031661083b5760405162461bcd60e51b8152602060048201526015602482015274496e7669746520646f65736e27742065786973742160581b6044820152606401610727565b600c546000828152600760205260409020600201546001600160a01b0390911690632129ce549061086a611dc1565b6040516001600160e01b031960e085901b16815260048101929092526001600160a01b0316602482015260016044820152606401602060405180830381865afa1580156108bb573d6000803e3d6000fd5b505050506040513d601f19601f820116820180604052508101906108df91906134ca565b6108fb5760405162461bcd60e51b81526004016107279061351b565b60008082815260076020526040902060040154610100900460ff16600381111561092757610927613153565b146109885760405162461bcd60e51b815260206004820152602b60248201527f43616e2774206465636c696e6520616e20696e7669746520746861742069736e60448201526a27742070656e64696e672160a81b6064820152608401610727565b6000818152600760205260409020600401805461ff0019166101001790557fe0a22322556e90b3585684e60a8c8efc33436262f809f873cd8e396235689eb0816109d0611dc1565b604080519283526001600160a01b0390911660208301520160405180910390a150565b610a046109fe611dc1565b82611e56565b610a205760405162461bcd60e51b815260040161072790613578565b6107da838383611ed5565b60408051808201909152600080825260208201526020820135610a4e83806135c5565b604051610a5c92919061360c565b604051809103902014610ac65760405162461bcd60e51b815260206004820152602c60248201527f546865206d657373616765206861736820646f65736e2774206d61746368207460448201526b6865206f726967696e616c2160a01b6064820152608401610727565b60007f6492649264926492649264926492649264926492649264926492649264926492610af660408501856135c5565b6020610b0560408801886135c5565b610b10929150613632565b90610b1e60408801886135c5565b610b2c949093929150613645565b610b359161366f565b149050600080610b4b6080860160608701612fcd565b6001600160a01b03163b1190508180610b615750805b15610bd957610b94610b796080860160608701612fcd565b6020860135610b8b60408801886135c5565b60016000612039565b610bd45760405162461bcd60e51b8152602060048201526011602482015270496e76616c6964207369676e617475726560781b6044820152606401610727565b610ceb565b6000610c3685602001356040517f19457468657265756d205369676e6564204d6573736167653a0a3332000000006020820152603c8101829052600090605c01604051602081830303815290604052805190602001209050919050565b90506000610c8582610c4b60408901896135c5565b8080601f0160208091040260200160405190810160405280939291908181526020018383808284376000920191909152506124d492505050565b9050610c976080870160608801612fcd565b6001600160a01b0316816001600160a01b031614610ce85760405162461bcd60e51b815260206004820152600e60248201526d24b73b30b634b21039b4b3b732b960911b6044820152606401610727565b50505b6000610cf785806135c5565b810190610d04919061368d565b9050610d0f816124f8565b50949350505050565b6107da8383836040518060200160405280600081525061127d565b610d3e6101f8611dc1565b610d8a5760405162461bcd60e51b815260206004820152601e60248201527f4e4f444548414e444c45523a205045524d495353494f4e5f44454e49454400006044820152606401610727565b6000610d9583610a2b565b60208101519091506001600160a01b0316331480610dbe575060208101516001600160a01b0316155b610e0a5760405162461bcd60e51b815260206004820152601e60248201527f4e4f444548414e444c45523a205045524d495353494f4e5f44454e49454400006044820152606401610727565b610e1333610500565b80610e3e5750610e296080840160608501612fcd565b6001600160a01b0316336001600160a01b0316145b610e8a5760405162461bcd60e51b815260206004820152601e60248201527f4e4f444548414e444c45523a205045524d495353494f4e5f44454e49454400006044820152606401610727565b6107da610e9d6080850160608601612fcd565b8361254b565b6000818152600360205260408120546001600160a01b03168061059f5760405162461bcd60e51b8152602060048201526018602482015277115490cdcc8c4e881a5b9d985b1a59081d1bdad95b88125160421b6044820152606401610727565b60006001600160a01b038216610f6d5760405162461bcd60e51b815260206004820152602960248201527f4552433732313a2061646472657373207a65726f206973206e6f7420612076616044820152683634b21037bbb732b960b91b6064820152608401610727565b506001600160a01b031660009081526004602052604090205490565b610f9161269a565b610f9b6000612713565b565b606060028054610609906134e7565b610fe06040518060400160405280600b81526020016a026a9a3a9a2a72222a91d160ad1b815250610fdb611dc1565b612765565b61102260405180604001604052806007815260200166027aba722a91d160cd1b815250610fdb836000908152600360205260409020546001600160a01b031690565b61105e60405180604001604052806004815260200163024a21d160e51b81525060076000848152602001908152602001600020600001546127aa565b60408051808201825260068152650232927a69d160d51b6020808301919091526000848152600790915291909120600101546110a391906001600160a01b0316612765565b6110e86040518060400160405280600d81526020016c022ac2a22a92720a627a9239d1609d1b81525060076000848152602001908152602001600020600201546127aa565b61112a6040518060400160405280600a815260200169029a7aaa921a2a4a21d160b51b81525060076000848152602001908152602001600020600301546127aa565b604080518082018252600c81526b02120a9a2a820a920a6a99d160a51b60208083019190915260008481526007909152919091206004015461116f919060ff166127aa565b6111cd60405180604001604052806008815260200167029aa20aa2aa99d160c51b8152506007600084815260200190815260200160002060040160019054906101000a900460ff1660038111156111c8576111c8613153565b6127aa565b50565b6111d861269a565b6001600160a01b03166000908152600a60205260409020805460ff19166001179055565b6001600160a01b0382166112675760405162461bcd60e51b815260206004820152602c60248201527f4552433732313a2061646472657373207a65726f206973206e6f74206120766160448201526b3634b21037b832b930ba37b960a11b6064820152608401610727565b611279611272611dc1565b83836127ef565b5050565b61128e611288611dc1565b83611e56565b6112aa5760405162461bcd60e51b815260040161072790613578565b6112b6848484846128bd565b50505050565b6000818152600360205260409020546001600160a01b03166113185760405162461bcd60e51b8152602060048201526015602482015274496e7669746520646f65736e27742065786973742160581b6044820152606401610727565b6113616040518060400160405280600e81526020016d024a72b24aa229027aba722a91d160951b815250610fdb836000908152600360205260409020546001600160a01b031690565b600c546000828152600760205260409020600201546001600160a01b0390911690632129ce5490611390611dc1565b6040516001600160e01b031960e085901b16815260048101929092526001600160a01b0316602482015260016044820152606401602060405180830381865afa1580156113e1573d6000803e3d6000fd5b505050506040513d601f19601f8201168201806040525081019061140591906134ca565b6114215760405162461bcd60e51b81526004016107279061351b565b60008082815260076020526040902060040154610100900460ff16600381111561144d5761144d613153565b146114ad5760405162461bcd60e51b815260206004820152602a60248201527f43616e27742061636365707420616e20696e7669746520746861742069736e27604482015269742070656e64696e672160b01b6064820152608401610727565b600c54600082815260076020526040908190206003810154600282015460049283015493516275167160e61b81526060956001600160a01b031694631d459c409461150294939260ff909216918891016136e3565b600060405180830381600087803b15801561151c57600080fd5b505af1158015611530573d6000803e3d6000fd5b5050506000838152600760205260409020600401805461ff001916610200179055507fea2a541d8aec9a94feec59f129de64d7d5b9a30636f0bd3b9d5be8337cb6aed28261157c611dc1565b604080519283526001600160a01b0390911660208301520160405180910390a15050565b60006115ab600b5490565b905090565b60606115bb82611d62565b60006115d260408051602081019091526000815290565b905060008151116115f2576040518060200160405280600081525061161d565b806115fc846128f0565b60405160200161160d92919061377b565b6040516020818303038152906040525b9392505050565b6000818152600360205260409020546001600160a01b03166116805760405162461bcd60e51b8152602060048201526015602482015274496e7669746520646f65736e27742065786973742160581b6044820152606401610727565b600c546000828152600760205260409020600301546001600160a01b0390911690632129ce54906116af611dc1565b6040516001600160e01b031960e085901b16815260048101929092526001600160a01b0316602482015260016044820152606401602060405180830381865afa158015611700573d6000803e3d6000fd5b505050506040513d601f19601f8201168201806040525081019061172491906134ca565b6117965760405162461bcd60e51b815260206004820152603660248201527f596f75206c61636b2073756666696369656e74207065726d697373696f6e732060448201527f746f207265766f6b65207468697320696e7669746521000000000000000000006064820152608401610727565b60008082815260076020526040902060040154610100900460ff1660038111156117c2576117c2613153565b146118225760405162461bcd60e51b815260206004820152602a60248201527f43616e2774207265766f6b6520616e20696e7669746520746861742069736e27604482015269742070656e64696e672160b01b6064820152608401610727565b6000818152600760205260409020600401805461ff0019166103001790557f8aec0db50e2fb503d8ef5d554809d700e2878a7431e522a5da1d94bf356dc438816109d0611dc1565b600c546040516304390faf60e51b81526001600160a01b0385811660048301526000921690638721f5e0906024016020604051808303816000875af11580156118b7573d6000803e3d6000fd5b505050506040513d601f19601f820116820180604052508101906118db91906137aa565b90506112b68184845b600c546001600160a01b0316632129ce54836118fe611dc1565b6040516001600160e01b031960e085901b16815260048101929092526001600160a01b0316602482015260016044820152606401602060405180830381865afa15801561194f573d6000803e3d6000fd5b505050506040513d601f19601f8201168201806040525081019061197391906134ca565b6119e55760405162461bcd60e51b815260206004820152603b60248201527f596f75206d6179206f6e6c7920736861726520746f20496e646976696475616c60448201527f732c204f7267616e697a6174696f6e732c206f72205465616d732100000000006064820152608401610727565b600c546001600160a01b0316632129ce54836119ff611dc1565b6040516001600160e01b031960e085901b16815260048101929092526001600160a01b0316602482015260016044820152606401602060405180830381865afa158015611a50573d6000803e3d6000fd5b505050506040513d601f19601f82011682018060405250810190611a7491906134ca565b80611b095750600c546001600160a01b0316632129ce5483611a94611dc1565b6040516001600160e01b031960e085901b16815260048101929092526001600160a01b0316602482015260086044820152606401602060405180830381865afa158015611ae5573d6000803e3d6000fd5b505050506040513d601f19601f82011682018060405250810190611b0991906134ca565b611b675760405162461bcd60e51b815260206004820152602960248201527f596f75206c61636b207065726d697373696f6e7320746f2073656e64207468696044820152687320696e766974652160b81b6064820152608401610727565b611b75600b80546001019055565b6000611b80600b5490565b9050611bb36040518060400160405280600f81526020016e02722ab9024a72b24aa229024a21d1608d1b815250826127aa565b611bc4611bbe611dc1565b82612983565b6040518060c00160405280828152602001611bdd611dc1565b6001600160a01b03168152602081018690526040810185905260ff841660608201526080016000905260008281526007602090815260409182902083518155908301516001820180546001600160a01b039092166001600160a01b03199092169190911790559082015160028201556060820151600380830191909155608083015160048301805460ff90921660ff1983168117825560a086015193919261ffff19161790610100908490811115611c9757611c97613153565b02179055509050507fbe84069be5da3deca5fa14f6918b3566846b6ff827fc4ab908809f2e8e3857d9611cc8611dc1565b8585856000604051611cde9594939291906137c3565b60405180910390a150505050565b611cf461269a565b6001600160a01b038116611d595760405162461bcd60e51b815260206004820152602660248201527f4f776e61626c653a206e6577206f776e657220697320746865207a65726f206160448201526564647265737360d01b6064820152608401610727565b6111cd81612713565b6000818152600360205260409020546001600160a01b03166111cd5760405162461bcd60e51b8152602060048201526018602482015277115490cdcc8c4e881a5b9d985b1a59081d1bdad95b88125160421b6044820152606401610727565b600080546001600160a01b031615611de357506000546001600160a01b031690565b503390565b600081815260056020526040902080546001600160a01b0319166001600160a01b0384169081179091558190611e1d82610ea3565b6001600160a01b03167f8c5be1e5ebec7d5bd14f71427d1e84f3dd0314c0f7b2291e5b200ac8c7c3b92560405160405180910390a45050565b600080611e6283610ea3565b9050806001600160a01b0316846001600160a01b03161480611ea957506001600160a01b0380821660009081526006602090815260408083209388168352929052205460ff165b80611ecd5750836001600160a01b0316611ec28461068c565b6001600160a01b0316145b949350505050565b826001600160a01b0316611ee882610ea3565b6001600160a01b031614611f0e5760405162461bcd60e51b8152600401610727906137f7565b6001600160a01b038216611f705760405162461bcd60e51b8152602060048201526024808201527f4552433732313a207472616e7366657220746f20746865207a65726f206164646044820152637265737360e01b6064820152608401610727565b826001600160a01b0316611f8382610ea3565b6001600160a01b031614611fa95760405162461bcd60e51b8152600401610727906137f7565b600081815260056020908152604080832080546001600160a01b03199081169091556001600160a01b0387811680865260048552838620805460001901905590871680865283862080546001019055868652600390945282852080549092168417909155905184937fddf252ad1be2c89b69c2b068fc378daa952ba7f163c4a11628f55a4df523b3ef91a4505050565b60006001600160a01b0387163b6060827f64926492649264926492649264926492649264926492649264926492649264928888612077602082613632565b612083928b9290613645565b61208c9161366f565b1490508015612163576000606089828a6120a7602082613632565b926120b493929190613645565b8101906120c1919061383c565b955090925090508415806120d25750865b1561215c57600080836001600160a01b0316836040516120f291906138b2565b6000604051808303816000865af19150503d806000811461212f576040519150601f19603f3d011682016040523d82523d6000602084013e612134565b606091505b5091509150816121595780604051639d0d6e2d60e01b8152600401610727919061306d565b50505b505061219d565b87878080601f0160208091040260200160405190810160405280939291908181526020018383808284376000920191909152509294505050505b80806121a95750600083115b1561230c57604051630b135d3f60e11b81526001600160a01b038b1690631626ba7e906121dc908c9086906004016138ce565b602060405180830381865afa925050508015612215575060408051601f3d908101601f19168201909252612212918101906138e7565b60015b612291573d808015612243576040519150601f19603f3d011682016040523d82523d6000602084013e612248565b606091505b50851580156122575750600084115b156122765761226b8b8b8b8b8b6001612039565b9450505050506124ca565b80604051636f2a959960e01b8152600401610727919061306d565b6001600160e01b03198116630b135d3f60e11b148015816122b0575086155b80156122bc5750600085115b156122dc576122d08c8c8c8c8c6001612039565b955050505050506124ca565b841580156122e75750825b80156122f1575087155b1561230057806000526001601ffd5b94506124ca9350505050565b604187146123825760405162461bcd60e51b815260206004820152603a60248201527f5369676e617475726556616c696461746f72237265636f7665725369676e657260448201527f3a20696e76616c6964207369676e6174757265206c656e6774680000000000006064820152608401610727565b60006123916020828a8c613645565b61239a9161366f565b905060006123ac604060208b8d613645565b6123b59161366f565b905060008a8a60408181106123cc576123cc613904565b919091013560f81c915050601b81148015906123ec57508060ff16601c14155b1561244f5760405162461bcd60e51b815260206004820152602d60248201527f5369676e617475726556616c696461746f723a20696e76616c6964207369676e60448201526c617475726520762076616c756560981b6064820152608401610727565b6040805160008152602081018083528e905260ff83169181019190915260608101849052608081018390526001600160a01b038e169060019060a0016020604051602081039080840390855afa1580156124ad573d6000803e3d6000fd5b505050602060405103516001600160a01b03161496505050505050505b9695505050505050565b60008060006124e3858561299d565b915091506124f0816129e2565b509392505050565b600043826000015110156125435760405162461bcd60e51b815260206004820152601260248201527113595cdcd859d9481a5cc8195e1c1a5c995960721b6044820152606401610727565b506001919050565b816001600160a01b0381166125ae5760405162461bcd60e51b815260206004820152602360248201527f436f6e746578743a206e6577436f6e74657874206973207a65726f206164647260448201526265737360e81b6064820152608401610727565b600080546001600160a01b0319166001600160a01b03831617905560005b825181101561268457600080306001600160a01b03168584815181106125f4576125f4613904565b602002602001015160405161260991906138b2565b600060405180830381855af49150503d8060008114612644576040519150601f19603f3d011682016040523d82523d6000602084013e612649565b606091505b509150915081819061266e5760405162461bcd60e51b8152600401610727919061306d565b505050808061267c9061391a565b9150506125cc565b50600080546001600160a01b0319169055505050565b6126a2611dc1565b6001600160a01b03166126bd6008546001600160a01b031690565b6001600160a01b031614610f9b5760405162461bcd60e51b815260206004820181905260248201527f4f776e61626c653a2063616c6c6572206973206e6f7420746865206f776e65726044820152606401610727565b600880546001600160a01b038381166001600160a01b0319831681179093556040519116919082907f8be0079c531659141344cd1fd0a4f28419497f9722a3daafe3b4186f6b6457e090600090a35050565b611279828260405160240161277b929190613933565b60408051601f198184030181529190526020810180516001600160e01b031663319af33360e01b179052612b2c565b61127982826040516024016127c092919061395e565b60408051601f198184030181529190526020810180516001600160e01b0316632d839cb360e21b179052612b2c565b816001600160a01b0316836001600160a01b0316036128505760405162461bcd60e51b815260206004820152601960248201527f4552433732313a20617070726f766520746f2063616c6c6572000000000000006044820152606401610727565b6001600160a01b03838116600081815260066020908152604080832094871680845294825291829020805460ff191686151590811790915591519182527f17307eab39ab6107e8899845ad3d59bd9653f200f220920489ca2b5937696c31910160405180910390a3505050565b6128c8848484611ed5565b6128d484848484612b35565b6112b65760405162461bcd60e51b815260040161072790613980565b606060006128fd83612c3d565b600101905060008167ffffffffffffffff81111561291d5761291d6131d0565b6040519080825280601f01601f191660200182016040528015612947576020820181803683370190505b5090508181016020015b600019016f181899199a1a9b1b9c1cb0b131b232b360811b600a86061a8153600a850494508461295157509392505050565b611279828260405180602001604052806000815250612d15565b60008082516041036129d35760208301516040840151606085015160001a6129c787828585612d48565b945094505050506129db565b506000905060025b9250929050565b60008160048111156129f6576129f6613153565b036129fe5750565b6001816004811115612a1257612a12613153565b03612a5f5760405162461bcd60e51b815260206004820152601860248201527f45434453413a20696e76616c6964207369676e617475726500000000000000006044820152606401610727565b6002816004811115612a7357612a73613153565b03612ac05760405162461bcd60e51b815260206004820152601f60248201527f45434453413a20696e76616c6964207369676e6174757265206c656e677468006044820152606401610727565b6003816004811115612ad457612ad4613153565b036111cd5760405162461bcd60e51b815260206004820152602260248201527f45434453413a20696e76616c6964207369676e6174757265202773272076616c604482015261756560f01b6064820152608401610727565b6111cd81612e0c565b60006001600160a01b0384163b15612c3257836001600160a01b031663150b7a02612b5e611dc1565b8786866040518563ffffffff1660e01b8152600401612b8094939291906139d2565b6020604051808303816000875af1925050508015612bbb575060408051601f3d908101601f19168201909252612bb8918101906138e7565b60015b612c18573d808015612be9576040519150601f19603f3d011682016040523d82523d6000602084013e612bee565b606091505b508051600003612c105760405162461bcd60e51b815260040161072790613980565b805181602001fd5b6001600160e01b031916630a85bd0160e11b149050611ecd565b506001949350505050565b60008072184f03e93ff9f4daa797ed6e38ed64bf6a1f0160401b8310612c7c5772184f03e93ff9f4daa797ed6e38ed64bf6a1f0160401b830492506040015b6d04ee2d6d415b85acef81000000008310612ca8576d04ee2d6d415b85acef8100000000830492506020015b662386f26fc100008310612cc657662386f26fc10000830492506010015b6305f5e1008310612cde576305f5e100830492506008015b6127108310612cf257612710830492506004015b60648310612d04576064830492506002015b600a831061059f5760010192915050565b612d1f8383612e2d565b612d2c6000848484612b35565b6107da5760405162461bcd60e51b815260040161072790613980565b6000807f7fffffffffffffffffffffffffffffff5d576e7357a4501ddfe92f46681b20a0831115612d7f5750600090506003612e03565b6040805160008082526020820180845289905260ff881692820192909252606081018690526080810185905260019060a0016020604051602081039080840390855afa158015612dd3573d6000803e3d6000fd5b5050604051601f1901519150506001600160a01b038116612dfc57600060019250925050612e03565b9150600090505b94509492505050565b60006a636f6e736f6c652e6c6f679050600080835160208501845afa505050565b6001600160a01b038216612e835760405162461bcd60e51b815260206004820181905260248201527f4552433732313a206d696e7420746f20746865207a65726f20616464726573736044820152606401610727565b6000818152600360205260409020546001600160a01b031615612ee85760405162461bcd60e51b815260206004820152601c60248201527f4552433732313a20746f6b656e20616c7265616479206d696e746564000000006044820152606401610727565b6000818152600360205260409020546001600160a01b031615612f4d5760405162461bcd60e51b815260206004820152601c60248201527f4552433732313a20746f6b656e20616c7265616479206d696e746564000000006044820152606401610727565b6001600160a01b038216600081815260046020908152604080832080546001019055848352600390915280822080546001600160a01b0319168417905551839291907fddf252ad1be2c89b69c2b068fc378daa952ba7f163c4a11628f55a4df523b3ef908290a45050565b6001600160a01b03811681146111cd57600080fd5b600060208284031215612fdf57600080fd5b813561161d81612fb8565b6001600160e01b0319811681146111cd57600080fd5b60006020828403121561301257600080fd5b813561161d81612fea565b60005b83811015613038578181015183820152602001613020565b50506000910152565b6000815180845261305981602086016020860161301d565b601f01601f19169290920160200192915050565b60208152600061161d6020830184613041565b60006020828403121561309257600080fd5b5035919050565b600080604083850312156130ac57600080fd5b82356130b781612fb8565b946020939093013593505050565b6000806000606084860312156130da57600080fd5b83356130e581612fb8565b925060208401356130f581612fb8565b929592945050506040919091013590565b60006080828403121561311857600080fd5b50919050565b60006020828403121561313057600080fd5b813567ffffffffffffffff81111561314757600080fd5b611ecd84828501613106565b634e487b7160e01b600052602160045260246000fd5b6004811061318757634e487b7160e01b600052602160045260246000fd5b9052565b8681526001600160a01b0386166020820152604081018590526060810184905260ff8316608082015260c081016131c560a0830184613169565b979650505050505050565b634e487b7160e01b600052604160045260246000fd5b604051601f8201601f1916810167ffffffffffffffff8111828210171561320f5761320f6131d0565b604052919050565b600082601f83011261322857600080fd5b813567ffffffffffffffff811115613242576132426131d0565b613255601f8201601f19166020016131e6565b81815284602083860101111561326a57600080fd5b816020850160208301376000918101602001919091529392505050565b6000806040838503121561329a57600080fd5b823567ffffffffffffffff808211156132b257600080fd5b6132be86838701613106565b93506020915081850135818111156132d557600080fd5b8501601f810187136132e657600080fd5b8035828111156132f8576132f86131d0565b8060051b6133078582016131e6565b918252828101850191858101908a84111561332157600080fd5b86850192505b8383101561335d5782358681111561333f5760008081fd5b61334d8c8983890101613217565b8352509186019190860190613327565b809750505050505050509250929050565b80151581146111cd57600080fd5b6000806040838503121561338f57600080fd5b823561339a81612fb8565b915060208301356133aa8161336e565b809150509250929050565b600080600080608085870312156133cb57600080fd5b84356133d681612fb8565b935060208501356133e681612fb8565b925060408501359150606085013567ffffffffffffffff81111561340957600080fd5b61341587828801613217565b91505092959194509250565b803560ff811681146105a557600080fd5b60008060006060848603121561344757600080fd5b833561345281612fb8565b92506020840135915061346760408501613421565b90509250925092565b6000806040838503121561348357600080fd5b823561348e81612fb8565b915060208301356133aa81612fb8565b6000806000606084860312156134b357600080fd5b833592506020840135915061346760408501613421565b6000602082840312156134dc57600080fd5b815161161d8161336e565b600181811c908216806134fb57607f821691505b60208210810361311857634e487b7160e01b600052602260045260246000fd5b60208082526036908201527f596f75206c61636b2073756666696369656e74207065726d697373696f6e732060408201527f746f20616363657074207468697320696e766974652100000000000000000000606082015260800190565b6020808252602d908201527f4552433732313a2063616c6c6572206973206e6f7420746f6b656e206f776e6560408201526c1c881bdc88185c1c1c9bdd9959609a1b606082015260800190565b6000808335601e198436030181126135dc57600080fd5b83018035915067ffffffffffffffff8211156135f757600080fd5b6020019150368190038213156129db57600080fd5b8183823760009101908152919050565b634e487b7160e01b600052601160045260246000fd5b8181038181111561059f5761059f61361c565b6000808585111561365557600080fd5b8386111561366257600080fd5b5050820193919092039150565b8035602083101561059f57600019602084900360031b1b1692915050565b60006040828403121561369f57600080fd5b6040516040810181811067ffffffffffffffff821117156136c2576136c26131d0565b6040528235815260208301356136d781612fb8565b60208201529392505050565b8481526000602060a081840152600960a0840152684e657720536861726560b81b60c084015260e083016040878186015260ff808816606087015260e0608087015282875180855261010088019150858901945060005b8181101561376a57855180516001600160a01b03168452870151841687840152948601949184019160010161373a565b50909b9a5050505050505050505050565b6000835161378d81846020880161301d565b8351908301906137a181836020880161301d565b01949350505050565b6000602082840312156137bc57600080fd5b5051919050565b6001600160a01b0386168152602081018590526040810184905260ff8316606082015260a081016124ca6080830184613169565b60208082526025908201527f4552433732313a207472616e736665722066726f6d20696e636f72726563742060408201526437bbb732b960d91b606082015260800190565b60008060006060848603121561385157600080fd5b833561385c81612fb8565b9250602084013567ffffffffffffffff8082111561387957600080fd5b61388587838801613217565b9350604086013591508082111561389b57600080fd5b506138a886828701613217565b9150509250925092565b600082516138c481846020870161301d565b9190910192915050565b828152604060208201526000611ecd6040830184613041565b6000602082840312156138f957600080fd5b815161161d81612fea565b634e487b7160e01b600052603260045260246000fd5b60006001820161392c5761392c61361c565b5060010190565b6040815260006139466040830185613041565b90506001600160a01b03831660208301529392505050565b6040815260006139716040830185613041565b90508260208301529392505050565b60208082526032908201527f4552433732313a207472616e7366657220746f206e6f6e20455243373231526560408201527131b2b4bb32b91034b6b83632b6b2b73a32b960711b606082015260800190565b60006001600160a01b038087168352808616602084015250836040830152608060608301526124ca608083018461304156fea26469706673582212206bb73778156d51e59db2a7f252b9bb55d6f594f23024a708a01c943132153e3e64736f6c63430008130033",
  "linkReferences": {},
  "deployedLinkReferences": {}
}