{
  "_format": "hh-sol-artifact-1",
  "contractName": "$NodeHandler",
  "sourceName": "contracts-exposed/CNodeHandler.sol",
  "abi": [
    {
      "inputs": [
        {
          "internalType": "address",
          "name": "_parent",
          "type": "address"
        }
      ],
      "stateMutability": "payable",
      "type": "constructor"
    },
    {
      "anonymous": false,
      "inputs": [
        {
          "indexed": true,
          "internalType": "address",
          "name": "previousOwner",
          "type": "address"
        },
        {
          "indexed": true,
          "internalType": "address",
          "name": "newOwner",
          "type": "address"
        }
      ],
      "name": "OwnershipTransferred",
      "type": "event"
    },
    {
      "inputs": [],
      "name": "$_checkOwner",
      "outputs": [],
      "stateMutability": "view",
      "type": "function"
    },
    {
      "inputs": [],
      "name": "$_msgData",
      "outputs": [
        {
          "internalType": "bytes",
          "name": "ret0",
          "type": "bytes"
        }
      ],
      "stateMutability": "view",
      "type": "function"
    },
    {
      "inputs": [],
      "name": "$_msgSender",
      "outputs": [
        {
          "internalType": "address",
          "name": "ret0",
          "type": "address"
        }
      ],
      "stateMutability": "view",
      "type": "function"
    },
    {
      "inputs": [
        {
          "internalType": "address",
          "name": "newOwner",
          "type": "address"
        }
      ],
      "name": "$_transferOwnership",
      "outputs": [],
      "stateMutability": "nonpayable",
      "type": "function"
    },
    {
      "inputs": [
        {
          "components": [
            {
              "internalType": "uint256",
              "name": "blockNumber",
              "type": "uint256"
            },
            {
              "internalType": "address",
              "name": "nodeAddress",
              "type": "address"
            }
          ],
          "internalType": "struct SignatureVerifier.EncodedMessage",
          "name": "_encodedMessage",
          "type": "tuple"
        }
      ],
      "name": "$checkMessageValidity",
      "outputs": [
        {
          "internalType": "bool",
          "name": "ret0",
          "type": "bool"
        }
      ],
      "stateMutability": "view",
      "type": "function"
    },
    {
      "inputs": [
        {
          "internalType": "bytes32",
          "name": "_messageHash",
          "type": "bytes32"
        }
      ],
      "name": "$getEthSignedMessageHash",
      "outputs": [
        {
          "internalType": "bytes32",
          "name": "ret0",
          "type": "bytes32"
        }
      ],
      "stateMutability": "pure",
      "type": "function"
    },
    {
      "inputs": [
        {
          "internalType": "bytes",
          "name": "_data",
          "type": "bytes"
        }
      ],
      "name": "$getMessageHash",
      "outputs": [
        {
          "internalType": "bytes32",
          "name": "ret0",
          "type": "bytes32"
        }
      ],
      "stateMutability": "pure",
      "type": "function"
    },
    {
      "inputs": [],
      "name": "__hh_exposed_bytecode_marker",
      "outputs": [
        {
          "internalType": "bytes32",
          "name": "",
          "type": "bytes32"
        }
      ],
      "stateMutability": "view",
      "type": "function"
    },
    {
      "inputs": [
        {
          "internalType": "address",
          "name": "node",
          "type": "address"
        }
      ],
      "name": "_nodes",
      "outputs": [
        {
          "internalType": "bool",
          "name": "isNode",
          "type": "bool"
        }
      ],
      "stateMutability": "view",
      "type": "function"
    },
    {
      "inputs": [
        {
          "internalType": "address",
          "name": "node",
          "type": "address"
        }
      ],
      "name": "addNode",
      "outputs": [],
      "stateMutability": "nonpayable",
      "type": "function"
    },
    {
      "inputs": [
        {
          "components": [
            {
              "internalType": "bytes",
              "name": "encodedMessage",
              "type": "bytes"
            },
            {
              "internalType": "bytes32",
              "name": "messageHash",
              "type": "bytes32"
            },
            {
              "internalType": "bytes",
              "name": "signature",
              "type": "bytes"
            },
            {
              "internalType": "address",
              "name": "signer",
              "type": "address"
            }
          ],
          "internalType": "struct SignatureVerifier.Signature",
          "name": "_signature",
          "type": "tuple"
        }
      ],
      "name": "checkSignature",
      "outputs": [
        {
          "components": [
            {
              "internalType": "uint256",
              "name": "blockNumber",
              "type": "uint256"
            },
            {
              "internalType": "address",
              "name": "nodeAddress",
              "type": "address"
            }
          ],
          "internalType": "struct SignatureVerifier.EncodedMessage",
          "name": "",
          "type": "tuple"
        }
      ],
      "stateMutability": "view",
      "type": "function"
    },
    {
      "inputs": [
        {
          "components": [
            {
              "internalType": "bytes",
              "name": "encodedMessage",
              "type": "bytes"
            },
            {
              "internalType": "bytes32",
              "name": "messageHash",
              "type": "bytes32"
            },
            {
              "internalType": "bytes",
              "name": "signature",
              "type": "bytes"
            },
            {
              "internalType": "address",
              "name": "signer",
              "type": "address"
            }
          ],
          "internalType": "struct SignatureVerifier.Signature",
          "name": "signature",
          "type": "tuple"
        },
        {
          "internalType": "bytes[]",
          "name": "_calldata",
          "type": "bytes[]"
        }
      ],
      "name": "delegateCallsToSelf",
      "outputs": [],
      "stateMutability": "nonpayable",
      "type": "function"
    },
    {
      "inputs": [],
      "name": "getParent",
      "outputs": [
        {
          "internalType": "address",
          "name": "",
          "type": "address"
        }
      ],
      "stateMutability": "view",
      "type": "function"
    },
    {
      "inputs": [
        {
          "internalType": "address",
          "name": "node",
          "type": "address"
        }
      ],
      "name": "isNode",
      "outputs": [
        {
          "internalType": "bool",
          "name": "",
          "type": "bool"
        }
      ],
      "stateMutability": "view",
      "type": "function"
    },
    {
      "inputs": [],
      "name": "owner",
      "outputs": [
        {
          "internalType": "address",
          "name": "",
          "type": "address"
        }
      ],
      "stateMutability": "view",
      "type": "function"
    },
    {
      "inputs": [],
      "name": "renounceOwnership",
      "outputs": [],
      "stateMutability": "nonpayable",
      "type": "function"
    },
    {
      "inputs": [
        {
          "internalType": "address",
          "name": "newOwner",
          "type": "address"
        }
      ],
      "name": "transferOwnership",
      "outputs": [],
      "stateMutability": "nonpayable",
      "type": "function"
    },
    {
      "stateMutability": "payable",
      "type": "receive"
    }
  ],
  "bytecode": "0x608060405260405161137e38038061137e833981016040819052610022916100e2565b600080546001600160a01b03191690558061004361003e610069565b610090565b600280546001600160a01b0319166001600160a01b039290921691909117905550610112565b600080546001600160a01b03161561008b57506000546001600160a01b031690565b503390565b600180546001600160a01b038381166001600160a01b0319831681179093556040519116919082907f8be0079c531659141344cd1fd0a4f28419497f9722a3daafe3b4186f6b6457e090600090a35050565b6000602082840312156100f457600080fd5b81516001600160a01b038116811461010b57600080fd5b9392505050565b61125d806101216000396000f3fe6080604052600436106101025760003560e01c80637b77958d116100955780639d95f1cc116100645780639d95f1cc146102ed578063bc1facf41461030d578063ebcca7071461032d578063f2fde38b14610342578063fe1c9a241461036257600080fd5b80637b77958d1461026157806380f760211461028157806381fb5d4b1461029f5780638da5cb5b146102cf57600080fd5b806332cadf3c116100d157806332cadf3c146101d4578063342db739146101f65780634b4b98bd1461022a578063715018a61461024c57600080fd5b8063017501521461010e5780631a67bf94146101435780632904df2914610163578063313a99401461019057600080fd5b3661010957005b600080fd5b34801561011a57600080fd5b5061012e610129366004610d2c565b610382565b60405190151581526020015b60405180910390f35b34801561014f57600080fd5b5061012e61015e366004610d49565b610427565b34801561016f57600080fd5b50610178610440565b6040516001600160a01b03909116815260200161013a565b34801561019c57600080fd5b506101b06101ab366004610ee9565b61044f565b60408051825181526020928301516001600160a01b0316928101929092520161013a565b3480156101e057600080fd5b506101e9610587565b60405161013a9190610f76565b34801561020257600080fd5b5061021c6e1a185c991a185d0b595e1c1bdcd959608a1b81565b60405190815260200161013a565b34801561023657600080fd5b5061024a610245366004610f89565b6105c6565b005b34801561025857600080fd5b5061024a610695565b34801561026d57600080fd5b5061021c61027c366004611070565b6106a9565b34801561028d57600080fd5b506002546001600160a01b0316610178565b3480156102ab57600080fd5b5061012e6102ba366004610d2c565b60036020526000908152604090205460ff1681565b3480156102db57600080fd5b506001546001600160a01b0316610178565b3480156102f957600080fd5b5061024a610308366004610d2c565b6106b4565b34801561031957600080fd5b5061021c610328366004611089565b6106e0565b34801561033957600080fd5b5061024a610728565b34801561034e57600080fd5b5061024a61035d366004610d2c565b610730565b34801561036e57600080fd5b5061024a61037d366004610d2c565b61079d565b6002546000906001600160a01b03166103b457506001600160a01b031660009081526003602052604090205460ff1690565b60025460405162ba80a960e11b81526001600160a01b03848116600483015290911690630175015290602401602060405180830381865afa1580156103fd573d6000803e3d6000fd5b505050506040513d601f19601f8201168201806040525081019061042191906110fb565b92915050565b600061042161043b3684900384018461111d565b6107a9565b600061044a6107fc565b905090565b60408051808201909152600080825260208201526020820151825161047990805160209091012090565b146104e05760405162461bcd60e51b815260206004820152602c60248201527f546865206d657373616765206861736820646f65736e2774206d61746368207460448201526b6865206f726967696e616c2160a01b60648201526084015b60405180910390fd5b60006104ef836020015161082e565b90506000610501828560400151610881565b905083606001516001600160a01b0316816001600160a01b0316146105595760405162461bcd60e51b815260206004820152600e60248201526d24b73b30b634b21039b4b3b732b960911b60448201526064016104d7565b600084600001518060200190518101906105739190611155565b905061057e816107a9565b50949350505050565b60606000368080601f01602080910402602001604051908101604052809392919081815260200183838082843760009201919091525092949350505050565b6105d16101296107fc565b6105ed5760405162461bcd60e51b81526004016104d790611181565b60006105f88361044f565b60208101519091506001600160a01b0316331480610621575060208101516001600160a01b0316155b61063d5760405162461bcd60e51b81526004016104d790611181565b61064633610382565b80610666575082606001516001600160a01b0316336001600160a01b0316145b6106825760405162461bcd60e51b81526004016104d790611181565b6106908360600151836108a5565b505050565b61069d6109d7565b6106a76000610a50565b565b60006104218261082e565b6106bc6109d7565b6001600160a01b03166000908152600360205260409020805460ff19166001179055565b600061072183838080601f01602080910402602001604051908101604052809392919081815260200183838082843760009201919091525061082392505050565b9392505050565b6106a76109d7565b6107386109d7565b6001600160a01b03811661079d5760405162461bcd60e51b815260206004820152602660248201527f4f776e61626c653a206e6577206f776e657220697320746865207a65726f206160448201526564647265737360d01b60648201526084016104d7565b6107a681610a50565b50565b600043826000015110156107f45760405162461bcd60e51b815260206004820152601260248201527113595cdcd859d9481a5cc8195e1c1a5c995960721b60448201526064016104d7565b506001919050565b600080546001600160a01b03161561081e57506000546001600160a01b031690565b503390565b805160209091012090565b6040517f19457468657265756d205369676e6564204d6573736167653a0a3332000000006020820152603c8101829052600090605c01604051602081830303815290604052805190602001209050919050565b60008060006108908585610aa2565b9150915061089d81610ae7565b509392505050565b816001600160a01b0381166109085760405162461bcd60e51b815260206004820152602360248201527f436f6e746578743a206e6577436f6e74657874206973207a65726f206164647260448201526265737360e81b60648201526084016104d7565b61091181610c31565b60005b82518110156109cc57600080306001600160a01b031685848151811061093c5761093c6111b8565b602002602001015160405161095191906111ce565b600060405180830381855af49150503d806000811461098c576040519150601f19603f3d011682016040523d82523d6000602084013e610991565b606091505b50915091508181906109b65760405162461bcd60e51b81526004016104d79190610f76565b50505080806109c4906111ea565b915050610914565b506106906000610c31565b6109df6107fc565b6001600160a01b03166109fa6001546001600160a01b031690565b6001600160a01b0316146106a75760405162461bcd60e51b815260206004820181905260248201527f4f776e61626c653a2063616c6c6572206973206e6f7420746865206f776e657260448201526064016104d7565b600180546001600160a01b038381166001600160a01b0319831681179093556040519116919082907f8be0079c531659141344cd1fd0a4f28419497f9722a3daafe3b4186f6b6457e090600090a35050565b6000808251604103610ad85760208301516040840151606085015160001a610acc87828585610c53565b94509450505050610ae0565b506000905060025b9250929050565b6000816004811115610afb57610afb611211565b03610b035750565b6001816004811115610b1757610b17611211565b03610b645760405162461bcd60e51b815260206004820152601860248201527f45434453413a20696e76616c6964207369676e6174757265000000000000000060448201526064016104d7565b6002816004811115610b7857610b78611211565b03610bc55760405162461bcd60e51b815260206004820152601f60248201527f45434453413a20696e76616c6964207369676e6174757265206c656e6774680060448201526064016104d7565b6003816004811115610bd957610bd9611211565b036107a65760405162461bcd60e51b815260206004820152602260248201527f45434453413a20696e76616c6964207369676e6174757265202773272076616c604482015261756560f01b60648201526084016104d7565b600080546001600160a01b0319166001600160a01b0392909216919091179055565b6000807f7fffffffffffffffffffffffffffffff5d576e7357a4501ddfe92f46681b20a0831115610c8a5750600090506003610d0e565b6040805160008082526020820180845289905260ff881692820192909252606081018690526080810185905260019060a0016020604051602081039080840390855afa158015610cde573d6000803e3d6000fd5b5050604051601f1901519150506001600160a01b038116610d0757600060019250925050610d0e565b9150600090505b94509492505050565b6001600160a01b03811681146107a657600080fd5b600060208284031215610d3e57600080fd5b813561072181610d17565b600060408284031215610d5b57600080fd5b50919050565b634e487b7160e01b600052604160045260246000fd5b6040805190810167ffffffffffffffff81118282101715610d9a57610d9a610d61565b60405290565b604051601f8201601f1916810167ffffffffffffffff81118282101715610dc957610dc9610d61565b604052919050565b600082601f830112610de257600080fd5b813567ffffffffffffffff811115610dfc57610dfc610d61565b610e0f601f8201601f1916602001610da0565b818152846020838601011115610e2457600080fd5b816020850160208301376000918101602001919091529392505050565b600060808284031215610e5357600080fd5b6040516080810167ffffffffffffffff8282108183111715610e7757610e77610d61565b816040528293508435915080821115610e8f57600080fd5b610e9b86838701610dd1565b8352602085013560208401526040850135915080821115610ebb57600080fd5b50610ec885828601610dd1565b6040830152506060830135610edc81610d17565b6060919091015292915050565b600060208284031215610efb57600080fd5b813567ffffffffffffffff811115610f1257600080fd5b610f1e84828501610e41565b949350505050565b60005b83811015610f41578181015183820152602001610f29565b50506000910152565b60008151808452610f62816020860160208601610f26565b601f01601f19169290920160200192915050565b6020815260006107216020830184610f4a565b60008060408385031215610f9c57600080fd5b823567ffffffffffffffff80821115610fb457600080fd5b610fc086838701610e41565b9350602091508185013581811115610fd757600080fd5b8501601f81018713610fe857600080fd5b803582811115610ffa57610ffa610d61565b8060051b611009858201610da0565b918252828101850191858101908a84111561102357600080fd5b86850192505b8383101561105f578235868111156110415760008081fd5b61104f8c8983890101610dd1565b8352509186019190860190611029565b809750505050505050509250929050565b60006020828403121561108257600080fd5b5035919050565b6000806020838503121561109c57600080fd5b823567ffffffffffffffff808211156110b457600080fd5b818501915085601f8301126110c857600080fd5b8135818111156110d757600080fd5b8660208285010111156110e957600080fd5b60209290920196919550909350505050565b60006020828403121561110d57600080fd5b8151801515811461072157600080fd5b60006040828403121561112f57600080fd5b611137610d77565b82358152602083013561114981610d17565b60208201529392505050565b60006040828403121561116757600080fd5b61116f610d77565b82518152602083015161114981610d17565b6020808252601e908201527f4e4f444548414e444c45523a205045524d495353494f4e5f44454e4945440000604082015260600190565b634e487b7160e01b600052603260045260246000fd5b600082516111e0818460208701610f26565b9190910192915050565b60006001820161120a57634e487b7160e01b600052601160045260246000fd5b5060010190565b634e487b7160e01b600052602160045260246000fdfea264697066735822122090ef40ffd886e3dba1c565c94e1ceb57ff3b1c4670f07217adb2beeb5648315e64736f6c63430008130033",
  "linkReferences": {},
  "deployedLinkReferences": {}
}