{
  "_format": "hh-sol-artifact-1",
  "contractName": "Organisations",
  "sourceName": "contracts/COrganisation.sol",
  "abi": [
    {
      "inputs": [],
      "stateMutability": "nonpayable",
      "type": "constructor"
    },
    {
      "anonymous": false,
      "inputs": [
        {
          "indexed": true,
          "internalType": "address",
          "name": "owner",
          "type": "address"
        },
        {
          "indexed": true,
          "internalType": "address",
          "name": "approved",
          "type": "address"
        },
        {
          "indexed": true,
          "internalType": "uint256",
          "name": "tokenId",
          "type": "uint256"
        }
      ],
      "name": "Approval",
      "type": "event"
    },
    {
      "anonymous": false,
      "inputs": [
        {
          "indexed": true,
          "internalType": "address",
          "name": "owner",
          "type": "address"
        },
        {
          "indexed": true,
          "internalType": "address",
          "name": "operator",
          "type": "address"
        },
        {
          "indexed": false,
          "internalType": "bool",
          "name": "approved",
          "type": "bool"
        }
      ],
      "name": "ApprovalForAll",
      "type": "event"
    },
    {
      "anonymous": false,
      "inputs": [
        {
          "indexed": true,
          "internalType": "uint256",
          "name": "orgId",
          "type": "uint256"
        },
        {
          "indexed": true,
          "internalType": "address",
          "name": "to",
          "type": "address"
        }
      ],
      "name": "OrganisationCreated",
      "type": "event"
    },
    {
      "anonymous": false,
      "inputs": [
        {
          "indexed": true,
          "internalType": "address",
          "name": "previousOwner",
          "type": "address"
        },
        {
          "indexed": true,
          "internalType": "address",
          "name": "newOwner",
          "type": "address"
        }
      ],
      "name": "OwnershipTransferred",
      "type": "event"
    },
    {
      "anonymous": false,
      "inputs": [
        {
          "indexed": true,
          "internalType": "uint256",
          "name": "orgId",
          "type": "uint256"
        },
        {
          "indexed": true,
          "internalType": "address",
          "name": "account",
          "type": "address"
        },
        {
          "indexed": false,
          "internalType": "enum IOrganisation.EPermissions",
          "name": "newPermission",
          "type": "uint8"
        }
      ],
      "name": "PermissionsUpdated",
      "type": "event"
    },
    {
      "anonymous": false,
      "inputs": [
        {
          "indexed": true,
          "internalType": "address",
          "name": "from",
          "type": "address"
        },
        {
          "indexed": true,
          "internalType": "address",
          "name": "to",
          "type": "address"
        },
        {
          "indexed": true,
          "internalType": "uint256",
          "name": "tokenId",
          "type": "uint256"
        }
      ],
      "name": "Transfer",
      "type": "event"
    },
    {
      "inputs": [
        {
          "internalType": "address",
          "name": "node",
          "type": "address"
        }
      ],
      "name": "_nodes",
      "outputs": [
        {
          "internalType": "bool",
          "name": "isNode",
          "type": "bool"
        }
      ],
      "stateMutability": "view",
      "type": "function"
    },
    {
      "inputs": [
        {
          "internalType": "address",
          "name": "node",
          "type": "address"
        }
      ],
      "name": "addNode",
      "outputs": [],
      "stateMutability": "nonpayable",
      "type": "function"
    },
    {
      "inputs": [
        {
          "internalType": "address",
          "name": "to",
          "type": "address"
        },
        {
          "internalType": "uint256",
          "name": "tokenId",
          "type": "uint256"
        }
      ],
      "name": "approve",
      "outputs": [],
      "stateMutability": "nonpayable",
      "type": "function"
    },
    {
      "inputs": [
        {
          "internalType": "address",
          "name": "owner",
          "type": "address"
        }
      ],
      "name": "balanceOf",
      "outputs": [
        {
          "internalType": "uint256",
          "name": "",
          "type": "uint256"
        }
      ],
      "stateMutability": "view",
      "type": "function"
    },
    {
      "inputs": [
        {
          "components": [
            {
              "internalType": "bytes",
              "name": "encodedMessage",
              "type": "bytes"
            },
            {
              "internalType": "bytes32",
              "name": "messageHash",
              "type": "bytes32"
            },
            {
              "internalType": "bytes",
              "name": "signature",
              "type": "bytes"
            },
            {
              "internalType": "address",
              "name": "signer",
              "type": "address"
            }
          ],
          "internalType": "struct SignatureVerifier.Signature",
          "name": "_signature",
          "type": "tuple"
        }
      ],
      "name": "checkSignature",
      "outputs": [
        {
          "components": [
            {
              "internalType": "uint256",
              "name": "blockNumber",
              "type": "uint256"
            },
            {
              "internalType": "address",
              "name": "nodeAddress",
              "type": "address"
            }
          ],
          "internalType": "struct SignatureVerifier.EncodedMessage",
          "name": "",
          "type": "tuple"
        }
      ],
      "stateMutability": "view",
      "type": "function"
    },
    {
      "inputs": [
        {
          "internalType": "address",
          "name": "to",
          "type": "address"
        }
      ],
      "name": "createOrganisation",
      "outputs": [
        {
          "internalType": "uint256",
          "name": "newOrgId",
          "type": "uint256"
        }
      ],
      "stateMutability": "nonpayable",
      "type": "function"
    },
    {
      "inputs": [
        {
          "components": [
            {
              "internalType": "bytes",
              "name": "encodedMessage",
              "type": "bytes"
            },
            {
              "internalType": "bytes32",
              "name": "messageHash",
              "type": "bytes32"
            },
            {
              "internalType": "bytes",
              "name": "signature",
              "type": "bytes"
            },
            {
              "internalType": "address",
              "name": "signer",
              "type": "address"
            }
          ],
          "internalType": "struct SignatureVerifier.Signature",
          "name": "signature",
          "type": "tuple"
        },
        {
          "internalType": "bytes[]",
          "name": "_calldata",
          "type": "bytes[]"
        }
      ],
      "name": "delegateCallsToSelf",
      "outputs": [],
      "stateMutability": "nonpayable",
      "type": "function"
    },
    {
      "inputs": [
        {
          "internalType": "uint256",
          "name": "tokenId",
          "type": "uint256"
        }
      ],
      "name": "getApproved",
      "outputs": [
        {
          "internalType": "address",
          "name": "",
          "type": "address"
        }
      ],
      "stateMutability": "view",
      "type": "function"
    },
    {
      "inputs": [],
      "name": "getNumberOfOrganisationsCreated",
      "outputs": [
        {
          "internalType": "uint256",
          "name": "totalAmountOfOrganisations",
          "type": "uint256"
        }
      ],
      "stateMutability": "view",
      "type": "function"
    },
    {
      "inputs": [],
      "name": "getParent",
      "outputs": [
        {
          "internalType": "address",
          "name": "",
          "type": "address"
        }
      ],
      "stateMutability": "view",
      "type": "function"
    },
    {
      "inputs": [
        {
          "internalType": "uint256",
          "name": "orgId",
          "type": "uint256"
        },
        {
          "internalType": "address",
          "name": "user",
          "type": "address"
        }
      ],
      "name": "isAdmin",
      "outputs": [
        {
          "internalType": "bool",
          "name": "_isAdmin",
          "type": "bool"
        }
      ],
      "stateMutability": "view",
      "type": "function"
    },
    {
      "inputs": [
        {
          "internalType": "address",
          "name": "owner",
          "type": "address"
        },
        {
          "internalType": "address",
          "name": "operator",
          "type": "address"
        }
      ],
      "name": "isApprovedForAll",
      "outputs": [
        {
          "internalType": "bool",
          "name": "",
          "type": "bool"
        }
      ],
      "stateMutability": "view",
      "type": "function"
    },
    {
      "inputs": [
        {
          "internalType": "uint256",
          "name": "orgId",
          "type": "uint256"
        },
        {
          "internalType": "address",
          "name": "user",
          "type": "address"
        }
      ],
      "name": "isMember",
      "outputs": [
        {
          "internalType": "bool",
          "name": "_isMember",
          "type": "bool"
        }
      ],
      "stateMutability": "view",
      "type": "function"
    },
    {
      "inputs": [
        {
          "internalType": "address",
          "name": "node",
          "type": "address"
        }
      ],
      "name": "isNode",
      "outputs": [
        {
          "internalType": "bool",
          "name": "",
          "type": "bool"
        }
      ],
      "stateMutability": "view",
      "type": "function"
    },
    {
      "inputs": [],
      "name": "name",
      "outputs": [
        {
          "internalType": "string",
          "name": "",
          "type": "string"
        }
      ],
      "stateMutability": "view",
      "type": "function"
    },
    {
      "inputs": [
        {
          "internalType": "address",
          "name": "",
          "type": "address"
        },
        {
          "internalType": "address",
          "name": "",
          "type": "address"
        },
        {
          "internalType": "uint256",
          "name": "",
          "type": "uint256"
        },
        {
          "internalType": "bytes",
          "name": "",
          "type": "bytes"
        }
      ],
      "name": "onERC721Received",
      "outputs": [
        {
          "internalType": "bytes4",
          "name": "",
          "type": "bytes4"
        }
      ],
      "stateMutability": "nonpayable",
      "type": "function"
    },
    {
      "inputs": [],
      "name": "owner",
      "outputs": [
        {
          "internalType": "address",
          "name": "",
          "type": "address"
        }
      ],
      "stateMutability": "view",
      "type": "function"
    },
    {
      "inputs": [
        {
          "internalType": "uint256",
          "name": "tokenId",
          "type": "uint256"
        }
      ],
      "name": "ownerOf",
      "outputs": [
        {
          "internalType": "address",
          "name": "",
          "type": "address"
        }
      ],
      "stateMutability": "view",
      "type": "function"
    },
    {
      "inputs": [
        {
          "internalType": "uint256",
          "name": "organisation",
          "type": "uint256"
        },
        {
          "internalType": "address",
          "name": "user",
          "type": "address"
        }
      ],
      "name": "permissionOf",
      "outputs": [
        {
          "internalType": "enum IOrganisation.EPermissions",
          "name": "permission",
          "type": "uint8"
        }
      ],
      "stateMutability": "view",
      "type": "function"
    },
    {
      "inputs": [],
      "name": "renounceOwnership",
      "outputs": [],
      "stateMutability": "nonpayable",
      "type": "function"
    },
    {
      "inputs": [
        {
          "internalType": "address",
          "name": "from",
          "type": "address"
        },
        {
          "internalType": "address",
          "name": "to",
          "type": "address"
        },
        {
          "internalType": "uint256",
          "name": "tokenId",
          "type": "uint256"
        }
      ],
      "name": "safeTransferFrom",
      "outputs": [],
      "stateMutability": "nonpayable",
      "type": "function"
    },
    {
      "inputs": [
        {
          "internalType": "address",
          "name": "from",
          "type": "address"
        },
        {
          "internalType": "address",
          "name": "to",
          "type": "address"
        },
        {
          "internalType": "uint256",
          "name": "tokenId",
          "type": "uint256"
        },
        {
          "internalType": "bytes",
          "name": "data",
          "type": "bytes"
        }
      ],
      "name": "safeTransferFrom",
      "outputs": [],
      "stateMutability": "nonpayable",
      "type": "function"
    },
    {
      "inputs": [
        {
          "internalType": "address",
          "name": "operator",
          "type": "address"
        },
        {
          "internalType": "bool",
          "name": "approved",
          "type": "bool"
        }
      ],
      "name": "setApprovalForAll",
      "outputs": [],
      "stateMutability": "nonpayable",
      "type": "function"
    },
    {
      "inputs": [
        {
          "internalType": "uint256",
          "name": "orgId",
          "type": "uint256"
        },
        {
          "internalType": "address",
          "name": "user",
          "type": "address"
        },
        {
          "internalType": "enum IOrganisation.EPermissions",
          "name": "permission",
          "type": "uint8"
        }
      ],
      "name": "setPermission",
      "outputs": [],
      "stateMutability": "nonpayable",
      "type": "function"
    },
    {
      "inputs": [
        {
          "internalType": "bytes4",
          "name": "interfaceId",
          "type": "bytes4"
        }
      ],
      "name": "supportsInterface",
      "outputs": [
        {
          "internalType": "bool",
          "name": "",
          "type": "bool"
        }
      ],
      "stateMutability": "view",
      "type": "function"
    },
    {
      "inputs": [],
      "name": "symbol",
      "outputs": [
        {
          "internalType": "string",
          "name": "",
          "type": "string"
        }
      ],
      "stateMutability": "view",
      "type": "function"
    },
    {
      "inputs": [
        {
          "internalType": "uint256",
          "name": "tokenId",
          "type": "uint256"
        }
      ],
      "name": "tokenURI",
      "outputs": [
        {
          "internalType": "string",
          "name": "",
          "type": "string"
        }
      ],
      "stateMutability": "view",
      "type": "function"
    },
    {
      "inputs": [
        {
          "internalType": "address",
          "name": "from",
          "type": "address"
        },
        {
          "internalType": "address",
          "name": "to",
          "type": "address"
        },
        {
          "internalType": "uint256",
          "name": "tokenId",
          "type": "uint256"
        }
      ],
      "name": "transferFrom",
      "outputs": [],
      "stateMutability": "nonpayable",
      "type": "function"
    },
    {
      "inputs": [
        {
          "internalType": "address",
          "name": "newOwner",
          "type": "address"
        }
      ],
      "name": "transferOwnership",
      "outputs": [],
      "stateMutability": "nonpayable",
      "type": "function"
    }
  ],
  "bytecode": "0x60806040523480156200001157600080fd5b5060006040518060400160405280601181526020017022ba31b41027b933b0b734b9b0ba34b7b760791b815250604051806040016040528060068152602001650de5a8aa886960d31b8152506200006f6000620000cf60201b60201c565b60016200007d838262000210565b5060026200008c828262000210565b505050620000a9620000a3620000f160201b60201c565b62000119565b600880546001600160a01b0319166001600160a01b0392909216919091179055620002dc565b600080546001600160a01b0319166001600160a01b0392909216919091179055565b600080546001600160a01b0316156200011457506000546001600160a01b031690565b503390565b600780546001600160a01b038381166001600160a01b0319831681179093556040519116919082907f8be0079c531659141344cd1fd0a4f28419497f9722a3daafe3b4186f6b6457e090600090a35050565b634e487b7160e01b600052604160045260246000fd5b600181811c908216806200019657607f821691505b602082108103620001b757634e487b7160e01b600052602260045260246000fd5b50919050565b601f8211156200020b57600081815260208120601f850160051c81016020861015620001e65750805b601f850160051c820191505b818110156200020757828155600101620001f2565b5050505b505050565b81516001600160401b038111156200022c576200022c6200016b565b62000244816200023d845462000181565b84620001bd565b602080601f8311600181146200027c5760008415620002635750858301515b600019600386901b1c1916600185901b17855562000207565b600085815260208120601f198616915b82811015620002ad578886015182559484019460019091019084016200028c565b5085821015620002cc5787850151600019600388901b60f8161c191681555b5050505050600190811b01905550565b6124a180620002ec6000396000f3fe608060405234801561001057600080fd5b50600436106101cf5760003560e01c806373e3dc3011610104578063999f066e116100a2578063c87b56dd11610071578063c87b56dd1461043e578063cef565aa14610451578063e985e9c514610464578063f2fde38b146104a057600080fd5b8063999f066e146103f25780639d95f1cc14610405578063a22cb46514610418578063b88d4fde1461042b57600080fd5b806381fb5d4b116100de57806381fb5d4b1461037b5780638da5cb5b1461039e57806395d89b41146103af57806397d32b52146103b757600080fd5b806373e3dc301461034f5780637d9e10f51461035757806380f760211461036a57600080fd5b806323b872dd116101715780634b4b98bd1161014b5780634b4b98bd146103005780636352211e1461031357806370a0823114610326578063715018a61461034757600080fd5b806323b872dd146102a3578063313a9940146102b657806342842e0e146102ed57600080fd5b8063081812fc116101ad578063081812fc14610224578063095ea7b31461024f578063146a291114610264578063150b7a021461027757600080fd5b806301750152146101d457806301ffc9a7146101fc57806306fdde031461020f575b600080fd5b6101e76101e2366004611c83565b6104b3565b60405190151581526020015b60405180910390f35b6101e761020a366004611cb6565b610558565b6102176105a8565b6040516101f39190611d23565b610237610232366004611d36565b61063a565b6040516001600160a01b0390911681526020016101f3565b61026261025d366004611d4f565b610661565b005b6101e7610272366004611d7b565b61078d565b61028a610285366004611e62565b6107f9565b6040516001600160e01b031990911681526020016101f3565b6102626102b1366004611ece565b61080a565b6102c96102c4366004611fb7565b610842565b60408051825181526020928301516001600160a01b031692810192909252016101f3565b6102626102fb366004611ece565b6109b0565b61026261030e366004611fec565b6109cb565b610237610321366004611d36565b610a95565b610339610334366004611c83565b610af5565b6040519081526020016101f3565b610262610b7b565b610339610b8f565b6101e7610365366004611d7b565b610b9f565b6008546001600160a01b0316610237565b6101e7610389366004611c83565b60096020526000908152604090205460ff1681565b6007546001600160a01b0316610237565b610217610c0c565b6103e56103c5366004611d7b565b600b60209081526000928352604080842090915290825290205460ff1681565b6040516101f391906120e9565b610262610400366004612111565b610c1b565b610262610413366004611c83565b610d32565b610262610426366004612165565b610d5e565b610262610439366004611e62565b610ddf565b61021761044c366004611d36565b610e1e565b61033961045f366004611c83565b610e92565b6101e7610472366004612193565b6001600160a01b03918216600090815260066020908152604080832093909416825291909152205460ff1690565b6102626104ae366004611c83565b610ef5565b6008546000906001600160a01b03166104e557506001600160a01b031660009081526009602052604090205460ff1690565b60085460405162ba80a960e11b81526001600160a01b03848116600483015290911690630175015290602401602060405180830381865afa15801561052e573d6000803e3d6000fd5b505050506040513d601f19601f8201168201806040525081019061055291906121c1565b92915050565b60006001600160e01b031982166380ac58cd60e01b148061058957506001600160e01b03198216635b5e139f60e01b145b8061055257506301ffc9a760e01b6001600160e01b0319831614610552565b6060600180546105b7906121de565b80601f01602080910402602001604051908101604052809291908181526020018280546105e3906121de565b80156106305780601f1061060557610100808354040283529160200191610630565b820191906000526020600020905b81548152906001019060200180831161061357829003601f168201915b5050505050905090565b600061064582610f6e565b506000908152600560205260409020546001600160a01b031690565b600061066c82610a95565b9050806001600160a01b0316836001600160a01b0316036106de5760405162461bcd60e51b815260206004820152602160248201527f4552433732313a20617070726f76616c20746f2063757272656e74206f776e656044820152603960f91b60648201526084015b60405180910390fd5b806001600160a01b03166106f0610fcd565b6001600160a01b0316148061070c575061070c81610472610fcd565b61077e5760405162461bcd60e51b815260206004820152603d60248201527f4552433732313a20617070726f76652063616c6c6572206973206e6f7420746f60448201527f6b656e206f776e6572206f7220617070726f76656420666f7220616c6c00000060648201526084016106d5565b6107888383610ff4565b505050565b6000816001600160a01b03166107a284610a95565b6001600160a01b0316036107b857506001610552565b60026000848152600b602090815260408083206001600160a01b038716845290915290205460ff1660028111156107f1576107f16120d3565b149392505050565b630a85bd0160e11b5b949350505050565b61081b610815610fcd565b82611062565b6108375760405162461bcd60e51b81526004016106d590612218565b6107888383836110e0565b60408051808201909152600080825260208201526020820151825161086c90805160209091012090565b146108ce5760405162461bcd60e51b815260206004820152602c60248201527f546865206d657373616765206861736820646f65736e2774206d61746368207460448201526b6865206f726967696e616c2160a01b60648201526084016106d5565b602080830151604080517f19457468657265756d205369676e6564204d6573736167653a0a33320000000081850152603c8082019390935281518082039093018352605c0190528051910120600061092a828560400151611244565b905083606001516001600160a01b0316816001600160a01b0316146109825760405162461bcd60e51b815260206004820152600e60248201526d24b73b30b634b21039b4b3b732b960911b60448201526064016106d5565b6000846000015180602001905181019061099c9190612265565b90506109a781611268565b50949350505050565b61078883838360405180602001604052806000815250610ddf565b6109d66101e2610fcd565b6109f25760405162461bcd60e51b81526004016106d5906122bb565b60006109fd83610842565b60208101519091506001600160a01b0316331480610a26575060208101516001600160a01b0316155b610a425760405162461bcd60e51b81526004016106d5906122bb565b610a4b336104b3565b80610a6b575082606001516001600160a01b0316336001600160a01b0316145b610a875760405162461bcd60e51b81526004016106d5906122bb565b6107888360600151836112bb565b6000818152600360205260408120546001600160a01b0316806105525760405162461bcd60e51b8152602060048201526018602482015277115490cdcc8c4e881a5b9d985b1a59081d1bdad95b88125160421b60448201526064016106d5565b60006001600160a01b038216610b5f5760405162461bcd60e51b815260206004820152602960248201527f4552433732313a2061646472657373207a65726f206973206e6f7420612076616044820152683634b21037bbb732b960b91b60648201526084016106d5565b506001600160a01b031660009081526004602052604090205490565b610b836113ed565b610b8d6000611466565b565b6000610b9a600a5490565b905090565b6000816001600160a01b0316610bb484610a95565b6001600160a01b031603610bca57506001610552565b60016000848152600b602090815260408083206001600160a01b038716845290915290205460ff166002811115610c0357610c036120d3565b10159392505050565b6060600280546105b7906121de565b610c2783610272610fcd565b610ca75760405162461bcd60e51b8152602060048201526044602482018190527f4f5247414e49534154494f4e3a204f6e6c7920616e2061646d696e206f662074908201527f6865206f7267616e69736174696f6e2063616e20736574207065726d6973736960648201526337b7399760e11b608482015260a4016106d5565b6000838152600b602090815260408083206001600160a01b03861684529091529020805482919060ff19166001836002811115610ce657610ce66120d3565b0217905550816001600160a01b0316837f0faa556cadb9cafbbf015fb98b93c217a4522fc3f20548c224967adf978ffb8183604051610d2591906120e9565b60405180910390a3505050565b610d3a6113ed565b6001600160a01b03166000908152600960205260409020805460ff19166001179055565b6001600160a01b038216610dc95760405162461bcd60e51b815260206004820152602c60248201527f4552433732313a2061646472657373207a65726f206973206e6f74206120766160448201526b3634b21037b832b930ba37b960a11b60648201526084016106d5565b610ddb610dd4610fcd565b83836114b8565b5050565b610df0610dea610fcd565b83611062565b610e0c5760405162461bcd60e51b81526004016106d590612218565b610e188484848461157e565b50505050565b6060610e2982610f6e565b6000610e4060408051602081019091526000815290565b90506000815111610e605760405180602001604052806000815250610e8b565b80610e6a846115b1565b604051602001610e7b9291906122f2565b6040516020818303038152906040525b9392505050565b6000610ea2600a80546001019055565b6000610ead600a5490565b9050610eb98382611644565b6040516001600160a01b0384169082907f09402109c124efaffd270754df72c04a2bfc8c72ec2fe8bfddeffcd28b665e3890600090a392915050565b610efd6113ed565b6001600160a01b038116610f625760405162461bcd60e51b815260206004820152602660248201527f4f776e61626c653a206e6577206f776e657220697320746865207a65726f206160448201526564647265737360d01b60648201526084016106d5565b610f6b81611466565b50565b6000818152600360205260409020546001600160a01b0316610f6b5760405162461bcd60e51b8152602060048201526018602482015277115490cdcc8c4e881a5b9d985b1a59081d1bdad95b88125160421b60448201526064016106d5565b600080546001600160a01b031615610fef57506000546001600160a01b031690565b503390565b600081815260056020526040902080546001600160a01b0319166001600160a01b038416908117909155819061102982610a95565b6001600160a01b03167f8c5be1e5ebec7d5bd14f71427d1e84f3dd0314c0f7b2291e5b200ac8c7c3b92560405160405180910390a45050565b60008061106e83610a95565b9050806001600160a01b0316846001600160a01b031614806110b557506001600160a01b0380821660009081526006602090815260408083209388168352929052205460ff165b806108025750836001600160a01b03166110ce8461063a565b6001600160a01b031614949350505050565b826001600160a01b03166110f382610a95565b6001600160a01b0316146111195760405162461bcd60e51b81526004016106d590612321565b6001600160a01b03821661117b5760405162461bcd60e51b8152602060048201526024808201527f4552433732313a207472616e7366657220746f20746865207a65726f206164646044820152637265737360e01b60648201526084016106d5565b826001600160a01b031661118e82610a95565b6001600160a01b0316146111b45760405162461bcd60e51b81526004016106d590612321565b600081815260056020908152604080832080546001600160a01b03199081169091556001600160a01b0387811680865260048552838620805460001901905590871680865283862080546001019055868652600390945282852080549092168417909155905184937fddf252ad1be2c89b69c2b068fc378daa952ba7f163c4a11628f55a4df523b3ef91a4505050565b6000806000611253858561165e565b91509150611260816116a3565b509392505050565b600043826000015110156112b35760405162461bcd60e51b815260206004820152601260248201527113595cdcd859d9481a5cc8195e1c1a5c995960721b60448201526064016106d5565b506001919050565b816001600160a01b03811661131e5760405162461bcd60e51b815260206004820152602360248201527f436f6e746578743a206e6577436f6e74657874206973207a65726f206164647260448201526265737360e81b60648201526084016106d5565b611327816117ed565b60005b82518110156113e257600080306001600160a01b031685848151811061135257611352612366565b6020026020010151604051611367919061237c565b600060405180830381855af49150503d80600081146113a2576040519150601f19603f3d011682016040523d82523d6000602084013e6113a7565b606091505b50915091508181906113cc5760405162461bcd60e51b81526004016106d59190611d23565b50505080806113da90612398565b91505061132a565b5061078860006117ed565b6113f5610fcd565b6001600160a01b03166114106007546001600160a01b031690565b6001600160a01b031614610b8d5760405162461bcd60e51b815260206004820181905260248201527f4f776e61626c653a2063616c6c6572206973206e6f7420746865206f776e657260448201526064016106d5565b600780546001600160a01b038381166001600160a01b0319831681179093556040519116919082907f8be0079c531659141344cd1fd0a4f28419497f9722a3daafe3b4186f6b6457e090600090a35050565b816001600160a01b0316836001600160a01b0316036115195760405162461bcd60e51b815260206004820152601960248201527f4552433732313a20617070726f766520746f2063616c6c65720000000000000060448201526064016106d5565b6001600160a01b03838116600081815260066020908152604080832094871680845294825291829020805460ff191686151590811790915591519182527f17307eab39ab6107e8899845ad3d59bd9653f200f220920489ca2b5937696c319101610d25565b6115898484846110e0565b6115958484848461180f565b610e185760405162461bcd60e51b81526004016106d5906123bf565b606060006115be83611914565b600101905060008167ffffffffffffffff8111156115de576115de611dab565b6040519080825280601f01601f191660200182016040528015611608576020820181803683370190505b5090508181016020015b600019016f181899199a1a9b1b9c1cb0b131b232b360811b600a86061a8153600a850494508461161257509392505050565b610ddb8282604051806020016040528060008152506119ec565b60008082516041036116945760208301516040840151606085015160001a61168887828585611a1f565b9450945050505061169c565b506000905060025b9250929050565b60008160048111156116b7576116b76120d3565b036116bf5750565b60018160048111156116d3576116d36120d3565b036117205760405162461bcd60e51b815260206004820152601860248201527f45434453413a20696e76616c6964207369676e6174757265000000000000000060448201526064016106d5565b6002816004811115611734576117346120d3565b036117815760405162461bcd60e51b815260206004820152601f60248201527f45434453413a20696e76616c6964207369676e6174757265206c656e6774680060448201526064016106d5565b6003816004811115611795576117956120d3565b03610f6b5760405162461bcd60e51b815260206004820152602260248201527f45434453413a20696e76616c6964207369676e6174757265202773272076616c604482015261756560f01b60648201526084016106d5565b600080546001600160a01b0319166001600160a01b0392909216919091179055565b60006001600160a01b0384163b1561190c57836001600160a01b031663150b7a02611838610fcd565b8786866040518563ffffffff1660e01b815260040161185a9493929190612411565b6020604051808303816000875af1925050508015611895575060408051601f3d908101601f191682019092526118929181019061244e565b60015b6118f2573d8080156118c3576040519150601f19603f3d011682016040523d82523d6000602084013e6118c8565b606091505b5080516000036118ea5760405162461bcd60e51b81526004016106d5906123bf565b805181602001fd5b6001600160e01b031916630a85bd0160e11b149050610802565b506001610802565b60008072184f03e93ff9f4daa797ed6e38ed64bf6a1f0160401b83106119535772184f03e93ff9f4daa797ed6e38ed64bf6a1f0160401b830492506040015b6d04ee2d6d415b85acef8100000000831061197f576d04ee2d6d415b85acef8100000000830492506020015b662386f26fc10000831061199d57662386f26fc10000830492506010015b6305f5e10083106119b5576305f5e100830492506008015b61271083106119c957612710830492506004015b606483106119db576064830492506002015b600a83106105525760010192915050565b6119f68383611ae3565b611a03600084848461180f565b6107885760405162461bcd60e51b81526004016106d5906123bf565b6000807f7fffffffffffffffffffffffffffffff5d576e7357a4501ddfe92f46681b20a0831115611a565750600090506003611ada565b6040805160008082526020820180845289905260ff881692820192909252606081018690526080810185905260019060a0016020604051602081039080840390855afa158015611aaa573d6000803e3d6000fd5b5050604051601f1901519150506001600160a01b038116611ad357600060019250925050611ada565b9150600090505b94509492505050565b6001600160a01b038216611b395760405162461bcd60e51b815260206004820181905260248201527f4552433732313a206d696e7420746f20746865207a65726f206164647265737360448201526064016106d5565b6000818152600360205260409020546001600160a01b031615611b9e5760405162461bcd60e51b815260206004820152601c60248201527f4552433732313a20746f6b656e20616c7265616479206d696e7465640000000060448201526064016106d5565b6000818152600360205260409020546001600160a01b031615611c035760405162461bcd60e51b815260206004820152601c60248201527f4552433732313a20746f6b656e20616c7265616479206d696e7465640000000060448201526064016106d5565b6001600160a01b038216600081815260046020908152604080832080546001019055848352600390915280822080546001600160a01b0319168417905551839291907fddf252ad1be2c89b69c2b068fc378daa952ba7f163c4a11628f55a4df523b3ef908290a45050565b6001600160a01b0381168114610f6b57600080fd5b600060208284031215611c9557600080fd5b8135610e8b81611c6e565b6001600160e01b031981168114610f6b57600080fd5b600060208284031215611cc857600080fd5b8135610e8b81611ca0565b60005b83811015611cee578181015183820152602001611cd6565b50506000910152565b60008151808452611d0f816020860160208601611cd3565b601f01601f19169290920160200192915050565b602081526000610e8b6020830184611cf7565b600060208284031215611d4857600080fd5b5035919050565b60008060408385031215611d6257600080fd5b8235611d6d81611c6e565b946020939093013593505050565b60008060408385031215611d8e57600080fd5b823591506020830135611da081611c6e565b809150509250929050565b634e487b7160e01b600052604160045260246000fd5b604051601f8201601f1916810167ffffffffffffffff81118282101715611dea57611dea611dab565b604052919050565b600082601f830112611e0357600080fd5b813567ffffffffffffffff811115611e1d57611e1d611dab565b611e30601f8201601f1916602001611dc1565b818152846020838601011115611e4557600080fd5b816020850160208301376000918101602001919091529392505050565b60008060008060808587031215611e7857600080fd5b8435611e8381611c6e565b93506020850135611e9381611c6e565b925060408501359150606085013567ffffffffffffffff811115611eb657600080fd5b611ec287828801611df2565b91505092959194509250565b600080600060608486031215611ee357600080fd5b8335611eee81611c6e565b92506020840135611efe81611c6e565b929592945050506040919091013590565b600060808284031215611f2157600080fd5b6040516080810167ffffffffffffffff8282108183111715611f4557611f45611dab565b816040528293508435915080821115611f5d57600080fd5b611f6986838701611df2565b8352602085013560208401526040850135915080821115611f8957600080fd5b50611f9685828601611df2565b6040830152506060830135611faa81611c6e565b6060919091015292915050565b600060208284031215611fc957600080fd5b813567ffffffffffffffff811115611fe057600080fd5b61080284828501611f0f565b60008060408385031215611fff57600080fd5b823567ffffffffffffffff8082111561201757600080fd5b61202386838701611f0f565b935060209150818501358181111561203a57600080fd5b8501601f8101871361204b57600080fd5b80358281111561205d5761205d611dab565b8060051b61206c858201611dc1565b918252828101850191858101908a84111561208657600080fd5b86850192505b838310156120c2578235868111156120a45760008081fd5b6120b28c8983890101611df2565b835250918601919086019061208c565b809750505050505050509250929050565b634e487b7160e01b600052602160045260246000fd5b602081016003831061210b57634e487b7160e01b600052602160045260246000fd5b91905290565b60008060006060848603121561212657600080fd5b83359250602084013561213881611c6e565b915060408401356003811061214c57600080fd5b809150509250925092565b8015158114610f6b57600080fd5b6000806040838503121561217857600080fd5b823561218381611c6e565b91506020830135611da081612157565b600080604083850312156121a657600080fd5b82356121b181611c6e565b91506020830135611da081611c6e565b6000602082840312156121d357600080fd5b8151610e8b81612157565b600181811c908216806121f257607f821691505b60208210810361221257634e487b7160e01b600052602260045260246000fd5b50919050565b6020808252602d908201527f4552433732313a2063616c6c6572206973206e6f7420746f6b656e206f776e6560408201526c1c881bdc88185c1c1c9bdd9959609a1b606082015260800190565b60006040828403121561227757600080fd5b6040516040810181811067ffffffffffffffff8211171561229a5761229a611dab565b6040528251815260208301516122af81611c6e565b60208201529392505050565b6020808252601e908201527f4e4f444548414e444c45523a205045524d495353494f4e5f44454e4945440000604082015260600190565b60008351612304818460208801611cd3565b835190830190612318818360208801611cd3565b01949350505050565b60208082526025908201527f4552433732313a207472616e736665722066726f6d20696e636f72726563742060408201526437bbb732b960d91b606082015260800190565b634e487b7160e01b600052603260045260246000fd5b6000825161238e818460208701611cd3565b9190910192915050565b6000600182016123b857634e487b7160e01b600052601160045260246000fd5b5060010190565b60208082526032908201527f4552433732313a207472616e7366657220746f206e6f6e20455243373231526560408201527131b2b4bb32b91034b6b83632b6b2b73a32b960711b606082015260800190565b6001600160a01b038581168252841660208201526040810183905260806060820181905260009061244490830184611cf7565b9695505050505050565b60006020828403121561246057600080fd5b8151610e8b81611ca056fea2646970667358221220270ef0b3252d8a7b6d6c6d715c1683987063fc48be5dd1228ac13153a010447d64736f6c63430008130033",
  "linkReferences": {},
  "deployedLinkReferences": {}
}