{
  "_format": "hh-sol-artifact-1",
  "contractName": "Teams",
  "sourceName": "contracts/CTeams.sol",
  "abi": [
    {
      "inputs": [
        {
          "internalType": "address",
          "name": "organisationsContract",
          "type": "address"
        }
      ],
      "stateMutability": "nonpayable",
      "type": "constructor"
    },
    {
      "anonymous": false,
      "inputs": [
        {
          "indexed": true,
          "internalType": "address",
          "name": "owner",
          "type": "address"
        },
        {
          "indexed": true,
          "internalType": "address",
          "name": "approved",
          "type": "address"
        },
        {
          "indexed": true,
          "internalType": "uint256",
          "name": "tokenId",
          "type": "uint256"
        }
      ],
      "name": "Approval",
      "type": "event"
    },
    {
      "anonymous": false,
      "inputs": [
        {
          "indexed": true,
          "internalType": "address",
          "name": "owner",
          "type": "address"
        },
        {
          "indexed": true,
          "internalType": "address",
          "name": "operator",
          "type": "address"
        },
        {
          "indexed": false,
          "internalType": "bool",
          "name": "approved",
          "type": "bool"
        }
      ],
      "name": "ApprovalForAll",
      "type": "event"
    },
    {
      "anonymous": false,
      "inputs": [
        {
          "indexed": true,
          "internalType": "address",
          "name": "previousOwner",
          "type": "address"
        },
        {
          "indexed": true,
          "internalType": "address",
          "name": "newOwner",
          "type": "address"
        }
      ],
      "name": "OwnershipTransferred",
      "type": "event"
    },
    {
      "anonymous": false,
      "inputs": [
        {
          "indexed": true,
          "internalType": "uint256",
          "name": "teamId",
          "type": "uint256"
        },
        {
          "indexed": true,
          "internalType": "address",
          "name": "account",
          "type": "address"
        },
        {
          "indexed": false,
          "internalType": "enum ITeams.EPermissions",
          "name": "newPermission",
          "type": "uint8"
        }
      ],
      "name": "PermissionsUpdated",
      "type": "event"
    },
    {
      "anonymous": false,
      "inputs": [
        {
          "indexed": true,
          "internalType": "uint256",
          "name": "teamId",
          "type": "uint256"
        },
        {
          "indexed": true,
          "internalType": "address",
          "name": "to",
          "type": "address"
        }
      ],
      "name": "TeamCreated",
      "type": "event"
    },
    {
      "anonymous": false,
      "inputs": [
        {
          "indexed": true,
          "internalType": "address",
          "name": "from",
          "type": "address"
        },
        {
          "indexed": true,
          "internalType": "address",
          "name": "to",
          "type": "address"
        },
        {
          "indexed": true,
          "internalType": "uint256",
          "name": "tokenId",
          "type": "uint256"
        }
      ],
      "name": "Transfer",
      "type": "event"
    },
    {
      "anonymous": false,
      "inputs": [
        {
          "indexed": true,
          "internalType": "uint256",
          "name": "teamId",
          "type": "uint256"
        },
        {
          "indexed": true,
          "internalType": "uint256",
          "name": "orgId",
          "type": "uint256"
        }
      ],
      "name": "TransferToOrganisation",
      "type": "event"
    },
    {
      "inputs": [
        {
          "internalType": "address",
          "name": "node",
          "type": "address"
        }
      ],
      "name": "_nodes",
      "outputs": [
        {
          "internalType": "bool",
          "name": "isNode",
          "type": "bool"
        }
      ],
      "stateMutability": "view",
      "type": "function"
    },
    {
      "inputs": [
        {
          "internalType": "address",
          "name": "node",
          "type": "address"
        }
      ],
      "name": "addNode",
      "outputs": [],
      "stateMutability": "nonpayable",
      "type": "function"
    },
    {
      "inputs": [
        {
          "internalType": "address",
          "name": "to",
          "type": "address"
        },
        {
          "internalType": "uint256",
          "name": "tokenId",
          "type": "uint256"
        }
      ],
      "name": "approve",
      "outputs": [],
      "stateMutability": "nonpayable",
      "type": "function"
    },
    {
      "inputs": [
        {
          "internalType": "address",
          "name": "owner",
          "type": "address"
        }
      ],
      "name": "balanceOf",
      "outputs": [
        {
          "internalType": "uint256",
          "name": "",
          "type": "uint256"
        }
      ],
      "stateMutability": "view",
      "type": "function"
    },
    {
      "inputs": [
        {
          "components": [
            {
              "internalType": "bytes",
              "name": "encodedMessage",
              "type": "bytes"
            },
            {
              "internalType": "bytes32",
              "name": "messageHash",
              "type": "bytes32"
            },
            {
              "internalType": "bytes",
              "name": "signature",
              "type": "bytes"
            },
            {
              "internalType": "address",
              "name": "signer",
              "type": "address"
            }
          ],
          "internalType": "struct SignatureVerifier.Signature",
          "name": "_signature",
          "type": "tuple"
        }
      ],
      "name": "checkSignature",
      "outputs": [
        {
          "components": [
            {
              "internalType": "uint256",
              "name": "blockNumber",
              "type": "uint256"
            },
            {
              "internalType": "address",
              "name": "nodeAddress",
              "type": "address"
            }
          ],
          "internalType": "struct SignatureVerifier.EncodedMessage",
          "name": "",
          "type": "tuple"
        }
      ],
      "stateMutability": "view",
      "type": "function"
    },
    {
      "inputs": [
        {
          "internalType": "address",
          "name": "to",
          "type": "address"
        }
      ],
      "name": "createTeam",
      "outputs": [
        {
          "internalType": "uint256",
          "name": "newTeamId",
          "type": "uint256"
        }
      ],
      "stateMutability": "nonpayable",
      "type": "function"
    },
    {
      "inputs": [
        {
          "components": [
            {
              "internalType": "bytes",
              "name": "encodedMessage",
              "type": "bytes"
            },
            {
              "internalType": "bytes32",
              "name": "messageHash",
              "type": "bytes32"
            },
            {
              "internalType": "bytes",
              "name": "signature",
              "type": "bytes"
            },
            {
              "internalType": "address",
              "name": "signer",
              "type": "address"
            }
          ],
          "internalType": "struct SignatureVerifier.Signature",
          "name": "signature",
          "type": "tuple"
        },
        {
          "internalType": "bytes[]",
          "name": "_calldata",
          "type": "bytes[]"
        }
      ],
      "name": "delegateCallsToSelf",
      "outputs": [],
      "stateMutability": "nonpayable",
      "type": "function"
    },
    {
      "inputs": [
        {
          "internalType": "uint256",
          "name": "tokenId",
          "type": "uint256"
        }
      ],
      "name": "getApproved",
      "outputs": [
        {
          "internalType": "address",
          "name": "",
          "type": "address"
        }
      ],
      "stateMutability": "view",
      "type": "function"
    },
    {
      "inputs": [],
      "name": "getNumberOfTeamsCreated",
      "outputs": [
        {
          "internalType": "uint256",
          "name": "totalAmountOfTeams",
          "type": "uint256"
        }
      ],
      "stateMutability": "view",
      "type": "function"
    },
    {
      "inputs": [],
      "name": "getParent",
      "outputs": [
        {
          "internalType": "address",
          "name": "",
          "type": "address"
        }
      ],
      "stateMutability": "view",
      "type": "function"
    },
    {
      "inputs": [
        {
          "internalType": "uint256",
          "name": "teamId",
          "type": "uint256"
        },
        {
          "internalType": "address",
          "name": "user",
          "type": "address"
        },
        {
          "internalType": "enum ITeams.EPermissions",
          "name": "permission",
          "type": "uint8"
        }
      ],
      "name": "hasPermission",
      "outputs": [
        {
          "internalType": "bool",
          "name": "_hasPermission",
          "type": "bool"
        }
      ],
      "stateMutability": "view",
      "type": "function"
    },
    {
      "inputs": [
        {
          "internalType": "address",
          "name": "owner",
          "type": "address"
        },
        {
          "internalType": "address",
          "name": "operator",
          "type": "address"
        }
      ],
      "name": "isApprovedForAll",
      "outputs": [
        {
          "internalType": "bool",
          "name": "",
          "type": "bool"
        }
      ],
      "stateMutability": "view",
      "type": "function"
    },
    {
      "inputs": [
        {
          "internalType": "address",
          "name": "node",
          "type": "address"
        }
      ],
      "name": "isNode",
      "outputs": [
        {
          "internalType": "bool",
          "name": "",
          "type": "bool"
        }
      ],
      "stateMutability": "view",
      "type": "function"
    },
    {
      "inputs": [],
      "name": "name",
      "outputs": [
        {
          "internalType": "string",
          "name": "",
          "type": "string"
        }
      ],
      "stateMutability": "view",
      "type": "function"
    },
    {
      "inputs": [
        {
          "internalType": "address",
          "name": "",
          "type": "address"
        },
        {
          "internalType": "address",
          "name": "",
          "type": "address"
        },
        {
          "internalType": "uint256",
          "name": "",
          "type": "uint256"
        },
        {
          "internalType": "bytes",
          "name": "",
          "type": "bytes"
        }
      ],
      "name": "onERC721Received",
      "outputs": [
        {
          "internalType": "bytes4",
          "name": "",
          "type": "bytes4"
        }
      ],
      "stateMutability": "nonpayable",
      "type": "function"
    },
    {
      "inputs": [
        {
          "internalType": "uint256",
          "name": "team",
          "type": "uint256"
        }
      ],
      "name": "organisationOf",
      "outputs": [
        {
          "internalType": "uint256",
          "name": "organisation",
          "type": "uint256"
        }
      ],
      "stateMutability": "view",
      "type": "function"
    },
    {
      "inputs": [],
      "name": "organisations",
      "outputs": [
        {
          "internalType": "address",
          "name": "",
          "type": "address"
        }
      ],
      "stateMutability": "view",
      "type": "function"
    },
    {
      "inputs": [],
      "name": "owner",
      "outputs": [
        {
          "internalType": "address",
          "name": "",
          "type": "address"
        }
      ],
      "stateMutability": "view",
      "type": "function"
    },
    {
      "inputs": [
        {
          "internalType": "uint256",
          "name": "tokenId",
          "type": "uint256"
        }
      ],
      "name": "ownerOf",
      "outputs": [
        {
          "internalType": "address",
          "name": "",
          "type": "address"
        }
      ],
      "stateMutability": "view",
      "type": "function"
    },
    {
      "inputs": [
        {
          "internalType": "uint256",
          "name": "team",
          "type": "uint256"
        },
        {
          "internalType": "address",
          "name": "user",
          "type": "address"
        }
      ],
      "name": "permissionsOfTeam",
      "outputs": [
        {
          "internalType": "enum ITeams.EPermissions",
          "name": "permission",
          "type": "uint8"
        }
      ],
      "stateMutability": "view",
      "type": "function"
    },
    {
      "inputs": [],
      "name": "renounceOwnership",
      "outputs": [],
      "stateMutability": "nonpayable",
      "type": "function"
    },
    {
      "inputs": [
        {
          "internalType": "address",
          "name": "from",
          "type": "address"
        },
        {
          "internalType": "address",
          "name": "to",
          "type": "address"
        },
        {
          "internalType": "uint256",
          "name": "tokenId",
          "type": "uint256"
        }
      ],
      "name": "safeTransferFrom",
      "outputs": [],
      "stateMutability": "nonpayable",
      "type": "function"
    },
    {
      "inputs": [
        {
          "internalType": "address",
          "name": "from",
          "type": "address"
        },
        {
          "internalType": "address",
          "name": "to",
          "type": "address"
        },
        {
          "internalType": "uint256",
          "name": "tokenId",
          "type": "uint256"
        },
        {
          "internalType": "bytes",
          "name": "data",
          "type": "bytes"
        }
      ],
      "name": "safeTransferFrom",
      "outputs": [],
      "stateMutability": "nonpayable",
      "type": "function"
    },
    {
      "inputs": [
        {
          "internalType": "address",
          "name": "operator",
          "type": "address"
        },
        {
          "internalType": "bool",
          "name": "approved",
          "type": "bool"
        }
      ],
      "name": "setApprovalForAll",
      "outputs": [],
      "stateMutability": "nonpayable",
      "type": "function"
    },
    {
      "inputs": [
        {
          "internalType": "uint256",
          "name": "teamId",
          "type": "uint256"
        },
        {
          "internalType": "address",
          "name": "user",
          "type": "address"
        },
        {
          "internalType": "enum ITeams.EPermissions",
          "name": "permission",
          "type": "uint8"
        }
      ],
      "name": "setPermission",
      "outputs": [],
      "stateMutability": "nonpayable",
      "type": "function"
    },
    {
      "inputs": [
        {
          "internalType": "bytes4",
          "name": "interfaceId",
          "type": "bytes4"
        }
      ],
      "name": "supportsInterface",
      "outputs": [
        {
          "internalType": "bool",
          "name": "",
          "type": "bool"
        }
      ],
      "stateMutability": "view",
      "type": "function"
    },
    {
      "inputs": [],
      "name": "symbol",
      "outputs": [
        {
          "internalType": "string",
          "name": "",
          "type": "string"
        }
      ],
      "stateMutability": "view",
      "type": "function"
    },
    {
      "inputs": [
        {
          "internalType": "uint256",
          "name": "tokenId",
          "type": "uint256"
        }
      ],
      "name": "tokenURI",
      "outputs": [
        {
          "internalType": "string",
          "name": "",
          "type": "string"
        }
      ],
      "stateMutability": "view",
      "type": "function"
    },
    {
      "inputs": [
        {
          "internalType": "address",
          "name": "from",
          "type": "address"
        },
        {
          "internalType": "address",
          "name": "to",
          "type": "address"
        },
        {
          "internalType": "uint256",
          "name": "tokenId",
          "type": "uint256"
        }
      ],
      "name": "transferFrom",
      "outputs": [],
      "stateMutability": "nonpayable",
      "type": "function"
    },
    {
      "inputs": [
        {
          "internalType": "address",
          "name": "newOwner",
          "type": "address"
        }
      ],
      "name": "transferOwnership",
      "outputs": [],
      "stateMutability": "nonpayable",
      "type": "function"
    },
    {
      "inputs": [
        {
          "internalType": "uint256",
          "name": "teamId",
          "type": "uint256"
        },
        {
          "internalType": "uint256",
          "name": "orgId",
          "type": "uint256"
        }
      ],
      "name": "transferToOrganisation",
      "outputs": [],
      "stateMutability": "nonpayable",
      "type": "function"
    }
  ],
  "bytecode": "0x60806040523480156200001157600080fd5b5060405162002a5138038062002a51833981016040819052620000349162000193565b806040518060400160405280600981526020016845746368205465616d60b81b815250604051806040016040528060068152602001650e85a8aa886960d31b815250620000886000620000f760201b60201c565b60016200009683826200026a565b506002620000a582826200026a565b505050620000c2620000bc6200011960201b60201c565b62000141565b600880546001600160a01b039283166001600160a01b031991821617909155600b805493909216921691909117905562000336565b600080546001600160a01b0319166001600160a01b0392909216919091179055565b600080546001600160a01b0316156200013c57506000546001600160a01b031690565b503390565b600780546001600160a01b038381166001600160a01b0319831681179093556040519116919082907f8be0079c531659141344cd1fd0a4f28419497f9722a3daafe3b4186f6b6457e090600090a35050565b600060208284031215620001a657600080fd5b81516001600160a01b0381168114620001be57600080fd5b9392505050565b634e487b7160e01b600052604160045260246000fd5b600181811c90821680620001f057607f821691505b6020821081036200021157634e487b7160e01b600052602260045260246000fd5b50919050565b601f8211156200026557600081815260208120601f850160051c81016020861015620002405750805b601f850160051c820191505b8181101562000261578281556001016200024c565b5050505b505050565b81516001600160401b03811115620002865762000286620001c5565b6200029e81620002978454620001db565b8462000217565b602080601f831160018114620002d65760008415620002bd5750858301515b600019600386901b1c1916600185901b17855562000261565b600085815260208120601f198616915b828110156200030757888601518255948401946001909101908401620002e6565b5085821015620003265787850151600019600388901b60f8161c191681555b5050505050600190811b01905550565b61270b80620003466000396000f3fe608060405234801561001057600080fd5b50600436106101e55760003560e01c806378c7c8b41161010f578063a22cb465116100a2578063c87b56dd11610071578063c87b56dd1461045f578063e5299e5c14610472578063e985e9c5146104ad578063f2fde38b146104e957600080fd5b8063a22cb46514610413578063abf0e71f14610426578063adfb881e14610439578063b88d4fde1461044c57600080fd5b80638da5cb5b116100de5780638da5cb5b146103d457806395d89b41146103e5578063999f066e146103ed5780639d95f1cc1461040057600080fd5b806378c7c8b41461036d57806380f760211461038d57806381fb5d4b1461039e578063823abfd9146103c157600080fd5b806323b872dd116101875780634bb25cca116101565780634bb25cca146103295780636352211e1461033f57806370a0823114610352578063715018a61461036557600080fd5b806323b872dd146102b9578063313a9940146102cc57806342842e0e146103035780634b4b98bd1461031657600080fd5b8063081812fc116101c3578063081812fc1461023a578063095ea7b31461026557806313327d961461027a578063150b7a021461028d57600080fd5b806301750152146101ea57806301ffc9a71461021257806306fdde0314610225575b600080fd5b6101fd6101f8366004611eae565b6104fc565b60405190151581526020015b60405180910390f35b6101fd610220366004611ee1565b6105a1565b61022d6105f1565b6040516102099190611f4e565b61024d610248366004611f61565b610683565b6040516001600160a01b039091168152602001610209565b610278610273366004611f7a565b6106aa565b005b610278610288366004611fa6565b6107d6565b6102a061029b36600461207f565b6108b9565b6040516001600160e01b03199091168152602001610209565b6102786102c73660046120eb565b6108ca565b6102df6102da3660046121d4565b610902565b60408051825181526020928301516001600160a01b03169281019290925201610209565b6102786103113660046120eb565b610a70565b610278610324366004612209565b610a8b565b610331610b55565b604051908152602001610209565b61024d61034d366004611f61565b610b65565b610331610360366004611eae565b610bc4565b610278610c4a565b61033161037b366004611f61565b600d6020526000908152604090205481565b6008546001600160a01b031661024d565b6101fd6103ac366004611eae565b60096020526000908152604090205460ff1681565b6101fd6103cf3660046122f0565b610c5e565b6007546001600160a01b031661024d565b61022d610cde565b6102786103fb3660046122f0565b610ced565b61027861040e366004611eae565b610ebe565b610278610421366004612344565b610eea565b600b5461024d906001600160a01b031681565b610331610447366004611eae565b610f6b565b61027861045a36600461207f565b610fce565b61022d61046d366004611f61565b61100d565b6104a061048036600461237d565b600c60209081526000928352604080842090915290825290205460ff1681565b60405161020991906123b8565b6101fd6104bb3660046123e0565b6001600160a01b03918216600090815260066020908152604080832093909416825291909152205460ff1690565b6102786104f7366004611eae565b611080565b6008546000906001600160a01b031661052e57506001600160a01b031660009081526009602052604090205460ff1690565b60085460405162ba80a960e11b81526001600160a01b03848116600483015290911690630175015290602401602060405180830381865afa158015610577573d6000803e3d6000fd5b505050506040513d601f19601f8201168201806040525081019061059b919061240e565b92915050565b60006001600160e01b031982166380ac58cd60e01b14806105d257506001600160e01b03198216635b5e139f60e01b145b8061059b57506301ffc9a760e01b6001600160e01b031983161461059b565b6060600180546106009061242b565b80601f016020809104026020016040519081016040528092919081815260200182805461062c9061242b565b80156106795780601f1061064e57610100808354040283529160200191610679565b820191906000526020600020905b81548152906001019060200180831161065c57829003601f168201915b5050505050905090565b600061068e826110f9565b506000908152600560205260409020546001600160a01b031690565b60006106b582610b65565b9050806001600160a01b0316836001600160a01b0316036107275760405162461bcd60e51b815260206004820152602160248201527f4552433732313a20617070726f76616c20746f2063757272656e74206f776e656044820152603960f91b60648201526084015b60405180910390fd5b806001600160a01b0316610739611149565b6001600160a01b031614806107555750610755816104bb611149565b6107c75760405162461bcd60e51b815260206004820152603d60248201527f4552433732313a20617070726f76652063616c6c6572206973206e6f7420746f60448201527f6b656e206f776e6572206f7220617070726f76656420666f7220616c6c000000606482015260840161071e565b6107d18383611170565b505050565b6107de611149565b6001600160a01b03166107f083610b65565b6001600160a01b03161461085d5760405162461bcd60e51b815260206004820152602e60248201527f5445414d533a204f6e6c79204f776e65722063616e207472616e73666572207460448201526d379027b933b0b734b9b0ba34b7b760911b606482015260840161071e565b61087a610868611149565b600b546001600160a01b0316846111de565b6000828152600d602052604080822083905551829184917fc175b54b62e7156ecc6ffb8da5c15704f0bd44b4b973e9962f622d54f4d0e5d59190a35050565b630a85bd0160e11b5b949350505050565b6108db6108d5611149565b82611342565b6108f75760405162461bcd60e51b815260040161071e90612465565b6107d18383836111de565b60408051808201909152600080825260208201526020820151825161092c90805160209091012090565b1461098e5760405162461bcd60e51b815260206004820152602c60248201527f546865206d657373616765206861736820646f65736e2774206d61746368207460448201526b6865206f726967696e616c2160a01b606482015260840161071e565b602080830151604080517f19457468657265756d205369676e6564204d6573736167653a0a33320000000081850152603c8082019390935281518082039093018352605c019052805191012060006109ea8285604001516113c0565b905083606001516001600160a01b0316816001600160a01b031614610a425760405162461bcd60e51b815260206004820152600e60248201526d24b73b30b634b21039b4b3b732b960911b604482015260640161071e565b60008460000151806020019051810190610a5c91906124b2565b9050610a67816113e4565b50949350505050565b6107d183838360405180602001604052806000815250610fce565b610a966101f8611149565b610ab25760405162461bcd60e51b815260040161071e90612508565b6000610abd83610902565b60208101519091506001600160a01b0316331480610ae6575060208101516001600160a01b0316155b610b025760405162461bcd60e51b815260040161071e90612508565b610b0b336104fc565b80610b2b575082606001516001600160a01b0316336001600160a01b0316145b610b475760405162461bcd60e51b815260040161071e90612508565b6107d1836060015183611437565b6000610b60600a5490565b905090565b600080610b7183611569565b90506001600160a01b03811661059b5760405162461bcd60e51b8152602060048201526018602482015277115490cdcc8c4e881a5b9d985b1a59081d1bdad95b88125160421b604482015260640161071e565b60006001600160a01b038216610c2e5760405162461bcd60e51b815260206004820152602960248201527f4552433732313a2061646472657373207a65726f206973206e6f7420612076616044820152683634b21037bbb732b960b91b606482015260840161071e565b506001600160a01b031660009081526004602052604090205490565b610c52611611565b610c5c600061168a565b565b6000826001600160a01b0316610c7385610b65565b6001600160a01b031603610c8957506001610cd7565b816002811115610c9b57610c9b6123a2565b6000858152600c602090815260408083206001600160a01b038816845290915290205460ff166002811115610cd257610cd26123a2565b101590505b9392505050565b6060600280546106009061242b565b82610cf6611149565b6001600160a01b0316610d0882610b65565b6001600160a01b03161480610db25750600b546000828152600d60205260409020546001600160a01b039091169063146a291190610d44611149565b6040516001600160e01b031960e085901b16815260048101929092526001600160a01b03166024820152604401602060405180830381865afa158015610d8e573d6000803e3d6000fd5b505050506040513d601f19601f82011682018060405250810190610db2919061240e565b610e325760405162461bcd60e51b8152602060048201526044602482018190527f5445414d533a204f6e6c7920746865204f776e65722c206f7220616e204f7267908201527f616e69736174696f6e2041646d696e2063616e20736574207065726d6973736960648201526337b7399760e11b608482015260a40161071e565b6000848152600c602090815260408083206001600160a01b03871684529091529020805483919060ff19166001836002811115610e7157610e716123a2565b0217905550826001600160a01b0316847f0faa556cadb9cafbbf015fb98b93c217a4522fc3f20548c224967adf978ffb8184604051610eb091906123b8565b60405180910390a350505050565b610ec6611611565b6001600160a01b03166000908152600960205260409020805460ff19166001179055565b6001600160a01b038216610f555760405162461bcd60e51b815260206004820152602c60248201527f4552433732313a2061646472657373207a65726f206973206e6f74206120766160448201526b3634b21037b832b930ba37b960a11b606482015260840161071e565b610f67610f60611149565b83836116dc565b5050565b6000610f7b600a80546001019055565b6000610f86600a5490565b9050610f9283826117aa565b6040516001600160a01b0384169082907f1c483dd823f07c903e6b78f350b4077cc066d97e34e20f9787befd74c551766390600090a392915050565b610fdf610fd9611149565b83611342565b610ffb5760405162461bcd60e51b815260040161071e90612465565b611007848484846117c4565b50505050565b6060611018826110f9565b600061102f60408051602081019091526000815290565b9050600081511161104f5760405180602001604052806000815250610cd7565b80611059846117f7565b60405160200161106a92919061253f565b6040516020818303038152906040529392505050565b611088611611565b6001600160a01b0381166110ed5760405162461bcd60e51b815260206004820152602660248201527f4f776e61626c653a206e6577206f776e657220697320746865207a65726f206160448201526564647265737360d01b606482015260840161071e565b6110f68161168a565b50565b6111028161188a565b6110f65760405162461bcd60e51b8152602060048201526018602482015277115490cdcc8c4e881a5b9d985b1a59081d1bdad95b88125160421b604482015260640161071e565b600080546001600160a01b03161561116b57506000546001600160a01b031690565b503390565b600081815260056020526040902080546001600160a01b0319166001600160a01b03841690811790915581906111a582610b65565b6001600160a01b03167f8c5be1e5ebec7d5bd14f71427d1e84f3dd0314c0f7b2291e5b200ac8c7c3b92560405160405180910390a45050565b826001600160a01b03166111f182610b65565b6001600160a01b0316146112175760405162461bcd60e51b815260040161071e9061256e565b6001600160a01b0382166112795760405162461bcd60e51b8152602060048201526024808201527f4552433732313a207472616e7366657220746f20746865207a65726f206164646044820152637265737360e01b606482015260840161071e565b826001600160a01b031661128c82610b65565b6001600160a01b0316146112b25760405162461bcd60e51b815260040161071e9061256e565b600081815260056020908152604080832080546001600160a01b03199081169091556001600160a01b0387811680865260048552838620805460001901905590871680865283862080546001019055868652600390945282852080549092168417909155905184937fddf252ad1be2c89b69c2b068fc378daa952ba7f163c4a11628f55a4df523b3ef91a4505050565b60008061134e83610b65565b9050806001600160a01b0316846001600160a01b0316148061139557506001600160a01b0380821660009081526006602090815260408083209388168352929052205460ff165b806108c25750836001600160a01b03166113ae84610683565b6001600160a01b031614949350505050565b60008060006113cf85856118a7565b915091506113dc816118ec565b509392505050565b6000438260000151101561142f5760405162461bcd60e51b815260206004820152601260248201527113595cdcd859d9481a5cc8195e1c1a5c995960721b604482015260640161071e565b506001919050565b816001600160a01b03811661149a5760405162461bcd60e51b815260206004820152602360248201527f436f6e746578743a206e6577436f6e74657874206973207a65726f206164647260448201526265737360e81b606482015260840161071e565b6114a381611a36565b60005b825181101561155e57600080306001600160a01b03168584815181106114ce576114ce6125b3565b60200260200101516040516114e391906125c9565b600060405180830381855af49150503d806000811461151e576040519150601f19603f3d011682016040523d82523d6000602084013e611523565b606091505b50915091508181906115485760405162461bcd60e51b815260040161071e9190611f4e565b5050508080611556906125e5565b9150506114a6565b506107d16000611a36565b600081815260036020526040812054600b546001600160a01b039182169116810361059b57600b546000848152600d6020526040908190205490516331a9108f60e11b81526001600160a01b0390921691636352211e916115d09160040190815260200190565b602060405180830381865afa1580156115ed573d6000803e3d6000fd5b505050506040513d601f19601f82011682018060405250810190610cd7919061260c565b611619611149565b6001600160a01b03166116346007546001600160a01b031690565b6001600160a01b031614610c5c5760405162461bcd60e51b815260206004820181905260248201527f4f776e61626c653a2063616c6c6572206973206e6f7420746865206f776e6572604482015260640161071e565b600780546001600160a01b038381166001600160a01b0319831681179093556040519116919082907f8be0079c531659141344cd1fd0a4f28419497f9722a3daafe3b4186f6b6457e090600090a35050565b816001600160a01b0316836001600160a01b03160361173d5760405162461bcd60e51b815260206004820152601960248201527f4552433732313a20617070726f766520746f2063616c6c657200000000000000604482015260640161071e565b6001600160a01b03838116600081815260066020908152604080832094871680845294825291829020805460ff191686151590811790915591519182527f17307eab39ab6107e8899845ad3d59bd9653f200f220920489ca2b5937696c31910160405180910390a3505050565b610f67828260405180602001604052806000815250611a58565b6117cf8484846111de565b6117db84848484611a8b565b6110075760405162461bcd60e51b815260040161071e90612629565b6060600061180483611b90565b600101905060008167ffffffffffffffff81111561182457611824611fc8565b6040519080825280601f01601f19166020018201604052801561184e576020820181803683370190505b5090508181016020015b600019016f181899199a1a9b1b9c1cb0b131b232b360811b600a86061a8153600a850494508461185857509392505050565b60008061189683611569565b6001600160a01b0316141592915050565b60008082516041036118dd5760208301516040840151606085015160001a6118d187828585611c68565b945094505050506118e5565b506000905060025b9250929050565b6000816004811115611900576119006123a2565b036119085750565b600181600481111561191c5761191c6123a2565b036119695760405162461bcd60e51b815260206004820152601860248201527f45434453413a20696e76616c6964207369676e61747572650000000000000000604482015260640161071e565b600281600481111561197d5761197d6123a2565b036119ca5760405162461bcd60e51b815260206004820152601f60248201527f45434453413a20696e76616c6964207369676e6174757265206c656e67746800604482015260640161071e565b60038160048111156119de576119de6123a2565b036110f65760405162461bcd60e51b815260206004820152602260248201527f45434453413a20696e76616c6964207369676e6174757265202773272076616c604482015261756560f01b606482015260840161071e565b600080546001600160a01b0319166001600160a01b0392909216919091179055565b611a628383611d2c565b611a6f6000848484611a8b565b6107d15760405162461bcd60e51b815260040161071e90612629565b60006001600160a01b0384163b15611b8857836001600160a01b031663150b7a02611ab4611149565b8786866040518563ffffffff1660e01b8152600401611ad6949392919061267b565b6020604051808303816000875af1925050508015611b11575060408051601f3d908101601f19168201909252611b0e918101906126b8565b60015b611b6e573d808015611b3f576040519150601f19603f3d011682016040523d82523d6000602084013e611b44565b606091505b508051600003611b665760405162461bcd60e51b815260040161071e90612629565b805181602001fd5b6001600160e01b031916630a85bd0160e11b1490506108c2565b5060016108c2565b60008072184f03e93ff9f4daa797ed6e38ed64bf6a1f0160401b8310611bcf5772184f03e93ff9f4daa797ed6e38ed64bf6a1f0160401b830492506040015b6d04ee2d6d415b85acef81000000008310611bfb576d04ee2d6d415b85acef8100000000830492506020015b662386f26fc100008310611c1957662386f26fc10000830492506010015b6305f5e1008310611c31576305f5e100830492506008015b6127108310611c4557612710830492506004015b60648310611c57576064830492506002015b600a831061059b5760010192915050565b6000807f7fffffffffffffffffffffffffffffff5d576e7357a4501ddfe92f46681b20a0831115611c9f5750600090506003611d23565b6040805160008082526020820180845289905260ff881692820192909252606081018690526080810185905260019060a0016020604051602081039080840390855afa158015611cf3573d6000803e3d6000fd5b5050604051601f1901519150506001600160a01b038116611d1c57600060019250925050611d23565b9150600090505b94509492505050565b6001600160a01b038216611d825760405162461bcd60e51b815260206004820181905260248201527f4552433732313a206d696e7420746f20746865207a65726f2061646472657373604482015260640161071e565b611d8b8161188a565b15611dd85760405162461bcd60e51b815260206004820152601c60248201527f4552433732313a20746f6b656e20616c7265616479206d696e74656400000000604482015260640161071e565b611de18161188a565b15611e2e5760405162461bcd60e51b815260206004820152601c60248201527f4552433732313a20746f6b656e20616c7265616479206d696e74656400000000604482015260640161071e565b6001600160a01b038216600081815260046020908152604080832080546001019055848352600390915280822080546001600160a01b0319168417905551839291907fddf252ad1be2c89b69c2b068fc378daa952ba7f163c4a11628f55a4df523b3ef908290a45050565b6001600160a01b03811681146110f657600080fd5b600060208284031215611ec057600080fd5b8135610cd781611e99565b6001600160e01b0319811681146110f657600080fd5b600060208284031215611ef357600080fd5b8135610cd781611ecb565b60005b83811015611f19578181015183820152602001611f01565b50506000910152565b60008151808452611f3a816020860160208601611efe565b601f01601f19169290920160200192915050565b602081526000610cd76020830184611f22565b600060208284031215611f7357600080fd5b5035919050565b60008060408385031215611f8d57600080fd5b8235611f9881611e99565b946020939093013593505050565b60008060408385031215611fb957600080fd5b50508035926020909101359150565b634e487b7160e01b600052604160045260246000fd5b604051601f8201601f1916810167ffffffffffffffff8111828210171561200757612007611fc8565b604052919050565b600082601f83011261202057600080fd5b813567ffffffffffffffff81111561203a5761203a611fc8565b61204d601f8201601f1916602001611fde565b81815284602083860101111561206257600080fd5b816020850160208301376000918101602001919091529392505050565b6000806000806080858703121561209557600080fd5b84356120a081611e99565b935060208501356120b081611e99565b925060408501359150606085013567ffffffffffffffff8111156120d357600080fd5b6120df8782880161200f565b91505092959194509250565b60008060006060848603121561210057600080fd5b833561210b81611e99565b9250602084013561211b81611e99565b929592945050506040919091013590565b60006080828403121561213e57600080fd5b6040516080810167ffffffffffffffff828210818311171561216257612162611fc8565b81604052829350843591508082111561217a57600080fd5b6121868683870161200f565b83526020850135602084015260408501359150808211156121a657600080fd5b506121b38582860161200f565b60408301525060608301356121c781611e99565b6060919091015292915050565b6000602082840312156121e657600080fd5b813567ffffffffffffffff8111156121fd57600080fd5b6108c28482850161212c565b6000806040838503121561221c57600080fd5b823567ffffffffffffffff8082111561223457600080fd5b6122408683870161212c565b935060209150818501358181111561225757600080fd5b8501601f8101871361226857600080fd5b80358281111561227a5761227a611fc8565b8060051b612289858201611fde565b918252828101850191858101908a8411156122a357600080fd5b86850192505b838310156122df578235868111156122c15760008081fd5b6122cf8c898389010161200f565b83525091860191908601906122a9565b809750505050505050509250929050565b60008060006060848603121561230557600080fd5b83359250602084013561231781611e99565b915060408401356003811061232b57600080fd5b809150509250925092565b80151581146110f657600080fd5b6000806040838503121561235757600080fd5b823561236281611e99565b9150602083013561237281612336565b809150509250929050565b6000806040838503121561239057600080fd5b82359150602083013561237281611e99565b634e487b7160e01b600052602160045260246000fd5b60208101600383106123da57634e487b7160e01b600052602160045260246000fd5b91905290565b600080604083850312156123f357600080fd5b82356123fe81611e99565b9150602083013561237281611e99565b60006020828403121561242057600080fd5b8151610cd781612336565b600181811c9082168061243f57607f821691505b60208210810361245f57634e487b7160e01b600052602260045260246000fd5b50919050565b6020808252602d908201527f4552433732313a2063616c6c6572206973206e6f7420746f6b656e206f776e6560408201526c1c881bdc88185c1c1c9bdd9959609a1b606082015260800190565b6000604082840312156124c457600080fd5b6040516040810181811067ffffffffffffffff821117156124e7576124e7611fc8565b6040528251815260208301516124fc81611e99565b60208201529392505050565b6020808252601e908201527f4e4f444548414e444c45523a205045524d495353494f4e5f44454e4945440000604082015260600190565b60008351612551818460208801611efe565b835190830190612565818360208801611efe565b01949350505050565b60208082526025908201527f4552433732313a207472616e736665722066726f6d20696e636f72726563742060408201526437bbb732b960d91b606082015260800190565b634e487b7160e01b600052603260045260246000fd5b600082516125db818460208701611efe565b9190910192915050565b60006001820161260557634e487b7160e01b600052601160045260246000fd5b5060010190565b60006020828403121561261e57600080fd5b8151610cd781611e99565b60208082526032908201527f4552433732313a207472616e7366657220746f206e6f6e20455243373231526560408201527131b2b4bb32b91034b6b83632b6b2b73a32b960711b606082015260800190565b6001600160a01b03858116825284166020820152604081018390526080606082018190526000906126ae90830184611f22565b9695505050505050565b6000602082840312156126ca57600080fd5b8151610cd781611ecb56fea2646970667358221220c880b5bcd2c1ffd9f398d22dd72f3b960b3f836bbebab7309d527fda7ec13fdc64736f6c63430008130033",
  "linkReferences": {},
  "deployedLinkReferences": {}
}