{
  "_format": "hh-sol-artifact-1",
  "contractName": "$CallReceiverMock",
  "sourceName": "contracts-exposed/forks/mocks/CallReceiverMock.sol",
  "abi": [
    {
      "inputs": [],
      "stateMutability": "payable",
      "type": "constructor"
    },
    {
      "inputs": [],
      "name": "__hh_exposed_bytecode_marker",
      "outputs": [
        {
          "internalType": "bytes32",
          "name": "",
          "type": "bytes32"
        }
      ],
      "stateMutability": "view",
      "type": "function"
    },
    {
      "stateMutability": "payable",
      "type": "receive"
    }
  ],
  "bytecode": "0x608060405260978060116000396000f3fe60806040526004361060205760003560e01c8063342db73914602b57600080fd5b36602657005b600080fd5b348015603657600080fd5b50604f6e1a185c991a185d0b595e1c1bdcd959608a1b81565b60405190815260200160405180910390f3fea26469706673582212208206f311dc9a0184b97c9f6474a3fc350583366c34bc58d688010ef7834c0e1364736f6c63430008130033",
  "linkReferences": {},
  "deployedLinkReferences": {}
}