{
  "_format": "hh-sol-artifact-1",
  "contractName": "$CallReceiverMockTrustingForwarder",
  "sourceName": "contracts-exposed/forks/mocks/CallReceiverMock.sol",
  "abi": [
    {
      "inputs": [],
      "stateMutability": "payable",
      "type": "constructor"
    },
    {
      "inputs": [],
      "name": "__hh_exposed_bytecode_marker",
      "outputs": [
        {
          "internalType": "bytes32",
          "name": "",
          "type": "bytes32"
        }
      ],
      "stateMutability": "view",
      "type": "function"
    },
    {
      "stateMutability": "payable",
      "type": "receive"
    }
  ],
  "bytecode": "0x608060405260978060116000396000f3fe60806040526004361060205760003560e01c8063342db73914602b57600080fd5b36602657005b600080fd5b348015603657600080fd5b50604f6e1a185c991a185d0b595e1c1bdcd959608a1b81565b60405190815260200160405180910390f3fea2646970667358221220952bcdaac189e74dcc231467c46db431d76425bb0e92c14f37a32fa14f74f55b64736f6c63430008130033",
  "linkReferences": {},
  "deployedLinkReferences": {}
}