{
  "_format": "hh-sol-artifact-1",
  "contractName": "Etches",
  "sourceName": "contracts/CEtches.sol",
  "abi": [
    {
      "inputs": [
        {
          "internalType": "address",
          "name": "teamsContract",
          "type": "address"
        }
      ],
      "stateMutability": "nonpayable",
      "type": "constructor"
    },
    {
      "anonymous": false,
      "inputs": [
        {
          "indexed": true,
          "internalType": "address",
          "name": "owner",
          "type": "address"
        },
        {
          "indexed": true,
          "internalType": "address",
          "name": "approved",
          "type": "address"
        },
        {
          "indexed": true,
          "internalType": "uint256",
          "name": "tokenId",
          "type": "uint256"
        }
      ],
      "name": "Approval",
      "type": "event"
    },
    {
      "anonymous": false,
      "inputs": [
        {
          "indexed": true,
          "internalType": "address",
          "name": "owner",
          "type": "address"
        },
        {
          "indexed": true,
          "internalType": "address",
          "name": "operator",
          "type": "address"
        },
        {
          "indexed": false,
          "internalType": "bool",
          "name": "approved",
          "type": "bool"
        }
      ],
      "name": "ApprovalForAll",
      "type": "event"
    },
    {
      "anonymous": false,
      "inputs": [
        {
          "indexed": true,
          "internalType": "uint256",
          "name": "tokenId",
          "type": "uint256"
        },
        {
          "indexed": true,
          "internalType": "uint256",
          "name": "commentId",
          "type": "uint256"
        },
        {
          "components": [
            {
              "internalType": "string",
              "name": "commentIpfsCid",
              "type": "string"
            },
            {
              "internalType": "uint256",
              "name": "timestamp",
              "type": "uint256"
            }
          ],
          "indexed": false,
          "internalType": "struct IEtches.SComments",
          "name": "comment",
          "type": "tuple"
        }
      ],
      "name": "CommentAdded",
      "type": "event"
    },
    {
      "anonymous": false,
      "inputs": [
        {
          "indexed": true,
          "internalType": "uint256",
          "name": "tokenId",
          "type": "uint256"
        },
        {
          "indexed": true,
          "internalType": "address",
          "name": "to",
          "type": "address"
        },
        {
          "indexed": false,
          "internalType": "string",
          "name": "ipfsCid",
          "type": "string"
        },
        {
          "indexed": false,
          "internalType": "string",
          "name": "documentName",
          "type": "string"
        }
      ],
      "name": "EtchCreated",
      "type": "event"
    },
    {
      "anonymous": false,
      "inputs": [
        {
          "indexed": true,
          "internalType": "uint256",
          "name": "tokenId",
          "type": "uint256"
        },
        {
          "indexed": false,
          "internalType": "string",
          "name": "ipfsCid",
          "type": "string"
        },
        {
          "indexed": false,
          "internalType": "string",
          "name": "documentName",
          "type": "string"
        }
      ],
      "name": "EtchMetadataUpdated",
      "type": "event"
    },
    {
      "anonymous": false,
      "inputs": [
        {
          "indexed": true,
          "internalType": "uint256",
          "name": "tokenId",
          "type": "uint256"
        },
        {
          "indexed": true,
          "internalType": "address",
          "name": "from",
          "type": "address"
        },
        {
          "indexed": true,
          "internalType": "uint256",
          "name": "to",
          "type": "uint256"
        }
      ],
      "name": "EtchTransferedToTeam",
      "type": "event"
    },
    {
      "anonymous": false,
      "inputs": [
        {
          "indexed": true,
          "internalType": "uint256",
          "name": "tokenId",
          "type": "uint256"
        },
        {
          "indexed": true,
          "internalType": "address",
          "name": "account",
          "type": "address"
        },
        {
          "indexed": false,
          "internalType": "enum ITeams.EPermissions",
          "name": "newPermission",
          "type": "uint8"
        }
      ],
      "name": "InvididualPermissionsUpdated",
      "type": "event"
    },
    {
      "anonymous": false,
      "inputs": [
        {
          "indexed": true,
          "internalType": "address",
          "name": "previousOwner",
          "type": "address"
        },
        {
          "indexed": true,
          "internalType": "address",
          "name": "newOwner",
          "type": "address"
        }
      ],
      "name": "OwnershipTransferred",
      "type": "event"
    },
    {
      "anonymous": false,
      "inputs": [
        {
          "indexed": true,
          "internalType": "uint256",
          "name": "tokenId",
          "type": "uint256"
        },
        {
          "indexed": true,
          "internalType": "uint256",
          "name": "teamId",
          "type": "uint256"
        },
        {
          "indexed": false,
          "internalType": "enum ITeams.EPermissions",
          "name": "newPermission",
          "type": "uint8"
        }
      ],
      "name": "TeamPermissionsUpdated",
      "type": "event"
    },
    {
      "anonymous": false,
      "inputs": [
        {
          "indexed": true,
          "internalType": "address",
          "name": "from",
          "type": "address"
        },
        {
          "indexed": true,
          "internalType": "address",
          "name": "to",
          "type": "address"
        },
        {
          "indexed": true,
          "internalType": "uint256",
          "name": "tokenId",
          "type": "uint256"
        }
      ],
      "name": "Transfer",
      "type": "event"
    },
    {
      "inputs": [
        {
          "internalType": "address",
          "name": "node",
          "type": "address"
        }
      ],
      "name": "_nodes",
      "outputs": [
        {
          "internalType": "bool",
          "name": "isNode",
          "type": "bool"
        }
      ],
      "stateMutability": "view",
      "type": "function"
    },
    {
      "inputs": [
        {
          "internalType": "address",
          "name": "node",
          "type": "address"
        }
      ],
      "name": "addNode",
      "outputs": [],
      "stateMutability": "nonpayable",
      "type": "function"
    },
    {
      "inputs": [
        {
          "internalType": "address",
          "name": "to",
          "type": "address"
        },
        {
          "internalType": "uint256",
          "name": "tokenId",
          "type": "uint256"
        }
      ],
      "name": "approve",
      "outputs": [],
      "stateMutability": "nonpayable",
      "type": "function"
    },
    {
      "inputs": [
        {
          "internalType": "address",
          "name": "owner",
          "type": "address"
        }
      ],
      "name": "balanceOf",
      "outputs": [
        {
          "internalType": "uint256",
          "name": "",
          "type": "uint256"
        }
      ],
      "stateMutability": "view",
      "type": "function"
    },
    {
      "inputs": [
        {
          "components": [
            {
              "internalType": "bytes",
              "name": "encodedMessage",
              "type": "bytes"
            },
            {
              "internalType": "bytes32",
              "name": "messageHash",
              "type": "bytes32"
            },
            {
              "internalType": "bytes",
              "name": "signature",
              "type": "bytes"
            },
            {
              "internalType": "address",
              "name": "signer",
              "type": "address"
            }
          ],
          "internalType": "struct SignatureVerifier.Signature",
          "name": "_signature",
          "type": "tuple"
        }
      ],
      "name": "checkSignature",
      "outputs": [
        {
          "components": [
            {
              "internalType": "uint256",
              "name": "blockNumber",
              "type": "uint256"
            },
            {
              "internalType": "address",
              "name": "nodeAddress",
              "type": "address"
            }
          ],
          "internalType": "struct SignatureVerifier.EncodedMessage",
          "name": "",
          "type": "tuple"
        }
      ],
      "stateMutability": "view",
      "type": "function"
    },
    {
      "inputs": [
        {
          "internalType": "uint256",
          "name": "tokenId",
          "type": "uint256"
        },
        {
          "internalType": "string",
          "name": "commentIpfsCid",
          "type": "string"
        }
      ],
      "name": "commentOnEtch",
      "outputs": [],
      "stateMutability": "nonpayable",
      "type": "function"
    },
    {
      "inputs": [
        {
          "internalType": "uint256",
          "name": "etch",
          "type": "uint256"
        }
      ],
      "name": "commentsOf",
      "outputs": [
        {
          "internalType": "string",
          "name": "commentIpfsCid",
          "type": "string"
        },
        {
          "internalType": "uint256",
          "name": "timestamp",
          "type": "uint256"
        }
      ],
      "stateMutability": "view",
      "type": "function"
    },
    {
      "inputs": [
        {
          "components": [
            {
              "internalType": "bytes",
              "name": "encodedMessage",
              "type": "bytes"
            },
            {
              "internalType": "bytes32",
              "name": "messageHash",
              "type": "bytes32"
            },
            {
              "internalType": "bytes",
              "name": "signature",
              "type": "bytes"
            },
            {
              "internalType": "address",
              "name": "signer",
              "type": "address"
            }
          ],
          "internalType": "struct SignatureVerifier.Signature",
          "name": "signature",
          "type": "tuple"
        },
        {
          "internalType": "bytes[]",
          "name": "_calldata",
          "type": "bytes[]"
        }
      ],
      "name": "delegateCallsToSelf",
      "outputs": [],
      "stateMutability": "nonpayable",
      "type": "function"
    },
    {
      "inputs": [
        {
          "internalType": "uint256",
          "name": "tokenId",
          "type": "uint256"
        }
      ],
      "name": "getApproved",
      "outputs": [
        {
          "internalType": "address",
          "name": "",
          "type": "address"
        }
      ],
      "stateMutability": "view",
      "type": "function"
    },
    {
      "inputs": [],
      "name": "getParent",
      "outputs": [
        {
          "internalType": "address",
          "name": "",
          "type": "address"
        }
      ],
      "stateMutability": "view",
      "type": "function"
    },
    {
      "inputs": [],
      "name": "getTotalSupply",
      "outputs": [
        {
          "internalType": "uint256",
          "name": "",
          "type": "uint256"
        }
      ],
      "stateMutability": "view",
      "type": "function"
    },
    {
      "inputs": [
        {
          "internalType": "address",
          "name": "account",
          "type": "address"
        },
        {
          "internalType": "uint256",
          "name": "tokenId",
          "type": "uint256"
        }
      ],
      "name": "hasReadPermission",
      "outputs": [
        {
          "internalType": "bool",
          "name": "",
          "type": "bool"
        }
      ],
      "stateMutability": "view",
      "type": "function"
    },
    {
      "inputs": [
        {
          "internalType": "address",
          "name": "account",
          "type": "address"
        },
        {
          "internalType": "uint256",
          "name": "tokenId",
          "type": "uint256"
        }
      ],
      "name": "hasWritePermission",
      "outputs": [
        {
          "internalType": "bool",
          "name": "",
          "type": "bool"
        }
      ],
      "stateMutability": "view",
      "type": "function"
    },
    {
      "inputs": [
        {
          "internalType": "uint256",
          "name": "etch",
          "type": "uint256"
        },
        {
          "internalType": "uint256",
          "name": "team",
          "type": "uint256"
        }
      ],
      "name": "indexOfTeamPermissionsOf",
      "outputs": [
        {
          "internalType": "uint256",
          "name": "index",
          "type": "uint256"
        }
      ],
      "stateMutability": "view",
      "type": "function"
    },
    {
      "inputs": [
        {
          "internalType": "uint256",
          "name": "etch",
          "type": "uint256"
        },
        {
          "internalType": "address",
          "name": "user",
          "type": "address"
        }
      ],
      "name": "individualPermissionsOf",
      "outputs": [
        {
          "internalType": "enum ITeams.EPermissions",
          "name": "permission",
          "type": "uint8"
        }
      ],
      "stateMutability": "view",
      "type": "function"
    },
    {
      "inputs": [
        {
          "internalType": "address",
          "name": "owner",
          "type": "address"
        },
        {
          "internalType": "address",
          "name": "operator",
          "type": "address"
        }
      ],
      "name": "isApprovedForAll",
      "outputs": [
        {
          "internalType": "bool",
          "name": "",
          "type": "bool"
        }
      ],
      "stateMutability": "view",
      "type": "function"
    },
    {
      "inputs": [
        {
          "internalType": "address",
          "name": "node",
          "type": "address"
        }
      ],
      "name": "isNode",
      "outputs": [
        {
          "internalType": "bool",
          "name": "",
          "type": "bool"
        }
      ],
      "stateMutability": "view",
      "type": "function"
    },
    {
      "inputs": [
        {
          "internalType": "uint256",
          "name": "etch",
          "type": "uint256"
        }
      ],
      "name": "metadataOf",
      "outputs": [
        {
          "internalType": "address",
          "name": "creator",
          "type": "address"
        },
        {
          "internalType": "string",
          "name": "documentName",
          "type": "string"
        },
        {
          "internalType": "string",
          "name": "ipfsCid",
          "type": "string"
        },
        {
          "internalType": "uint256",
          "name": "commentsCount",
          "type": "uint256"
        },
        {
          "internalType": "uint256",
          "name": "timestamp",
          "type": "uint256"
        }
      ],
      "stateMutability": "view",
      "type": "function"
    },
    {
      "inputs": [],
      "name": "name",
      "outputs": [
        {
          "internalType": "string",
          "name": "",
          "type": "string"
        }
      ],
      "stateMutability": "view",
      "type": "function"
    },
    {
      "inputs": [],
      "name": "owner",
      "outputs": [
        {
          "internalType": "address",
          "name": "",
          "type": "address"
        }
      ],
      "stateMutability": "view",
      "type": "function"
    },
    {
      "inputs": [
        {
          "internalType": "uint256",
          "name": "tokenId",
          "type": "uint256"
        }
      ],
      "name": "ownerOf",
      "outputs": [
        {
          "internalType": "address",
          "name": "",
          "type": "address"
        }
      ],
      "stateMutability": "view",
      "type": "function"
    },
    {
      "inputs": [],
      "name": "renounceOwnership",
      "outputs": [],
      "stateMutability": "nonpayable",
      "type": "function"
    },
    {
      "inputs": [
        {
          "internalType": "address",
          "name": "to",
          "type": "address"
        },
        {
          "internalType": "string",
          "name": "documentName",
          "type": "string"
        },
        {
          "internalType": "string",
          "name": "ipfsCid",
          "type": "string"
        }
      ],
      "name": "safeMint",
      "outputs": [
        {
          "internalType": "uint256",
          "name": "",
          "type": "uint256"
        }
      ],
      "stateMutability": "nonpayable",
      "type": "function"
    },
    {
      "inputs": [
        {
          "internalType": "uint256",
          "name": "teamId",
          "type": "uint256"
        },
        {
          "internalType": "string",
          "name": "documentName",
          "type": "string"
        },
        {
          "internalType": "string",
          "name": "ipfsCid",
          "type": "string"
        }
      ],
      "name": "safeMintForTeam",
      "outputs": [],
      "stateMutability": "nonpayable",
      "type": "function"
    },
    {
      "inputs": [
        {
          "internalType": "address",
          "name": "from",
          "type": "address"
        },
        {
          "internalType": "address",
          "name": "to",
          "type": "address"
        },
        {
          "internalType": "uint256",
          "name": "tokenId",
          "type": "uint256"
        }
      ],
      "name": "safeTransferFrom",
      "outputs": [],
      "stateMutability": "nonpayable",
      "type": "function"
    },
    {
      "inputs": [
        {
          "internalType": "address",
          "name": "from",
          "type": "address"
        },
        {
          "internalType": "address",
          "name": "to",
          "type": "address"
        },
        {
          "internalType": "uint256",
          "name": "tokenId",
          "type": "uint256"
        },
        {
          "internalType": "bytes",
          "name": "data",
          "type": "bytes"
        }
      ],
      "name": "safeTransferFrom",
      "outputs": [],
      "stateMutability": "nonpayable",
      "type": "function"
    },
    {
      "inputs": [
        {
          "internalType": "address",
          "name": "operator",
          "type": "address"
        },
        {
          "internalType": "bool",
          "name": "approved",
          "type": "bool"
        }
      ],
      "name": "setApprovalForAll",
      "outputs": [],
      "stateMutability": "nonpayable",
      "type": "function"
    },
    {
      "inputs": [
        {
          "internalType": "uint256",
          "name": "tokenId",
          "type": "uint256"
        },
        {
          "internalType": "address",
          "name": "account",
          "type": "address"
        },
        {
          "internalType": "enum ITeams.EPermissions",
          "name": "permission",
          "type": "uint8"
        }
      ],
      "name": "setIndividualPermissions",
      "outputs": [],
      "stateMutability": "nonpayable",
      "type": "function"
    },
    {
      "inputs": [
        {
          "internalType": "uint256",
          "name": "tokenId",
          "type": "uint256"
        },
        {
          "internalType": "string",
          "name": "documentName",
          "type": "string"
        },
        {
          "internalType": "string",
          "name": "ipfsCid",
          "type": "string"
        }
      ],
      "name": "setMetadata",
      "outputs": [],
      "stateMutability": "nonpayable",
      "type": "function"
    },
    {
      "inputs": [
        {
          "internalType": "uint256",
          "name": "tokenId",
          "type": "uint256"
        },
        {
          "internalType": "uint256",
          "name": "teamId",
          "type": "uint256"
        },
        {
          "internalType": "enum ITeams.EPermissions",
          "name": "permission",
          "type": "uint8"
        }
      ],
      "name": "setTeamPermissions",
      "outputs": [],
      "stateMutability": "nonpayable",
      "type": "function"
    },
    {
      "inputs": [
        {
          "internalType": "bytes4",
          "name": "interfaceId",
          "type": "bytes4"
        }
      ],
      "name": "supportsInterface",
      "outputs": [
        {
          "internalType": "bool",
          "name": "",
          "type": "bool"
        }
      ],
      "stateMutability": "view",
      "type": "function"
    },
    {
      "inputs": [],
      "name": "symbol",
      "outputs": [
        {
          "internalType": "string",
          "name": "",
          "type": "string"
        }
      ],
      "stateMutability": "view",
      "type": "function"
    },
    {
      "inputs": [
        {
          "internalType": "uint256",
          "name": "etch",
          "type": "uint256"
        }
      ],
      "name": "teamOf",
      "outputs": [
        {
          "internalType": "uint256",
          "name": "team",
          "type": "uint256"
        }
      ],
      "stateMutability": "view",
      "type": "function"
    },
    {
      "inputs": [
        {
          "internalType": "uint256",
          "name": "etch",
          "type": "uint256"
        },
        {
          "internalType": "uint256",
          "name": "",
          "type": "uint256"
        }
      ],
      "name": "teamPermissionsOf",
      "outputs": [
        {
          "internalType": "uint256",
          "name": "teamId",
          "type": "uint256"
        },
        {
          "internalType": "enum ITeams.EPermissions",
          "name": "permission",
          "type": "uint8"
        }
      ],
      "stateMutability": "view",
      "type": "function"
    },
    {
      "inputs": [],
      "name": "teams",
      "outputs": [
        {
          "internalType": "address",
          "name": "",
          "type": "address"
        }
      ],
      "stateMutability": "view",
      "type": "function"
    },
    {
      "inputs": [
        {
          "internalType": "uint256",
          "name": "tokenId",
          "type": "uint256"
        }
      ],
      "name": "tokenURI",
      "outputs": [
        {
          "internalType": "string",
          "name": "",
          "type": "string"
        }
      ],
      "stateMutability": "view",
      "type": "function"
    },
    {
      "inputs": [
        {
          "internalType": "address",
          "name": "from",
          "type": "address"
        },
        {
          "internalType": "address",
          "name": "to",
          "type": "address"
        },
        {
          "internalType": "uint256",
          "name": "tokenId",
          "type": "uint256"
        }
      ],
      "name": "transferFrom",
      "outputs": [],
      "stateMutability": "nonpayable",
      "type": "function"
    },
    {
      "inputs": [
        {
          "internalType": "address",
          "name": "newOwner",
          "type": "address"
        }
      ],
      "name": "transferOwnership",
      "outputs": [],
      "stateMutability": "nonpayable",
      "type": "function"
    },
    {
      "inputs": [
        {
          "internalType": "uint256",
          "name": "tokenId",
          "type": "uint256"
        },
        {
          "internalType": "uint256",
          "name": "teamId",
          "type": "uint256"
        }
      ],
      "name": "transferToTeam",
      "outputs": [],
      "stateMutability": "nonpayable",
      "type": "function"
    }
  ],
  "bytecode": "0x60806040523480156200001157600080fd5b5060405162003bd938038062003bd983398101604081905262000034916200018e565b806040518060400160405280600681526020016545746368657360d01b8152506040518060400160405280600481526020016308aa886960e31b815250620000836000620000f260201b60201c565b600162000091838262000265565b506002620000a0828262000265565b505050620000bd620000b76200011460201b60201c565b6200013c565b600880546001600160a01b039283166001600160a01b031991821617909155600b805493909216921691909117905562000331565b600080546001600160a01b0319166001600160a01b0392909216919091179055565b600080546001600160a01b0316156200013757506000546001600160a01b031690565b503390565b600780546001600160a01b038381166001600160a01b0319831681179093556040519116919082907f8be0079c531659141344cd1fd0a4f28419497f9722a3daafe3b4186f6b6457e090600090a35050565b600060208284031215620001a157600080fd5b81516001600160a01b0381168114620001b957600080fd5b9392505050565b634e487b7160e01b600052604160045260246000fd5b600181811c90821680620001eb57607f821691505b6020821081036200020c57634e487b7160e01b600052602260045260246000fd5b50919050565b601f8211156200026057600081815260208120601f850160051c810160208610156200023b5750805b601f850160051c820191505b818110156200025c5782815560010162000247565b5050505b505050565b81516001600160401b03811115620002815762000281620001c0565b6200029981620002928454620001d6565b8462000212565b602080601f831160018114620002d15760008415620002b85750858301515b600019600386901b1c1916600185901b1785556200025c565b600085815260208120601f198616915b828110156200030257888601518255948401946001909101908401620002e1565b5085821015620003215787850151600019600388901b60f8161c191681555b5050505050600190811b01905550565b61389880620003416000396000f3fe608060405234801561001057600080fd5b506004361061023d5760003560e01c806381fb5d4b1161013b578063ce0895e1116100b8578063eca81d421161007c578063eca81d421461059e578063f09d5449146105b1578063f21e7d74146105d2578063f2fde38b146105e5578063fbc3a097146105f857600080fd5b8063ce0895e1146104f0578063d20d259114610503578063dfdeddb514610516578063e1902c7314610537578063e985e9c51461056257600080fd5b8063a22cb465116100ff578063a22cb46514610474578063aaed1bee14610487578063b88d4fde146104c2578063c4e41b22146104d5578063c87b56dd146104dd57600080fd5b806381fb5d4b146104125780638da5cb5b1461043557806395d89b41146104465780639d079cd51461044e5780639d95f1cc1461046157600080fd5b8063313a9940116101c95780635cc5b4da1161018d5780635cc5b4da146103b25780636352211e146103c557806370a08231146103d8578063715018a6146103f957806380f760211461040157600080fd5b8063313a99401461032f5780633d8386d41461036657806342842e0e146103795780634b4b98bd1461038c57806359f9f50f1461039f57600080fd5b806306fdde031161021057806306fdde03146102bd578063081812fc146102d2578063095ea7b3146102e55780630ef7cc8e146102f857806323b872dd1461031c57600080fd5b8063017501521461024257806301ffc9a71461026a5780630397fde01461027d57806303de3ad714610292575b600080fd5b610255610250366004612b83565b610618565b60405190151581526020015b60405180910390f35b610255610278366004612bb6565b6106c2565b61029061028b366004612c70565b610712565b005b600b546102a5906001600160a01b031681565b6040516001600160a01b039091168152602001610261565b6102c561083c565b6040516102619190612d1a565b6102a56102e0366004612d2d565b6108ce565b6102906102f3366004612d46565b6108f5565b61030b610306366004612d2d565b610a1c565b604051610261959493929190612d72565b61029061032a366004612dbd565b610b65565b61034261033d366004612ec5565b610b9d565b60408051825181526020928301516001600160a01b03169281019290925201610261565b610290610374366004612f08565b610d0b565b610290610387366004612dbd565b610d56565b61029061039a366004612f46565b610d71565b6102906103ad36600461306d565b610e3b565b6102556103c0366004612d46565b611079565b6102a56103d3366004612d2d565b61108e565b6103eb6103e6366004612b83565b6110ed565b604051908152602001610261565b610290611173565b6008546001600160a01b03166102a5565b610255610420366004612b83565b60096020526000908152604090205460ff1681565b6007546001600160a01b03166102a5565b6102c5611187565b61025561045c366004612d46565b611196565b61029061046f366004612b83565b6111a4565b6102906104823660046130f4565b6111d0565b6104b561049536600461312d565b600d60209081526000928352604080842090915290825290205460ff1681565b604051610261919061318a565b6102906104d0366004613198565b611251565b6103eb611290565b6102c56104eb366004612d2d565b6112a0565b6102906104fe36600461306d565b611313565b610290610511366004613203565b611475565b61052961052436600461322f565b6114c0565b604051610261929190613251565b6103eb61054536600461322f565b600f60209081526000928352604080842090915290825290205481565b610255610570366004613265565b6001600160a01b03918216600090815260066020908152604080832093909416825291909152205460ff1690565b6103eb6105ac366004613293565b6114ff565b6105c46105bf366004612d2d565b611697565b6040516102619291906132d2565b6102906105e036600461322f565b61173b565b6102906105f3366004612b83565b6118a2565b6103eb610606366004612d2d565b600c6020526000908152604090205481565b6008546000906001600160a01b031661064a57506001600160a01b031660009081526009602052604090205460ff1690565b60085460405162ba80a960e11b81526001600160a01b03848116600483015290911690630175015290602401602060405180830381865afa158015610693573d6000803e3d6000fd5b505050506040513d601f19601f820116820180604052508101906106b791906132f4565b92915050565b919050565b60006001600160e01b031982166380ac58cd60e01b14806106f357506001600160e01b03198216635b5e139f60e01b145b806106b757506301ffc9a760e01b6001600160e01b03198316146106b7565b61072361071d61191b565b83611196565b6107805760405162461bcd60e51b815260206004820152602360248201527f455443483a204e6f7420616c6c6f77656420746f2072656164207468697320456044820152620e8c6d60eb1b60648201526084015b60405180910390fd5b604080518082018252828152426020808301919091526000858152601190915291909120815181906107b29082613393565b5060209182015160019091015560008381526010909152604081206003018054916107dc83613468565b90915550506000828152601060209081526040808320600301546011909252918290209151909184917f9fdb3b1aaebb9d0ff4028eb77415bcda767fbd42d09dcb214a72e8aa7aa6fe399161083091613481565b60405180910390a35050565b60606001805461084b90613311565b80601f016020809104026020016040519081016040528092919081815260200182805461087790613311565b80156108c45780601f10610899576101008083540402835291602001916108c4565b820191906000526020600020905b8154815290600101906020018083116108a757829003601f168201915b5050505050905090565b60006108d982611942565b506000908152600560205260409020546001600160a01b031690565b60006109008261108e565b9050806001600160a01b0316836001600160a01b03160361096d5760405162461bcd60e51b815260206004820152602160248201527f4552433732313a20617070726f76616c20746f2063757272656e74206f776e656044820152603960f91b6064820152608401610777565b806001600160a01b031661097f61191b565b6001600160a01b0316148061099b575061099b8161057061191b565b610a0d5760405162461bcd60e51b815260206004820152603d60248201527f4552433732313a20617070726f76652063616c6c6572206973206e6f7420746f60448201527f6b656e206f776e6572206f7220617070726f76656420666f7220616c6c0000006064820152608401610777565b610a178383611992565b505050565b601060205260009081526040902080546001820180546001600160a01b039092169291610a4890613311565b80601f0160208091040260200160405190810160405280929190818152602001828054610a7490613311565b8015610ac15780601f10610a9657610100808354040283529160200191610ac1565b820191906000526020600020905b815481529060010190602001808311610aa457829003601f168201915b505050505090806002018054610ad690613311565b80601f0160208091040260200160405190810160405280929190818152602001828054610b0290613311565b8015610b4f5780601f10610b2457610100808354040283529160200191610b4f565b820191906000526020600020905b815481529060010190602001808311610b3257829003601f168201915b5050505050908060030154908060040154905085565b610b76610b7061191b565b82611a00565b610b925760405162461bcd60e51b81526004016107779061351e565b610a17838383611a7f565b604080518082019091526000808252602082015260208201518251610bc790805160209091012090565b14610c295760405162461bcd60e51b815260206004820152602c60248201527f546865206d657373616765206861736820646f65736e2774206d61746368207460448201526b6865206f726967696e616c2160a01b6064820152608401610777565b602080830151604080517f19457468657265756d205369676e6564204d6573736167653a0a33320000000081850152603c8082019390935281518082039093018352605c01905280519101206000610c85828560400151611be3565b905083606001516001600160a01b0316816001600160a01b031614610cdd5760405162461bcd60e51b815260206004820152600e60248201526d24b73b30b634b21039b4b3b732b960911b6044820152606401610777565b60008460000151806020019051810190610cf7919061356b565b9050610d0281611c07565b50949350505050565b610d1361191b565b6001600160a01b0316610d258461108e565b6001600160a01b031614610d4b5760405162461bcd60e51b8152600401610777906135c0565b610a17838383611c5a565b610a1783838360405180602001604052806000815250611251565b610d7c61025061191b565b610d985760405162461bcd60e51b815260040161077790613612565b6000610da383610b9d565b60208101519091506001600160a01b0316331480610dcc575060208101516001600160a01b0316155b610de85760405162461bcd60e51b815260040161077790613612565b610df133610618565b80610e11575082606001516001600160a01b0316336001600160a01b0316145b610e2d5760405162461bcd60e51b815260040161077790613612565b610a17836060015183611ce5565b610e4c610e4661191b565b86611196565b80610e5d5750610e5d61025061191b565b610eb55760405162461bcd60e51b8152602060048201526024808201527f455443483a204e6f7420616c6c6f77656420746f20777269746520746869732060448201526308ae8c6d60e31b6064820152608401610777565b60008581526010602052604090206002018054610ed190613311565b159050610f2b5760405162461bcd60e51b815260206004820152602260248201527f455443483a204d6574616461746120616c726561647920696e697469616c697a604482015261195960f21b6064820152608401610777565b6040518060a00160405280610f3e61191b565b6001600160a01b0316815260200185858080601f016020809104026020016040519081016040528093929190818152602001838380828437600092019190915250505090825250604080516020601f860181900481028201810190925284815291810191908590859081908401838280828437600092018290525093855250505060208083018290524260409384015288825260108152919020825181546001600160a01b0319166001600160a01b039091161781559082015160018201906110079082613393565b506040820151600282019061101c9082613393565b506060820151816003015560808201518160040155905050847f71997ebb2c9c49ccf0e5b757d1f7043b543cdb772cc1772ba2d29911fc9c80ef8383878760405161106a9493929190613672565b60405180910390a25050505050565b600061108783836001611e17565b9392505050565b60008061109a83612088565b90506001600160a01b0381166106b75760405162461bcd60e51b8152602060048201526018602482015277115490cdcc8c4e881a5b9d985b1a59081d1bdad95b88125160421b6044820152606401610777565b60006001600160a01b0382166111575760405162461bcd60e51b815260206004820152602960248201527f4552433732313a2061646472657373207a65726f206973206e6f7420612076616044820152683634b21037bbb732b960b91b6064820152608401610777565b506001600160a01b031660009081526004602052604090205490565b61117b612136565b61118560006121af565b565b60606002805461084b90613311565b600061108783836002611e17565b6111ac612136565b6001600160a01b03166000908152600960205260409020805460ff19166001179055565b6001600160a01b03821661123b5760405162461bcd60e51b815260206004820152602c60248201527f4552433732313a2061646472657373207a65726f206973206e6f74206120766160448201526b3634b21037b832b930ba37b960a11b6064820152608401610777565b61124d61124661191b565b8383612201565b5050565b61126261125c61191b565b83611a00565b61127e5760405162461bcd60e51b81526004016107779061351e565b61128a848484846122c7565b50505050565b600061129b600a5490565b905090565b60606112ab82611942565b60006112c260408051602081019091526000815290565b905060008151116112e25760405180602001604052806000815250611087565b806112ec846122fa565b6040516020016112fd9291906136a4565b6040516020818303038152906040529392505050565b600b546001600160a01b031663823abfd98661132d61191b565b60026040518463ffffffff1660e01b815260040161134d939291906136d3565b602060405180830381865afa15801561136a573d6000803e3d6000fd5b505050506040513d601f19601f8201168201806040525081019061138e91906132f4565b6113ea5760405162461bcd60e51b815260206004820152602760248201527f455443483a204e6f7420616c6c6f77656420746f206d696e7420666f722074686044820152666973207465616d60c81b6064820152608401610777565b600b54611403906001600160a01b0316858585856114ff565b50600061140f600a5490565b6000818152600c60205260409020879055905061142e8187600261238c565b8561143761191b565b6001600160a01b0316827f7c60b38676b30dba3b9acd6f8171f3689c3a3ddc4bece355e3709e3f2b47284b60405160405180910390a4505050505050565b61147d61191b565b6001600160a01b031661148f8461108e565b6001600160a01b0316146114b55760405162461bcd60e51b8152600401610777906135c0565b610a1783838361238c565b600e60205281600052604060002081815481106114dc57600080fd5b60009182526020909120600290910201805460019091015490925060ff16905082565b600061150f600a80546001019055565b600061151a600a5490565b905061153687826040518060200160405280600081525061255c565b8215611645576040518060a0016040528061154f61191b565b6001600160a01b0316815260200187878080601f016020809104026020016040519081016040528093929190818152602001838380828437600092019190915250505090825250604080516020601f880181900481028201810190925286815291810191908790879081908401838280828437600092018290525093855250505060208083018290524260409384015284825260108152919020825181546001600160a01b0319166001600160a01b039091161781559082015160018201906116189082613393565b506040820151600282019061162d9082613393565b50606082015160038201556080909101516004909101555b866001600160a01b0316817fee0e765c4f445c3017fdd1a1bed518410853d17b38f3262aaceebf0e94b320fc86868a8a6040516116859493929190613672565b60405180910390a39695505050505050565b6011602052600090815260409020805481906116b290613311565b80601f01602080910402602001604051908101604052809291908181526020018280546116de90613311565b801561172b5780601f106117005761010080835404028352916020019161172b565b820191906000526020600020905b81548152906001019060200180831161170e57829003601f168201915b5050505050908060010154905082565b600b54604080516325d92e6560e11b8152905183926001600160a01b031691634bb25cca9160048083019260209291908290030181865afa158015611784573d6000803e3d6000fd5b505050506040513d601f19601f820116820180604052508101906117a891906136f6565b10156117f65760405162461bcd60e51b815260206004820152601960248201527f455443483a205465616d20646f6573206e6f74206578697374000000000000006044820152606401610777565b61181361180161191b565b600b546001600160a01b031684611a7f565b6000828152600c602052604090205415611842576000828152600c60205260408120546118429184919061238c565b6000828152600c6020526040902081905561185f8282600261238c565b8061186861191b565b6001600160a01b0316837f7c60b38676b30dba3b9acd6f8171f3689c3a3ddc4bece355e3709e3f2b47284b60405160405180910390a45050565b6118aa612136565b6001600160a01b03811661190f5760405162461bcd60e51b815260206004820152602660248201527f4f776e61626c653a206e6577206f776e657220697320746865207a65726f206160448201526564647265737360d01b6064820152608401610777565b611918816121af565b50565b600080546001600160a01b03161561193d57506000546001600160a01b031690565b503390565b61194b8161258f565b6119185760405162461bcd60e51b8152602060048201526018602482015277115490cdcc8c4e881a5b9d985b1a59081d1bdad95b88125160421b6044820152606401610777565b600081815260056020526040902080546001600160a01b0319166001600160a01b03841690811790915581906119c78261108e565b6001600160a01b03167f8c5be1e5ebec7d5bd14f71427d1e84f3dd0314c0f7b2291e5b200ac8c7c3b92560405160405180910390a45050565b600080611a0c8361108e565b9050806001600160a01b0316846001600160a01b03161480611a5357506001600160a01b0380821660009081526006602090815260408083209388168352929052205460ff165b80611a775750836001600160a01b0316611a6c846108ce565b6001600160a01b0316145b949350505050565b826001600160a01b0316611a928261108e565b6001600160a01b031614611ab85760405162461bcd60e51b81526004016107779061370f565b6001600160a01b038216611b1a5760405162461bcd60e51b8152602060048201526024808201527f4552433732313a207472616e7366657220746f20746865207a65726f206164646044820152637265737360e01b6064820152608401610777565b826001600160a01b0316611b2d8261108e565b6001600160a01b031614611b535760405162461bcd60e51b81526004016107779061370f565b600081815260056020908152604080832080546001600160a01b03199081169091556001600160a01b0387811680865260048552838620805460001901905590871680865283862080546001019055868652600390945282852080549092168417909155905184937fddf252ad1be2c89b69c2b068fc378daa952ba7f163c4a11628f55a4df523b3ef91a4505050565b6000806000611bf285856125ac565b91509150611bff816125f1565b509392505050565b60004382600001511015611c525760405162461bcd60e51b815260206004820152601260248201527113595cdcd859d9481a5cc8195e1c1a5c995960721b6044820152606401610777565b506001919050565b6000838152600d602090815260408083206001600160a01b03861684529091529020805482919060ff19166001836002811115611c9957611c99613152565b0217905550816001600160a01b0316837f5a94177e4221a96ea6da8f897ea25dac13f5fec1ea44a2090b70bdd60938379483604051611cd8919061318a565b60405180910390a3505050565b816001600160a01b038116611d485760405162461bcd60e51b815260206004820152602360248201527f436f6e746578743a206e6577436f6e74657874206973207a65726f206164647260448201526265737360e81b6064820152608401610777565b611d518161273b565b60005b8251811015611e0c57600080306001600160a01b0316858481518110611d7c57611d7c613754565b6020026020010151604051611d91919061376a565b600060405180830381855af49150503d8060008114611dcc576040519150601f19603f3d011682016040523d82523d6000602084013e611dd1565b606091505b5091509150818190611df65760405162461bcd60e51b81526004016107779190612d1a565b5050508080611e0490613468565b915050611d54565b50610a17600061273b565b6000611e228361108e565b6001600160a01b0316846001600160a01b03161480611e885750816002811115611e4e57611e4e613152565b6000848152600d602090815260408083206001600160a01b038916845290915290205460ff166002811115611e8557611e85613152565b10155b80611f2957506000838152600c602052604090205415801590611f295750600b546000848152600c60205260409081902054905163823abfd960e01b81526001600160a01b039092169163823abfd991611ee891889087906004016136d3565b602060405180830381865afa158015611f05573d6000803e3d6000fd5b505050506040513d601f19601f82011682018060405250810190611f2991906132f4565b15611f3657506001611087565b6000838152600e6020526040812054905b8181101561207c57836002811115611f6157611f61613152565b6000868152600e60205260409020805483908110611f8157611f81613754565b600091825260209091206002918202016001015460ff1690811115611fa857611fa8613152565b1015801561205a5750600b546000868152600e6020526040902080546001600160a01b039092169163823abfd9919084908110611fe757611fe7613754565b90600052602060002090600202016000015488876040518463ffffffff1660e01b8152600401612019939291906136d3565b602060405180830381865afa158015612036573d6000803e3d6000fd5b505050506040513d601f19601f8201168201806040525081019061205a91906132f4565b1561206a57600192505050611087565b8061207481613468565b915050611f47565b50600095945050505050565b600081815260036020526040812054600b546001600160a01b03918216911681036106b757600b546000848152600c6020526040908190205490516331a9108f60e11b81526001600160a01b0390921691636352211e916120ef9160040190815260200190565b602060405180830381865afa15801561210c573d6000803e3d6000fd5b505050506040513d601f19601f820116820180604052508101906110879190613786565b50919050565b61213e61191b565b6001600160a01b03166121596007546001600160a01b031690565b6001600160a01b0316146111855760405162461bcd60e51b815260206004820181905260248201527f4f776e61626c653a2063616c6c6572206973206e6f7420746865206f776e65726044820152606401610777565b600780546001600160a01b038381166001600160a01b0319831681179093556040519116919082907f8be0079c531659141344cd1fd0a4f28419497f9722a3daafe3b4186f6b6457e090600090a35050565b816001600160a01b0316836001600160a01b0316036122625760405162461bcd60e51b815260206004820152601960248201527f4552433732313a20617070726f766520746f2063616c6c6572000000000000006044820152606401610777565b6001600160a01b03838116600081815260066020908152604080832094871680845294825291829020805460ff191686151590811790915591519182527f17307eab39ab6107e8899845ad3d59bd9653f200f220920489ca2b5937696c319101611cd8565b6122d2848484611a7f565b6122de8484848461275d565b61128a5760405162461bcd60e51b8152600401610777906137a3565b6060600061230783612865565b60010190506000816001600160401b0381111561232657612326612bd3565b6040519080825280601f01601f191660200182016040528015612350576020820181803683370190505b5090508181016020015b600019016f181899199a1a9b1b9c1cb0b131b232b360811b600a86061a8153600a850494508461235a57509392505050565b6000838152600f6020908152604080832085845290915290205415612428576000838152600e60209081526040808320600f8352818420868552909252909120548291906123dc906001906137f5565b815481106123ec576123ec613754565b906000526020600020906002020160010160006101000a81548160ff0219169083600281111561241e5761241e613152565b021790555061252b565b6000838152600e60209081526040909120541061247e5760405162461bcd60e51b8152602060048201526014602482015273455443483a20546f6f206d616e79207465616d7360601b6044820152606401610777565b600e600084815260200190815260200160002060405180604001604052808481526020018360028111156124b4576124b4613152565b90528154600181810184556000938452602093849020835160029384029091019081559383015184820180549495949193909260ff199092169190849081111561250057612500613152565b021790555050506000838152600e6020908152604080832054600f8352818420868552909252909120555b81837f6749c1ab5a73d638660eac7240f08fc5bd1a7ab32b0b160096b1140745a1b4cd83604051611cd8919061318a565b612566838361293d565b612573600084848461275d565b610a175760405162461bcd60e51b8152600401610777906137a3565b60008061259b83612088565b6001600160a01b0316141592915050565b60008082516041036125e25760208301516040840151606085015160001a6125d687828585612aaa565b945094505050506125ea565b506000905060025b9250929050565b600081600481111561260557612605613152565b0361260d5750565b600181600481111561262157612621613152565b0361266e5760405162461bcd60e51b815260206004820152601860248201527f45434453413a20696e76616c6964207369676e617475726500000000000000006044820152606401610777565b600281600481111561268257612682613152565b036126cf5760405162461bcd60e51b815260206004820152601f60248201527f45434453413a20696e76616c6964207369676e6174757265206c656e677468006044820152606401610777565b60038160048111156126e3576126e3613152565b036119185760405162461bcd60e51b815260206004820152602260248201527f45434453413a20696e76616c6964207369676e6174757265202773272076616c604482015261756560f01b6064820152608401610777565b600080546001600160a01b0319166001600160a01b0392909216919091179055565b60006001600160a01b0384163b1561285a57836001600160a01b031663150b7a0261278661191b565b8786866040518563ffffffff1660e01b81526004016127a89493929190613808565b6020604051808303816000875af19250505080156127e3575060408051601f3d908101601f191682019092526127e091810190613845565b60015b612840573d808015612811576040519150601f19603f3d011682016040523d82523d6000602084013e612816565b606091505b5080516000036128385760405162461bcd60e51b8152600401610777906137a3565b805181602001fd5b6001600160e01b031916630a85bd0160e11b149050611a77565b506001949350505050565b60008072184f03e93ff9f4daa797ed6e38ed64bf6a1f0160401b83106128a45772184f03e93ff9f4daa797ed6e38ed64bf6a1f0160401b830492506040015b6d04ee2d6d415b85acef810000000083106128d0576d04ee2d6d415b85acef8100000000830492506020015b662386f26fc1000083106128ee57662386f26fc10000830492506010015b6305f5e1008310612906576305f5e100830492506008015b612710831061291a57612710830492506004015b6064831061292c576064830492506002015b600a83106106b75760010192915050565b6001600160a01b0382166129935760405162461bcd60e51b815260206004820181905260248201527f4552433732313a206d696e7420746f20746865207a65726f20616464726573736044820152606401610777565b61299c8161258f565b156129e95760405162461bcd60e51b815260206004820152601c60248201527f4552433732313a20746f6b656e20616c7265616479206d696e746564000000006044820152606401610777565b6129f28161258f565b15612a3f5760405162461bcd60e51b815260206004820152601c60248201527f4552433732313a20746f6b656e20616c7265616479206d696e746564000000006044820152606401610777565b6001600160a01b038216600081815260046020908152604080832080546001019055848352600390915280822080546001600160a01b0319168417905551839291907fddf252ad1be2c89b69c2b068fc378daa952ba7f163c4a11628f55a4df523b3ef908290a45050565b6000807f7fffffffffffffffffffffffffffffff5d576e7357a4501ddfe92f46681b20a0831115612ae15750600090506003612b65565b6040805160008082526020820180845289905260ff881692820192909252606081018690526080810185905260019060a0016020604051602081039080840390855afa158015612b35573d6000803e3d6000fd5b5050604051601f1901519150506001600160a01b038116612b5e57600060019250925050612b65565b9150600090505b94509492505050565b6001600160a01b038116811461191857600080fd5b600060208284031215612b9557600080fd5b813561108781612b6e565b6001600160e01b03198116811461191857600080fd5b600060208284031215612bc857600080fd5b813561108781612ba0565b634e487b7160e01b600052604160045260246000fd5b604051601f8201601f191681016001600160401b0381118282101715612c1157612c11612bd3565b604052919050565b60006001600160401b03831115612c3257612c32612bd3565b612c45601f8401601f1916602001612be9565b9050828152838383011115612c5957600080fd5b828260208301376000602084830101529392505050565b60008060408385031215612c8357600080fd5b8235915060208301356001600160401b03811115612ca057600080fd5b8301601f81018513612cb157600080fd5b612cc085823560208401612c19565b9150509250929050565b60005b83811015612ce5578181015183820152602001612ccd565b50506000910152565b60008151808452612d06816020860160208601612cca565b601f01601f19169290920160200192915050565b6020815260006110876020830184612cee565b600060208284031215612d3f57600080fd5b5035919050565b60008060408385031215612d5957600080fd5b8235612d6481612b6e565b946020939093013593505050565b6001600160a01b038616815260a060208201819052600090612d9690830187612cee565b8281036040840152612da88187612cee565b60608401959095525050608001529392505050565b600080600060608486031215612dd257600080fd5b8335612ddd81612b6e565b92506020840135612ded81612b6e565b929592945050506040919091013590565b600082601f830112612e0f57600080fd5b61108783833560208501612c19565b600060808284031215612e3057600080fd5b604051608081016001600160401b038282108183111715612e5357612e53612bd3565b816040528293508435915080821115612e6b57600080fd5b612e7786838701612dfe565b8352602085013560208401526040850135915080821115612e9757600080fd5b50612ea485828601612dfe565b6040830152506060830135612eb881612b6e565b6060919091015292915050565b600060208284031215612ed757600080fd5b81356001600160401b03811115612eed57600080fd5b611a7784828501612e1e565b8035600381106106bd57600080fd5b600080600060608486031215612f1d57600080fd5b833592506020840135612f2f81612b6e565b9150612f3d60408501612ef9565b90509250925092565b60008060408385031215612f5957600080fd5b82356001600160401b0380821115612f7057600080fd5b612f7c86838701612e1e565b9350602091508185013581811115612f9357600080fd5b8501601f81018713612fa457600080fd5b803582811115612fb657612fb6612bd3565b8060051b612fc5858201612be9565b918252828101850191858101908a841115612fdf57600080fd5b86850192505b8383101561301b57823586811115612ffd5760008081fd5b61300b8c8983890101612dfe565b8352509186019190860190612fe5565b809750505050505050509250929050565b60008083601f84011261303e57600080fd5b5081356001600160401b0381111561305557600080fd5b6020830191508360208285010111156125ea57600080fd5b60008060008060006060868803121561308557600080fd5b8535945060208601356001600160401b03808211156130a357600080fd5b6130af89838a0161302c565b909650945060408801359150808211156130c857600080fd5b506130d58882890161302c565b969995985093965092949392505050565b801515811461191857600080fd5b6000806040838503121561310757600080fd5b823561311281612b6e565b91506020830135613122816130e6565b809150509250929050565b6000806040838503121561314057600080fd5b82359150602083013561312281612b6e565b634e487b7160e01b600052602160045260246000fd5b6003811061318657634e487b7160e01b600052602160045260246000fd5b9052565b602081016106b78284613168565b600080600080608085870312156131ae57600080fd5b84356131b981612b6e565b935060208501356131c981612b6e565b92506040850135915060608501356001600160401b038111156131eb57600080fd5b6131f787828801612dfe565b91505092959194509250565b60008060006060848603121561321857600080fd5b8335925060208401359150612f3d60408501612ef9565b6000806040838503121561324257600080fd5b50508035926020909101359150565b828152604081016110876020830184613168565b6000806040838503121561327857600080fd5b823561328381612b6e565b9150602083013561312281612b6e565b6000806000806000606086880312156132ab57600080fd5b85356132b681612b6e565b945060208601356001600160401b03808211156130a357600080fd5b6040815260006132e56040830185612cee565b90508260208301529392505050565b60006020828403121561330657600080fd5b8151611087816130e6565b600181811c9082168061332557607f821691505b60208210810361213057634e487b7160e01b600052602260045260246000fd5b601f821115610a1757600081815260208120601f850160051c8101602086101561336c5750805b601f850160051c820191505b8181101561338b57828155600101613378565b505050505050565b81516001600160401b038111156133ac576133ac612bd3565b6133c0816133ba8454613311565b84613345565b602080601f8311600181146133f557600084156133dd5750858301515b600019600386901b1c1916600185901b17855561338b565b600085815260208120601f198616915b8281101561342457888601518255948401946001909101908401613405565b50858210156134425787850151600019600388901b60f8161c191681555b5050505050600190811b01905550565b634e487b7160e01b600052601160045260246000fd5b60006001820161347a5761347a613452565b5060010190565b600060208083526040818401526000845461349b81613311565b80606087015260806001808416600081146134bd57600181146134d757613505565b60ff1985168984015283151560051b890183019550613505565b896000528660002060005b858110156134fd5781548b82018601529083019088016134e2565b8a0184019650505b5080890154604089015250505050809250505092915050565b6020808252602d908201527f4552433732313a2063616c6c6572206973206e6f7420746f6b656e206f776e6560408201526c1c881bdc88185c1c1c9bdd9959609a1b606082015260800190565b60006040828403121561357d57600080fd5b604051604081018181106001600160401b038211171561359f5761359f612bd3565b6040528251815260208301516135b481612b6e565b60208201529392505050565b60208082526032908201527f455443483a204e6f7420616c6c6f77656420746f20736574207065726d6973736040820152710d2dedce640ccdee440e8d0d2e6408ae8c6d60731b606082015260800190565b6020808252601e908201527f4e4f444548414e444c45523a205045524d495353494f4e5f44454e4945440000604082015260600190565b81835281816020850137506000828201602090810191909152601f909101601f19169091010190565b604081526000613686604083018688613649565b8281036020840152613699818587613649565b979650505050505050565b600083516136b6818460208801612cca565b8351908301906136ca818360208801612cca565b01949350505050565b8381526001600160a01b038316602082015260608101611a776040830184613168565b60006020828403121561370857600080fd5b5051919050565b60208082526025908201527f4552433732313a207472616e736665722066726f6d20696e636f72726563742060408201526437bbb732b960d91b606082015260800190565b634e487b7160e01b600052603260045260246000fd5b6000825161377c818460208701612cca565b9190910192915050565b60006020828403121561379857600080fd5b815161108781612b6e565b60208082526032908201527f4552433732313a207472616e7366657220746f206e6f6e20455243373231526560408201527131b2b4bb32b91034b6b83632b6b2b73a32b960711b606082015260800190565b818103818111156106b7576106b7613452565b6001600160a01b038581168252841660208201526040810183905260806060820181905260009061383b90830184612cee565b9695505050505050565b60006020828403121561385757600080fd5b815161108781612ba056fea26469706673582212202363479ffc22a029fcd7ca5ecc80eedddba1dd948a2f828311444f610545ffc764736f6c63430008130033",
  "linkReferences": {},
  "deployedLinkReferences": {}
}