{
  "_format": "hh-sol-artifact-1",
  "contractName": "OrganizationFactory",
  "sourceName": "contracts/OrganizationFactory.sol",
  "abi": [
    {
      "inputs": [],
      "stateMutability": "nonpayable",
      "type": "constructor"
    },
    {
      "anonymous": false,
      "inputs": [
        {
          "indexed": true,
          "internalType": "address",
          "name": "creator",
          "type": "address"
        },
        {
          "indexed": false,
          "internalType": "address",
          "name": "organization",
          "type": "address"
        }
      ],
      "name": "OrganizationCreated",
      "type": "event"
    },
    {
      "anonymous": false,
      "inputs": [
        {
          "indexed": true,
          "internalType": "bytes32",
          "name": "role",
          "type": "bytes32"
        },
        {
          "indexed": true,
          "internalType": "bytes32",
          "name": "previousAdminRole",
          "type": "bytes32"
        },
        {
          "indexed": true,
          "internalType": "bytes32",
          "name": "newAdminRole",
          "type": "bytes32"
        }
      ],
      "name": "RoleAdminChanged",
      "type": "event"
    },
    {
      "anonymous": false,
      "inputs": [
        {
          "indexed": true,
          "internalType": "bytes32",
          "name": "role",
          "type": "bytes32"
        },
        {
          "indexed": true,
          "internalType": "address",
          "name": "account",
          "type": "address"
        },
        {
          "indexed": true,
          "internalType": "address",
          "name": "sender",
          "type": "address"
        }
      ],
      "name": "RoleGranted",
      "type": "event"
    },
    {
      "anonymous": false,
      "inputs": [
        {
          "indexed": true,
          "internalType": "bytes32",
          "name": "role",
          "type": "bytes32"
        },
        {
          "indexed": true,
          "internalType": "address",
          "name": "account",
          "type": "address"
        },
        {
          "indexed": true,
          "internalType": "address",
          "name": "sender",
          "type": "address"
        }
      ],
      "name": "RoleRevoked",
      "type": "event"
    },
    {
      "inputs": [],
      "name": "ADMIN_ROLE",
      "outputs": [
        {
          "internalType": "bytes32",
          "name": "",
          "type": "bytes32"
        }
      ],
      "stateMutability": "view",
      "type": "function"
    },
    {
      "inputs": [],
      "name": "DEFAULT_ADMIN_ROLE",
      "outputs": [
        {
          "internalType": "bytes32",
          "name": "",
          "type": "bytes32"
        }
      ],
      "stateMutability": "view",
      "type": "function"
    },
    {
      "inputs": [
        {
          "internalType": "address",
          "name": "_admin",
          "type": "address"
        },
        {
          "internalType": "bytes",
          "name": "signature",
          "type": "bytes"
        },
        {
          "internalType": "uint256",
          "name": "blockNumber",
          "type": "uint256"
        }
      ],
      "name": "createOrganization",
      "outputs": [
        {
          "internalType": "address",
          "name": "",
          "type": "address"
        }
      ],
      "stateMutability": "nonpayable",
      "type": "function"
    },
    {
      "inputs": [
        {
          "internalType": "uint256",
          "name": "index",
          "type": "uint256"
        }
      ],
      "name": "getOrganization",
      "outputs": [
        {
          "internalType": "address",
          "name": "",
          "type": "address"
        }
      ],
      "stateMutability": "view",
      "type": "function"
    },
    {
      "inputs": [],
      "name": "getOrganizationCount",
      "outputs": [
        {
          "internalType": "uint256",
          "name": "",
          "type": "uint256"
        }
      ],
      "stateMutability": "view",
      "type": "function"
    },
    {
      "inputs": [
        {
          "internalType": "bytes32",
          "name": "role",
          "type": "bytes32"
        }
      ],
      "name": "getRoleAdmin",
      "outputs": [
        {
          "internalType": "bytes32",
          "name": "",
          "type": "bytes32"
        }
      ],
      "stateMutability": "view",
      "type": "function"
    },
    {
      "inputs": [
        {
          "internalType": "bytes32",
          "name": "role",
          "type": "bytes32"
        },
        {
          "internalType": "address",
          "name": "account",
          "type": "address"
        }
      ],
      "name": "grantRole",
      "outputs": [],
      "stateMutability": "nonpayable",
      "type": "function"
    },
    {
      "inputs": [
        {
          "internalType": "bytes32",
          "name": "role",
          "type": "bytes32"
        },
        {
          "internalType": "address",
          "name": "account",
          "type": "address"
        },
        {
          "internalType": "bytes",
          "name": "signature",
          "type": "bytes"
        },
        {
          "internalType": "uint256",
          "name": "blockNumber",
          "type": "uint256"
        }
      ],
      "name": "grantRole",
      "outputs": [],
      "stateMutability": "nonpayable",
      "type": "function"
    },
    {
      "inputs": [
        {
          "internalType": "bytes32",
          "name": "role",
          "type": "bytes32"
        },
        {
          "internalType": "address",
          "name": "account",
          "type": "address"
        }
      ],
      "name": "hasRole",
      "outputs": [
        {
          "internalType": "bool",
          "name": "",
          "type": "bool"
        }
      ],
      "stateMutability": "view",
      "type": "function"
    },
    {
      "inputs": [
        {
          "internalType": "uint256",
          "name": "",
          "type": "uint256"
        }
      ],
      "name": "organizations",
      "outputs": [
        {
          "internalType": "address",
          "name": "",
          "type": "address"
        }
      ],
      "stateMutability": "view",
      "type": "function"
    },
    {
      "inputs": [
        {
          "internalType": "bytes32",
          "name": "role",
          "type": "bytes32"
        },
        {
          "internalType": "address",
          "name": "account",
          "type": "address"
        }
      ],
      "name": "renounceRole",
      "outputs": [],
      "stateMutability": "nonpayable",
      "type": "function"
    },
    {
      "inputs": [
        {
          "internalType": "bytes32",
          "name": "role",
          "type": "bytes32"
        },
        {
          "internalType": "address",
          "name": "account",
          "type": "address"
        }
      ],
      "name": "revokeRole",
      "outputs": [],
      "stateMutability": "nonpayable",
      "type": "function"
    },
    {
      "inputs": [
        {
          "internalType": "bytes32",
          "name": "role",
          "type": "bytes32"
        },
        {
          "internalType": "address",
          "name": "account",
          "type": "address"
        },
        {
          "internalType": "bytes",
          "name": "signature",
          "type": "bytes"
        },
        {
          "internalType": "uint256",
          "name": "blockNumber",
          "type": "uint256"
        }
      ],
      "name": "revokeRole",
      "outputs": [],
      "stateMutability": "nonpayable",
      "type": "function"
    },
    {
      "inputs": [
        {
          "internalType": "bytes4",
          "name": "interfaceId",
          "type": "bytes4"
        }
      ],
      "name": "supportsInterface",
      "outputs": [
        {
          "internalType": "bool",
          "name": "",
          "type": "bool"
        }
      ],
      "stateMutability": "view",
      "type": "function"
    }
  ],
  "bytecode": "0x60806040523480156200001157600080fd5b50620000276000801b336200005f60201b60201c565b620000597fa49807205ce4d355092ef5a8a18f56e8913cf4a201fbe287825b095693c21775336200005f60201b60201c565b620001d8565b6200007182826200007560201b60201c565b5050565b6200008782826200016660201b60201c565b6200016257600160008084815260200190815260200160002060000160008373ffffffffffffffffffffffffffffffffffffffff1673ffffffffffffffffffffffffffffffffffffffff16815260200190815260200160002060006101000a81548160ff02191690831515021790555062000107620001d060201b60201c565b73ffffffffffffffffffffffffffffffffffffffff168173ffffffffffffffffffffffffffffffffffffffff16837f2f8788117e7eff1d82e926ec794901d17c78024a50270940304540a733656f0d60405160405180910390a45b5050565b600080600084815260200190815260200160002060000160008373ffffffffffffffffffffffffffffffffffffffff1673ffffffffffffffffffffffffffffffffffffffff16815260200190815260200160002060009054906101000a900460ff16905092915050565b600033905090565b614c4b80620001e86000396000f3fe60806040523480156200001157600080fd5b5060043610620001005760003560e01c806375b238fc1162000099578063d547741f116200006f578063d547741f14620002a3578063e496869514620002c3578063e792dd8a14620002e3578063f17a98d814620003195762000100565b806375b238fc146200022957806391d14854146200024b578063a217fddf14620002815762000100565b806336568abe11620000db57806336568abe14620001915780634526f69014620001b15780635734e5e314620001e7578063589b21c014620002095762000100565b806301ffc9a71462000105578063248a9ca3146200013b5780632f2ff15d1462000171575b600080fd5b6200012360048036038101906200011d91906200133c565b6200034f565b6040516200013291906200138b565b60405180910390f35b620001596004803603810190620001539190620013e3565b620003cc565b60405162000168919062001426565b60405180910390f35b6200018f6004803603810190620001899190620014a8565b620003eb565b005b620001af6004803603810190620001a99190620014a8565b62000412565b005b620001cf6004803603810190620001c991906200152a565b6200049c565b604051620001de91906200156d565b60405180910390f35b620001f162000531565b6040516200020091906200159b565b60405180910390f35b6200022760048036038101906200022191906200171a565b6200053e565b005b6200023362000602565b60405162000242919062001426565b60405180910390f35b620002696004803603810190620002639190620014a8565b62000626565b6040516200027891906200138b565b60405180910390f35b6200028b62000690565b6040516200029a919062001426565b60405180910390f35b620002c16004803603810190620002bb9190620014a8565b62000697565b005b620002e16004803603810190620002db91906200171a565b620006be565b005b620003016004803603810190620002fb91906200152a565b62000782565b6040516200031091906200156d565b60405180910390f35b620003376004803603810190620003319190620017ab565b620007c2565b6040516200034691906200156d565b60405180910390f35b60007f7965db0b000000000000000000000000000000000000000000000000000000007bffffffffffffffffffffffffffffffffffffffffffffffffffffffff1916827bffffffffffffffffffffffffffffffffffffffffffffffffffffffff19161480620003c55750620003c482620009b9565b5b9050919050565b6000806000838152602001908152602001600020600101549050919050565b620003f682620003cc565b620004018162000a23565b6200040d838362000a3b565b505050565b6200041c62000b20565b73ffffffffffffffffffffffffffffffffffffffff168173ffffffffffffffffffffffffffffffffffffffff16146200048c576040517f08c379a00000000000000000000000000000000000000000000000000000000081526004016200048390620018ad565b60405180910390fd5b62000498828262000b28565b5050565b60006001805490508210620004e8576040517f08c379a0000000000000000000000000000000000000000000000000000000008152600401620004df906200191f565b60405180910390fd5b60018281548110620004ff57620004fe62001941565b5b9060005260206000200160009054906101000a900473ffffffffffffffffffffffffffffffffffffffff169050919050565b6000600180549050905090565b600084846040516020016200055592919062001970565b6040516020818303038152906040529050620005ad6000801b84846040518060400160405280600981526020017f6772616e74526f6c6500000000000000000000000000000000000000000000008152508562000c0e565b620005ef576040517f08c379a0000000000000000000000000000000000000000000000000000000008152600401620005e69062001a13565b60405180910390fd5b620005fb858562000a3b565b5050505050565b7fa49807205ce4d355092ef5a8a18f56e8913cf4a201fbe287825b095693c2177581565b600080600084815260200190815260200160002060000160008373ffffffffffffffffffffffffffffffffffffffff1673ffffffffffffffffffffffffffffffffffffffff16815260200190815260200160002060009054906101000a900460ff16905092915050565b6000801b81565b620006a282620003cc565b620006ad8162000a23565b620006b9838362000b28565b505050565b60008484604051602001620006d592919062001970565b60405160208183030381529060405290506200072d6000801b84846040518060400160405280600a81526020017f7265766f6b65526f6c65000000000000000000000000000000000000000000008152508562000c0e565b6200076f576040517f08c379a0000000000000000000000000000000000000000000000000000000008152600401620007669062001a13565b60405180910390fd5b6200077b858562000b28565b5050505050565b600181815481106200079357600080fd5b906000526020600020016000915054906101000a900473ffffffffffffffffffffffffffffffffffffffff1681565b60007fa49807205ce4d355092ef5a8a18f56e8913cf4a201fbe287825b095693c21775620007f08162000a23565b6000856040516020016200080591906200156d565b60405160208183030381529060405290506200087a7fa49807205ce4d355092ef5a8a18f56e8913cf4a201fbe287825b095693c2177586866040518060400160405280601281526020017f6372656174654f7267616e697a6174696f6e00000000000000000000000000008152508562000c0e565b620008bc576040517f08c379a0000000000000000000000000000000000000000000000000000000008152600401620008b39062001a85565b60405180910390fd5b600086604051620008cd90620012bd565b620008d991906200156d565b604051809103906000f080158015620008f6573d6000803e3d6000fd5b5090506001819080600181540180825580915050600190039060005260206000200160009091909190916101000a81548173ffffffffffffffffffffffffffffffffffffffff021916908373ffffffffffffffffffffffffffffffffffffffff1602179055503373ffffffffffffffffffffffffffffffffffffffff167f2725ca0bb6f842da395a595005373aaa8e052b21133359b3c75f59a1247e6e7a82604051620009a491906200156d565b60405180910390a28093505050509392505050565b60007f01ffc9a7000000000000000000000000000000000000000000000000000000007bffffffffffffffffffffffffffffffffffffffffffffffffffffffff1916827bffffffffffffffffffffffffffffffffffffffffffffffffffffffff1916149050919050565b62000a388162000a3262000b20565b62000cb2565b50565b62000a47828262000626565b62000b1c57600160008084815260200190815260200160002060000160008373ffffffffffffffffffffffffffffffffffffffff1673ffffffffffffffffffffffffffffffffffffffff16815260200190815260200160002060006101000a81548160ff02191690831515021790555062000ac162000b20565b73ffffffffffffffffffffffffffffffffffffffff168173ffffffffffffffffffffffffffffffffffffffff16837f2f8788117e7eff1d82e926ec794901d17c78024a50270940304540a733656f0d60405160405180910390a45b5050565b600033905090565b62000b34828262000626565b1562000c0a57600080600084815260200190815260200160002060000160008373ffffffffffffffffffffffffffffffffffffffff1673ffffffffffffffffffffffffffffffffffffffff16815260200190815260200160002060006101000a81548160ff02191690831515021790555062000baf62000b20565b73ffffffffffffffffffffffffffffffffffffffff168173ffffffffffffffffffffffffffffffffffffffff16837ff6391f5c32d9c69d2a47ea670b442974b53935d1edc7fd64eb21e047a839171b60405160405180910390a45b5050565b60008343111562000c56576040517f08c379a000000000000000000000000000000000000000000000000000000000815260040162000c4d9062001af7565b60405180910390fd5b60003085858560405160200162000c71949392919062001c54565b604051602081830303815290604052805190602001209050600062000c97828862000d42565b905062000ca5888262000626565b9250505095945050505050565b62000cbe828262000626565b62000d3e5762000cce8162000d6d565b62000cde8360001c602062000d9c565b60405160200162000cf192919062001d42565b6040516020818303038152906040526040517f08c379a000000000000000000000000000000000000000000000000000000000815260040162000d35919062001dc5565b60405180910390fd5b5050565b600080600062000d53858562000ff7565b9150915062000d62816200104c565b819250505092915050565b606062000d958273ffffffffffffffffffffffffffffffffffffffff16601460ff1662000d9c565b9050919050565b60606000600283600262000db1919062001e18565b62000dbd919062001e63565b67ffffffffffffffff81111562000dd95762000dd8620015d3565b5b6040519080825280601f01601f19166020018201604052801562000e0c5781602001600182028036833780820191505090505b5090507f30000000000000000000000000000000000000000000000000000000000000008160008151811062000e475762000e4662001941565b5b60200101907effffffffffffffffffffffffffffffffffffffffffffffffffffffffffffff1916908160001a9053507f78000000000000000000000000000000000000000000000000000000000000008160018151811062000eae5762000ead62001941565b5b60200101907effffffffffffffffffffffffffffffffffffffffffffffffffffffffffffff1916908160001a9053506000600184600262000ef0919062001e18565b62000efc919062001e63565b90505b600181111562000fa6577f3031323334353637383961626364656600000000000000000000000000000000600f86166010811062000f425762000f4162001941565b5b1a60f81b82828151811062000f5c5762000f5b62001941565b5b60200101907effffffffffffffffffffffffffffffffffffffffffffffffffffffffffffff1916908160001a905350600485901c94508062000f9e9062001e9e565b905062000eff565b506000841462000fed576040517f08c379a000000000000000000000000000000000000000000000000000000000815260040162000fe49062001f1c565b60405180910390fd5b8091505092915050565b60008060418351036200103c5760008060006020860151925060408601519150606086015160001a90506200102f87828585620011d4565b9450945050505062001045565b60006002915091505b9250929050565b6000600481111562001063576200106262001f3e565b5b81600481111562001079576200107862001f3e565b5b0315620011d1576001600481111562001097576200109662001f3e565b5b816004811115620010ad57620010ac62001f3e565b5b03620010f0576040517f08c379a0000000000000000000000000000000000000000000000000000000008152600401620010e79062001fbd565b60405180910390fd5b6002600481111562001107576200110662001f3e565b5b8160048111156200111d576200111c62001f3e565b5b0362001160576040517f08c379a000000000000000000000000000000000000000000000000000000000815260040162001157906200202f565b60405180910390fd5b6003600481111562001177576200117662001f3e565b5b8160048111156200118d576200118c62001f3e565b5b03620011d0576040517f08c379a0000000000000000000000000000000000000000000000000000000008152600401620011c790620020c7565b60405180910390fd5b5b50565b6000807f7fffffffffffffffffffffffffffffff5d576e7357a4501ddfe92f46681b20a08360001c111562001211576000600391509150620012b4565b60006001878787876040516000815260200160405260405162001238949392919062002107565b6020604051602081039080840390855afa1580156200125b573d6000803e3d6000fd5b505050602060405103519050600073ffffffffffffffffffffffffffffffffffffffff168173ffffffffffffffffffffffffffffffffffffffff1603620012ab57600060019250925050620012b4565b80600092509250505b94509492505050565b612ac1806200215583390190565b6000604051905090565b600080fd5b600080fd5b60007fffffffff0000000000000000000000000000000000000000000000000000000082169050919050565b6200131681620012df565b81146200132257600080fd5b50565b60008135905062001336816200130b565b92915050565b600060208284031215620013555762001354620012d5565b5b6000620013658482850162001325565b91505092915050565b60008115159050919050565b62001385816200136e565b82525050565b6000602082019050620013a260008301846200137a565b92915050565b6000819050919050565b620013bd81620013a8565b8114620013c957600080fd5b50565b600081359050620013dd81620013b2565b92915050565b600060208284031215620013fc57620013fb620012d5565b5b60006200140c84828501620013cc565b91505092915050565b6200142081620013a8565b82525050565b60006020820190506200143d600083018462001415565b92915050565b600073ffffffffffffffffffffffffffffffffffffffff82169050919050565b6000620014708262001443565b9050919050565b620014828162001463565b81146200148e57600080fd5b50565b600081359050620014a28162001477565b92915050565b60008060408385031215620014c257620014c1620012d5565b5b6000620014d285828601620013cc565b9250506020620014e58582860162001491565b9150509250929050565b6000819050919050565b6200150481620014ef565b81146200151057600080fd5b50565b6000813590506200152481620014f9565b92915050565b600060208284031215620015435762001542620012d5565b5b6000620015538482850162001513565b91505092915050565b620015678162001463565b82525050565b60006020820190506200158460008301846200155c565b92915050565b6200159581620014ef565b82525050565b6000602082019050620015b260008301846200158a565b92915050565b600080fd5b600080fd5b6000601f19601f8301169050919050565b7f4e487b7100000000000000000000000000000000000000000000000000000000600052604160045260246000fd5b6200160d82620015c2565b810181811067ffffffffffffffff821117156200162f576200162e620015d3565b5b80604052505050565b600062001644620012cb565b905062001652828262001602565b919050565b600067ffffffffffffffff821115620016755762001674620015d3565b5b6200168082620015c2565b9050602081019050919050565b82818337600083830152505050565b6000620016b3620016ad8462001657565b62001638565b905082815260208101848484011115620016d257620016d1620015bd565b5b620016df8482856200168d565b509392505050565b600082601f830112620016ff57620016fe620015b8565b5b8135620017118482602086016200169c565b91505092915050565b60008060008060808587031215620017375762001736620012d5565b5b60006200174787828801620013cc565b94505060206200175a8782880162001491565b935050604085013567ffffffffffffffff8111156200177e576200177d620012da565b5b6200178c87828801620016e7565b92505060606200179f8782880162001513565b91505092959194509250565b600080600060608486031215620017c757620017c6620012d5565b5b6000620017d78682870162001491565b935050602084013567ffffffffffffffff811115620017fb57620017fa620012da565b5b6200180986828701620016e7565b92505060406200181c8682870162001513565b9150509250925092565b600082825260208201905092915050565b7f416363657373436f6e74726f6c3a2063616e206f6e6c792072656e6f756e636560008201527f20726f6c657320666f722073656c660000000000000000000000000000000000602082015250565b600062001895602f8362001826565b9150620018a28262001837565b604082019050919050565b60006020820190508181036000830152620018c88162001886565b9050919050565b7f496e646578206f7574206f6620626f756e647300000000000000000000000000600082015250565b60006200190760138362001826565b91506200191482620018cf565b602082019050919050565b600060208201905081810360008301526200193a81620018f8565b9050919050565b7f4e487b7100000000000000000000000000000000000000000000000000000000600052603260045260246000fd5b600060408201905062001987600083018562001415565b6200199660208301846200155c565b9392505050565b7f416363657373436f6e74726f6c3a2063616c6c6572206973206e6f7420616e2060008201527f61646d696e000000000000000000000000000000000000000000000000000000602082015250565b6000620019fb60258362001826565b915062001a08826200199d565b604082019050919050565b6000602082019050818103600083015262001a2e81620019ec565b9050919050565b7f556e617574686f72697a65640000000000000000000000000000000000000000600082015250565b600062001a6d600c8362001826565b915062001a7a8262001a35565b602082019050919050565b6000602082019050818103600083015262001aa08162001a5e565b9050919050565b7f5369676e61747572652068617320657870697265640000000000000000000000600082015250565b600062001adf60158362001826565b915062001aec8262001aa7565b602082019050919050565b6000602082019050818103600083015262001b128162001ad0565b9050919050565b60008160601b9050919050565b600062001b338262001b19565b9050919050565b600062001b478262001b26565b9050919050565b62001b6362001b5d8262001463565b62001b3a565b82525050565b6000819050919050565b62001b8862001b8282620014ef565b62001b69565b82525050565b600081519050919050565b600081905092915050565b60005b8381101562001bc457808201518184015260208101905062001ba7565b60008484015250505050565b600062001bdd8262001b8e565b62001be9818562001b99565b935062001bfb81856020860162001ba4565b80840191505092915050565b600081519050919050565b600081905092915050565b600062001c2a8262001c07565b62001c36818562001c12565b935062001c4881856020860162001ba4565b80840191505092915050565b600062001c62828762001b4e565b60148201915062001c74828662001b73565b60208201915062001c86828562001bd0565b915062001c94828462001c1d565b915081905095945050505050565b7f416363657373436f6e74726f6c3a206163636f756e7420000000000000000000600082015250565b600062001cda60178362001b99565b915062001ce78262001ca2565b601782019050919050565b7f206973206d697373696e6720726f6c6520000000000000000000000000000000600082015250565b600062001d2a60118362001b99565b915062001d378262001cf2565b601182019050919050565b600062001d4f8262001ccb565b915062001d5d828562001bd0565b915062001d6a8262001d1b565b915062001d78828462001bd0565b91508190509392505050565b600062001d918262001b8e565b62001d9d818562001826565b935062001daf81856020860162001ba4565b62001dba81620015c2565b840191505092915050565b6000602082019050818103600083015262001de1818462001d84565b905092915050565b7f4e487b7100000000000000000000000000000000000000000000000000000000600052601160045260246000fd5b600062001e2582620014ef565b915062001e3283620014ef565b925082820262001e4281620014ef565b9150828204841483151762001e5c5762001e5b62001de9565b5b5092915050565b600062001e7082620014ef565b915062001e7d83620014ef565b925082820190508082111562001e985762001e9762001de9565b5b92915050565b600062001eab82620014ef565b91506000820362001ec15762001ec062001de9565b5b600182039050919050565b7f537472696e67733a20686578206c656e67746820696e73756666696369656e74600082015250565b600062001f0460208362001826565b915062001f118262001ecc565b602082019050919050565b6000602082019050818103600083015262001f378162001ef5565b9050919050565b7f4e487b7100000000000000000000000000000000000000000000000000000000600052602160045260246000fd5b7f45434453413a20696e76616c6964207369676e61747572650000000000000000600082015250565b600062001fa560188362001826565b915062001fb28262001f6d565b602082019050919050565b6000602082019050818103600083015262001fd88162001f96565b9050919050565b7f45434453413a20696e76616c6964207369676e6174757265206c656e67746800600082015250565b600062002017601f8362001826565b9150620020248262001fdf565b602082019050919050565b600060208201905081810360008301526200204a8162002008565b9050919050565b7f45434453413a20696e76616c6964207369676e6174757265202773272076616c60008201527f7565000000000000000000000000000000000000000000000000000000000000602082015250565b6000620020af60228362001826565b9150620020bc8262002051565b604082019050919050565b60006020820190508181036000830152620020e281620020a0565b9050919050565b600060ff82169050919050565b6200210181620020e9565b82525050565b60006080820190506200211e600083018762001415565b6200212d6020830186620020f6565b6200213c604083018562001415565b6200214b606083018462001415565b9594505050505056fe60806040523480156200001157600080fd5b5060405162002ac138038062002ac183398181016040528101906200003791906200029a565b6200004c6000801b82620000b760201b60201c565b6200007e7fa49807205ce4d355092ef5a8a18f56e8913cf4a201fbe287825b095693c2177582620000b760201b60201c565b620000b07f8502233096d909befbda0999bb8ea2f3a6be3c138b9fbf003752a4c8bce86f6c82620000b760201b60201c565b50620002cc565b620000c98282620000cd60201b60201c565b5050565b620000df8282620001be60201b60201c565b620001ba57600160008084815260200190815260200160002060000160008373ffffffffffffffffffffffffffffffffffffffff1673ffffffffffffffffffffffffffffffffffffffff16815260200190815260200160002060006101000a81548160ff0219169083151502179055506200015f6200022860201b60201c565b73ffffffffffffffffffffffffffffffffffffffff168173ffffffffffffffffffffffffffffffffffffffff16837f2f8788117e7eff1d82e926ec794901d17c78024a50270940304540a733656f0d60405160405180910390a45b5050565b600080600084815260200190815260200160002060000160008373ffffffffffffffffffffffffffffffffffffffff1673ffffffffffffffffffffffffffffffffffffffff16815260200190815260200160002060009054906101000a900460ff16905092915050565b600033905090565b600080fd5b600073ffffffffffffffffffffffffffffffffffffffff82169050919050565b6000620002628262000235565b9050919050565b620002748162000255565b81146200028057600080fd5b50565b600081519050620002948162000269565b92915050565b600060208284031215620002b357620002b262000230565b5b6000620002c38482850162000283565b91505092915050565b6127e580620002dc6000396000f3fe608060405234801561001057600080fd5b506004361061012c5760003560e01c806391d14854116100ad578063e62092be11610071578063e62092be1461033f578063e9d79b0e1461036f578063f555e0201461039f578063ff2ff6c9146103bb578063ffad9950146103eb5761012c565b806391d1485414610289578063a217fddf146102b9578063c0eb89b2146102d7578063d547741f14610307578063e4968695146103235761012c565b8063589b21c0116100f4578063589b21c0146101e757806362567a1a1461020357806375b238fc1461021f578063806c87af1461023d5780638f28f50e146102595761012c565b806301ffc9a714610131578063206b60f914610161578063248a9ca31461017f5780632f2ff15d146101af57806336568abe146101cb575b600080fd5b61014b600480360381019061014691906116a8565b61041b565b60405161015891906116f0565b60405180910390f35b610169610495565b6040516101769190611724565b60405180910390f35b6101996004803603810190610194919061176b565b6104b9565b6040516101a69190611724565b60405180910390f35b6101c960048036038101906101c491906117f6565b6104d8565b005b6101e560048036038101906101e091906117f6565b6104f9565b005b61020160048036038101906101fc91906119b2565b61057c565b005b61021d60048036038101906102189190611a5a565b610637565b005b610227610780565b6040516102349190611724565b60405180910390f35b61025760048036038101906102529190611b2f565b6107a4565b005b610273600480360381019061026e9190611bed565b6108ec565b6040516102809190611c91565b60405180910390f35b6102a3600480360381019061029e91906117f6565b61090c565b6040516102b091906116f0565b60405180910390f35b6102c1610976565b6040516102ce9190611724565b60405180910390f35b6102f160048036038101906102ec9190611cac565b61097d565b6040516102fe9190611c91565b60405180910390f35b610321600480360381019061031c91906117f6565b610a6c565b005b61033d600480360381019061033891906119b2565b610a8d565b005b61035960048036038101906103549190611cac565b610b48565b60405161036691906116f0565b60405180910390f35b61038960048036038101906103849190611cac565b610b82565b6040516103969190611c91565b60405180910390f35b6103b960048036038101906103b49190611cec565b610bb1565b005b6103d560048036038101906103d09190611cac565b610cc9565b6040516103e291906116f0565b60405180910390f35b61040560048036038101906104009190611cac565b610d04565b60405161041291906116f0565b60405180910390f35b60007f7965db0b000000000000000000000000000000000000000000000000000000007bffffffffffffffffffffffffffffffffffffffffffffffffffffffff1916827bffffffffffffffffffffffffffffffffffffffffffffffffffffffff1916148061048e575061048d82610d40565b5b9050919050565b7f8502233096d909befbda0999bb8ea2f3a6be3c138b9fbf003752a4c8bce86f6c81565b6000806000838152602001908152602001600020600101549050919050565b6104e1826104b9565b6104ea81610daa565b6104f48383610dbe565b505050565b610501610e9e565b73ffffffffffffffffffffffffffffffffffffffff168173ffffffffffffffffffffffffffffffffffffffff161461056e576040517f08c379a000000000000000000000000000000000000000000000000000000000815260040161056590611df2565b60405180910390fd5b6105788282610ea6565b5050565b60008484604051602001610591929190611e21565b60405160208183030381529060405290506105e76000801b84846040518060400160405280600981526020017f6772616e74526f6c65000000000000000000000000000000000000000000000081525085610f87565b610626576040517f08c379a000000000000000000000000000000000000000000000000000000000815260040161061d90611ebc565b60405180910390fd5b6106308585610dbe565b5050505050565b600085858560405160200161064e93929190611eeb565b60405160208183030381529060405290506106c17fa49807205ce4d355092ef5a8a18f56e8913cf4a201fbe287825b095693c2177584846040518060400160405280600d81526020017f7365745065726d697373696f6e0000000000000000000000000000000000000081525085610f87565b610700576040517f08c379a00000000000000000000000000000000000000000000000000000000081526004016106f790611f6e565b60405180910390fd5b83600260008873ffffffffffffffffffffffffffffffffffffffff1673ffffffffffffffffffffffffffffffffffffffff168152602001908152602001600020600087815260200190815260200160002060006101000a81548160ff0219169083600381111561077357610772611c1a565b5b0217905550505050505050565b7fa49807205ce4d355092ef5a8a18f56e8913cf4a201fbe287825b095693c2177581565b600087878787876040516020016107bf959493929190611fed565b60405160208183030381529060405290506108327f8502233096d909befbda0999bb8ea2f3a6be3c138b9fbf003752a4c8bce86f6c84846040518060400160405280600b81526020017f7472616e736665724e465400000000000000000000000000000000000000000081525085610f87565b610871576040517f08c379a000000000000000000000000000000000000000000000000000000000815260040161086890611f6e565b60405180910390fd5b8773ffffffffffffffffffffffffffffffffffffffff1663f242432a888888886040518563ffffffff1660e01b81526004016108b09493929190612077565b600060405180830381600087803b1580156108ca57600080fd5b505af11580156108de573d6000803e3d6000fd5b505050505050505050505050565b60036020528060005260406000206000915054906101000a900460ff1681565b600080600084815260200190815260200160002060000160008373ffffffffffffffffffffffffffffffffffffffff1673ffffffffffffffffffffffffffffffffffffffff16815260200190815260200160002060009054906101000a900460ff16905092915050565b6000801b81565b600080600260008573ffffffffffffffffffffffffffffffffffffffff1673ffffffffffffffffffffffffffffffffffffffff168152602001908152602001600020600084815260200190815260200160002060009054906101000a900460ff169050600060038111156109f4576109f3611c1a565b5b816003811115610a0757610a06611c1a565b5b14610a155780915050610a66565b600360008573ffffffffffffffffffffffffffffffffffffffff1673ffffffffffffffffffffffffffffffffffffffff16815260200190815260200160002060009054906101000a900460ff169150505b92915050565b610a75826104b9565b610a7e81610daa565b610a888383610ea6565b505050565b60008484604051602001610aa2929190611e21565b6040516020818303038152906040529050610af86000801b84846040518060400160405280600a81526020017f7265766f6b65526f6c650000000000000000000000000000000000000000000081525085610f87565b610b37576040517f08c379a0000000000000000000000000000000000000000000000000000000008152600401610b2e90611ebc565b60405180910390fd5b610b418585610ea6565b5050505050565b6000600380811115610b5d57610b5c611c1a565b5b610b67848461097d565b6003811115610b7957610b78611c1a565b5b14905092915050565b60026020528160005260406000206020528060005260406000206000915091509054906101000a900460ff1681565b60008484604051602001610bc69291906120cf565b6040516020818303038152906040529050610c1c6000801b84846040518060400160405280601481526020017f73657444656661756c745065726d697373696f6e00000000000000000000000081525085610f87565b610c5b576040517f08c379a0000000000000000000000000000000000000000000000000000000008152600401610c5290611f6e565b60405180910390fd5b83600360008773ffffffffffffffffffffffffffffffffffffffff1673ffffffffffffffffffffffffffffffffffffffff16815260200190815260200160002060006101000a81548160ff02191690836003811115610cbd57610cbc611c1a565b5b02179055505050505050565b600060026003811115610cdf57610cde611c1a565b5b610ce9848461097d565b6003811115610cfb57610cfa611c1a565b5b14905092915050565b600060016003811115610d1a57610d19611c1a565b5b610d24848461097d565b6003811115610d3657610d35611c1a565b5b1015905092915050565b60007f01ffc9a7000000000000000000000000000000000000000000000000000000007bffffffffffffffffffffffffffffffffffffffffffffffffffffffff1916827bffffffffffffffffffffffffffffffffffffffffffffffffffffffff1916149050919050565b610dbb81610db6610e9e565b61108e565b50565b610dc8828261090c565b610e9a57600160008084815260200190815260200160002060000160008373ffffffffffffffffffffffffffffffffffffffff1673ffffffffffffffffffffffffffffffffffffffff16815260200190815260200160002060006101000a81548160ff021916908315150217905550610e3f610e9e565b73ffffffffffffffffffffffffffffffffffffffff168173ffffffffffffffffffffffffffffffffffffffff16837f2f8788117e7eff1d82e926ec794901d17c78024a50270940304540a733656f0d60405160405180910390a45b5050565b600033905090565b610eb0828261090c565b15610f8357600080600084815260200190815260200160002060000160008373ffffffffffffffffffffffffffffffffffffffff1673ffffffffffffffffffffffffffffffffffffffff16815260200190815260200160002060006101000a81548160ff021916908315150217905550610f28610e9e565b73ffffffffffffffffffffffffffffffffffffffff168173ffffffffffffffffffffffffffffffffffffffff16837ff6391f5c32d9c69d2a47ea670b442974b53935d1edc7fd64eb21e047a839171b60405160405180910390a45b5050565b6000600185604051610f999190612169565b908152602001604051809103902060009054906101000a900460ff1615610ff5576040517f08c379a0000000000000000000000000000000000000000000000000000000008152600401610fec906121cc565b60405180910390fd5b83431115611038576040517f08c379a000000000000000000000000000000000000000000000000000000000815260040161102f90612238565b60405180910390fd5b6000308585856040516020016110519493929190612308565b60405160208183030381529060405280519060200120905060006110758288611113565b9050611081888261090c565b9250505095945050505050565b611098828261090c565b61110f576110a58161113a565b6110b38360001c6020611167565b6040516020016110c49291906123e6565b6040516020818303038152906040526040517f08c379a00000000000000000000000000000000000000000000000000000000081526004016111069190612459565b60405180910390fd5b5050565b600080600061112285856113a3565b9150915061112f816113f4565b819250505092915050565b60606111608273ffffffffffffffffffffffffffffffffffffffff16601460ff16611167565b9050919050565b60606000600283600261117a91906124aa565b61118491906124ec565b67ffffffffffffffff81111561119d5761119c611851565b5b6040519080825280601f01601f1916602001820160405280156111cf5781602001600182028036833780820191505090505b5090507f30000000000000000000000000000000000000000000000000000000000000008160008151811061120757611206612520565b5b60200101907effffffffffffffffffffffffffffffffffffffffffffffffffffffffffffff1916908160001a9053507f78000000000000000000000000000000000000000000000000000000000000008160018151811061126b5761126a612520565b5b60200101907effffffffffffffffffffffffffffffffffffffffffffffffffffffffffffff1916908160001a905350600060018460026112ab91906124aa565b6112b591906124ec565b90505b6001811115611355577f3031323334353637383961626364656600000000000000000000000000000000600f8616601081106112f7576112f6612520565b5b1a60f81b82828151811061130e5761130d612520565b5b60200101907effffffffffffffffffffffffffffffffffffffffffffffffffffffffffffff1916908160001a905350600485901c94508061134e9061254f565b90506112b8565b5060008414611399576040517f08c379a0000000000000000000000000000000000000000000000000000000008152600401611390906125c4565b60405180910390fd5b8091505092915050565b60008060418351036113e45760008060006020860151925060408601519150606086015160001a90506113d88782858561155a565b945094505050506113ed565b60006002915091505b9250929050565b6000600481111561140857611407611c1a565b5b81600481111561141b5761141a611c1a565b5b0315611557576001600481111561143557611434611c1a565b5b81600481111561144857611447611c1a565b5b03611488576040517f08c379a000000000000000000000000000000000000000000000000000000000815260040161147f90612630565b60405180910390fd5b6002600481111561149c5761149b611c1a565b5b8160048111156114af576114ae611c1a565b5b036114ef576040517f08c379a00000000000000000000000000000000000000000000000000000000081526004016114e69061269c565b60405180910390fd5b6003600481111561150357611502611c1a565b5b81600481111561151657611515611c1a565b5b03611556576040517f08c379a000000000000000000000000000000000000000000000000000000000815260040161154d9061272e565b60405180910390fd5b5b50565b6000807f7fffffffffffffffffffffffffffffff5d576e7357a4501ddfe92f46681b20a08360001c1115611595576000600391509150611633565b6000600187878787604051600081526020016040526040516115ba949392919061276a565b6020604051602081039080840390855afa1580156115dc573d6000803e3d6000fd5b505050602060405103519050600073ffffffffffffffffffffffffffffffffffffffff168173ffffffffffffffffffffffffffffffffffffffff160361162a57600060019250925050611633565b80600092509250505b94509492505050565b6000604051905090565b600080fd5b600080fd5b60007fffffffff0000000000000000000000000000000000000000000000000000000082169050919050565b61168581611650565b811461169057600080fd5b50565b6000813590506116a28161167c565b92915050565b6000602082840312156116be576116bd611646565b5b60006116cc84828501611693565b91505092915050565b60008115159050919050565b6116ea816116d5565b82525050565b600060208201905061170560008301846116e1565b92915050565b6000819050919050565b61171e8161170b565b82525050565b60006020820190506117396000830184611715565b92915050565b6117488161170b565b811461175357600080fd5b50565b6000813590506117658161173f565b92915050565b60006020828403121561178157611780611646565b5b600061178f84828501611756565b91505092915050565b600073ffffffffffffffffffffffffffffffffffffffff82169050919050565b60006117c382611798565b9050919050565b6117d3816117b8565b81146117de57600080fd5b50565b6000813590506117f0816117ca565b92915050565b6000806040838503121561180d5761180c611646565b5b600061181b85828601611756565b925050602061182c858286016117e1565b9150509250929050565b600080fd5b600080fd5b6000601f19601f8301169050919050565b7f4e487b7100000000000000000000000000000000000000000000000000000000600052604160045260246000fd5b61188982611840565b810181811067ffffffffffffffff821117156118a8576118a7611851565b5b80604052505050565b60006118bb61163c565b90506118c78282611880565b919050565b600067ffffffffffffffff8211156118e7576118e6611851565b5b6118f082611840565b9050602081019050919050565b82818337600083830152505050565b600061191f61191a846118cc565b6118b1565b90508281526020810184848401111561193b5761193a61183b565b5b6119468482856118fd565b509392505050565b600082601f83011261196357611962611836565b5b813561197384826020860161190c565b91505092915050565b6000819050919050565b61198f8161197c565b811461199a57600080fd5b50565b6000813590506119ac81611986565b92915050565b600080600080608085870312156119cc576119cb611646565b5b60006119da87828801611756565b94505060206119eb878288016117e1565b935050604085013567ffffffffffffffff811115611a0c57611a0b61164b565b5b611a188782880161194e565b9250506060611a298782880161199d565b91505092959194509250565b60048110611a4257600080fd5b50565b600081359050611a5481611a35565b92915050565b600080600080600060a08688031215611a7657611a75611646565b5b6000611a84888289016117e1565b9550506020611a958882890161199d565b9450506040611aa688828901611a45565b935050606086013567ffffffffffffffff811115611ac757611ac661164b565b5b611ad38882890161194e565b9250506080611ae48882890161199d565b9150509295509295909350565b6000611afc826117b8565b9050919050565b611b0c81611af1565b8114611b1757600080fd5b50565b600081359050611b2981611b03565b92915050565b600080600080600080600060e0888a031215611b4e57611b4d611646565b5b6000611b5c8a828b01611b1a565b9750506020611b6d8a828b016117e1565b9650506040611b7e8a828b016117e1565b9550506060611b8f8a828b0161199d565b9450506080611ba08a828b0161199d565b93505060a088013567ffffffffffffffff811115611bc157611bc061164b565b5b611bcd8a828b0161194e565b92505060c0611bde8a828b0161199d565b91505092959891949750929550565b600060208284031215611c0357611c02611646565b5b6000611c11848285016117e1565b91505092915050565b7f4e487b7100000000000000000000000000000000000000000000000000000000600052602160045260246000fd5b60048110611c5a57611c59611c1a565b5b50565b6000819050611c6b82611c49565b919050565b6000611c7b82611c5d565b9050919050565b611c8b81611c70565b82525050565b6000602082019050611ca66000830184611c82565b92915050565b60008060408385031215611cc357611cc2611646565b5b6000611cd1858286016117e1565b9250506020611ce28582860161199d565b9150509250929050565b60008060008060808587031215611d0657611d05611646565b5b6000611d14878288016117e1565b9450506020611d2587828801611a45565b935050604085013567ffffffffffffffff811115611d4657611d4561164b565b5b611d528782880161194e565b9250506060611d638782880161199d565b91505092959194509250565b600082825260208201905092915050565b7f416363657373436f6e74726f6c3a2063616e206f6e6c792072656e6f756e636560008201527f20726f6c657320666f722073656c660000000000000000000000000000000000602082015250565b6000611ddc602f83611d6f565b9150611de782611d80565b604082019050919050565b60006020820190508181036000830152611e0b81611dcf565b9050919050565b611e1b816117b8565b82525050565b6000604082019050611e366000830185611715565b611e436020830184611e12565b9392505050565b7f416363657373436f6e74726f6c3a2063616c6c6572206973206e6f7420616e2060008201527f61646d696e000000000000000000000000000000000000000000000000000000602082015250565b6000611ea6602583611d6f565b9150611eb182611e4a565b604082019050919050565b60006020820190508181036000830152611ed581611e99565b9050919050565b611ee58161197c565b82525050565b6000606082019050611f006000830186611e12565b611f0d6020830185611edc565b611f1a6040830184611c82565b949350505050565b7f556e617574686f72697a65640000000000000000000000000000000000000000600082015250565b6000611f58600c83611d6f565b9150611f6382611f22565b602082019050919050565b60006020820190508181036000830152611f8781611f4b565b9050919050565b6000819050919050565b6000611fb3611fae611fa984611798565b611f8e565b611798565b9050919050565b6000611fc582611f98565b9050919050565b6000611fd782611fba565b9050919050565b611fe781611fcc565b82525050565b600060a0820190506120026000830188611fde565b61200f6020830187611e12565b61201c6040830186611e12565b6120296060830185611edc565b6120366080830184611edc565b9695505050505050565b600082825260208201905092915050565b50565b6000612061600083612040565b915061206c82612051565b600082019050919050565b600060a08201905061208c6000830187611e12565b6120996020830186611e12565b6120a66040830185611edc565b6120b36060830184611edc565b81810360808301526120c481612054565b905095945050505050565b60006040820190506120e46000830185611e12565b6120f16020830184611c82565b9392505050565b600081519050919050565b600081905092915050565b60005b8381101561212c578082015181840152602081019050612111565b60008484015250505050565b6000612143826120f8565b61214d8185612103565b935061215d81856020860161210e565b80840191505092915050565b60006121758284612138565b915081905092915050565b7f5369676e617475726520616c7265616479207573656421000000000000000000600082015250565b60006121b6601783611d6f565b91506121c182612180565b602082019050919050565b600060208201905081810360008301526121e5816121a9565b9050919050565b7f5369676e61747572652068617320657870697265640000000000000000000000600082015250565b6000612222601583611d6f565b915061222d826121ec565b602082019050919050565b6000602082019050818103600083015261225181612215565b9050919050565b60008160601b9050919050565b600061227082612258565b9050919050565b600061228282612265565b9050919050565b61229a612295826117b8565b612277565b82525050565b6000819050919050565b6122bb6122b68261197c565b6122a0565b82525050565b600081519050919050565b600081905092915050565b60006122e2826122c1565b6122ec81856122cc565b93506122fc81856020860161210e565b80840191505092915050565b60006123148287612289565b60148201915061232482866122aa565b60208201915061233482856122d7565b91506123408284612138565b915081905095945050505050565b7f416363657373436f6e74726f6c3a206163636f756e7420000000000000000000600082015250565b60006123846017836122cc565b915061238f8261234e565b601782019050919050565b7f206973206d697373696e6720726f6c6520000000000000000000000000000000600082015250565b60006123d06011836122cc565b91506123db8261239a565b601182019050919050565b60006123f182612377565b91506123fd82856122d7565b9150612408826123c3565b915061241482846122d7565b91508190509392505050565b600061242b826122c1565b6124358185611d6f565b935061244581856020860161210e565b61244e81611840565b840191505092915050565b600060208201905081810360008301526124738184612420565b905092915050565b7f4e487b7100000000000000000000000000000000000000000000000000000000600052601160045260246000fd5b60006124b58261197c565b91506124c08361197c565b92508282026124ce8161197c565b915082820484148315176124e5576124e461247b565b5b5092915050565b60006124f78261197c565b91506125028361197c565b925082820190508082111561251a5761251961247b565b5b92915050565b7f4e487b7100000000000000000000000000000000000000000000000000000000600052603260045260246000fd5b600061255a8261197c565b91506000820361256d5761256c61247b565b5b600182039050919050565b7f537472696e67733a20686578206c656e67746820696e73756666696369656e74600082015250565b60006125ae602083611d6f565b91506125b982612578565b602082019050919050565b600060208201905081810360008301526125dd816125a1565b9050919050565b7f45434453413a20696e76616c6964207369676e61747572650000000000000000600082015250565b600061261a601883611d6f565b9150612625826125e4565b602082019050919050565b600060208201905081810360008301526126498161260d565b9050919050565b7f45434453413a20696e76616c6964207369676e6174757265206c656e67746800600082015250565b6000612686601f83611d6f565b915061269182612650565b602082019050919050565b600060208201905081810360008301526126b581612679565b9050919050565b7f45434453413a20696e76616c6964207369676e6174757265202773272076616c60008201527f7565000000000000000000000000000000000000000000000000000000000000602082015250565b6000612718602283611d6f565b9150612723826126bc565b604082019050919050565b600060208201905081810360008301526127478161270b565b9050919050565b600060ff82169050919050565b6127648161274e565b82525050565b600060808201905061277f6000830187611715565b61278c602083018661275b565b6127996040830185611715565b6127a66060830184611715565b9594505050505056fea26469706673582212208cb358414414f75f58a3a0491fd728da197a74458d14299dc1d7f5cfb27f94b364736f6c63430008130033a2646970667358221220dd9f63495cdf183f22f65cd10ba9c3cf5e1e54fabb2a929b85abdbeb064a384764736f6c63430008130033",
  "linkReferences": {},
  "deployedLinkReferences": {}
}