{
  "_format": "hh-sol-artifact-1",
  "contractName": "OrganizationFactory",
  "sourceName": "contracts/OrganizationFactory.sol",
  "abi": [
    {
      "inputs": [],
      "stateMutability": "nonpayable",
      "type": "constructor"
    },
    {
      "anonymous": false,
      "inputs": [
        {
          "indexed": true,
          "internalType": "address",
          "name": "creator",
          "type": "address"
        },
        {
          "indexed": false,
          "internalType": "address",
          "name": "organization",
          "type": "address"
        }
      ],
      "name": "OrganizationCreated",
      "type": "event"
    },
    {
      "anonymous": false,
      "inputs": [
        {
          "indexed": true,
          "internalType": "bytes32",
          "name": "role",
          "type": "bytes32"
        },
        {
          "indexed": true,
          "internalType": "bytes32",
          "name": "previousAdminRole",
          "type": "bytes32"
        },
        {
          "indexed": true,
          "internalType": "bytes32",
          "name": "newAdminRole",
          "type": "bytes32"
        }
      ],
      "name": "RoleAdminChanged",
      "type": "event"
    },
    {
      "anonymous": false,
      "inputs": [
        {
          "indexed": true,
          "internalType": "bytes32",
          "name": "role",
          "type": "bytes32"
        },
        {
          "indexed": true,
          "internalType": "address",
          "name": "account",
          "type": "address"
        },
        {
          "indexed": true,
          "internalType": "address",
          "name": "sender",
          "type": "address"
        }
      ],
      "name": "RoleGranted",
      "type": "event"
    },
    {
      "anonymous": false,
      "inputs": [
        {
          "indexed": true,
          "internalType": "bytes32",
          "name": "role",
          "type": "bytes32"
        },
        {
          "indexed": true,
          "internalType": "address",
          "name": "account",
          "type": "address"
        },
        {
          "indexed": true,
          "internalType": "address",
          "name": "sender",
          "type": "address"
        }
      ],
      "name": "RoleRevoked",
      "type": "event"
    },
    {
      "inputs": [],
      "name": "ADMIN_ROLE",
      "outputs": [
        {
          "internalType": "bytes32",
          "name": "",
          "type": "bytes32"
        }
      ],
      "stateMutability": "view",
      "type": "function"
    },
    {
      "inputs": [],
      "name": "DEFAULT_ADMIN_ROLE",
      "outputs": [
        {
          "internalType": "bytes32",
          "name": "",
          "type": "bytes32"
        }
      ],
      "stateMutability": "view",
      "type": "function"
    },
    {
      "inputs": [],
      "name": "SIGNER_ROLE",
      "outputs": [
        {
          "internalType": "bytes32",
          "name": "",
          "type": "bytes32"
        }
      ],
      "stateMutability": "view",
      "type": "function"
    },
    {
      "inputs": [
        {
          "components": [
            {
              "internalType": "bytes",
              "name": "encodedMessage",
              "type": "bytes"
            },
            {
              "internalType": "bytes32",
              "name": "messageHash",
              "type": "bytes32"
            },
            {
              "internalType": "bytes",
              "name": "signature",
              "type": "bytes"
            },
            {
              "internalType": "address",
              "name": "signer",
              "type": "address"
            }
          ],
          "internalType": "struct SignatureVerifier.Signature",
          "name": "signature",
          "type": "tuple"
        }
      ],
      "name": "createOrganization",
      "outputs": [
        {
          "internalType": "address",
          "name": "",
          "type": "address"
        }
      ],
      "stateMutability": "nonpayable",
      "type": "function"
    },
    {
      "inputs": [
        {
          "internalType": "uint256",
          "name": "index",
          "type": "uint256"
        }
      ],
      "name": "getOrganization",
      "outputs": [
        {
          "internalType": "address",
          "name": "",
          "type": "address"
        }
      ],
      "stateMutability": "view",
      "type": "function"
    },
    {
      "inputs": [],
      "name": "getOrganizationCount",
      "outputs": [
        {
          "internalType": "uint256",
          "name": "",
          "type": "uint256"
        }
      ],
      "stateMutability": "view",
      "type": "function"
    },
    {
      "inputs": [
        {
          "internalType": "bytes32",
          "name": "role",
          "type": "bytes32"
        }
      ],
      "name": "getRoleAdmin",
      "outputs": [
        {
          "internalType": "bytes32",
          "name": "",
          "type": "bytes32"
        }
      ],
      "stateMutability": "view",
      "type": "function"
    },
    {
      "inputs": [
        {
          "components": [
            {
              "internalType": "bytes",
              "name": "encodedMessage",
              "type": "bytes"
            },
            {
              "internalType": "bytes32",
              "name": "messageHash",
              "type": "bytes32"
            },
            {
              "internalType": "bytes",
              "name": "signature",
              "type": "bytes"
            },
            {
              "internalType": "address",
              "name": "signer",
              "type": "address"
            }
          ],
          "internalType": "struct SignatureVerifier.Signature",
          "name": "signature",
          "type": "tuple"
        }
      ],
      "name": "grantRole",
      "outputs": [],
      "stateMutability": "nonpayable",
      "type": "function"
    },
    {
      "inputs": [
        {
          "internalType": "bytes32",
          "name": "role",
          "type": "bytes32"
        },
        {
          "internalType": "address",
          "name": "account",
          "type": "address"
        }
      ],
      "name": "grantRole",
      "outputs": [],
      "stateMutability": "nonpayable",
      "type": "function"
    },
    {
      "inputs": [
        {
          "internalType": "bytes32",
          "name": "role",
          "type": "bytes32"
        },
        {
          "internalType": "address",
          "name": "account",
          "type": "address"
        }
      ],
      "name": "hasRole",
      "outputs": [
        {
          "internalType": "bool",
          "name": "",
          "type": "bool"
        }
      ],
      "stateMutability": "view",
      "type": "function"
    },
    {
      "inputs": [
        {
          "internalType": "uint256",
          "name": "",
          "type": "uint256"
        }
      ],
      "name": "organizations",
      "outputs": [
        {
          "internalType": "address",
          "name": "",
          "type": "address"
        }
      ],
      "stateMutability": "view",
      "type": "function"
    },
    {
      "inputs": [
        {
          "internalType": "bytes32",
          "name": "role",
          "type": "bytes32"
        },
        {
          "internalType": "address",
          "name": "account",
          "type": "address"
        }
      ],
      "name": "renounceRole",
      "outputs": [],
      "stateMutability": "nonpayable",
      "type": "function"
    },
    {
      "inputs": [
        {
          "components": [
            {
              "internalType": "bytes",
              "name": "encodedMessage",
              "type": "bytes"
            },
            {
              "internalType": "bytes32",
              "name": "messageHash",
              "type": "bytes32"
            },
            {
              "internalType": "bytes",
              "name": "signature",
              "type": "bytes"
            },
            {
              "internalType": "address",
              "name": "signer",
              "type": "address"
            }
          ],
          "internalType": "struct SignatureVerifier.Signature",
          "name": "signature",
          "type": "tuple"
        }
      ],
      "name": "revokeRole",
      "outputs": [],
      "stateMutability": "nonpayable",
      "type": "function"
    },
    {
      "inputs": [
        {
          "internalType": "bytes32",
          "name": "role",
          "type": "bytes32"
        },
        {
          "internalType": "address",
          "name": "account",
          "type": "address"
        }
      ],
      "name": "revokeRole",
      "outputs": [],
      "stateMutability": "nonpayable",
      "type": "function"
    },
    {
      "inputs": [
        {
          "internalType": "bytes4",
          "name": "interfaceId",
          "type": "bytes4"
        }
      ],
      "name": "supportsInterface",
      "outputs": [
        {
          "internalType": "bool",
          "name": "",
          "type": "bool"
        }
      ],
      "stateMutability": "view",
      "type": "function"
    }
  ],
  "bytecode": "0x60806040523480156200001157600080fd5b50620000366000801b6200002a6200008360201b60201c565b6200008b60201b60201c565b6200004b6000801b336200008b60201b60201c565b6200007d7fa49807205ce4d355092ef5a8a18f56e8913cf4a201fbe287825b095693c21775336200008b60201b60201c565b620001fc565b600033905090565b6200009d8282620000a160201b60201c565b5050565b620000b382826200019260201b60201c565b6200018e57600160008084815260200190815260200160002060000160008373ffffffffffffffffffffffffffffffffffffffff1673ffffffffffffffffffffffffffffffffffffffff16815260200190815260200160002060006101000a81548160ff021916908315150217905550620001336200008360201b60201c565b73ffffffffffffffffffffffffffffffffffffffff168173ffffffffffffffffffffffffffffffffffffffff16837f2f8788117e7eff1d82e926ec794901d17c78024a50270940304540a733656f0d60405160405180910390a45b5050565b600080600084815260200190815260200160002060000160008373ffffffffffffffffffffffffffffffffffffffff1673ffffffffffffffffffffffffffffffffffffffff16815260200190815260200160002060009054906101000a900460ff16905092915050565b61607a806200020c6000396000f3fe60806040523480156200001157600080fd5b50600436106200010b5760003560e01c80636f0db9fa11620000a5578063a217fddf116200006f578063a217fddf14620002ce578063d3e82db614620002f0578063d547741f1462000326578063e792dd8a1462000346576200010b565b80636f0db9fa146200023457806375b238fc146200025457806391d148541462000276578063a1ebf35d14620002ac576200010b565b80632f2ff15d11620000e75780632f2ff15d146200019c57806336568abe14620001bc5780634526f69014620001dc5780635734e5e31462000212576200010b565b8062aaf580146200011057806301ffc9a71462000130578063248a9ca31462000166575b600080fd5b6200012e600480360381019062000128919062001b70565b6200037c565b005b6200014e600480360381019062000148919062001c1e565b620005d6565b6040516200015d919062001c6d565b60405180910390f35b6200018460048036038101906200017e919062001c8a565b62000653565b60405162000193919062001ccd565b60405180910390f35b620001ba6004803603810190620001b4919062001cea565b62000672565b005b620001da6004803603810190620001d4919062001cea565b62000699565b005b620001fa6004803603810190620001f4919062001d6c565b62000723565b60405162000209919062001daf565b60405180910390f35b6200021c620007b8565b6040516200022b919062001ddd565b60405180910390f35b6200025260048036038101906200024c919062001b70565b620007c5565b005b6200025e62000a1f565b6040516200026d919062001ccd565b60405180910390f35b6200029460048036038101906200028e919062001cea565b62000a43565b604051620002a3919062001c6d565b60405180910390f35b620002b662000aad565b604051620002c5919062001ccd565b60405180910390f35b620002d862000ad1565b604051620002e7919062001ccd565b60405180910390f35b6200030e600480360381019062000308919062001b70565b62000ad8565b6040516200031d919062001daf565b60405180910390f35b6200034460048036038101906200033e919062001cea565b62000e37565b005b6200036460048036038101906200035e919062001d6c565b62000e5e565b60405162000373919062001daf565b60405180910390f35b6000801b816001816040015160405162000397919062001e73565b908152602001604051809103902060009054906101000a900460ff1615620003f6576040517f08c379a0000000000000000000000000000000000000000000000000000000008152600401620003ed9062001eed565b60405180910390fd5b80602001516200040a826000015162000e9e565b146200044d576040517f08c379a0000000000000000000000000000000000000000000000000000000008152600401620004449062001f85565b60405180910390fd5b60006200045e826020015162000eaf565b905060006200047282846040015162000ee1565b9050826060015173ffffffffffffffffffffffffffffffffffffffff168173ffffffffffffffffffffffffffffffffffffffff1614620004e9576040517f08c379a0000000000000000000000000000000000000000000000000000000008152600401620004e09062001ff7565b60405180910390fd5b620004f5848262000a43565b62000537576040517f08c379a00000000000000000000000000000000000000000000000000000000081526004016200052e9062002069565b60405180910390fd5b6000856000015180602001905181019062000553919062002203565b90506200056260008262000f0c565b506000808260600151806020019051810190620005809190620022b0565b915091506200059082826200104a565b5050506001808460400151604051620005aa919062001e73565b908152602001604051809103902060006101000a81548160ff0219169083151502179055505050505050565b60007f7965db0b000000000000000000000000000000000000000000000000000000007bffffffffffffffffffffffffffffffffffffffffffffffffffffffff1916827bffffffffffffffffffffffffffffffffffffffffffffffffffffffff191614806200064c57506200064b826200112f565b5b9050919050565b6000806000838152602001908152602001600020600101549050919050565b6200067d8262000653565b620006888162001199565b6200069483836200104a565b505050565b620006a3620011b1565b73ffffffffffffffffffffffffffffffffffffffff168173ffffffffffffffffffffffffffffffffffffffff161462000713576040517f08c379a00000000000000000000000000000000000000000000000000000000081526004016200070a906200236d565b60405180910390fd5b6200071f8282620011b9565b5050565b600060028054905082106200076f576040517f08c379a00000000000000000000000000000000000000000000000000000000081526004016200076690620023df565b60405180910390fd5b6002828154811062000786576200078562002401565b5b9060005260206000200160009054906101000a900473ffffffffffffffffffffffffffffffffffffffff169050919050565b6000600280549050905090565b6000801b8160018160400151604051620007e0919062001e73565b908152602001604051809103902060009054906101000a900460ff16156200083f576040517f08c379a0000000000000000000000000000000000000000000000000000000008152600401620008369062001eed565b60405180910390fd5b806020015162000853826000015162000e9e565b1462000896576040517f08c379a00000000000000000000000000000000000000000000000000000000081526004016200088d9062001f85565b60405180910390fd5b6000620008a7826020015162000eaf565b90506000620008bb82846040015162000ee1565b9050826060015173ffffffffffffffffffffffffffffffffffffffff168173ffffffffffffffffffffffffffffffffffffffff161462000932576040517f08c379a0000000000000000000000000000000000000000000000000000000008152600401620009299062001ff7565b60405180910390fd5b6200093e848262000a43565b62000980576040517f08c379a0000000000000000000000000000000000000000000000000000000008152600401620009779062002069565b60405180910390fd5b600085600001518060200190518101906200099c919062002203565b9050620009ab60018262000f0c565b506000808260600151806020019051810190620009c99190620022b0565b91509150620009d98282620011b9565b5050506001808460400151604051620009f3919062001e73565b908152602001604051809103902060006101000a81548160ff0219169083151502179055505050505050565b7fa49807205ce4d355092ef5a8a18f56e8913cf4a201fbe287825b095693c2177581565b600080600084815260200190815260200160002060000160008373ffffffffffffffffffffffffffffffffffffffff1673ffffffffffffffffffffffffffffffffffffffff16815260200190815260200160002060009054906101000a900460ff16905092915050565b7fe2f4eaae4a9751e85a3e4a7b9587827a877f29914755229b07a7b2da98285f7081565b6000801b81565b60007fa49807205ce4d355092ef5a8a18f56e8913cf4a201fbe287825b095693c21775826001816040015160405162000b12919062001e73565b908152602001604051809103902060009054906101000a900460ff161562000b71576040517f08c379a000000000000000000000000000000000000000000000000000000000815260040162000b689062001eed565b60405180910390fd5b806020015162000b85826000015162000e9e565b1462000bc8576040517f08c379a000000000000000000000000000000000000000000000000000000000815260040162000bbf9062001f85565b60405180910390fd5b600062000bd9826020015162000eaf565b9050600062000bed82846040015162000ee1565b9050826060015173ffffffffffffffffffffffffffffffffffffffff168173ffffffffffffffffffffffffffffffffffffffff161462000c64576040517f08c379a000000000000000000000000000000000000000000000000000000000815260040162000c5b9062001ff7565b60405180910390fd5b62000c70848262000a43565b62000cb2576040517f08c379a000000000000000000000000000000000000000000000000000000000815260040162000ca99062002069565b60405180910390fd5b6000866000015180602001905181019062000cce919062002203565b905062000cdd60028262000f0c565b506000816060015180602001905181019062000cfa919062002430565b905060008160405162000d0d906200187f565b62000d19919062001daf565b604051809103906000f08015801562000d36573d6000803e3d6000fd5b5090506002819080600181540180825580915050600190039060005260206000200160009091909190916101000a81548173ffffffffffffffffffffffffffffffffffffffff021916908373ffffffffffffffffffffffffffffffffffffffff1602179055503373ffffffffffffffffffffffffffffffffffffffff167f2725ca0bb6f842da395a595005373aaa8e052b21133359b3c75f59a1247e6e7a8260405162000de4919062001daf565b60405180910390a2809750505050600180846040015160405162000e09919062001e73565b908152602001604051809103902060006101000a81548160ff02191690831515021790555050505050919050565b62000e428262000653565b62000e4d8162001199565b62000e598383620011b9565b505050565b6002818154811062000e6f57600080fd5b906000526020600020016000915054906101000a900473ffffffffffffffffffffffffffffffffffffffff1681565b600081805190602001209050919050565b60008160405160200162000ec49190620024e2565b604051602081830303815290604052805190602001209050919050565b600080600062000ef285856200129f565b9150915062000f0181620012f4565b819250505092915050565b60003073ffffffffffffffffffffffffffffffffffffffff16826000015173ffffffffffffffffffffffffffffffffffffffff161462000f83576040517f08c379a000000000000000000000000000000000000000000000000000000000815260040162000f7a906200255c565b60405180910390fd5b438260200151101562000fcd576040517f08c379a000000000000000000000000000000000000000000000000000000000815260040162000fc490620025ce565b60405180910390fd5b82600281111562000fe35762000fe2620025f0565b5b8260400151600281111562000ffd5762000ffc620025f0565b5b1462001040576040517f08c379a000000000000000000000000000000000000000000000000000000000815260040162001037906200266f565b60405180910390fd5b6001905092915050565b62001056828262000a43565b6200112b57600160008084815260200190815260200160002060000160008373ffffffffffffffffffffffffffffffffffffffff1673ffffffffffffffffffffffffffffffffffffffff16815260200190815260200160002060006101000a81548160ff021916908315150217905550620010d0620011b1565b73ffffffffffffffffffffffffffffffffffffffff168173ffffffffffffffffffffffffffffffffffffffff16837f2f8788117e7eff1d82e926ec794901d17c78024a50270940304540a733656f0d60405160405180910390a45b5050565b60007f01ffc9a7000000000000000000000000000000000000000000000000000000007bffffffffffffffffffffffffffffffffffffffffffffffffffffffff1916827bffffffffffffffffffffffffffffffffffffffffffffffffffffffff1916149050919050565b620011ae81620011a8620011b1565b6200147c565b50565b600033905090565b620011c5828262000a43565b156200129b57600080600084815260200190815260200160002060000160008373ffffffffffffffffffffffffffffffffffffffff1673ffffffffffffffffffffffffffffffffffffffff16815260200190815260200160002060006101000a81548160ff02191690831515021790555062001240620011b1565b73ffffffffffffffffffffffffffffffffffffffff168173ffffffffffffffffffffffffffffffffffffffff16837ff6391f5c32d9c69d2a47ea670b442974b53935d1edc7fd64eb21e047a839171b60405160405180910390a45b5050565b6000806041835103620012e45760008060006020860151925060408601519150606086015160001a9050620012d7878285856200150c565b94509450505050620012ed565b60006002915091505b9250929050565b600060048111156200130b576200130a620025f0565b5b816004811115620013215762001320620025f0565b5b03156200147957600160048111156200133f576200133e620025f0565b5b816004811115620013555762001354620025f0565b5b0362001398576040517f08c379a00000000000000000000000000000000000000000000000000000000081526004016200138f90620026e1565b60405180910390fd5b60026004811115620013af57620013ae620025f0565b5b816004811115620013c557620013c4620025f0565b5b0362001408576040517f08c379a0000000000000000000000000000000000000000000000000000000008152600401620013ff9062002753565b60405180910390fd5b600360048111156200141f576200141e620025f0565b5b816004811115620014355762001434620025f0565b5b0362001478576040517f08c379a00000000000000000000000000000000000000000000000000000000081526004016200146f90620027eb565b60405180910390fd5b5b50565b62001488828262000a43565b62001508576200149881620015f5565b620014a88360001c602062001624565b604051602001620014bb929190620028ef565b6040516020818303038152906040526040517f08c379a0000000000000000000000000000000000000000000000000000000008152600401620014ff919062002972565b60405180910390fd5b5050565b6000807f7fffffffffffffffffffffffffffffff5d576e7357a4501ddfe92f46681b20a08360001c111562001549576000600391509150620015ec565b600060018787878760405160008152602001604052604051620015709493929190620029b4565b6020604051602081039080840390855afa15801562001593573d6000803e3d6000fd5b505050602060405103519050600073ffffffffffffffffffffffffffffffffffffffff168173ffffffffffffffffffffffffffffffffffffffff1603620015e357600060019250925050620015ec565b80600092509250505b94509492505050565b60606200161d8273ffffffffffffffffffffffffffffffffffffffff16601460ff1662001624565b9050919050565b60606000600283600262001639919062002a30565b62001645919062002a7b565b67ffffffffffffffff811115620016615762001660620018b7565b5b6040519080825280601f01601f191660200182016040528015620016945781602001600182028036833780820191505090505b5090507f300000000000000000000000000000000000000000000000000000000000000081600081518110620016cf57620016ce62002401565b5b60200101907effffffffffffffffffffffffffffffffffffffffffffffffffffffffffffff1916908160001a9053507f78000000000000000000000000000000000000000000000000000000000000008160018151811062001736576200173562002401565b5b60200101907effffffffffffffffffffffffffffffffffffffffffffffffffffffffffffff1916908160001a9053506000600184600262001778919062002a30565b62001784919062002a7b565b90505b60018111156200182e577f3031323334353637383961626364656600000000000000000000000000000000600f861660108110620017ca57620017c962002401565b5b1a60f81b828281518110620017e457620017e362002401565b5b60200101907effffffffffffffffffffffffffffffffffffffffffffffffffffffffffffff1916908160001a905350600485901c945080620018269062002ab6565b905062001787565b506000841462001875576040517f08c379a00000000000000000000000000000000000000000000000000000000081526004016200186c9062002b34565b60405180910390fd5b8091505092915050565b6134ee8062002b5783390190565b6000604051905090565b600080fd5b600080fd5b600080fd5b6000601f19601f8301169050919050565b7f4e487b7100000000000000000000000000000000000000000000000000000000600052604160045260246000fd5b620018f182620018a6565b810181811067ffffffffffffffff82111715620019135762001912620018b7565b5b80604052505050565b6000620019286200188d565b9050620019368282620018e6565b919050565b600080fd5b600080fd5b600080fd5b600067ffffffffffffffff821115620019685762001967620018b7565b5b6200197382620018a6565b9050602081019050919050565b82818337600083830152505050565b6000620019a6620019a0846200194a565b6200191c565b905082815260208101848484011115620019c557620019c462001945565b5b620019d284828562001980565b509392505050565b600082601f830112620019f257620019f162001940565b5b813562001a048482602086016200198f565b91505092915050565b6000819050919050565b62001a228162001a0d565b811462001a2e57600080fd5b50565b60008135905062001a428162001a17565b92915050565b600073ffffffffffffffffffffffffffffffffffffffff82169050919050565b600062001a758262001a48565b9050919050565b62001a878162001a68565b811462001a9357600080fd5b50565b60008135905062001aa78162001a7c565b92915050565b60006080828403121562001ac65762001ac5620018a1565b5b62001ad260806200191c565b9050600082013567ffffffffffffffff81111562001af55762001af46200193b565b5b62001b0384828501620019da565b600083015250602062001b198482850162001a31565b602083015250604082013567ffffffffffffffff81111562001b405762001b3f6200193b565b5b62001b4e84828501620019da565b604083015250606062001b648482850162001a96565b60608301525092915050565b60006020828403121562001b895762001b8862001897565b5b600082013567ffffffffffffffff81111562001baa5762001ba96200189c565b5b62001bb88482850162001aad565b91505092915050565b60007fffffffff0000000000000000000000000000000000000000000000000000000082169050919050565b62001bf88162001bc1565b811462001c0457600080fd5b50565b60008135905062001c188162001bed565b92915050565b60006020828403121562001c375762001c3662001897565b5b600062001c478482850162001c07565b91505092915050565b60008115159050919050565b62001c678162001c50565b82525050565b600060208201905062001c84600083018462001c5c565b92915050565b60006020828403121562001ca35762001ca262001897565b5b600062001cb38482850162001a31565b91505092915050565b62001cc78162001a0d565b82525050565b600060208201905062001ce4600083018462001cbc565b92915050565b6000806040838503121562001d045762001d0362001897565b5b600062001d148582860162001a31565b925050602062001d278582860162001a96565b9150509250929050565b6000819050919050565b62001d468162001d31565b811462001d5257600080fd5b50565b60008135905062001d668162001d3b565b92915050565b60006020828403121562001d855762001d8462001897565b5b600062001d958482850162001d55565b91505092915050565b62001da98162001a68565b82525050565b600060208201905062001dc6600083018462001d9e565b92915050565b62001dd78162001d31565b82525050565b600060208201905062001df4600083018462001dcc565b92915050565b600081519050919050565b600081905092915050565b60005b8381101562001e3057808201518184015260208101905062001e13565b60008484015250505050565b600062001e498262001dfa565b62001e55818562001e05565b935062001e6781856020860162001e10565b80840191505092915050565b600062001e81828462001e3c565b915081905092915050565b600082825260208201905092915050565b7f5369676e617475726520616c7265616479207573656400000000000000000000600082015250565b600062001ed560168362001e8c565b915062001ee28262001e9d565b602082019050919050565b6000602082019050818103600083015262001f088162001ec6565b9050919050565b7f546865206d657373616765206861736820646f65736e2774206d61746368207460008201527f6865206f726967696e616c210000000000000000000000000000000000000000602082015250565b600062001f6d602c8362001e8c565b915062001f7a8262001f0f565b604082019050919050565b6000602082019050818103600083015262001fa08162001f5e565b9050919050565b7f496e76616c6964207369676e6572000000000000000000000000000000000000600082015250565b600062001fdf600e8362001e8c565b915062001fec8262001fa7565b602082019050919050565b60006020820190508181036000830152620020128162001fd0565b9050919050565b7f556e617574686f72697a65640000000000000000000000000000000000000000600082015250565b600062002051600c8362001e8c565b91506200205e8262002019565b602082019050919050565b60006020820190508181036000830152620020848162002042565b9050919050565b6000815190506200209c8162001a7c565b92915050565b600081519050620020b38162001d3b565b92915050565b60038110620020c757600080fd5b50565b600081519050620020db81620020b9565b92915050565b6000620020f8620020f2846200194a565b6200191c565b90508281526020810184848401111562002117576200211662001945565b5b6200212484828562001e10565b509392505050565b600082601f83011262002144576200214362001940565b5b815162002156848260208601620020e1565b91505092915050565b600060808284031215620021785762002177620018a1565b5b6200218460806200191c565b9050600062002196848285016200208b565b6000830152506020620021ac84828501620020a2565b6020830152506040620021c284828501620020ca565b604083015250606082015167ffffffffffffffff811115620021e957620021e86200193b565b5b620021f7848285016200212c565b60608301525092915050565b6000602082840312156200221c576200221b62001897565b5b600082015167ffffffffffffffff8111156200223d576200223c6200189c565b5b6200224b848285016200215f565b91505092915050565b600081519050620022658162001a17565b92915050565b6000620022788262001a48565b9050919050565b6200228a816200226b565b81146200229657600080fd5b50565b600081519050620022aa816200227f565b92915050565b60008060408385031215620022ca57620022c962001897565b5b6000620022da8582860162002254565b9250506020620022ed8582860162002299565b9150509250929050565b7f416363657373436f6e74726f6c3a2063616e206f6e6c792072656e6f756e636560008201527f20726f6c657320666f722073656c660000000000000000000000000000000000602082015250565b600062002355602f8362001e8c565b91506200236282620022f7565b604082019050919050565b60006020820190508181036000830152620023888162002346565b9050919050565b7f496e646578206f7574206f6620626f756e647300000000000000000000000000600082015250565b6000620023c760138362001e8c565b9150620023d4826200238f565b602082019050919050565b60006020820190508181036000830152620023fa81620023b8565b9050919050565b7f4e487b7100000000000000000000000000000000000000000000000000000000600052603260045260246000fd5b60006020828403121562002449576200244862001897565b5b6000620024598482850162002299565b91505092915050565b600081905092915050565b7f19457468657265756d205369676e6564204d6573736167653a0a333200000000600082015250565b6000620024a5601c8362002462565b9150620024b2826200246d565b601c82019050919050565b6000819050919050565b620024dc620024d68262001a0d565b620024bd565b82525050565b6000620024ef8262002496565b9150620024fd8284620024c7565b60208201915081905092915050565b7f546172676574206164647265737320646f65736e2774206d6174636800000000600082015250565b600062002544601c8362001e8c565b915062002551826200250c565b602082019050919050565b60006020820190508181036000830152620025778162002535565b9050919050565b7f4d65737361646520697320657870697265640000000000000000000000000000600082015250565b6000620025b660128362001e8c565b9150620025c3826200257e565b602082019050919050565b60006020820190508181036000830152620025e981620025a7565b9050919050565b7f4e487b7100000000000000000000000000000000000000000000000000000000600052602160045260246000fd5b7f46756e6374696f6e206e616d6520646f65736e2774206d617463680000000000600082015250565b600062002657601b8362001e8c565b915062002664826200261f565b602082019050919050565b600060208201905081810360008301526200268a8162002648565b9050919050565b7f45434453413a20696e76616c6964207369676e61747572650000000000000000600082015250565b6000620026c960188362001e8c565b9150620026d68262002691565b602082019050919050565b60006020820190508181036000830152620026fc81620026ba565b9050919050565b7f45434453413a20696e76616c6964207369676e6174757265206c656e67746800600082015250565b60006200273b601f8362001e8c565b9150620027488262002703565b602082019050919050565b600060208201905081810360008301526200276e816200272c565b9050919050565b7f45434453413a20696e76616c6964207369676e6174757265202773272076616c60008201527f7565000000000000000000000000000000000000000000000000000000000000602082015250565b6000620027d360228362001e8c565b9150620027e08262002775565b604082019050919050565b600060208201905081810360008301526200280681620027c4565b9050919050565b7f416363657373436f6e74726f6c3a206163636f756e7420000000000000000000600082015250565b60006200284560178362002462565b915062002852826200280d565b601782019050919050565b600081519050919050565b600062002875826200285d565b62002881818562002462565b93506200289381856020860162001e10565b80840191505092915050565b7f206973206d697373696e6720726f6c6520000000000000000000000000000000600082015250565b6000620028d760118362002462565b9150620028e4826200289f565b601182019050919050565b6000620028fc8262002836565b91506200290a828562002868565b91506200291782620028c8565b915062002925828462002868565b91508190509392505050565b60006200293e826200285d565b6200294a818562001e8c565b93506200295c81856020860162001e10565b6200296781620018a6565b840191505092915050565b600060208201905081810360008301526200298e818462002931565b905092915050565b600060ff82169050919050565b620029ae8162002996565b82525050565b6000608082019050620029cb600083018762001cbc565b620029da6020830186620029a3565b620029e9604083018562001cbc565b620029f8606083018462001cbc565b95945050505050565b7f4e487b7100000000000000000000000000000000000000000000000000000000600052601160045260246000fd5b600062002a3d8262001d31565b915062002a4a8362001d31565b925082820262002a5a8162001d31565b9150828204841483151762002a745762002a7362002a01565b5b5092915050565b600062002a888262001d31565b915062002a958362001d31565b925082820190508082111562002ab05762002aaf62002a01565b5b92915050565b600062002ac38262001d31565b91506000820362002ad95762002ad862002a01565b5b600182039050919050565b7f537472696e67733a20686578206c656e67746820696e73756666696369656e74600082015250565b600062002b1c60208362001e8c565b915062002b298262002ae4565b602082019050919050565b6000602082019050818103600083015262002b4f8162002b0d565b905091905056fe60806040523480156200001157600080fd5b50604051620034ee380380620034ee8339818101604052810190620000379190620002be565b6200005b6000801b6200004f620000db60201b60201c565b620000e360201b60201c565b620000706000801b82620000e360201b60201c565b620000a27fa49807205ce4d355092ef5a8a18f56e8913cf4a201fbe287825b095693c2177582620000e360201b60201c565b620000d47f8502233096d909befbda0999bb8ea2f3a6be3c138b9fbf003752a4c8bce86f6c82620000e360201b60201c565b50620002f0565b600033905090565b620000f58282620000f960201b60201c565b5050565b6200010b8282620001ea60201b60201c565b620001e657600160008084815260200190815260200160002060000160008373ffffffffffffffffffffffffffffffffffffffff1673ffffffffffffffffffffffffffffffffffffffff16815260200190815260200160002060006101000a81548160ff0219169083151502179055506200018b620000db60201b60201c565b73ffffffffffffffffffffffffffffffffffffffff168173ffffffffffffffffffffffffffffffffffffffff16837f2f8788117e7eff1d82e926ec794901d17c78024a50270940304540a733656f0d60405160405180910390a45b5050565b600080600084815260200190815260200160002060000160008373ffffffffffffffffffffffffffffffffffffffff1673ffffffffffffffffffffffffffffffffffffffff16815260200190815260200160002060009054906101000a900460ff16905092915050565b600080fd5b600073ffffffffffffffffffffffffffffffffffffffff82169050919050565b6000620002868262000259565b9050919050565b620002988162000279565b8114620002a457600080fd5b50565b600081519050620002b8816200028d565b92915050565b600060208284031215620002d757620002d662000254565b5b6000620002e784828501620002a7565b91505092915050565b6131ee80620003006000396000f3fe608060405234801561001057600080fd5b50600436106101365760003560e01c80638f28f50e116100b8578063d3471d901161007c578063d3471d901461034b578063d547741f14610367578063e62092be14610383578063e9d79b0e146103b3578063ff2ff6c9146103e3578063ffad99501461041357610136565b80638f28f50e1461027f57806391d14854146102af578063a1ebf35d146102df578063a217fddf146102fd578063c0eb89b21461031b57610136565b806336568abe116100ff57806336568abe146101f15780633bd4514e1461020d57806369788b2a146102295780636f0db9fa1461024557806375b238fc1461026157610136565b8062aaf5801461013b57806301ffc9a714610157578063206b60f914610187578063248a9ca3146101a55780632f2ff15d146101d5575b600080fd5b6101556004803603810190610150919061211b565b610443565b005b610171600480360381019061016c91906121bc565b61067d565b60405161017e9190612204565b60405180910390f35b61018f6106f7565b60405161019c919061222e565b60405180910390f35b6101bf60048036038101906101ba9190612249565b61071b565b6040516101cc919061222e565b60405180910390f35b6101ef60048036038101906101ea9190612276565b61073a565b005b61020b60048036038101906102069190612276565b61075b565b005b6102276004803603810190610222919061211b565b6107de565b005b610243600480360381019061023e919061211b565b610aa8565b005b61025f600480360381019061025a919061211b565b610d3f565b005b610269610f79565b604051610276919061222e565b60405180910390f35b610299600480360381019061029491906122b6565b610f9d565b6040516102a6919061235a565b60405180910390f35b6102c960048036038101906102c49190612276565b610fbd565b6040516102d69190612204565b60405180910390f35b6102e7611027565b6040516102f4919061222e565b60405180910390f35b61030561104b565b604051610312919061222e565b60405180910390f35b610335600480360381019061033091906123ab565b611052565b604051610342919061235a565b60405180910390f35b6103656004803603810190610360919061211b565b611141565b005b610381600480360381019061037c9190612276565b61140d565b005b61039d600480360381019061039891906123ab565b61142e565b6040516103aa9190612204565b60405180910390f35b6103cd60048036038101906103c891906123ab565b611468565b6040516103da919061235a565b60405180910390f35b6103fd60048036038101906103f891906123ab565b611497565b60405161040a9190612204565b60405180910390f35b61042d600480360381019061042891906123ab565b6114d2565b60405161043a9190612204565b60405180910390f35b6000801b816001816040015160405161045c919061245c565b908152602001604051809103902060009054906101000a900460ff16156104b8576040517f08c379a00000000000000000000000000000000000000000000000000000000081526004016104af906124d0565b60405180910390fd5b80602001516104ca826000015161150e565b1461050a576040517f08c379a000000000000000000000000000000000000000000000000000000000815260040161050190612562565b60405180910390fd5b6000610519826020015161151f565b9050600061052b82846040015161154f565b9050826060015173ffffffffffffffffffffffffffffffffffffffff168173ffffffffffffffffffffffffffffffffffffffff161461059f576040517f08c379a0000000000000000000000000000000000000000000000000000000008152600401610596906125ce565b60405180910390fd5b6105a98482610fbd565b6105e8576040517f08c379a00000000000000000000000000000000000000000000000000000000081526004016105df9061263a565b60405180910390fd5b6000856000015180602001905181019061060291906127ad565b905061060f600082611576565b50600080826060015180602001905181019061062b9190612849565b9150915061063982826116a5565b5050506001808460400151604051610651919061245c565b908152602001604051809103902060006101000a81548160ff0219169083151502179055505050505050565b60007f7965db0b000000000000000000000000000000000000000000000000000000007bffffffffffffffffffffffffffffffffffffffffffffffffffffffff1916827bffffffffffffffffffffffffffffffffffffffffffffffffffffffff191614806106f057506106ef82611785565b5b9050919050565b7f8502233096d909befbda0999bb8ea2f3a6be3c138b9fbf003752a4c8bce86f6c81565b6000806000838152602001908152602001600020600101549050919050565b6107438261071b565b61074c816117ef565b61075683836116a5565b505050565b610763611803565b73ffffffffffffffffffffffffffffffffffffffff168173ffffffffffffffffffffffffffffffffffffffff16146107d0576040517f08c379a00000000000000000000000000000000000000000000000000000000081526004016107c7906128fb565b60405180910390fd5b6107da828261180b565b5050565b7fa49807205ce4d355092ef5a8a18f56e8913cf4a201fbe287825b095693c217758160018160400151604051610814919061245c565b908152602001604051809103902060009054906101000a900460ff1615610870576040517f08c379a0000000000000000000000000000000000000000000000000000000008152600401610867906124d0565b60405180910390fd5b8060200151610882826000015161150e565b146108c2576040517f08c379a00000000000000000000000000000000000000000000000000000000081526004016108b990612562565b60405180910390fd5b60006108d1826020015161151f565b905060006108e382846040015161154f565b9050826060015173ffffffffffffffffffffffffffffffffffffffff168173ffffffffffffffffffffffffffffffffffffffff1614610957576040517f08c379a000000000000000000000000000000000000000000000000000000000815260040161094e906125ce565b60405180910390fd5b6109618482610fbd565b6109a0576040517f08c379a00000000000000000000000000000000000000000000000000000000081526004016109979061263a565b60405180910390fd5b600085600001518060200190518101906109ba91906127ad565b90506109c7600382611576565b50600080600083606001518060200190518101906109e59190612940565b92509250925080600260008573ffffffffffffffffffffffffffffffffffffffff1673ffffffffffffffffffffffffffffffffffffffff168152602001908152602001600020600084815260200190815260200160002060006101000a81548160ff02191690836003811115610a5e57610a5d6122e3565b5b0217905550505050506001808460400151604051610a7c919061245c565b908152602001604051809103902060006101000a81548160ff0219169083151502179055505050505050565b6000801b8160018160400151604051610ac1919061245c565b908152602001604051809103902060009054906101000a900460ff1615610b1d576040517f08c379a0000000000000000000000000000000000000000000000000000000008152600401610b14906124d0565b60405180910390fd5b8060200151610b2f826000015161150e565b14610b6f576040517f08c379a0000000000000000000000000000000000000000000000000000000008152600401610b6690612562565b60405180910390fd5b6000610b7e826020015161151f565b90506000610b9082846040015161154f565b9050826060015173ffffffffffffffffffffffffffffffffffffffff168173ffffffffffffffffffffffffffffffffffffffff1614610c04576040517f08c379a0000000000000000000000000000000000000000000000000000000008152600401610bfb906125ce565b60405180910390fd5b610c0e8482610fbd565b610c4d576040517f08c379a0000000000000000000000000000000000000000000000000000000008152600401610c449061263a565b60405180910390fd5b60008560000151806020019051810190610c6791906127ad565b9050610c74600282611576565b506000808260600151806020019051810190610c909190612993565b9150915080600360008473ffffffffffffffffffffffffffffffffffffffff1673ffffffffffffffffffffffffffffffffffffffff16815260200190815260200160002060006101000a81548160ff02191690836003811115610cf657610cf56122e3565b5b02179055505050506001808460400151604051610d13919061245c565b908152602001604051809103902060006101000a81548160ff0219169083151502179055505050505050565b6000801b8160018160400151604051610d58919061245c565b908152602001604051809103902060009054906101000a900460ff1615610db4576040517f08c379a0000000000000000000000000000000000000000000000000000000008152600401610dab906124d0565b60405180910390fd5b8060200151610dc6826000015161150e565b14610e06576040517f08c379a0000000000000000000000000000000000000000000000000000000008152600401610dfd90612562565b60405180910390fd5b6000610e15826020015161151f565b90506000610e2782846040015161154f565b9050826060015173ffffffffffffffffffffffffffffffffffffffff168173ffffffffffffffffffffffffffffffffffffffff1614610e9b576040517f08c379a0000000000000000000000000000000000000000000000000000000008152600401610e92906125ce565b60405180910390fd5b610ea58482610fbd565b610ee4576040517f08c379a0000000000000000000000000000000000000000000000000000000008152600401610edb9061263a565b60405180910390fd5b60008560000151806020019051810190610efe91906127ad565b9050610f0b600182611576565b506000808260600151806020019051810190610f279190612849565b91509150610f35828261180b565b5050506001808460400151604051610f4d919061245c565b908152602001604051809103902060006101000a81548160ff0219169083151502179055505050505050565b7fa49807205ce4d355092ef5a8a18f56e8913cf4a201fbe287825b095693c2177581565b60036020528060005260406000206000915054906101000a900460ff1681565b600080600084815260200190815260200160002060000160008373ffffffffffffffffffffffffffffffffffffffff1673ffffffffffffffffffffffffffffffffffffffff16815260200190815260200160002060009054906101000a900460ff16905092915050565b7fe2f4eaae4a9751e85a3e4a7b9587827a877f29914755229b07a7b2da98285f7081565b6000801b81565b600080600260008573ffffffffffffffffffffffffffffffffffffffff1673ffffffffffffffffffffffffffffffffffffffff168152602001908152602001600020600084815260200190815260200160002060009054906101000a900460ff169050600060038111156110c9576110c86122e3565b5b8160038111156110dc576110db6122e3565b5b146110ea578091505061113b565b600360008573ffffffffffffffffffffffffffffffffffffffff1673ffffffffffffffffffffffffffffffffffffffff16815260200190815260200160002060009054906101000a900460ff169150505b92915050565b7f8502233096d909befbda0999bb8ea2f3a6be3c138b9fbf003752a4c8bce86f6c8160018160400151604051611177919061245c565b908152602001604051809103902060009054906101000a900460ff16156111d3576040517f08c379a00000000000000000000000000000000000000000000000000000000081526004016111ca906124d0565b60405180910390fd5b80602001516111e5826000015161150e565b14611225576040517f08c379a000000000000000000000000000000000000000000000000000000000815260040161121c90612562565b60405180910390fd5b6000611234826020015161151f565b9050600061124682846040015161154f565b9050826060015173ffffffffffffffffffffffffffffffffffffffff168173ffffffffffffffffffffffffffffffffffffffff16146112ba576040517f08c379a00000000000000000000000000000000000000000000000000000000081526004016112b1906125ce565b60405180910390fd5b6112c48482610fbd565b611303576040517f08c379a00000000000000000000000000000000000000000000000000000000081526004016112fa9061263a565b60405180910390fd5b6000856000015180602001905181019061131d91906127ad565b90506000806000806000856060015180602001905181019061133f9190612a11565b94509450945094509450611354600487611576565b508473ffffffffffffffffffffffffffffffffffffffff1663f242432a858585856040518563ffffffff1660e01b81526004016113949493929190612ae1565b600060405180830381600087803b1580156113ae57600080fd5b505af11580156113c2573d6000803e3d6000fd5b5050505050505050505060018084604001516040516113e1919061245c565b908152602001604051809103902060006101000a81548160ff0219169083151502179055505050505050565b6114168261071b565b61141f816117ef565b611429838361180b565b505050565b6000600380811115611443576114426122e3565b5b61144d8484611052565b600381111561145f5761145e6122e3565b5b14905092915050565b60026020528160005260406000206020528060005260406000206000915091509054906101000a900460ff1681565b6000600260038111156114ad576114ac6122e3565b5b6114b78484611052565b60038111156114c9576114c86122e3565b5b14905092915050565b6000600160038111156114e8576114e76122e3565b5b6114f28484611052565b6003811115611504576115036122e3565b5b1015905092915050565b600081805190602001209050919050565b6000816040516020016115329190612bb1565b604051602081830303815290604052805190602001209050919050565b600080600061155e85856118ec565b9150915061156b8161193d565b819250505092915050565b60003073ffffffffffffffffffffffffffffffffffffffff16826000015173ffffffffffffffffffffffffffffffffffffffff16146115ea576040517f08c379a00000000000000000000000000000000000000000000000000000000081526004016115e190612c23565b60405180910390fd5b4382602001511015611631576040517f08c379a000000000000000000000000000000000000000000000000000000000815260040161162890612c8f565b60405180910390fd5b826004811115611644576116436122e3565b5b8260400151600481111561165b5761165a6122e3565b5b1461169b576040517f08c379a000000000000000000000000000000000000000000000000000000000815260040161169290612cfb565b60405180910390fd5b6001905092915050565b6116af8282610fbd565b61178157600160008084815260200190815260200160002060000160008373ffffffffffffffffffffffffffffffffffffffff1673ffffffffffffffffffffffffffffffffffffffff16815260200190815260200160002060006101000a81548160ff021916908315150217905550611726611803565b73ffffffffffffffffffffffffffffffffffffffff168173ffffffffffffffffffffffffffffffffffffffff16837f2f8788117e7eff1d82e926ec794901d17c78024a50270940304540a733656f0d60405160405180910390a45b5050565b60007f01ffc9a7000000000000000000000000000000000000000000000000000000007bffffffffffffffffffffffffffffffffffffffffffffffffffffffff1916827bffffffffffffffffffffffffffffffffffffffffffffffffffffffff1916149050919050565b611800816117fb611803565b611aa3565b50565b600033905090565b6118158282610fbd565b156118e857600080600084815260200190815260200160002060000160008373ffffffffffffffffffffffffffffffffffffffff1673ffffffffffffffffffffffffffffffffffffffff16815260200190815260200160002060006101000a81548160ff02191690831515021790555061188d611803565b73ffffffffffffffffffffffffffffffffffffffff168173ffffffffffffffffffffffffffffffffffffffff16837ff6391f5c32d9c69d2a47ea670b442974b53935d1edc7fd64eb21e047a839171b60405160405180910390a45b5050565b600080604183510361192d5760008060006020860151925060408601519150606086015160001a905061192187828585611b28565b94509450505050611936565b60006002915091505b9250929050565b60006004811115611951576119506122e3565b5b816004811115611964576119636122e3565b5b0315611aa0576001600481111561197e5761197d6122e3565b5b816004811115611991576119906122e3565b5b036119d1576040517f08c379a00000000000000000000000000000000000000000000000000000000081526004016119c890612d67565b60405180910390fd5b600260048111156119e5576119e46122e3565b5b8160048111156119f8576119f76122e3565b5b03611a38576040517f08c379a0000000000000000000000000000000000000000000000000000000008152600401611a2f90612dd3565b60405180910390fd5b60036004811115611a4c57611a4b6122e3565b5b816004811115611a5f57611a5e6122e3565b5b03611a9f576040517f08c379a0000000000000000000000000000000000000000000000000000000008152600401611a9690612e65565b60405180910390fd5b5b50565b611aad8282610fbd565b611b2457611aba81611c0a565b611ac88360001c6020611c37565b604051602001611ad9929190612f59565b6040516020818303038152906040526040517f08c379a0000000000000000000000000000000000000000000000000000000008152600401611b1b9190612fcc565b60405180910390fd5b5050565b6000807f7fffffffffffffffffffffffffffffff5d576e7357a4501ddfe92f46681b20a08360001c1115611b63576000600391509150611c01565b600060018787878760405160008152602001604052604051611b88949392919061300a565b6020604051602081039080840390855afa158015611baa573d6000803e3d6000fd5b505050602060405103519050600073ffffffffffffffffffffffffffffffffffffffff168173ffffffffffffffffffffffffffffffffffffffff1603611bf857600060019250925050611c01565b80600092509250505b94509492505050565b6060611c308273ffffffffffffffffffffffffffffffffffffffff16601460ff16611c37565b9050919050565b606060006002836002611c4a919061307e565b611c5491906130c0565b67ffffffffffffffff811115611c6d57611c6c611e9d565b5b6040519080825280601f01601f191660200182016040528015611c9f5781602001600182028036833780820191505090505b5090507f300000000000000000000000000000000000000000000000000000000000000081600081518110611cd757611cd66130f4565b5b60200101907effffffffffffffffffffffffffffffffffffffffffffffffffffffffffffff1916908160001a9053507f780000000000000000000000000000000000000000000000000000000000000081600181518110611d3b57611d3a6130f4565b5b60200101907effffffffffffffffffffffffffffffffffffffffffffffffffffffffffffff1916908160001a90535060006001846002611d7b919061307e565b611d8591906130c0565b90505b6001811115611e25577f3031323334353637383961626364656600000000000000000000000000000000600f861660108110611dc757611dc66130f4565b5b1a60f81b828281518110611dde57611ddd6130f4565b5b60200101907effffffffffffffffffffffffffffffffffffffffffffffffffffffffffffff1916908160001a905350600485901c945080611e1e90613123565b9050611d88565b5060008414611e69576040517f08c379a0000000000000000000000000000000000000000000000000000000008152600401611e6090613198565b60405180910390fd5b8091505092915050565b6000604051905090565b600080fd5b600080fd5b600080fd5b6000601f19601f8301169050919050565b7f4e487b7100000000000000000000000000000000000000000000000000000000600052604160045260246000fd5b611ed582611e8c565b810181811067ffffffffffffffff82111715611ef457611ef3611e9d565b5b80604052505050565b6000611f07611e73565b9050611f138282611ecc565b919050565b600080fd5b600080fd5b600080fd5b600067ffffffffffffffff821115611f4257611f41611e9d565b5b611f4b82611e8c565b9050602081019050919050565b82818337600083830152505050565b6000611f7a611f7584611f27565b611efd565b905082815260208101848484011115611f9657611f95611f22565b5b611fa1848285611f58565b509392505050565b600082601f830112611fbe57611fbd611f1d565b5b8135611fce848260208601611f67565b91505092915050565b6000819050919050565b611fea81611fd7565b8114611ff557600080fd5b50565b60008135905061200781611fe1565b92915050565b600073ffffffffffffffffffffffffffffffffffffffff82169050919050565b60006120388261200d565b9050919050565b6120488161202d565b811461205357600080fd5b50565b6000813590506120658161203f565b92915050565b60006080828403121561208157612080611e87565b5b61208b6080611efd565b9050600082013567ffffffffffffffff8111156120ab576120aa611f18565b5b6120b784828501611fa9565b60008301525060206120cb84828501611ff8565b602083015250604082013567ffffffffffffffff8111156120ef576120ee611f18565b5b6120fb84828501611fa9565b604083015250606061210f84828501612056565b60608301525092915050565b60006020828403121561213157612130611e7d565b5b600082013567ffffffffffffffff81111561214f5761214e611e82565b5b61215b8482850161206b565b91505092915050565b60007fffffffff0000000000000000000000000000000000000000000000000000000082169050919050565b61219981612164565b81146121a457600080fd5b50565b6000813590506121b681612190565b92915050565b6000602082840312156121d2576121d1611e7d565b5b60006121e0848285016121a7565b91505092915050565b60008115159050919050565b6121fe816121e9565b82525050565b600060208201905061221960008301846121f5565b92915050565b61222881611fd7565b82525050565b6000602082019050612243600083018461221f565b92915050565b60006020828403121561225f5761225e611e7d565b5b600061226d84828501611ff8565b91505092915050565b6000806040838503121561228d5761228c611e7d565b5b600061229b85828601611ff8565b92505060206122ac85828601612056565b9150509250929050565b6000602082840312156122cc576122cb611e7d565b5b60006122da84828501612056565b91505092915050565b7f4e487b7100000000000000000000000000000000000000000000000000000000600052602160045260246000fd5b60048110612323576123226122e3565b5b50565b600081905061233482612312565b919050565b600061234482612326565b9050919050565b61235481612339565b82525050565b600060208201905061236f600083018461234b565b92915050565b6000819050919050565b61238881612375565b811461239357600080fd5b50565b6000813590506123a58161237f565b92915050565b600080604083850312156123c2576123c1611e7d565b5b60006123d085828601612056565b92505060206123e185828601612396565b9150509250929050565b600081519050919050565b600081905092915050565b60005b8381101561241f578082015181840152602081019050612404565b60008484015250505050565b6000612436826123eb565b61244081856123f6565b9350612450818560208601612401565b80840191505092915050565b6000612468828461242b565b915081905092915050565b600082825260208201905092915050565b7f5369676e617475726520616c7265616479207573656400000000000000000000600082015250565b60006124ba601683612473565b91506124c582612484565b602082019050919050565b600060208201905081810360008301526124e9816124ad565b9050919050565b7f546865206d657373616765206861736820646f65736e2774206d61746368207460008201527f6865206f726967696e616c210000000000000000000000000000000000000000602082015250565b600061254c602c83612473565b9150612557826124f0565b604082019050919050565b6000602082019050818103600083015261257b8161253f565b9050919050565b7f496e76616c6964207369676e6572000000000000000000000000000000000000600082015250565b60006125b8600e83612473565b91506125c382612582565b602082019050919050565b600060208201905081810360008301526125e7816125ab565b9050919050565b7f556e617574686f72697a65640000000000000000000000000000000000000000600082015250565b6000612624600c83612473565b915061262f826125ee565b602082019050919050565b6000602082019050818103600083015261265381612617565b9050919050565b6000815190506126698161203f565b92915050565b60008151905061267e8161237f565b92915050565b6005811061269157600080fd5b50565b6000815190506126a381612684565b92915050565b60006126bc6126b784611f27565b611efd565b9050828152602081018484840111156126d8576126d7611f22565b5b6126e3848285612401565b509392505050565b600082601f830112612700576126ff611f1d565b5b81516127108482602086016126a9565b91505092915050565b60006080828403121561272f5761272e611e87565b5b6127396080611efd565b905060006127498482850161265a565b600083015250602061275d8482850161266f565b602083015250604061277184828501612694565b604083015250606082015167ffffffffffffffff81111561279557612794611f18565b5b6127a1848285016126eb565b60608301525092915050565b6000602082840312156127c3576127c2611e7d565b5b600082015167ffffffffffffffff8111156127e1576127e0611e82565b5b6127ed84828501612719565b91505092915050565b60008151905061280581611fe1565b92915050565b60006128168261200d565b9050919050565b6128268161280b565b811461283157600080fd5b50565b6000815190506128438161281d565b92915050565b600080604083850312156128605761285f611e7d565b5b600061286e858286016127f6565b925050602061287f85828601612834565b9150509250929050565b7f416363657373436f6e74726f6c3a2063616e206f6e6c792072656e6f756e636560008201527f20726f6c657320666f722073656c660000000000000000000000000000000000602082015250565b60006128e5602f83612473565b91506128f082612889565b604082019050919050565b60006020820190508181036000830152612914816128d8565b9050919050565b6004811061292857600080fd5b50565b60008151905061293a8161291b565b92915050565b60008060006060848603121561295957612958611e7d565b5b600061296786828701612834565b93505060206129788682870161266f565b92505060406129898682870161292b565b9150509250925092565b600080604083850312156129aa576129a9611e7d565b5b60006129b885828601612834565b92505060206129c98582860161292b565b9150509250929050565b60006129de8261202d565b9050919050565b6129ee816129d3565b81146129f957600080fd5b50565b600081519050612a0b816129e5565b92915050565b600080600080600060a08688031215612a2d57612a2c611e7d565b5b6000612a3b888289016129fc565b9550506020612a4c88828901612834565b9450506040612a5d88828901612834565b9350506060612a6e8882890161266f565b9250506080612a7f8882890161266f565b9150509295509295909350565b612a958161202d565b82525050565b612aa481612375565b82525050565b600082825260208201905092915050565b50565b6000612acb600083612aaa565b9150612ad682612abb565b600082019050919050565b600060a082019050612af66000830187612a8c565b612b036020830186612a8c565b612b106040830185612a9b565b612b1d6060830184612a9b565b8181036080830152612b2e81612abe565b905095945050505050565b600081905092915050565b7f19457468657265756d205369676e6564204d6573736167653a0a333200000000600082015250565b6000612b7a601c83612b39565b9150612b8582612b44565b601c82019050919050565b6000819050919050565b612bab612ba682611fd7565b612b90565b82525050565b6000612bbc82612b6d565b9150612bc88284612b9a565b60208201915081905092915050565b7f546172676574206164647265737320646f65736e2774206d6174636800000000600082015250565b6000612c0d601c83612473565b9150612c1882612bd7565b602082019050919050565b60006020820190508181036000830152612c3c81612c00565b9050919050565b7f4d65737361646520697320657870697265640000000000000000000000000000600082015250565b6000612c79601283612473565b9150612c8482612c43565b602082019050919050565b60006020820190508181036000830152612ca881612c6c565b9050919050565b7f46756e6374696f6e206e616d6520646f65736e2774206d617463680000000000600082015250565b6000612ce5601b83612473565b9150612cf082612caf565b602082019050919050565b60006020820190508181036000830152612d1481612cd8565b9050919050565b7f45434453413a20696e76616c6964207369676e61747572650000000000000000600082015250565b6000612d51601883612473565b9150612d5c82612d1b565b602082019050919050565b60006020820190508181036000830152612d8081612d44565b9050919050565b7f45434453413a20696e76616c6964207369676e6174757265206c656e67746800600082015250565b6000612dbd601f83612473565b9150612dc882612d87565b602082019050919050565b60006020820190508181036000830152612dec81612db0565b9050919050565b7f45434453413a20696e76616c6964207369676e6174757265202773272076616c60008201527f7565000000000000000000000000000000000000000000000000000000000000602082015250565b6000612e4f602283612473565b9150612e5a82612df3565b604082019050919050565b60006020820190508181036000830152612e7e81612e42565b9050919050565b7f416363657373436f6e74726f6c3a206163636f756e7420000000000000000000600082015250565b6000612ebb601783612b39565b9150612ec682612e85565b601782019050919050565b600081519050919050565b6000612ee782612ed1565b612ef18185612b39565b9350612f01818560208601612401565b80840191505092915050565b7f206973206d697373696e6720726f6c6520000000000000000000000000000000600082015250565b6000612f43601183612b39565b9150612f4e82612f0d565b601182019050919050565b6000612f6482612eae565b9150612f708285612edc565b9150612f7b82612f36565b9150612f878284612edc565b91508190509392505050565b6000612f9e82612ed1565b612fa88185612473565b9350612fb8818560208601612401565b612fc181611e8c565b840191505092915050565b60006020820190508181036000830152612fe68184612f93565b905092915050565b600060ff82169050919050565b61300481612fee565b82525050565b600060808201905061301f600083018761221f565b61302c6020830186612ffb565b613039604083018561221f565b613046606083018461221f565b95945050505050565b7f4e487b7100000000000000000000000000000000000000000000000000000000600052601160045260246000fd5b600061308982612375565b915061309483612375565b92508282026130a281612375565b915082820484148315176130b9576130b861304f565b5b5092915050565b60006130cb82612375565b91506130d683612375565b92508282019050808211156130ee576130ed61304f565b5b92915050565b7f4e487b7100000000000000000000000000000000000000000000000000000000600052603260045260246000fd5b600061312e82612375565b9150600082036131415761314061304f565b5b600182039050919050565b7f537472696e67733a20686578206c656e67746820696e73756666696369656e74600082015250565b6000613182602083612473565b915061318d8261314c565b602082019050919050565b600060208201905081810360008301526131b181613175565b905091905056fea26469706673582212208380f06fec60fd03de59fa4969c0e060536af7e37ef99772aa01d29dfc99716564736f6c63430008130033a2646970667358221220c10d1228285a03015f1647e743cd5f749711067a03d96ac68731bf5afb84c3c964736f6c63430008130033",
  "linkReferences": {},
  "deployedLinkReferences": {}
}