{
  "_format": "hh-sol-artifact-1",
  "contractName": "OrganizationFactory",
  "sourceName": "contracts/OrganizationFactory.sol",
  "abi": [
    {
      "inputs": [
        {
          "internalType": "address",
          "name": "_paymaster",
          "type": "address"
        }
      ],
      "stateMutability": "nonpayable",
      "type": "constructor"
    },
    {
      "anonymous": false,
      "inputs": [
        {
          "indexed": true,
          "internalType": "address",
          "name": "creator",
          "type": "address"
        },
        {
          "indexed": true,
          "internalType": "address",
          "name": "organization",
          "type": "address"
        }
      ],
      "name": "OrganizationCreated",
      "type": "event"
    },
    {
      "anonymous": false,
      "inputs": [
        {
          "indexed": true,
          "internalType": "bytes32",
          "name": "role",
          "type": "bytes32"
        },
        {
          "indexed": true,
          "internalType": "bytes32",
          "name": "previousAdminRole",
          "type": "bytes32"
        },
        {
          "indexed": true,
          "internalType": "bytes32",
          "name": "newAdminRole",
          "type": "bytes32"
        }
      ],
      "name": "RoleAdminChanged",
      "type": "event"
    },
    {
      "anonymous": false,
      "inputs": [
        {
          "indexed": true,
          "internalType": "bytes32",
          "name": "role",
          "type": "bytes32"
        },
        {
          "indexed": true,
          "internalType": "address",
          "name": "account",
          "type": "address"
        },
        {
          "indexed": true,
          "internalType": "address",
          "name": "sender",
          "type": "address"
        }
      ],
      "name": "RoleGranted",
      "type": "event"
    },
    {
      "anonymous": false,
      "inputs": [
        {
          "indexed": true,
          "internalType": "bytes32",
          "name": "role",
          "type": "bytes32"
        },
        {
          "indexed": true,
          "internalType": "address",
          "name": "account",
          "type": "address"
        },
        {
          "indexed": true,
          "internalType": "address",
          "name": "sender",
          "type": "address"
        }
      ],
      "name": "RoleRevoked",
      "type": "event"
    },
    {
      "inputs": [],
      "name": "ADMIN_ROLE",
      "outputs": [
        {
          "internalType": "bytes32",
          "name": "",
          "type": "bytes32"
        }
      ],
      "stateMutability": "view",
      "type": "function"
    },
    {
      "inputs": [],
      "name": "DEFAULT_ADMIN_ROLE",
      "outputs": [
        {
          "internalType": "bytes32",
          "name": "",
          "type": "bytes32"
        }
      ],
      "stateMutability": "view",
      "type": "function"
    },
    {
      "inputs": [],
      "name": "PayMaster",
      "outputs": [
        {
          "internalType": "address",
          "name": "",
          "type": "address"
        }
      ],
      "stateMutability": "view",
      "type": "function"
    },
    {
      "inputs": [
        {
          "components": [
            {
              "internalType": "bytes",
              "name": "encodedMessage",
              "type": "bytes"
            },
            {
              "internalType": "bytes32",
              "name": "messageHash",
              "type": "bytes32"
            },
            {
              "internalType": "bytes",
              "name": "signature",
              "type": "bytes"
            },
            {
              "internalType": "address",
              "name": "signer",
              "type": "address"
            }
          ],
          "internalType": "struct SignatureVerifier.Signature",
          "name": "signature",
          "type": "tuple"
        },
        {
          "internalType": "address",
          "name": "_admin",
          "type": "address"
        }
      ],
      "name": "createOrganization",
      "outputs": [
        {
          "internalType": "address",
          "name": "",
          "type": "address"
        }
      ],
      "stateMutability": "nonpayable",
      "type": "function"
    },
    {
      "inputs": [
        {
          "internalType": "uint256",
          "name": "index",
          "type": "uint256"
        }
      ],
      "name": "getOrganization",
      "outputs": [
        {
          "internalType": "address",
          "name": "",
          "type": "address"
        }
      ],
      "stateMutability": "view",
      "type": "function"
    },
    {
      "inputs": [],
      "name": "getOrganizationCount",
      "outputs": [
        {
          "internalType": "uint256",
          "name": "",
          "type": "uint256"
        }
      ],
      "stateMutability": "view",
      "type": "function"
    },
    {
      "inputs": [
        {
          "internalType": "bytes32",
          "name": "role",
          "type": "bytes32"
        }
      ],
      "name": "getRoleAdmin",
      "outputs": [
        {
          "internalType": "bytes32",
          "name": "",
          "type": "bytes32"
        }
      ],
      "stateMutability": "view",
      "type": "function"
    },
    {
      "inputs": [
        {
          "internalType": "bytes32",
          "name": "role",
          "type": "bytes32"
        },
        {
          "internalType": "address",
          "name": "account",
          "type": "address"
        }
      ],
      "name": "grantRole",
      "outputs": [],
      "stateMutability": "nonpayable",
      "type": "function"
    },
    {
      "inputs": [
        {
          "components": [
            {
              "internalType": "bytes",
              "name": "encodedMessage",
              "type": "bytes"
            },
            {
              "internalType": "bytes32",
              "name": "messageHash",
              "type": "bytes32"
            },
            {
              "internalType": "bytes",
              "name": "signature",
              "type": "bytes"
            },
            {
              "internalType": "address",
              "name": "signer",
              "type": "address"
            }
          ],
          "internalType": "struct SignatureVerifier.Signature",
          "name": "signature",
          "type": "tuple"
        },
        {
          "internalType": "bytes32",
          "name": "role",
          "type": "bytes32"
        },
        {
          "internalType": "address",
          "name": "account",
          "type": "address"
        }
      ],
      "name": "grantRole",
      "outputs": [],
      "stateMutability": "nonpayable",
      "type": "function"
    },
    {
      "inputs": [
        {
          "internalType": "bytes32",
          "name": "role",
          "type": "bytes32"
        },
        {
          "internalType": "address",
          "name": "account",
          "type": "address"
        }
      ],
      "name": "hasRole",
      "outputs": [
        {
          "internalType": "bool",
          "name": "",
          "type": "bool"
        }
      ],
      "stateMutability": "view",
      "type": "function"
    },
    {
      "inputs": [
        {
          "internalType": "uint256",
          "name": "",
          "type": "uint256"
        }
      ],
      "name": "organizations",
      "outputs": [
        {
          "internalType": "address",
          "name": "",
          "type": "address"
        }
      ],
      "stateMutability": "view",
      "type": "function"
    },
    {
      "inputs": [
        {
          "internalType": "bytes32",
          "name": "role",
          "type": "bytes32"
        },
        {
          "internalType": "address",
          "name": "account",
          "type": "address"
        }
      ],
      "name": "renounceRole",
      "outputs": [],
      "stateMutability": "nonpayable",
      "type": "function"
    },
    {
      "inputs": [
        {
          "components": [
            {
              "internalType": "bytes",
              "name": "encodedMessage",
              "type": "bytes"
            },
            {
              "internalType": "bytes32",
              "name": "messageHash",
              "type": "bytes32"
            },
            {
              "internalType": "bytes",
              "name": "signature",
              "type": "bytes"
            },
            {
              "internalType": "address",
              "name": "signer",
              "type": "address"
            }
          ],
          "internalType": "struct SignatureVerifier.Signature",
          "name": "signature",
          "type": "tuple"
        },
        {
          "internalType": "bytes32",
          "name": "role",
          "type": "bytes32"
        },
        {
          "internalType": "address",
          "name": "account",
          "type": "address"
        }
      ],
      "name": "revokeRole",
      "outputs": [],
      "stateMutability": "nonpayable",
      "type": "function"
    },
    {
      "inputs": [
        {
          "internalType": "bytes32",
          "name": "role",
          "type": "bytes32"
        },
        {
          "internalType": "address",
          "name": "account",
          "type": "address"
        }
      ],
      "name": "revokeRole",
      "outputs": [],
      "stateMutability": "nonpayable",
      "type": "function"
    },
    {
      "inputs": [
        {
          "components": [
            {
              "internalType": "bytes",
              "name": "encodedMessage",
              "type": "bytes"
            },
            {
              "internalType": "bytes32",
              "name": "messageHash",
              "type": "bytes32"
            },
            {
              "internalType": "bytes",
              "name": "signature",
              "type": "bytes"
            },
            {
              "internalType": "address",
              "name": "signer",
              "type": "address"
            }
          ],
          "internalType": "struct SignatureVerifier.Signature",
          "name": "signature",
          "type": "tuple"
        },
        {
          "internalType": "address",
          "name": "_paymaster",
          "type": "address"
        }
      ],
      "name": "setPayMaster",
      "outputs": [],
      "stateMutability": "nonpayable",
      "type": "function"
    },
    {
      "inputs": [
        {
          "internalType": "bytes4",
          "name": "interfaceId",
          "type": "bytes4"
        }
      ],
      "name": "supportsInterface",
      "outputs": [
        {
          "internalType": "bool",
          "name": "",
          "type": "bool"
        }
      ],
      "stateMutability": "view",
      "type": "function"
    }
  ],
  "bytecode": "0x60806040523480156200001157600080fd5b50604051620040543803806200405483398101604081905262000034916200013f565b600180546001600160a01b0319166001600160a01b0383161790556200005c6000336200008f565b620000887fa49807205ce4d355092ef5a8a18f56e8913cf4a201fbe287825b095693c21775336200008f565b5062000171565b6200009b82826200009f565b5050565b6000828152602081815260408083206001600160a01b038516845290915290205460ff166200009b576000828152602081815260408083206001600160a01b03851684529091529020805460ff19166001179055620000fb3390565b6001600160a01b0316816001600160a01b0316837f2f8788117e7eff1d82e926ec794901d17c78024a50270940304540a733656f0d60405160405180910390a45050565b6000602082840312156200015257600080fd5b81516001600160a01b03811681146200016a57600080fd5b9392505050565b613ed380620001816000396000f3fe60806040523480156200001157600080fd5b5060043610620001155760003560e01c806375b238fc11620000a3578063a217fddf116200006e578063a217fddf146200029f578063d547741f14620002a8578063e792dd8a14620002bf578063f4d8e6ec14620002d657600080fd5b806375b238fc14620002125780638c6280db146200023a57806391d148541462000251578063a0f07c0e146200028b57600080fd5b806336568abe11620000e457806336568abe14620001c45780634526f69014620001db5780635734e5e314620001f257806360c0170e14620001fb57600080fd5b806301ffc9a7146200011a578063246fd6d81462000146578063248a9ca314620001765780632f2ff15d14620001ab575b600080fd5b620001316200012b3660046200167f565b620002ed565b60405190151581526020015b60405180910390f35b6200015d6200015736600462001838565b62000387565b6040516001600160a01b0390911681526020016200013d565b6200019c6200018736600462001890565b60009081526020819052604090206001015490565b6040519081526020016200013d565b620001c2620001bc366004620018aa565b620006b7565b005b620001c2620001d5366004620018aa565b620006e5565b6200015d620001ec36600462001890565b62000775565b6002546200019c565b620001c26200020c366004620018d2565b620007fc565b6200019c7fa49807205ce4d355092ef5a8a18f56e8913cf4a201fbe287825b095693c2177581565b620001c26200024b366004620018d2565b62000a36565b6200013162000262366004620018aa565b6000918252602082815260408084206001600160a01b0393909316845291905290205460ff1690565b6001546200015d906001600160a01b031681565b6200019c600081565b620001c2620002b9366004620018aa565b62000c66565b6200015d620002d036600462001890565b62000c8f565b620001c2620002e736600462001838565b62000cba565b60007fffffffff0000000000000000000000000000000000000000000000000000000082167f7965db0b0000000000000000000000000000000000000000000000000000000014806200038157507f01ffc9a7000000000000000000000000000000000000000000000000000000007fffffffff000000000000000000000000000000000000000000000000000000008316145b92915050565b60007fa49807205ce4d355092ef5a8a18f56e8913cf4a201fbe287825b095693c21775838060200151620003c48260000151805160209091012090565b146200042c5760405162461bcd60e51b815260206004820152602c60248201527f546865206d657373616765206861736820646f65736e2774206d61746368207460448201526b6865206f726967696e616c2160a01b60648201526084015b60405180910390fd5b602080820151604080517f19457468657265756d205369676e6564204d6573736167653a0a33320000000081850152603c8082019390935281518082039093018352605c019052805191012060006200048a82846040015162000f3f565b905082606001516001600160a01b0316816001600160a01b031614620004e45760405162461bcd60e51b815260206004820152600e60248201526d24b73b30b634b21039b4b3b732b960911b604482015260640162000423565b336001600160a01b03821614806200050657506001546001600160a01b031633145b620005455760405162461bcd60e51b815260206004820152600e60248201526d24b73b30b634b21039b2b73232b960911b604482015260640162000423565b6000848152602081815260408083206001600160a01b038516845290915290205460ff16620005a65760405162461bcd60e51b815260206004820152600c60248201526b155b985d5d1a1bdc9a5e995960a21b604482015260640162000423565b60008360000151806020019051810190620005c2919062001933565b9050620005cf8162000f67565b506001546040516000916001600160a01b0316908990620005f09062001671565b6001600160a01b03928316815291166020820152604001604051809103906000f08015801562000624573d6000803e3d6000fd5b506002805460018101825560009182527f405787fa12a823e0f2b7631cc41b3ba8828b3321ca811111fa75cd3aa3bb5ace01805473ffffffffffffffffffffffffffffffffffffffff19166001600160a01b0384169081179091556040519293509133917f2725ca0bb6f842da395a595005373aaa8e052b21133359b3c75f59a1247e6e7a91a398975050505050505050565b600082815260208190526040902060010154620006d48162001023565b620006e0838362001032565b505050565b6001600160a01b0381163314620007655760405162461bcd60e51b815260206004820152602f60248201527f416363657373436f6e74726f6c3a2063616e206f6e6c792072656e6f756e636560448201527f20726f6c657320666f722073656c660000000000000000000000000000000000606482015260840162000423565b620007718282620010d2565b5050565b6002546000908210620007cb5760405162461bcd60e51b815260206004820152601360248201527f496e646578206f7574206f6620626f756e647300000000000000000000000000604482015260640162000423565b60028281548110620007e157620007e162001991565b6000918252602090912001546001600160a01b031692915050565b6020830151835160009185916200081890805160209091012090565b146200087c5760405162461bcd60e51b815260206004820152602c60248201527f546865206d657373616765206861736820646f65736e2774206d61746368207460448201526b6865206f726967696e616c2160a01b606482015260840162000423565b602080820151604080517f19457468657265756d205369676e6564204d6573736167653a0a33320000000081850152603c8082019390935281518082039093018352605c01905280519101206000620008da82846040015162000f3f565b905082606001516001600160a01b0316816001600160a01b031614620009345760405162461bcd60e51b815260206004820152600e60248201526d24b73b30b634b21039b4b3b732b960911b604482015260640162000423565b336001600160a01b03821614806200095657506001546001600160a01b031633145b620009955760405162461bcd60e51b815260206004820152600e60248201526d24b73b30b634b21039b2b73232b960911b604482015260640162000423565b6000848152602081815260408083206001600160a01b038516845290915290205460ff16620009f65760405162461bcd60e51b815260206004820152600c60248201526b155b985d5d1a1bdc9a5e995960a21b604482015260640162000423565b6000836000015180602001905181019062000a12919062001933565b905062000a1f8162000f67565b5062000a2c8787620010d2565b5050505050505050565b60208301518351600091859162000a5290805160209091012090565b1462000ab65760405162461bcd60e51b815260206004820152602c60248201527f546865206d657373616765206861736820646f65736e2774206d61746368207460448201526b6865206f726967696e616c2160a01b606482015260840162000423565b602080820151604080517f19457468657265756d205369676e6564204d6573736167653a0a33320000000081850152603c8082019390935281518082039093018352605c0190528051910120600062000b1482846040015162000f3f565b905082606001516001600160a01b0316816001600160a01b03161462000b6e5760405162461bcd60e51b815260206004820152600e60248201526d24b73b30b634b21039b4b3b732b960911b604482015260640162000423565b336001600160a01b038216148062000b9057506001546001600160a01b031633145b62000bcf5760405162461bcd60e51b815260206004820152600e60248201526d24b73b30b634b21039b2b73232b960911b604482015260640162000423565b6000848152602081815260408083206001600160a01b038516845290915290205460ff1662000c305760405162461bcd60e51b815260206004820152600c60248201526b155b985d5d1a1bdc9a5e995960a21b604482015260640162000423565b6000836000015180602001905181019062000c4c919062001933565b905062000c598162000f67565b5062000a2c878762001032565b60008281526020819052604090206001015462000c838162001023565b620006e08383620010d2565b6002818154811062000ca057600080fd5b6000918252602090912001546001600160a01b0316905081565b60208201518251600091849162000cd690805160209091012090565b1462000d3a5760405162461bcd60e51b815260206004820152602c60248201527f546865206d657373616765206861736820646f65736e2774206d61746368207460448201526b6865206f726967696e616c2160a01b606482015260840162000423565b602080820151604080517f19457468657265756d205369676e6564204d6573736167653a0a33320000000081850152603c8082019390935281518082039093018352605c0190528051910120600062000d9882846040015162000f3f565b905082606001516001600160a01b0316816001600160a01b03161462000df25760405162461bcd60e51b815260206004820152600e60248201526d24b73b30b634b21039b4b3b732b960911b604482015260640162000423565b336001600160a01b038216148062000e1457506001546001600160a01b031633145b62000e535760405162461bcd60e51b815260206004820152600e60248201526d24b73b30b634b21039b2b73232b960911b604482015260640162000423565b6000848152602081815260408083206001600160a01b038516845290915290205460ff1662000eb45760405162461bcd60e51b815260206004820152600c60248201526b155b985d5d1a1bdc9a5e995960a21b604482015260640162000423565b6000836000015180602001905181019062000ed0919062001933565b905062000edd8162000f67565b506000876000015180602001905181019062000efa919062001933565b905062000f078162000f67565b50506001805473ffffffffffffffffffffffffffffffffffffffff19166001600160a01b039790971696909617909555505050505050565b600080600062000f50858562001152565b9150915062000f5f816200119b565b509392505050565b80516000906001600160a01b0316301462000fc55760405162461bcd60e51b815260206004820152601c60248201527f546172676574206164647265737320646f65736e2774206d6174636800000000604482015260640162000423565b43826020015110156200101b5760405162461bcd60e51b815260206004820152601260248201527f4d65737361676520697320657870697265640000000000000000000000000000604482015260640162000423565b506001919050565b6200102f813362001313565b50565b6000828152602081815260408083206001600160a01b038516845290915290205460ff1662000771576000828152602081815260408083206001600160a01b03851684529091529020805460ff191660011790556200108e3390565b6001600160a01b0316816001600160a01b0316837f2f8788117e7eff1d82e926ec794901d17c78024a50270940304540a733656f0d60405160405180910390a45050565b6000828152602081815260408083206001600160a01b038516845290915290205460ff161562000771576000828152602081815260408083206001600160a01b0385168085529252808320805460ff1916905551339285917ff6391f5c32d9c69d2a47ea670b442974b53935d1edc7fd64eb21e047a839171b9190a45050565b60008082516041036200118c5760208301516040840151606085015160001a6200117f878285856200138f565b9450945050505062001194565b506000905060025b9250929050565b6000816004811115620011b257620011b2620019a7565b03620011bb5750565b6001816004811115620011d257620011d2620019a7565b03620012215760405162461bcd60e51b815260206004820152601860248201527f45434453413a20696e76616c6964207369676e61747572650000000000000000604482015260640162000423565b6002816004811115620012385762001238620019a7565b03620012875760405162461bcd60e51b815260206004820152601f60248201527f45434453413a20696e76616c6964207369676e6174757265206c656e67746800604482015260640162000423565b60038160048111156200129e576200129e620019a7565b036200102f5760405162461bcd60e51b815260206004820152602260248201527f45434453413a20696e76616c6964207369676e6174757265202773272076616c60448201527f7565000000000000000000000000000000000000000000000000000000000000606482015260840162000423565b6000828152602081815260408083206001600160a01b038516845290915290205460ff166200077157620013478162001458565b620013548360206200146b565b60405160200162001367929190620019e3565b60408051601f198184030181529082905262461bcd60e51b8252620004239160040162001a68565b6000807f7fffffffffffffffffffffffffffffff5d576e7357a4501ddfe92f46681b20a0831115620013c857506000905060036200144f565b6040805160008082526020820180845289905260ff881692820192909252606081018690526080810185905260019060a0016020604051602081039080840390855afa1580156200141d573d6000803e3d6000fd5b5050604051601f1901519150506001600160a01b03811662001448576000600192509250506200144f565b9150600090505b94509492505050565b6060620003816001600160a01b03831660145b606060006200147c83600262001ab3565b6200148990600262001acd565b67ffffffffffffffff811115620014a457620014a4620016c3565b6040519080825280601f01601f191660200182016040528015620014cf576020820181803683370190505b5090507f30000000000000000000000000000000000000000000000000000000000000008160008151811062001509576200150962001991565b60200101906001600160f81b031916908160001a9053507f78000000000000000000000000000000000000000000000000000000000000008160018151811062001557576200155762001991565b60200101906001600160f81b031916908160001a90535060006200157d84600262001ab3565b6200158a90600162001acd565b90505b600181111562001619577f303132333435363738396162636465660000000000000000000000000000000085600f1660108110620015cf57620015cf62001991565b1a60f81b828281518110620015e857620015e862001991565b60200101906001600160f81b031916908160001a90535060049490941c93620016118162001ae3565b90506200158d565b5083156200166a5760405162461bcd60e51b815260206004820181905260248201527f537472696e67733a20686578206c656e67746820696e73756666696369656e74604482015260640162000423565b9392505050565b6123a08062001afe83390190565b6000602082840312156200169257600080fd5b81357fffffffff00000000000000000000000000000000000000000000000000000000811681146200166a57600080fd5b634e487b7160e01b600052604160045260246000fd5b600082601f830112620016eb57600080fd5b813567ffffffffffffffff80821115620017095762001709620016c3565b604051601f8301601f19908116603f01168101908282118183101715620017345762001734620016c3565b816040528381528660208588010111156200174e57600080fd5b836020870160208301376000602085830101528094505050505092915050565b6001600160a01b03811681146200102f57600080fd5b6000608082840312156200179757600080fd5b6040516080810167ffffffffffffffff8282108183111715620017be57620017be620016c3565b816040528293508435915080821115620017d757600080fd5b620017e586838701620016d9565b83526020850135602084015260408501359150808211156200180657600080fd5b506200181585828601620016d9565b60408301525060608301356200182b816200176e565b6060919091015292915050565b600080604083850312156200184c57600080fd5b823567ffffffffffffffff8111156200186457600080fd5b620018728582860162001784565b925050602083013562001885816200176e565b809150509250929050565b600060208284031215620018a357600080fd5b5035919050565b60008060408385031215620018be57600080fd5b82359150602083013562001885816200176e565b600080600060608486031215620018e857600080fd5b833567ffffffffffffffff8111156200190057600080fd5b6200190e8682870162001784565b93505060208401359150604084013562001928816200176e565b809150509250925092565b6000604082840312156200194657600080fd5b6040516040810181811067ffffffffffffffff821117156200196c576200196c620016c3565b60405282516200197c816200176e565b81526020928301519281019290925250919050565b634e487b7160e01b600052603260045260246000fd5b634e487b7160e01b600052602160045260246000fd5b60005b83811015620019da578181015183820152602001620019c0565b50506000910152565b7f416363657373436f6e74726f6c3a206163636f756e742000000000000000000081526000835162001a1d816017850160208801620019bd565b7f206973206d697373696e6720726f6c6520000000000000000000000000000000601791840191820152835162001a5c816028840160208801620019bd565b01602801949350505050565b602081526000825180602084015262001a89816040850160208701620019bd565b601f01601f19169190910160400192915050565b634e487b7160e01b600052601160045260246000fd5b808202811582820484141762000381576200038162001a9d565b8082018082111562000381576200038162001a9d565b60008162001af55762001af562001a9d565b50600019019056fe60806040523480156200001157600080fd5b50604051620023a0380380620023a0833981016040819052620000349162000189565b600180546001600160a01b0319166001600160a01b0384161790556200005c600082620000bc565b620000887fa49807205ce4d355092ef5a8a18f56e8913cf4a201fbe287825b095693c2177582620000bc565b620000b47f8502233096d909befbda0999bb8ea2f3a6be3c138b9fbf003752a4c8bce86f6c82620000bc565b5050620001c1565b620000c88282620000cc565b5050565b6000828152602081815260408083206001600160a01b038516845290915290205460ff16620000c8576000828152602081815260408083206001600160a01b03851684529091529020805460ff19166001179055620001283390565b6001600160a01b0316816001600160a01b0316837f2f8788117e7eff1d82e926ec794901d17c78024a50270940304540a733656f0d60405160405180910390a45050565b80516001600160a01b03811681146200018457600080fd5b919050565b600080604083850312156200019d57600080fd5b620001a8836200016c565b9150620001b8602084016200016c565b90509250929050565b6121cf80620001d16000396000f3fe608060405234801561001057600080fd5b50600436106101825760003560e01c806391d14854116100d8578063d547741f1161008c578063f4d8e6ec11610066578063f4d8e6ec146103b6578063ff2ff6c9146103c9578063ffad9950146103dc57600080fd5b8063d547741f14610362578063e62092be14610375578063e9d79b0e1461038857600080fd5b8063a217fddf116100bd578063a217fddf14610334578063c0eb89b21461033c578063c1ddc1241461034f57600080fd5b806391d14854146102d2578063a0f07c0e1461030957600080fd5b806360c0170e1161013a5780638c6280db116101145780638c6280db1461027c5780638f28f50e1461028f57806390000c79146102bf57600080fd5b806360c0170e1461022f57806375b238fc1461024257806376db0fe51461026957600080fd5b8063248a9ca31161016b578063248a9ca3146101e45780632f2ff15d1461020757806336568abe1461021c57600080fd5b806301ffc9a714610187578063206b60f9146101af575b600080fd5b61019a610195366004611b83565b6103ef565b60405190151581526020015b60405180910390f35b6101d67f8502233096d909befbda0999bb8ea2f3a6be3c138b9fbf003752a4c8bce86f6c81565b6040519081526020016101a6565b6101d66101f2366004611bc5565b60009081526020819052604090206001015490565b61021a610215366004611bf3565b610488565b005b61021a61022a366004611bf3565b6104b2565b61021a61023d366004611d6e565b610543565b6101d67fa49807205ce4d355092ef5a8a18f56e8913cf4a201fbe287825b095693c2177581565b61021a610277366004611ddd565b61076b565b61021a61028a366004611d6e565b6109ee565b6102b261029d366004611e47565b60036020526000908152604090205460ff1681565b6040516101a69190611e7a565b61021a6102cd366004611ea2565b610c0c565b61019a6102e0366004611bf3565b6000918252602082815260408084206001600160a01b0393909316845291905290205460ff1690565b60015461031c906001600160a01b031681565b6040516001600160a01b0390911681526020016101a6565b6101d6600081565b6102b261034a366004611f02565b610e69565b61021a61035d366004611f2e565b610ed0565b61021a610370366004611bf3565b6111a8565b61019a610383366004611f02565b6111cd565b6102b2610396366004611f02565b600260209081526000928352604080842090915290825290205460ff1681565b61021a6103c4366004611fb5565b6111f5565b61019a6103d7366004611f02565b611471565b61019a6103ea366004611f02565b61147a565b60007fffffffff0000000000000000000000000000000000000000000000000000000082167f7965db0b00000000000000000000000000000000000000000000000000000000148061048257507f01ffc9a7000000000000000000000000000000000000000000000000000000007fffffffff000000000000000000000000000000000000000000000000000000008316145b92915050565b6000828152602081905260409020600101546104a3816114a2565b6104ad83836114af565b505050565b6001600160a01b03811633146105355760405162461bcd60e51b815260206004820152602f60248201527f416363657373436f6e74726f6c3a2063616e206f6e6c792072656e6f756e636560448201527f20726f6c657320666f722073656c66000000000000000000000000000000000060648201526084015b60405180910390fd5b61053f828261154d565b5050565b60208301518351600091859161055e90805160209091012090565b146105c05760405162461bcd60e51b815260206004820152602c60248201527f546865206d657373616765206861736820646f65736e2774206d61746368207460448201526b6865206f726967696e616c2160a01b606482015260840161052c565b602080820151604080517f19457468657265756d205369676e6564204d6573736167653a0a33320000000081850152603c8082019390935281518082039093018352605c0190528051910120600061061c8284604001516115cc565b905082606001516001600160a01b0316816001600160a01b0316146106745760405162461bcd60e51b815260206004820152600e60248201526d24b73b30b634b21039b4b3b732b960911b604482015260640161052c565b336001600160a01b038216148061069557506001546001600160a01b031633145b6106d25760405162461bcd60e51b815260206004820152600e60248201526d24b73b30b634b21039b2b73232b960911b604482015260640161052c565b6000848152602081815260408083206001600160a01b038516845290915290205460ff166107315760405162461bcd60e51b815260206004820152600c60248201526b155b985d5d1a1bdc9a5e995960a21b604482015260640161052c565b6000836000015180602001905181019061074b9190611ffc565b9050610756816115f0565b50610761878761154d565b5050505050505050565b7fa49807205ce4d355092ef5a8a18f56e8913cf4a201fbe287825b095693c217758480602001516107a58260000151805160209091012090565b146108075760405162461bcd60e51b815260206004820152602c60248201527f546865206d657373616765206861736820646f65736e2774206d61746368207460448201526b6865206f726967696e616c2160a01b606482015260840161052c565b602080820151604080517f19457468657265756d205369676e6564204d6573736167653a0a33320000000081850152603c8082019390935281518082039093018352605c019052805191012060006108638284604001516115cc565b905082606001516001600160a01b0316816001600160a01b0316146108bb5760405162461bcd60e51b815260206004820152600e60248201526d24b73b30b634b21039b4b3b732b960911b604482015260640161052c565b336001600160a01b03821614806108dc57506001546001600160a01b031633145b6109195760405162461bcd60e51b815260206004820152600e60248201526d24b73b30b634b21039b2b73232b960911b604482015260640161052c565b6000848152602081815260408083206001600160a01b038516845290915290205460ff166109785760405162461bcd60e51b815260206004820152600c60248201526b155b985d5d1a1bdc9a5e995960a21b604482015260640161052c565b600083600001518060200190518101906109929190611ffc565b905061099d816115f0565b506001600160a01b03881660009081526002602090815260408083208a84529091529020805487919060ff191660018360038111156109de576109de611e64565b0217905550505050505050505050565b602083015183516000918591610a0990805160209091012090565b14610a6b5760405162461bcd60e51b815260206004820152602c60248201527f546865206d657373616765206861736820646f65736e2774206d61746368207460448201526b6865206f726967696e616c2160a01b606482015260840161052c565b602080820151604080517f19457468657265756d205369676e6564204d6573736167653a0a33320000000081850152603c8082019390935281518082039093018352605c01905280519101206000610ac78284604001516115cc565b905082606001516001600160a01b0316816001600160a01b031614610b1f5760405162461bcd60e51b815260206004820152600e60248201526d24b73b30b634b21039b4b3b732b960911b604482015260640161052c565b336001600160a01b0382161480610b4057506001546001600160a01b031633145b610b7d5760405162461bcd60e51b815260206004820152600e60248201526d24b73b30b634b21039b2b73232b960911b604482015260640161052c565b6000848152602081815260408083206001600160a01b038516845290915290205460ff16610bdc5760405162461bcd60e51b815260206004820152600c60248201526b155b985d5d1a1bdc9a5e995960a21b604482015260640161052c565b60008360000151806020019051810190610bf69190611ffc565b9050610c01816115f0565b5061076187876114af565b602083015183516000918591610c2790805160209091012090565b14610c895760405162461bcd60e51b815260206004820152602c60248201527f546865206d657373616765206861736820646f65736e2774206d61746368207460448201526b6865206f726967696e616c2160a01b606482015260840161052c565b602080820151604080517f19457468657265756d205369676e6564204d6573736167653a0a33320000000081850152603c8082019390935281518082039093018352605c01905280519101206000610ce58284604001516115cc565b905082606001516001600160a01b0316816001600160a01b031614610d3d5760405162461bcd60e51b815260206004820152600e60248201526d24b73b30b634b21039b4b3b732b960911b604482015260640161052c565b336001600160a01b0382161480610d5e57506001546001600160a01b031633145b610d9b5760405162461bcd60e51b815260206004820152600e60248201526d24b73b30b634b21039b2b73232b960911b604482015260640161052c565b6000848152602081815260408083206001600160a01b038516845290915290205460ff16610dfa5760405162461bcd60e51b815260206004820152600c60248201526b155b985d5d1a1bdc9a5e995960a21b604482015260640161052c565b60008360000151806020019051810190610e149190611ffc565b9050610e1f816115f0565b506001600160a01b03871660009081526003602081905260409091208054889260ff19909116906001908490811115610e5a57610e5a611e64565b02179055505050505050505050565b6001600160a01b038216600090815260026020908152604080832084845290915281205460ff1681816003811115610ea357610ea3611e64565b14610eaf579050610482565b5050506001600160a01b031660009081526003602052604090205460ff1690565b7f8502233096d909befbda0999bb8ea2f3a6be3c138b9fbf003752a4c8bce86f6c868060200151610f0a8260000151805160209091012090565b14610f6c5760405162461bcd60e51b815260206004820152602c60248201527f546865206d657373616765206861736820646f65736e2774206d61746368207460448201526b6865206f726967696e616c2160a01b606482015260840161052c565b602080820151604080517f19457468657265756d205369676e6564204d6573736167653a0a33320000000081850152603c8082019390935281518082039093018352605c01905280519101206000610fc88284604001516115cc565b905082606001516001600160a01b0316816001600160a01b0316146110205760405162461bcd60e51b815260206004820152600e60248201526d24b73b30b634b21039b4b3b732b960911b604482015260640161052c565b336001600160a01b038216148061104157506001546001600160a01b031633145b61107e5760405162461bcd60e51b815260206004820152600e60248201526d24b73b30b634b21039b2b73232b960911b604482015260640161052c565b6000848152602081815260408083206001600160a01b038516845290915290205460ff166110dd5760405162461bcd60e51b815260206004820152600c60248201526b155b985d5d1a1bdc9a5e995960a21b604482015260640161052c565b600083600001518060200190518101906110f79190611ffc565b9050611102816115f0565b506040517ff242432a0000000000000000000000000000000000000000000000000000000081526001600160a01b038a811660048301528981166024830152604482018990526064820188905260a06084830152600060a48301528b169063f242432a9060c401600060405180830381600087803b15801561118357600080fd5b505af1158015611197573d6000803e3d6000fd5b505050505050505050505050505050565b6000828152602081905260409020600101546111c3816114a2565b6104ad838361154d565b600060035b6111dc8484610e69565b60038111156111ed576111ed611e64565b149392505050565b60208201518251600091849161121090805160209091012090565b146112725760405162461bcd60e51b815260206004820152602c60248201527f546865206d657373616765206861736820646f65736e2774206d61746368207460448201526b6865206f726967696e616c2160a01b606482015260840161052c565b602080820151604080517f19457468657265756d205369676e6564204d6573736167653a0a33320000000081850152603c8082019390935281518082039093018352605c019052805191012060006112ce8284604001516115cc565b905082606001516001600160a01b0316816001600160a01b0316146113265760405162461bcd60e51b815260206004820152600e60248201526d24b73b30b634b21039b4b3b732b960911b604482015260640161052c565b336001600160a01b038216148061134757506001546001600160a01b031633145b6113845760405162461bcd60e51b815260206004820152600e60248201526d24b73b30b634b21039b2b73232b960911b604482015260640161052c565b6000848152602081815260408083206001600160a01b038516845290915290205460ff166113e35760405162461bcd60e51b815260206004820152600c60248201526b155b985d5d1a1bdc9a5e995960a21b604482015260640161052c565b600083600001518060200190518101906113fd9190611ffc565b9050611408816115f0565b50600087600001518060200190518101906114239190611ffc565b905061142e816115f0565b5050600180547fffffffffffffffffffffffff0000000000000000000000000000000000000000166001600160a01b039790971696909617909555505050505050565b600060026111d2565b600060016114888484610e69565b600381111561149957611499611e64565b10159392505050565b6114ac81336116a8565b50565b6000828152602081815260408083206001600160a01b038516845290915290205460ff1661053f576000828152602081815260408083206001600160a01b03851684529091529020805460ff191660011790556115093390565b6001600160a01b0316816001600160a01b0316837f2f8788117e7eff1d82e926ec794901d17c78024a50270940304540a733656f0d60405160405180910390a45050565b6000828152602081815260408083206001600160a01b038516845290915290205460ff161561053f576000828152602081815260408083206001600160a01b0385168085529252808320805460ff1916905551339285917ff6391f5c32d9c69d2a47ea670b442974b53935d1edc7fd64eb21e047a839171b9190a45050565b60008060006115db858561171b565b915091506115e881611760565b509392505050565b80516000906001600160a01b0316301461164c5760405162461bcd60e51b815260206004820152601c60248201527f546172676574206164647265737320646f65736e2774206d6174636800000000604482015260640161052c565b43826020015110156116a05760405162461bcd60e51b815260206004820152601260248201527f4d65737361676520697320657870697265640000000000000000000000000000604482015260640161052c565b506001919050565b6000828152602081815260408083206001600160a01b038516845290915290205460ff1661053f576116d9816118c5565b6116e48360206118d7565b6040516020016116f5929190612078565b60408051601f198184030181529082905262461bcd60e51b825261052c916004016120f9565b60008082516041036117515760208301516040840151606085015160001a61174587828585611abf565b94509450505050611759565b506000905060025b9250929050565b600081600481111561177457611774611e64565b0361177c5750565b600181600481111561179057611790611e64565b036117dd5760405162461bcd60e51b815260206004820152601860248201527f45434453413a20696e76616c6964207369676e61747572650000000000000000604482015260640161052c565b60028160048111156117f1576117f1611e64565b0361183e5760405162461bcd60e51b815260206004820152601f60248201527f45434453413a20696e76616c6964207369676e6174757265206c656e67746800604482015260640161052c565b600381600481111561185257611852611e64565b036114ac5760405162461bcd60e51b815260206004820152602260248201527f45434453413a20696e76616c6964207369676e6174757265202773272076616c60448201527f7565000000000000000000000000000000000000000000000000000000000000606482015260840161052c565b60606104826001600160a01b03831660145b606060006118e6836002612142565b6118f1906002612159565b67ffffffffffffffff81111561190957611909611c23565b6040519080825280601f01601f191660200182016040528015611933576020820181803683370190505b5090507f30000000000000000000000000000000000000000000000000000000000000008160008151811061196a5761196a61216c565b60200101906001600160f81b031916908160001a9053507f7800000000000000000000000000000000000000000000000000000000000000816001815181106119b5576119b561216c565b60200101906001600160f81b031916908160001a90535060006119d9846002612142565b6119e4906001612159565b90505b6001811115611a69577f303132333435363738396162636465660000000000000000000000000000000085600f1660108110611a2557611a2561216c565b1a60f81b828281518110611a3b57611a3b61216c565b60200101906001600160f81b031916908160001a90535060049490941c93611a6281612182565b90506119e7565b508315611ab85760405162461bcd60e51b815260206004820181905260248201527f537472696e67733a20686578206c656e67746820696e73756666696369656e74604482015260640161052c565b9392505050565b6000807f7fffffffffffffffffffffffffffffff5d576e7357a4501ddfe92f46681b20a0831115611af65750600090506003611b7a565b6040805160008082526020820180845289905260ff881692820192909252606081018690526080810185905260019060a0016020604051602081039080840390855afa158015611b4a573d6000803e3d6000fd5b5050604051601f1901519150506001600160a01b038116611b7357600060019250925050611b7a565b9150600090505b94509492505050565b600060208284031215611b9557600080fd5b81357fffffffff0000000000000000000000000000000000000000000000000000000081168114611ab857600080fd5b600060208284031215611bd757600080fd5b5035919050565b6001600160a01b03811681146114ac57600080fd5b60008060408385031215611c0657600080fd5b823591506020830135611c1881611bde565b809150509250929050565b634e487b7160e01b600052604160045260246000fd5b600082601f830112611c4a57600080fd5b813567ffffffffffffffff80821115611c6557611c65611c23565b604051601f8301601f19908116603f01168101908282118183101715611c8d57611c8d611c23565b81604052838152866020858801011115611ca657600080fd5b836020870160208301376000602085830101528094505050505092915050565b600060808284031215611cd857600080fd5b6040516080810167ffffffffffffffff8282108183111715611cfc57611cfc611c23565b816040528293508435915080821115611d1457600080fd5b611d2086838701611c39565b8352602085013560208401526040850135915080821115611d4057600080fd5b50611d4d85828601611c39565b6040830152506060830135611d6181611bde565b6060919091015292915050565b600080600060608486031215611d8357600080fd5b833567ffffffffffffffff811115611d9a57600080fd5b611da686828701611cc6565b935050602084013591506040840135611dbe81611bde565b809150509250925092565b803560048110611dd857600080fd5b919050565b60008060008060808587031215611df357600080fd5b843567ffffffffffffffff811115611e0a57600080fd5b611e1687828801611cc6565b9450506020850135611e2781611bde565b925060408501359150611e3c60608601611dc9565b905092959194509250565b600060208284031215611e5957600080fd5b8135611ab881611bde565b634e487b7160e01b600052602160045260246000fd5b6020810160048310611e9c57634e487b7160e01b600052602160045260246000fd5b91905290565b600080600060608486031215611eb757600080fd5b833567ffffffffffffffff811115611ece57600080fd5b611eda86828701611cc6565b9350506020840135611eeb81611bde565b9150611ef960408501611dc9565b90509250925092565b60008060408385031215611f1557600080fd5b8235611f2081611bde565b946020939093013593505050565b60008060008060008060c08789031215611f4757600080fd5b863567ffffffffffffffff811115611f5e57600080fd5b611f6a89828a01611cc6565b9650506020870135611f7b81611bde565b94506040870135611f8b81611bde565b93506060870135611f9b81611bde565b9598949750929560808101359460a0909101359350915050565b60008060408385031215611fc857600080fd5b823567ffffffffffffffff811115611fdf57600080fd5b611feb85828601611cc6565b9250506020830135611c1881611bde565b60006040828403121561200e57600080fd5b6040516040810181811067ffffffffffffffff8211171561203157612031611c23565b604052825161203f81611bde565b81526020928301519281019290925250919050565b60005b8381101561206f578181015183820152602001612057565b50506000910152565b7f416363657373436f6e74726f6c3a206163636f756e74200000000000000000008152600083516120b0816017850160208801612054565b7f206973206d697373696e6720726f6c652000000000000000000000000000000060179184019182015283516120ed816028840160208801612054565b01602801949350505050565b6020815260008251806020840152612118816040850160208701612054565b601f01601f19169190910160400192915050565b634e487b7160e01b600052601160045260246000fd5b80820281158282048414176104825761048261212c565b808201808211156104825761048261212c565b634e487b7160e01b600052603260045260246000fd5b6000816121915761219161212c565b50600019019056fea2646970667358221220fa3d8f88ff6279625c9555f2b9e3a207a7831a5db0ccdb14d92ebed297ee17ad64736f6c63430008130033a2646970667358221220392be0a246aab4a0e84575ffd33da16799f361a4cdeddd1ce51e6ebff03049bb64736f6c63430008130033",
  "linkReferences": {},
  "deployedLinkReferences": {}
}