{
  "_format": "hh-sol-artifact-1",
  "contractName": "OrganizationFactory",
  "sourceName": "contracts/OrganizationFactory.sol",
  "abi": [
    {
      "inputs": [],
      "stateMutability": "nonpayable",
      "type": "constructor"
    },
    {
      "anonymous": false,
      "inputs": [
        {
          "indexed": true,
          "internalType": "address",
          "name": "creator",
          "type": "address"
        },
        {
          "indexed": false,
          "internalType": "address",
          "name": "organization",
          "type": "address"
        }
      ],
      "name": "OrganizationCreated",
      "type": "event"
    },
    {
      "anonymous": false,
      "inputs": [
        {
          "indexed": true,
          "internalType": "bytes32",
          "name": "role",
          "type": "bytes32"
        },
        {
          "indexed": true,
          "internalType": "bytes32",
          "name": "previousAdminRole",
          "type": "bytes32"
        },
        {
          "indexed": true,
          "internalType": "bytes32",
          "name": "newAdminRole",
          "type": "bytes32"
        }
      ],
      "name": "RoleAdminChanged",
      "type": "event"
    },
    {
      "anonymous": false,
      "inputs": [
        {
          "indexed": true,
          "internalType": "bytes32",
          "name": "role",
          "type": "bytes32"
        },
        {
          "indexed": true,
          "internalType": "address",
          "name": "account",
          "type": "address"
        },
        {
          "indexed": true,
          "internalType": "address",
          "name": "sender",
          "type": "address"
        }
      ],
      "name": "RoleGranted",
      "type": "event"
    },
    {
      "anonymous": false,
      "inputs": [
        {
          "indexed": true,
          "internalType": "bytes32",
          "name": "role",
          "type": "bytes32"
        },
        {
          "indexed": true,
          "internalType": "address",
          "name": "account",
          "type": "address"
        },
        {
          "indexed": true,
          "internalType": "address",
          "name": "sender",
          "type": "address"
        }
      ],
      "name": "RoleRevoked",
      "type": "event"
    },
    {
      "inputs": [],
      "name": "ADMIN_ROLE",
      "outputs": [
        {
          "internalType": "bytes32",
          "name": "",
          "type": "bytes32"
        }
      ],
      "stateMutability": "view",
      "type": "function"
    },
    {
      "inputs": [],
      "name": "DEFAULT_ADMIN_ROLE",
      "outputs": [
        {
          "internalType": "bytes32",
          "name": "",
          "type": "bytes32"
        }
      ],
      "stateMutability": "view",
      "type": "function"
    },
    {
      "inputs": [
        {
          "internalType": "address",
          "name": "_admin",
          "type": "address"
        },
        {
          "internalType": "bytes",
          "name": "signature",
          "type": "bytes"
        },
        {
          "internalType": "uint256",
          "name": "blockNumber",
          "type": "uint256"
        }
      ],
      "name": "createOrganization",
      "outputs": [
        {
          "internalType": "address",
          "name": "",
          "type": "address"
        }
      ],
      "stateMutability": "nonpayable",
      "type": "function"
    },
    {
      "inputs": [
        {
          "internalType": "uint256",
          "name": "index",
          "type": "uint256"
        }
      ],
      "name": "getOrganization",
      "outputs": [
        {
          "internalType": "address",
          "name": "",
          "type": "address"
        }
      ],
      "stateMutability": "view",
      "type": "function"
    },
    {
      "inputs": [],
      "name": "getOrganizationCount",
      "outputs": [
        {
          "internalType": "uint256",
          "name": "",
          "type": "uint256"
        }
      ],
      "stateMutability": "view",
      "type": "function"
    },
    {
      "inputs": [
        {
          "internalType": "bytes32",
          "name": "role",
          "type": "bytes32"
        }
      ],
      "name": "getRoleAdmin",
      "outputs": [
        {
          "internalType": "bytes32",
          "name": "",
          "type": "bytes32"
        }
      ],
      "stateMutability": "view",
      "type": "function"
    },
    {
      "inputs": [
        {
          "internalType": "bytes32",
          "name": "role",
          "type": "bytes32"
        },
        {
          "internalType": "address",
          "name": "account",
          "type": "address"
        }
      ],
      "name": "grantRole",
      "outputs": [],
      "stateMutability": "nonpayable",
      "type": "function"
    },
    {
      "inputs": [
        {
          "internalType": "bytes32",
          "name": "role",
          "type": "bytes32"
        },
        {
          "internalType": "address",
          "name": "account",
          "type": "address"
        },
        {
          "internalType": "bytes",
          "name": "signature",
          "type": "bytes"
        },
        {
          "internalType": "uint256",
          "name": "blockNumber",
          "type": "uint256"
        }
      ],
      "name": "grantRole",
      "outputs": [],
      "stateMutability": "nonpayable",
      "type": "function"
    },
    {
      "inputs": [
        {
          "internalType": "bytes32",
          "name": "role",
          "type": "bytes32"
        },
        {
          "internalType": "address",
          "name": "account",
          "type": "address"
        }
      ],
      "name": "hasRole",
      "outputs": [
        {
          "internalType": "bool",
          "name": "",
          "type": "bool"
        }
      ],
      "stateMutability": "view",
      "type": "function"
    },
    {
      "inputs": [
        {
          "internalType": "uint256",
          "name": "",
          "type": "uint256"
        }
      ],
      "name": "organizations",
      "outputs": [
        {
          "internalType": "address",
          "name": "",
          "type": "address"
        }
      ],
      "stateMutability": "view",
      "type": "function"
    },
    {
      "inputs": [
        {
          "internalType": "bytes32",
          "name": "role",
          "type": "bytes32"
        },
        {
          "internalType": "address",
          "name": "account",
          "type": "address"
        }
      ],
      "name": "renounceRole",
      "outputs": [],
      "stateMutability": "nonpayable",
      "type": "function"
    },
    {
      "inputs": [
        {
          "internalType": "bytes32",
          "name": "role",
          "type": "bytes32"
        },
        {
          "internalType": "address",
          "name": "account",
          "type": "address"
        }
      ],
      "name": "revokeRole",
      "outputs": [],
      "stateMutability": "nonpayable",
      "type": "function"
    },
    {
      "inputs": [
        {
          "internalType": "bytes32",
          "name": "role",
          "type": "bytes32"
        },
        {
          "internalType": "address",
          "name": "account",
          "type": "address"
        },
        {
          "internalType": "bytes",
          "name": "signature",
          "type": "bytes"
        },
        {
          "internalType": "uint256",
          "name": "blockNumber",
          "type": "uint256"
        }
      ],
      "name": "revokeRole",
      "outputs": [],
      "stateMutability": "nonpayable",
      "type": "function"
    },
    {
      "inputs": [
        {
          "internalType": "bytes4",
          "name": "interfaceId",
          "type": "bytes4"
        }
      ],
      "name": "supportsInterface",
      "outputs": [
        {
          "internalType": "bool",
          "name": "",
          "type": "bool"
        }
      ],
      "stateMutability": "view",
      "type": "function"
    }
  ],
  "bytecode": "0x60806040523480156200001157600080fd5b50620000276000801b336200005f60201b60201c565b620000597fa49807205ce4d355092ef5a8a18f56e8913cf4a201fbe287825b095693c21775336200005f60201b60201c565b620001d8565b6200007182826200007560201b60201c565b5050565b6200008782826200016660201b60201c565b6200016257600160008084815260200190815260200160002060000160008373ffffffffffffffffffffffffffffffffffffffff1673ffffffffffffffffffffffffffffffffffffffff16815260200190815260200160002060006101000a81548160ff02191690831515021790555062000107620001d060201b60201c565b73ffffffffffffffffffffffffffffffffffffffff168173ffffffffffffffffffffffffffffffffffffffff16837f2f8788117e7eff1d82e926ec794901d17c78024a50270940304540a733656f0d60405160405180910390a45b5050565b600080600084815260200190815260200160002060000160008373ffffffffffffffffffffffffffffffffffffffff1673ffffffffffffffffffffffffffffffffffffffff16815260200190815260200160002060009054906101000a900460ff16905092915050565b600033905090565b614beb80620001e86000396000f3fe60806040523480156200001157600080fd5b5060043610620001005760003560e01c806375b238fc1162000099578063d547741f116200006f578063d547741f14620002a3578063e496869514620002c3578063e792dd8a14620002e3578063f17a98d814620003195762000100565b806375b238fc146200022957806391d14854146200024b578063a217fddf14620002815762000100565b806336568abe11620000db57806336568abe14620001915780634526f69014620001b15780635734e5e314620001e7578063589b21c014620002095762000100565b806301ffc9a71462000105578063248a9ca3146200013b5780632f2ff15d1462000171575b600080fd5b6200012360048036038101906200011d91906200133b565b6200034f565b6040516200013291906200138a565b60405180910390f35b620001596004803603810190620001539190620013e2565b620003cc565b60405162000168919062001425565b60405180910390f35b6200018f6004803603810190620001899190620014a7565b620003eb565b005b620001af6004803603810190620001a99190620014a7565b62000412565b005b620001cf6004803603810190620001c9919062001529565b6200049c565b604051620001de91906200156c565b60405180910390f35b620001f162000531565b6040516200020091906200159a565b60405180910390f35b62000227600480360381019062000221919062001719565b6200053e565b005b62000233620005f1565b60405162000242919062001425565b60405180910390f35b620002696004803603810190620002639190620014a7565b62000615565b6040516200027891906200138a565b60405180910390f35b6200028b6200067f565b6040516200029a919062001425565b60405180910390f35b620002c16004803603810190620002bb9190620014a7565b62000686565b005b620002e16004803603810190620002db919062001719565b620006ad565b005b620003016004803603810190620002fb919062001529565b62000760565b6040516200031091906200156c565b60405180910390f35b620003376004803603810190620003319190620017aa565b620007a0565b6040516200034691906200156c565b60405180910390f35b60007f7965db0b000000000000000000000000000000000000000000000000000000007bffffffffffffffffffffffffffffffffffffffffffffffffffffffff1916827bffffffffffffffffffffffffffffffffffffffffffffffffffffffff19161480620003c55750620003c48262000986565b5b9050919050565b6000806000838152602001908152602001600020600101549050919050565b620003f682620003cc565b6200040181620009f0565b6200040d838362000a08565b505050565b6200041c62000aed565b73ffffffffffffffffffffffffffffffffffffffff168173ffffffffffffffffffffffffffffffffffffffff16146200048c576040517f08c379a00000000000000000000000000000000000000000000000000000000081526004016200048390620018ac565b60405180910390fd5b62000498828262000af5565b5050565b60006001805490508210620004e8576040517f08c379a0000000000000000000000000000000000000000000000000000000008152600401620004df906200191e565b60405180910390fd5b60018281548110620004ff57620004fe62001940565b5b9060005260206000200160009054906101000a900473ffffffffffffffffffffffffffffffffffffffff169050919050565b6000600180549050905090565b60008484604051602001620005559291906200196f565b60405160208183030381529060405290506200059c6000801b84846000357fffffffff00000000000000000000000000000000000000000000000000000000168562000bdb565b620005de576040517f08c379a0000000000000000000000000000000000000000000000000000000008152600401620005d59062001a12565b60405180910390fd5b620005ea858562000a08565b5050505050565b7fa49807205ce4d355092ef5a8a18f56e8913cf4a201fbe287825b095693c2177581565b600080600084815260200190815260200160002060000160008373ffffffffffffffffffffffffffffffffffffffff1673ffffffffffffffffffffffffffffffffffffffff16815260200190815260200160002060009054906101000a900460ff16905092915050565b6000801b81565b6200069182620003cc565b6200069c81620009f0565b620006a8838362000af5565b505050565b60008484604051602001620006c49291906200196f565b60405160208183030381529060405290506200070b6000801b84846000357fffffffff00000000000000000000000000000000000000000000000000000000168562000bdb565b6200074d576040517f08c379a0000000000000000000000000000000000000000000000000000000008152600401620007449062001a12565b60405180910390fd5b62000759858562000af5565b5050505050565b600181815481106200077157600080fd5b906000526020600020016000915054906101000a900473ffffffffffffffffffffffffffffffffffffffff1681565b60007fa49807205ce4d355092ef5a8a18f56e8913cf4a201fbe287825b095693c21775620007ce81620009f0565b600085604051602001620007e391906200156c565b6040516020818303038152906040529050620008477fa49807205ce4d355092ef5a8a18f56e8913cf4a201fbe287825b095693c2177586866000357fffffffff00000000000000000000000000000000000000000000000000000000168562000bdb565b62000889576040517f08c379a0000000000000000000000000000000000000000000000000000000008152600401620008809062001a84565b60405180910390fd5b6000866040516200089a90620012bc565b620008a691906200156c565b604051809103906000f080158015620008c3573d6000803e3d6000fd5b5090506001819080600181540180825580915050600190039060005260206000200160009091909190916101000a81548173ffffffffffffffffffffffffffffffffffffffff021916908373ffffffffffffffffffffffffffffffffffffffff1602179055503373ffffffffffffffffffffffffffffffffffffffff167f2725ca0bb6f842da395a595005373aaa8e052b21133359b3c75f59a1247e6e7a826040516200097191906200156c565b60405180910390a28093505050509392505050565b60007f01ffc9a7000000000000000000000000000000000000000000000000000000007bffffffffffffffffffffffffffffffffffffffffffffffffffffffff1916827bffffffffffffffffffffffffffffffffffffffffffffffffffffffff1916149050919050565b62000a0581620009ff62000aed565b62000c0b565b50565b62000a14828262000615565b62000ae957600160008084815260200190815260200160002060000160008373ffffffffffffffffffffffffffffffffffffffff1673ffffffffffffffffffffffffffffffffffffffff16815260200190815260200160002060006101000a81548160ff02191690831515021790555062000a8e62000aed565b73ffffffffffffffffffffffffffffffffffffffff168173ffffffffffffffffffffffffffffffffffffffff16837f2f8788117e7eff1d82e926ec794901d17c78024a50270940304540a733656f0d60405160405180910390a45b5050565b600033905090565b62000b01828262000615565b1562000bd757600080600084815260200190815260200160002060000160008373ffffffffffffffffffffffffffffffffffffffff1673ffffffffffffffffffffffffffffffffffffffff16815260200190815260200160002060006101000a81548160ff02191690831515021790555062000b7c62000aed565b73ffffffffffffffffffffffffffffffffffffffff168173ffffffffffffffffffffffffffffffffffffffff16837ff6391f5c32d9c69d2a47ea670b442974b53935d1edc7fd64eb21e047a839171b60405160405180910390a45b5050565b600062000be9863362000615565b8062000c00575062000bff868686868662000c9b565b5b905095945050505050565b62000c17828262000615565b62000c975762000c278162000d41565b62000c378360001c602062000d70565b60405160200162000c4a92919062001bbf565b6040516020818303038152906040526040517f08c379a000000000000000000000000000000000000000000000000000000000815260040162000c8e919062001c42565b60405180910390fd5b5050565b60008343111562000ce3576040517f08c379a000000000000000000000000000000000000000000000000000000000815260040162000cda9062001cb6565b60405180910390fd5b6000863386868660405160200162000d0095949392919062001de4565b604051602081830303815290604052805190602001209050600062000d26828862000fcb565b905062000d34888262000615565b9250505095945050505050565b606062000d698273ffffffffffffffffffffffffffffffffffffffff16601460ff1662000d70565b9050919050565b60606000600283600262000d85919062001e78565b62000d91919062001ec3565b67ffffffffffffffff81111562000dad5762000dac620015d2565b5b6040519080825280601f01601f19166020018201604052801562000de05781602001600182028036833780820191505090505b5090507f30000000000000000000000000000000000000000000000000000000000000008160008151811062000e1b5762000e1a62001940565b5b60200101907effffffffffffffffffffffffffffffffffffffffffffffffffffffffffffff1916908160001a9053507f78000000000000000000000000000000000000000000000000000000000000008160018151811062000e825762000e8162001940565b5b60200101907effffffffffffffffffffffffffffffffffffffffffffffffffffffffffffff1916908160001a9053506000600184600262000ec4919062001e78565b62000ed0919062001ec3565b90505b600181111562000f7a577f3031323334353637383961626364656600000000000000000000000000000000600f86166010811062000f165762000f1562001940565b5b1a60f81b82828151811062000f305762000f2f62001940565b5b60200101907effffffffffffffffffffffffffffffffffffffffffffffffffffffffffffff1916908160001a905350600485901c94508062000f729062001efe565b905062000ed3565b506000841462000fc1576040517f08c379a000000000000000000000000000000000000000000000000000000000815260040162000fb89062001f7c565b60405180910390fd5b8091505092915050565b600080600062000fdc858562000ff6565b9150915062000feb816200104b565b819250505092915050565b60008060418351036200103b5760008060006020860151925060408601519150606086015160001a90506200102e87828585620011d3565b9450945050505062001044565b60006002915091505b9250929050565b6000600481111562001062576200106162001f9e565b5b81600481111562001078576200107762001f9e565b5b0315620011d0576001600481111562001096576200109562001f9e565b5b816004811115620010ac57620010ab62001f9e565b5b03620010ef576040517f08c379a0000000000000000000000000000000000000000000000000000000008152600401620010e6906200201d565b60405180910390fd5b6002600481111562001106576200110562001f9e565b5b8160048111156200111c576200111b62001f9e565b5b036200115f576040517f08c379a000000000000000000000000000000000000000000000000000000000815260040162001156906200208f565b60405180910390fd5b6003600481111562001176576200117562001f9e565b5b8160048111156200118c576200118b62001f9e565b5b03620011cf576040517f08c379a0000000000000000000000000000000000000000000000000000000008152600401620011c69062002127565b60405180910390fd5b5b50565b6000807f7fffffffffffffffffffffffffffffff5d576e7357a4501ddfe92f46681b20a08360001c111562001210576000600391509150620012b3565b60006001878787876040516000815260200160405260405162001237949392919062002167565b6020604051602081039080840390855afa1580156200125a573d6000803e3d6000fd5b505050602060405103519050600073ffffffffffffffffffffffffffffffffffffffff168173ffffffffffffffffffffffffffffffffffffffff1603620012aa57600060019250925050620012b3565b80600092509250505b94509492505050565b612a0180620021b583390190565b6000604051905090565b600080fd5b600080fd5b60007fffffffff0000000000000000000000000000000000000000000000000000000082169050919050565b6200131581620012de565b81146200132157600080fd5b50565b60008135905062001335816200130a565b92915050565b600060208284031215620013545762001353620012d4565b5b6000620013648482850162001324565b91505092915050565b60008115159050919050565b62001384816200136d565b82525050565b6000602082019050620013a1600083018462001379565b92915050565b6000819050919050565b620013bc81620013a7565b8114620013c857600080fd5b50565b600081359050620013dc81620013b1565b92915050565b600060208284031215620013fb57620013fa620012d4565b5b60006200140b84828501620013cb565b91505092915050565b6200141f81620013a7565b82525050565b60006020820190506200143c600083018462001414565b92915050565b600073ffffffffffffffffffffffffffffffffffffffff82169050919050565b60006200146f8262001442565b9050919050565b620014818162001462565b81146200148d57600080fd5b50565b600081359050620014a18162001476565b92915050565b60008060408385031215620014c157620014c0620012d4565b5b6000620014d185828601620013cb565b9250506020620014e48582860162001490565b9150509250929050565b6000819050919050565b6200150381620014ee565b81146200150f57600080fd5b50565b6000813590506200152381620014f8565b92915050565b600060208284031215620015425762001541620012d4565b5b6000620015528482850162001512565b91505092915050565b620015668162001462565b82525050565b60006020820190506200158360008301846200155b565b92915050565b6200159481620014ee565b82525050565b6000602082019050620015b1600083018462001589565b92915050565b600080fd5b600080fd5b6000601f19601f8301169050919050565b7f4e487b7100000000000000000000000000000000000000000000000000000000600052604160045260246000fd5b6200160c82620015c1565b810181811067ffffffffffffffff821117156200162e576200162d620015d2565b5b80604052505050565b600062001643620012ca565b905062001651828262001601565b919050565b600067ffffffffffffffff821115620016745762001673620015d2565b5b6200167f82620015c1565b9050602081019050919050565b82818337600083830152505050565b6000620016b2620016ac8462001656565b62001637565b905082815260208101848484011115620016d157620016d0620015bc565b5b620016de8482856200168c565b509392505050565b600082601f830112620016fe57620016fd620015b7565b5b8135620017108482602086016200169b565b91505092915050565b60008060008060808587031215620017365762001735620012d4565b5b60006200174687828801620013cb565b9450506020620017598782880162001490565b935050604085013567ffffffffffffffff8111156200177d576200177c620012d9565b5b6200178b87828801620016e6565b92505060606200179e8782880162001512565b91505092959194509250565b600080600060608486031215620017c657620017c5620012d4565b5b6000620017d68682870162001490565b935050602084013567ffffffffffffffff811115620017fa57620017f9620012d9565b5b6200180886828701620016e6565b92505060406200181b8682870162001512565b9150509250925092565b600082825260208201905092915050565b7f416363657373436f6e74726f6c3a2063616e206f6e6c792072656e6f756e636560008201527f20726f6c657320666f722073656c660000000000000000000000000000000000602082015250565b600062001894602f8362001825565b9150620018a18262001836565b604082019050919050565b60006020820190508181036000830152620018c78162001885565b9050919050565b7f496e646578206f7574206f6620626f756e647300000000000000000000000000600082015250565b60006200190660138362001825565b91506200191382620018ce565b602082019050919050565b600060208201905081810360008301526200193981620018f7565b9050919050565b7f4e487b7100000000000000000000000000000000000000000000000000000000600052603260045260246000fd5b600060408201905062001986600083018562001414565b6200199560208301846200155b565b9392505050565b7f416363657373436f6e74726f6c3a2063616c6c6572206973206e6f7420616e2060008201527f61646d696e000000000000000000000000000000000000000000000000000000602082015250565b6000620019fa60258362001825565b915062001a07826200199c565b604082019050919050565b6000602082019050818103600083015262001a2d81620019eb565b9050919050565b7f556e617574686f72697a65640000000000000000000000000000000000000000600082015250565b600062001a6c600c8362001825565b915062001a798262001a34565b602082019050919050565b6000602082019050818103600083015262001a9f8162001a5d565b9050919050565b600081905092915050565b7f416363657373436f6e74726f6c3a206163636f756e7420000000000000000000600082015250565b600062001ae960178362001aa6565b915062001af68262001ab1565b601782019050919050565b600081519050919050565b60005b8381101562001b2c57808201518184015260208101905062001b0f565b60008484015250505050565b600062001b458262001b01565b62001b51818562001aa6565b935062001b6381856020860162001b0c565b80840191505092915050565b7f206973206d697373696e6720726f6c6520000000000000000000000000000000600082015250565b600062001ba760118362001aa6565b915062001bb48262001b6f565b601182019050919050565b600062001bcc8262001ada565b915062001bda828562001b38565b915062001be78262001b98565b915062001bf5828462001b38565b91508190509392505050565b600062001c0e8262001b01565b62001c1a818562001825565b935062001c2c81856020860162001b0c565b62001c3781620015c1565b840191505092915050565b6000602082019050818103600083015262001c5e818462001c01565b905092915050565b7f5369676e61747572652068617320657870697265640000000000000000000000600082015250565b600062001c9e60158362001825565b915062001cab8262001c66565b602082019050919050565b6000602082019050818103600083015262001cd18162001c8f565b9050919050565b6000819050919050565b62001cf762001cf182620013a7565b62001cd8565b82525050565b60008160601b9050919050565b600062001d178262001cfd565b9050919050565b600062001d2b8262001d0a565b9050919050565b62001d4762001d418262001462565b62001d1e565b82525050565b6000819050919050565b62001d6c62001d6682620014ee565b62001d4d565b82525050565b6000819050919050565b62001d9162001d8b82620012de565b62001d72565b82525050565b600081519050919050565b600081905092915050565b600062001dba8262001d97565b62001dc6818562001da2565b935062001dd881856020860162001b0c565b80840191505092915050565b600062001df2828862001ce2565b60208201915062001e04828762001d32565b60148201915062001e16828662001d57565b60208201915062001e28828562001d7c565b60048201915062001e3a828462001dad565b91508190509695505050505050565b7f4e487b7100000000000000000000000000000000000000000000000000000000600052601160045260246000fd5b600062001e8582620014ee565b915062001e9283620014ee565b925082820262001ea281620014ee565b9150828204841483151762001ebc5762001ebb62001e49565b5b5092915050565b600062001ed082620014ee565b915062001edd83620014ee565b925082820190508082111562001ef85762001ef762001e49565b5b92915050565b600062001f0b82620014ee565b91506000820362001f215762001f2062001e49565b5b600182039050919050565b7f537472696e67733a20686578206c656e67746820696e73756666696369656e74600082015250565b600062001f6460208362001825565b915062001f718262001f2c565b602082019050919050565b6000602082019050818103600083015262001f978162001f55565b9050919050565b7f4e487b7100000000000000000000000000000000000000000000000000000000600052602160045260246000fd5b7f45434453413a20696e76616c6964207369676e61747572650000000000000000600082015250565b60006200200560188362001825565b9150620020128262001fcd565b602082019050919050565b60006020820190508181036000830152620020388162001ff6565b9050919050565b7f45434453413a20696e76616c6964207369676e6174757265206c656e67746800600082015250565b600062002077601f8362001825565b915062002084826200203f565b602082019050919050565b60006020820190508181036000830152620020aa8162002068565b9050919050565b7f45434453413a20696e76616c6964207369676e6174757265202773272076616c60008201527f7565000000000000000000000000000000000000000000000000000000000000602082015250565b60006200210f60228362001825565b91506200211c82620020b1565b604082019050919050565b60006020820190508181036000830152620021428162002100565b9050919050565b600060ff82169050919050565b620021618162002149565b82525050565b60006080820190506200217e600083018762001414565b6200218d602083018662002156565b6200219c604083018562001414565b620021ab606083018462001414565b9594505050505056fe60806040523480156200001157600080fd5b5060405162002a0138038062002a0183398181016040528101906200003791906200029a565b6200004c6000801b82620000b760201b60201c565b6200007e7fa49807205ce4d355092ef5a8a18f56e8913cf4a201fbe287825b095693c2177582620000b760201b60201c565b620000b07f8502233096d909befbda0999bb8ea2f3a6be3c138b9fbf003752a4c8bce86f6c82620000b760201b60201c565b50620002cc565b620000c98282620000cd60201b60201c565b5050565b620000df8282620001be60201b60201c565b620001ba57600160008084815260200190815260200160002060000160008373ffffffffffffffffffffffffffffffffffffffff1673ffffffffffffffffffffffffffffffffffffffff16815260200190815260200160002060006101000a81548160ff0219169083151502179055506200015f6200022860201b60201c565b73ffffffffffffffffffffffffffffffffffffffff168173ffffffffffffffffffffffffffffffffffffffff16837f2f8788117e7eff1d82e926ec794901d17c78024a50270940304540a733656f0d60405160405180910390a45b5050565b600080600084815260200190815260200160002060000160008373ffffffffffffffffffffffffffffffffffffffff1673ffffffffffffffffffffffffffffffffffffffff16815260200190815260200160002060009054906101000a900460ff16905092915050565b600033905090565b600080fd5b600073ffffffffffffffffffffffffffffffffffffffff82169050919050565b6000620002628262000235565b9050919050565b620002748162000255565b81146200028057600080fd5b50565b600081519050620002948162000269565b92915050565b600060208284031215620002b357620002b262000230565b5b6000620002c38482850162000283565b91505092915050565b61272580620002dc6000396000f3fe608060405234801561001057600080fd5b506004361061012c5760003560e01c806391d14854116100ad578063e62092be11610071578063e62092be1461033f578063e9d79b0e1461036f578063f555e0201461039f578063ff2ff6c9146103bb578063ffad9950146103eb5761012c565b806391d1485414610289578063a217fddf146102b9578063c0eb89b2146102d7578063d547741f14610307578063e4968695146103235761012c565b8063589b21c0116100f4578063589b21c0146101e757806362567a1a1461020357806375b238fc1461021f578063806c87af1461023d5780638f28f50e146102595761012c565b806301ffc9a714610131578063206b60f914610161578063248a9ca31461017f5780632f2ff15d146101af57806336568abe146101cb575b600080fd5b61014b60048036038101906101469190611614565b61041b565b604051610158919061165c565b60405180910390f35b610169610495565b6040516101769190611690565b60405180910390f35b610199600480360381019061019491906116d7565b6104b9565b6040516101a69190611690565b60405180910390f35b6101c960048036038101906101c49190611762565b6104d8565b005b6101e560048036038101906101e09190611762565b6104f9565b005b61020160048036038101906101fc919061191e565b61057c565b005b61021d600480360381019061021891906119c6565b610626565b005b61022761075e565b6040516102349190611690565b60405180910390f35b61025760048036038101906102529190611a9b565b610782565b005b610273600480360381019061026e9190611b59565b6108b9565b6040516102809190611bfd565b60405180910390f35b6102a3600480360381019061029e9190611762565b6108d9565b6040516102b0919061165c565b60405180910390f35b6102c1610943565b6040516102ce9190611690565b60405180910390f35b6102f160048036038101906102ec9190611c18565b61094a565b6040516102fe9190611bfd565b60405180910390f35b610321600480360381019061031c9190611762565b610a39565b005b61033d6004803603810190610338919061191e565b610a5a565b005b61035960048036038101906103549190611c18565b610b04565b604051610366919061165c565b60405180910390f35b61038960048036038101906103849190611c18565b610b3e565b6040516103969190611bfd565b60405180910390f35b6103b960048036038101906103b49190611c58565b610b6d565b005b6103d560048036038101906103d09190611c18565b610c74565b6040516103e2919061165c565b60405180910390f35b61040560048036038101906104009190611c18565b610caf565b604051610412919061165c565b60405180910390f35b60007f7965db0b000000000000000000000000000000000000000000000000000000007bffffffffffffffffffffffffffffffffffffffffffffffffffffffff1916827bffffffffffffffffffffffffffffffffffffffffffffffffffffffff1916148061048e575061048d82610ceb565b5b9050919050565b7f8502233096d909befbda0999bb8ea2f3a6be3c138b9fbf003752a4c8bce86f6c81565b6000806000838152602001908152602001600020600101549050919050565b6104e1826104b9565b6104ea81610d55565b6104f48383610d69565b505050565b610501610e49565b73ffffffffffffffffffffffffffffffffffffffff168173ffffffffffffffffffffffffffffffffffffffff161461056e576040517f08c379a000000000000000000000000000000000000000000000000000000000815260040161056590611d5e565b60405180910390fd5b6105788282610e51565b5050565b60008484604051602001610591929190611d8d565b60405160208183030381529060405290506105d66000801b84846000357fffffffff000000000000000000000000000000000000000000000000000000001685610f32565b610615576040517f08c379a000000000000000000000000000000000000000000000000000000000815260040161060c90611e28565b60405180910390fd5b61061f8585610d69565b5050505050565b600085858560405160200161063d93929190611e57565b604051602081830303815290604052905061069f7fa49807205ce4d355092ef5a8a18f56e8913cf4a201fbe287825b095693c2177584846000357fffffffff000000000000000000000000000000000000000000000000000000001685610f32565b6106de576040517f08c379a00000000000000000000000000000000000000000000000000000000081526004016106d590611eda565b60405180910390fd5b83600160008873ffffffffffffffffffffffffffffffffffffffff1673ffffffffffffffffffffffffffffffffffffffff168152602001908152602001600020600087815260200190815260200160002060006101000a81548160ff0219169083600381111561075157610750611b86565b5b0217905550505050505050565b7fa49807205ce4d355092ef5a8a18f56e8913cf4a201fbe287825b095693c2177581565b6000878787878760405160200161079d959493929190611f59565b60405160208183030381529060405290506107ff7f8502233096d909befbda0999bb8ea2f3a6be3c138b9fbf003752a4c8bce86f6c84846000357fffffffff000000000000000000000000000000000000000000000000000000001685610f32565b61083e576040517f08c379a000000000000000000000000000000000000000000000000000000000815260040161083590611eda565b60405180910390fd5b8773ffffffffffffffffffffffffffffffffffffffff1663f242432a888888886040518563ffffffff1660e01b815260040161087d9493929190611fe3565b600060405180830381600087803b15801561089757600080fd5b505af11580156108ab573d6000803e3d6000fd5b505050505050505050505050565b60026020528060005260406000206000915054906101000a900460ff1681565b600080600084815260200190815260200160002060000160008373ffffffffffffffffffffffffffffffffffffffff1673ffffffffffffffffffffffffffffffffffffffff16815260200190815260200160002060009054906101000a900460ff16905092915050565b6000801b81565b600080600160008573ffffffffffffffffffffffffffffffffffffffff1673ffffffffffffffffffffffffffffffffffffffff168152602001908152602001600020600084815260200190815260200160002060009054906101000a900460ff169050600060038111156109c1576109c0611b86565b5b8160038111156109d4576109d3611b86565b5b146109e25780915050610a33565b600260008573ffffffffffffffffffffffffffffffffffffffff1673ffffffffffffffffffffffffffffffffffffffff16815260200190815260200160002060009054906101000a900460ff169150505b92915050565b610a42826104b9565b610a4b81610d55565b610a558383610e51565b505050565b60008484604051602001610a6f929190611d8d565b6040516020818303038152906040529050610ab46000801b84846000357fffffffff000000000000000000000000000000000000000000000000000000001685610f32565b610af3576040517f08c379a0000000000000000000000000000000000000000000000000000000008152600401610aea90611e28565b60405180910390fd5b610afd8585610e51565b5050505050565b6000600380811115610b1957610b18611b86565b5b610b23848461094a565b6003811115610b3557610b34611b86565b5b14905092915050565b60016020528160005260406000206020528060005260406000206000915091509054906101000a900460ff1681565b60008484604051602001610b8292919061203b565b6040516020818303038152906040529050610bc76000801b84846000357fffffffff000000000000000000000000000000000000000000000000000000001685610f32565b610c06576040517f08c379a0000000000000000000000000000000000000000000000000000000008152600401610bfd90611eda565b60405180910390fd5b83600260008773ffffffffffffffffffffffffffffffffffffffff1673ffffffffffffffffffffffffffffffffffffffff16815260200190815260200160002060006101000a81548160ff02191690836003811115610c6857610c67611b86565b5b02179055505050505050565b600060026003811115610c8a57610c89611b86565b5b610c94848461094a565b6003811115610ca657610ca5611b86565b5b14905092915050565b600060016003811115610cc557610cc4611b86565b5b610ccf848461094a565b6003811115610ce157610ce0611b86565b5b1015905092915050565b60007f01ffc9a7000000000000000000000000000000000000000000000000000000007bffffffffffffffffffffffffffffffffffffffffffffffffffffffff1916827bffffffffffffffffffffffffffffffffffffffffffffffffffffffff1916149050919050565b610d6681610d61610e49565b610f5d565b50565b610d7382826108d9565b610e4557600160008084815260200190815260200160002060000160008373ffffffffffffffffffffffffffffffffffffffff1673ffffffffffffffffffffffffffffffffffffffff16815260200190815260200160002060006101000a81548160ff021916908315150217905550610dea610e49565b73ffffffffffffffffffffffffffffffffffffffff168173ffffffffffffffffffffffffffffffffffffffff16837f2f8788117e7eff1d82e926ec794901d17c78024a50270940304540a733656f0d60405160405180910390a45b5050565b600033905090565b610e5b82826108d9565b15610f2e57600080600084815260200190815260200160002060000160008373ffffffffffffffffffffffffffffffffffffffff1673ffffffffffffffffffffffffffffffffffffffff16815260200190815260200160002060006101000a81548160ff021916908315150217905550610ed3610e49565b73ffffffffffffffffffffffffffffffffffffffff168173ffffffffffffffffffffffffffffffffffffffff16837ff6391f5c32d9c69d2a47ea670b442974b53935d1edc7fd64eb21e047a839171b60405160405180910390a45b5050565b6000610f3e86336108d9565b80610f525750610f518686868686610fe2565b5b905095945050505050565b610f6782826108d9565b610fde57610f748161107f565b610f828360001c60206110ac565b604051602001610f9392919061216d565b6040516020818303038152906040526040517f08c379a0000000000000000000000000000000000000000000000000000000008152600401610fd591906121e0565b60405180910390fd5b5050565b600083431115611027576040517f08c379a000000000000000000000000000000000000000000000000000000000815260040161101e9061224e565b60405180910390fd5b60008633868686604051602001611042959493929190612360565b604051602081830303815290604052805190602001209050600061106682886112e8565b905061107288826108d9565b9250505095945050505050565b60606110a58273ffffffffffffffffffffffffffffffffffffffff16601460ff166110ac565b9050919050565b6060600060028360026110bf91906123ea565b6110c9919061242c565b67ffffffffffffffff8111156110e2576110e16117bd565b5b6040519080825280601f01601f1916602001820160405280156111145781602001600182028036833780820191505090505b5090507f30000000000000000000000000000000000000000000000000000000000000008160008151811061114c5761114b612460565b5b60200101907effffffffffffffffffffffffffffffffffffffffffffffffffffffffffffff1916908160001a9053507f7800000000000000000000000000000000000000000000000000000000000000816001815181106111b0576111af612460565b5b60200101907effffffffffffffffffffffffffffffffffffffffffffffffffffffffffffff1916908160001a905350600060018460026111f091906123ea565b6111fa919061242c565b90505b600181111561129a577f3031323334353637383961626364656600000000000000000000000000000000600f86166010811061123c5761123b612460565b5b1a60f81b82828151811061125357611252612460565b5b60200101907effffffffffffffffffffffffffffffffffffffffffffffffffffffffffffff1916908160001a905350600485901c9450806112939061248f565b90506111fd565b50600084146112de576040517f08c379a00000000000000000000000000000000000000000000000000000000081526004016112d590612504565b60405180910390fd5b8091505092915050565b60008060006112f7858561130f565b9150915061130481611360565b819250505092915050565b60008060418351036113505760008060006020860151925060408601519150606086015160001a9050611344878285856114c6565b94509450505050611359565b60006002915091505b9250929050565b6000600481111561137457611373611b86565b5b81600481111561138757611386611b86565b5b03156114c357600160048111156113a1576113a0611b86565b5b8160048111156113b4576113b3611b86565b5b036113f4576040517f08c379a00000000000000000000000000000000000000000000000000000000081526004016113eb90612570565b60405180910390fd5b6002600481111561140857611407611b86565b5b81600481111561141b5761141a611b86565b5b0361145b576040517f08c379a0000000000000000000000000000000000000000000000000000000008152600401611452906125dc565b60405180910390fd5b6003600481111561146f5761146e611b86565b5b81600481111561148257611481611b86565b5b036114c2576040517f08c379a00000000000000000000000000000000000000000000000000000000081526004016114b99061266e565b60405180910390fd5b5b50565b6000807f7fffffffffffffffffffffffffffffff5d576e7357a4501ddfe92f46681b20a08360001c111561150157600060039150915061159f565b60006001878787876040516000815260200160405260405161152694939291906126aa565b6020604051602081039080840390855afa158015611548573d6000803e3d6000fd5b505050602060405103519050600073ffffffffffffffffffffffffffffffffffffffff168173ffffffffffffffffffffffffffffffffffffffff16036115965760006001925092505061159f565b80600092509250505b94509492505050565b6000604051905090565b600080fd5b600080fd5b60007fffffffff0000000000000000000000000000000000000000000000000000000082169050919050565b6115f1816115bc565b81146115fc57600080fd5b50565b60008135905061160e816115e8565b92915050565b60006020828403121561162a576116296115b2565b5b6000611638848285016115ff565b91505092915050565b60008115159050919050565b61165681611641565b82525050565b6000602082019050611671600083018461164d565b92915050565b6000819050919050565b61168a81611677565b82525050565b60006020820190506116a56000830184611681565b92915050565b6116b481611677565b81146116bf57600080fd5b50565b6000813590506116d1816116ab565b92915050565b6000602082840312156116ed576116ec6115b2565b5b60006116fb848285016116c2565b91505092915050565b600073ffffffffffffffffffffffffffffffffffffffff82169050919050565b600061172f82611704565b9050919050565b61173f81611724565b811461174a57600080fd5b50565b60008135905061175c81611736565b92915050565b60008060408385031215611779576117786115b2565b5b6000611787858286016116c2565b92505060206117988582860161174d565b9150509250929050565b600080fd5b600080fd5b6000601f19601f8301169050919050565b7f4e487b7100000000000000000000000000000000000000000000000000000000600052604160045260246000fd5b6117f5826117ac565b810181811067ffffffffffffffff82111715611814576118136117bd565b5b80604052505050565b60006118276115a8565b905061183382826117ec565b919050565b600067ffffffffffffffff821115611853576118526117bd565b5b61185c826117ac565b9050602081019050919050565b82818337600083830152505050565b600061188b61188684611838565b61181d565b9050828152602081018484840111156118a7576118a66117a7565b5b6118b2848285611869565b509392505050565b600082601f8301126118cf576118ce6117a2565b5b81356118df848260208601611878565b91505092915050565b6000819050919050565b6118fb816118e8565b811461190657600080fd5b50565b600081359050611918816118f2565b92915050565b60008060008060808587031215611938576119376115b2565b5b6000611946878288016116c2565b94505060206119578782880161174d565b935050604085013567ffffffffffffffff811115611978576119776115b7565b5b611984878288016118ba565b925050606061199587828801611909565b91505092959194509250565b600481106119ae57600080fd5b50565b6000813590506119c0816119a1565b92915050565b600080600080600060a086880312156119e2576119e16115b2565b5b60006119f08882890161174d565b9550506020611a0188828901611909565b9450506040611a12888289016119b1565b935050606086013567ffffffffffffffff811115611a3357611a326115b7565b5b611a3f888289016118ba565b9250506080611a5088828901611909565b9150509295509295909350565b6000611a6882611724565b9050919050565b611a7881611a5d565b8114611a8357600080fd5b50565b600081359050611a9581611a6f565b92915050565b600080600080600080600060e0888a031215611aba57611ab96115b2565b5b6000611ac88a828b01611a86565b9750506020611ad98a828b0161174d565b9650506040611aea8a828b0161174d565b9550506060611afb8a828b01611909565b9450506080611b0c8a828b01611909565b93505060a088013567ffffffffffffffff811115611b2d57611b2c6115b7565b5b611b398a828b016118ba565b92505060c0611b4a8a828b01611909565b91505092959891949750929550565b600060208284031215611b6f57611b6e6115b2565b5b6000611b7d8482850161174d565b91505092915050565b7f4e487b7100000000000000000000000000000000000000000000000000000000600052602160045260246000fd5b60048110611bc657611bc5611b86565b5b50565b6000819050611bd782611bb5565b919050565b6000611be782611bc9565b9050919050565b611bf781611bdc565b82525050565b6000602082019050611c126000830184611bee565b92915050565b60008060408385031215611c2f57611c2e6115b2565b5b6000611c3d8582860161174d565b9250506020611c4e85828601611909565b9150509250929050565b60008060008060808587031215611c7257611c716115b2565b5b6000611c808782880161174d565b9450506020611c91878288016119b1565b935050604085013567ffffffffffffffff811115611cb257611cb16115b7565b5b611cbe878288016118ba565b9250506060611ccf87828801611909565b91505092959194509250565b600082825260208201905092915050565b7f416363657373436f6e74726f6c3a2063616e206f6e6c792072656e6f756e636560008201527f20726f6c657320666f722073656c660000000000000000000000000000000000602082015250565b6000611d48602f83611cdb565b9150611d5382611cec565b604082019050919050565b60006020820190508181036000830152611d7781611d3b565b9050919050565b611d8781611724565b82525050565b6000604082019050611da26000830185611681565b611daf6020830184611d7e565b9392505050565b7f416363657373436f6e74726f6c3a2063616c6c6572206973206e6f7420616e2060008201527f61646d696e000000000000000000000000000000000000000000000000000000602082015250565b6000611e12602583611cdb565b9150611e1d82611db6565b604082019050919050565b60006020820190508181036000830152611e4181611e05565b9050919050565b611e51816118e8565b82525050565b6000606082019050611e6c6000830186611d7e565b611e796020830185611e48565b611e866040830184611bee565b949350505050565b7f556e617574686f72697a65640000000000000000000000000000000000000000600082015250565b6000611ec4600c83611cdb565b9150611ecf82611e8e565b602082019050919050565b60006020820190508181036000830152611ef381611eb7565b9050919050565b6000819050919050565b6000611f1f611f1a611f1584611704565b611efa565b611704565b9050919050565b6000611f3182611f04565b9050919050565b6000611f4382611f26565b9050919050565b611f5381611f38565b82525050565b600060a082019050611f6e6000830188611f4a565b611f7b6020830187611d7e565b611f886040830186611d7e565b611f956060830185611e48565b611fa26080830184611e48565b9695505050505050565b600082825260208201905092915050565b50565b6000611fcd600083611fac565b9150611fd882611fbd565b600082019050919050565b600060a082019050611ff86000830187611d7e565b6120056020830186611d7e565b6120126040830185611e48565b61201f6060830184611e48565b818103608083015261203081611fc0565b905095945050505050565b60006040820190506120506000830185611d7e565b61205d6020830184611bee565b9392505050565b600081905092915050565b7f416363657373436f6e74726f6c3a206163636f756e7420000000000000000000600082015250565b60006120a5601783612064565b91506120b08261206f565b601782019050919050565b600081519050919050565b60005b838110156120e45780820151818401526020810190506120c9565b60008484015250505050565b60006120fb826120bb565b6121058185612064565b93506121158185602086016120c6565b80840191505092915050565b7f206973206d697373696e6720726f6c6520000000000000000000000000000000600082015250565b6000612157601183612064565b915061216282612121565b601182019050919050565b600061217882612098565b915061218482856120f0565b915061218f8261214a565b915061219b82846120f0565b91508190509392505050565b60006121b2826120bb565b6121bc8185611cdb565b93506121cc8185602086016120c6565b6121d5816117ac565b840191505092915050565b600060208201905081810360008301526121fa81846121a7565b905092915050565b7f5369676e61747572652068617320657870697265640000000000000000000000600082015250565b6000612238601583611cdb565b915061224382612202565b602082019050919050565b600060208201905081810360008301526122678161222b565b9050919050565b6000819050919050565b61228961228482611677565b61226e565b82525050565b60008160601b9050919050565b60006122a78261228f565b9050919050565b60006122b98261229c565b9050919050565b6122d16122cc82611724565b6122ae565b82525050565b6000819050919050565b6122f26122ed826118e8565b6122d7565b82525050565b6000819050919050565b61231361230e826115bc565b6122f8565b82525050565b600081519050919050565b600081905092915050565b600061233a82612319565b6123448185612324565b93506123548185602086016120c6565b80840191505092915050565b600061236c8288612278565b60208201915061237c82876122c0565b60148201915061238c82866122e1565b60208201915061239c8285612302565b6004820191506123ac828461232f565b91508190509695505050505050565b7f4e487b7100000000000000000000000000000000000000000000000000000000600052601160045260246000fd5b60006123f5826118e8565b9150612400836118e8565b925082820261240e816118e8565b91508282048414831517612425576124246123bb565b5b5092915050565b6000612437826118e8565b9150612442836118e8565b925082820190508082111561245a576124596123bb565b5b92915050565b7f4e487b7100000000000000000000000000000000000000000000000000000000600052603260045260246000fd5b600061249a826118e8565b9150600082036124ad576124ac6123bb565b5b600182039050919050565b7f537472696e67733a20686578206c656e67746820696e73756666696369656e74600082015250565b60006124ee602083611cdb565b91506124f9826124b8565b602082019050919050565b6000602082019050818103600083015261251d816124e1565b9050919050565b7f45434453413a20696e76616c6964207369676e61747572650000000000000000600082015250565b600061255a601883611cdb565b915061256582612524565b602082019050919050565b600060208201905081810360008301526125898161254d565b9050919050565b7f45434453413a20696e76616c6964207369676e6174757265206c656e67746800600082015250565b60006125c6601f83611cdb565b91506125d182612590565b602082019050919050565b600060208201905081810360008301526125f5816125b9565b9050919050565b7f45434453413a20696e76616c6964207369676e6174757265202773272076616c60008201527f7565000000000000000000000000000000000000000000000000000000000000602082015250565b6000612658602283611cdb565b9150612663826125fc565b604082019050919050565b600060208201905081810360008301526126878161264b565b9050919050565b600060ff82169050919050565b6126a48161268e565b82525050565b60006080820190506126bf6000830187611681565b6126cc602083018661269b565b6126d96040830185611681565b6126e66060830184611681565b9594505050505056fea2646970667358221220574080ff547b65874cf2389d46502e20bf0bfffa4ab39daef530f06889bd86e464736f6c63430008110033a2646970667358221220cb6ff7ddb2ce42a41865bd349eb3a811e976c2c883579ebb067db3ac0729c66e64736f6c63430008110033",
  "linkReferences": {},
  "deployedLinkReferences": {}
}