{
  "_format": "hh-sol-artifact-1",
  "contractName": "OrganizationFactory",
  "sourceName": "contracts/OrganizationFactory.sol",
  "abi": [
    {
      "inputs": [
        {
          "internalType": "address",
          "name": "_paymaster",
          "type": "address"
        }
      ],
      "stateMutability": "nonpayable",
      "type": "constructor"
    },
    {
      "anonymous": false,
      "inputs": [
        {
          "indexed": true,
          "internalType": "address",
          "name": "creator",
          "type": "address"
        },
        {
          "indexed": true,
          "internalType": "address",
          "name": "organization",
          "type": "address"
        }
      ],
      "name": "OrganizationCreated",
      "type": "event"
    },
    {
      "anonymous": false,
      "inputs": [
        {
          "indexed": true,
          "internalType": "bytes32",
          "name": "role",
          "type": "bytes32"
        },
        {
          "indexed": true,
          "internalType": "bytes32",
          "name": "previousAdminRole",
          "type": "bytes32"
        },
        {
          "indexed": true,
          "internalType": "bytes32",
          "name": "newAdminRole",
          "type": "bytes32"
        }
      ],
      "name": "RoleAdminChanged",
      "type": "event"
    },
    {
      "anonymous": false,
      "inputs": [
        {
          "indexed": true,
          "internalType": "bytes32",
          "name": "role",
          "type": "bytes32"
        },
        {
          "indexed": true,
          "internalType": "address",
          "name": "account",
          "type": "address"
        },
        {
          "indexed": true,
          "internalType": "address",
          "name": "sender",
          "type": "address"
        }
      ],
      "name": "RoleGranted",
      "type": "event"
    },
    {
      "anonymous": false,
      "inputs": [
        {
          "indexed": true,
          "internalType": "bytes32",
          "name": "role",
          "type": "bytes32"
        },
        {
          "indexed": true,
          "internalType": "address",
          "name": "account",
          "type": "address"
        },
        {
          "indexed": true,
          "internalType": "address",
          "name": "sender",
          "type": "address"
        }
      ],
      "name": "RoleRevoked",
      "type": "event"
    },
    {
      "inputs": [],
      "name": "ADMIN_ROLE",
      "outputs": [
        {
          "internalType": "bytes32",
          "name": "",
          "type": "bytes32"
        }
      ],
      "stateMutability": "view",
      "type": "function"
    },
    {
      "inputs": [],
      "name": "DEFAULT_ADMIN_ROLE",
      "outputs": [
        {
          "internalType": "bytes32",
          "name": "",
          "type": "bytes32"
        }
      ],
      "stateMutability": "view",
      "type": "function"
    },
    {
      "inputs": [],
      "name": "PayMaster",
      "outputs": [
        {
          "internalType": "address",
          "name": "",
          "type": "address"
        }
      ],
      "stateMutability": "view",
      "type": "function"
    },
    {
      "inputs": [
        {
          "components": [
            {
              "internalType": "bytes",
              "name": "encodedMessage",
              "type": "bytes"
            },
            {
              "internalType": "bytes32",
              "name": "messageHash",
              "type": "bytes32"
            },
            {
              "internalType": "bytes",
              "name": "signature",
              "type": "bytes"
            },
            {
              "internalType": "address",
              "name": "signer",
              "type": "address"
            }
          ],
          "internalType": "struct SignatureVerifier.Signature",
          "name": "signature",
          "type": "tuple"
        },
        {
          "internalType": "address",
          "name": "_admin",
          "type": "address"
        }
      ],
      "name": "createOrganization",
      "outputs": [
        {
          "internalType": "address",
          "name": "",
          "type": "address"
        }
      ],
      "stateMutability": "nonpayable",
      "type": "function"
    },
    {
      "inputs": [
        {
          "internalType": "uint256",
          "name": "index",
          "type": "uint256"
        }
      ],
      "name": "getOrganization",
      "outputs": [
        {
          "internalType": "address",
          "name": "",
          "type": "address"
        }
      ],
      "stateMutability": "view",
      "type": "function"
    },
    {
      "inputs": [],
      "name": "getOrganizationCount",
      "outputs": [
        {
          "internalType": "uint256",
          "name": "",
          "type": "uint256"
        }
      ],
      "stateMutability": "view",
      "type": "function"
    },
    {
      "inputs": [
        {
          "internalType": "bytes32",
          "name": "role",
          "type": "bytes32"
        }
      ],
      "name": "getRoleAdmin",
      "outputs": [
        {
          "internalType": "bytes32",
          "name": "",
          "type": "bytes32"
        }
      ],
      "stateMutability": "view",
      "type": "function"
    },
    {
      "inputs": [
        {
          "internalType": "bytes32",
          "name": "role",
          "type": "bytes32"
        },
        {
          "internalType": "address",
          "name": "account",
          "type": "address"
        }
      ],
      "name": "grantRole",
      "outputs": [],
      "stateMutability": "nonpayable",
      "type": "function"
    },
    {
      "inputs": [
        {
          "components": [
            {
              "internalType": "bytes",
              "name": "encodedMessage",
              "type": "bytes"
            },
            {
              "internalType": "bytes32",
              "name": "messageHash",
              "type": "bytes32"
            },
            {
              "internalType": "bytes",
              "name": "signature",
              "type": "bytes"
            },
            {
              "internalType": "address",
              "name": "signer",
              "type": "address"
            }
          ],
          "internalType": "struct SignatureVerifier.Signature",
          "name": "signature",
          "type": "tuple"
        },
        {
          "internalType": "bytes32",
          "name": "role",
          "type": "bytes32"
        },
        {
          "internalType": "address",
          "name": "account",
          "type": "address"
        }
      ],
      "name": "grantRolebySignature",
      "outputs": [],
      "stateMutability": "nonpayable",
      "type": "function"
    },
    {
      "inputs": [
        {
          "internalType": "bytes32",
          "name": "role",
          "type": "bytes32"
        },
        {
          "internalType": "address",
          "name": "account",
          "type": "address"
        }
      ],
      "name": "hasRole",
      "outputs": [
        {
          "internalType": "bool",
          "name": "",
          "type": "bool"
        }
      ],
      "stateMutability": "view",
      "type": "function"
    },
    {
      "inputs": [
        {
          "internalType": "uint256",
          "name": "",
          "type": "uint256"
        }
      ],
      "name": "organizations",
      "outputs": [
        {
          "internalType": "address",
          "name": "",
          "type": "address"
        }
      ],
      "stateMutability": "view",
      "type": "function"
    },
    {
      "inputs": [
        {
          "internalType": "bytes32",
          "name": "role",
          "type": "bytes32"
        },
        {
          "internalType": "address",
          "name": "account",
          "type": "address"
        }
      ],
      "name": "renounceRole",
      "outputs": [],
      "stateMutability": "nonpayable",
      "type": "function"
    },
    {
      "inputs": [
        {
          "internalType": "bytes32",
          "name": "role",
          "type": "bytes32"
        },
        {
          "internalType": "address",
          "name": "account",
          "type": "address"
        }
      ],
      "name": "revokeRole",
      "outputs": [],
      "stateMutability": "nonpayable",
      "type": "function"
    },
    {
      "inputs": [
        {
          "components": [
            {
              "internalType": "bytes",
              "name": "encodedMessage",
              "type": "bytes"
            },
            {
              "internalType": "bytes32",
              "name": "messageHash",
              "type": "bytes32"
            },
            {
              "internalType": "bytes",
              "name": "signature",
              "type": "bytes"
            },
            {
              "internalType": "address",
              "name": "signer",
              "type": "address"
            }
          ],
          "internalType": "struct SignatureVerifier.Signature",
          "name": "signature",
          "type": "tuple"
        },
        {
          "internalType": "bytes32",
          "name": "role",
          "type": "bytes32"
        },
        {
          "internalType": "address",
          "name": "account",
          "type": "address"
        }
      ],
      "name": "revokeRolebySignature",
      "outputs": [],
      "stateMutability": "nonpayable",
      "type": "function"
    },
    {
      "inputs": [
        {
          "components": [
            {
              "internalType": "bytes",
              "name": "encodedMessage",
              "type": "bytes"
            },
            {
              "internalType": "bytes32",
              "name": "messageHash",
              "type": "bytes32"
            },
            {
              "internalType": "bytes",
              "name": "signature",
              "type": "bytes"
            },
            {
              "internalType": "address",
              "name": "signer",
              "type": "address"
            }
          ],
          "internalType": "struct SignatureVerifier.Signature",
          "name": "signature",
          "type": "tuple"
        },
        {
          "internalType": "address",
          "name": "_paymaster",
          "type": "address"
        }
      ],
      "name": "setPayMaster",
      "outputs": [],
      "stateMutability": "nonpayable",
      "type": "function"
    },
    {
      "inputs": [
        {
          "internalType": "bytes4",
          "name": "interfaceId",
          "type": "bytes4"
        }
      ],
      "name": "supportsInterface",
      "outputs": [
        {
          "internalType": "bool",
          "name": "",
          "type": "bool"
        }
      ],
      "stateMutability": "view",
      "type": "function"
    }
  ],
  "bytecode": "0x60806040523480156200001157600080fd5b50604051620040e9380380620040e983398101604081905262000034916200013f565b600180546001600160a01b0319166001600160a01b0383161790556200005c6000336200008f565b620000887fa49807205ce4d355092ef5a8a18f56e8913cf4a201fbe287825b095693c21775336200008f565b5062000171565b6200009b82826200009f565b5050565b6000828152602081815260408083206001600160a01b038516845290915290205460ff166200009b576000828152602081815260408083206001600160a01b03851684529091529020805460ff19166001179055620000fb3390565b6001600160a01b0316816001600160a01b0316837f2f8788117e7eff1d82e926ec794901d17c78024a50270940304540a733656f0d60405160405180910390a45050565b6000602082840312156200015257600080fd5b81516001600160a01b03811681146200016a57600080fd5b9392505050565b613f6880620001816000396000f3fe60806040523480156200001157600080fd5b5060043610620001155760003560e01c806375b238fc11620000a3578063d547741f116200006e578063d547741f1462000291578063e2556b5a14620002a8578063e792dd8a14620002bf578063f4d8e6ec14620002d657600080fd5b806375b238fc146200021257806391d14854146200023a578063a0f07c0e1462000274578063a217fddf146200028857600080fd5b80632f2ff15d11620000e45780632f2ff15d14620001c457806336568abe14620001db5780634526f69014620001f25780635734e5e3146200020957600080fd5b806301ffc9a7146200011a5780630a8a99b41462000146578063246fd6d8146200015f578063248a9ca3146200018f575b600080fd5b620001316200012b3660046200167f565b620002ed565b60405190151581526020015b60405180910390f35b6200015d6200015736600462001838565b62000387565b005b620001766200017036600462001899565b620005c5565b6040516001600160a01b0390911681526020016200013d565b620001b5620001a0366004620018f1565b60009081526020819052604090206001015490565b6040519081526020016200013d565b6200015d620001d53660046200190b565b620008f1565b6200015d620001ec3660046200190b565b6200091f565b6200017662000203366004620018f1565b620009af565b600254620001b5565b620001b57fa49807205ce4d355092ef5a8a18f56e8913cf4a201fbe287825b095693c2177581565b620001316200024b3660046200190b565b6000918252602082815260408084206001600160a01b0393909316845291905290205460ff1690565b60015462000176906001600160a01b031681565b620001b5600081565b6200015d620002a23660046200190b565b62000a36565b6200015d620002b936600462001838565b62000a5f565b62000176620002d0366004620018f1565b62000c8f565b6200015d620002e736600462001899565b62000cba565b60007fffffffff0000000000000000000000000000000000000000000000000000000082167f7965db0b0000000000000000000000000000000000000000000000000000000014806200038157507f01ffc9a7000000000000000000000000000000000000000000000000000000007fffffffff000000000000000000000000000000000000000000000000000000008316145b92915050565b602083015183516000918591620003a390805160209091012090565b146200040b5760405162461bcd60e51b815260206004820152602c60248201527f546865206d657373616765206861736820646f65736e2774206d61746368207460448201526b6865206f726967696e616c2160a01b60648201526084015b60405180910390fd5b602080820151604080517f19457468657265756d205369676e6564204d6573736167653a0a33320000000081850152603c8082019390935281518082039093018352605c019052805191012060006200046982846040015162000f3f565b905082606001516001600160a01b0316816001600160a01b031614620004c35760405162461bcd60e51b815260206004820152600e60248201526d24b73b30b634b21039b4b3b732b960911b604482015260640162000402565b336001600160a01b0382161480620004e557506001546001600160a01b031633145b620005245760405162461bcd60e51b815260206004820152600e60248201526d24b73b30b634b21039b2b73232b960911b604482015260640162000402565b6000848152602081815260408083206001600160a01b038516845290915290205460ff16620005855760405162461bcd60e51b815260206004820152600c60248201526b155b985d5d1a1bdc9a5e995960a21b604482015260640162000402565b60008360000151806020019051810190620005a1919062001933565b9050620005ae8162000f67565b50620005bb878762001023565b5050505050505050565b60007fa49807205ce4d355092ef5a8a18f56e8913cf4a201fbe287825b095693c21775838060200151620006028260000151805160209091012090565b14620006665760405162461bcd60e51b815260206004820152602c60248201527f546865206d657373616765206861736820646f65736e2774206d61746368207460448201526b6865206f726967696e616c2160a01b606482015260840162000402565b602080820151604080517f19457468657265756d205369676e6564204d6573736167653a0a33320000000081850152603c8082019390935281518082039093018352605c01905280519101206000620006c482846040015162000f3f565b905082606001516001600160a01b0316816001600160a01b0316146200071e5760405162461bcd60e51b815260206004820152600e60248201526d24b73b30b634b21039b4b3b732b960911b604482015260640162000402565b336001600160a01b03821614806200074057506001546001600160a01b031633145b6200077f5760405162461bcd60e51b815260206004820152600e60248201526d24b73b30b634b21039b2b73232b960911b604482015260640162000402565b6000848152602081815260408083206001600160a01b038516845290915290205460ff16620007e05760405162461bcd60e51b815260206004820152600c60248201526b155b985d5d1a1bdc9a5e995960a21b604482015260640162000402565b60008360000151806020019051810190620007fc919062001933565b9050620008098162000f67565b506001546040516000916001600160a01b03169089906200082a9062001671565b6001600160a01b03928316815291166020820152604001604051809103906000f0801580156200085e573d6000803e3d6000fd5b506002805460018101825560009182527f405787fa12a823e0f2b7631cc41b3ba8828b3321ca811111fa75cd3aa3bb5ace01805473ffffffffffffffffffffffffffffffffffffffff19166001600160a01b0384169081179091556040519293509133917f2725ca0bb6f842da395a595005373aaa8e052b21133359b3c75f59a1247e6e7a91a398975050505050505050565b6000828152602081905260409020600101546200090e81620010c3565b6200091a838362001023565b505050565b6001600160a01b03811633146200099f5760405162461bcd60e51b815260206004820152602f60248201527f416363657373436f6e74726f6c3a2063616e206f6e6c792072656e6f756e636560448201527f20726f6c657320666f722073656c660000000000000000000000000000000000606482015260840162000402565b620009ab8282620010d2565b5050565b600254600090821062000a055760405162461bcd60e51b815260206004820152601360248201527f496e646578206f7574206f6620626f756e647300000000000000000000000000604482015260640162000402565b6002828154811062000a1b5762000a1b62001991565b6000918252602090912001546001600160a01b031692915050565b60008281526020819052604090206001015462000a5381620010c3565b6200091a8383620010d2565b60208301518351600091859162000a7b90805160209091012090565b1462000adf5760405162461bcd60e51b815260206004820152602c60248201527f546865206d657373616765206861736820646f65736e2774206d61746368207460448201526b6865206f726967696e616c2160a01b606482015260840162000402565b602080820151604080517f19457468657265756d205369676e6564204d6573736167653a0a33320000000081850152603c8082019390935281518082039093018352605c0190528051910120600062000b3d82846040015162000f3f565b905082606001516001600160a01b0316816001600160a01b03161462000b975760405162461bcd60e51b815260206004820152600e60248201526d24b73b30b634b21039b4b3b732b960911b604482015260640162000402565b336001600160a01b038216148062000bb957506001546001600160a01b031633145b62000bf85760405162461bcd60e51b815260206004820152600e60248201526d24b73b30b634b21039b2b73232b960911b604482015260640162000402565b6000848152602081815260408083206001600160a01b038516845290915290205460ff1662000c595760405162461bcd60e51b815260206004820152600c60248201526b155b985d5d1a1bdc9a5e995960a21b604482015260640162000402565b6000836000015180602001905181019062000c75919062001933565b905062000c828162000f67565b50620005bb8787620010d2565b6002818154811062000ca057600080fd5b6000918252602090912001546001600160a01b0316905081565b60208201518251600091849162000cd690805160209091012090565b1462000d3a5760405162461bcd60e51b815260206004820152602c60248201527f546865206d657373616765206861736820646f65736e2774206d61746368207460448201526b6865206f726967696e616c2160a01b606482015260840162000402565b602080820151604080517f19457468657265756d205369676e6564204d6573736167653a0a33320000000081850152603c8082019390935281518082039093018352605c0190528051910120600062000d9882846040015162000f3f565b905082606001516001600160a01b0316816001600160a01b03161462000df25760405162461bcd60e51b815260206004820152600e60248201526d24b73b30b634b21039b4b3b732b960911b604482015260640162000402565b336001600160a01b038216148062000e1457506001546001600160a01b031633145b62000e535760405162461bcd60e51b815260206004820152600e60248201526d24b73b30b634b21039b2b73232b960911b604482015260640162000402565b6000848152602081815260408083206001600160a01b038516845290915290205460ff1662000eb45760405162461bcd60e51b815260206004820152600c60248201526b155b985d5d1a1bdc9a5e995960a21b604482015260640162000402565b6000836000015180602001905181019062000ed0919062001933565b905062000edd8162000f67565b506000876000015180602001905181019062000efa919062001933565b905062000f078162000f67565b50506001805473ffffffffffffffffffffffffffffffffffffffff19166001600160a01b039790971696909617909555505050505050565b600080600062000f50858562001152565b9150915062000f5f816200119b565b509392505050565b80516000906001600160a01b0316301462000fc55760405162461bcd60e51b815260206004820152601c60248201527f546172676574206164647265737320646f65736e2774206d6174636800000000604482015260640162000402565b43826020015110156200101b5760405162461bcd60e51b815260206004820152601260248201527f4d65737361676520697320657870697265640000000000000000000000000000604482015260640162000402565b506001919050565b6000828152602081815260408083206001600160a01b038516845290915290205460ff16620009ab576000828152602081815260408083206001600160a01b03851684529091529020805460ff191660011790556200107f3390565b6001600160a01b0316816001600160a01b0316837f2f8788117e7eff1d82e926ec794901d17c78024a50270940304540a733656f0d60405160405180910390a45050565b620010cf813362001313565b50565b6000828152602081815260408083206001600160a01b038516845290915290205460ff1615620009ab576000828152602081815260408083206001600160a01b0385168085529252808320805460ff1916905551339285917ff6391f5c32d9c69d2a47ea670b442974b53935d1edc7fd64eb21e047a839171b9190a45050565b60008082516041036200118c5760208301516040840151606085015160001a6200117f878285856200138f565b9450945050505062001194565b506000905060025b9250929050565b6000816004811115620011b257620011b2620019a7565b03620011bb5750565b6001816004811115620011d257620011d2620019a7565b03620012215760405162461bcd60e51b815260206004820152601860248201527f45434453413a20696e76616c6964207369676e61747572650000000000000000604482015260640162000402565b6002816004811115620012385762001238620019a7565b03620012875760405162461bcd60e51b815260206004820152601f60248201527f45434453413a20696e76616c6964207369676e6174757265206c656e67746800604482015260640162000402565b60038160048111156200129e576200129e620019a7565b03620010cf5760405162461bcd60e51b815260206004820152602260248201527f45434453413a20696e76616c6964207369676e6174757265202773272076616c60448201527f7565000000000000000000000000000000000000000000000000000000000000606482015260840162000402565b6000828152602081815260408083206001600160a01b038516845290915290205460ff16620009ab57620013478162001458565b620013548360206200146b565b60405160200162001367929190620019e3565b60408051601f198184030181529082905262461bcd60e51b8252620004029160040162001a68565b6000807f7fffffffffffffffffffffffffffffff5d576e7357a4501ddfe92f46681b20a0831115620013c857506000905060036200144f565b6040805160008082526020820180845289905260ff881692820192909252606081018690526080810185905260019060a0016020604051602081039080840390855afa1580156200141d573d6000803e3d6000fd5b5050604051601f1901519150506001600160a01b03811662001448576000600192509250506200144f565b9150600090505b94509492505050565b6060620003816001600160a01b03831660145b606060006200147c83600262001ab3565b6200148990600262001acd565b67ffffffffffffffff811115620014a457620014a4620016c3565b6040519080825280601f01601f191660200182016040528015620014cf576020820181803683370190505b5090507f30000000000000000000000000000000000000000000000000000000000000008160008151811062001509576200150962001991565b60200101906001600160f81b031916908160001a9053507f78000000000000000000000000000000000000000000000000000000000000008160018151811062001557576200155762001991565b60200101906001600160f81b031916908160001a90535060006200157d84600262001ab3565b6200158a90600162001acd565b90505b600181111562001619577f303132333435363738396162636465660000000000000000000000000000000085600f1660108110620015cf57620015cf62001991565b1a60f81b828281518110620015e857620015e862001991565b60200101906001600160f81b031916908160001a90535060049490941c93620016118162001ae3565b90506200158d565b5083156200166a5760405162461bcd60e51b815260206004820181905260248201527f537472696e67733a20686578206c656e67746820696e73756666696369656e74604482015260640162000402565b9392505050565b6124358062001afe83390190565b6000602082840312156200169257600080fd5b81357fffffffff00000000000000000000000000000000000000000000000000000000811681146200166a57600080fd5b634e487b7160e01b600052604160045260246000fd5b600082601f830112620016eb57600080fd5b813567ffffffffffffffff80821115620017095762001709620016c3565b604051601f8301601f19908116603f01168101908282118183101715620017345762001734620016c3565b816040528381528660208588010111156200174e57600080fd5b836020870160208301376000602085830101528094505050505092915050565b6001600160a01b0381168114620010cf57600080fd5b6000608082840312156200179757600080fd5b6040516080810167ffffffffffffffff8282108183111715620017be57620017be620016c3565b816040528293508435915080821115620017d757600080fd5b620017e586838701620016d9565b83526020850135602084015260408501359150808211156200180657600080fd5b506200181585828601620016d9565b60408301525060608301356200182b816200176e565b6060919091015292915050565b6000806000606084860312156200184e57600080fd5b833567ffffffffffffffff8111156200186657600080fd5b620018748682870162001784565b9350506020840135915060408401356200188e816200176e565b809150509250925092565b60008060408385031215620018ad57600080fd5b823567ffffffffffffffff811115620018c557600080fd5b620018d38582860162001784565b9250506020830135620018e6816200176e565b809150509250929050565b6000602082840312156200190457600080fd5b5035919050565b600080604083850312156200191f57600080fd5b823591506020830135620018e6816200176e565b6000604082840312156200194657600080fd5b6040516040810181811067ffffffffffffffff821117156200196c576200196c620016c3565b60405282516200197c816200176e565b81526020928301519281019290925250919050565b634e487b7160e01b600052603260045260246000fd5b634e487b7160e01b600052602160045260246000fd5b60005b83811015620019da578181015183820152602001620019c0565b50506000910152565b7f416363657373436f6e74726f6c3a206163636f756e742000000000000000000081526000835162001a1d816017850160208801620019bd565b7f206973206d697373696e6720726f6c6520000000000000000000000000000000601791840191820152835162001a5c816028840160208801620019bd565b01602801949350505050565b602081526000825180602084015262001a89816040850160208701620019bd565b601f01601f19169190910160400192915050565b634e487b7160e01b600052601160045260246000fd5b808202811582820484141762000381576200038162001a9d565b8082018082111562000381576200038162001a9d565b60008162001af55762001af562001a9d565b50600019019056fe60806040523480156200001157600080fd5b5060405162002435380380620024358339810160408190526200003491620001fe565b600180546001600160a01b0319166001600160a01b0384161790556200005c600082620000e6565b620000776000805160206200241583398151915282620000e6565b620000a37f8502233096d909befbda0999bb8ea2f3a6be3c138b9fbf003752a4c8bce86f6c82620000e6565b620000de7f8502233096d909befbda0999bb8ea2f3a6be3c138b9fbf003752a4c8bce86f6c60008051602062002415833981519152620000f6565b505062000236565b620000f2828262000141565b5050565b600082815260208190526040808220600101805490849055905190918391839186917fbd79b86ffe0ab8e8776151514217cd7cacd52c909f66475c3af44e129f0b00ff9190a4505050565b6000828152602081815260408083206001600160a01b038516845290915290205460ff16620000f2576000828152602081815260408083206001600160a01b03851684529091529020805460ff191660011790556200019d3390565b6001600160a01b0316816001600160a01b0316837f2f8788117e7eff1d82e926ec794901d17c78024a50270940304540a733656f0d60405160405180910390a45050565b80516001600160a01b0381168114620001f957600080fd5b919050565b600080604083850312156200021257600080fd5b6200021d83620001e1565b91506200022d60208401620001e1565b90509250929050565b6121cf80620002466000396000f3fe608060405234801561001057600080fd5b50600436106101825760003560e01c8063a0f07c0e116100d8578063e2556b5a1161008c578063f4d8e6ec11610066578063f4d8e6ec146103b6578063ff2ff6c9146103c9578063ffad9950146103dc57600080fd5b8063e2556b5a14610362578063e62092be14610375578063e9d79b0e1461038857600080fd5b8063c0eb89b2116100bd578063c0eb89b214610329578063c1ddc1241461033c578063d547741f1461034f57600080fd5b8063a0f07c0e146102f6578063a217fddf1461032157600080fd5b806336568abe1161013a5780638f28f50e116101145780638f28f50e1461027c57806390000c79146102ac57806391d14854146102bf57600080fd5b806336568abe1461022f57806375b238fc1461024257806376db0fe51461026957600080fd5b8063206b60f91161016b578063206b60f9146101c4578063248a9ca3146101f95780632f2ff15d1461021c57600080fd5b806301ffc9a7146101875780630a8a99b4146101af575b600080fd5b61019a610195366004611b83565b6103ef565b60405190151581526020015b60405180910390f35b6101c26101bd366004611d25565b610488565b005b6101eb7f8502233096d909befbda0999bb8ea2f3a6be3c138b9fbf003752a4c8bce86f6c81565b6040519081526020016101a6565b6101eb610207366004611d80565b60009081526020819052604090206001015490565b6101c261022a366004611d99565b6106b5565b6101c261023d366004611d99565b6106df565b6101eb7fa49807205ce4d355092ef5a8a18f56e8913cf4a201fbe287825b095693c2177581565b6101c2610277366004611ddd565b61076b565b61029f61028a366004611e47565b60036020526000908152604090205460ff1681565b6040516101a69190611e7a565b6101c26102ba366004611ea2565b6109ee565b61019a6102cd366004611d99565b6000918252602082815260408084206001600160a01b0393909316845291905290205460ff1690565b600154610309906001600160a01b031681565b6040516001600160a01b0390911681526020016101a6565b6101eb600081565b61029f610337366004611f02565b610c4b565b6101c261034a366004611f2e565b610cb2565b6101c261035d366004611d99565b610f8a565b6101c2610370366004611d25565b610faf565b61019a610383366004611f02565b6111cd565b61029f610396366004611f02565b600260209081526000928352604080842090915290825290205460ff1681565b6101c26103c4366004611fb5565b6111f5565b61019a6103d7366004611f02565b611471565b61019a6103ea366004611f02565b61147a565b60007fffffffff0000000000000000000000000000000000000000000000000000000082167f7965db0b00000000000000000000000000000000000000000000000000000000148061048257507f01ffc9a7000000000000000000000000000000000000000000000000000000007fffffffff000000000000000000000000000000000000000000000000000000008316145b92915050565b6020830151835160009185916104a390805160209091012090565b1461050a5760405162461bcd60e51b815260206004820152602c60248201527f546865206d657373616765206861736820646f65736e2774206d61746368207460448201526b6865206f726967696e616c2160a01b60648201526084015b60405180910390fd5b602080820151604080517f19457468657265756d205369676e6564204d6573736167653a0a33320000000081850152603c8082019390935281518082039093018352605c019052805191012060006105668284604001516114a2565b905082606001516001600160a01b0316816001600160a01b0316146105be5760405162461bcd60e51b815260206004820152600e60248201526d24b73b30b634b21039b4b3b732b960911b6044820152606401610501565b336001600160a01b03821614806105df57506001546001600160a01b031633145b61061c5760405162461bcd60e51b815260206004820152600e60248201526d24b73b30b634b21039b2b73232b960911b6044820152606401610501565b6000848152602081815260408083206001600160a01b038516845290915290205460ff1661067b5760405162461bcd60e51b815260206004820152600c60248201526b155b985d5d1a1bdc9a5e995960a21b6044820152606401610501565b600083600001518060200190518101906106959190611ffc565b90506106a0816114c6565b506106ab878761157e565b5050505050505050565b6000828152602081905260409020600101546106d08161161c565b6106da838361157e565b505050565b6001600160a01b038116331461075d5760405162461bcd60e51b815260206004820152602f60248201527f416363657373436f6e74726f6c3a2063616e206f6e6c792072656e6f756e636560448201527f20726f6c657320666f722073656c6600000000000000000000000000000000006064820152608401610501565b6107678282611629565b5050565b7fa49807205ce4d355092ef5a8a18f56e8913cf4a201fbe287825b095693c217758480602001516107a58260000151805160209091012090565b146108075760405162461bcd60e51b815260206004820152602c60248201527f546865206d657373616765206861736820646f65736e2774206d61746368207460448201526b6865206f726967696e616c2160a01b6064820152608401610501565b602080820151604080517f19457468657265756d205369676e6564204d6573736167653a0a33320000000081850152603c8082019390935281518082039093018352605c019052805191012060006108638284604001516114a2565b905082606001516001600160a01b0316816001600160a01b0316146108bb5760405162461bcd60e51b815260206004820152600e60248201526d24b73b30b634b21039b4b3b732b960911b6044820152606401610501565b336001600160a01b03821614806108dc57506001546001600160a01b031633145b6109195760405162461bcd60e51b815260206004820152600e60248201526d24b73b30b634b21039b2b73232b960911b6044820152606401610501565b6000848152602081815260408083206001600160a01b038516845290915290205460ff166109785760405162461bcd60e51b815260206004820152600c60248201526b155b985d5d1a1bdc9a5e995960a21b6044820152606401610501565b600083600001518060200190518101906109929190611ffc565b905061099d816114c6565b506001600160a01b03881660009081526002602090815260408083208a84529091529020805487919060ff191660018360038111156109de576109de611e64565b0217905550505050505050505050565b602083015183516000918591610a0990805160209091012090565b14610a6b5760405162461bcd60e51b815260206004820152602c60248201527f546865206d657373616765206861736820646f65736e2774206d61746368207460448201526b6865206f726967696e616c2160a01b6064820152608401610501565b602080820151604080517f19457468657265756d205369676e6564204d6573736167653a0a33320000000081850152603c8082019390935281518082039093018352605c01905280519101206000610ac78284604001516114a2565b905082606001516001600160a01b0316816001600160a01b031614610b1f5760405162461bcd60e51b815260206004820152600e60248201526d24b73b30b634b21039b4b3b732b960911b6044820152606401610501565b336001600160a01b0382161480610b4057506001546001600160a01b031633145b610b7d5760405162461bcd60e51b815260206004820152600e60248201526d24b73b30b634b21039b2b73232b960911b6044820152606401610501565b6000848152602081815260408083206001600160a01b038516845290915290205460ff16610bdc5760405162461bcd60e51b815260206004820152600c60248201526b155b985d5d1a1bdc9a5e995960a21b6044820152606401610501565b60008360000151806020019051810190610bf69190611ffc565b9050610c01816114c6565b506001600160a01b03871660009081526003602081905260409091208054889260ff19909116906001908490811115610c3c57610c3c611e64565b02179055505050505050505050565b6001600160a01b038216600090815260026020908152604080832084845290915281205460ff1681816003811115610c8557610c85611e64565b14610c91579050610482565b5050506001600160a01b031660009081526003602052604090205460ff1690565b7f8502233096d909befbda0999bb8ea2f3a6be3c138b9fbf003752a4c8bce86f6c868060200151610cec8260000151805160209091012090565b14610d4e5760405162461bcd60e51b815260206004820152602c60248201527f546865206d657373616765206861736820646f65736e2774206d61746368207460448201526b6865206f726967696e616c2160a01b6064820152608401610501565b602080820151604080517f19457468657265756d205369676e6564204d6573736167653a0a33320000000081850152603c8082019390935281518082039093018352605c01905280519101206000610daa8284604001516114a2565b905082606001516001600160a01b0316816001600160a01b031614610e025760405162461bcd60e51b815260206004820152600e60248201526d24b73b30b634b21039b4b3b732b960911b6044820152606401610501565b336001600160a01b0382161480610e2357506001546001600160a01b031633145b610e605760405162461bcd60e51b815260206004820152600e60248201526d24b73b30b634b21039b2b73232b960911b6044820152606401610501565b6000848152602081815260408083206001600160a01b038516845290915290205460ff16610ebf5760405162461bcd60e51b815260206004820152600c60248201526b155b985d5d1a1bdc9a5e995960a21b6044820152606401610501565b60008360000151806020019051810190610ed99190611ffc565b9050610ee4816114c6565b506040517ff242432a0000000000000000000000000000000000000000000000000000000081526001600160a01b038a811660048301528981166024830152604482018990526064820188905260a06084830152600060a48301528b169063f242432a9060c401600060405180830381600087803b158015610f6557600080fd5b505af1158015610f79573d6000803e3d6000fd5b505050505050505050505050505050565b600082815260208190526040902060010154610fa58161161c565b6106da8383611629565b602083015183516000918591610fca90805160209091012090565b1461102c5760405162461bcd60e51b815260206004820152602c60248201527f546865206d657373616765206861736820646f65736e2774206d61746368207460448201526b6865206f726967696e616c2160a01b6064820152608401610501565b602080820151604080517f19457468657265756d205369676e6564204d6573736167653a0a33320000000081850152603c8082019390935281518082039093018352605c019052805191012060006110888284604001516114a2565b905082606001516001600160a01b0316816001600160a01b0316146110e05760405162461bcd60e51b815260206004820152600e60248201526d24b73b30b634b21039b4b3b732b960911b6044820152606401610501565b336001600160a01b038216148061110157506001546001600160a01b031633145b61113e5760405162461bcd60e51b815260206004820152600e60248201526d24b73b30b634b21039b2b73232b960911b6044820152606401610501565b6000848152602081815260408083206001600160a01b038516845290915290205460ff1661119d5760405162461bcd60e51b815260206004820152600c60248201526b155b985d5d1a1bdc9a5e995960a21b6044820152606401610501565b600083600001518060200190518101906111b79190611ffc565b90506111c2816114c6565b506106ab8787611629565b600060035b6111dc8484610c4b565b60038111156111ed576111ed611e64565b149392505050565b60208201518251600091849161121090805160209091012090565b146112725760405162461bcd60e51b815260206004820152602c60248201527f546865206d657373616765206861736820646f65736e2774206d61746368207460448201526b6865206f726967696e616c2160a01b6064820152608401610501565b602080820151604080517f19457468657265756d205369676e6564204d6573736167653a0a33320000000081850152603c8082019390935281518082039093018352605c019052805191012060006112ce8284604001516114a2565b905082606001516001600160a01b0316816001600160a01b0316146113265760405162461bcd60e51b815260206004820152600e60248201526d24b73b30b634b21039b4b3b732b960911b6044820152606401610501565b336001600160a01b038216148061134757506001546001600160a01b031633145b6113845760405162461bcd60e51b815260206004820152600e60248201526d24b73b30b634b21039b2b73232b960911b6044820152606401610501565b6000848152602081815260408083206001600160a01b038516845290915290205460ff166113e35760405162461bcd60e51b815260206004820152600c60248201526b155b985d5d1a1bdc9a5e995960a21b6044820152606401610501565b600083600001518060200190518101906113fd9190611ffc565b9050611408816114c6565b50600087600001518060200190518101906114239190611ffc565b905061142e816114c6565b5050600180547fffffffffffffffffffffffff0000000000000000000000000000000000000000166001600160a01b039790971696909617909555505050505050565b600060026111d2565b600060016114888484610c4b565b600381111561149957611499611e64565b10159392505050565b60008060006114b185856116a8565b915091506114be816116ed565b509392505050565b80516000906001600160a01b031630146115225760405162461bcd60e51b815260206004820152601c60248201527f546172676574206164647265737320646f65736e2774206d61746368000000006044820152606401610501565b43826020015110156115765760405162461bcd60e51b815260206004820152601260248201527f4d657373616765206973206578706972656400000000000000000000000000006044820152606401610501565b506001919050565b6000828152602081815260408083206001600160a01b038516845290915290205460ff16610767576000828152602081815260408083206001600160a01b03851684529091529020805460ff191660011790556115d83390565b6001600160a01b0316816001600160a01b0316837f2f8788117e7eff1d82e926ec794901d17c78024a50270940304540a733656f0d60405160405180910390a45050565b6116268133611852565b50565b6000828152602081815260408083206001600160a01b038516845290915290205460ff1615610767576000828152602081815260408083206001600160a01b0385168085529252808320805460ff1916905551339285917ff6391f5c32d9c69d2a47ea670b442974b53935d1edc7fd64eb21e047a839171b9190a45050565b60008082516041036116de5760208301516040840151606085015160001a6116d2878285856118c5565b945094505050506116e6565b506000905060025b9250929050565b600081600481111561170157611701611e64565b036117095750565b600181600481111561171d5761171d611e64565b0361176a5760405162461bcd60e51b815260206004820152601860248201527f45434453413a20696e76616c6964207369676e617475726500000000000000006044820152606401610501565b600281600481111561177e5761177e611e64565b036117cb5760405162461bcd60e51b815260206004820152601f60248201527f45434453413a20696e76616c6964207369676e6174757265206c656e677468006044820152606401610501565b60038160048111156117df576117df611e64565b036116265760405162461bcd60e51b815260206004820152602260248201527f45434453413a20696e76616c6964207369676e6174757265202773272076616c60448201527f75650000000000000000000000000000000000000000000000000000000000006064820152608401610501565b6000828152602081815260408083206001600160a01b038516845290915290205460ff166107675761188381611989565b61188e83602061199b565b60405160200161189f929190612078565b60408051601f198184030181529082905262461bcd60e51b8252610501916004016120f9565b6000807f7fffffffffffffffffffffffffffffff5d576e7357a4501ddfe92f46681b20a08311156118fc5750600090506003611980565b6040805160008082526020820180845289905260ff881692820192909252606081018690526080810185905260019060a0016020604051602081039080840390855afa158015611950573d6000803e3d6000fd5b5050604051601f1901519150506001600160a01b03811661197957600060019250925050611980565b9150600090505b94509492505050565b60606104826001600160a01b03831660145b606060006119aa836002612142565b6119b5906002612159565b67ffffffffffffffff8111156119cd576119cd611bc5565b6040519080825280601f01601f1916602001820160405280156119f7576020820181803683370190505b5090507f300000000000000000000000000000000000000000000000000000000000000081600081518110611a2e57611a2e61216c565b60200101906001600160f81b031916908160001a9053507f780000000000000000000000000000000000000000000000000000000000000081600181518110611a7957611a7961216c565b60200101906001600160f81b031916908160001a9053506000611a9d846002612142565b611aa8906001612159565b90505b6001811115611b2d577f303132333435363738396162636465660000000000000000000000000000000085600f1660108110611ae957611ae961216c565b1a60f81b828281518110611aff57611aff61216c565b60200101906001600160f81b031916908160001a90535060049490941c93611b2681612182565b9050611aab565b508315611b7c5760405162461bcd60e51b815260206004820181905260248201527f537472696e67733a20686578206c656e67746820696e73756666696369656e746044820152606401610501565b9392505050565b600060208284031215611b9557600080fd5b81357fffffffff0000000000000000000000000000000000000000000000000000000081168114611b7c57600080fd5b634e487b7160e01b600052604160045260246000fd5b600082601f830112611bec57600080fd5b813567ffffffffffffffff80821115611c0757611c07611bc5565b604051601f8301601f19908116603f01168101908282118183101715611c2f57611c2f611bc5565b81604052838152866020858801011115611c4857600080fd5b836020870160208301376000602085830101528094505050505092915050565b6001600160a01b038116811461162657600080fd5b600060808284031215611c8f57600080fd5b6040516080810167ffffffffffffffff8282108183111715611cb357611cb3611bc5565b816040528293508435915080821115611ccb57600080fd5b611cd786838701611bdb565b8352602085013560208401526040850135915080821115611cf757600080fd5b50611d0485828601611bdb565b6040830152506060830135611d1881611c68565b6060919091015292915050565b600080600060608486031215611d3a57600080fd5b833567ffffffffffffffff811115611d5157600080fd5b611d5d86828701611c7d565b935050602084013591506040840135611d7581611c68565b809150509250925092565b600060208284031215611d9257600080fd5b5035919050565b60008060408385031215611dac57600080fd5b823591506020830135611dbe81611c68565b809150509250929050565b803560048110611dd857600080fd5b919050565b60008060008060808587031215611df357600080fd5b843567ffffffffffffffff811115611e0a57600080fd5b611e1687828801611c7d565b9450506020850135611e2781611c68565b925060408501359150611e3c60608601611dc9565b905092959194509250565b600060208284031215611e5957600080fd5b8135611b7c81611c68565b634e487b7160e01b600052602160045260246000fd5b6020810160048310611e9c57634e487b7160e01b600052602160045260246000fd5b91905290565b600080600060608486031215611eb757600080fd5b833567ffffffffffffffff811115611ece57600080fd5b611eda86828701611c7d565b9350506020840135611eeb81611c68565b9150611ef960408501611dc9565b90509250925092565b60008060408385031215611f1557600080fd5b8235611f2081611c68565b946020939093013593505050565b60008060008060008060c08789031215611f4757600080fd5b863567ffffffffffffffff811115611f5e57600080fd5b611f6a89828a01611c7d565b9650506020870135611f7b81611c68565b94506040870135611f8b81611c68565b93506060870135611f9b81611c68565b9598949750929560808101359460a0909101359350915050565b60008060408385031215611fc857600080fd5b823567ffffffffffffffff811115611fdf57600080fd5b611feb85828601611c7d565b9250506020830135611dbe81611c68565b60006040828403121561200e57600080fd5b6040516040810181811067ffffffffffffffff8211171561203157612031611bc5565b604052825161203f81611c68565b81526020928301519281019290925250919050565b60005b8381101561206f578181015183820152602001612057565b50506000910152565b7f416363657373436f6e74726f6c3a206163636f756e74200000000000000000008152600083516120b0816017850160208801612054565b7f206973206d697373696e6720726f6c652000000000000000000000000000000060179184019182015283516120ed816028840160208801612054565b01602801949350505050565b6020815260008251806020840152612118816040850160208701612054565b601f01601f19169190910160400192915050565b634e487b7160e01b600052601160045260246000fd5b80820281158282048414176104825761048261212c565b808201808211156104825761048261212c565b634e487b7160e01b600052603260045260246000fd5b6000816121915761219161212c565b50600019019056fea2646970667358221220bc377ec4f92509545ab9f370912c0fa825724011cbeb859822a9e1bcfe56e59964736f6c63430008130033a49807205ce4d355092ef5a8a18f56e8913cf4a201fbe287825b095693c21775a2646970667358221220bd5b7a233ffa3f2a9905f3bf20b46df9cc3dd34fd900a27b1b6b0048234efe1464736f6c63430008130033",
  "linkReferences": {},
  "deployedLinkReferences": {}
}