{
  "_format": "hh-sol-artifact-1",
  "contractName": "$Teams",
  "sourceName": "contracts-exposed/CTeams.sol",
  "abi": [
    {
      "inputs": [
        {
          "internalType": "address",
          "name": "organisationsContract",
          "type": "address"
        }
      ],
      "stateMutability": "payable",
      "type": "constructor"
    },
    {
      "anonymous": false,
      "inputs": [
        {
          "indexed": true,
          "internalType": "address",
          "name": "owner",
          "type": "address"
        },
        {
          "indexed": true,
          "internalType": "address",
          "name": "approved",
          "type": "address"
        },
        {
          "indexed": true,
          "internalType": "uint256",
          "name": "tokenId",
          "type": "uint256"
        }
      ],
      "name": "Approval",
      "type": "event"
    },
    {
      "anonymous": false,
      "inputs": [
        {
          "indexed": true,
          "internalType": "address",
          "name": "owner",
          "type": "address"
        },
        {
          "indexed": true,
          "internalType": "address",
          "name": "operator",
          "type": "address"
        },
        {
          "indexed": false,
          "internalType": "bool",
          "name": "approved",
          "type": "bool"
        }
      ],
      "name": "ApprovalForAll",
      "type": "event"
    },
    {
      "anonymous": false,
      "inputs": [
        {
          "indexed": true,
          "internalType": "address",
          "name": "previousOwner",
          "type": "address"
        },
        {
          "indexed": true,
          "internalType": "address",
          "name": "newOwner",
          "type": "address"
        }
      ],
      "name": "OwnershipTransferred",
      "type": "event"
    },
    {
      "anonymous": false,
      "inputs": [
        {
          "indexed": true,
          "internalType": "uint256",
          "name": "teamId",
          "type": "uint256"
        },
        {
          "indexed": true,
          "internalType": "address",
          "name": "account",
          "type": "address"
        },
        {
          "indexed": false,
          "internalType": "enum ITeams.EPermissions",
          "name": "newPermission",
          "type": "uint8"
        }
      ],
      "name": "PermissionsUpdated",
      "type": "event"
    },
    {
      "anonymous": false,
      "inputs": [
        {
          "indexed": true,
          "internalType": "uint256",
          "name": "teamId",
          "type": "uint256"
        },
        {
          "indexed": true,
          "internalType": "address",
          "name": "to",
          "type": "address"
        }
      ],
      "name": "TeamCreated",
      "type": "event"
    },
    {
      "anonymous": false,
      "inputs": [
        {
          "indexed": true,
          "internalType": "address",
          "name": "from",
          "type": "address"
        },
        {
          "indexed": true,
          "internalType": "address",
          "name": "to",
          "type": "address"
        },
        {
          "indexed": true,
          "internalType": "uint256",
          "name": "tokenId",
          "type": "uint256"
        }
      ],
      "name": "Transfer",
      "type": "event"
    },
    {
      "anonymous": false,
      "inputs": [
        {
          "indexed": true,
          "internalType": "uint256",
          "name": "teamId",
          "type": "uint256"
        },
        {
          "indexed": true,
          "internalType": "uint256",
          "name": "orgId",
          "type": "uint256"
        }
      ],
      "name": "TransferToOrganisation",
      "type": "event"
    },
    {
      "inputs": [
        {
          "internalType": "address",
          "name": "account",
          "type": "address"
        },
        {
          "internalType": "uint256",
          "name": "amount",
          "type": "uint256"
        }
      ],
      "name": "$__unsafe_increaseBalance",
      "outputs": [],
      "stateMutability": "nonpayable",
      "type": "function"
    },
    {
      "inputs": [
        {
          "internalType": "address",
          "name": "from",
          "type": "address"
        },
        {
          "internalType": "address",
          "name": "to",
          "type": "address"
        },
        {
          "internalType": "uint256",
          "name": "firstTokenId",
          "type": "uint256"
        },
        {
          "internalType": "uint256",
          "name": "batchSize",
          "type": "uint256"
        }
      ],
      "name": "$_afterTokenTransfer",
      "outputs": [],
      "stateMutability": "nonpayable",
      "type": "function"
    },
    {
      "inputs": [
        {
          "internalType": "address",
          "name": "to",
          "type": "address"
        },
        {
          "internalType": "uint256",
          "name": "tokenId",
          "type": "uint256"
        }
      ],
      "name": "$_approve",
      "outputs": [],
      "stateMutability": "nonpayable",
      "type": "function"
    },
    {
      "inputs": [],
      "name": "$_baseURI",
      "outputs": [
        {
          "internalType": "string",
          "name": "ret0",
          "type": "string"
        }
      ],
      "stateMutability": "view",
      "type": "function"
    },
    {
      "inputs": [
        {
          "internalType": "address",
          "name": "from",
          "type": "address"
        },
        {
          "internalType": "address",
          "name": "to",
          "type": "address"
        },
        {
          "internalType": "uint256",
          "name": "firstTokenId",
          "type": "uint256"
        },
        {
          "internalType": "uint256",
          "name": "batchSize",
          "type": "uint256"
        }
      ],
      "name": "$_beforeTokenTransfer",
      "outputs": [],
      "stateMutability": "nonpayable",
      "type": "function"
    },
    {
      "inputs": [
        {
          "internalType": "uint256",
          "name": "tokenId",
          "type": "uint256"
        }
      ],
      "name": "$_burn",
      "outputs": [],
      "stateMutability": "nonpayable",
      "type": "function"
    },
    {
      "inputs": [],
      "name": "$_checkOwner",
      "outputs": [],
      "stateMutability": "view",
      "type": "function"
    },
    {
      "inputs": [
        {
          "internalType": "uint256",
          "name": "tokenId",
          "type": "uint256"
        }
      ],
      "name": "$_exists",
      "outputs": [
        {
          "internalType": "bool",
          "name": "ret0",
          "type": "bool"
        }
      ],
      "stateMutability": "view",
      "type": "function"
    },
    {
      "inputs": [
        {
          "internalType": "address",
          "name": "spender",
          "type": "address"
        },
        {
          "internalType": "uint256",
          "name": "tokenId",
          "type": "uint256"
        }
      ],
      "name": "$_isApprovedOrOwner",
      "outputs": [
        {
          "internalType": "bool",
          "name": "ret0",
          "type": "bool"
        }
      ],
      "stateMutability": "view",
      "type": "function"
    },
    {
      "inputs": [
        {
          "internalType": "address",
          "name": "to",
          "type": "address"
        },
        {
          "internalType": "uint256",
          "name": "tokenId",
          "type": "uint256"
        }
      ],
      "name": "$_mint",
      "outputs": [],
      "stateMutability": "nonpayable",
      "type": "function"
    },
    {
      "inputs": [],
      "name": "$_msgData",
      "outputs": [
        {
          "internalType": "bytes",
          "name": "ret0",
          "type": "bytes"
        }
      ],
      "stateMutability": "view",
      "type": "function"
    },
    {
      "inputs": [],
      "name": "$_msgSender",
      "outputs": [
        {
          "internalType": "address",
          "name": "ret0",
          "type": "address"
        }
      ],
      "stateMutability": "view",
      "type": "function"
    },
    {
      "inputs": [
        {
          "internalType": "uint256",
          "name": "teamId",
          "type": "uint256"
        }
      ],
      "name": "$_ownerOf",
      "outputs": [
        {
          "internalType": "address",
          "name": "ret0",
          "type": "address"
        }
      ],
      "stateMutability": "view",
      "type": "function"
    },
    {
      "inputs": [
        {
          "internalType": "uint256",
          "name": "arg0",
          "type": "uint256"
        }
      ],
      "name": "$_owners",
      "outputs": [
        {
          "internalType": "address",
          "name": "",
          "type": "address"
        }
      ],
      "stateMutability": "view",
      "type": "function"
    },
    {
      "inputs": [
        {
          "internalType": "uint256",
          "name": "tokenId",
          "type": "uint256"
        }
      ],
      "name": "$_requireMinted",
      "outputs": [],
      "stateMutability": "view",
      "type": "function"
    },
    {
      "inputs": [
        {
          "internalType": "address",
          "name": "to",
          "type": "address"
        },
        {
          "internalType": "uint256",
          "name": "tokenId",
          "type": "uint256"
        },
        {
          "internalType": "bytes",
          "name": "data",
          "type": "bytes"
        }
      ],
      "name": "$_safeMint",
      "outputs": [],
      "stateMutability": "nonpayable",
      "type": "function"
    },
    {
      "inputs": [
        {
          "internalType": "address",
          "name": "to",
          "type": "address"
        },
        {
          "internalType": "uint256",
          "name": "tokenId",
          "type": "uint256"
        }
      ],
      "name": "$_safeMint",
      "outputs": [],
      "stateMutability": "nonpayable",
      "type": "function"
    },
    {
      "inputs": [
        {
          "internalType": "address",
          "name": "from",
          "type": "address"
        },
        {
          "internalType": "address",
          "name": "to",
          "type": "address"
        },
        {
          "internalType": "uint256",
          "name": "tokenId",
          "type": "uint256"
        },
        {
          "internalType": "bytes",
          "name": "data",
          "type": "bytes"
        }
      ],
      "name": "$_safeTransfer",
      "outputs": [],
      "stateMutability": "nonpayable",
      "type": "function"
    },
    {
      "inputs": [
        {
          "internalType": "address",
          "name": "from",
          "type": "address"
        },
        {
          "internalType": "address",
          "name": "to",
          "type": "address"
        },
        {
          "internalType": "uint256",
          "name": "tokenId",
          "type": "uint256"
        }
      ],
      "name": "$_safeTransfer",
      "outputs": [],
      "stateMutability": "nonpayable",
      "type": "function"
    },
    {
      "inputs": [
        {
          "internalType": "address",
          "name": "owner",
          "type": "address"
        },
        {
          "internalType": "address",
          "name": "operator",
          "type": "address"
        },
        {
          "internalType": "bool",
          "name": "approved",
          "type": "bool"
        }
      ],
      "name": "$_setApprovalForAll",
      "outputs": [],
      "stateMutability": "nonpayable",
      "type": "function"
    },
    {
      "inputs": [
        {
          "internalType": "address",
          "name": "from",
          "type": "address"
        },
        {
          "internalType": "address",
          "name": "to",
          "type": "address"
        },
        {
          "internalType": "uint256",
          "name": "tokenId",
          "type": "uint256"
        }
      ],
      "name": "$_transfer",
      "outputs": [],
      "stateMutability": "nonpayable",
      "type": "function"
    },
    {
      "inputs": [
        {
          "internalType": "address",
          "name": "newOwner",
          "type": "address"
        }
      ],
      "name": "$_transferOwnership",
      "outputs": [],
      "stateMutability": "nonpayable",
      "type": "function"
    },
    {
      "inputs": [
        {
          "components": [
            {
              "internalType": "uint256",
              "name": "blockNumber",
              "type": "uint256"
            },
            {
              "internalType": "address",
              "name": "nodeAddress",
              "type": "address"
            }
          ],
          "internalType": "struct SignatureVerifier.EncodedMessage",
          "name": "_encodedMessage",
          "type": "tuple"
        }
      ],
      "name": "$checkMessageValidity",
      "outputs": [
        {
          "internalType": "bool",
          "name": "ret0",
          "type": "bool"
        }
      ],
      "stateMutability": "view",
      "type": "function"
    },
    {
      "inputs": [
        {
          "internalType": "bytes32",
          "name": "_messageHash",
          "type": "bytes32"
        }
      ],
      "name": "$getEthSignedMessageHash",
      "outputs": [
        {
          "internalType": "bytes32",
          "name": "ret0",
          "type": "bytes32"
        }
      ],
      "stateMutability": "pure",
      "type": "function"
    },
    {
      "inputs": [
        {
          "internalType": "bytes",
          "name": "_data",
          "type": "bytes"
        }
      ],
      "name": "$getMessageHash",
      "outputs": [
        {
          "internalType": "bytes32",
          "name": "ret0",
          "type": "bytes32"
        }
      ],
      "stateMutability": "pure",
      "type": "function"
    },
    {
      "inputs": [],
      "name": "__hh_exposed_bytecode_marker",
      "outputs": [
        {
          "internalType": "bytes32",
          "name": "",
          "type": "bytes32"
        }
      ],
      "stateMutability": "view",
      "type": "function"
    },
    {
      "inputs": [
        {
          "internalType": "address",
          "name": "node",
          "type": "address"
        }
      ],
      "name": "_nodes",
      "outputs": [
        {
          "internalType": "bool",
          "name": "isNode",
          "type": "bool"
        }
      ],
      "stateMutability": "view",
      "type": "function"
    },
    {
      "inputs": [
        {
          "internalType": "address",
          "name": "node",
          "type": "address"
        }
      ],
      "name": "addNode",
      "outputs": [],
      "stateMutability": "nonpayable",
      "type": "function"
    },
    {
      "inputs": [
        {
          "internalType": "address",
          "name": "to",
          "type": "address"
        },
        {
          "internalType": "uint256",
          "name": "tokenId",
          "type": "uint256"
        }
      ],
      "name": "approve",
      "outputs": [],
      "stateMutability": "nonpayable",
      "type": "function"
    },
    {
      "inputs": [
        {
          "internalType": "address",
          "name": "owner",
          "type": "address"
        }
      ],
      "name": "balanceOf",
      "outputs": [
        {
          "internalType": "uint256",
          "name": "",
          "type": "uint256"
        }
      ],
      "stateMutability": "view",
      "type": "function"
    },
    {
      "inputs": [
        {
          "components": [
            {
              "internalType": "bytes",
              "name": "encodedMessage",
              "type": "bytes"
            },
            {
              "internalType": "bytes32",
              "name": "messageHash",
              "type": "bytes32"
            },
            {
              "internalType": "bytes",
              "name": "signature",
              "type": "bytes"
            },
            {
              "internalType": "address",
              "name": "signer",
              "type": "address"
            }
          ],
          "internalType": "struct SignatureVerifier.Signature",
          "name": "_signature",
          "type": "tuple"
        }
      ],
      "name": "checkSignature",
      "outputs": [
        {
          "components": [
            {
              "internalType": "uint256",
              "name": "blockNumber",
              "type": "uint256"
            },
            {
              "internalType": "address",
              "name": "nodeAddress",
              "type": "address"
            }
          ],
          "internalType": "struct SignatureVerifier.EncodedMessage",
          "name": "",
          "type": "tuple"
        }
      ],
      "stateMutability": "view",
      "type": "function"
    },
    {
      "inputs": [
        {
          "internalType": "address",
          "name": "to",
          "type": "address"
        }
      ],
      "name": "createTeam",
      "outputs": [
        {
          "internalType": "uint256",
          "name": "newTeamId",
          "type": "uint256"
        }
      ],
      "stateMutability": "nonpayable",
      "type": "function"
    },
    {
      "inputs": [
        {
          "components": [
            {
              "internalType": "bytes",
              "name": "encodedMessage",
              "type": "bytes"
            },
            {
              "internalType": "bytes32",
              "name": "messageHash",
              "type": "bytes32"
            },
            {
              "internalType": "bytes",
              "name": "signature",
              "type": "bytes"
            },
            {
              "internalType": "address",
              "name": "signer",
              "type": "address"
            }
          ],
          "internalType": "struct SignatureVerifier.Signature",
          "name": "signature",
          "type": "tuple"
        },
        {
          "internalType": "bytes[]",
          "name": "_calldata",
          "type": "bytes[]"
        }
      ],
      "name": "delegateCallsToSelf",
      "outputs": [],
      "stateMutability": "nonpayable",
      "type": "function"
    },
    {
      "inputs": [
        {
          "internalType": "uint256",
          "name": "tokenId",
          "type": "uint256"
        }
      ],
      "name": "getApproved",
      "outputs": [
        {
          "internalType": "address",
          "name": "",
          "type": "address"
        }
      ],
      "stateMutability": "view",
      "type": "function"
    },
    {
      "inputs": [],
      "name": "getNumberOfTeamsCreated",
      "outputs": [
        {
          "internalType": "uint256",
          "name": "totalAmountOfTeams",
          "type": "uint256"
        }
      ],
      "stateMutability": "view",
      "type": "function"
    },
    {
      "inputs": [],
      "name": "getParent",
      "outputs": [
        {
          "internalType": "address",
          "name": "",
          "type": "address"
        }
      ],
      "stateMutability": "view",
      "type": "function"
    },
    {
      "inputs": [
        {
          "internalType": "uint256",
          "name": "teamId",
          "type": "uint256"
        },
        {
          "internalType": "address",
          "name": "user",
          "type": "address"
        },
        {
          "internalType": "enum ITeams.EPermissions",
          "name": "permission",
          "type": "uint8"
        }
      ],
      "name": "hasPermission",
      "outputs": [
        {
          "internalType": "bool",
          "name": "_hasPermission",
          "type": "bool"
        }
      ],
      "stateMutability": "view",
      "type": "function"
    },
    {
      "inputs": [
        {
          "internalType": "address",
          "name": "owner",
          "type": "address"
        },
        {
          "internalType": "address",
          "name": "operator",
          "type": "address"
        }
      ],
      "name": "isApprovedForAll",
      "outputs": [
        {
          "internalType": "bool",
          "name": "",
          "type": "bool"
        }
      ],
      "stateMutability": "view",
      "type": "function"
    },
    {
      "inputs": [
        {
          "internalType": "address",
          "name": "node",
          "type": "address"
        }
      ],
      "name": "isNode",
      "outputs": [
        {
          "internalType": "bool",
          "name": "",
          "type": "bool"
        }
      ],
      "stateMutability": "view",
      "type": "function"
    },
    {
      "inputs": [],
      "name": "name",
      "outputs": [
        {
          "internalType": "string",
          "name": "",
          "type": "string"
        }
      ],
      "stateMutability": "view",
      "type": "function"
    },
    {
      "inputs": [
        {
          "internalType": "address",
          "name": "",
          "type": "address"
        },
        {
          "internalType": "address",
          "name": "",
          "type": "address"
        },
        {
          "internalType": "uint256",
          "name": "",
          "type": "uint256"
        },
        {
          "internalType": "bytes",
          "name": "",
          "type": "bytes"
        }
      ],
      "name": "onERC721Received",
      "outputs": [
        {
          "internalType": "bytes4",
          "name": "",
          "type": "bytes4"
        }
      ],
      "stateMutability": "nonpayable",
      "type": "function"
    },
    {
      "inputs": [
        {
          "internalType": "uint256",
          "name": "team",
          "type": "uint256"
        }
      ],
      "name": "organisationOf",
      "outputs": [
        {
          "internalType": "uint256",
          "name": "organisation",
          "type": "uint256"
        }
      ],
      "stateMutability": "view",
      "type": "function"
    },
    {
      "inputs": [],
      "name": "organisations",
      "outputs": [
        {
          "internalType": "address",
          "name": "",
          "type": "address"
        }
      ],
      "stateMutability": "view",
      "type": "function"
    },
    {
      "inputs": [],
      "name": "owner",
      "outputs": [
        {
          "internalType": "address",
          "name": "",
          "type": "address"
        }
      ],
      "stateMutability": "view",
      "type": "function"
    },
    {
      "inputs": [
        {
          "internalType": "uint256",
          "name": "tokenId",
          "type": "uint256"
        }
      ],
      "name": "ownerOf",
      "outputs": [
        {
          "internalType": "address",
          "name": "",
          "type": "address"
        }
      ],
      "stateMutability": "view",
      "type": "function"
    },
    {
      "inputs": [
        {
          "internalType": "uint256",
          "name": "team",
          "type": "uint256"
        },
        {
          "internalType": "address",
          "name": "user",
          "type": "address"
        }
      ],
      "name": "permissionsOfTeam",
      "outputs": [
        {
          "internalType": "enum ITeams.EPermissions",
          "name": "permission",
          "type": "uint8"
        }
      ],
      "stateMutability": "view",
      "type": "function"
    },
    {
      "inputs": [],
      "name": "renounceOwnership",
      "outputs": [],
      "stateMutability": "nonpayable",
      "type": "function"
    },
    {
      "inputs": [
        {
          "internalType": "address",
          "name": "from",
          "type": "address"
        },
        {
          "internalType": "address",
          "name": "to",
          "type": "address"
        },
        {
          "internalType": "uint256",
          "name": "tokenId",
          "type": "uint256"
        }
      ],
      "name": "safeTransferFrom",
      "outputs": [],
      "stateMutability": "nonpayable",
      "type": "function"
    },
    {
      "inputs": [
        {
          "internalType": "address",
          "name": "from",
          "type": "address"
        },
        {
          "internalType": "address",
          "name": "to",
          "type": "address"
        },
        {
          "internalType": "uint256",
          "name": "tokenId",
          "type": "uint256"
        },
        {
          "internalType": "bytes",
          "name": "data",
          "type": "bytes"
        }
      ],
      "name": "safeTransferFrom",
      "outputs": [],
      "stateMutability": "nonpayable",
      "type": "function"
    },
    {
      "inputs": [
        {
          "internalType": "address",
          "name": "operator",
          "type": "address"
        },
        {
          "internalType": "bool",
          "name": "approved",
          "type": "bool"
        }
      ],
      "name": "setApprovalForAll",
      "outputs": [],
      "stateMutability": "nonpayable",
      "type": "function"
    },
    {
      "inputs": [
        {
          "internalType": "uint256",
          "name": "teamId",
          "type": "uint256"
        },
        {
          "internalType": "address",
          "name": "user",
          "type": "address"
        },
        {
          "internalType": "enum ITeams.EPermissions",
          "name": "permission",
          "type": "uint8"
        }
      ],
      "name": "setPermission",
      "outputs": [],
      "stateMutability": "nonpayable",
      "type": "function"
    },
    {
      "inputs": [
        {
          "internalType": "bytes4",
          "name": "interfaceId",
          "type": "bytes4"
        }
      ],
      "name": "supportsInterface",
      "outputs": [
        {
          "internalType": "bool",
          "name": "",
          "type": "bool"
        }
      ],
      "stateMutability": "view",
      "type": "function"
    },
    {
      "inputs": [],
      "name": "symbol",
      "outputs": [
        {
          "internalType": "string",
          "name": "",
          "type": "string"
        }
      ],
      "stateMutability": "view",
      "type": "function"
    },
    {
      "inputs": [
        {
          "internalType": "uint256",
          "name": "tokenId",
          "type": "uint256"
        }
      ],
      "name": "tokenURI",
      "outputs": [
        {
          "internalType": "string",
          "name": "",
          "type": "string"
        }
      ],
      "stateMutability": "view",
      "type": "function"
    },
    {
      "inputs": [
        {
          "internalType": "address",
          "name": "from",
          "type": "address"
        },
        {
          "internalType": "address",
          "name": "to",
          "type": "address"
        },
        {
          "internalType": "uint256",
          "name": "tokenId",
          "type": "uint256"
        }
      ],
      "name": "transferFrom",
      "outputs": [],
      "stateMutability": "nonpayable",
      "type": "function"
    },
    {
      "inputs": [
        {
          "internalType": "address",
          "name": "newOwner",
          "type": "address"
        }
      ],
      "name": "transferOwnership",
      "outputs": [],
      "stateMutability": "nonpayable",
      "type": "function"
    },
    {
      "inputs": [
        {
          "internalType": "uint256",
          "name": "teamId",
          "type": "uint256"
        },
        {
          "internalType": "uint256",
          "name": "orgId",
          "type": "uint256"
        }
      ],
      "name": "transferToOrganisation",
      "outputs": [],
      "stateMutability": "nonpayable",
      "type": "function"
    },
    {
      "stateMutability": "payable",
      "type": "receive"
    }
  ],
  "bytecode": "0x60806040526040516200358938038062003589833981016040819052620000269162000187565b80806040518060400160405280600981526020016845746368205465616d60b81b815250604051806040016040528060068152602001650e85a8aa886960d31b8152506200007b6000620000eb60201b60201c565b60016200008983826200025e565b5060026200009882826200025e565b505050620000b5620000af6200010d60201b60201c565b62000135565b600880546001600160a01b039283166001600160a01b031991821617909155600b8054939092169216919091179055506200032a565b600080546001600160a01b0319166001600160a01b0392909216919091179055565b600080546001600160a01b0316156200013057506000546001600160a01b031690565b503390565b600780546001600160a01b038381166001600160a01b0319831681179093556040519116919082907f8be0079c531659141344cd1fd0a4f28419497f9722a3daafe3b4186f6b6457e090600090a35050565b6000602082840312156200019a57600080fd5b81516001600160a01b0381168114620001b257600080fd5b9392505050565b634e487b7160e01b600052604160045260246000fd5b600181811c90821680620001e457607f821691505b6020821081036200020557634e487b7160e01b600052602260045260246000fd5b50919050565b601f8211156200025957600081815260208120601f850160051c81016020861015620002345750805b601f850160051c820191505b81811015620002555782815560010162000240565b5050505b505050565b81516001600160401b038111156200027a576200027a620001b9565b62000292816200028b8454620001cf565b846200020b565b602080601f831160018114620002ca5760008415620002b15750858301515b600019600386901b1c1916600185901b17855562000255565b600085815260208120601f198616915b82811015620002fb57888601518255948401946001909101908401620002da565b50858210156200031a5787850151600019600388901b60f8161c191681555b5050505050600190811b01905550565b61324f806200033a6000396000f3fe60806040526004361061037a5760003560e01c806381fb5d4b116101d1578063c37add5111610102578063d8483834116100a0578063ebcca7071161006f578063ebcca70714610ac7578063efb43b0714610adc578063f2fde38b14610afc578063fe1c9a2414610b1c57600080fd5b8063d848383414610a16578063e07084c214610497578063e5299e5c14610a36578063e985e9c514610a7e57600080fd5b8063cc461d62116100dc578063cc461d6214610996578063cd43f47d146109b6578063cfeea0d4146109d6578063d261af54146109f657600080fd5b8063c37add5114610936578063c4a96fa614610956578063c87b56dd1461097657600080fd5b80639ff2f02d1161016f578063abf0e71f11610149578063abf0e71f146108b6578063adfb881e146108d6578063b88d4fde146108f6578063bc1facf41461091657600080fd5b80639ff2f02d14610856578063a22cb46514610876578063a2373a821461089657600080fd5b806395d89b41116101ab57806395d89b41146107e157806398a1f7a0146107f6578063999f066e146108165780639d95f1cc1461083657600080fd5b806381fb5d4b14610773578063823abfd9146107a35780638da5cb5b146107c357600080fd5b806332cadf3c116102ab5780636352211e11610249578063733555ec11610223578063733555ec146106e857806378c7c8b4146107085780637b77958d1461073557806380f760211461075557600080fd5b80636352211e1461069357806370a08231146106b3578063715018a6146106d357600080fd5b806342842e0e1161028557806342842e0e1461061e578063458ee0021461063e5780634b4b98bd1461065e5780634bb25cca1461067e57600080fd5b806332cadf3c1461059f578063342db739146105b457806336faee60146105e857600080fd5b8063147619da116103185780631a67bf94116102f25780631a67bf941461050657806323b872dd146105265780632904df2914610546578063313a99401461055b57600080fd5b8063147619da14610497578063150b7a02146104b8578063161e977d146104f157600080fd5b8063081812fc11610354578063081812fc146103fd578063095ea7b31461043557806309854d721461045757806313327d961461047757600080fd5b8063017501521461038657806301ffc9a7146103bb57806306fdde03146103db57600080fd5b3661038157005b600080fd5b34801561039257600080fd5b506103a66103a13660046127b5565b610b3c565b60405190151581526020015b60405180910390f35b3480156103c757600080fd5b506103a66103d63660046127e8565b610be1565b3480156103e757600080fd5b506103f0610c31565b6040516103b29190612855565b34801561040957600080fd5b5061041d610418366004612868565b610cc3565b6040516001600160a01b0390911681526020016103b2565b34801561044157600080fd5b50610455610450366004612881565b610cea565b005b34801561046357600080fd5b50610455610472366004612868565b610e16565b34801561048357600080fd5b506104556104923660046128ad565b610e22565b3480156104a357600080fd5b506104556104b23660046128cf565b50505050565b3480156104c457600080fd5b506104d86104d33660046129f5565b610f05565b6040516001600160e01b031990911681526020016103b2565b3480156104fd57600080fd5b506103f0610f16565b34801561051257600080fd5b506103a6610521366004612a61565b610f32565b34801561053257600080fd5b50610455610541366004612a79565b610f4b565b34801561055257600080fd5b5061041d610f83565b34801561056757600080fd5b5061057b610576366004612b62565b610f8d565b60408051825181526020928301516001600160a01b031692810192909252016103b2565b3480156105ab57600080fd5b506103f06110c0565b3480156105c057600080fd5b506105da6e1a185c991a185d0b595e1c1bdcd959608a1b81565b6040519081526020016103b2565b3480156105f457600080fd5b5061041d610603366004612868565b6000908152600360205260409020546001600160a01b031690565b34801561062a57600080fd5b50610455610639366004612a79565b6110ff565b34801561064a57600080fd5b5061041d610659366004612868565b61111a565b34801561066a57600080fd5b50610455610679366004612b97565b611125565b34801561068a57600080fd5b506105da6111ef565b34801561069f57600080fd5b5061041d6106ae366004612868565b6111fa565b3480156106bf57600080fd5b506105da6106ce3660046127b5565b611259565b3480156106df57600080fd5b506104556112df565b3480156106f457600080fd5b50610455610703366004612cc0565b6112f3565b34801561071457600080fd5b506105da610723366004612868565b600d6020526000908152604090205481565b34801561074157600080fd5b506105da610750366004612868565b61133c565b34801561076157600080fd5b506008546001600160a01b031661041d565b34801561077f57600080fd5b506103a661078e3660046127b5565b60096020526000908152604090205460ff1681565b3480156107af57600080fd5b506103a66107be366004612d33565b611347565b3480156107cf57600080fd5b506007546001600160a01b031661041d565b3480156107ed57600080fd5b506103f06113c7565b34801561080257600080fd5b50610455610811366004612881565b6113d6565b34801561082257600080fd5b50610455610831366004612d33565b6113e4565b34801561084257600080fd5b506104556108513660046127b5565b6115b5565b34801561086257600080fd5b50610455610871366004612d79565b6115e1565b34801561088257600080fd5b50610455610891366004612de3565b611622565b3480156108a257600080fd5b506104556108b1366004612868565b61169f565b3480156108c257600080fd5b50600b5461041d906001600160a01b031681565b3480156108e257600080fd5b506105da6108f13660046127b5565b6116a8565b34801561090257600080fd5b506104556109113660046129f5565b61170b565b34801561092257600080fd5b506105da610931366004612e1c565b611744565b34801561094257600080fd5b506103a6610951366004612868565b611785565b34801561096257600080fd5b506103a6610971366004612881565b611790565b34801561098257600080fd5b506103f0610991366004612868565b61179c565b3480156109a257600080fd5b506104556109b1366004612881565b61180f565b3480156109c257600080fd5b506104556109d1366004612881565b611819565b3480156109e257600080fd5b506104556109f1366004612e5e565b611823565b348015610a0257600080fd5b50610455610a11366004612881565b61182e565b348015610a2257600080fd5b50610455610a31366004612a79565b611838565b348015610a4257600080fd5b50610a71610a51366004612e9e565b600c60209081526000928352604080842090915290825290205460ff1681565b6040516103b29190612ed9565b348015610a8a57600080fd5b506103a6610a99366004612f01565b6001600160a01b03918216600090815260066020908152604080832093909416825291909152205460ff1690565b348015610ad357600080fd5b50610455611843565b348015610ae857600080fd5b50610455610af7366004612a79565b610f78565b348015610b0857600080fd5b50610455610b173660046127b5565b61184b565b348015610b2857600080fd5b50610455610b373660046127b5565b6118b8565b6008546000906001600160a01b0316610b6e57506001600160a01b031660009081526009602052604090205460ff1690565b60085460405162ba80a960e11b81526001600160a01b03848116600483015290911690630175015290602401602060405180830381865afa158015610bb7573d6000803e3d6000fd5b505050506040513d601f19601f82011682018060405250810190610bdb9190612f2f565b92915050565b60006001600160e01b031982166380ac58cd60e01b1480610c1257506001600160e01b03198216635b5e139f60e01b145b80610bdb57506301ffc9a760e01b6001600160e01b0319831614610bdb565b606060018054610c4090612f4c565b80601f0160208091040260200160405190810160405280929190818152602001828054610c6c90612f4c565b8015610cb95780601f10610c8e57610100808354040283529160200191610cb9565b820191906000526020600020905b815481529060010190602001808311610c9c57829003601f168201915b5050505050905090565b6000610cce826118c1565b506000908152600560205260409020546001600160a01b031690565b6000610cf5826111fa565b9050806001600160a01b0316836001600160a01b031603610d675760405162461bcd60e51b815260206004820152602160248201527f4552433732313a20617070726f76616c20746f2063757272656e74206f776e656044820152603960f91b60648201526084015b60405180910390fd5b806001600160a01b0316610d79611911565b6001600160a01b03161480610d955750610d9581610a99611911565b610e075760405162461bcd60e51b815260206004820152603d60248201527f4552433732313a20617070726f76652063616c6c6572206973206e6f7420746f60448201527f6b656e206f776e6572206f7220617070726f76656420666f7220616c6c0000006064820152608401610d5e565b610e118383611938565b505050565b610e1f816118c1565b50565b610e2a611911565b6001600160a01b0316610e3c836111fa565b6001600160a01b031614610ea95760405162461bcd60e51b815260206004820152602e60248201527f5445414d533a204f6e6c79204f776e65722063616e207472616e73666572207460448201526d379027b933b0b734b9b0ba34b7b760911b6064820152608401610d5e565b610ec6610eb4611911565b600b546001600160a01b0316846119a6565b6000828152600d602052604080822083905551829184917fc175b54b62e7156ecc6ffb8da5c15704f0bd44b4b973e9962f622d54f4d0e5d59190a35050565b630a85bd0160e11b5b949350505050565b6060610f2d60408051602081019091526000815290565b905090565b6000610bdb610f4636849003840184612f80565b611b0a565b610f5c610f56611911565b82611b5d565b610f785760405162461bcd60e51b8152600401610d5e90612fb8565b610e118383836119a6565b6000610f2d611911565b604080518082019091526000808252602082015260208201518251610fb790805160209091012090565b146110195760405162461bcd60e51b815260206004820152602c60248201527f546865206d657373616765206861736820646f65736e2774206d61746368207460448201526b6865206f726967696e616c2160a01b6064820152608401610d5e565b60006110288360200151611be6565b9050600061103a828560400151611c39565b905083606001516001600160a01b0316816001600160a01b0316146110925760405162461bcd60e51b815260206004820152600e60248201526d24b73b30b634b21039b4b3b732b960911b6044820152606401610d5e565b600084600001518060200190518101906110ac9190613005565b90506110b781611b0a565b50949350505050565b60606000368080601f01602080910402602001604051908101604052809392919081815260200183838082843760009201919091525092949350505050565b610e118383836040518060200160405280600081525061170b565b6000610bdb82611c5d565b6111306103a1611911565b61114c5760405162461bcd60e51b8152600401610d5e90613031565b600061115783610f8d565b60208101519091506001600160a01b0316331480611180575060208101516001600160a01b0316155b61119c5760405162461bcd60e51b8152600401610d5e90613031565b6111a533610b3c565b806111c5575082606001516001600160a01b0316336001600160a01b0316145b6111e15760405162461bcd60e51b8152600401610d5e90613031565b610e11836060015183611d05565b6000610f2d600a5490565b60008061120683611c5d565b90506001600160a01b038116610bdb5760405162461bcd60e51b8152602060048201526018602482015277115490cdcc8c4e881a5b9d985b1a59081d1bdad95b88125160421b6044820152606401610d5e565b60006001600160a01b0382166112c35760405162461bcd60e51b815260206004820152602960248201527f4552433732313a2061646472657373207a65726f206973206e6f7420612076616044820152683634b21037bbb732b960b91b6064820152608401610d5e565b506001600160a01b031660009081526004602052604090205490565b6112e7611e37565b6112f16000611eb0565b565b61133585858585858080601f016020809104026020016040519081016040528093929190818152602001838380828437600092019190915250611f0292505050565b5050505050565b6000610bdb82611be6565b6000826001600160a01b031661135c856111fa565b6001600160a01b031603611372575060016113c0565b81600281111561138457611384612ec3565b6000858152600c602090815260408083206001600160a01b038816845290915290205460ff1660028111156113bb576113bb612ec3565b101590505b9392505050565b606060028054610c4090612f4c565b6113e08282611f35565b5050565b826113ed611911565b6001600160a01b03166113ff826111fa565b6001600160a01b031614806114a95750600b546000828152600d60205260409020546001600160a01b039091169063146a29119061143b611911565b6040516001600160e01b031960e085901b16815260048101929092526001600160a01b03166024820152604401602060405180830381865afa158015611485573d6000803e3d6000fd5b505050506040513d601f19601f820116820180604052508101906114a99190612f2f565b6115295760405162461bcd60e51b8152602060048201526044602482018190527f5445414d533a204f6e6c7920746865204f776e65722c206f7220616e204f7267908201527f616e69736174696f6e2041646d696e2063616e20736574207065726d6973736960648201526337b7399760e11b608482015260a401610d5e565b6000848152600c602090815260408083206001600160a01b03871684529091529020805483919060ff1916600183600281111561156857611568612ec3565b0217905550826001600160a01b0316847f0faa556cadb9cafbbf015fb98b93c217a4522fc3f20548c224967adf978ffb81846040516115a79190612ed9565b60405180910390a350505050565b6115bd611e37565b6001600160a01b03166000908152600960205260409020805460ff19166001179055565b6104b2848484848080601f016020809104026020016040519081016040528093929190818152602001838380828437600092019190915250611f6692505050565b6001600160a01b03821661168d5760405162461bcd60e51b815260206004820152602c60248201527f4552433732313a2061646472657373207a65726f206973206e6f74206120766160448201526b3634b21037b832b930ba37b960a11b6064820152608401610d5e565b6113e0611698611911565b8383611f99565b610e1f81612067565b60006116b8600a80546001019055565b60006116c3600a5490565b90506116cf83826120fc565b6040516001600160a01b0384169082907f1c483dd823f07c903e6b78f350b4077cc066d97e34e20f9787befd74c551766390600090a392915050565b61171c611716611911565b83611b5d565b6117385760405162461bcd60e51b8152600401610d5e90612fb8565b6104b284848484611f02565b60006113c083838080601f016020809104026020016040519081016040528093929190818152602001838380828437600092019190915250611bdb92505050565b6000610bdb82612116565b60006113c08383611b5d565b60606117a7826118c1565b60006117be60408051602081019091526000815290565b905060008151116117de57604051806020016040528060008152506113c0565b806117e884612133565b6040516020016117f9929190613068565b6040516020818303038152906040529392505050565b6113e082826121c6565b6113e08282611938565b610e11838383611f99565b6113e082826120fc565b610e11838383612333565b6112f1611e37565b611853611e37565b6001600160a01b0381166118b85760405162461bcd60e51b815260206004820152602660248201527f4f776e61626c653a206e6577206f776e657220697320746865207a65726f206160448201526564647265737360d01b6064820152608401610d5e565b610e1f81611eb0565b6118ca81612116565b610e1f5760405162461bcd60e51b8152602060048201526018602482015277115490cdcc8c4e881a5b9d985b1a59081d1bdad95b88125160421b6044820152606401610d5e565b600080546001600160a01b03161561193357506000546001600160a01b031690565b503390565b600081815260056020526040902080546001600160a01b0319166001600160a01b038416908117909155819061196d826111fa565b6001600160a01b03167f8c5be1e5ebec7d5bd14f71427d1e84f3dd0314c0f7b2291e5b200ac8c7c3b92560405160405180910390a45050565b826001600160a01b03166119b9826111fa565b6001600160a01b0316146119df5760405162461bcd60e51b8152600401610d5e90613097565b6001600160a01b038216611a415760405162461bcd60e51b8152602060048201526024808201527f4552433732313a207472616e7366657220746f20746865207a65726f206164646044820152637265737360e01b6064820152608401610d5e565b826001600160a01b0316611a54826111fa565b6001600160a01b031614611a7a5760405162461bcd60e51b8152600401610d5e90613097565b600081815260056020908152604080832080546001600160a01b03199081169091556001600160a01b0387811680865260048552838620805460001901905590871680865283862080546001019055868652600390945282852080549092168417909155905184937fddf252ad1be2c89b69c2b068fc378daa952ba7f163c4a11628f55a4df523b3ef91a4505050565b60004382600001511015611b555760405162461bcd60e51b815260206004820152601260248201527113595cdcd859d9481a5cc8195e1c1a5c995960721b6044820152606401610d5e565b506001919050565b600080611b69836111fa565b9050806001600160a01b0316846001600160a01b03161480611bb057506001600160a01b0380821660009081526006602090815260408083209388168352929052205460ff165b80610f0e5750836001600160a01b0316611bc984610cc3565b6001600160a01b031614949350505050565b805160209091012090565b6040517f19457468657265756d205369676e6564204d6573736167653a0a3332000000006020820152603c8101829052600090605c01604051602081830303815290604052805190602001209050919050565b6000806000611c48858561234e565b91509150611c5581612393565b509392505050565b600081815260036020526040812054600b546001600160a01b0391821691168103610bdb57600b546000848152600d6020526040908190205490516331a9108f60e11b81526001600160a01b0390921691636352211e91611cc49160040190815260200190565b602060405180830381865afa158015611ce1573d6000803e3d6000fd5b505050506040513d601f19601f820116820180604052508101906113c091906130dc565b816001600160a01b038116611d685760405162461bcd60e51b815260206004820152602360248201527f436f6e746578743a206e6577436f6e74657874206973207a65726f206164647260448201526265737360e81b6064820152608401610d5e565b611d71816124dd565b60005b8251811015611e2c57600080306001600160a01b0316858481518110611d9c57611d9c6130f9565b6020026020010151604051611db1919061310f565b600060405180830381855af49150503d8060008114611dec576040519150601f19603f3d011682016040523d82523d6000602084013e611df1565b606091505b5091509150818190611e165760405162461bcd60e51b8152600401610d5e9190612855565b5050508080611e2490613141565b915050611d74565b50610e1160006124dd565b611e3f611911565b6001600160a01b0316611e5a6007546001600160a01b031690565b6001600160a01b0316146112f15760405162461bcd60e51b815260206004820181905260248201527f4f776e61626c653a2063616c6c6572206973206e6f7420746865206f776e65726044820152606401610d5e565b600780546001600160a01b038381166001600160a01b0319831681179093556040519116919082907f8be0079c531659141344cd1fd0a4f28419497f9722a3daafe3b4186f6b6457e090600090a35050565b611f0d8484846119a6565b611f19848484846124ff565b6104b25760405162461bcd60e51b8152600401610d5e9061315a565b6001600160a01b03821660009081526004602052604081208054839290611f5d9084906131ac565b90915550505050565b611f7083836121c6565b611f7d60008484846124ff565b610e115760405162461bcd60e51b8152600401610d5e9061315a565b816001600160a01b0316836001600160a01b031603611ffa5760405162461bcd60e51b815260206004820152601960248201527f4552433732313a20617070726f766520746f2063616c6c6572000000000000006044820152606401610d5e565b6001600160a01b03838116600081815260066020908152604080832094871680845294825291829020805460ff191686151590811790915591519182527f17307eab39ab6107e8899845ad3d59bd9653f200f220920489ca2b5937696c31910160405180910390a3505050565b6000612072826111fa565b905061207d826111fa565b600083815260056020908152604080832080546001600160a01b03199081169091556001600160a01b0385168085526004845282852080546000190190558785526003909352818420805490911690555192935084927fddf252ad1be2c89b69c2b068fc378daa952ba7f163c4a11628f55a4df523b3ef908390a45050565b6113e0828260405180602001604052806000815250611f66565b60008061212283611c5d565b6001600160a01b0316141592915050565b6060600061214083612604565b600101905060008167ffffffffffffffff81111561216057612160612915565b6040519080825280601f01601f19166020018201604052801561218a576020820181803683370190505b5090508181016020015b600019016f181899199a1a9b1b9c1cb0b131b232b360811b600a86061a8153600a850494508461219457509392505050565b6001600160a01b03821661221c5760405162461bcd60e51b815260206004820181905260248201527f4552433732313a206d696e7420746f20746865207a65726f20616464726573736044820152606401610d5e565b61222581612116565b156122725760405162461bcd60e51b815260206004820152601c60248201527f4552433732313a20746f6b656e20616c7265616479206d696e746564000000006044820152606401610d5e565b61227b81612116565b156122c85760405162461bcd60e51b815260206004820152601c60248201527f4552433732313a20746f6b656e20616c7265616479206d696e746564000000006044820152606401610d5e565b6001600160a01b038216600081815260046020908152604080832080546001019055848352600390915280822080546001600160a01b0319168417905551839291907fddf252ad1be2c89b69c2b068fc378daa952ba7f163c4a11628f55a4df523b3ef908290a45050565b610e1183838360405180602001604052806000815250611f02565b60008082516041036123845760208301516040840151606085015160001a612378878285856126dc565b9450945050505061238c565b506000905060025b9250929050565b60008160048111156123a7576123a7612ec3565b036123af5750565b60018160048111156123c3576123c3612ec3565b036124105760405162461bcd60e51b815260206004820152601860248201527f45434453413a20696e76616c6964207369676e617475726500000000000000006044820152606401610d5e565b600281600481111561242457612424612ec3565b036124715760405162461bcd60e51b815260206004820152601f60248201527f45434453413a20696e76616c6964207369676e6174757265206c656e677468006044820152606401610d5e565b600381600481111561248557612485612ec3565b03610e1f5760405162461bcd60e51b815260206004820152602260248201527f45434453413a20696e76616c6964207369676e6174757265202773272076616c604482015261756560f01b6064820152608401610d5e565b600080546001600160a01b0319166001600160a01b0392909216919091179055565b60006001600160a01b0384163b156125fc57836001600160a01b031663150b7a02612528611911565b8786866040518563ffffffff1660e01b815260040161254a94939291906131bf565b6020604051808303816000875af1925050508015612585575060408051601f3d908101601f19168201909252612582918101906131fc565b60015b6125e2573d8080156125b3576040519150601f19603f3d011682016040523d82523d6000602084013e6125b8565b606091505b5080516000036125da5760405162461bcd60e51b8152600401610d5e9061315a565b805181602001fd5b6001600160e01b031916630a85bd0160e11b149050610f0e565b506001610f0e565b60008072184f03e93ff9f4daa797ed6e38ed64bf6a1f0160401b83106126435772184f03e93ff9f4daa797ed6e38ed64bf6a1f0160401b830492506040015b6d04ee2d6d415b85acef8100000000831061266f576d04ee2d6d415b85acef8100000000830492506020015b662386f26fc10000831061268d57662386f26fc10000830492506010015b6305f5e10083106126a5576305f5e100830492506008015b61271083106126b957612710830492506004015b606483106126cb576064830492506002015b600a8310610bdb5760010192915050565b6000807f7fffffffffffffffffffffffffffffff5d576e7357a4501ddfe92f46681b20a08311156127135750600090506003612797565b6040805160008082526020820180845289905260ff881692820192909252606081018690526080810185905260019060a0016020604051602081039080840390855afa158015612767573d6000803e3d6000fd5b5050604051601f1901519150506001600160a01b03811661279057600060019250925050612797565b9150600090505b94509492505050565b6001600160a01b0381168114610e1f57600080fd5b6000602082840312156127c757600080fd5b81356113c0816127a0565b6001600160e01b031981168114610e1f57600080fd5b6000602082840312156127fa57600080fd5b81356113c0816127d2565b60005b83811015612820578181015183820152602001612808565b50506000910152565b60008151808452612841816020860160208601612805565b601f01601f19169290920160200192915050565b6020815260006113c06020830184612829565b60006020828403121561287a57600080fd5b5035919050565b6000806040838503121561289457600080fd5b823561289f816127a0565b946020939093013593505050565b600080604083850312156128c057600080fd5b50508035926020909101359150565b600080600080608085870312156128e557600080fd5b84356128f0816127a0565b93506020850135612900816127a0565b93969395505050506040820135916060013590565b634e487b7160e01b600052604160045260246000fd5b6040805190810167ffffffffffffffff8111828210171561294e5761294e612915565b60405290565b604051601f8201601f1916810167ffffffffffffffff8111828210171561297d5761297d612915565b604052919050565b600082601f83011261299657600080fd5b813567ffffffffffffffff8111156129b0576129b0612915565b6129c3601f8201601f1916602001612954565b8181528460208386010111156129d857600080fd5b816020850160208301376000918101602001919091529392505050565b60008060008060808587031215612a0b57600080fd5b8435612a16816127a0565b93506020850135612a26816127a0565b925060408501359150606085013567ffffffffffffffff811115612a4957600080fd5b612a5587828801612985565b91505092959194509250565b600060408284031215612a7357600080fd5b50919050565b600080600060608486031215612a8e57600080fd5b8335612a99816127a0565b92506020840135612aa9816127a0565b929592945050506040919091013590565b600060808284031215612acc57600080fd5b6040516080810167ffffffffffffffff8282108183111715612af057612af0612915565b816040528293508435915080821115612b0857600080fd5b612b1486838701612985565b8352602085013560208401526040850135915080821115612b3457600080fd5b50612b4185828601612985565b6040830152506060830135612b55816127a0565b6060919091015292915050565b600060208284031215612b7457600080fd5b813567ffffffffffffffff811115612b8b57600080fd5b610f0e84828501612aba565b60008060408385031215612baa57600080fd5b823567ffffffffffffffff80821115612bc257600080fd5b612bce86838701612aba565b9350602091508185013581811115612be557600080fd5b8501601f81018713612bf657600080fd5b803582811115612c0857612c08612915565b8060051b612c17858201612954565b918252828101850191858101908a841115612c3157600080fd5b86850192505b83831015612c6d57823586811115612c4f5760008081fd5b612c5d8c8983890101612985565b8352509186019190860190612c37565b809750505050505050509250929050565b60008083601f840112612c9057600080fd5b50813567ffffffffffffffff811115612ca857600080fd5b60208301915083602082850101111561238c57600080fd5b600080600080600060808688031215612cd857600080fd5b8535612ce3816127a0565b94506020860135612cf3816127a0565b935060408601359250606086013567ffffffffffffffff811115612d1657600080fd5b612d2288828901612c7e565b969995985093965092949392505050565b600080600060608486031215612d4857600080fd5b833592506020840135612d5a816127a0565b9150604084013560038110612d6e57600080fd5b809150509250925092565b60008060008060608587031215612d8f57600080fd5b8435612d9a816127a0565b935060208501359250604085013567ffffffffffffffff811115612dbd57600080fd5b612dc987828801612c7e565b95989497509550505050565b8015158114610e1f57600080fd5b60008060408385031215612df657600080fd5b8235612e01816127a0565b91506020830135612e1181612dd5565b809150509250929050565b60008060208385031215612e2f57600080fd5b823567ffffffffffffffff811115612e4657600080fd5b612e5285828601612c7e565b90969095509350505050565b600080600060608486031215612e7357600080fd5b8335612e7e816127a0565b92506020840135612e8e816127a0565b91506040840135612d6e81612dd5565b60008060408385031215612eb157600080fd5b823591506020830135612e11816127a0565b634e487b7160e01b600052602160045260246000fd5b6020810160038310612efb57634e487b7160e01b600052602160045260246000fd5b91905290565b60008060408385031215612f1457600080fd5b8235612f1f816127a0565b91506020830135612e11816127a0565b600060208284031215612f4157600080fd5b81516113c081612dd5565b600181811c90821680612f6057607f821691505b602082108103612a7357634e487b7160e01b600052602260045260246000fd5b600060408284031215612f9257600080fd5b612f9a61292b565b823581526020830135612fac816127a0565b60208201529392505050565b6020808252602d908201527f4552433732313a2063616c6c6572206973206e6f7420746f6b656e206f776e6560408201526c1c881bdc88185c1c1c9bdd9959609a1b606082015260800190565b60006040828403121561301757600080fd5b61301f61292b565b825181526020830151612fac816127a0565b6020808252601e908201527f4e4f444548414e444c45523a205045524d495353494f4e5f44454e4945440000604082015260600190565b6000835161307a818460208801612805565b83519083019061308e818360208801612805565b01949350505050565b60208082526025908201527f4552433732313a207472616e736665722066726f6d20696e636f72726563742060408201526437bbb732b960d91b606082015260800190565b6000602082840312156130ee57600080fd5b81516113c0816127a0565b634e487b7160e01b600052603260045260246000fd5b60008251613121818460208701612805565b9190910192915050565b634e487b7160e01b600052601160045260246000fd5b6000600182016131535761315361312b565b5060010190565b60208082526032908201527f4552433732313a207472616e7366657220746f206e6f6e20455243373231526560408201527131b2b4bb32b91034b6b83632b6b2b73a32b960711b606082015260800190565b80820180821115610bdb57610bdb61312b565b6001600160a01b03858116825284166020820152604081018390526080606082018190526000906131f290830184612829565b9695505050505050565b60006020828403121561320e57600080fd5b81516113c0816127d256fea2646970667358221220a888a9e49cb62e7949330e346f4fc27b4a2712e310da582423006ee562470ead64736f6c63430008130033",
  "linkReferences": {},
  "deployedLinkReferences": {}
}